{
	"data": {
		"bytecode": {
			"linkReferences": {},
			"object": "6080604052348015600e575f80fd5b506109718061001c5f395ff3fe608060405234801561000f575f80fd5b506004361061004a575f3560e01c8063464b2a101461004e578063859362281461007e5780639782dd2a146100ae578063adc02a64146100ca575b5f80fd5b610068600480360381019061006391906104b3565b6100e6565b60405161007591906105ba565b60405180910390f35b610098600480360381019061009391906104b3565b61015c565b6040516100a59190610619565b60405180910390f35b6100c860048036038101906100c391906104b3565b6101ac565b005b6100e460048036038101906100df919061065c565b610362565b005b60605f826040516100f79190610708565b908152602001604051809103902060010180548060200260200160405190810160405280929190818152602001828054801561015057602002820191905f5260205f20905b81548152602001906001019080831161013c575b50505050509050919050565b5f818051602081018201805184825260208301602085012081835280955050505050505f91509050805f015f9054906101000a900473ffffffffffffffffffffffffffffffffffffffff16905081565b5f80826040516101bc9190610708565b908152602001604051809103902090505f73ffffffffffffffffffffffffffffffffffffffff16815f015f9054906101000a900473ffffffffffffffffffffffffffffffffffffffff1673ffffffffffffffffffffffffffffffffffffffff160361025c576040517f08c379a000000000000000000000000000000000000000000000000000000000815260040161025390610778565b60405180910390fd5b5f815f015f9054906101000a900473ffffffffffffffffffffffffffffffffffffffff1690505f808273ffffffffffffffffffffffffffffffffffffffff1663feaf968c6040518163ffffffff1660e01b815260040160a060405180830381865afa1580156102cd573d5f803e3d5ffd5b505050506040513d601f19601f820116820180604052508101906102f19190610832565b509350509250508360010182908060018154018082558091505060019003905f5260205f20015f90919091909150557f53c1b871b1718d284523b404ad4bbb5c3f884d934597f710071f2530109ad516858383604051610353939291906108ff565b60405180910390a15050505050565b5050565b5f604051905090565b5f80fd5b5f80fd5b5f80fd5b5f80fd5b5f601f19601f8301169050919050565b7f4e487b71000000000000000000000000000000000000000000000000000000005f52604160045260245ffd5b6103c58261037f565b810181811067ffffffffffffffff821117156103e4576103e361038f565b5b80604052505050565b5f6103f6610366565b905061040282826103bc565b919050565b5f67ffffffffffffffff8211156104215761042061038f565b5b61042a8261037f565b9050602081019050919050565b828183375f83830152505050565b5f61045761045284610407565b6103ed565b9050828152602081018484840111156104735761047261037b565b5b61047e848285610437565b509392505050565b5f82601f83011261049a57610499610377565b5b81356104aa848260208601610445565b91505092915050565b5f602082840312156104c8576104c761036f565b5b5f82013567ffffffffffffffff8111156104e5576104e4610373565b5b6104f184828501610486565b91505092915050565b5f81519050919050565b5f82825260208201905092915050565b5f819050602082019050919050565b5f819050919050565b61053581610523565b82525050565b5f610546838361052c565b60208301905092915050565b5f602082019050919050565b5f610568826104fa565b6105728185610504565b935061057d83610514565b805f5b838110156105ad578151610594888261053b565b975061059f83610552565b925050600181019050610580565b5085935050505092915050565b5f6020820190508181035f8301526105d2818461055e565b905092915050565b5f73ffffffffffffffffffffffffffffffffffffffff82169050919050565b5f610603826105da565b9050919050565b610613816105f9565b82525050565b5f60208201905061062c5f83018461060a565b92915050565b61063b816105f9565b8114610645575f80fd5b50565b5f8135905061065681610632565b92915050565b5f80604083850312156106725761067161036f565b5b5f83013567ffffffffffffffff81111561068f5761068e610373565b5b61069b85828601610486565b92505060206106ac85828601610648565b9150509250929050565b5f81519050919050565b5f81905092915050565b8281835e5f83830152505050565b5f6106e2826106b6565b6106ec81856106c0565b93506106fc8185602086016106ca565b80840191505092915050565b5f61071382846106d8565b915081905092915050565b5f82825260208201905092915050565b7f4173736574206e6f7420666f756e6400000000000000000000000000000000005f82015250565b5f610762600f8361071e565b915061076d8261072e565b602082019050919050565b5f6020820190508181035f83015261078f81610756565b9050919050565b5f69ffffffffffffffffffff82169050919050565b6107b481610796565b81146107be575f80fd5b50565b5f815190506107cf816107ab565b92915050565b6107de81610523565b81146107e8575f80fd5b50565b5f815190506107f9816107d5565b92915050565b5f819050919050565b610811816107ff565b811461081b575f80fd5b50565b5f8151905061082c81610808565b92915050565b5f805f805f60a0868803121561084b5761084a61036f565b5b5f610858888289016107c1565b9550506020610869888289016107eb565b945050604061087a8882890161081e565b935050606061088b8882890161081e565b925050608061089c888289016107c1565b9150509295509295909350565b5f6108b3826106b6565b6108bd818561071e565b93506108cd8185602086016106ca565b6108d68161037f565b840191505092915050565b6108ea81610523565b82525050565b6108f9816107ff565b82525050565b5f6060820190508181035f83015261091781866108a9565b905061092660208301856108e1565b61093360408301846108f0565b94935050505056fea264697066735822122075c899e16784a2b75f5c34c4a6437ecbfc29a302bd92028b3ae43582def488b064736f6c634300081a0033",
			"opcodes": "PUSH1 0x80 PUSH1 0x40 MSTORE CALLVALUE DUP1 ISZERO PUSH1 0xE JUMPI PUSH0 DUP1 REVERT JUMPDEST POP PUSH2 0x971 DUP1 PUSH2 0x1C PUSH0 CODECOPY PUSH0 RETURN INVALID PUSH1 0x80 PUSH1 0x40 MSTORE CALLVALUE DUP1 ISZERO PUSH2 0xF JUMPI PUSH0 DUP1 REVERT JUMPDEST POP PUSH1 0x4 CALLDATASIZE LT PUSH2 0x4A JUMPI PUSH0 CALLDATALOAD PUSH1 0xE0 SHR DUP1 PUSH4 0x464B2A10 EQ PUSH2 0x4E JUMPI DUP1 PUSH4 0x85936228 EQ PUSH2 0x7E JUMPI DUP1 PUSH4 0x9782DD2A EQ PUSH2 0xAE JUMPI DUP1 PUSH4 0xADC02A64 EQ PUSH2 0xCA JUMPI JUMPDEST PUSH0 DUP1 REVERT JUMPDEST PUSH2 0x68 PUSH1 0x4 DUP1 CALLDATASIZE SUB DUP2 ADD SWAP1 PUSH2 0x63 SWAP2 SWAP1 PUSH2 0x4B3 JUMP JUMPDEST PUSH2 0xE6 JUMP JUMPDEST PUSH1 0x40 MLOAD PUSH2 0x75 SWAP2 SWAP1 PUSH2 0x5BA JUMP JUMPDEST PUSH1 0x40 MLOAD DUP1 SWAP2 SUB SWAP1 RETURN JUMPDEST PUSH2 0x98 PUSH1 0x4 DUP1 CALLDATASIZE SUB DUP2 ADD SWAP1 PUSH2 0x93 SWAP2 SWAP1 PUSH2 0x4B3 JUMP JUMPDEST PUSH2 0x15C JUMP JUMPDEST PUSH1 0x40 MLOAD PUSH2 0xA5 SWAP2 SWAP1 PUSH2 0x619 JUMP JUMPDEST PUSH1 0x40 MLOAD DUP1 SWAP2 SUB SWAP1 RETURN JUMPDEST PUSH2 0xC8 PUSH1 0x4 DUP1 CALLDATASIZE SUB DUP2 ADD SWAP1 PUSH2 0xC3 SWAP2 SWAP1 PUSH2 0x4B3 JUMP JUMPDEST PUSH2 0x1AC JUMP JUMPDEST STOP JUMPDEST PUSH2 0xE4 PUSH1 0x4 DUP1 CALLDATASIZE SUB DUP2 ADD SWAP1 PUSH2 0xDF SWAP2 SWAP1 PUSH2 0x65C JUMP JUMPDEST PUSH2 0x362 JUMP JUMPDEST STOP JUMPDEST PUSH1 0x60 PUSH0 DUP3 PUSH1 0x40 MLOAD PUSH2 0xF7 SWAP2 SWAP1 PUSH2 0x708 JUMP JUMPDEST SWAP1 DUP2 MSTORE PUSH1 0x20 ADD PUSH1 0x40 MLOAD DUP1 SWAP2 SUB SWAP1 KECCAK256 PUSH1 0x1 ADD DUP1 SLOAD DUP1 PUSH1 0x20 MUL PUSH1 0x20 ADD PUSH1 0x40 MLOAD SWAP1 DUP2 ADD PUSH1 0x40 MSTORE DUP1 SWAP3 SWAP2 SWAP1 DUP2 DUP2 MSTORE PUSH1 0x20 ADD DUP3 DUP1 SLOAD DUP1 ISZERO PUSH2 0x150 JUMPI PUSH1 0x20 MUL DUP3 ADD SWAP2 SWAP1 PUSH0 MSTORE PUSH1 0x20 PUSH0 KECCAK256 SWAP1 JUMPDEST DUP2 SLOAD DUP2 MSTORE PUSH1 0x20 ADD SWAP1 PUSH1 0x1 ADD SWAP1 DUP1 DUP4 GT PUSH2 0x13C JUMPI JUMPDEST POP POP POP POP POP SWAP1 POP SWAP2 SWAP1 POP JUMP JUMPDEST PUSH0 DUP2 DUP1 MLOAD PUSH1 0x20 DUP2 ADD DUP3 ADD DUP1 MLOAD DUP5 DUP3 MSTORE PUSH1 0x20 DUP4 ADD PUSH1 0x20 DUP6 ADD KECCAK256 DUP2 DUP4 MSTORE DUP1 SWAP6 POP POP POP POP POP POP PUSH0 SWAP2 POP SWAP1 POP DUP1 PUSH0 ADD PUSH0 SWAP1 SLOAD SWAP1 PUSH2 0x100 EXP SWAP1 DIV PUSH20 0xFFFFFFFFFFFFFFFFFFFFFFFFFFFFFFFFFFFFFFFF AND SWAP1 POP DUP2 JUMP JUMPDEST PUSH0 DUP1 DUP3 PUSH1 0x40 MLOAD PUSH2 0x1BC SWAP2 SWAP1 PUSH2 0x708 JUMP JUMPDEST SWAP1 DUP2 MSTORE PUSH1 0x20 ADD PUSH1 0x40 MLOAD DUP1 SWAP2 SUB SWAP1 KECCAK256 SWAP1 POP PUSH0 PUSH20 0xFFFFFFFFFFFFFFFFFFFFFFFFFFFFFFFFFFFFFFFF AND DUP2 PUSH0 ADD PUSH0 SWAP1 SLOAD SWAP1 PUSH2 0x100 EXP SWAP1 DIV PUSH20 0xFFFFFFFFFFFFFFFFFFFFFFFFFFFFFFFFFFFFFFFF AND PUSH20 0xFFFFFFFFFFFFFFFFFFFFFFFFFFFFFFFFFFFFFFFF AND SUB PUSH2 0x25C JUMPI PUSH1 0x40 MLOAD PUSH32 0x8C379A000000000000000000000000000000000000000000000000000000000 DUP2 MSTORE PUSH1 0x4 ADD PUSH2 0x253 SWAP1 PUSH2 0x778 JUMP JUMPDEST PUSH1 0x40 MLOAD DUP1 SWAP2 SUB SWAP1 REVERT JUMPDEST PUSH0 DUP2 PUSH0 ADD PUSH0 SWAP1 SLOAD SWAP1 PUSH2 0x100 EXP SWAP1 DIV PUSH20 0xFFFFFFFFFFFFFFFFFFFFFFFFFFFFFFFFFFFFFFFF AND SWAP1 POP PUSH0 DUP1 DUP3 PUSH20 0xFFFFFFFFFFFFFFFFFFFFFFFFFFFFFFFFFFFFFFFF AND PUSH4 0xFEAF968C PUSH1 0x40 MLOAD DUP2 PUSH4 0xFFFFFFFF AND PUSH1 0xE0 SHL DUP2 MSTORE PUSH1 0x4 ADD PUSH1 0xA0 PUSH1 0x40 MLOAD DUP1 DUP4 SUB DUP2 DUP7 GAS STATICCALL ISZERO DUP1 ISZERO PUSH2 0x2CD JUMPI RETURNDATASIZE PUSH0 DUP1 RETURNDATACOPY RETURNDATASIZE PUSH0 REVERT JUMPDEST POP POP POP POP PUSH1 0x40 MLOAD RETURNDATASIZE PUSH1 0x1F NOT PUSH1 0x1F DUP3 ADD AND DUP3 ADD DUP1 PUSH1 0x40 MSTORE POP DUP2 ADD SWAP1 PUSH2 0x2F1 SWAP2 SWAP1 PUSH2 0x832 JUMP JUMPDEST POP SWAP4 POP POP SWAP3 POP POP DUP4 PUSH1 0x1 ADD DUP3 SWAP1 DUP1 PUSH1 0x1 DUP2 SLOAD ADD DUP1 DUP3 SSTORE DUP1 SWAP2 POP POP PUSH1 0x1 SWAP1 SUB SWAP1 PUSH0 MSTORE PUSH1 0x20 PUSH0 KECCAK256 ADD PUSH0 SWAP1 SWAP2 SWAP1 SWAP2 SWAP1 SWAP2 POP SSTORE PUSH32 0x53C1B871B1718D284523B404AD4BBB5C3F884D934597F710071F2530109AD516 DUP6 DUP4 DUP4 PUSH1 0x40 MLOAD PUSH2 0x353 SWAP4 SWAP3 SWAP2 SWAP1 PUSH2 0x8FF JUMP JUMPDEST PUSH1 0x40 MLOAD DUP1 SWAP2 SUB SWAP1 LOG1 POP POP POP POP POP JUMP JUMPDEST POP POP JUMP JUMPDEST PUSH0 PUSH1 0x40 MLOAD SWAP1 POP SWAP1 JUMP JUMPDEST PUSH0 DUP1 REVERT JUMPDEST PUSH0 DUP1 REVERT JUMPDEST PUSH0 DUP1 REVERT JUMPDEST PUSH0 DUP1 REVERT JUMPDEST PUSH0 PUSH1 0x1F NOT PUSH1 0x1F DUP4 ADD AND SWAP1 POP SWAP2 SWAP1 POP JUMP JUMPDEST PUSH32 0x4E487B7100000000000000000000000000000000000000000000000000000000 PUSH0 MSTORE PUSH1 0x41 PUSH1 0x4 MSTORE PUSH1 0x24 PUSH0 REVERT JUMPDEST PUSH2 0x3C5 DUP3 PUSH2 0x37F JUMP JUMPDEST DUP2 ADD DUP2 DUP2 LT PUSH8 0xFFFFFFFFFFFFFFFF DUP3 GT OR ISZERO PUSH2 0x3E4 JUMPI PUSH2 0x3E3 PUSH2 0x38F JUMP JUMPDEST JUMPDEST DUP1 PUSH1 0x40 MSTORE POP POP POP JUMP JUMPDEST PUSH0 PUSH2 0x3F6 PUSH2 0x366 JUMP JUMPDEST SWAP1 POP PUSH2 0x402 DUP3 DUP3 PUSH2 0x3BC JUMP JUMPDEST SWAP2 SWAP1 POP JUMP JUMPDEST PUSH0 PUSH8 0xFFFFFFFFFFFFFFFF DUP3 GT ISZERO PUSH2 0x421 JUMPI PUSH2 0x420 PUSH2 0x38F JUMP JUMPDEST JUMPDEST PUSH2 0x42A DUP3 PUSH2 0x37F JUMP JUMPDEST SWAP1 POP PUSH1 0x20 DUP2 ADD SWAP1 POP SWAP2 SWAP1 POP JUMP JUMPDEST DUP3 DUP2 DUP4 CALLDATACOPY PUSH0 DUP4 DUP4 ADD MSTORE POP POP POP JUMP JUMPDEST PUSH0 PUSH2 0x457 PUSH2 0x452 DUP5 PUSH2 0x407 JUMP JUMPDEST PUSH2 0x3ED JUMP JUMPDEST SWAP1 POP DUP3 DUP2 MSTORE PUSH1 0x20 DUP2 ADD DUP5 DUP5 DUP5 ADD GT ISZERO PUSH2 0x473 JUMPI PUSH2 0x472 PUSH2 0x37B JUMP JUMPDEST JUMPDEST PUSH2 0x47E DUP5 DUP3 DUP6 PUSH2 0x437 JUMP JUMPDEST POP SWAP4 SWAP3 POP POP POP JUMP JUMPDEST PUSH0 DUP3 PUSH1 0x1F DUP4 ADD SLT PUSH2 0x49A JUMPI PUSH2 0x499 PUSH2 0x377 JUMP JUMPDEST JUMPDEST DUP2 CALLDATALOAD PUSH2 0x4AA DUP5 DUP3 PUSH1 0x20 DUP7 ADD PUSH2 0x445 JUMP JUMPDEST SWAP2 POP POP SWAP3 SWAP2 POP POP JUMP JUMPDEST PUSH0 PUSH1 0x20 DUP3 DUP5 SUB SLT ISZERO PUSH2 0x4C8 JUMPI PUSH2 0x4C7 PUSH2 0x36F JUMP JUMPDEST JUMPDEST PUSH0 DUP3 ADD CALLDATALOAD PUSH8 0xFFFFFFFFFFFFFFFF DUP2 GT ISZERO PUSH2 0x4E5 JUMPI PUSH2 0x4E4 PUSH2 0x373 JUMP JUMPDEST JUMPDEST PUSH2 0x4F1 DUP5 DUP3 DUP6 ADD PUSH2 0x486 JUMP JUMPDEST SWAP2 POP POP SWAP3 SWAP2 POP POP JUMP JUMPDEST PUSH0 DUP2 MLOAD SWAP1 POP SWAP2 SWAP1 POP JUMP JUMPDEST PUSH0 DUP3 DUP3 MSTORE PUSH1 0x20 DUP3 ADD SWAP1 POP SWAP3 SWAP2 POP POP JUMP JUMPDEST PUSH0 DUP2 SWAP1 POP PUSH1 0x20 DUP3 ADD SWAP1 POP SWAP2 SWAP1 POP JUMP JUMPDEST PUSH0 DUP2 SWAP1 POP SWAP2 SWAP1 POP JUMP JUMPDEST PUSH2 0x535 DUP2 PUSH2 0x523 JUMP JUMPDEST DUP3 MSTORE POP POP JUMP JUMPDEST PUSH0 PUSH2 0x546 DUP4 DUP4 PUSH2 0x52C JUMP JUMPDEST PUSH1 0x20 DUP4 ADD SWAP1 POP SWAP3 SWAP2 POP POP JUMP JUMPDEST PUSH0 PUSH1 0x20 DUP3 ADD SWAP1 POP SWAP2 SWAP1 POP JUMP JUMPDEST PUSH0 PUSH2 0x568 DUP3 PUSH2 0x4FA JUMP JUMPDEST PUSH2 0x572 DUP2 DUP6 PUSH2 0x504 JUMP JUMPDEST SWAP4 POP PUSH2 0x57D DUP4 PUSH2 0x514 JUMP JUMPDEST DUP1 PUSH0 JUMPDEST DUP4 DUP2 LT ISZERO PUSH2 0x5AD JUMPI DUP2 MLOAD PUSH2 0x594 DUP9 DUP3 PUSH2 0x53B JUMP JUMPDEST SWAP8 POP PUSH2 0x59F DUP4 PUSH2 0x552 JUMP JUMPDEST SWAP3 POP POP PUSH1 0x1 DUP2 ADD SWAP1 POP PUSH2 0x580 JUMP JUMPDEST POP DUP6 SWAP4 POP POP POP POP SWAP3 SWAP2 POP POP JUMP JUMPDEST PUSH0 PUSH1 0x20 DUP3 ADD SWAP1 POP DUP2 DUP2 SUB PUSH0 DUP4 ADD MSTORE PUSH2 0x5D2 DUP2 DUP5 PUSH2 0x55E JUMP JUMPDEST SWAP1 POP SWAP3 SWAP2 POP POP JUMP JUMPDEST PUSH0 PUSH20 0xFFFFFFFFFFFFFFFFFFFFFFFFFFFFFFFFFFFFFFFF DUP3 AND SWAP1 POP SWAP2 SWAP1 POP JUMP JUMPDEST PUSH0 PUSH2 0x603 DUP3 PUSH2 0x5DA JUMP JUMPDEST SWAP1 POP SWAP2 SWAP1 POP JUMP JUMPDEST PUSH2 0x613 DUP2 PUSH2 0x5F9 JUMP JUMPDEST DUP3 MSTORE POP POP JUMP JUMPDEST PUSH0 PUSH1 0x20 DUP3 ADD SWAP1 POP PUSH2 0x62C PUSH0 DUP4 ADD DUP5 PUSH2 0x60A JUMP JUMPDEST SWAP3 SWAP2 POP POP JUMP JUMPDEST PUSH2 0x63B DUP2 PUSH2 0x5F9 JUMP JUMPDEST DUP2 EQ PUSH2 0x645 JUMPI PUSH0 DUP1 REVERT JUMPDEST POP JUMP JUMPDEST PUSH0 DUP2 CALLDATALOAD SWAP1 POP PUSH2 0x656 DUP2 PUSH2 0x632 JUMP JUMPDEST SWAP3 SWAP2 POP POP JUMP JUMPDEST PUSH0 DUP1 PUSH1 0x40 DUP4 DUP6 SUB SLT ISZERO PUSH2 0x672 JUMPI PUSH2 0x671 PUSH2 0x36F JUMP JUMPDEST JUMPDEST PUSH0 DUP4 ADD CALLDATALOAD PUSH8 0xFFFFFFFFFFFFFFFF DUP2 GT ISZERO PUSH2 0x68F JUMPI PUSH2 0x68E PUSH2 0x373 JUMP JUMPDEST JUMPDEST PUSH2 0x69B DUP6 DUP3 DUP7 ADD PUSH2 0x486 JUMP JUMPDEST SWAP3 POP POP PUSH1 0x20 PUSH2 0x6AC DUP6 DUP3 DUP7 ADD PUSH2 0x648 JUMP JUMPDEST SWAP2 POP POP SWAP3 POP SWAP3 SWAP1 POP JUMP JUMPDEST PUSH0 DUP2 MLOAD SWAP1 POP SWAP2 SWAP1 POP JUMP JUMPDEST PUSH0 DUP2 SWAP1 POP SWAP3 SWAP2 POP POP JUMP JUMPDEST DUP3 DUP2 DUP4 MCOPY PUSH0 DUP4 DUP4 ADD MSTORE POP POP POP JUMP JUMPDEST PUSH0 PUSH2 0x6E2 DUP3 PUSH2 0x6B6 JUMP JUMPDEST PUSH2 0x6EC DUP2 DUP6 PUSH2 0x6C0 JUMP JUMPDEST SWAP4 POP PUSH2 0x6FC DUP2 DUP6 PUSH1 0x20 DUP7 ADD PUSH2 0x6CA JUMP JUMPDEST DUP1 DUP5 ADD SWAP2 POP POP SWAP3 SWAP2 POP POP JUMP JUMPDEST PUSH0 PUSH2 0x713 DUP3 DUP5 PUSH2 0x6D8 JUMP JUMPDEST SWAP2 POP DUP2 SWAP1 POP SWAP3 SWAP2 POP POP JUMP JUMPDEST PUSH0 DUP3 DUP3 MSTORE PUSH1 0x20 DUP3 ADD SWAP1 POP SWAP3 SWAP2 POP POP JUMP JUMPDEST PUSH32 0x4173736574206E6F7420666F756E640000000000000000000000000000000000 PUSH0 DUP3 ADD MSTORE POP JUMP JUMPDEST PUSH0 PUSH2 0x762 PUSH1 0xF DUP4 PUSH2 0x71E JUMP JUMPDEST SWAP2 POP PUSH2 0x76D DUP3 PUSH2 0x72E JUMP JUMPDEST PUSH1 0x20 DUP3 ADD SWAP1 POP SWAP2 SWAP1 POP JUMP JUMPDEST PUSH0 PUSH1 0x20 DUP3 ADD SWAP1 POP DUP2 DUP2 SUB PUSH0 DUP4 ADD MSTORE PUSH2 0x78F DUP2 PUSH2 0x756 JUMP JUMPDEST SWAP1 POP SWAP2 SWAP1 POP JUMP JUMPDEST PUSH0 PUSH10 0xFFFFFFFFFFFFFFFFFFFF DUP3 AND SWAP1 POP SWAP2 SWAP1 POP JUMP JUMPDEST PUSH2 0x7B4 DUP2 PUSH2 0x796 JUMP JUMPDEST DUP2 EQ PUSH2 0x7BE JUMPI PUSH0 DUP1 REVERT JUMPDEST POP JUMP JUMPDEST PUSH0 DUP2 MLOAD SWAP1 POP PUSH2 0x7CF DUP2 PUSH2 0x7AB JUMP JUMPDEST SWAP3 SWAP2 POP POP JUMP JUMPDEST PUSH2 0x7DE DUP2 PUSH2 0x523 JUMP JUMPDEST DUP2 EQ PUSH2 0x7E8 JUMPI PUSH0 DUP1 REVERT JUMPDEST POP JUMP JUMPDEST PUSH0 DUP2 MLOAD SWAP1 POP PUSH2 0x7F9 DUP2 PUSH2 0x7D5 JUMP JUMPDEST SWAP3 SWAP2 POP POP JUMP JUMPDEST PUSH0 DUP2 SWAP1 POP SWAP2 SWAP1 POP JUMP JUMPDEST PUSH2 0x811 DUP2 PUSH2 0x7FF JUMP JUMPDEST DUP2 EQ PUSH2 0x81B JUMPI PUSH0 DUP1 REVERT JUMPDEST POP JUMP JUMPDEST PUSH0 DUP2 MLOAD SWAP1 POP PUSH2 0x82C DUP2 PUSH2 0x808 JUMP JUMPDEST SWAP3 SWAP2 POP POP JUMP JUMPDEST PUSH0 DUP1 PUSH0 DUP1 PUSH0 PUSH1 0xA0 DUP7 DUP9 SUB SLT ISZERO PUSH2 0x84B JUMPI PUSH2 0x84A PUSH2 0x36F JUMP JUMPDEST JUMPDEST PUSH0 PUSH2 0x858 DUP9 DUP3 DUP10 ADD PUSH2 0x7C1 JUMP JUMPDEST SWAP6 POP POP PUSH1 0x20 PUSH2 0x869 DUP9 DUP3 DUP10 ADD PUSH2 0x7EB JUMP JUMPDEST SWAP5 POP POP PUSH1 0x40 PUSH2 0x87A DUP9 DUP3 DUP10 ADD PUSH2 0x81E JUMP JUMPDEST SWAP4 POP POP PUSH1 0x60 PUSH2 0x88B DUP9 DUP3 DUP10 ADD PUSH2 0x81E JUMP JUMPDEST SWAP3 POP POP PUSH1 0x80 PUSH2 0x89C DUP9 DUP3 DUP10 ADD PUSH2 0x7C1 JUMP JUMPDEST SWAP2 POP POP SWAP3 SWAP6 POP SWAP3 SWAP6 SWAP1 SWAP4 POP JUMP JUMPDEST PUSH0 PUSH2 0x8B3 DUP3 PUSH2 0x6B6 JUMP JUMPDEST PUSH2 0x8BD DUP2 DUP6 PUSH2 0x71E JUMP JUMPDEST SWAP4 POP PUSH2 0x8CD DUP2 DUP6 PUSH1 0x20 DUP7 ADD PUSH2 0x6CA JUMP JUMPDEST PUSH2 0x8D6 DUP2 PUSH2 0x37F JUMP JUMPDEST DUP5 ADD SWAP2 POP POP SWAP3 SWAP2 POP POP JUMP JUMPDEST PUSH2 0x8EA DUP2 PUSH2 0x523 JUMP JUMPDEST DUP3 MSTORE POP POP JUMP JUMPDEST PUSH2 0x8F9 DUP2 PUSH2 0x7FF JUMP JUMPDEST DUP3 MSTORE POP POP JUMP JUMPDEST PUSH0 PUSH1 0x60 DUP3 ADD SWAP1 POP DUP2 DUP2 SUB PUSH0 DUP4 ADD MSTORE PUSH2 0x917 DUP2 DUP7 PUSH2 0x8A9 JUMP JUMPDEST SWAP1 POP PUSH2 0x926 PUSH1 0x20 DUP4 ADD DUP6 PUSH2 0x8E1 JUMP JUMPDEST PUSH2 0x933 PUSH1 0x40 DUP4 ADD DUP5 PUSH2 0x8F0 JUMP JUMPDEST SWAP5 SWAP4 POP POP POP POP JUMP INVALID LOG2 PUSH5 0x6970667358 0x22 SLT KECCAK256 PUSH22 0xC899E16784A2B75F5C34C4A6437ECBFC29A302BD9202 DUP12 GASPRICE 0xE4 CALLDATALOAD DUP3 0xDE DELEGATECALL DUP9 0xB0 PUSH5 0x736F6C6343 STOP ADDMOD BYTE STOP CALLER "
		},
		"gasEstimates": {
			"creation": {
				"codeDepositCost": "483400",
				"executionCost": "516",
				"totalCost": "483916"
			},
			"external": {
				"addAsset(string,address)": "infinite",
				"assets(string)": "infinite",
				"fetchPrice(string)": "infinite",
				"getHistoricalPrices(string)": "infinite"
			}
		},
		"methodIdentifiers": {
			"addAsset(string,address)": "adc02a64",
			"assets(string)": "85936228",
			"fetchPrice(string)": "9782dd2a",
			"getHistoricalPrices(string)": "464b2a10"
		}
	},
	"abi": [
		{
			"anonymous": false,
			"inputs": [
				{
					"indexed": false,
					"internalType": "string",
					"name": "asset",
					"type": "string"
				},
				{
					"indexed": false,
					"internalType": "int256",
					"name": "price",
					"type": "int256"
				},
				{
					"indexed": false,
					"internalType": "uint256",
					"name": "timestamp",
					"type": "uint256"
				}
			],
			"name": "PriceUpdated",
			"type": "event"
		},
		{
			"inputs": [
				{
					"internalType": "string",
					"name": "name",
					"type": "string"
				},
				{
					"internalType": "address",
					"name": "priceFeed",
					"type": "address"
				}
			],
			"name": "addAsset",
			"outputs": [],
			"stateMutability": "nonpayable",
			"type": "function"
		},
		{
			"inputs": [
				{
					"internalType": "string",
					"name": "",
					"type": "string"
				}
			],
			"name": "assets",
			"outputs": [
				{
					"internalType": "address",
					"name": "priceFeed",
					"type": "address"
				}
			],
			"stateMutability": "view",
			"type": "function"
		},
		{
			"inputs": [
				{
					"internalType": "string",
					"name": "name",
					"type": "string"
				}
			],
			"name": "fetchPrice",
			"outputs": [],
			"stateMutability": "nonpayable",
			"type": "function"
		},
		{
			"inputs": [
				{
					"internalType": "string",
					"name": "name",
					"type": "string"
				}
			],
			"name": "getHistoricalPrices",
			"outputs": [
				{
					"internalType": "int256[]",
					"name": "",
					"type": "int256[]"
				}
			],
			"stateMutability": "view",
			"type": "function"
		}
	]
}