{
	"contracts/SC_Collection/OnChainStringVRF.sol": {
		"OnChainStringVRF": {
			"abi": [
				{
					"inputs": [
						{
							"internalType": "uint64",
							"name": "subscriptionId",
							"type": "uint64"
						},
						{
							"internalType": "address",
							"name": "vrfCoordinator",
							"type": "address"
						},
						{
							"internalType": "bytes32",
							"name": "_keyHash",
							"type": "bytes32"
						}
					],
					"stateMutability": "nonpayable",
					"type": "constructor"
				},
				{
					"inputs": [
						{
							"internalType": "address",
							"name": "have",
							"type": "address"
						},
						{
							"internalType": "address",
							"name": "want",
							"type": "address"
						}
					],
					"name": "OnlyCoordinatorCanFulfill",
					"type": "error"
				},
				{
					"anonymous": false,
					"inputs": [
						{
							"indexed": false,
							"internalType": "uint256",
							"name": "requestId",
							"type": "uint256"
						},
						{
							"indexed": false,
							"internalType": "uint256",
							"name": "randomWord",
							"type": "uint256"
						},
						{
							"indexed": false,
							"internalType": "string",
							"name": "randomString",
							"type": "string"
						}
					],
					"name": "RandomStringFulfilled",
					"type": "event"
				},
				{
					"anonymous": false,
					"inputs": [
						{
							"indexed": false,
							"internalType": "uint256",
							"name": "requestId",
							"type": "uint256"
						}
					],
					"name": "RandomStringRequested",
					"type": "event"
				},
				{
					"inputs": [],
					"name": "callbackGasLimit",
					"outputs": [
						{
							"internalType": "uint32",
							"name": "",
							"type": "uint32"
						}
					],
					"stateMutability": "view",
					"type": "function"
				},
				{
					"inputs": [],
					"name": "keyHash",
					"outputs": [
						{
							"internalType": "bytes32",
							"name": "",
							"type": "bytes32"
						}
					],
					"stateMutability": "view",
					"type": "function"
				},
				{
					"inputs": [],
					"name": "numWords",
					"outputs": [
						{
							"internalType": "uint32",
							"name": "",
							"type": "uint32"
						}
					],
					"stateMutability": "view",
					"type": "function"
				},
				{
					"inputs": [],
					"name": "randomString",
					"outputs": [
						{
							"internalType": "string",
							"name": "",
							"type": "string"
						}
					],
					"stateMutability": "view",
					"type": "function"
				},
				{
					"inputs": [
						{
							"internalType": "uint256",
							"name": "requestId",
							"type": "uint256"
						},
						{
							"internalType": "uint256[]",
							"name": "randomWords",
							"type": "uint256[]"
						}
					],
					"name": "rawFulfillRandomWords",
					"outputs": [],
					"stateMutability": "nonpayable",
					"type": "function"
				},
				{
					"inputs": [],
					"name": "requestConfirmations",
					"outputs": [
						{
							"internalType": "uint16",
							"name": "",
							"type": "uint16"
						}
					],
					"stateMutability": "view",
					"type": "function"
				},
				{
					"inputs": [],
					"name": "requestRandomString",
					"outputs": [
						{
							"internalType": "uint256",
							"name": "requestId",
							"type": "uint256"
						}
					],
					"stateMutability": "nonpayable",
					"type": "function"
				},
				{
					"inputs": [],
					"name": "s_requestId",
					"outputs": [
						{
							"internalType": "uint256",
							"name": "",
							"type": "uint256"
						}
					],
					"stateMutability": "view",
					"type": "function"
				},
				{
					"inputs": [],
					"name": "s_subscriptionId",
					"outputs": [
						{
							"internalType": "uint64",
							"name": "",
							"type": "uint64"
						}
					],
					"stateMutability": "view",
					"type": "function"
				}
			],
			"devdoc": {
				"kind": "dev",
				"methods": {
					"constructor": {
						"params": {
							"_keyHash": "The gas lane key hash.",
							"subscriptionId": "The VRF subscription ID.",
							"vrfCoordinator": "The address of the VRF Coordinator."
						}
					}
				},
				"version": 1
			},
			"evm": {
				"assembly": "    /* \"contracts/SC_Collection/OnChainStringVRF.sol\":255:2100  contract OnChainStringVRF is VRFConsumerBaseV2 {... */\n  mstore(0x40, 0xa0)\n    /* \"contracts/SC_Collection/OnChainStringVRF.sol\":480:486  100000 */\n  0x0186a0\n    /* \"contracts/SC_Collection/OnChainStringVRF.sol\":447:486  uint32 public callbackGasLimit = 100000 */\n  0x02\n  exp(0x0100, 0x00)\n  dup2\n  sload\n  dup2\n  0xffffffff\n  mul\n  not\n  and\n  swap1\n  dup4\n  0xffffffff\n  and\n  mul\n  or\n  swap1\n  sstore\n  pop\n    /* \"contracts/SC_Collection/OnChainStringVRF.sol\":529:530  3 */\n  0x03\n    /* \"contracts/SC_Collection/OnChainStringVRF.sol\":492:530  uint16 public requestConfirmations = 3 */\n  0x02\n  exp(0x0100, 0x04)\n  dup2\n  sload\n  dup2\n  0xffff\n  mul\n  not\n  and\n  swap1\n  dup4\n  0xffff\n  and\n  mul\n  or\n  swap1\n  sstore\n  pop\n    /* \"contracts/SC_Collection/OnChainStringVRF.sol\":561:562  1 */\n  0x01\n    /* \"contracts/SC_Collection/OnChainStringVRF.sol\":536:562  uint32 public numWords = 1 */\n  0x02\n  exp(0x0100, 0x06)\n  dup2\n  sload\n  dup2\n  0xffffffff\n  mul\n  not\n  and\n  swap1\n  dup4\n  0xffffffff\n  and\n  mul\n  or\n  swap1\n  sstore\n  pop\n    /* \"contracts/SC_Collection/OnChainStringVRF.sol\":961:1257  constructor(... */\n  callvalue\n  dup1\n  iszero\n  tag_1\n  jumpi\n  0x00\n  dup1\n  revert\ntag_1:\n  pop\n  mload(0x40)\n  sub(codesize, bytecodeSize)\n  dup1\n  bytecodeSize\n  dup4\n  codecopy\n  dup2\n  dup2\n  add\n  0x40\n  mstore\n  dup2\n  add\n  swap1\n  tag_2\n  swap2\n  swap1\n  tag_3\n  jump\t// in\ntag_2:\n    /* \"contracts/SC_Collection/OnChainStringVRF.sol\":1094:1108  vrfCoordinator */\n  dup2\n    /* \"@chainlink/contracts/src/v0.8/VRFConsumerBaseV2.sol\":5616:5631  _vrfCoordinator */\n  dup1\n    /* \"@chainlink/contracts/src/v0.8/VRFConsumerBaseV2.sol\":5599:5631  vrfCoordinator = _vrfCoordinator */\n  0xffffffffffffffffffffffffffffffffffffffff\n  and\n  0x80\n  dup2\n  0xffffffffffffffffffffffffffffffffffffffff\n  and\n  dup2\n  mstore\n  pop\n  pop\n    /* \"@chainlink/contracts/src/v0.8/VRFConsumerBaseV2.sol\":5556:5636  constructor(address _vrfCoordinator) {... */\n  pop\n    /* \"contracts/SC_Collection/OnChainStringVRF.sol\":1164:1178  vrfCoordinator */\n  dup2\n    /* \"contracts/SC_Collection/OnChainStringVRF.sol\":1124:1135  COORDINATOR */\n  0x00\n  dup1\n    /* \"contracts/SC_Collection/OnChainStringVRF.sol\":1124:1179  COORDINATOR = VRFCoordinatorV2Interface(vrfCoordinator) */\n  0x0100\n  exp\n  dup2\n  sload\n  dup2\n  0xffffffffffffffffffffffffffffffffffffffff\n  mul\n  not\n  and\n  swap1\n  dup4\n  0xffffffffffffffffffffffffffffffffffffffff\n  and\n  mul\n  or\n  swap1\n  sstore\n  pop\n    /* \"contracts/SC_Collection/OnChainStringVRF.sol\":1208:1222  subscriptionId */\n  dup3\n    /* \"contracts/SC_Collection/OnChainStringVRF.sol\":1189:1205  s_subscriptionId */\n  0x00\n  0x14\n    /* \"contracts/SC_Collection/OnChainStringVRF.sol\":1189:1222  s_subscriptionId = subscriptionId */\n  0x0100\n  exp\n  dup2\n  sload\n  dup2\n  0xffffffffffffffff\n  mul\n  not\n  and\n  swap1\n  dup4\n  0xffffffffffffffff\n  and\n  mul\n  or\n  swap1\n  sstore\n  pop\n    /* \"contracts/SC_Collection/OnChainStringVRF.sol\":1242:1250  _keyHash */\n  dup1\n    /* \"contracts/SC_Collection/OnChainStringVRF.sol\":1232:1239  keyHash */\n  0x01\n    /* \"contracts/SC_Collection/OnChainStringVRF.sol\":1232:1250  keyHash = _keyHash */\n  dup2\n  swap1\n  sstore\n  pop\n    /* \"contracts/SC_Collection/OnChainStringVRF.sol\":961:1257  constructor(... */\n  pop\n  pop\n  pop\n    /* \"contracts/SC_Collection/OnChainStringVRF.sol\":255:2100  contract OnChainStringVRF is VRFConsumerBaseV2 {... */\n  jump(tag_8)\n    /* \"#utility.yul\":88:205   */\ntag_10:\n    /* \"#utility.yul\":197:198   */\n  0x00\n    /* \"#utility.yul\":194:195   */\n  dup1\n    /* \"#utility.yul\":187:199   */\n  revert\n    /* \"#utility.yul\":334:435   */\ntag_12:\n    /* \"#utility.yul\":370:377   */\n  0x00\n    /* \"#utility.yul\":410:428   */\n  0xffffffffffffffff\n    /* \"#utility.yul\":403:408   */\n  dup3\n    /* \"#utility.yul\":399:429   */\n  and\n    /* \"#utility.yul\":388:429   */\n  swap1\n  pop\n    /* \"#utility.yul\":334:435   */\n  swap2\n  swap1\n  pop\n  jump\t// out\n    /* \"#utility.yul\":441:561   */\ntag_13:\n    /* \"#utility.yul\":513:536   */\n  tag_28\n    /* \"#utility.yul\":530:535   */\n  dup2\n    /* \"#utility.yul\":513:536   */\n  tag_12\n  jump\t// in\ntag_28:\n    /* \"#utility.yul\":506:511   */\n  dup2\n    /* \"#utility.yul\":503:537   */\n  eq\n    /* \"#utility.yul\":493:555   */\n  tag_29\n  jumpi\n    /* \"#utility.yul\":551:552   */\n  0x00\n    /* \"#utility.yul\":548:549   */\n  dup1\n    /* \"#utility.yul\":541:553   */\n  revert\n    /* \"#utility.yul\":493:555   */\ntag_29:\n    /* \"#utility.yul\":441:561   */\n  pop\n  jump\t// out\n    /* \"#utility.yul\":567:708   */\ntag_14:\n    /* \"#utility.yul\":623:628   */\n  0x00\n    /* \"#utility.yul\":654:660   */\n  dup2\n    /* \"#utility.yul\":648:661   */\n  mload\n    /* \"#utility.yul\":639:661   */\n  swap1\n  pop\n    /* \"#utility.yul\":670:702   */\n  tag_31\n    /* \"#utility.yul\":696:701   */\n  dup2\n    /* \"#utility.yul\":670:702   */\n  tag_13\n  jump\t// in\ntag_31:\n    /* \"#utility.yul\":567:708   */\n  swap3\n  swap2\n  pop\n  pop\n  jump\t// out\n    /* \"#utility.yul\":714:840   */\ntag_15:\n    /* \"#utility.yul\":751:758   */\n  0x00\n    /* \"#utility.yul\":791:833   */\n  0xffffffffffffffffffffffffffffffffffffffff\n    /* \"#utility.yul\":784:789   */\n  dup3\n    /* \"#utility.yul\":780:834   */\n  and\n    /* \"#utility.yul\":769:834   */\n  swap1\n  pop\n    /* \"#utility.yul\":714:840   */\n  swap2\n  swap1\n  pop\n  jump\t// out\n    /* \"#utility.yul\":846:942   */\ntag_16:\n    /* \"#utility.yul\":883:890   */\n  0x00\n    /* \"#utility.yul\":912:936   */\n  tag_34\n    /* \"#utility.yul\":930:935   */\n  dup3\n    /* \"#utility.yul\":912:936   */\n  tag_15\n  jump\t// in\ntag_34:\n    /* \"#utility.yul\":901:936   */\n  swap1\n  pop\n    /* \"#utility.yul\":846:942   */\n  swap2\n  swap1\n  pop\n  jump\t// out\n    /* \"#utility.yul\":948:1070   */\ntag_17:\n    /* \"#utility.yul\":1021:1045   */\n  tag_36\n    /* \"#utility.yul\":1039:1044   */\n  dup2\n    /* \"#utility.yul\":1021:1045   */\n  tag_16\n  jump\t// in\ntag_36:\n    /* \"#utility.yul\":1014:1019   */\n  dup2\n    /* \"#utility.yul\":1011:1046   */\n  eq\n    /* \"#utility.yul\":1001:1064   */\n  tag_37\n  jumpi\n    /* \"#utility.yul\":1060:1061   */\n  0x00\n    /* \"#utility.yul\":1057:1058   */\n  dup1\n    /* \"#utility.yul\":1050:1062   */\n  revert\n    /* \"#utility.yul\":1001:1064   */\ntag_37:\n    /* \"#utility.yul\":948:1070   */\n  pop\n  jump\t// out\n    /* \"#utility.yul\":1076:1219   */\ntag_18:\n    /* \"#utility.yul\":1133:1138   */\n  0x00\n    /* \"#utility.yul\":1164:1170   */\n  dup2\n    /* \"#utility.yul\":1158:1171   */\n  mload\n    /* \"#utility.yul\":1149:1171   */\n  swap1\n  pop\n    /* \"#utility.yul\":1180:1213   */\n  tag_39\n    /* \"#utility.yul\":1207:1212   */\n  dup2\n    /* \"#utility.yul\":1180:1213   */\n  tag_17\n  jump\t// in\ntag_39:\n    /* \"#utility.yul\":1076:1219   */\n  swap3\n  swap2\n  pop\n  pop\n  jump\t// out\n    /* \"#utility.yul\":1225:1302   */\ntag_19:\n    /* \"#utility.yul\":1262:1269   */\n  0x00\n    /* \"#utility.yul\":1291:1296   */\n  dup2\n    /* \"#utility.yul\":1280:1296   */\n  swap1\n  pop\n    /* \"#utility.yul\":1225:1302   */\n  swap2\n  swap1\n  pop\n  jump\t// out\n    /* \"#utility.yul\":1308:1430   */\ntag_20:\n    /* \"#utility.yul\":1381:1405   */\n  tag_42\n    /* \"#utility.yul\":1399:1404   */\n  dup2\n    /* \"#utility.yul\":1381:1405   */\n  tag_19\n  jump\t// in\ntag_42:\n    /* \"#utility.yul\":1374:1379   */\n  dup2\n    /* \"#utility.yul\":1371:1406   */\n  eq\n    /* \"#utility.yul\":1361:1424   */\n  tag_43\n  jumpi\n    /* \"#utility.yul\":1420:1421   */\n  0x00\n    /* \"#utility.yul\":1417:1418   */\n  dup1\n    /* \"#utility.yul\":1410:1422   */\n  revert\n    /* \"#utility.yul\":1361:1424   */\ntag_43:\n    /* \"#utility.yul\":1308:1430   */\n  pop\n  jump\t// out\n    /* \"#utility.yul\":1436:1579   */\ntag_21:\n    /* \"#utility.yul\":1493:1498   */\n  0x00\n    /* \"#utility.yul\":1524:1530   */\n  dup2\n    /* \"#utility.yul\":1518:1531   */\n  mload\n    /* \"#utility.yul\":1509:1531   */\n  swap1\n  pop\n    /* \"#utility.yul\":1540:1573   */\n  tag_45\n    /* \"#utility.yul\":1567:1572   */\n  dup2\n    /* \"#utility.yul\":1540:1573   */\n  tag_20\n  jump\t// in\ntag_45:\n    /* \"#utility.yul\":1436:1579   */\n  swap3\n  swap2\n  pop\n  pop\n  jump\t// out\n    /* \"#utility.yul\":1585:2246   */\ntag_3:\n    /* \"#utility.yul\":1672:1678   */\n  0x00\n    /* \"#utility.yul\":1680:1686   */\n  dup1\n    /* \"#utility.yul\":1688:1694   */\n  0x00\n    /* \"#utility.yul\":1737:1739   */\n  0x60\n    /* \"#utility.yul\":1725:1734   */\n  dup5\n    /* \"#utility.yul\":1716:1723   */\n  dup7\n    /* \"#utility.yul\":1712:1735   */\n  sub\n    /* \"#utility.yul\":1708:1740   */\n  slt\n    /* \"#utility.yul\":1705:1824   */\n  iszero\n  tag_47\n  jumpi\n    /* \"#utility.yul\":1743:1822   */\n  tag_48\n  tag_10\n  jump\t// in\ntag_48:\n    /* \"#utility.yul\":1705:1824   */\ntag_47:\n    /* \"#utility.yul\":1863:1864   */\n  0x00\n    /* \"#utility.yul\":1888:1951   */\n  tag_49\n    /* \"#utility.yul\":1943:1950   */\n  dup7\n    /* \"#utility.yul\":1934:1940   */\n  dup3\n    /* \"#utility.yul\":1923:1932   */\n  dup8\n    /* \"#utility.yul\":1919:1941   */\n  add\n    /* \"#utility.yul\":1888:1951   */\n  tag_14\n  jump\t// in\ntag_49:\n    /* \"#utility.yul\":1878:1951   */\n  swap4\n  pop\n    /* \"#utility.yul\":1834:1961   */\n  pop\n    /* \"#utility.yul\":2000:2002   */\n  0x20\n    /* \"#utility.yul\":2026:2090   */\n  tag_50\n    /* \"#utility.yul\":2082:2089   */\n  dup7\n    /* \"#utility.yul\":2073:2079   */\n  dup3\n    /* \"#utility.yul\":2062:2071   */\n  dup8\n    /* \"#utility.yul\":2058:2080   */\n  add\n    /* \"#utility.yul\":2026:2090   */\n  tag_18\n  jump\t// in\ntag_50:\n    /* \"#utility.yul\":2016:2090   */\n  swap3\n  pop\n    /* \"#utility.yul\":1971:2100   */\n  pop\n    /* \"#utility.yul\":2139:2141   */\n  0x40\n    /* \"#utility.yul\":2165:2229   */\n  tag_51\n    /* \"#utility.yul\":2221:2228   */\n  dup7\n    /* \"#utility.yul\":2212:2218   */\n  dup3\n    /* \"#utility.yul\":2201:2210   */\n  dup8\n    /* \"#utility.yul\":2197:2219   */\n  add\n    /* \"#utility.yul\":2165:2229   */\n  tag_21\n  jump\t// in\ntag_51:\n    /* \"#utility.yul\":2155:2229   */\n  swap2\n  pop\n    /* \"#utility.yul\":2110:2239   */\n  pop\n    /* \"#utility.yul\":1585:2246   */\n  swap3\n  pop\n  swap3\n  pop\n  swap3\n  jump\t// out\n    /* \"contracts/SC_Collection/OnChainStringVRF.sol\":255:2100  contract OnChainStringVRF is VRFConsumerBaseV2 {... */\ntag_8:\n  mload(0x80)\n  codecopy(0x00, dataOffset(sub_0), dataSize(sub_0))\n  0x00\n  assignImmutable(\"0x1a192fabce13988b84994d4296e6cdc418d55e2f1d7f942188d4040b94fc57ac\")\n  return(0x00, dataSize(sub_0))\nstop\n\nsub_0: assembly {\n        /* \"contracts/SC_Collection/OnChainStringVRF.sol\":255:2100  contract OnChainStringVRF is VRFConsumerBaseV2 {... */\n      mstore(0x40, 0x80)\n      callvalue\n      dup1\n      iszero\n      tag_1\n      jumpi\n      0x00\n      dup1\n      revert\n    tag_1:\n      pop\n      jumpi(tag_2, lt(calldatasize, 0x04))\n      shr(0xe0, calldataload(0x00))\n      dup1\n      0x8ac00021\n      gt\n      tag_12\n      jumpi\n      dup1\n      0x8ac00021\n      eq\n      tag_7\n      jumpi\n      dup1\n      0xb0fb162f\n      eq\n      tag_8\n      jumpi\n      dup1\n      0xbafcd678\n      eq\n      tag_9\n      jumpi\n      dup1\n      0xe89e106a\n      eq\n      tag_10\n      jumpi\n      dup1\n      0xfe74a3d6\n      eq\n      tag_11\n      jumpi\n      jump(tag_2)\n    tag_12:\n      dup1\n      0x1fe543e3\n      eq\n      tag_3\n      jumpi\n      dup1\n      0x24f74697\n      eq\n      tag_4\n      jumpi\n      dup1\n      0x61728f39\n      eq\n      tag_5\n      jumpi\n      dup1\n      0x7ccfd7fc\n      eq\n      tag_6\n      jumpi\n    tag_2:\n      0x00\n      dup1\n      revert\n        /* \"@chainlink/contracts/src/v0.8/VRFConsumerBaseV2.sol\":6618:6874  function rawFulfillRandomWords(uint256 requestId, uint256[] memory randomWords) external {... */\n    tag_3:\n      tag_13\n      0x04\n      dup1\n      calldatasize\n      sub\n      dup2\n      add\n      swap1\n      tag_14\n      swap2\n      swap1\n      tag_15\n      jump\t// in\n    tag_14:\n      tag_16\n      jump\t// in\n    tag_13:\n      stop\n        /* \"contracts/SC_Collection/OnChainStringVRF.sol\":447:486  uint32 public callbackGasLimit = 100000 */\n    tag_4:\n      tag_17\n      tag_18\n      jump\t// in\n    tag_17:\n      mload(0x40)\n      tag_19\n      swap2\n      swap1\n      tag_20\n      jump\t// in\n    tag_19:\n      mload(0x40)\n      dup1\n      swap2\n      sub\n      swap1\n      return\n        /* \"contracts/SC_Collection/OnChainStringVRF.sol\":419:441  bytes32 public keyHash */\n    tag_5:\n      tag_21\n      tag_22\n      jump\t// in\n    tag_21:\n      mload(0x40)\n      tag_23\n      swap2\n      swap1\n      tag_24\n      jump\t// in\n    tag_23:\n      mload(0x40)\n      dup1\n      swap2\n      sub\n      swap1\n      return\n        /* \"contracts/SC_Collection/OnChainStringVRF.sol\":536:562  uint32 public numWords = 1 */\n    tag_6:\n      tag_25\n      tag_26\n      jump\t// in\n    tag_25:\n      mload(0x40)\n      tag_27\n      swap2\n      swap1\n      tag_20\n      jump\t// in\n    tag_27:\n      mload(0x40)\n      dup1\n      swap2\n      sub\n      swap1\n      return\n        /* \"contracts/SC_Collection/OnChainStringVRF.sol\":383:413  uint64 public s_subscriptionId */\n    tag_7:\n      tag_28\n      tag_29\n      jump\t// in\n    tag_28:\n      mload(0x40)\n      tag_30\n      swap2\n      swap1\n      tag_31\n      jump\t// in\n    tag_30:\n      mload(0x40)\n      dup1\n      swap2\n      sub\n      swap1\n      return\n        /* \"contracts/SC_Collection/OnChainStringVRF.sol\":492:530  uint16 public requestConfirmations = 3 */\n    tag_8:\n      tag_32\n      tag_33\n      jump\t// in\n    tag_32:\n      mload(0x40)\n      tag_34\n      swap2\n      swap1\n      tag_35\n      jump\t// in\n    tag_34:\n      mload(0x40)\n      dup1\n      swap2\n      sub\n      swap1\n      return\n        /* \"contracts/SC_Collection/OnChainStringVRF.sol\":601:627  string public randomString */\n    tag_9:\n      tag_36\n      tag_37\n      jump\t// in\n    tag_36:\n      mload(0x40)\n      tag_38\n      swap2\n      swap1\n      tag_39\n      jump\t// in\n    tag_38:\n      mload(0x40)\n      dup1\n      swap2\n      sub\n      swap1\n      return\n        /* \"contracts/SC_Collection/OnChainStringVRF.sol\":569:595  uint256 public s_requestId */\n    tag_10:\n      tag_40\n      tag_41\n      jump\t// in\n    tag_40:\n      mload(0x40)\n      tag_42\n      swap2\n      swap1\n      tag_43\n      jump\t// in\n    tag_42:\n      mload(0x40)\n      dup1\n      swap2\n      sub\n      swap1\n      return\n        /* \"contracts/SC_Collection/OnChainStringVRF.sol\":1339:1719  function requestRandomString() external returns (uint256 requestId) {... */\n    tag_11:\n      tag_44\n      tag_45\n      jump\t// in\n    tag_44:\n      mload(0x40)\n      tag_46\n      swap2\n      swap1\n      tag_43\n      jump\t// in\n    tag_46:\n      mload(0x40)\n      dup1\n      swap2\n      sub\n      swap1\n      return\n        /* \"@chainlink/contracts/src/v0.8/VRFConsumerBaseV2.sol\":6618:6874  function rawFulfillRandomWords(uint256 requestId, uint256[] memory randomWords) external {... */\n    tag_16:\n        /* \"@chainlink/contracts/src/v0.8/VRFConsumerBaseV2.sol\":6731:6745  vrfCoordinator */\n      immutable(\"0x1a192fabce13988b84994d4296e6cdc418d55e2f1d7f942188d4040b94fc57ac\")\n        /* \"@chainlink/contracts/src/v0.8/VRFConsumerBaseV2.sol\":6717:6745  msg.sender != vrfCoordinator */\n      0xffffffffffffffffffffffffffffffffffffffff\n      and\n        /* \"@chainlink/contracts/src/v0.8/VRFConsumerBaseV2.sol\":6717:6727  msg.sender */\n      caller\n        /* \"@chainlink/contracts/src/v0.8/VRFConsumerBaseV2.sol\":6717:6745  msg.sender != vrfCoordinator */\n      0xffffffffffffffffffffffffffffffffffffffff\n      and\n      eq\n        /* \"@chainlink/contracts/src/v0.8/VRFConsumerBaseV2.sol\":6713:6822  if (msg.sender != vrfCoordinator) {... */\n      tag_48\n      jumpi\n        /* \"@chainlink/contracts/src/v0.8/VRFConsumerBaseV2.sol\":6788:6798  msg.sender */\n      caller\n        /* \"@chainlink/contracts/src/v0.8/VRFConsumerBaseV2.sol\":6800:6814  vrfCoordinator */\n      immutable(\"0x1a192fabce13988b84994d4296e6cdc418d55e2f1d7f942188d4040b94fc57ac\")\n        /* \"@chainlink/contracts/src/v0.8/VRFConsumerBaseV2.sol\":6762:6815  OnlyCoordinatorCanFulfill(msg.sender, vrfCoordinator) */\n      mload(0x40)\n      0x1cf993f400000000000000000000000000000000000000000000000000000000\n      dup2\n      mstore\n      0x04\n      add\n      tag_49\n      swap3\n      swap2\n      swap1\n      tag_50\n      jump\t// in\n    tag_49:\n      mload(0x40)\n      dup1\n      swap2\n      sub\n      swap1\n      revert\n        /* \"@chainlink/contracts/src/v0.8/VRFConsumerBaseV2.sol\":6713:6822  if (msg.sender != vrfCoordinator) {... */\n    tag_48:\n        /* \"@chainlink/contracts/src/v0.8/VRFConsumerBaseV2.sol\":6827:6869  fulfillRandomWords(requestId, randomWords) */\n      tag_51\n        /* \"@chainlink/contracts/src/v0.8/VRFConsumerBaseV2.sol\":6846:6855  requestId */\n      dup3\n        /* \"@chainlink/contracts/src/v0.8/VRFConsumerBaseV2.sol\":6857:6868  randomWords */\n      dup3\n        /* \"@chainlink/contracts/src/v0.8/VRFConsumerBaseV2.sol\":6827:6845  fulfillRandomWords */\n      tag_52\n        /* \"@chainlink/contracts/src/v0.8/VRFConsumerBaseV2.sol\":6827:6869  fulfillRandomWords(requestId, randomWords) */\n      jump\t// in\n    tag_51:\n        /* \"@chainlink/contracts/src/v0.8/VRFConsumerBaseV2.sol\":6618:6874  function rawFulfillRandomWords(uint256 requestId, uint256[] memory randomWords) external {... */\n      pop\n      pop\n      jump\t// out\n        /* \"contracts/SC_Collection/OnChainStringVRF.sol\":447:486  uint32 public callbackGasLimit = 100000 */\n    tag_18:\n      0x02\n      0x00\n      swap1\n      sload\n      swap1\n      0x0100\n      exp\n      swap1\n      div\n      0xffffffff\n      and\n      dup2\n      jump\t// out\n        /* \"contracts/SC_Collection/OnChainStringVRF.sol\":419:441  bytes32 public keyHash */\n    tag_22:\n      sload(0x01)\n      dup2\n      jump\t// out\n        /* \"contracts/SC_Collection/OnChainStringVRF.sol\":536:562  uint32 public numWords = 1 */\n    tag_26:\n      0x02\n      0x06\n      swap1\n      sload\n      swap1\n      0x0100\n      exp\n      swap1\n      div\n      0xffffffff\n      and\n      dup2\n      jump\t// out\n        /* \"contracts/SC_Collection/OnChainStringVRF.sol\":383:413  uint64 public s_subscriptionId */\n    tag_29:\n      0x00\n      0x14\n      swap1\n      sload\n      swap1\n      0x0100\n      exp\n      swap1\n      div\n      0xffffffffffffffff\n      and\n      dup2\n      jump\t// out\n        /* \"contracts/SC_Collection/OnChainStringVRF.sol\":492:530  uint16 public requestConfirmations = 3 */\n    tag_33:\n      0x02\n      0x04\n      swap1\n      sload\n      swap1\n      0x0100\n      exp\n      swap1\n      div\n      0xffff\n      and\n      dup2\n      jump\t// out\n        /* \"contracts/SC_Collection/OnChainStringVRF.sol\":601:627  string public randomString */\n    tag_37:\n      0x04\n      dup1\n      sload\n      tag_53\n      swap1\n      tag_54\n      jump\t// in\n    tag_53:\n      dup1\n      0x1f\n      add\n      0x20\n      dup1\n      swap2\n      div\n      mul\n      0x20\n      add\n      mload(0x40)\n      swap1\n      dup2\n      add\n      0x40\n      mstore\n      dup1\n      swap3\n      swap2\n      swap1\n      dup2\n      dup2\n      mstore\n      0x20\n      add\n      dup3\n      dup1\n      sload\n      tag_55\n      swap1\n      tag_54\n      jump\t// in\n    tag_55:\n      dup1\n      iszero\n      tag_56\n      jumpi\n      dup1\n      0x1f\n      lt\n      tag_57\n      jumpi\n      0x0100\n      dup1\n      dup4\n      sload\n      div\n      mul\n      dup4\n      mstore\n      swap2\n      0x20\n      add\n      swap2\n      jump(tag_56)\n    tag_57:\n      dup3\n      add\n      swap2\n      swap1\n      0x00\n      mstore\n      keccak256(0x00, 0x20)\n      swap1\n    tag_58:\n      dup2\n      sload\n      dup2\n      mstore\n      swap1\n      0x01\n      add\n      swap1\n      0x20\n      add\n      dup1\n      dup4\n      gt\n      tag_58\n      jumpi\n      dup3\n      swap1\n      sub\n      0x1f\n      and\n      dup3\n      add\n      swap2\n    tag_56:\n      pop\n      pop\n      pop\n      pop\n      pop\n      dup2\n      jump\t// out\n        /* \"contracts/SC_Collection/OnChainStringVRF.sol\":569:595  uint256 public s_requestId */\n    tag_41:\n      sload(0x03)\n      dup2\n      jump\t// out\n        /* \"contracts/SC_Collection/OnChainStringVRF.sol\":1339:1719  function requestRandomString() external returns (uint256 requestId) {... */\n    tag_45:\n        /* \"contracts/SC_Collection/OnChainStringVRF.sol\":1388:1405  uint256 requestId */\n      0x00\n        /* \"contracts/SC_Collection/OnChainStringVRF.sol\":1429:1440  COORDINATOR */\n      dup1\n      0x00\n      swap1\n      sload\n      swap1\n      0x0100\n      exp\n      swap1\n      div\n      0xffffffffffffffffffffffffffffffffffffffff\n      and\n        /* \"contracts/SC_Collection/OnChainStringVRF.sol\":1429:1459  COORDINATOR.requestRandomWords */\n      0xffffffffffffffffffffffffffffffffffffffff\n      and\n      0x5d3b1d30\n        /* \"contracts/SC_Collection/OnChainStringVRF.sol\":1473:1480  keyHash */\n      sload(0x01)\n        /* \"contracts/SC_Collection/OnChainStringVRF.sol\":1494:1510  s_subscriptionId */\n      0x00\n      0x14\n      swap1\n      sload\n      swap1\n      0x0100\n      exp\n      swap1\n      div\n      0xffffffffffffffff\n      and\n        /* \"contracts/SC_Collection/OnChainStringVRF.sol\":1524:1544  requestConfirmations */\n      0x02\n      0x04\n      swap1\n      sload\n      swap1\n      0x0100\n      exp\n      swap1\n      div\n      0xffff\n      and\n        /* \"contracts/SC_Collection/OnChainStringVRF.sol\":1558:1574  callbackGasLimit */\n      0x02\n      0x00\n      swap1\n      sload\n      swap1\n      0x0100\n      exp\n      swap1\n      div\n      0xffffffff\n      and\n        /* \"contracts/SC_Collection/OnChainStringVRF.sol\":1588:1596  numWords */\n      0x02\n      0x06\n      swap1\n      sload\n      swap1\n      0x0100\n      exp\n      swap1\n      div\n      0xffffffff\n      and\n        /* \"contracts/SC_Collection/OnChainStringVRF.sol\":1429:1606  COORDINATOR.requestRandomWords(... */\n      mload(0x40)\n      dup7\n      0xffffffff\n      and\n      0xe0\n      shl\n      dup2\n      mstore\n      0x04\n      add\n      tag_60\n      swap6\n      swap5\n      swap4\n      swap3\n      swap2\n      swap1\n      tag_61\n      jump\t// in\n    tag_60:\n      0x20\n      mload(0x40)\n      dup1\n      dup4\n      sub\n      dup2\n      0x00\n      dup8\n      gas\n      call\n      iszero\n      dup1\n      iszero\n      tag_63\n      jumpi\n      returndatasize\n      0x00\n      dup1\n      returndatacopy\n      revert(0x00, returndatasize)\n    tag_63:\n      pop\n      pop\n      pop\n      pop\n      mload(0x40)\n      returndatasize\n      not(0x1f)\n      0x1f\n      dup3\n      add\n      and\n      dup3\n      add\n      dup1\n      0x40\n      mstore\n      pop\n      dup2\n      add\n      swap1\n      tag_64\n      swap2\n      swap1\n      tag_65\n      jump\t// in\n    tag_64:\n        /* \"contracts/SC_Collection/OnChainStringVRF.sol\":1417:1606  requestId = COORDINATOR.requestRandomWords(... */\n      swap1\n      pop\n        /* \"contracts/SC_Collection/OnChainStringVRF.sol\":1630:1639  requestId */\n      dup1\n        /* \"contracts/SC_Collection/OnChainStringVRF.sol\":1616:1627  s_requestId */\n      0x03\n        /* \"contracts/SC_Collection/OnChainStringVRF.sol\":1616:1639  s_requestId = requestId */\n      dup2\n      swap1\n      sstore\n      pop\n        /* \"contracts/SC_Collection/OnChainStringVRF.sol\":1654:1686  RandomStringRequested(requestId) */\n      0x550dbbba152a31b0009600e7da858fa5c8db4a89c6d0236e123d60db309246c9\n        /* \"contracts/SC_Collection/OnChainStringVRF.sol\":1676:1685  requestId */\n      dup2\n        /* \"contracts/SC_Collection/OnChainStringVRF.sol\":1654:1686  RandomStringRequested(requestId) */\n      mload(0x40)\n      tag_66\n      swap2\n      swap1\n      tag_43\n      jump\t// in\n    tag_66:\n      mload(0x40)\n      dup1\n      swap2\n      sub\n      swap1\n      log1\n        /* \"contracts/SC_Collection/OnChainStringVRF.sol\":1339:1719  function requestRandomString() external returns (uint256 requestId) {... */\n      swap1\n      jump\t// out\n        /* \"contracts/SC_Collection/OnChainStringVRF.sol\":1795:2098  function fulfillRandomWords(... */\n    tag_52:\n        /* \"contracts/SC_Collection/OnChainStringVRF.sol\":1989:2014  randomWords[0].toString() */\n      tag_68\n        /* \"contracts/SC_Collection/OnChainStringVRF.sol\":1989:2000  randomWords */\n      dup2\n        /* \"contracts/SC_Collection/OnChainStringVRF.sol\":2001:2002  0 */\n      0x00\n        /* \"contracts/SC_Collection/OnChainStringVRF.sol\":1989:2003  randomWords[0] */\n      dup2\n      mload\n      dup2\n      lt\n      tag_69\n      jumpi\n      tag_70\n      tag_71\n      jump\t// in\n    tag_70:\n    tag_69:\n      0x20\n      mul\n      0x20\n      add\n      add\n      mload\n        /* \"contracts/SC_Collection/OnChainStringVRF.sol\":1989:2012  randomWords[0].toString */\n      tag_72\n        /* \"contracts/SC_Collection/OnChainStringVRF.sol\":1989:2014  randomWords[0].toString() */\n      jump\t// in\n    tag_68:\n        /* \"contracts/SC_Collection/OnChainStringVRF.sol\":1974:1986  randomString */\n      0x04\n        /* \"contracts/SC_Collection/OnChainStringVRF.sol\":1974:2014  randomString = randomWords[0].toString() */\n      swap1\n      dup2\n      tag_73\n      swap2\n      swap1\n      tag_74\n      jump\t// in\n    tag_73:\n      pop\n        /* \"contracts/SC_Collection/OnChainStringVRF.sol\":2029:2091  RandomStringFulfilled(requestId, randomWords[0], randomString) */\n      0x285834ca2f8fc399a55fb5e10478778db3a4d8a6561f8d1016b30f519779509f\n        /* \"contracts/SC_Collection/OnChainStringVRF.sol\":2051:2060  requestId */\n      dup3\n        /* \"contracts/SC_Collection/OnChainStringVRF.sol\":2062:2073  randomWords */\n      dup3\n        /* \"contracts/SC_Collection/OnChainStringVRF.sol\":2074:2075  0 */\n      0x00\n        /* \"contracts/SC_Collection/OnChainStringVRF.sol\":2062:2076  randomWords[0] */\n      dup2\n      mload\n      dup2\n      lt\n      tag_75\n      jumpi\n      tag_76\n      tag_71\n      jump\t// in\n    tag_76:\n    tag_75:\n      0x20\n      mul\n      0x20\n      add\n      add\n      mload\n        /* \"contracts/SC_Collection/OnChainStringVRF.sol\":2078:2090  randomString */\n      0x04\n        /* \"contracts/SC_Collection/OnChainStringVRF.sol\":2029:2091  RandomStringFulfilled(requestId, randomWords[0], randomString) */\n      mload(0x40)\n      tag_77\n      swap4\n      swap3\n      swap2\n      swap1\n      tag_78\n      jump\t// in\n    tag_77:\n      mload(0x40)\n      dup1\n      swap2\n      sub\n      swap1\n      log1\n        /* \"contracts/SC_Collection/OnChainStringVRF.sol\":1795:2098  function fulfillRandomWords(... */\n      pop\n      pop\n      jump\t// out\n        /* \"@openzeppelin/contracts/utils/Strings.sol\":987:1619  function toString(uint256 value) internal pure returns (string memory) {... */\n    tag_72:\n        /* \"@openzeppelin/contracts/utils/Strings.sol\":1043:1056  string memory */\n      0x60\n        /* \"@openzeppelin/contracts/utils/Strings.sol\":1092:1106  uint256 length */\n      0x00\n        /* \"@openzeppelin/contracts/utils/Strings.sol\":1129:1130  1 */\n      0x01\n        /* \"@openzeppelin/contracts/utils/Strings.sol\":1109:1126  Math.log10(value) */\n      tag_80\n        /* \"@openzeppelin/contracts/utils/Strings.sol\":1120:1125  value */\n      dup5\n        /* \"@openzeppelin/contracts/utils/Strings.sol\":1109:1119  Math.log10 */\n      tag_81\n        /* \"@openzeppelin/contracts/utils/Strings.sol\":1109:1126  Math.log10(value) */\n      jump\t// in\n    tag_80:\n        /* \"@openzeppelin/contracts/utils/Strings.sol\":1109:1130  Math.log10(value) + 1 */\n      add\n        /* \"@openzeppelin/contracts/utils/Strings.sol\":1092:1130  uint256 length = Math.log10(value) + 1 */\n      swap1\n      pop\n        /* \"@openzeppelin/contracts/utils/Strings.sol\":1144:1164  string memory buffer */\n      0x00\n        /* \"@openzeppelin/contracts/utils/Strings.sol\":1178:1184  length */\n      dup2\n        /* \"@openzeppelin/contracts/utils/Strings.sol\":1167:1185  new string(length) */\n      0xffffffffffffffff\n      dup2\n      gt\n      iszero\n      tag_82\n      jumpi\n      tag_83\n      tag_84\n      jump\t// in\n    tag_83:\n    tag_82:\n      mload(0x40)\n      swap1\n      dup1\n      dup3\n      mstore\n      dup1\n      0x1f\n      add\n      not(0x1f)\n      and\n      0x20\n      add\n      dup3\n      add\n      0x40\n      mstore\n      dup1\n      iszero\n      tag_85\n      jumpi\n      dup2\n      0x20\n      add\n      0x01\n      dup3\n      mul\n      dup1\n      calldatasize\n      dup4\n      calldatacopy\n      dup1\n      dup3\n      add\n      swap2\n      pop\n      pop\n      swap1\n      pop\n    tag_85:\n      pop\n        /* \"@openzeppelin/contracts/utils/Strings.sol\":1144:1185  string memory buffer = new string(length) */\n      swap1\n      pop\n        /* \"@openzeppelin/contracts/utils/Strings.sol\":1199:1210  uint256 ptr */\n      0x00\n        /* \"@openzeppelin/contracts/utils/Strings.sol\":1294:1300  length */\n      dup3\n        /* \"@openzeppelin/contracts/utils/Strings.sol\":1290:1292  32 */\n      0x20\n        /* \"@openzeppelin/contracts/utils/Strings.sol\":1286:1301  add(32, length) */\n      add\n        /* \"@openzeppelin/contracts/utils/Strings.sol\":1278:1284  buffer */\n      dup3\n        /* \"@openzeppelin/contracts/utils/Strings.sol\":1274:1302  add(buffer, add(32, length)) */\n      add\n        /* \"@openzeppelin/contracts/utils/Strings.sol\":1267:1302  ptr := add(buffer, add(32, length)) */\n      swap1\n      pop\n        /* \"@openzeppelin/contracts/utils/Strings.sol\":1329:1576  while (true) {... */\n    tag_86:\n        /* \"@openzeppelin/contracts/utils/Strings.sol\":1336:1340  true */\n      0x01\n        /* \"@openzeppelin/contracts/utils/Strings.sol\":1329:1576  while (true) {... */\n      iszero\n      tag_87\n      jumpi\n        /* \"@openzeppelin/contracts/utils/Strings.sol\":1360:1365  ptr-- */\n      dup1\n      dup1\n      0x01\n      swap1\n      sub\n      swap2\n      pop\n      pop\n        /* \"@openzeppelin/contracts/utils/Strings.sol\":1464:1474  HEX_DIGITS */\n      0x3031323334353637383961626364656600000000000000000000000000000000\n        /* \"@openzeppelin/contracts/utils/Strings.sol\":1459:1461  10 */\n      0x0a\n        /* \"@openzeppelin/contracts/utils/Strings.sol\":1452:1457  value */\n      dup7\n        /* \"@openzeppelin/contracts/utils/Strings.sol\":1448:1462  mod(value, 10) */\n      mod\n        /* \"@openzeppelin/contracts/utils/Strings.sol\":1443:1475  byte(mod(value, 10), HEX_DIGITS) */\n      byte\n        /* \"@openzeppelin/contracts/utils/Strings.sol\":1438:1441  ptr */\n      dup2\n        /* \"@openzeppelin/contracts/utils/Strings.sol\":1430:1476  mstore8(ptr, byte(mod(value, 10), HEX_DIGITS)) */\n      mstore8\n        /* \"@openzeppelin/contracts/utils/Strings.sol\":1520:1522  10 */\n      0x0a\n        /* \"@openzeppelin/contracts/utils/Strings.sol\":1511:1522  value /= 10 */\n      dup6\n      dup2\n      tag_88\n      jumpi\n      tag_89\n      tag_90\n      jump\t// in\n    tag_89:\n    tag_88:\n      div\n      swap5\n      pop\n        /* \"@openzeppelin/contracts/utils/Strings.sol\":1553:1554  0 */\n      0x00\n        /* \"@openzeppelin/contracts/utils/Strings.sol\":1544:1549  value */\n      dup6\n        /* \"@openzeppelin/contracts/utils/Strings.sol\":1544:1554  value == 0 */\n      sub\n        /* \"@openzeppelin/contracts/utils/Strings.sol\":1329:1576  while (true) {... */\n      tag_86\n        /* \"@openzeppelin/contracts/utils/Strings.sol\":1540:1561  if (value == 0) break */\n      jumpi\n        /* \"@openzeppelin/contracts/utils/Strings.sol\":1329:1576  while (true) {... */\n    tag_87:\n        /* \"@openzeppelin/contracts/utils/Strings.sol\":1596:1602  buffer */\n      dup2\n        /* \"@openzeppelin/contracts/utils/Strings.sol\":1589:1602  return buffer */\n      swap4\n      pop\n      pop\n      pop\n      pop\n        /* \"@openzeppelin/contracts/utils/Strings.sol\":987:1619  function toString(uint256 value) internal pure returns (string memory) {... */\n      swap2\n      swap1\n      pop\n      jump\t// out\n        /* \"@openzeppelin/contracts/utils/math/Math.sol\":25316:26232  function log10(uint256 value) internal pure returns (uint256) {... */\n    tag_81:\n        /* \"@openzeppelin/contracts/utils/math/Math.sol\":25369:25376  uint256 */\n      0x00\n        /* \"@openzeppelin/contracts/utils/math/Math.sol\":25388:25402  uint256 result */\n      dup1\n        /* \"@openzeppelin/contracts/utils/math/Math.sol\":25405:25406  0 */\n      0x00\n        /* \"@openzeppelin/contracts/utils/math/Math.sol\":25388:25406  uint256 result = 0 */\n      swap1\n      pop\n        /* \"@openzeppelin/contracts/utils/math/Math.sol\":25453:25461  10 ** 64 */\n      0x184f03e93ff9f4daa797ed6e38ed64bf6a1f010000000000000000\n        /* \"@openzeppelin/contracts/utils/math/Math.sol\":25444:25449  value */\n      dup4\n        /* \"@openzeppelin/contracts/utils/math/Math.sol\":25444:25461  value >= 10 ** 64 */\n      lt\n        /* \"@openzeppelin/contracts/utils/math/Math.sol\":25440:25543  if (value >= 10 ** 64) {... */\n      tag_93\n      jumpi\n        /* \"@openzeppelin/contracts/utils/math/Math.sol\":25490:25498  10 ** 64 */\n      0x184f03e93ff9f4daa797ed6e38ed64bf6a1f010000000000000000\n        /* \"@openzeppelin/contracts/utils/math/Math.sol\":25481:25498  value /= 10 ** 64 */\n      dup4\n      dup2\n      tag_94\n      jumpi\n      tag_95\n      tag_90\n      jump\t// in\n    tag_95:\n    tag_94:\n      div\n      swap3\n      pop\n        /* \"@openzeppelin/contracts/utils/math/Math.sol\":25526:25528  64 */\n      0x40\n        /* \"@openzeppelin/contracts/utils/math/Math.sol\":25516:25528  result += 64 */\n      dup2\n      add\n      swap1\n      pop\n        /* \"@openzeppelin/contracts/utils/math/Math.sol\":25440:25543  if (value >= 10 ** 64) {... */\n    tag_93:\n        /* \"@openzeppelin/contracts/utils/math/Math.sol\":25569:25577  10 ** 32 */\n      0x04ee2d6d415b85acef8100000000\n        /* \"@openzeppelin/contracts/utils/math/Math.sol\":25560:25565  value */\n      dup4\n        /* \"@openzeppelin/contracts/utils/math/Math.sol\":25560:25577  value >= 10 ** 32 */\n      lt\n        /* \"@openzeppelin/contracts/utils/math/Math.sol\":25556:25659  if (value >= 10 ** 32) {... */\n      tag_96\n      jumpi\n        /* \"@openzeppelin/contracts/utils/math/Math.sol\":25606:25614  10 ** 32 */\n      0x04ee2d6d415b85acef8100000000\n        /* \"@openzeppelin/contracts/utils/math/Math.sol\":25597:25614  value /= 10 ** 32 */\n      dup4\n      dup2\n      tag_97\n      jumpi\n      tag_98\n      tag_90\n      jump\t// in\n    tag_98:\n    tag_97:\n      div\n      swap3\n      pop\n        /* \"@openzeppelin/contracts/utils/math/Math.sol\":25642:25644  32 */\n      0x20\n        /* \"@openzeppelin/contracts/utils/math/Math.sol\":25632:25644  result += 32 */\n      dup2\n      add\n      swap1\n      pop\n        /* \"@openzeppelin/contracts/utils/math/Math.sol\":25556:25659  if (value >= 10 ** 32) {... */\n    tag_96:\n        /* \"@openzeppelin/contracts/utils/math/Math.sol\":25685:25693  10 ** 16 */\n      0x2386f26fc10000\n        /* \"@openzeppelin/contracts/utils/math/Math.sol\":25676:25681  value */\n      dup4\n        /* \"@openzeppelin/contracts/utils/math/Math.sol\":25676:25693  value >= 10 ** 16 */\n      lt\n        /* \"@openzeppelin/contracts/utils/math/Math.sol\":25672:25775  if (value >= 10 ** 16) {... */\n      tag_99\n      jumpi\n        /* \"@openzeppelin/contracts/utils/math/Math.sol\":25722:25730  10 ** 16 */\n      0x2386f26fc10000\n        /* \"@openzeppelin/contracts/utils/math/Math.sol\":25713:25730  value /= 10 ** 16 */\n      dup4\n      dup2\n      tag_100\n      jumpi\n      tag_101\n      tag_90\n      jump\t// in\n    tag_101:\n    tag_100:\n      div\n      swap3\n      pop\n        /* \"@openzeppelin/contracts/utils/math/Math.sol\":25758:25760  16 */\n      0x10\n        /* \"@openzeppelin/contracts/utils/math/Math.sol\":25748:25760  result += 16 */\n      dup2\n      add\n      swap1\n      pop\n        /* \"@openzeppelin/contracts/utils/math/Math.sol\":25672:25775  if (value >= 10 ** 16) {... */\n    tag_99:\n        /* \"@openzeppelin/contracts/utils/math/Math.sol\":25801:25808  10 ** 8 */\n      0x05f5e100\n        /* \"@openzeppelin/contracts/utils/math/Math.sol\":25792:25797  value */\n      dup4\n        /* \"@openzeppelin/contracts/utils/math/Math.sol\":25792:25808  value >= 10 ** 8 */\n      lt\n        /* \"@openzeppelin/contracts/utils/math/Math.sol\":25788:25888  if (value >= 10 ** 8) {... */\n      tag_102\n      jumpi\n        /* \"@openzeppelin/contracts/utils/math/Math.sol\":25837:25844  10 ** 8 */\n      0x05f5e100\n        /* \"@openzeppelin/contracts/utils/math/Math.sol\":25828:25844  value /= 10 ** 8 */\n      dup4\n      dup2\n      tag_103\n      jumpi\n      tag_104\n      tag_90\n      jump\t// in\n    tag_104:\n    tag_103:\n      div\n      swap3\n      pop\n        /* \"@openzeppelin/contracts/utils/math/Math.sol\":25872:25873  8 */\n      0x08\n        /* \"@openzeppelin/contracts/utils/math/Math.sol\":25862:25873  result += 8 */\n      dup2\n      add\n      swap1\n      pop\n        /* \"@openzeppelin/contracts/utils/math/Math.sol\":25788:25888  if (value >= 10 ** 8) {... */\n    tag_102:\n        /* \"@openzeppelin/contracts/utils/math/Math.sol\":25914:25921  10 ** 4 */\n      0x2710\n        /* \"@openzeppelin/contracts/utils/math/Math.sol\":25905:25910  value */\n      dup4\n        /* \"@openzeppelin/contracts/utils/math/Math.sol\":25905:25921  value >= 10 ** 4 */\n      lt\n        /* \"@openzeppelin/contracts/utils/math/Math.sol\":25901:26001  if (value >= 10 ** 4) {... */\n      tag_105\n      jumpi\n        /* \"@openzeppelin/contracts/utils/math/Math.sol\":25950:25957  10 ** 4 */\n      0x2710\n        /* \"@openzeppelin/contracts/utils/math/Math.sol\":25941:25957  value /= 10 ** 4 */\n      dup4\n      dup2\n      tag_106\n      jumpi\n      tag_107\n      tag_90\n      jump\t// in\n    tag_107:\n    tag_106:\n      div\n      swap3\n      pop\n        /* \"@openzeppelin/contracts/utils/math/Math.sol\":25985:25986  4 */\n      0x04\n        /* \"@openzeppelin/contracts/utils/math/Math.sol\":25975:25986  result += 4 */\n      dup2\n      add\n      swap1\n      pop\n        /* \"@openzeppelin/contracts/utils/math/Math.sol\":25901:26001  if (value >= 10 ** 4) {... */\n    tag_105:\n        /* \"@openzeppelin/contracts/utils/math/Math.sol\":26027:26034  10 ** 2 */\n      0x64\n        /* \"@openzeppelin/contracts/utils/math/Math.sol\":26018:26023  value */\n      dup4\n        /* \"@openzeppelin/contracts/utils/math/Math.sol\":26018:26034  value >= 10 ** 2 */\n      lt\n        /* \"@openzeppelin/contracts/utils/math/Math.sol\":26014:26114  if (value >= 10 ** 2) {... */\n      tag_108\n      jumpi\n        /* \"@openzeppelin/contracts/utils/math/Math.sol\":26063:26070  10 ** 2 */\n      0x64\n        /* \"@openzeppelin/contracts/utils/math/Math.sol\":26054:26070  value /= 10 ** 2 */\n      dup4\n      dup2\n      tag_109\n      jumpi\n      tag_110\n      tag_90\n      jump\t// in\n    tag_110:\n    tag_109:\n      div\n      swap3\n      pop\n        /* \"@openzeppelin/contracts/utils/math/Math.sol\":26098:26099  2 */\n      0x02\n        /* \"@openzeppelin/contracts/utils/math/Math.sol\":26088:26099  result += 2 */\n      dup2\n      add\n      swap1\n      pop\n        /* \"@openzeppelin/contracts/utils/math/Math.sol\":26014:26114  if (value >= 10 ** 2) {... */\n    tag_108:\n        /* \"@openzeppelin/contracts/utils/math/Math.sol\":26140:26147  10 ** 1 */\n      0x0a\n        /* \"@openzeppelin/contracts/utils/math/Math.sol\":26131:26136  value */\n      dup4\n        /* \"@openzeppelin/contracts/utils/math/Math.sol\":26131:26147  value >= 10 ** 1 */\n      lt\n        /* \"@openzeppelin/contracts/utils/math/Math.sol\":26127:26193  if (value >= 10 ** 1) {... */\n      tag_111\n      jumpi\n        /* \"@openzeppelin/contracts/utils/math/Math.sol\":26177:26178  1 */\n      0x01\n        /* \"@openzeppelin/contracts/utils/math/Math.sol\":26167:26178  result += 1 */\n      dup2\n      add\n      swap1\n      pop\n        /* \"@openzeppelin/contracts/utils/math/Math.sol\":26127:26193  if (value >= 10 ** 1) {... */\n    tag_111:\n        /* \"@openzeppelin/contracts/utils/math/Math.sol\":26219:26225  result */\n      dup1\n        /* \"@openzeppelin/contracts/utils/math/Math.sol\":26212:26225  return result */\n      swap2\n      pop\n      pop\n        /* \"@openzeppelin/contracts/utils/math/Math.sol\":25316:26232  function log10(uint256 value) internal pure returns (uint256) {... */\n      swap2\n      swap1\n      pop\n      jump\t// out\n        /* \"#utility.yul\":7:82   */\n    tag_112:\n        /* \"#utility.yul\":40:46   */\n      0x00\n        /* \"#utility.yul\":73:75   */\n      0x40\n        /* \"#utility.yul\":67:76   */\n      mload\n        /* \"#utility.yul\":57:76   */\n      swap1\n      pop\n        /* \"#utility.yul\":7:82   */\n      swap1\n      jump\t// out\n        /* \"#utility.yul\":88:205   */\n    tag_113:\n        /* \"#utility.yul\":197:198   */\n      0x00\n        /* \"#utility.yul\":194:195   */\n      dup1\n        /* \"#utility.yul\":187:199   */\n      revert\n        /* \"#utility.yul\":211:328   */\n    tag_114:\n        /* \"#utility.yul\":320:321   */\n      0x00\n        /* \"#utility.yul\":317:318   */\n      dup1\n        /* \"#utility.yul\":310:322   */\n      revert\n        /* \"#utility.yul\":334:411   */\n    tag_115:\n        /* \"#utility.yul\":371:378   */\n      0x00\n        /* \"#utility.yul\":400:405   */\n      dup2\n        /* \"#utility.yul\":389:405   */\n      swap1\n      pop\n        /* \"#utility.yul\":334:411   */\n      swap2\n      swap1\n      pop\n      jump\t// out\n        /* \"#utility.yul\":417:539   */\n    tag_116:\n        /* \"#utility.yul\":490:514   */\n      tag_166\n        /* \"#utility.yul\":508:513   */\n      dup2\n        /* \"#utility.yul\":490:514   */\n      tag_115\n      jump\t// in\n    tag_166:\n        /* \"#utility.yul\":483:488   */\n      dup2\n        /* \"#utility.yul\":480:515   */\n      eq\n        /* \"#utility.yul\":470:533   */\n      tag_167\n      jumpi\n        /* \"#utility.yul\":529:530   */\n      0x00\n        /* \"#utility.yul\":526:527   */\n      dup1\n        /* \"#utility.yul\":519:531   */\n      revert\n        /* \"#utility.yul\":470:533   */\n    tag_167:\n        /* \"#utility.yul\":417:539   */\n      pop\n      jump\t// out\n        /* \"#utility.yul\":545:684   */\n    tag_117:\n        /* \"#utility.yul\":591:596   */\n      0x00\n        /* \"#utility.yul\":629:635   */\n      dup2\n        /* \"#utility.yul\":616:636   */\n      calldataload\n        /* \"#utility.yul\":607:636   */\n      swap1\n      pop\n        /* \"#utility.yul\":645:678   */\n      tag_169\n        /* \"#utility.yul\":672:677   */\n      dup2\n        /* \"#utility.yul\":645:678   */\n      tag_116\n      jump\t// in\n    tag_169:\n        /* \"#utility.yul\":545:684   */\n      swap3\n      swap2\n      pop\n      pop\n      jump\t// out\n        /* \"#utility.yul\":690:807   */\n    tag_118:\n        /* \"#utility.yul\":799:800   */\n      0x00\n        /* \"#utility.yul\":796:797   */\n      dup1\n        /* \"#utility.yul\":789:801   */\n      revert\n        /* \"#utility.yul\":813:915   */\n    tag_119:\n        /* \"#utility.yul\":854:860   */\n      0x00\n        /* \"#utility.yul\":905:907   */\n      0x1f\n        /* \"#utility.yul\":901:908   */\n      not\n        /* \"#utility.yul\":896:898   */\n      0x1f\n        /* \"#utility.yul\":889:894   */\n      dup4\n        /* \"#utility.yul\":885:899   */\n      add\n        /* \"#utility.yul\":881:909   */\n      and\n        /* \"#utility.yul\":871:909   */\n      swap1\n      pop\n        /* \"#utility.yul\":813:915   */\n      swap2\n      swap1\n      pop\n      jump\t// out\n        /* \"#utility.yul\":921:1101   */\n    tag_84:\n        /* \"#utility.yul\":969:1046   */\n      0x4e487b7100000000000000000000000000000000000000000000000000000000\n        /* \"#utility.yul\":966:967   */\n      0x00\n        /* \"#utility.yul\":959:1047   */\n      mstore\n        /* \"#utility.yul\":1066:1070   */\n      0x41\n        /* \"#utility.yul\":1063:1064   */\n      0x04\n        /* \"#utility.yul\":1056:1071   */\n      mstore\n        /* \"#utility.yul\":1090:1094   */\n      0x24\n        /* \"#utility.yul\":1087:1088   */\n      0x00\n        /* \"#utility.yul\":1080:1095   */\n      revert\n        /* \"#utility.yul\":1107:1388   */\n    tag_120:\n        /* \"#utility.yul\":1190:1217   */\n      tag_174\n        /* \"#utility.yul\":1212:1216   */\n      dup3\n        /* \"#utility.yul\":1190:1217   */\n      tag_119\n      jump\t// in\n    tag_174:\n        /* \"#utility.yul\":1182:1188   */\n      dup2\n        /* \"#utility.yul\":1178:1218   */\n      add\n        /* \"#utility.yul\":1320:1326   */\n      dup2\n        /* \"#utility.yul\":1308:1318   */\n      dup2\n        /* \"#utility.yul\":1305:1327   */\n      lt\n        /* \"#utility.yul\":1284:1302   */\n      0xffffffffffffffff\n        /* \"#utility.yul\":1272:1282   */\n      dup3\n        /* \"#utility.yul\":1269:1303   */\n      gt\n        /* \"#utility.yul\":1266:1328   */\n      or\n        /* \"#utility.yul\":1263:1351   */\n      iszero\n      tag_175\n      jumpi\n        /* \"#utility.yul\":1331:1349   */\n      tag_176\n      tag_84\n      jump\t// in\n    tag_176:\n        /* \"#utility.yul\":1263:1351   */\n    tag_175:\n        /* \"#utility.yul\":1371:1381   */\n      dup1\n        /* \"#utility.yul\":1367:1369   */\n      0x40\n        /* \"#utility.yul\":1360:1382   */\n      mstore\n        /* \"#utility.yul\":1150:1388   */\n      pop\n        /* \"#utility.yul\":1107:1388   */\n      pop\n      pop\n      jump\t// out\n        /* \"#utility.yul\":1394:1523   */\n    tag_121:\n        /* \"#utility.yul\":1428:1434   */\n      0x00\n        /* \"#utility.yul\":1455:1475   */\n      tag_178\n      tag_112\n      jump\t// in\n    tag_178:\n        /* \"#utility.yul\":1445:1475   */\n      swap1\n      pop\n        /* \"#utility.yul\":1484:1517   */\n      tag_179\n        /* \"#utility.yul\":1512:1516   */\n      dup3\n        /* \"#utility.yul\":1504:1510   */\n      dup3\n        /* \"#utility.yul\":1484:1517   */\n      tag_120\n      jump\t// in\n    tag_179:\n        /* \"#utility.yul\":1394:1523   */\n      swap2\n      swap1\n      pop\n      jump\t// out\n        /* \"#utility.yul\":1529:1840   */\n    tag_122:\n        /* \"#utility.yul\":1606:1610   */\n      0x00\n        /* \"#utility.yul\":1696:1714   */\n      0xffffffffffffffff\n        /* \"#utility.yul\":1688:1694   */\n      dup3\n        /* \"#utility.yul\":1685:1715   */\n      gt\n        /* \"#utility.yul\":1682:1738   */\n      iszero\n      tag_181\n      jumpi\n        /* \"#utility.yul\":1718:1736   */\n      tag_182\n      tag_84\n      jump\t// in\n    tag_182:\n        /* \"#utility.yul\":1682:1738   */\n    tag_181:\n        /* \"#utility.yul\":1768:1772   */\n      0x20\n        /* \"#utility.yul\":1760:1766   */\n      dup3\n        /* \"#utility.yul\":1756:1773   */\n      mul\n        /* \"#utility.yul\":1748:1773   */\n      swap1\n      pop\n        /* \"#utility.yul\":1828:1832   */\n      0x20\n        /* \"#utility.yul\":1822:1826   */\n      dup2\n        /* \"#utility.yul\":1818:1833   */\n      add\n        /* \"#utility.yul\":1810:1833   */\n      swap1\n      pop\n        /* \"#utility.yul\":1529:1840   */\n      swap2\n      swap1\n      pop\n      jump\t// out\n        /* \"#utility.yul\":1846:1963   */\n    tag_123:\n        /* \"#utility.yul\":1955:1956   */\n      0x00\n        /* \"#utility.yul\":1952:1953   */\n      dup1\n        /* \"#utility.yul\":1945:1957   */\n      revert\n        /* \"#utility.yul\":1986:2696   */\n    tag_124:\n        /* \"#utility.yul\":2082:2087   */\n      0x00\n        /* \"#utility.yul\":2107:2188   */\n      tag_185\n        /* \"#utility.yul\":2123:2187   */\n      tag_186\n        /* \"#utility.yul\":2180:2186   */\n      dup5\n        /* \"#utility.yul\":2123:2187   */\n      tag_122\n      jump\t// in\n    tag_186:\n        /* \"#utility.yul\":2107:2188   */\n      tag_121\n      jump\t// in\n    tag_185:\n        /* \"#utility.yul\":2098:2188   */\n      swap1\n      pop\n        /* \"#utility.yul\":2208:2213   */\n      dup1\n        /* \"#utility.yul\":2237:2243   */\n      dup4\n        /* \"#utility.yul\":2230:2235   */\n      dup3\n        /* \"#utility.yul\":2223:2244   */\n      mstore\n        /* \"#utility.yul\":2271:2275   */\n      0x20\n        /* \"#utility.yul\":2264:2269   */\n      dup3\n        /* \"#utility.yul\":2260:2276   */\n      add\n        /* \"#utility.yul\":2253:2276   */\n      swap1\n      pop\n        /* \"#utility.yul\":2324:2328   */\n      0x20\n        /* \"#utility.yul\":2316:2322   */\n      dup5\n        /* \"#utility.yul\":2312:2329   */\n      mul\n        /* \"#utility.yul\":2304:2310   */\n      dup4\n        /* \"#utility.yul\":2300:2330   */\n      add\n        /* \"#utility.yul\":2353:2356   */\n      dup6\n        /* \"#utility.yul\":2345:2351   */\n      dup2\n        /* \"#utility.yul\":2342:2357   */\n      gt\n        /* \"#utility.yul\":2339:2461   */\n      iszero\n      tag_187\n      jumpi\n        /* \"#utility.yul\":2372:2451   */\n      tag_188\n      tag_123\n      jump\t// in\n    tag_188:\n        /* \"#utility.yul\":2339:2461   */\n    tag_187:\n        /* \"#utility.yul\":2487:2493   */\n      dup4\n        /* \"#utility.yul\":2470:2690   */\n    tag_189:\n        /* \"#utility.yul\":2504:2510   */\n      dup2\n        /* \"#utility.yul\":2499:2502   */\n      dup2\n        /* \"#utility.yul\":2496:2511   */\n      lt\n        /* \"#utility.yul\":2470:2690   */\n      iszero\n      tag_191\n      jumpi\n        /* \"#utility.yul\":2579:2582   */\n      dup1\n        /* \"#utility.yul\":2608:2645   */\n      tag_192\n        /* \"#utility.yul\":2641:2644   */\n      dup9\n        /* \"#utility.yul\":2629:2639   */\n      dup3\n        /* \"#utility.yul\":2608:2645   */\n      tag_117\n      jump\t// in\n    tag_192:\n        /* \"#utility.yul\":2603:2606   */\n      dup5\n        /* \"#utility.yul\":2596:2646   */\n      mstore\n        /* \"#utility.yul\":2675:2679   */\n      0x20\n        /* \"#utility.yul\":2670:2673   */\n      dup5\n        /* \"#utility.yul\":2666:2680   */\n      add\n        /* \"#utility.yul\":2659:2680   */\n      swap4\n      pop\n        /* \"#utility.yul\":2546:2690   */\n      pop\n        /* \"#utility.yul\":2530:2534   */\n      0x20\n        /* \"#utility.yul\":2525:2528   */\n      dup2\n        /* \"#utility.yul\":2521:2535   */\n      add\n        /* \"#utility.yul\":2514:2535   */\n      swap1\n      pop\n        /* \"#utility.yul\":2470:2690   */\n      jump(tag_189)\n    tag_191:\n        /* \"#utility.yul\":2474:2495   */\n      pop\n        /* \"#utility.yul\":2088:2696   */\n      pop\n      pop\n        /* \"#utility.yul\":1986:2696   */\n      swap4\n      swap3\n      pop\n      pop\n      pop\n      jump\t// out\n        /* \"#utility.yul\":2719:3089   */\n    tag_125:\n        /* \"#utility.yul\":2790:2795   */\n      0x00\n        /* \"#utility.yul\":2839:2842   */\n      dup3\n        /* \"#utility.yul\":2832:2836   */\n      0x1f\n        /* \"#utility.yul\":2824:2830   */\n      dup4\n        /* \"#utility.yul\":2820:2837   */\n      add\n        /* \"#utility.yul\":2816:2843   */\n      slt\n        /* \"#utility.yul\":2806:2928   */\n      tag_194\n      jumpi\n        /* \"#utility.yul\":2847:2926   */\n      tag_195\n      tag_118\n      jump\t// in\n    tag_195:\n        /* \"#utility.yul\":2806:2928   */\n    tag_194:\n        /* \"#utility.yul\":2964:2970   */\n      dup2\n        /* \"#utility.yul\":2951:2971   */\n      calldataload\n        /* \"#utility.yul\":2989:3083   */\n      tag_196\n        /* \"#utility.yul\":3079:3082   */\n      dup5\n        /* \"#utility.yul\":3071:3077   */\n      dup3\n        /* \"#utility.yul\":3064:3068   */\n      0x20\n        /* \"#utility.yul\":3056:3062   */\n      dup7\n        /* \"#utility.yul\":3052:3069   */\n      add\n        /* \"#utility.yul\":2989:3083   */\n      tag_124\n      jump\t// in\n    tag_196:\n        /* \"#utility.yul\":2980:3083   */\n      swap2\n      pop\n        /* \"#utility.yul\":2796:3089   */\n      pop\n        /* \"#utility.yul\":2719:3089   */\n      swap3\n      swap2\n      pop\n      pop\n      jump\t// out\n        /* \"#utility.yul\":3095:3779   */\n    tag_15:\n        /* \"#utility.yul\":3188:3194   */\n      0x00\n        /* \"#utility.yul\":3196:3202   */\n      dup1\n        /* \"#utility.yul\":3245:3247   */\n      0x40\n        /* \"#utility.yul\":3233:3242   */\n      dup4\n        /* \"#utility.yul\":3224:3231   */\n      dup6\n        /* \"#utility.yul\":3220:3243   */\n      sub\n        /* \"#utility.yul\":3216:3248   */\n      slt\n        /* \"#utility.yul\":3213:3332   */\n      iszero\n      tag_198\n      jumpi\n        /* \"#utility.yul\":3251:3330   */\n      tag_199\n      tag_113\n      jump\t// in\n    tag_199:\n        /* \"#utility.yul\":3213:3332   */\n    tag_198:\n        /* \"#utility.yul\":3371:3372   */\n      0x00\n        /* \"#utility.yul\":3396:3449   */\n      tag_200\n        /* \"#utility.yul\":3441:3448   */\n      dup6\n        /* \"#utility.yul\":3432:3438   */\n      dup3\n        /* \"#utility.yul\":3421:3430   */\n      dup7\n        /* \"#utility.yul\":3417:3439   */\n      add\n        /* \"#utility.yul\":3396:3449   */\n      tag_117\n      jump\t// in\n    tag_200:\n        /* \"#utility.yul\":3386:3449   */\n      swap3\n      pop\n        /* \"#utility.yul\":3342:3459   */\n      pop\n        /* \"#utility.yul\":3526:3528   */\n      0x20\n        /* \"#utility.yul\":3515:3524   */\n      dup4\n        /* \"#utility.yul\":3511:3529   */\n      add\n        /* \"#utility.yul\":3498:3530   */\n      calldataload\n        /* \"#utility.yul\":3557:3575   */\n      0xffffffffffffffff\n        /* \"#utility.yul\":3549:3555   */\n      dup2\n        /* \"#utility.yul\":3546:3576   */\n      gt\n        /* \"#utility.yul\":3543:3660   */\n      iszero\n      tag_201\n      jumpi\n        /* \"#utility.yul\":3579:3658   */\n      tag_202\n      tag_114\n      jump\t// in\n    tag_202:\n        /* \"#utility.yul\":3543:3660   */\n    tag_201:\n        /* \"#utility.yul\":3684:3762   */\n      tag_203\n        /* \"#utility.yul\":3754:3761   */\n      dup6\n        /* \"#utility.yul\":3745:3751   */\n      dup3\n        /* \"#utility.yul\":3734:3743   */\n      dup7\n        /* \"#utility.yul\":3730:3752   */\n      add\n        /* \"#utility.yul\":3684:3762   */\n      tag_125\n      jump\t// in\n    tag_203:\n        /* \"#utility.yul\":3674:3762   */\n      swap2\n      pop\n        /* \"#utility.yul\":3469:3772   */\n      pop\n        /* \"#utility.yul\":3095:3779   */\n      swap3\n      pop\n      swap3\n      swap1\n      pop\n      jump\t// out\n        /* \"#utility.yul\":3785:3878   */\n    tag_126:\n        /* \"#utility.yul\":3821:3828   */\n      0x00\n        /* \"#utility.yul\":3861:3871   */\n      0xffffffff\n        /* \"#utility.yul\":3854:3859   */\n      dup3\n        /* \"#utility.yul\":3850:3872   */\n      and\n        /* \"#utility.yul\":3839:3872   */\n      swap1\n      pop\n        /* \"#utility.yul\":3785:3878   */\n      swap2\n      swap1\n      pop\n      jump\t// out\n        /* \"#utility.yul\":3884:3999   */\n    tag_127:\n        /* \"#utility.yul\":3969:3992   */\n      tag_206\n        /* \"#utility.yul\":3986:3991   */\n      dup2\n        /* \"#utility.yul\":3969:3992   */\n      tag_126\n      jump\t// in\n    tag_206:\n        /* \"#utility.yul\":3964:3967   */\n      dup3\n        /* \"#utility.yul\":3957:3993   */\n      mstore\n        /* \"#utility.yul\":3884:3999   */\n      pop\n      pop\n      jump\t// out\n        /* \"#utility.yul\":4005:4223   */\n    tag_20:\n        /* \"#utility.yul\":4096:4100   */\n      0x00\n        /* \"#utility.yul\":4134:4136   */\n      0x20\n        /* \"#utility.yul\":4123:4132   */\n      dup3\n        /* \"#utility.yul\":4119:4137   */\n      add\n        /* \"#utility.yul\":4111:4137   */\n      swap1\n      pop\n        /* \"#utility.yul\":4147:4216   */\n      tag_208\n        /* \"#utility.yul\":4213:4214   */\n      0x00\n        /* \"#utility.yul\":4202:4211   */\n      dup4\n        /* \"#utility.yul\":4198:4215   */\n      add\n        /* \"#utility.yul\":4189:4195   */\n      dup5\n        /* \"#utility.yul\":4147:4216   */\n      tag_127\n      jump\t// in\n    tag_208:\n        /* \"#utility.yul\":4005:4223   */\n      swap3\n      swap2\n      pop\n      pop\n      jump\t// out\n        /* \"#utility.yul\":4229:4306   */\n    tag_128:\n        /* \"#utility.yul\":4266:4273   */\n      0x00\n        /* \"#utility.yul\":4295:4300   */\n      dup2\n        /* \"#utility.yul\":4284:4300   */\n      swap1\n      pop\n        /* \"#utility.yul\":4229:4306   */\n      swap2\n      swap1\n      pop\n      jump\t// out\n        /* \"#utility.yul\":4312:4430   */\n    tag_129:\n        /* \"#utility.yul\":4399:4423   */\n      tag_211\n        /* \"#utility.yul\":4417:4422   */\n      dup2\n        /* \"#utility.yul\":4399:4423   */\n      tag_128\n      jump\t// in\n    tag_211:\n        /* \"#utility.yul\":4394:4397   */\n      dup3\n        /* \"#utility.yul\":4387:4424   */\n      mstore\n        /* \"#utility.yul\":4312:4430   */\n      pop\n      pop\n      jump\t// out\n        /* \"#utility.yul\":4436:4658   */\n    tag_24:\n        /* \"#utility.yul\":4529:4533   */\n      0x00\n        /* \"#utility.yul\":4567:4569   */\n      0x20\n        /* \"#utility.yul\":4556:4565   */\n      dup3\n        /* \"#utility.yul\":4552:4570   */\n      add\n        /* \"#utility.yul\":4544:4570   */\n      swap1\n      pop\n        /* \"#utility.yul\":4580:4651   */\n      tag_213\n        /* \"#utility.yul\":4648:4649   */\n      0x00\n        /* \"#utility.yul\":4637:4646   */\n      dup4\n        /* \"#utility.yul\":4633:4650   */\n      add\n        /* \"#utility.yul\":4624:4630   */\n      dup5\n        /* \"#utility.yul\":4580:4651   */\n      tag_129\n      jump\t// in\n    tag_213:\n        /* \"#utility.yul\":4436:4658   */\n      swap3\n      swap2\n      pop\n      pop\n      jump\t// out\n        /* \"#utility.yul\":4664:4765   */\n    tag_130:\n        /* \"#utility.yul\":4700:4707   */\n      0x00\n        /* \"#utility.yul\":4740:4758   */\n      0xffffffffffffffff\n        /* \"#utility.yul\":4733:4738   */\n      dup3\n        /* \"#utility.yul\":4729:4759   */\n      and\n        /* \"#utility.yul\":4718:4759   */\n      swap1\n      pop\n        /* \"#utility.yul\":4664:4765   */\n      swap2\n      swap1\n      pop\n      jump\t// out\n        /* \"#utility.yul\":4771:4886   */\n    tag_131:\n        /* \"#utility.yul\":4856:4879   */\n      tag_216\n        /* \"#utility.yul\":4873:4878   */\n      dup2\n        /* \"#utility.yul\":4856:4879   */\n      tag_130\n      jump\t// in\n    tag_216:\n        /* \"#utility.yul\":4851:4854   */\n      dup3\n        /* \"#utility.yul\":4844:4880   */\n      mstore\n        /* \"#utility.yul\":4771:4886   */\n      pop\n      pop\n      jump\t// out\n        /* \"#utility.yul\":4892:5110   */\n    tag_31:\n        /* \"#utility.yul\":4983:4987   */\n      0x00\n        /* \"#utility.yul\":5021:5023   */\n      0x20\n        /* \"#utility.yul\":5010:5019   */\n      dup3\n        /* \"#utility.yul\":5006:5024   */\n      add\n        /* \"#utility.yul\":4998:5024   */\n      swap1\n      pop\n        /* \"#utility.yul\":5034:5103   */\n      tag_218\n        /* \"#utility.yul\":5100:5101   */\n      0x00\n        /* \"#utility.yul\":5089:5098   */\n      dup4\n        /* \"#utility.yul\":5085:5102   */\n      add\n        /* \"#utility.yul\":5076:5082   */\n      dup5\n        /* \"#utility.yul\":5034:5103   */\n      tag_131\n      jump\t// in\n    tag_218:\n        /* \"#utility.yul\":4892:5110   */\n      swap3\n      swap2\n      pop\n      pop\n      jump\t// out\n        /* \"#utility.yul\":5116:5205   */\n    tag_132:\n        /* \"#utility.yul\":5152:5159   */\n      0x00\n        /* \"#utility.yul\":5192:5198   */\n      0xffff\n        /* \"#utility.yul\":5185:5190   */\n      dup3\n        /* \"#utility.yul\":5181:5199   */\n      and\n        /* \"#utility.yul\":5170:5199   */\n      swap1\n      pop\n        /* \"#utility.yul\":5116:5205   */\n      swap2\n      swap1\n      pop\n      jump\t// out\n        /* \"#utility.yul\":5211:5326   */\n    tag_133:\n        /* \"#utility.yul\":5296:5319   */\n      tag_221\n        /* \"#utility.yul\":5313:5318   */\n      dup2\n        /* \"#utility.yul\":5296:5319   */\n      tag_132\n      jump\t// in\n    tag_221:\n        /* \"#utility.yul\":5291:5294   */\n      dup3\n        /* \"#utility.yul\":5284:5320   */\n      mstore\n        /* \"#utility.yul\":5211:5326   */\n      pop\n      pop\n      jump\t// out\n        /* \"#utility.yul\":5332:5550   */\n    tag_35:\n        /* \"#utility.yul\":5423:5427   */\n      0x00\n        /* \"#utility.yul\":5461:5463   */\n      0x20\n        /* \"#utility.yul\":5450:5459   */\n      dup3\n        /* \"#utility.yul\":5446:5464   */\n      add\n        /* \"#utility.yul\":5438:5464   */\n      swap1\n      pop\n        /* \"#utility.yul\":5474:5543   */\n      tag_223\n        /* \"#utility.yul\":5540:5541   */\n      0x00\n        /* \"#utility.yul\":5529:5538   */\n      dup4\n        /* \"#utility.yul\":5525:5542   */\n      add\n        /* \"#utility.yul\":5516:5522   */\n      dup5\n        /* \"#utility.yul\":5474:5543   */\n      tag_133\n      jump\t// in\n    tag_223:\n        /* \"#utility.yul\":5332:5550   */\n      swap3\n      swap2\n      pop\n      pop\n      jump\t// out\n        /* \"#utility.yul\":5556:5655   */\n    tag_134:\n        /* \"#utility.yul\":5608:5614   */\n      0x00\n        /* \"#utility.yul\":5642:5647   */\n      dup2\n        /* \"#utility.yul\":5636:5648   */\n      mload\n        /* \"#utility.yul\":5626:5648   */\n      swap1\n      pop\n        /* \"#utility.yul\":5556:5655   */\n      swap2\n      swap1\n      pop\n      jump\t// out\n        /* \"#utility.yul\":5661:5830   */\n    tag_135:\n        /* \"#utility.yul\":5745:5756   */\n      0x00\n        /* \"#utility.yul\":5779:5785   */\n      dup3\n        /* \"#utility.yul\":5774:5777   */\n      dup3\n        /* \"#utility.yul\":5767:5786   */\n      mstore\n        /* \"#utility.yul\":5819:5823   */\n      0x20\n        /* \"#utility.yul\":5814:5817   */\n      dup3\n        /* \"#utility.yul\":5810:5824   */\n      add\n        /* \"#utility.yul\":5795:5824   */\n      swap1\n      pop\n        /* \"#utility.yul\":5661:5830   */\n      swap3\n      swap2\n      pop\n      pop\n      jump\t// out\n        /* \"#utility.yul\":5836:5975   */\n    tag_136:\n        /* \"#utility.yul\":5925:5931   */\n      dup3\n        /* \"#utility.yul\":5920:5923   */\n      dup2\n        /* \"#utility.yul\":5915:5918   */\n      dup4\n        /* \"#utility.yul\":5909:5932   */\n      mcopy\n        /* \"#utility.yul\":5966:5967   */\n      0x00\n        /* \"#utility.yul\":5957:5963   */\n      dup4\n        /* \"#utility.yul\":5952:5955   */\n      dup4\n        /* \"#utility.yul\":5948:5964   */\n      add\n        /* \"#utility.yul\":5941:5968   */\n      mstore\n        /* \"#utility.yul\":5836:5975   */\n      pop\n      pop\n      pop\n      jump\t// out\n        /* \"#utility.yul\":5981:6358   */\n    tag_137:\n        /* \"#utility.yul\":6069:6072   */\n      0x00\n        /* \"#utility.yul\":6097:6136   */\n      tag_228\n        /* \"#utility.yul\":6130:6135   */\n      dup3\n        /* \"#utility.yul\":6097:6136   */\n      tag_134\n      jump\t// in\n    tag_228:\n        /* \"#utility.yul\":6152:6223   */\n      tag_229\n        /* \"#utility.yul\":6216:6222   */\n      dup2\n        /* \"#utility.yul\":6211:6214   */\n      dup6\n        /* \"#utility.yul\":6152:6223   */\n      tag_135\n      jump\t// in\n    tag_229:\n        /* \"#utility.yul\":6145:6223   */\n      swap4\n      pop\n        /* \"#utility.yul\":6232:6297   */\n      tag_230\n        /* \"#utility.yul\":6290:6296   */\n      dup2\n        /* \"#utility.yul\":6285:6288   */\n      dup6\n        /* \"#utility.yul\":6278:6282   */\n      0x20\n        /* \"#utility.yul\":6271:6276   */\n      dup7\n        /* \"#utility.yul\":6267:6283   */\n      add\n        /* \"#utility.yul\":6232:6297   */\n      tag_136\n      jump\t// in\n    tag_230:\n        /* \"#utility.yul\":6322:6351   */\n      tag_231\n        /* \"#utility.yul\":6344:6350   */\n      dup2\n        /* \"#utility.yul\":6322:6351   */\n      tag_119\n      jump\t// in\n    tag_231:\n        /* \"#utility.yul\":6317:6320   */\n      dup5\n        /* \"#utility.yul\":6313:6352   */\n      add\n        /* \"#utility.yul\":6306:6352   */\n      swap2\n      pop\n        /* \"#utility.yul\":6073:6358   */\n      pop\n        /* \"#utility.yul\":5981:6358   */\n      swap3\n      swap2\n      pop\n      pop\n      jump\t// out\n        /* \"#utility.yul\":6364:6677   */\n    tag_39:\n        /* \"#utility.yul\":6477:6481   */\n      0x00\n        /* \"#utility.yul\":6515:6517   */\n      0x20\n        /* \"#utility.yul\":6504:6513   */\n      dup3\n        /* \"#utility.yul\":6500:6518   */\n      add\n        /* \"#utility.yul\":6492:6518   */\n      swap1\n      pop\n        /* \"#utility.yul\":6564:6573   */\n      dup2\n        /* \"#utility.yul\":6558:6562   */\n      dup2\n        /* \"#utility.yul\":6554:6574   */\n      sub\n        /* \"#utility.yul\":6550:6551   */\n      0x00\n        /* \"#utility.yul\":6539:6548   */\n      dup4\n        /* \"#utility.yul\":6535:6552   */\n      add\n        /* \"#utility.yul\":6528:6575   */\n      mstore\n        /* \"#utility.yul\":6592:6670   */\n      tag_233\n        /* \"#utility.yul\":6665:6669   */\n      dup2\n        /* \"#utility.yul\":6656:6662   */\n      dup5\n        /* \"#utility.yul\":6592:6670   */\n      tag_137\n      jump\t// in\n    tag_233:\n        /* \"#utility.yul\":6584:6670   */\n      swap1\n      pop\n        /* \"#utility.yul\":6364:6677   */\n      swap3\n      swap2\n      pop\n      pop\n      jump\t// out\n        /* \"#utility.yul\":6683:6801   */\n    tag_138:\n        /* \"#utility.yul\":6770:6794   */\n      tag_235\n        /* \"#utility.yul\":6788:6793   */\n      dup2\n        /* \"#utility.yul\":6770:6794   */\n      tag_115\n      jump\t// in\n    tag_235:\n        /* \"#utility.yul\":6765:6768   */\n      dup3\n        /* \"#utility.yul\":6758:6795   */\n      mstore\n        /* \"#utility.yul\":6683:6801   */\n      pop\n      pop\n      jump\t// out\n        /* \"#utility.yul\":6807:7029   */\n    tag_43:\n        /* \"#utility.yul\":6900:6904   */\n      0x00\n        /* \"#utility.yul\":6938:6940   */\n      0x20\n        /* \"#utility.yul\":6927:6936   */\n      dup3\n        /* \"#utility.yul\":6923:6941   */\n      add\n        /* \"#utility.yul\":6915:6941   */\n      swap1\n      pop\n        /* \"#utility.yul\":6951:7022   */\n      tag_237\n        /* \"#utility.yul\":7019:7020   */\n      0x00\n        /* \"#utility.yul\":7008:7017   */\n      dup4\n        /* \"#utility.yul\":7004:7021   */\n      add\n        /* \"#utility.yul\":6995:7001   */\n      dup5\n        /* \"#utility.yul\":6951:7022   */\n      tag_138\n      jump\t// in\n    tag_237:\n        /* \"#utility.yul\":6807:7029   */\n      swap3\n      swap2\n      pop\n      pop\n      jump\t// out\n        /* \"#utility.yul\":7035:7161   */\n    tag_139:\n        /* \"#utility.yul\":7072:7079   */\n      0x00\n        /* \"#utility.yul\":7112:7154   */\n      0xffffffffffffffffffffffffffffffffffffffff\n        /* \"#utility.yul\":7105:7110   */\n      dup3\n        /* \"#utility.yul\":7101:7155   */\n      and\n        /* \"#utility.yul\":7090:7155   */\n      swap1\n      pop\n        /* \"#utility.yul\":7035:7161   */\n      swap2\n      swap1\n      pop\n      jump\t// out\n        /* \"#utility.yul\":7167:7263   */\n    tag_140:\n        /* \"#utility.yul\":7204:7211   */\n      0x00\n        /* \"#utility.yul\":7233:7257   */\n      tag_240\n        /* \"#utility.yul\":7251:7256   */\n      dup3\n        /* \"#utility.yul\":7233:7257   */\n      tag_139\n      jump\t// in\n    tag_240:\n        /* \"#utility.yul\":7222:7257   */\n      swap1\n      pop\n        /* \"#utility.yul\":7167:7263   */\n      swap2\n      swap1\n      pop\n      jump\t// out\n        /* \"#utility.yul\":7269:7387   */\n    tag_141:\n        /* \"#utility.yul\":7356:7380   */\n      tag_242\n        /* \"#utility.yul\":7374:7379   */\n      dup2\n        /* \"#utility.yul\":7356:7380   */\n      tag_140\n      jump\t// in\n    tag_242:\n        /* \"#utility.yul\":7351:7354   */\n      dup3\n        /* \"#utility.yul\":7344:7381   */\n      mstore\n        /* \"#utility.yul\":7269:7387   */\n      pop\n      pop\n      jump\t// out\n        /* \"#utility.yul\":7393:7725   */\n    tag_50:\n        /* \"#utility.yul\":7514:7518   */\n      0x00\n        /* \"#utility.yul\":7552:7554   */\n      0x40\n        /* \"#utility.yul\":7541:7550   */\n      dup3\n        /* \"#utility.yul\":7537:7555   */\n      add\n        /* \"#utility.yul\":7529:7555   */\n      swap1\n      pop\n        /* \"#utility.yul\":7565:7636   */\n      tag_244\n        /* \"#utility.yul\":7633:7634   */\n      0x00\n        /* \"#utility.yul\":7622:7631   */\n      dup4\n        /* \"#utility.yul\":7618:7635   */\n      add\n        /* \"#utility.yul\":7609:7615   */\n      dup6\n        /* \"#utility.yul\":7565:7636   */\n      tag_141\n      jump\t// in\n    tag_244:\n        /* \"#utility.yul\":7646:7718   */\n      tag_245\n        /* \"#utility.yul\":7714:7716   */\n      0x20\n        /* \"#utility.yul\":7703:7712   */\n      dup4\n        /* \"#utility.yul\":7699:7717   */\n      add\n        /* \"#utility.yul\":7690:7696   */\n      dup5\n        /* \"#utility.yul\":7646:7718   */\n      tag_141\n      jump\t// in\n    tag_245:\n        /* \"#utility.yul\":7393:7725   */\n      swap4\n      swap3\n      pop\n      pop\n      pop\n      jump\t// out\n        /* \"#utility.yul\":7731:7911   */\n    tag_142:\n        /* \"#utility.yul\":7779:7856   */\n      0x4e487b7100000000000000000000000000000000000000000000000000000000\n        /* \"#utility.yul\":7776:7777   */\n      0x00\n        /* \"#utility.yul\":7769:7857   */\n      mstore\n        /* \"#utility.yul\":7876:7880   */\n      0x22\n        /* \"#utility.yul\":7873:7874   */\n      0x04\n        /* \"#utility.yul\":7866:7881   */\n      mstore\n        /* \"#utility.yul\":7900:7904   */\n      0x24\n        /* \"#utility.yul\":7897:7898   */\n      0x00\n        /* \"#utility.yul\":7890:7905   */\n      revert\n        /* \"#utility.yul\":7917:8237   */\n    tag_54:\n        /* \"#utility.yul\":7961:7967   */\n      0x00\n        /* \"#utility.yul\":7998:7999   */\n      0x02\n        /* \"#utility.yul\":7992:7996   */\n      dup3\n        /* \"#utility.yul\":7988:8000   */\n      div\n        /* \"#utility.yul\":7978:8000   */\n      swap1\n      pop\n        /* \"#utility.yul\":8045:8046   */\n      0x01\n        /* \"#utility.yul\":8039:8043   */\n      dup3\n        /* \"#utility.yul\":8035:8047   */\n      and\n        /* \"#utility.yul\":8066:8084   */\n      dup1\n        /* \"#utility.yul\":8056:8137   */\n      tag_248\n      jumpi\n        /* \"#utility.yul\":8122:8126   */\n      0x7f\n        /* \"#utility.yul\":8114:8120   */\n      dup3\n        /* \"#utility.yul\":8110:8127   */\n      and\n        /* \"#utility.yul\":8100:8127   */\n      swap2\n      pop\n        /* \"#utility.yul\":8056:8137   */\n    tag_248:\n        /* \"#utility.yul\":8184:8186   */\n      0x20\n        /* \"#utility.yul\":8176:8182   */\n      dup3\n        /* \"#utility.yul\":8173:8187   */\n      lt\n        /* \"#utility.yul\":8153:8171   */\n      dup2\n        /* \"#utility.yul\":8150:8188   */\n      sub\n        /* \"#utility.yul\":8147:8231   */\n      tag_249\n      jumpi\n        /* \"#utility.yul\":8203:8221   */\n      tag_250\n      tag_142\n      jump\t// in\n    tag_250:\n        /* \"#utility.yul\":8147:8231   */\n    tag_249:\n        /* \"#utility.yul\":7968:8237   */\n      pop\n        /* \"#utility.yul\":7917:8237   */\n      swap2\n      swap1\n      pop\n      jump\t// out\n        /* \"#utility.yul\":8243:8891   */\n    tag_61:\n        /* \"#utility.yul\":8440:8444   */\n      0x00\n        /* \"#utility.yul\":8478:8481   */\n      0xa0\n        /* \"#utility.yul\":8467:8476   */\n      dup3\n        /* \"#utility.yul\":8463:8482   */\n      add\n        /* \"#utility.yul\":8455:8482   */\n      swap1\n      pop\n        /* \"#utility.yul\":8492:8563   */\n      tag_252\n        /* \"#utility.yul\":8560:8561   */\n      0x00\n        /* \"#utility.yul\":8549:8558   */\n      dup4\n        /* \"#utility.yul\":8545:8562   */\n      add\n        /* \"#utility.yul\":8536:8542   */\n      dup9\n        /* \"#utility.yul\":8492:8563   */\n      tag_129\n      jump\t// in\n    tag_252:\n        /* \"#utility.yul\":8573:8643   */\n      tag_253\n        /* \"#utility.yul\":8639:8641   */\n      0x20\n        /* \"#utility.yul\":8628:8637   */\n      dup4\n        /* \"#utility.yul\":8624:8642   */\n      add\n        /* \"#utility.yul\":8615:8621   */\n      dup8\n        /* \"#utility.yul\":8573:8643   */\n      tag_131\n      jump\t// in\n    tag_253:\n        /* \"#utility.yul\":8653:8723   */\n      tag_254\n        /* \"#utility.yul\":8719:8721   */\n      0x40\n        /* \"#utility.yul\":8708:8717   */\n      dup4\n        /* \"#utility.yul\":8704:8722   */\n      add\n        /* \"#utility.yul\":8695:8701   */\n      dup7\n        /* \"#utility.yul\":8653:8723   */\n      tag_133\n      jump\t// in\n    tag_254:\n        /* \"#utility.yul\":8733:8803   */\n      tag_255\n        /* \"#utility.yul\":8799:8801   */\n      0x60\n        /* \"#utility.yul\":8788:8797   */\n      dup4\n        /* \"#utility.yul\":8784:8802   */\n      add\n        /* \"#utility.yul\":8775:8781   */\n      dup6\n        /* \"#utility.yul\":8733:8803   */\n      tag_127\n      jump\t// in\n    tag_255:\n        /* \"#utility.yul\":8813:8884   */\n      tag_256\n        /* \"#utility.yul\":8879:8882   */\n      0x80\n        /* \"#utility.yul\":8868:8877   */\n      dup4\n        /* \"#utility.yul\":8864:8883   */\n      add\n        /* \"#utility.yul\":8855:8861   */\n      dup5\n        /* \"#utility.yul\":8813:8884   */\n      tag_127\n      jump\t// in\n    tag_256:\n        /* \"#utility.yul\":8243:8891   */\n      swap7\n      swap6\n      pop\n      pop\n      pop\n      pop\n      pop\n      pop\n      jump\t// out\n        /* \"#utility.yul\":8897:9040   */\n    tag_143:\n        /* \"#utility.yul\":8954:8959   */\n      0x00\n        /* \"#utility.yul\":8985:8991   */\n      dup2\n        /* \"#utility.yul\":8979:8992   */\n      mload\n        /* \"#utility.yul\":8970:8992   */\n      swap1\n      pop\n        /* \"#utility.yul\":9001:9034   */\n      tag_258\n        /* \"#utility.yul\":9028:9033   */\n      dup2\n        /* \"#utility.yul\":9001:9034   */\n      tag_116\n      jump\t// in\n    tag_258:\n        /* \"#utility.yul\":8897:9040   */\n      swap3\n      swap2\n      pop\n      pop\n      jump\t// out\n        /* \"#utility.yul\":9046:9397   */\n    tag_65:\n        /* \"#utility.yul\":9116:9122   */\n      0x00\n        /* \"#utility.yul\":9165:9167   */\n      0x20\n        /* \"#utility.yul\":9153:9162   */\n      dup3\n        /* \"#utility.yul\":9144:9151   */\n      dup5\n        /* \"#utility.yul\":9140:9163   */\n      sub\n        /* \"#utility.yul\":9136:9168   */\n      slt\n        /* \"#utility.yul\":9133:9252   */\n      iszero\n      tag_260\n      jumpi\n        /* \"#utility.yul\":9171:9250   */\n      tag_261\n      tag_113\n      jump\t// in\n    tag_261:\n        /* \"#utility.yul\":9133:9252   */\n    tag_260:\n        /* \"#utility.yul\":9291:9292   */\n      0x00\n        /* \"#utility.yul\":9316:9380   */\n      tag_262\n        /* \"#utility.yul\":9372:9379   */\n      dup5\n        /* \"#utility.yul\":9363:9369   */\n      dup3\n        /* \"#utility.yul\":9352:9361   */\n      dup6\n        /* \"#utility.yul\":9348:9370   */\n      add\n        /* \"#utility.yul\":9316:9380   */\n      tag_143\n      jump\t// in\n    tag_262:\n        /* \"#utility.yul\":9306:9380   */\n      swap2\n      pop\n        /* \"#utility.yul\":9262:9390   */\n      pop\n        /* \"#utility.yul\":9046:9397   */\n      swap3\n      swap2\n      pop\n      pop\n      jump\t// out\n        /* \"#utility.yul\":9403:9583   */\n    tag_71:\n        /* \"#utility.yul\":9451:9528   */\n      0x4e487b7100000000000000000000000000000000000000000000000000000000\n        /* \"#utility.yul\":9448:9449   */\n      0x00\n        /* \"#utility.yul\":9441:9529   */\n      mstore\n        /* \"#utility.yul\":9548:9552   */\n      0x32\n        /* \"#utility.yul\":9545:9546   */\n      0x04\n        /* \"#utility.yul\":9538:9553   */\n      mstore\n        /* \"#utility.yul\":9572:9576   */\n      0x24\n        /* \"#utility.yul\":9569:9570   */\n      0x00\n        /* \"#utility.yul\":9562:9577   */\n      revert\n        /* \"#utility.yul\":9589:9730   */\n    tag_144:\n        /* \"#utility.yul\":9638:9642   */\n      0x00\n        /* \"#utility.yul\":9661:9664   */\n      dup2\n        /* \"#utility.yul\":9653:9664   */\n      swap1\n      pop\n        /* \"#utility.yul\":9684:9687   */\n      dup2\n        /* \"#utility.yul\":9681:9682   */\n      0x00\n        /* \"#utility.yul\":9674:9688   */\n      mstore\n        /* \"#utility.yul\":9718:9722   */\n      0x20\n        /* \"#utility.yul\":9715:9716   */\n      0x00\n        /* \"#utility.yul\":9705:9723   */\n      keccak256\n        /* \"#utility.yul\":9697:9723   */\n      swap1\n      pop\n        /* \"#utility.yul\":9589:9730   */\n      swap2\n      swap1\n      pop\n      jump\t// out\n        /* \"#utility.yul\":9736:9829   */\n    tag_145:\n        /* \"#utility.yul\":9773:9779   */\n      0x00\n        /* \"#utility.yul\":9820:9822   */\n      0x20\n        /* \"#utility.yul\":9815:9817   */\n      0x1f\n        /* \"#utility.yul\":9808:9813   */\n      dup4\n        /* \"#utility.yul\":9804:9818   */\n      add\n        /* \"#utility.yul\":9800:9823   */\n      div\n        /* \"#utility.yul\":9790:9823   */\n      swap1\n      pop\n        /* \"#utility.yul\":9736:9829   */\n      swap2\n      swap1\n      pop\n      jump\t// out\n        /* \"#utility.yul\":9835:9942   */\n    tag_146:\n        /* \"#utility.yul\":9879:9887   */\n      0x00\n        /* \"#utility.yul\":9929:9934   */\n      dup3\n        /* \"#utility.yul\":9923:9927   */\n      dup3\n        /* \"#utility.yul\":9919:9935   */\n      shl\n        /* \"#utility.yul\":9898:9935   */\n      swap1\n      pop\n        /* \"#utility.yul\":9835:9942   */\n      swap3\n      swap2\n      pop\n      pop\n      jump\t// out\n        /* \"#utility.yul\":9948:10341   */\n    tag_147:\n        /* \"#utility.yul\":10017:10023   */\n      0x00\n        /* \"#utility.yul\":10067:10068   */\n      0x08\n        /* \"#utility.yul\":10055:10065   */\n      dup4\n        /* \"#utility.yul\":10051:10069   */\n      mul\n        /* \"#utility.yul\":10090:10187   */\n      tag_268\n        /* \"#utility.yul\":10120:10186   */\n      0xffffffffffffffffffffffffffffffffffffffffffffffffffffffffffffffff\n        /* \"#utility.yul\":10109:10118   */\n      dup3\n        /* \"#utility.yul\":10090:10187   */\n      tag_146\n      jump\t// in\n    tag_268:\n        /* \"#utility.yul\":10208:10247   */\n      tag_269\n        /* \"#utility.yul\":10238:10246   */\n      dup7\n        /* \"#utility.yul\":10227:10236   */\n      dup4\n        /* \"#utility.yul\":10208:10247   */\n      tag_146\n      jump\t// in\n    tag_269:\n        /* \"#utility.yul\":10196:10247   */\n      swap6\n      pop\n        /* \"#utility.yul\":10280:10284   */\n      dup1\n        /* \"#utility.yul\":10276:10285   */\n      not\n        /* \"#utility.yul\":10269:10274   */\n      dup5\n        /* \"#utility.yul\":10265:10286   */\n      and\n        /* \"#utility.yul\":10256:10286   */\n      swap4\n      pop\n        /* \"#utility.yul\":10329:10333   */\n      dup1\n        /* \"#utility.yul\":10319:10327   */\n      dup7\n        /* \"#utility.yul\":10315:10334   */\n      and\n        /* \"#utility.yul\":10308:10313   */\n      dup5\n        /* \"#utility.yul\":10305:10335   */\n      or\n        /* \"#utility.yul\":10295:10335   */\n      swap3\n      pop\n        /* \"#utility.yul\":10024:10341   */\n      pop\n      pop\n        /* \"#utility.yul\":9948:10341   */\n      swap4\n      swap3\n      pop\n      pop\n      pop\n      jump\t// out\n        /* \"#utility.yul\":10347:10407   */\n    tag_148:\n        /* \"#utility.yul\":10375:10378   */\n      0x00\n        /* \"#utility.yul\":10396:10401   */\n      dup2\n        /* \"#utility.yul\":10389:10401   */\n      swap1\n      pop\n        /* \"#utility.yul\":10347:10407   */\n      swap2\n      swap1\n      pop\n      jump\t// out\n        /* \"#utility.yul\":10413:10555   */\n    tag_149:\n        /* \"#utility.yul\":10463:10472   */\n      0x00\n        /* \"#utility.yul\":10496:10549   */\n      tag_272\n        /* \"#utility.yul\":10514:10548   */\n      tag_273\n        /* \"#utility.yul\":10523:10547   */\n      tag_274\n        /* \"#utility.yul\":10541:10546   */\n      dup5\n        /* \"#utility.yul\":10523:10547   */\n      tag_115\n      jump\t// in\n    tag_274:\n        /* \"#utility.yul\":10514:10548   */\n      tag_148\n      jump\t// in\n    tag_273:\n        /* \"#utility.yul\":10496:10549   */\n      tag_115\n      jump\t// in\n    tag_272:\n        /* \"#utility.yul\":10483:10549   */\n      swap1\n      pop\n        /* \"#utility.yul\":10413:10555   */\n      swap2\n      swap1\n      pop\n      jump\t// out\n        /* \"#utility.yul\":10561:10636   */\n    tag_150:\n        /* \"#utility.yul\":10604:10607   */\n      0x00\n        /* \"#utility.yul\":10625:10630   */\n      dup2\n        /* \"#utility.yul\":10618:10630   */\n      swap1\n      pop\n        /* \"#utility.yul\":10561:10636   */\n      swap2\n      swap1\n      pop\n      jump\t// out\n        /* \"#utility.yul\":10642:10911   */\n    tag_151:\n        /* \"#utility.yul\":10752:10791   */\n      tag_277\n        /* \"#utility.yul\":10783:10790   */\n      dup4\n        /* \"#utility.yul\":10752:10791   */\n      tag_149\n      jump\t// in\n    tag_277:\n        /* \"#utility.yul\":10813:10904   */\n      tag_278\n        /* \"#utility.yul\":10862:10903   */\n      tag_279\n        /* \"#utility.yul\":10886:10902   */\n      dup3\n        /* \"#utility.yul\":10862:10903   */\n      tag_150\n      jump\t// in\n    tag_279:\n        /* \"#utility.yul\":10854:10860   */\n      dup5\n        /* \"#utility.yul\":10847:10851   */\n      dup5\n        /* \"#utility.yul\":10841:10852   */\n      sload\n        /* \"#utility.yul\":10813:10904   */\n      tag_147\n      jump\t// in\n    tag_278:\n        /* \"#utility.yul\":10807:10811   */\n      dup3\n        /* \"#utility.yul\":10800:10905   */\n      sstore\n        /* \"#utility.yul\":10718:10911   */\n      pop\n        /* \"#utility.yul\":10642:10911   */\n      pop\n      pop\n      pop\n      jump\t// out\n        /* \"#utility.yul\":10917:10990   */\n    tag_152:\n        /* \"#utility.yul\":10962:10965   */\n      0x00\n        /* \"#utility.yul\":10917:10990   */\n      swap1\n      jump\t// out\n        /* \"#utility.yul\":10996:11185   */\n    tag_153:\n        /* \"#utility.yul\":11073:11105   */\n      tag_282\n      tag_152\n      jump\t// in\n    tag_282:\n        /* \"#utility.yul\":11114:11179   */\n      tag_283\n        /* \"#utility.yul\":11172:11178   */\n      dup2\n        /* \"#utility.yul\":11164:11170   */\n      dup5\n        /* \"#utility.yul\":11158:11162   */\n      dup5\n        /* \"#utility.yul\":11114:11179   */\n      tag_151\n      jump\t// in\n    tag_283:\n        /* \"#utility.yul\":11049:11185   */\n      pop\n        /* \"#utility.yul\":10996:11185   */\n      pop\n      pop\n      jump\t// out\n        /* \"#utility.yul\":11191:11377   */\n    tag_154:\n        /* \"#utility.yul\":11251:11371   */\n    tag_285:\n        /* \"#utility.yul\":11268:11271   */\n      dup2\n        /* \"#utility.yul\":11261:11266   */\n      dup2\n        /* \"#utility.yul\":11258:11272   */\n      lt\n        /* \"#utility.yul\":11251:11371   */\n      iszero\n      tag_287\n      jumpi\n        /* \"#utility.yul\":11322:11361   */\n      tag_288\n        /* \"#utility.yul\":11359:11360   */\n      0x00\n        /* \"#utility.yul\":11352:11357   */\n      dup3\n        /* \"#utility.yul\":11322:11361   */\n      tag_153\n      jump\t// in\n    tag_288:\n        /* \"#utility.yul\":11295:11296   */\n      0x01\n        /* \"#utility.yul\":11288:11293   */\n      dup2\n        /* \"#utility.yul\":11284:11297   */\n      add\n        /* \"#utility.yul\":11275:11297   */\n      swap1\n      pop\n        /* \"#utility.yul\":11251:11371   */\n      jump(tag_285)\n    tag_287:\n        /* \"#utility.yul\":11191:11377   */\n      pop\n      pop\n      jump\t// out\n        /* \"#utility.yul\":11383:11926   */\n    tag_155:\n        /* \"#utility.yul\":11484:11486   */\n      0x1f\n        /* \"#utility.yul\":11479:11482   */\n      dup3\n        /* \"#utility.yul\":11476:11487   */\n      gt\n        /* \"#utility.yul\":11473:11919   */\n      iszero\n      tag_290\n      jumpi\n        /* \"#utility.yul\":11518:11556   */\n      tag_291\n        /* \"#utility.yul\":11550:11555   */\n      dup2\n        /* \"#utility.yul\":11518:11556   */\n      tag_144\n      jump\t// in\n    tag_291:\n        /* \"#utility.yul\":11602:11631   */\n      tag_292\n        /* \"#utility.yul\":11620:11630   */\n      dup5\n        /* \"#utility.yul\":11602:11631   */\n      tag_145\n      jump\t// in\n    tag_292:\n        /* \"#utility.yul\":11592:11600   */\n      dup2\n        /* \"#utility.yul\":11588:11632   */\n      add\n        /* \"#utility.yul\":11785:11787   */\n      0x20\n        /* \"#utility.yul\":11773:11783   */\n      dup6\n        /* \"#utility.yul\":11770:11788   */\n      lt\n        /* \"#utility.yul\":11767:11816   */\n      iszero\n      tag_293\n      jumpi\n        /* \"#utility.yul\":11806:11814   */\n      dup2\n        /* \"#utility.yul\":11791:11814   */\n      swap1\n      pop\n        /* \"#utility.yul\":11767:11816   */\n    tag_293:\n        /* \"#utility.yul\":11829:11909   */\n      tag_294\n        /* \"#utility.yul\":11885:11907   */\n      tag_295\n        /* \"#utility.yul\":11903:11906   */\n      dup6\n        /* \"#utility.yul\":11885:11907   */\n      tag_145\n      jump\t// in\n    tag_295:\n        /* \"#utility.yul\":11875:11883   */\n      dup4\n        /* \"#utility.yul\":11871:11908   */\n      add\n        /* \"#utility.yul\":11858:11869   */\n      dup3\n        /* \"#utility.yul\":11829:11909   */\n      tag_154\n      jump\t// in\n    tag_294:\n        /* \"#utility.yul\":11488:11919   */\n      pop\n      pop\n        /* \"#utility.yul\":11473:11919   */\n    tag_290:\n        /* \"#utility.yul\":11383:11926   */\n      pop\n      pop\n      pop\n      jump\t// out\n        /* \"#utility.yul\":11932:12049   */\n    tag_156:\n        /* \"#utility.yul\":11986:11994   */\n      0x00\n        /* \"#utility.yul\":12036:12041   */\n      dup3\n        /* \"#utility.yul\":12030:12034   */\n      dup3\n        /* \"#utility.yul\":12026:12042   */\n      shr\n        /* \"#utility.yul\":12005:12042   */\n      swap1\n      pop\n        /* \"#utility.yul\":11932:12049   */\n      swap3\n      swap2\n      pop\n      pop\n      jump\t// out\n        /* \"#utility.yul\":12055:12224   */\n    tag_157:\n        /* \"#utility.yul\":12099:12105   */\n      0x00\n        /* \"#utility.yul\":12132:12183   */\n      tag_298\n        /* \"#utility.yul\":12180:12181   */\n      0x00\n        /* \"#utility.yul\":12176:12182   */\n      not\n        /* \"#utility.yul\":12168:12173   */\n      dup5\n        /* \"#utility.yul\":12165:12166   */\n      0x08\n        /* \"#utility.yul\":12161:12174   */\n      mul\n        /* \"#utility.yul\":12132:12183   */\n      tag_156\n      jump\t// in\n    tag_298:\n        /* \"#utility.yul\":12128:12184   */\n      not\n        /* \"#utility.yul\":12213:12217   */\n      dup1\n        /* \"#utility.yul\":12207:12211   */\n      dup4\n        /* \"#utility.yul\":12203:12218   */\n      and\n        /* \"#utility.yul\":12193:12218   */\n      swap2\n      pop\n        /* \"#utility.yul\":12106:12224   */\n      pop\n        /* \"#utility.yul\":12055:12224   */\n      swap3\n      swap2\n      pop\n      pop\n      jump\t// out\n        /* \"#utility.yul\":12229:12524   */\n    tag_158:\n        /* \"#utility.yul\":12305:12309   */\n      0x00\n        /* \"#utility.yul\":12451:12480   */\n      tag_300\n        /* \"#utility.yul\":12476:12479   */\n      dup4\n        /* \"#utility.yul\":12470:12474   */\n      dup4\n        /* \"#utility.yul\":12451:12480   */\n      tag_157\n      jump\t// in\n    tag_300:\n        /* \"#utility.yul\":12443:12480   */\n      swap2\n      pop\n        /* \"#utility.yul\":12513:12516   */\n      dup3\n        /* \"#utility.yul\":12510:12511   */\n      0x02\n        /* \"#utility.yul\":12506:12517   */\n      mul\n        /* \"#utility.yul\":12500:12504   */\n      dup3\n        /* \"#utility.yul\":12497:12518   */\n      or\n        /* \"#utility.yul\":12489:12518   */\n      swap1\n      pop\n        /* \"#utility.yul\":12229:12524   */\n      swap3\n      swap2\n      pop\n      pop\n      jump\t// out\n        /* \"#utility.yul\":12529:13924   */\n    tag_74:\n        /* \"#utility.yul\":12646:12683   */\n      tag_302\n        /* \"#utility.yul\":12679:12682   */\n      dup3\n        /* \"#utility.yul\":12646:12683   */\n      tag_134\n      jump\t// in\n    tag_302:\n        /* \"#utility.yul\":12748:12766   */\n      0xffffffffffffffff\n        /* \"#utility.yul\":12740:12746   */\n      dup2\n        /* \"#utility.yul\":12737:12767   */\n      gt\n        /* \"#utility.yul\":12734:12790   */\n      iszero\n      tag_303\n      jumpi\n        /* \"#utility.yul\":12770:12788   */\n      tag_304\n      tag_84\n      jump\t// in\n    tag_304:\n        /* \"#utility.yul\":12734:12790   */\n    tag_303:\n        /* \"#utility.yul\":12814:12852   */\n      tag_305\n        /* \"#utility.yul\":12846:12850   */\n      dup3\n        /* \"#utility.yul\":12840:12851   */\n      sload\n        /* \"#utility.yul\":12814:12852   */\n      tag_54\n      jump\t// in\n    tag_305:\n        /* \"#utility.yul\":12899:12966   */\n      tag_306\n        /* \"#utility.yul\":12959:12965   */\n      dup3\n        /* \"#utility.yul\":12951:12957   */\n      dup3\n        /* \"#utility.yul\":12945:12949   */\n      dup6\n        /* \"#utility.yul\":12899:12966   */\n      tag_155\n      jump\t// in\n    tag_306:\n        /* \"#utility.yul\":12993:12994   */\n      0x00\n        /* \"#utility.yul\":13017:13021   */\n      0x20\n        /* \"#utility.yul\":13004:13021   */\n      swap1\n      pop\n        /* \"#utility.yul\":13049:13051   */\n      0x1f\n        /* \"#utility.yul\":13041:13047   */\n      dup4\n        /* \"#utility.yul\":13038:13052   */\n      gt\n        /* \"#utility.yul\":13066:13067   */\n      0x01\n        /* \"#utility.yul\":13061:13679   */\n      dup2\n      eq\n      tag_308\n      jumpi\n        /* \"#utility.yul\":13723:13724   */\n      0x00\n        /* \"#utility.yul\":13740:13746   */\n      dup5\n        /* \"#utility.yul\":13737:13814   */\n      iszero\n      tag_309\n      jumpi\n        /* \"#utility.yul\":13789:13798   */\n      dup3\n        /* \"#utility.yul\":13784:13787   */\n      dup8\n        /* \"#utility.yul\":13780:13799   */\n      add\n        /* \"#utility.yul\":13774:13800   */\n      mload\n        /* \"#utility.yul\":13765:13800   */\n      swap1\n      pop\n        /* \"#utility.yul\":13737:13814   */\n    tag_309:\n        /* \"#utility.yul\":13840:13907   */\n      tag_310\n        /* \"#utility.yul\":13900:13906   */\n      dup6\n        /* \"#utility.yul\":13893:13898   */\n      dup3\n        /* \"#utility.yul\":13840:13907   */\n      tag_158\n      jump\t// in\n    tag_310:\n        /* \"#utility.yul\":13834:13838   */\n      dup7\n        /* \"#utility.yul\":13827:13908   */\n      sstore\n        /* \"#utility.yul\":13696:13918   */\n      pop\n        /* \"#utility.yul\":13031:13918   */\n      jump(tag_307)\n        /* \"#utility.yul\":13061:13679   */\n    tag_308:\n        /* \"#utility.yul\":13113:13117   */\n      0x1f\n        /* \"#utility.yul\":13109:13118   */\n      not\n        /* \"#utility.yul\":13101:13107   */\n      dup5\n        /* \"#utility.yul\":13097:13119   */\n      and\n        /* \"#utility.yul\":13147:13184   */\n      tag_311\n        /* \"#utility.yul\":13179:13183   */\n      dup7\n        /* \"#utility.yul\":13147:13184   */\n      tag_144\n      jump\t// in\n    tag_311:\n        /* \"#utility.yul\":13206:13207   */\n      0x00\n        /* \"#utility.yul\":13220:13428   */\n    tag_312:\n        /* \"#utility.yul\":13234:13241   */\n      dup3\n        /* \"#utility.yul\":13231:13232   */\n      dup2\n        /* \"#utility.yul\":13228:13242   */\n      lt\n        /* \"#utility.yul\":13220:13428   */\n      iszero\n      tag_314\n      jumpi\n        /* \"#utility.yul\":13313:13322   */\n      dup5\n        /* \"#utility.yul\":13308:13311   */\n      dup10\n        /* \"#utility.yul\":13304:13323   */\n      add\n        /* \"#utility.yul\":13298:13324   */\n      mload\n        /* \"#utility.yul\":13290:13296   */\n      dup3\n        /* \"#utility.yul\":13283:13325   */\n      sstore\n        /* \"#utility.yul\":13364:13365   */\n      0x01\n        /* \"#utility.yul\":13356:13362   */\n      dup3\n        /* \"#utility.yul\":13352:13366   */\n      add\n        /* \"#utility.yul\":13342:13366   */\n      swap2\n      pop\n        /* \"#utility.yul\":13411:13413   */\n      0x20\n        /* \"#utility.yul\":13400:13409   */\n      dup6\n        /* \"#utility.yul\":13396:13414   */\n      add\n        /* \"#utility.yul\":13383:13414   */\n      swap5\n      pop\n        /* \"#utility.yul\":13257:13261   */\n      0x20\n        /* \"#utility.yul\":13254:13255   */\n      dup2\n        /* \"#utility.yul\":13250:13262   */\n      add\n        /* \"#utility.yul\":13245:13262   */\n      swap1\n      pop\n        /* \"#utility.yul\":13220:13428   */\n      jump(tag_312)\n    tag_314:\n        /* \"#utility.yul\":13456:13462   */\n      dup7\n        /* \"#utility.yul\":13447:13454   */\n      dup4\n        /* \"#utility.yul\":13444:13463   */\n      lt\n        /* \"#utility.yul\":13441:13620   */\n      iszero\n      tag_315\n      jumpi\n        /* \"#utility.yul\":13514:13523   */\n      dup5\n        /* \"#utility.yul\":13509:13512   */\n      dup10\n        /* \"#utility.yul\":13505:13524   */\n      add\n        /* \"#utility.yul\":13499:13525   */\n      mload\n        /* \"#utility.yul\":13557:13605   */\n      tag_316\n        /* \"#utility.yul\":13599:13603   */\n      0x1f\n        /* \"#utility.yul\":13591:13597   */\n      dup10\n        /* \"#utility.yul\":13587:13604   */\n      and\n        /* \"#utility.yul\":13576:13585   */\n      dup3\n        /* \"#utility.yul\":13557:13605   */\n      tag_157\n      jump\t// in\n    tag_316:\n        /* \"#utility.yul\":13549:13555   */\n      dup4\n        /* \"#utility.yul\":13542:13606   */\n      sstore\n        /* \"#utility.yul\":13464:13620   */\n      pop\n        /* \"#utility.yul\":13441:13620   */\n    tag_315:\n        /* \"#utility.yul\":13666:13667   */\n      0x01\n        /* \"#utility.yul\":13662:13663   */\n      0x02\n        /* \"#utility.yul\":13654:13660   */\n      dup9\n        /* \"#utility.yul\":13650:13664   */\n      mul\n        /* \"#utility.yul\":13646:13668   */\n      add\n        /* \"#utility.yul\":13640:13644   */\n      dup9\n        /* \"#utility.yul\":13633:13669   */\n      sstore\n        /* \"#utility.yul\":13068:13679   */\n      pop\n      pop\n      pop\n        /* \"#utility.yul\":13031:13918   */\n    tag_307:\n      pop\n        /* \"#utility.yul\":12621:13924   */\n      pop\n      pop\n      pop\n        /* \"#utility.yul\":12529:13924   */\n      pop\n      pop\n      jump\t// out\n        /* \"#utility.yul\":13954:14785   */\n    tag_159:\n        /* \"#utility.yul\":14039:14042   */\n      0x00\n        /* \"#utility.yul\":14076:14081   */\n      dup2\n        /* \"#utility.yul\":14070:14082   */\n      sload\n        /* \"#utility.yul\":14105:14141   */\n      tag_318\n        /* \"#utility.yul\":14131:14140   */\n      dup2\n        /* \"#utility.yul\":14105:14141   */\n      tag_54\n      jump\t// in\n    tag_318:\n        /* \"#utility.yul\":14157:14228   */\n      tag_319\n        /* \"#utility.yul\":14221:14227   */\n      dup2\n        /* \"#utility.yul\":14216:14219   */\n      dup7\n        /* \"#utility.yul\":14157:14228   */\n      tag_135\n      jump\t// in\n    tag_319:\n        /* \"#utility.yul\":14150:14228   */\n      swap5\n      pop\n        /* \"#utility.yul\":14259:14260   */\n      0x01\n        /* \"#utility.yul\":14248:14257   */\n      dup3\n        /* \"#utility.yul\":14244:14261   */\n      and\n        /* \"#utility.yul\":14275:14276   */\n      0x00\n        /* \"#utility.yul\":14270:14434   */\n      dup2\n      eq\n      tag_321\n      jumpi\n        /* \"#utility.yul\":14448:14449   */\n      0x01\n        /* \"#utility.yul\":14443:14779   */\n      dup2\n      eq\n      tag_322\n      jumpi\n        /* \"#utility.yul\":14237:14779   */\n      jump(tag_320)\n        /* \"#utility.yul\":14270:14434   */\n    tag_321:\n        /* \"#utility.yul\":14354:14358   */\n      0xff\n        /* \"#utility.yul\":14350:14359   */\n      not\n        /* \"#utility.yul\":14339:14348   */\n      dup4\n        /* \"#utility.yul\":14335:14360   */\n      and\n        /* \"#utility.yul\":14330:14333   */\n      dup7\n        /* \"#utility.yul\":14323:14361   */\n      mstore\n        /* \"#utility.yul\":14414:14420   */\n      dup2\n        /* \"#utility.yul\":14407:14421   */\n      iszero\n        /* \"#utility.yul\":14400:14422   */\n      iszero\n        /* \"#utility.yul\":14394:14398   */\n      0x20\n        /* \"#utility.yul\":14390:14423   */\n      mul\n        /* \"#utility.yul\":14385:14388   */\n      dup7\n        /* \"#utility.yul\":14381:14424   */\n      add\n        /* \"#utility.yul\":14374:14424   */\n      swap4\n      pop\n        /* \"#utility.yul\":14270:14434   */\n      jump(tag_320)\n        /* \"#utility.yul\":14443:14779   */\n    tag_322:\n        /* \"#utility.yul\":14510:14548   */\n      tag_323\n        /* \"#utility.yul\":14542:14547   */\n      dup6\n        /* \"#utility.yul\":14510:14548   */\n      tag_144\n      jump\t// in\n    tag_323:\n        /* \"#utility.yul\":14570:14571   */\n      0x00\n        /* \"#utility.yul\":14584:14738   */\n    tag_324:\n        /* \"#utility.yul\":14598:14604   */\n      dup4\n        /* \"#utility.yul\":14595:14596   */\n      dup2\n        /* \"#utility.yul\":14592:14605   */\n      lt\n        /* \"#utility.yul\":14584:14738   */\n      iszero\n      tag_326\n      jumpi\n        /* \"#utility.yul\":14672:14679   */\n      dup2\n        /* \"#utility.yul\":14666:14680   */\n      sload\n        /* \"#utility.yul\":14662:14663   */\n      dup2\n        /* \"#utility.yul\":14657:14660   */\n      dup10\n        /* \"#utility.yul\":14653:14664   */\n      add\n        /* \"#utility.yul\":14646:14681   */\n      mstore\n        /* \"#utility.yul\":14722:14723   */\n      0x01\n        /* \"#utility.yul\":14713:14720   */\n      dup3\n        /* \"#utility.yul\":14709:14724   */\n      add\n        /* \"#utility.yul\":14698:14724   */\n      swap2\n      pop\n        /* \"#utility.yul\":14620:14624   */\n      0x20\n        /* \"#utility.yul\":14617:14618   */\n      dup2\n        /* \"#utility.yul\":14613:14625   */\n      add\n        /* \"#utility.yul\":14608:14625   */\n      swap1\n      pop\n        /* \"#utility.yul\":14584:14738   */\n      jump(tag_324)\n    tag_326:\n        /* \"#utility.yul\":14767:14768   */\n      dup1\n        /* \"#utility.yul\":14762:14765   */\n      dup9\n        /* \"#utility.yul\":14758:14769   */\n      add\n        /* \"#utility.yul\":14751:14769   */\n      swap6\n      pop\n        /* \"#utility.yul\":14450:14779   */\n      pop\n      pop\n        /* \"#utility.yul\":14237:14779   */\n    tag_320:\n      pop\n        /* \"#utility.yul\":14043:14785   */\n      pop\n      pop\n        /* \"#utility.yul\":13954:14785   */\n      swap3\n      swap2\n      pop\n      pop\n      jump\t// out\n        /* \"#utility.yul\":14791:15318   */\n    tag_78:\n        /* \"#utility.yul\":14957:14961   */\n      0x00\n        /* \"#utility.yul\":14995:14997   */\n      0x60\n        /* \"#utility.yul\":14984:14993   */\n      dup3\n        /* \"#utility.yul\":14980:14998   */\n      add\n        /* \"#utility.yul\":14972:14998   */\n      swap1\n      pop\n        /* \"#utility.yul\":15008:15079   */\n      tag_328\n        /* \"#utility.yul\":15076:15077   */\n      0x00\n        /* \"#utility.yul\":15065:15074   */\n      dup4\n        /* \"#utility.yul\":15061:15078   */\n      add\n        /* \"#utility.yul\":15052:15058   */\n      dup7\n        /* \"#utility.yul\":15008:15079   */\n      tag_138\n      jump\t// in\n    tag_328:\n        /* \"#utility.yul\":15089:15161   */\n      tag_329\n        /* \"#utility.yul\":15157:15159   */\n      0x20\n        /* \"#utility.yul\":15146:15155   */\n      dup4\n        /* \"#utility.yul\":15142:15160   */\n      add\n        /* \"#utility.yul\":15133:15139   */\n      dup6\n        /* \"#utility.yul\":15089:15161   */\n      tag_138\n      jump\t// in\n    tag_329:\n        /* \"#utility.yul\":15208:15217   */\n      dup2\n        /* \"#utility.yul\":15202:15206   */\n      dup2\n        /* \"#utility.yul\":15198:15218   */\n      sub\n        /* \"#utility.yul\":15193:15195   */\n      0x40\n        /* \"#utility.yul\":15182:15191   */\n      dup4\n        /* \"#utility.yul\":15178:15196   */\n      add\n        /* \"#utility.yul\":15171:15219   */\n      mstore\n        /* \"#utility.yul\":15236:15311   */\n      tag_330\n        /* \"#utility.yul\":15306:15310   */\n      dup2\n        /* \"#utility.yul\":15297:15303   */\n      dup5\n        /* \"#utility.yul\":15236:15311   */\n      tag_159\n      jump\t// in\n    tag_330:\n        /* \"#utility.yul\":15228:15311   */\n      swap1\n      pop\n        /* \"#utility.yul\":14791:15318   */\n      swap5\n      swap4\n      pop\n      pop\n      pop\n      pop\n      jump\t// out\n        /* \"#utility.yul\":15324:15504   */\n    tag_90:\n        /* \"#utility.yul\":15372:15449   */\n      0x4e487b7100000000000000000000000000000000000000000000000000000000\n        /* \"#utility.yul\":15369:15370   */\n      0x00\n        /* \"#utility.yul\":15362:15450   */\n      mstore\n        /* \"#utility.yul\":15469:15473   */\n      0x12\n        /* \"#utility.yul\":15466:15467   */\n      0x04\n        /* \"#utility.yul\":15459:15474   */\n      mstore\n        /* \"#utility.yul\":15493:15497   */\n      0x24\n        /* \"#utility.yul\":15490:15491   */\n      0x00\n        /* \"#utility.yul\":15483:15498   */\n      revert\n\n    auxdata: 0xa264697066735822122018e369d774c54550e416dbb37001641348f82b965cb0091fe5d51e583507943f64736f6c634300081a0033\n}\n",
				"bytecode": {
					"linkReferences": {},
					"object": "60a0604052620186a060025f6101000a81548163ffffffff021916908363ffffffff1602179055506003600260046101000a81548161ffff021916908361ffff1602179055506001600260066101000a81548163ffffffff021916908363ffffffff160217905550348015610072575f80fd5b5060405161121e38038061121e8339818101604052810190610094919061020e565b818073ffffffffffffffffffffffffffffffffffffffff1660808173ffffffffffffffffffffffffffffffffffffffff168152505050815f806101000a81548173ffffffffffffffffffffffffffffffffffffffff021916908373ffffffffffffffffffffffffffffffffffffffff160217905550825f60146101000a81548167ffffffffffffffff021916908367ffffffffffffffff1602179055508060018190555050505061025e565b5f80fd5b5f67ffffffffffffffff82169050919050565b61016081610144565b811461016a575f80fd5b50565b5f8151905061017b81610157565b92915050565b5f73ffffffffffffffffffffffffffffffffffffffff82169050919050565b5f6101aa82610181565b9050919050565b6101ba816101a0565b81146101c4575f80fd5b50565b5f815190506101d5816101b1565b92915050565b5f819050919050565b6101ed816101db565b81146101f7575f80fd5b50565b5f81519050610208816101e4565b92915050565b5f805f6060848603121561022557610224610140565b5b5f6102328682870161016d565b9350506020610243868287016101c7565b9250506040610254868287016101fa565b9150509250925092565b608051610fa161027d5f395f81816101a301526101f70152610fa15ff3fe608060405234801561000f575f80fd5b5060043610610091575f3560e01c80638ac00021116100645780638ac000211461010b578063b0fb162f14610129578063bafcd67814610147578063e89e106a14610165578063fe74a3d61461018357610091565b80631fe543e31461009557806324f74697146100b157806361728f39146100cf5780637ccfd7fc146100ed575b5f80fd5b6100af60048036038101906100aa91906108bb565b6101a1565b005b6100b9610261565b6040516100c69190610933565b60405180910390f35b6100d7610276565b6040516100e49190610964565b60405180910390f35b6100f561027c565b6040516101029190610933565b60405180910390f35b610113610292565b604051610120919061099f565b60405180910390f35b6101316102ab565b60405161013e91906109d4565b60405180910390f35b61014f6102bf565b60405161015c9190610a4d565b60405180910390f35b61016d61034b565b60405161017a9190610a7c565b60405180910390f35b61018b610351565b6040516101989190610a7c565b60405180910390f35b7f000000000000000000000000000000000000000000000000000000000000000073ffffffffffffffffffffffffffffffffffffffff163373ffffffffffffffffffffffffffffffffffffffff161461025357337f00000000000000000000000000000000000000000000000000000000000000006040517f1cf993f400000000000000000000000000000000000000000000000000000000815260040161024a929190610ad4565b60405180910390fd5b61025d8282610480565b5050565b60025f9054906101000a900463ffffffff1681565b60015481565b600260069054906101000a900463ffffffff1681565b5f60149054906101000a900467ffffffffffffffff1681565b600260049054906101000a900461ffff1681565b600480546102cc90610b28565b80601f01602080910402602001604051908101604052809291908181526020018280546102f890610b28565b80156103435780601f1061031a57610100808354040283529160200191610343565b820191905f5260205f20905b81548152906001019060200180831161032657829003601f168201915b505050505081565b60035481565b5f805f9054906101000a900473ffffffffffffffffffffffffffffffffffffffff1673ffffffffffffffffffffffffffffffffffffffff16635d3b1d306001545f60149054906101000a900467ffffffffffffffff16600260049054906101000a900461ffff1660025f9054906101000a900463ffffffff16600260069054906101000a900463ffffffff166040518663ffffffff1660e01b81526004016103fd959493929190610b58565b6020604051808303815f875af1158015610419573d5f803e3d5ffd5b505050506040513d601f19601f8201168201806040525081019061043d9190610bbd565b9050806003819055507f550dbbba152a31b0009600e7da858fa5c8db4a89c6d0236e123d60db309246c9816040516104759190610a7c565b60405180910390a190565b6104a3815f8151811061049657610495610be8565b5b602002602001015161050c565b600490816104b19190610db2565b507f285834ca2f8fc399a55fb5e10478778db3a4d8a6561f8d1016b30f519779509f82825f815181106104e7576104e6610be8565b5b6020026020010151600460405161050093929190610f02565b60405180910390a15050565b60605f600161051a846105d6565b0190505f8167ffffffffffffffff8111156105385761053761077f565b5b6040519080825280601f01601f19166020018201604052801561056a5781602001600182028036833780820191505090505b5090505f82602001820190505b6001156105cb578080600190039150507f3031323334353637383961626364656600000000000000000000000000000000600a86061a8153600a85816105c0576105bf610f3e565b5b0494505f8503610577575b819350505050919050565b5f805f90507a184f03e93ff9f4daa797ed6e38ed64bf6a1f0100000000000000008310610632577a184f03e93ff9f4daa797ed6e38ed64bf6a1f010000000000000000838161062857610627610f3e565b5b0492506040810190505b6d04ee2d6d415b85acef8100000000831061066f576d04ee2d6d415b85acef8100000000838161066557610664610f3e565b5b0492506020810190505b662386f26fc10000831061069e57662386f26fc10000838161069457610693610f3e565b5b0492506010810190505b6305f5e10083106106c7576305f5e10083816106bd576106bc610f3e565b5b0492506008810190505b61271083106106ec5761271083816106e2576106e1610f3e565b5b0492506004810190505b6064831061070f576064838161070557610704610f3e565b5b0492506002810190505b600a831061071e576001810190505b80915050919050565b5f604051905090565b5f80fd5b5f80fd5b5f819050919050565b61074a81610738565b8114610754575f80fd5b50565b5f8135905061076581610741565b92915050565b5f80fd5b5f601f19601f8301169050919050565b7f4e487b71000000000000000000000000000000000000000000000000000000005f52604160045260245ffd5b6107b58261076f565b810181811067ffffffffffffffff821117156107d4576107d361077f565b5b80604052505050565b5f6107e6610727565b90506107f282826107ac565b919050565b5f67ffffffffffffffff8211156108115761081061077f565b5b602082029050602081019050919050565b5f80fd5b5f610838610833846107f7565b6107dd565b9050808382526020820190506020840283018581111561085b5761085a610822565b5b835b8181101561088457806108708882610757565b84526020840193505060208101905061085d565b5050509392505050565b5f82601f8301126108a2576108a161076b565b5b81356108b2848260208601610826565b91505092915050565b5f80604083850312156108d1576108d0610730565b5b5f6108de85828601610757565b925050602083013567ffffffffffffffff8111156108ff576108fe610734565b5b61090b8582860161088e565b9150509250929050565b5f63ffffffff82169050919050565b61092d81610915565b82525050565b5f6020820190506109465f830184610924565b92915050565b5f819050919050565b61095e8161094c565b82525050565b5f6020820190506109775f830184610955565b92915050565b5f67ffffffffffffffff82169050919050565b6109998161097d565b82525050565b5f6020820190506109b25f830184610990565b92915050565b5f61ffff82169050919050565b6109ce816109b8565b82525050565b5f6020820190506109e75f8301846109c5565b92915050565b5f81519050919050565b5f82825260208201905092915050565b8281835e5f83830152505050565b5f610a1f826109ed565b610a2981856109f7565b9350610a39818560208601610a07565b610a428161076f565b840191505092915050565b5f6020820190508181035f830152610a658184610a15565b905092915050565b610a7681610738565b82525050565b5f602082019050610a8f5f830184610a6d565b92915050565b5f73ffffffffffffffffffffffffffffffffffffffff82169050919050565b5f610abe82610a95565b9050919050565b610ace81610ab4565b82525050565b5f604082019050610ae75f830185610ac5565b610af46020830184610ac5565b9392505050565b7f4e487b71000000000000000000000000000000000000000000000000000000005f52602260045260245ffd5b5f6002820490506001821680610b3f57607f821691505b602082108103610b5257610b51610afb565b5b50919050565b5f60a082019050610b6b5f830188610955565b610b786020830187610990565b610b8560408301866109c5565b610b926060830185610924565b610b9f6080830184610924565b9695505050505050565b5f81519050610bb781610741565b92915050565b5f60208284031215610bd257610bd1610730565b5b5f610bdf84828501610ba9565b91505092915050565b7f4e487b71000000000000000000000000000000000000000000000000000000005f52603260045260245ffd5b5f819050815f5260205f209050919050565b5f6020601f8301049050919050565b5f82821b905092915050565b5f60088302610c717fffffffffffffffffffffffffffffffffffffffffffffffffffffffffffffffff82610c36565b610c7b8683610c36565b95508019841693508086168417925050509392505050565b5f819050919050565b5f610cb6610cb1610cac84610738565b610c93565b610738565b9050919050565b5f819050919050565b610ccf83610c9c565b610ce3610cdb82610cbd565b848454610c42565b825550505050565b5f90565b610cf7610ceb565b610d02818484610cc6565b505050565b5b81811015610d2557610d1a5f82610cef565b600181019050610d08565b5050565b601f821115610d6a57610d3b81610c15565b610d4484610c27565b81016020851015610d53578190505b610d67610d5f85610c27565b830182610d07565b50505b505050565b5f82821c905092915050565b5f610d8a5f1984600802610d6f565b1980831691505092915050565b5f610da28383610d7b565b9150826002028217905092915050565b610dbb826109ed565b67ffffffffffffffff811115610dd457610dd361077f565b5b610dde8254610b28565b610de9828285610d29565b5f60209050601f831160018114610e1a575f8415610e08578287015190505b610e128582610d97565b865550610e79565b601f198416610e2886610c15565b5f5b82811015610e4f57848901518255600182019150602085019450602081019050610e2a565b86831015610e6c5784890151610e68601f891682610d7b565b8355505b6001600288020188555050505b505050505050565b5f8154610e8d81610b28565b610e9781866109f7565b9450600182165f8114610eb15760018114610ec757610ef9565b60ff198316865281151560200286019350610ef9565b610ed085610c15565b5f5b83811015610ef157815481890152600182019150602081019050610ed2565b808801955050505b50505092915050565b5f606082019050610f155f830186610a6d565b610f226020830185610a6d565b8181036040830152610f348184610e81565b9050949350505050565b7f4e487b71000000000000000000000000000000000000000000000000000000005f52601260045260245ffdfea264697066735822122018e369d774c54550e416dbb37001641348f82b965cb0091fe5d51e583507943f64736f6c634300081a0033",
					"opcodes": "PUSH1 0xA0 PUSH1 0x40 MSTORE PUSH3 0x186A0 PUSH1 0x2 PUSH0 PUSH2 0x100 EXP DUP2 SLOAD DUP2 PUSH4 0xFFFFFFFF MUL NOT AND SWAP1 DUP4 PUSH4 0xFFFFFFFF AND MUL OR SWAP1 SSTORE POP PUSH1 0x3 PUSH1 0x2 PUSH1 0x4 PUSH2 0x100 EXP DUP2 SLOAD DUP2 PUSH2 0xFFFF MUL NOT AND SWAP1 DUP4 PUSH2 0xFFFF AND MUL OR SWAP1 SSTORE POP PUSH1 0x1 PUSH1 0x2 PUSH1 0x6 PUSH2 0x100 EXP DUP2 SLOAD DUP2 PUSH4 0xFFFFFFFF MUL NOT AND SWAP1 DUP4 PUSH4 0xFFFFFFFF AND MUL OR SWAP1 SSTORE POP CALLVALUE DUP1 ISZERO PUSH2 0x72 JUMPI PUSH0 DUP1 REVERT JUMPDEST POP PUSH1 0x40 MLOAD PUSH2 0x121E CODESIZE SUB DUP1 PUSH2 0x121E DUP4 CODECOPY DUP2 DUP2 ADD PUSH1 0x40 MSTORE DUP2 ADD SWAP1 PUSH2 0x94 SWAP2 SWAP1 PUSH2 0x20E JUMP JUMPDEST DUP2 DUP1 PUSH20 0xFFFFFFFFFFFFFFFFFFFFFFFFFFFFFFFFFFFFFFFF AND PUSH1 0x80 DUP2 PUSH20 0xFFFFFFFFFFFFFFFFFFFFFFFFFFFFFFFFFFFFFFFF AND DUP2 MSTORE POP POP POP DUP2 PUSH0 DUP1 PUSH2 0x100 EXP DUP2 SLOAD DUP2 PUSH20 0xFFFFFFFFFFFFFFFFFFFFFFFFFFFFFFFFFFFFFFFF MUL NOT AND SWAP1 DUP4 PUSH20 0xFFFFFFFFFFFFFFFFFFFFFFFFFFFFFFFFFFFFFFFF AND MUL OR SWAP1 SSTORE POP DUP3 PUSH0 PUSH1 0x14 PUSH2 0x100 EXP DUP2 SLOAD DUP2 PUSH8 0xFFFFFFFFFFFFFFFF MUL NOT AND SWAP1 DUP4 PUSH8 0xFFFFFFFFFFFFFFFF AND MUL OR SWAP1 SSTORE POP DUP1 PUSH1 0x1 DUP2 SWAP1 SSTORE POP POP POP POP PUSH2 0x25E JUMP JUMPDEST PUSH0 DUP1 REVERT JUMPDEST PUSH0 PUSH8 0xFFFFFFFFFFFFFFFF DUP3 AND SWAP1 POP SWAP2 SWAP1 POP JUMP JUMPDEST PUSH2 0x160 DUP2 PUSH2 0x144 JUMP JUMPDEST DUP2 EQ PUSH2 0x16A JUMPI PUSH0 DUP1 REVERT JUMPDEST POP JUMP JUMPDEST PUSH0 DUP2 MLOAD SWAP1 POP PUSH2 0x17B DUP2 PUSH2 0x157 JUMP JUMPDEST SWAP3 SWAP2 POP POP JUMP JUMPDEST PUSH0 PUSH20 0xFFFFFFFFFFFFFFFFFFFFFFFFFFFFFFFFFFFFFFFF DUP3 AND SWAP1 POP SWAP2 SWAP1 POP JUMP JUMPDEST PUSH0 PUSH2 0x1AA DUP3 PUSH2 0x181 JUMP JUMPDEST SWAP1 POP SWAP2 SWAP1 POP JUMP JUMPDEST PUSH2 0x1BA DUP2 PUSH2 0x1A0 JUMP JUMPDEST DUP2 EQ PUSH2 0x1C4 JUMPI PUSH0 DUP1 REVERT JUMPDEST POP JUMP JUMPDEST PUSH0 DUP2 MLOAD SWAP1 POP PUSH2 0x1D5 DUP2 PUSH2 0x1B1 JUMP JUMPDEST SWAP3 SWAP2 POP POP JUMP JUMPDEST PUSH0 DUP2 SWAP1 POP SWAP2 SWAP1 POP JUMP JUMPDEST PUSH2 0x1ED DUP2 PUSH2 0x1DB JUMP JUMPDEST DUP2 EQ PUSH2 0x1F7 JUMPI PUSH0 DUP1 REVERT JUMPDEST POP JUMP JUMPDEST PUSH0 DUP2 MLOAD SWAP1 POP PUSH2 0x208 DUP2 PUSH2 0x1E4 JUMP JUMPDEST SWAP3 SWAP2 POP POP JUMP JUMPDEST PUSH0 DUP1 PUSH0 PUSH1 0x60 DUP5 DUP7 SUB SLT ISZERO PUSH2 0x225 JUMPI PUSH2 0x224 PUSH2 0x140 JUMP JUMPDEST JUMPDEST PUSH0 PUSH2 0x232 DUP7 DUP3 DUP8 ADD PUSH2 0x16D JUMP JUMPDEST SWAP4 POP POP PUSH1 0x20 PUSH2 0x243 DUP7 DUP3 DUP8 ADD PUSH2 0x1C7 JUMP JUMPDEST SWAP3 POP POP PUSH1 0x40 PUSH2 0x254 DUP7 DUP3 DUP8 ADD PUSH2 0x1FA JUMP JUMPDEST SWAP2 POP POP SWAP3 POP SWAP3 POP SWAP3 JUMP JUMPDEST PUSH1 0x80 MLOAD PUSH2 0xFA1 PUSH2 0x27D PUSH0 CODECOPY PUSH0 DUP2 DUP2 PUSH2 0x1A3 ADD MSTORE PUSH2 0x1F7 ADD MSTORE PUSH2 0xFA1 PUSH0 RETURN INVALID PUSH1 0x80 PUSH1 0x40 MSTORE CALLVALUE DUP1 ISZERO PUSH2 0xF JUMPI PUSH0 DUP1 REVERT JUMPDEST POP PUSH1 0x4 CALLDATASIZE LT PUSH2 0x91 JUMPI PUSH0 CALLDATALOAD PUSH1 0xE0 SHR DUP1 PUSH4 0x8AC00021 GT PUSH2 0x64 JUMPI DUP1 PUSH4 0x8AC00021 EQ PUSH2 0x10B JUMPI DUP1 PUSH4 0xB0FB162F EQ PUSH2 0x129 JUMPI DUP1 PUSH4 0xBAFCD678 EQ PUSH2 0x147 JUMPI DUP1 PUSH4 0xE89E106A EQ PUSH2 0x165 JUMPI DUP1 PUSH4 0xFE74A3D6 EQ PUSH2 0x183 JUMPI PUSH2 0x91 JUMP JUMPDEST DUP1 PUSH4 0x1FE543E3 EQ PUSH2 0x95 JUMPI DUP1 PUSH4 0x24F74697 EQ PUSH2 0xB1 JUMPI DUP1 PUSH4 0x61728F39 EQ PUSH2 0xCF JUMPI DUP1 PUSH4 0x7CCFD7FC EQ PUSH2 0xED JUMPI JUMPDEST PUSH0 DUP1 REVERT JUMPDEST PUSH2 0xAF PUSH1 0x4 DUP1 CALLDATASIZE SUB DUP2 ADD SWAP1 PUSH2 0xAA SWAP2 SWAP1 PUSH2 0x8BB JUMP JUMPDEST PUSH2 0x1A1 JUMP JUMPDEST STOP JUMPDEST PUSH2 0xB9 PUSH2 0x261 JUMP JUMPDEST PUSH1 0x40 MLOAD PUSH2 0xC6 SWAP2 SWAP1 PUSH2 0x933 JUMP JUMPDEST PUSH1 0x40 MLOAD DUP1 SWAP2 SUB SWAP1 RETURN JUMPDEST PUSH2 0xD7 PUSH2 0x276 JUMP JUMPDEST PUSH1 0x40 MLOAD PUSH2 0xE4 SWAP2 SWAP1 PUSH2 0x964 JUMP JUMPDEST PUSH1 0x40 MLOAD DUP1 SWAP2 SUB SWAP1 RETURN JUMPDEST PUSH2 0xF5 PUSH2 0x27C JUMP JUMPDEST PUSH1 0x40 MLOAD PUSH2 0x102 SWAP2 SWAP1 PUSH2 0x933 JUMP JUMPDEST PUSH1 0x40 MLOAD DUP1 SWAP2 SUB SWAP1 RETURN JUMPDEST PUSH2 0x113 PUSH2 0x292 JUMP JUMPDEST PUSH1 0x40 MLOAD PUSH2 0x120 SWAP2 SWAP1 PUSH2 0x99F JUMP JUMPDEST PUSH1 0x40 MLOAD DUP1 SWAP2 SUB SWAP1 RETURN JUMPDEST PUSH2 0x131 PUSH2 0x2AB JUMP JUMPDEST PUSH1 0x40 MLOAD PUSH2 0x13E SWAP2 SWAP1 PUSH2 0x9D4 JUMP JUMPDEST PUSH1 0x40 MLOAD DUP1 SWAP2 SUB SWAP1 RETURN JUMPDEST PUSH2 0x14F PUSH2 0x2BF JUMP JUMPDEST PUSH1 0x40 MLOAD PUSH2 0x15C SWAP2 SWAP1 PUSH2 0xA4D JUMP JUMPDEST PUSH1 0x40 MLOAD DUP1 SWAP2 SUB SWAP1 RETURN JUMPDEST PUSH2 0x16D PUSH2 0x34B JUMP JUMPDEST PUSH1 0x40 MLOAD PUSH2 0x17A SWAP2 SWAP1 PUSH2 0xA7C JUMP JUMPDEST PUSH1 0x40 MLOAD DUP1 SWAP2 SUB SWAP1 RETURN JUMPDEST PUSH2 0x18B PUSH2 0x351 JUMP JUMPDEST PUSH1 0x40 MLOAD PUSH2 0x198 SWAP2 SWAP1 PUSH2 0xA7C JUMP JUMPDEST PUSH1 0x40 MLOAD DUP1 SWAP2 SUB SWAP1 RETURN JUMPDEST PUSH32 0x0 PUSH20 0xFFFFFFFFFFFFFFFFFFFFFFFFFFFFFFFFFFFFFFFF AND CALLER PUSH20 0xFFFFFFFFFFFFFFFFFFFFFFFFFFFFFFFFFFFFFFFF AND EQ PUSH2 0x253 JUMPI CALLER PUSH32 0x0 PUSH1 0x40 MLOAD PUSH32 0x1CF993F400000000000000000000000000000000000000000000000000000000 DUP2 MSTORE PUSH1 0x4 ADD PUSH2 0x24A SWAP3 SWAP2 SWAP1 PUSH2 0xAD4 JUMP JUMPDEST PUSH1 0x40 MLOAD DUP1 SWAP2 SUB SWAP1 REVERT JUMPDEST PUSH2 0x25D DUP3 DUP3 PUSH2 0x480 JUMP JUMPDEST POP POP JUMP JUMPDEST PUSH1 0x2 PUSH0 SWAP1 SLOAD SWAP1 PUSH2 0x100 EXP SWAP1 DIV PUSH4 0xFFFFFFFF AND DUP2 JUMP JUMPDEST PUSH1 0x1 SLOAD DUP2 JUMP JUMPDEST PUSH1 0x2 PUSH1 0x6 SWAP1 SLOAD SWAP1 PUSH2 0x100 EXP SWAP1 DIV PUSH4 0xFFFFFFFF AND DUP2 JUMP JUMPDEST PUSH0 PUSH1 0x14 SWAP1 SLOAD SWAP1 PUSH2 0x100 EXP SWAP1 DIV PUSH8 0xFFFFFFFFFFFFFFFF AND DUP2 JUMP JUMPDEST PUSH1 0x2 PUSH1 0x4 SWAP1 SLOAD SWAP1 PUSH2 0x100 EXP SWAP1 DIV PUSH2 0xFFFF AND DUP2 JUMP JUMPDEST PUSH1 0x4 DUP1 SLOAD PUSH2 0x2CC SWAP1 PUSH2 0xB28 JUMP JUMPDEST DUP1 PUSH1 0x1F ADD PUSH1 0x20 DUP1 SWAP2 DIV MUL PUSH1 0x20 ADD PUSH1 0x40 MLOAD SWAP1 DUP2 ADD PUSH1 0x40 MSTORE DUP1 SWAP3 SWAP2 SWAP1 DUP2 DUP2 MSTORE PUSH1 0x20 ADD DUP3 DUP1 SLOAD PUSH2 0x2F8 SWAP1 PUSH2 0xB28 JUMP JUMPDEST DUP1 ISZERO PUSH2 0x343 JUMPI DUP1 PUSH1 0x1F LT PUSH2 0x31A JUMPI PUSH2 0x100 DUP1 DUP4 SLOAD DIV MUL DUP4 MSTORE SWAP2 PUSH1 0x20 ADD SWAP2 PUSH2 0x343 JUMP JUMPDEST DUP3 ADD SWAP2 SWAP1 PUSH0 MSTORE PUSH1 0x20 PUSH0 KECCAK256 SWAP1 JUMPDEST DUP2 SLOAD DUP2 MSTORE SWAP1 PUSH1 0x1 ADD SWAP1 PUSH1 0x20 ADD DUP1 DUP4 GT PUSH2 0x326 JUMPI DUP3 SWAP1 SUB PUSH1 0x1F AND DUP3 ADD SWAP2 JUMPDEST POP POP POP POP POP DUP2 JUMP JUMPDEST PUSH1 0x3 SLOAD DUP2 JUMP JUMPDEST PUSH0 DUP1 PUSH0 SWAP1 SLOAD SWAP1 PUSH2 0x100 EXP SWAP1 DIV PUSH20 0xFFFFFFFFFFFFFFFFFFFFFFFFFFFFFFFFFFFFFFFF AND PUSH20 0xFFFFFFFFFFFFFFFFFFFFFFFFFFFFFFFFFFFFFFFF AND PUSH4 0x5D3B1D30 PUSH1 0x1 SLOAD PUSH0 PUSH1 0x14 SWAP1 SLOAD SWAP1 PUSH2 0x100 EXP SWAP1 DIV PUSH8 0xFFFFFFFFFFFFFFFF AND PUSH1 0x2 PUSH1 0x4 SWAP1 SLOAD SWAP1 PUSH2 0x100 EXP SWAP1 DIV PUSH2 0xFFFF AND PUSH1 0x2 PUSH0 SWAP1 SLOAD SWAP1 PUSH2 0x100 EXP SWAP1 DIV PUSH4 0xFFFFFFFF AND PUSH1 0x2 PUSH1 0x6 SWAP1 SLOAD SWAP1 PUSH2 0x100 EXP SWAP1 DIV PUSH4 0xFFFFFFFF AND PUSH1 0x40 MLOAD DUP7 PUSH4 0xFFFFFFFF AND PUSH1 0xE0 SHL DUP2 MSTORE PUSH1 0x4 ADD PUSH2 0x3FD SWAP6 SWAP5 SWAP4 SWAP3 SWAP2 SWAP1 PUSH2 0xB58 JUMP JUMPDEST PUSH1 0x20 PUSH1 0x40 MLOAD DUP1 DUP4 SUB DUP2 PUSH0 DUP8 GAS CALL ISZERO DUP1 ISZERO PUSH2 0x419 JUMPI RETURNDATASIZE PUSH0 DUP1 RETURNDATACOPY RETURNDATASIZE PUSH0 REVERT JUMPDEST POP POP POP POP PUSH1 0x40 MLOAD RETURNDATASIZE PUSH1 0x1F NOT PUSH1 0x1F DUP3 ADD AND DUP3 ADD DUP1 PUSH1 0x40 MSTORE POP DUP2 ADD SWAP1 PUSH2 0x43D SWAP2 SWAP1 PUSH2 0xBBD JUMP JUMPDEST SWAP1 POP DUP1 PUSH1 0x3 DUP2 SWAP1 SSTORE POP PUSH32 0x550DBBBA152A31B0009600E7DA858FA5C8DB4A89C6D0236E123D60DB309246C9 DUP2 PUSH1 0x40 MLOAD PUSH2 0x475 SWAP2 SWAP1 PUSH2 0xA7C JUMP JUMPDEST PUSH1 0x40 MLOAD DUP1 SWAP2 SUB SWAP1 LOG1 SWAP1 JUMP JUMPDEST PUSH2 0x4A3 DUP2 PUSH0 DUP2 MLOAD DUP2 LT PUSH2 0x496 JUMPI PUSH2 0x495 PUSH2 0xBE8 JUMP JUMPDEST JUMPDEST PUSH1 0x20 MUL PUSH1 0x20 ADD ADD MLOAD PUSH2 0x50C JUMP JUMPDEST PUSH1 0x4 SWAP1 DUP2 PUSH2 0x4B1 SWAP2 SWAP1 PUSH2 0xDB2 JUMP JUMPDEST POP PUSH32 0x285834CA2F8FC399A55FB5E10478778DB3A4D8A6561F8D1016B30F519779509F DUP3 DUP3 PUSH0 DUP2 MLOAD DUP2 LT PUSH2 0x4E7 JUMPI PUSH2 0x4E6 PUSH2 0xBE8 JUMP JUMPDEST JUMPDEST PUSH1 0x20 MUL PUSH1 0x20 ADD ADD MLOAD PUSH1 0x4 PUSH1 0x40 MLOAD PUSH2 0x500 SWAP4 SWAP3 SWAP2 SWAP1 PUSH2 0xF02 JUMP JUMPDEST PUSH1 0x40 MLOAD DUP1 SWAP2 SUB SWAP1 LOG1 POP POP JUMP JUMPDEST PUSH1 0x60 PUSH0 PUSH1 0x1 PUSH2 0x51A DUP5 PUSH2 0x5D6 JUMP JUMPDEST ADD SWAP1 POP PUSH0 DUP2 PUSH8 0xFFFFFFFFFFFFFFFF DUP2 GT ISZERO PUSH2 0x538 JUMPI PUSH2 0x537 PUSH2 0x77F JUMP JUMPDEST JUMPDEST PUSH1 0x40 MLOAD SWAP1 DUP1 DUP3 MSTORE DUP1 PUSH1 0x1F ADD PUSH1 0x1F NOT AND PUSH1 0x20 ADD DUP3 ADD PUSH1 0x40 MSTORE DUP1 ISZERO PUSH2 0x56A JUMPI DUP2 PUSH1 0x20 ADD PUSH1 0x1 DUP3 MUL DUP1 CALLDATASIZE DUP4 CALLDATACOPY DUP1 DUP3 ADD SWAP2 POP POP SWAP1 POP JUMPDEST POP SWAP1 POP PUSH0 DUP3 PUSH1 0x20 ADD DUP3 ADD SWAP1 POP JUMPDEST PUSH1 0x1 ISZERO PUSH2 0x5CB JUMPI DUP1 DUP1 PUSH1 0x1 SWAP1 SUB SWAP2 POP POP PUSH32 0x3031323334353637383961626364656600000000000000000000000000000000 PUSH1 0xA DUP7 MOD BYTE DUP2 MSTORE8 PUSH1 0xA DUP6 DUP2 PUSH2 0x5C0 JUMPI PUSH2 0x5BF PUSH2 0xF3E JUMP JUMPDEST JUMPDEST DIV SWAP5 POP PUSH0 DUP6 SUB PUSH2 0x577 JUMPI JUMPDEST DUP2 SWAP4 POP POP POP POP SWAP2 SWAP1 POP JUMP JUMPDEST PUSH0 DUP1 PUSH0 SWAP1 POP PUSH27 0x184F03E93FF9F4DAA797ED6E38ED64BF6A1F010000000000000000 DUP4 LT PUSH2 0x632 JUMPI PUSH27 0x184F03E93FF9F4DAA797ED6E38ED64BF6A1F010000000000000000 DUP4 DUP2 PUSH2 0x628 JUMPI PUSH2 0x627 PUSH2 0xF3E JUMP JUMPDEST JUMPDEST DIV SWAP3 POP PUSH1 0x40 DUP2 ADD SWAP1 POP JUMPDEST PUSH14 0x4EE2D6D415B85ACEF8100000000 DUP4 LT PUSH2 0x66F JUMPI PUSH14 0x4EE2D6D415B85ACEF8100000000 DUP4 DUP2 PUSH2 0x665 JUMPI PUSH2 0x664 PUSH2 0xF3E JUMP JUMPDEST JUMPDEST DIV SWAP3 POP PUSH1 0x20 DUP2 ADD SWAP1 POP JUMPDEST PUSH7 0x2386F26FC10000 DUP4 LT PUSH2 0x69E JUMPI PUSH7 0x2386F26FC10000 DUP4 DUP2 PUSH2 0x694 JUMPI PUSH2 0x693 PUSH2 0xF3E JUMP JUMPDEST JUMPDEST DIV SWAP3 POP PUSH1 0x10 DUP2 ADD SWAP1 POP JUMPDEST PUSH4 0x5F5E100 DUP4 LT PUSH2 0x6C7 JUMPI PUSH4 0x5F5E100 DUP4 DUP2 PUSH2 0x6BD JUMPI PUSH2 0x6BC PUSH2 0xF3E JUMP JUMPDEST JUMPDEST DIV SWAP3 POP PUSH1 0x8 DUP2 ADD SWAP1 POP JUMPDEST PUSH2 0x2710 DUP4 LT PUSH2 0x6EC JUMPI PUSH2 0x2710 DUP4 DUP2 PUSH2 0x6E2 JUMPI PUSH2 0x6E1 PUSH2 0xF3E JUMP JUMPDEST JUMPDEST DIV SWAP3 POP PUSH1 0x4 DUP2 ADD SWAP1 POP JUMPDEST PUSH1 0x64 DUP4 LT PUSH2 0x70F JUMPI PUSH1 0x64 DUP4 DUP2 PUSH2 0x705 JUMPI PUSH2 0x704 PUSH2 0xF3E JUMP JUMPDEST JUMPDEST DIV SWAP3 POP PUSH1 0x2 DUP2 ADD SWAP1 POP JUMPDEST PUSH1 0xA DUP4 LT PUSH2 0x71E JUMPI PUSH1 0x1 DUP2 ADD SWAP1 POP JUMPDEST DUP1 SWAP2 POP POP SWAP2 SWAP1 POP JUMP JUMPDEST PUSH0 PUSH1 0x40 MLOAD SWAP1 POP SWAP1 JUMP JUMPDEST PUSH0 DUP1 REVERT JUMPDEST PUSH0 DUP1 REVERT JUMPDEST PUSH0 DUP2 SWAP1 POP SWAP2 SWAP1 POP JUMP JUMPDEST PUSH2 0x74A DUP2 PUSH2 0x738 JUMP JUMPDEST DUP2 EQ PUSH2 0x754 JUMPI PUSH0 DUP1 REVERT JUMPDEST POP JUMP JUMPDEST PUSH0 DUP2 CALLDATALOAD SWAP1 POP PUSH2 0x765 DUP2 PUSH2 0x741 JUMP JUMPDEST SWAP3 SWAP2 POP POP JUMP JUMPDEST PUSH0 DUP1 REVERT JUMPDEST PUSH0 PUSH1 0x1F NOT PUSH1 0x1F DUP4 ADD AND SWAP1 POP SWAP2 SWAP1 POP JUMP JUMPDEST PUSH32 0x4E487B7100000000000000000000000000000000000000000000000000000000 PUSH0 MSTORE PUSH1 0x41 PUSH1 0x4 MSTORE PUSH1 0x24 PUSH0 REVERT JUMPDEST PUSH2 0x7B5 DUP3 PUSH2 0x76F JUMP JUMPDEST DUP2 ADD DUP2 DUP2 LT PUSH8 0xFFFFFFFFFFFFFFFF DUP3 GT OR ISZERO PUSH2 0x7D4 JUMPI PUSH2 0x7D3 PUSH2 0x77F JUMP JUMPDEST JUMPDEST DUP1 PUSH1 0x40 MSTORE POP POP POP JUMP JUMPDEST PUSH0 PUSH2 0x7E6 PUSH2 0x727 JUMP JUMPDEST SWAP1 POP PUSH2 0x7F2 DUP3 DUP3 PUSH2 0x7AC JUMP JUMPDEST SWAP2 SWAP1 POP JUMP JUMPDEST PUSH0 PUSH8 0xFFFFFFFFFFFFFFFF DUP3 GT ISZERO PUSH2 0x811 JUMPI PUSH2 0x810 PUSH2 0x77F JUMP JUMPDEST JUMPDEST PUSH1 0x20 DUP3 MUL SWAP1 POP PUSH1 0x20 DUP2 ADD SWAP1 POP SWAP2 SWAP1 POP JUMP JUMPDEST PUSH0 DUP1 REVERT JUMPDEST PUSH0 PUSH2 0x838 PUSH2 0x833 DUP5 PUSH2 0x7F7 JUMP JUMPDEST PUSH2 0x7DD JUMP JUMPDEST SWAP1 POP DUP1 DUP4 DUP3 MSTORE PUSH1 0x20 DUP3 ADD SWAP1 POP PUSH1 0x20 DUP5 MUL DUP4 ADD DUP6 DUP2 GT ISZERO PUSH2 0x85B JUMPI PUSH2 0x85A PUSH2 0x822 JUMP JUMPDEST JUMPDEST DUP4 JUMPDEST DUP2 DUP2 LT ISZERO PUSH2 0x884 JUMPI DUP1 PUSH2 0x870 DUP9 DUP3 PUSH2 0x757 JUMP JUMPDEST DUP5 MSTORE PUSH1 0x20 DUP5 ADD SWAP4 POP POP PUSH1 0x20 DUP2 ADD SWAP1 POP PUSH2 0x85D JUMP JUMPDEST POP POP POP SWAP4 SWAP3 POP POP POP JUMP JUMPDEST PUSH0 DUP3 PUSH1 0x1F DUP4 ADD SLT PUSH2 0x8A2 JUMPI PUSH2 0x8A1 PUSH2 0x76B JUMP JUMPDEST JUMPDEST DUP2 CALLDATALOAD PUSH2 0x8B2 DUP5 DUP3 PUSH1 0x20 DUP7 ADD PUSH2 0x826 JUMP JUMPDEST SWAP2 POP POP SWAP3 SWAP2 POP POP JUMP JUMPDEST PUSH0 DUP1 PUSH1 0x40 DUP4 DUP6 SUB SLT ISZERO PUSH2 0x8D1 JUMPI PUSH2 0x8D0 PUSH2 0x730 JUMP JUMPDEST JUMPDEST PUSH0 PUSH2 0x8DE DUP6 DUP3 DUP7 ADD PUSH2 0x757 JUMP JUMPDEST SWAP3 POP POP PUSH1 0x20 DUP4 ADD CALLDATALOAD PUSH8 0xFFFFFFFFFFFFFFFF DUP2 GT ISZERO PUSH2 0x8FF JUMPI PUSH2 0x8FE PUSH2 0x734 JUMP JUMPDEST JUMPDEST PUSH2 0x90B DUP6 DUP3 DUP7 ADD PUSH2 0x88E JUMP JUMPDEST SWAP2 POP POP SWAP3 POP SWAP3 SWAP1 POP JUMP JUMPDEST PUSH0 PUSH4 0xFFFFFFFF DUP3 AND SWAP1 POP SWAP2 SWAP1 POP JUMP JUMPDEST PUSH2 0x92D DUP2 PUSH2 0x915 JUMP JUMPDEST DUP3 MSTORE POP POP JUMP JUMPDEST PUSH0 PUSH1 0x20 DUP3 ADD SWAP1 POP PUSH2 0x946 PUSH0 DUP4 ADD DUP5 PUSH2 0x924 JUMP JUMPDEST SWAP3 SWAP2 POP POP JUMP JUMPDEST PUSH0 DUP2 SWAP1 POP SWAP2 SWAP1 POP JUMP JUMPDEST PUSH2 0x95E DUP2 PUSH2 0x94C JUMP JUMPDEST DUP3 MSTORE POP POP JUMP JUMPDEST PUSH0 PUSH1 0x20 DUP3 ADD SWAP1 POP PUSH2 0x977 PUSH0 DUP4 ADD DUP5 PUSH2 0x955 JUMP JUMPDEST SWAP3 SWAP2 POP POP JUMP JUMPDEST PUSH0 PUSH8 0xFFFFFFFFFFFFFFFF DUP3 AND SWAP1 POP SWAP2 SWAP1 POP JUMP JUMPDEST PUSH2 0x999 DUP2 PUSH2 0x97D JUMP JUMPDEST DUP3 MSTORE POP POP JUMP JUMPDEST PUSH0 PUSH1 0x20 DUP3 ADD SWAP1 POP PUSH2 0x9B2 PUSH0 DUP4 ADD DUP5 PUSH2 0x990 JUMP JUMPDEST SWAP3 SWAP2 POP POP JUMP JUMPDEST PUSH0 PUSH2 0xFFFF DUP3 AND SWAP1 POP SWAP2 SWAP1 POP JUMP JUMPDEST PUSH2 0x9CE DUP2 PUSH2 0x9B8 JUMP JUMPDEST DUP3 MSTORE POP POP JUMP JUMPDEST PUSH0 PUSH1 0x20 DUP3 ADD SWAP1 POP PUSH2 0x9E7 PUSH0 DUP4 ADD DUP5 PUSH2 0x9C5 JUMP JUMPDEST SWAP3 SWAP2 POP POP JUMP JUMPDEST PUSH0 DUP2 MLOAD SWAP1 POP SWAP2 SWAP1 POP JUMP JUMPDEST PUSH0 DUP3 DUP3 MSTORE PUSH1 0x20 DUP3 ADD SWAP1 POP SWAP3 SWAP2 POP POP JUMP JUMPDEST DUP3 DUP2 DUP4 MCOPY PUSH0 DUP4 DUP4 ADD MSTORE POP POP POP JUMP JUMPDEST PUSH0 PUSH2 0xA1F DUP3 PUSH2 0x9ED JUMP JUMPDEST PUSH2 0xA29 DUP2 DUP6 PUSH2 0x9F7 JUMP JUMPDEST SWAP4 POP PUSH2 0xA39 DUP2 DUP6 PUSH1 0x20 DUP7 ADD PUSH2 0xA07 JUMP JUMPDEST PUSH2 0xA42 DUP2 PUSH2 0x76F JUMP JUMPDEST DUP5 ADD SWAP2 POP POP SWAP3 SWAP2 POP POP JUMP JUMPDEST PUSH0 PUSH1 0x20 DUP3 ADD SWAP1 POP DUP2 DUP2 SUB PUSH0 DUP4 ADD MSTORE PUSH2 0xA65 DUP2 DUP5 PUSH2 0xA15 JUMP JUMPDEST SWAP1 POP SWAP3 SWAP2 POP POP JUMP JUMPDEST PUSH2 0xA76 DUP2 PUSH2 0x738 JUMP JUMPDEST DUP3 MSTORE POP POP JUMP JUMPDEST PUSH0 PUSH1 0x20 DUP3 ADD SWAP1 POP PUSH2 0xA8F PUSH0 DUP4 ADD DUP5 PUSH2 0xA6D JUMP JUMPDEST SWAP3 SWAP2 POP POP JUMP JUMPDEST PUSH0 PUSH20 0xFFFFFFFFFFFFFFFFFFFFFFFFFFFFFFFFFFFFFFFF DUP3 AND SWAP1 POP SWAP2 SWAP1 POP JUMP JUMPDEST PUSH0 PUSH2 0xABE DUP3 PUSH2 0xA95 JUMP JUMPDEST SWAP1 POP SWAP2 SWAP1 POP JUMP JUMPDEST PUSH2 0xACE DUP2 PUSH2 0xAB4 JUMP JUMPDEST DUP3 MSTORE POP POP JUMP JUMPDEST PUSH0 PUSH1 0x40 DUP3 ADD SWAP1 POP PUSH2 0xAE7 PUSH0 DUP4 ADD DUP6 PUSH2 0xAC5 JUMP JUMPDEST PUSH2 0xAF4 PUSH1 0x20 DUP4 ADD DUP5 PUSH2 0xAC5 JUMP JUMPDEST SWAP4 SWAP3 POP POP POP JUMP JUMPDEST PUSH32 0x4E487B7100000000000000000000000000000000000000000000000000000000 PUSH0 MSTORE PUSH1 0x22 PUSH1 0x4 MSTORE PUSH1 0x24 PUSH0 REVERT JUMPDEST PUSH0 PUSH1 0x2 DUP3 DIV SWAP1 POP PUSH1 0x1 DUP3 AND DUP1 PUSH2 0xB3F JUMPI PUSH1 0x7F DUP3 AND SWAP2 POP JUMPDEST PUSH1 0x20 DUP3 LT DUP2 SUB PUSH2 0xB52 JUMPI PUSH2 0xB51 PUSH2 0xAFB JUMP JUMPDEST JUMPDEST POP SWAP2 SWAP1 POP JUMP JUMPDEST PUSH0 PUSH1 0xA0 DUP3 ADD SWAP1 POP PUSH2 0xB6B PUSH0 DUP4 ADD DUP9 PUSH2 0x955 JUMP JUMPDEST PUSH2 0xB78 PUSH1 0x20 DUP4 ADD DUP8 PUSH2 0x990 JUMP JUMPDEST PUSH2 0xB85 PUSH1 0x40 DUP4 ADD DUP7 PUSH2 0x9C5 JUMP JUMPDEST PUSH2 0xB92 PUSH1 0x60 DUP4 ADD DUP6 PUSH2 0x924 JUMP JUMPDEST PUSH2 0xB9F PUSH1 0x80 DUP4 ADD DUP5 PUSH2 0x924 JUMP JUMPDEST SWAP7 SWAP6 POP POP POP POP POP POP JUMP JUMPDEST PUSH0 DUP2 MLOAD SWAP1 POP PUSH2 0xBB7 DUP2 PUSH2 0x741 JUMP JUMPDEST SWAP3 SWAP2 POP POP JUMP JUMPDEST PUSH0 PUSH1 0x20 DUP3 DUP5 SUB SLT ISZERO PUSH2 0xBD2 JUMPI PUSH2 0xBD1 PUSH2 0x730 JUMP JUMPDEST JUMPDEST PUSH0 PUSH2 0xBDF DUP5 DUP3 DUP6 ADD PUSH2 0xBA9 JUMP JUMPDEST SWAP2 POP POP SWAP3 SWAP2 POP POP JUMP JUMPDEST PUSH32 0x4E487B7100000000000000000000000000000000000000000000000000000000 PUSH0 MSTORE PUSH1 0x32 PUSH1 0x4 MSTORE PUSH1 0x24 PUSH0 REVERT JUMPDEST PUSH0 DUP2 SWAP1 POP DUP2 PUSH0 MSTORE PUSH1 0x20 PUSH0 KECCAK256 SWAP1 POP SWAP2 SWAP1 POP JUMP JUMPDEST PUSH0 PUSH1 0x20 PUSH1 0x1F DUP4 ADD DIV SWAP1 POP SWAP2 SWAP1 POP JUMP JUMPDEST PUSH0 DUP3 DUP3 SHL SWAP1 POP SWAP3 SWAP2 POP POP JUMP JUMPDEST PUSH0 PUSH1 0x8 DUP4 MUL PUSH2 0xC71 PUSH32 0xFFFFFFFFFFFFFFFFFFFFFFFFFFFFFFFFFFFFFFFFFFFFFFFFFFFFFFFFFFFFFFFF DUP3 PUSH2 0xC36 JUMP JUMPDEST PUSH2 0xC7B DUP7 DUP4 PUSH2 0xC36 JUMP JUMPDEST SWAP6 POP DUP1 NOT DUP5 AND SWAP4 POP DUP1 DUP7 AND DUP5 OR SWAP3 POP POP POP SWAP4 SWAP3 POP POP POP JUMP JUMPDEST PUSH0 DUP2 SWAP1 POP SWAP2 SWAP1 POP JUMP JUMPDEST PUSH0 PUSH2 0xCB6 PUSH2 0xCB1 PUSH2 0xCAC DUP5 PUSH2 0x738 JUMP JUMPDEST PUSH2 0xC93 JUMP JUMPDEST PUSH2 0x738 JUMP JUMPDEST SWAP1 POP SWAP2 SWAP1 POP JUMP JUMPDEST PUSH0 DUP2 SWAP1 POP SWAP2 SWAP1 POP JUMP JUMPDEST PUSH2 0xCCF DUP4 PUSH2 0xC9C JUMP JUMPDEST PUSH2 0xCE3 PUSH2 0xCDB DUP3 PUSH2 0xCBD JUMP JUMPDEST DUP5 DUP5 SLOAD PUSH2 0xC42 JUMP JUMPDEST DUP3 SSTORE POP POP POP POP JUMP JUMPDEST PUSH0 SWAP1 JUMP JUMPDEST PUSH2 0xCF7 PUSH2 0xCEB JUMP JUMPDEST PUSH2 0xD02 DUP2 DUP5 DUP5 PUSH2 0xCC6 JUMP JUMPDEST POP POP POP JUMP JUMPDEST JUMPDEST DUP2 DUP2 LT ISZERO PUSH2 0xD25 JUMPI PUSH2 0xD1A PUSH0 DUP3 PUSH2 0xCEF JUMP JUMPDEST PUSH1 0x1 DUP2 ADD SWAP1 POP PUSH2 0xD08 JUMP JUMPDEST POP POP JUMP JUMPDEST PUSH1 0x1F DUP3 GT ISZERO PUSH2 0xD6A JUMPI PUSH2 0xD3B DUP2 PUSH2 0xC15 JUMP JUMPDEST PUSH2 0xD44 DUP5 PUSH2 0xC27 JUMP JUMPDEST DUP2 ADD PUSH1 0x20 DUP6 LT ISZERO PUSH2 0xD53 JUMPI DUP2 SWAP1 POP JUMPDEST PUSH2 0xD67 PUSH2 0xD5F DUP6 PUSH2 0xC27 JUMP JUMPDEST DUP4 ADD DUP3 PUSH2 0xD07 JUMP JUMPDEST POP POP JUMPDEST POP POP POP JUMP JUMPDEST PUSH0 DUP3 DUP3 SHR SWAP1 POP SWAP3 SWAP2 POP POP JUMP JUMPDEST PUSH0 PUSH2 0xD8A PUSH0 NOT DUP5 PUSH1 0x8 MUL PUSH2 0xD6F JUMP JUMPDEST NOT DUP1 DUP4 AND SWAP2 POP POP SWAP3 SWAP2 POP POP JUMP JUMPDEST PUSH0 PUSH2 0xDA2 DUP4 DUP4 PUSH2 0xD7B JUMP JUMPDEST SWAP2 POP DUP3 PUSH1 0x2 MUL DUP3 OR SWAP1 POP SWAP3 SWAP2 POP POP JUMP JUMPDEST PUSH2 0xDBB DUP3 PUSH2 0x9ED JUMP JUMPDEST PUSH8 0xFFFFFFFFFFFFFFFF DUP2 GT ISZERO PUSH2 0xDD4 JUMPI PUSH2 0xDD3 PUSH2 0x77F JUMP JUMPDEST JUMPDEST PUSH2 0xDDE DUP3 SLOAD PUSH2 0xB28 JUMP JUMPDEST PUSH2 0xDE9 DUP3 DUP3 DUP6 PUSH2 0xD29 JUMP JUMPDEST PUSH0 PUSH1 0x20 SWAP1 POP PUSH1 0x1F DUP4 GT PUSH1 0x1 DUP2 EQ PUSH2 0xE1A JUMPI PUSH0 DUP5 ISZERO PUSH2 0xE08 JUMPI DUP3 DUP8 ADD MLOAD SWAP1 POP JUMPDEST PUSH2 0xE12 DUP6 DUP3 PUSH2 0xD97 JUMP JUMPDEST DUP7 SSTORE POP PUSH2 0xE79 JUMP JUMPDEST PUSH1 0x1F NOT DUP5 AND PUSH2 0xE28 DUP7 PUSH2 0xC15 JUMP JUMPDEST PUSH0 JUMPDEST DUP3 DUP2 LT ISZERO PUSH2 0xE4F JUMPI DUP5 DUP10 ADD MLOAD DUP3 SSTORE PUSH1 0x1 DUP3 ADD SWAP2 POP PUSH1 0x20 DUP6 ADD SWAP5 POP PUSH1 0x20 DUP2 ADD SWAP1 POP PUSH2 0xE2A JUMP JUMPDEST DUP7 DUP4 LT ISZERO PUSH2 0xE6C JUMPI DUP5 DUP10 ADD MLOAD PUSH2 0xE68 PUSH1 0x1F DUP10 AND DUP3 PUSH2 0xD7B JUMP JUMPDEST DUP4 SSTORE POP JUMPDEST PUSH1 0x1 PUSH1 0x2 DUP9 MUL ADD DUP9 SSTORE POP POP POP JUMPDEST POP POP POP POP POP POP JUMP JUMPDEST PUSH0 DUP2 SLOAD PUSH2 0xE8D DUP2 PUSH2 0xB28 JUMP JUMPDEST PUSH2 0xE97 DUP2 DUP7 PUSH2 0x9F7 JUMP JUMPDEST SWAP5 POP PUSH1 0x1 DUP3 AND PUSH0 DUP2 EQ PUSH2 0xEB1 JUMPI PUSH1 0x1 DUP2 EQ PUSH2 0xEC7 JUMPI PUSH2 0xEF9 JUMP JUMPDEST PUSH1 0xFF NOT DUP4 AND DUP7 MSTORE DUP2 ISZERO ISZERO PUSH1 0x20 MUL DUP7 ADD SWAP4 POP PUSH2 0xEF9 JUMP JUMPDEST PUSH2 0xED0 DUP6 PUSH2 0xC15 JUMP JUMPDEST PUSH0 JUMPDEST DUP4 DUP2 LT ISZERO PUSH2 0xEF1 JUMPI DUP2 SLOAD DUP2 DUP10 ADD MSTORE PUSH1 0x1 DUP3 ADD SWAP2 POP PUSH1 0x20 DUP2 ADD SWAP1 POP PUSH2 0xED2 JUMP JUMPDEST DUP1 DUP9 ADD SWAP6 POP POP POP JUMPDEST POP POP POP SWAP3 SWAP2 POP POP JUMP JUMPDEST PUSH0 PUSH1 0x60 DUP3 ADD SWAP1 POP PUSH2 0xF15 PUSH0 DUP4 ADD DUP7 PUSH2 0xA6D JUMP JUMPDEST PUSH2 0xF22 PUSH1 0x20 DUP4 ADD DUP6 PUSH2 0xA6D JUMP JUMPDEST DUP2 DUP2 SUB PUSH1 0x40 DUP4 ADD MSTORE PUSH2 0xF34 DUP2 DUP5 PUSH2 0xE81 JUMP JUMPDEST SWAP1 POP SWAP5 SWAP4 POP POP POP POP JUMP JUMPDEST PUSH32 0x4E487B7100000000000000000000000000000000000000000000000000000000 PUSH0 MSTORE PUSH1 0x12 PUSH1 0x4 MSTORE PUSH1 0x24 PUSH0 REVERT INVALID LOG2 PUSH5 0x6970667358 0x22 SLT KECCAK256 XOR 0xE3 PUSH10 0xD774C54550E416DBB370 ADD PUSH5 0x1348F82B96 TLOAD 0xB0 MULMOD 0x1F 0xE5 0xD5 0x1E PC CALLDATALOAD SMOD SWAP5 EXTCODEHASH PUSH5 0x736F6C6343 STOP ADDMOD BYTE STOP CALLER "
				},
				"gasEstimates": {
					"creation": {
						"codeDepositCost": "800200",
						"executionCost": "infinite",
						"totalCost": "infinite"
					},
					"external": {
						"callbackGasLimit()": "2489",
						"keyHash()": "2470",
						"numWords()": "2584",
						"randomString()": "infinite",
						"rawFulfillRandomWords(uint256,uint256[])": "infinite",
						"requestConfirmations()": "2539",
						"requestRandomString()": "infinite",
						"s_requestId()": "2491",
						"s_subscriptionId()": "2516"
					},
					"internal": {
						"fulfillRandomWords(uint256,uint256[] memory)": "infinite"
					}
				},
				"methodIdentifiers": {
					"callbackGasLimit()": "24f74697",
					"keyHash()": "61728f39",
					"numWords()": "7ccfd7fc",
					"randomString()": "bafcd678",
					"rawFulfillRandomWords(uint256,uint256[])": "1fe543e3",
					"requestConfirmations()": "b0fb162f",
					"requestRandomString()": "fe74a3d6",
					"s_requestId()": "e89e106a",
					"s_subscriptionId()": "8ac00021"
				}
			},
			"storageLayout": {
				"storage": [
					{
						"astId": 4933,
						"contract": "contracts/SC_Collection/OnChainStringVRF.sol:OnChainStringVRF",
						"label": "COORDINATOR",
						"offset": 0,
						"slot": "0",
						"type": "t_contract(VRFCoordinatorV2Interface)153"
					},
					{
						"astId": 4935,
						"contract": "contracts/SC_Collection/OnChainStringVRF.sol:OnChainStringVRF",
						"label": "s_subscriptionId",
						"offset": 20,
						"slot": "0",
						"type": "t_uint64"
					},
					{
						"astId": 4937,
						"contract": "contracts/SC_Collection/OnChainStringVRF.sol:OnChainStringVRF",
						"label": "keyHash",
						"offset": 0,
						"slot": "1",
						"type": "t_bytes32"
					},
					{
						"astId": 4940,
						"contract": "contracts/SC_Collection/OnChainStringVRF.sol:OnChainStringVRF",
						"label": "callbackGasLimit",
						"offset": 0,
						"slot": "2",
						"type": "t_uint32"
					},
					{
						"astId": 4943,
						"contract": "contracts/SC_Collection/OnChainStringVRF.sol:OnChainStringVRF",
						"label": "requestConfirmations",
						"offset": 4,
						"slot": "2",
						"type": "t_uint16"
					},
					{
						"astId": 4946,
						"contract": "contracts/SC_Collection/OnChainStringVRF.sol:OnChainStringVRF",
						"label": "numWords",
						"offset": 6,
						"slot": "2",
						"type": "t_uint32"
					},
					{
						"astId": 4948,
						"contract": "contracts/SC_Collection/OnChainStringVRF.sol:OnChainStringVRF",
						"label": "s_requestId",
						"offset": 0,
						"slot": "3",
						"type": "t_uint256"
					},
					{
						"astId": 4950,
						"contract": "contracts/SC_Collection/OnChainStringVRF.sol:OnChainStringVRF",
						"label": "randomString",
						"offset": 0,
						"slot": "4",
						"type": "t_string_storage"
					}
				],
				"types": {
					"t_bytes32": {
						"encoding": "inplace",
						"label": "bytes32",
						"numberOfBytes": "32"
					},
					"t_contract(VRFCoordinatorV2Interface)153": {
						"encoding": "inplace",
						"label": "contract VRFCoordinatorV2Interface",
						"numberOfBytes": "20"
					},
					"t_string_storage": {
						"encoding": "bytes",
						"label": "string",
						"numberOfBytes": "32"
					},
					"t_uint16": {
						"encoding": "inplace",
						"label": "uint16",
						"numberOfBytes": "2"
					},
					"t_uint256": {
						"encoding": "inplace",
						"label": "uint256",
						"numberOfBytes": "32"
					},
					"t_uint32": {
						"encoding": "inplace",
						"label": "uint32",
						"numberOfBytes": "4"
					},
					"t_uint64": {
						"encoding": "inplace",
						"label": "uint64",
						"numberOfBytes": "8"
					}
				}
			},
			"userdoc": {
				"kind": "user",
				"methods": {
					"requestRandomString()": {
						"notice": "Requests a random number; the result is stored as a string."
					}
				},
				"version": 1
			}
		}
	}
}