{
	"contracts/api3/contracts/rrp/TemplateUtilsV0.sol": {
		"TemplateUtilsV0": {
			"abi": [
				{
					"anonymous": false,
					"inputs": [
						{
							"indexed": true,
							"internalType": "bytes32",
							"name": "templateId",
							"type": "bytes32"
						},
						{
							"indexed": false,
							"internalType": "address",
							"name": "airnode",
							"type": "address"
						},
						{
							"indexed": false,
							"internalType": "bytes32",
							"name": "endpointId",
							"type": "bytes32"
						},
						{
							"indexed": false,
							"internalType": "bytes",
							"name": "parameters",
							"type": "bytes"
						}
					],
					"name": "CreatedTemplate",
					"type": "event"
				},
				{
					"inputs": [
						{
							"internalType": "address",
							"name": "airnode",
							"type": "address"
						},
						{
							"internalType": "bytes32",
							"name": "endpointId",
							"type": "bytes32"
						},
						{
							"internalType": "bytes",
							"name": "parameters",
							"type": "bytes"
						}
					],
					"name": "createTemplate",
					"outputs": [
						{
							"internalType": "bytes32",
							"name": "templateId",
							"type": "bytes32"
						}
					],
					"stateMutability": "nonpayable",
					"type": "function"
				},
				{
					"inputs": [
						{
							"internalType": "bytes32[]",
							"name": "templateIds",
							"type": "bytes32[]"
						}
					],
					"name": "getTemplates",
					"outputs": [
						{
							"internalType": "address[]",
							"name": "airnodes",
							"type": "address[]"
						},
						{
							"internalType": "bytes32[]",
							"name": "endpointIds",
							"type": "bytes32[]"
						},
						{
							"internalType": "bytes[]",
							"name": "parameters",
							"type": "bytes[]"
						}
					],
					"stateMutability": "view",
					"type": "function"
				},
				{
					"inputs": [
						{
							"internalType": "bytes32",
							"name": "",
							"type": "bytes32"
						}
					],
					"name": "templates",
					"outputs": [
						{
							"internalType": "address",
							"name": "airnode",
							"type": "address"
						},
						{
							"internalType": "bytes32",
							"name": "endpointId",
							"type": "bytes32"
						},
						{
							"internalType": "bytes",
							"name": "parameters",
							"type": "bytes"
						}
					],
					"stateMutability": "view",
					"type": "function"
				}
			],
			"devdoc": {
				"kind": "dev",
				"methods": {
					"createTemplate(address,bytes32,bytes)": {
						"details": "A specific set of request parameters will always have the same template ID. This means a few things: (1) You can compute the expected ID of a template before creating it, (2) Creating a new template with the same parameters will overwrite the old one and return the same ID, (3) After you query a template with its ID, you can verify its integrity by applying the hash and comparing the result with the ID.",
						"params": {
							"airnode": "Airnode address",
							"endpointId": "Endpoint ID (allowed to be `bytes32(0)`)",
							"parameters": "Static request parameters (i.e., parameters that will not change between requests, unlike the dynamic parameters determined at request-time)"
						},
						"returns": {
							"templateId": "Request template ID"
						}
					},
					"getTemplates(bytes32[])": {
						"details": "Does not revert if the templates being indexed do not exist",
						"params": {
							"templateIds": "Request template IDs"
						},
						"returns": {
							"airnodes": "Array of Airnode addresses",
							"endpointIds": "Array of endpoint IDs",
							"parameters": "Array of request parameters"
						}
					}
				},
				"title": "Contract that implements request templates",
				"version": 1
			},
			"evm": {
				"assembly": "    /* \"contracts/api3/contracts/rrp/TemplateUtilsV0.sol\":157:2995  contract TemplateUtilsV0 is ITemplateUtilsV0 {... */\n  mstore(0x40, 0x80)\n  callvalue\n  dup1\n  iszero\n  tag_1\n  jumpi\n  revert(0x00, 0x00)\ntag_1:\n  pop\n  dataSize(sub_0)\n  dup1\n  dataOffset(sub_0)\n  0x00\n  codecopy\n  0x00\n  return\nstop\n\nsub_0: assembly {\n        /* \"contracts/api3/contracts/rrp/TemplateUtilsV0.sol\":157:2995  contract TemplateUtilsV0 is ITemplateUtilsV0 {... */\n      mstore(0x40, 0x80)\n      callvalue\n      dup1\n      iszero\n      tag_1\n      jumpi\n      revert(0x00, 0x00)\n    tag_1:\n      pop\n      jumpi(tag_2, lt(calldatasize, 0x04))\n      shr(0xe0, calldataload(0x00))\n      dup1\n      0x0a631576\n      eq\n      tag_3\n      jumpi\n      dup1\n      0x32393f2b\n      eq\n      tag_4\n      jumpi\n      dup1\n      0x76428c9b\n      eq\n      tag_5\n      jumpi\n    tag_2:\n      revert(0x00, 0x00)\n        /* \"contracts/api3/contracts/rrp/TemplateUtilsV0.sol\":357:411  mapping(bytes32 => Template) public override templates */\n    tag_3:\n      tag_6\n      0x04\n      dup1\n      calldatasize\n      sub\n      dup2\n      add\n      swap1\n      tag_7\n      swap2\n      swap1\n      tag_8\n      jump\t// in\n    tag_7:\n      tag_9\n      jump\t// in\n    tag_6:\n      mload(0x40)\n      tag_10\n      swap4\n      swap3\n      swap2\n      swap1\n      tag_11\n      jump\t// in\n    tag_10:\n      mload(0x40)\n      dup1\n      swap2\n      sub\n      swap1\n      return\n        /* \"contracts/api3/contracts/rrp/TemplateUtilsV0.sol\":1325:1897  function createTemplate(... */\n    tag_4:\n      tag_12\n      0x04\n      dup1\n      calldatasize\n      sub\n      dup2\n      add\n      swap1\n      tag_13\n      swap2\n      swap1\n      tag_14\n      jump\t// in\n    tag_13:\n      tag_15\n      jump\t// in\n    tag_12:\n      mload(0x40)\n      tag_16\n      swap2\n      swap1\n      tag_17\n      jump\t// in\n    tag_16:\n      mload(0x40)\n      dup1\n      swap2\n      sub\n      swap1\n      return\n        /* \"contracts/api3/contracts/rrp/TemplateUtilsV0.sol\":2276:2993  function getTemplates(bytes32[] calldata templateIds)... */\n    tag_5:\n      tag_18\n      0x04\n      dup1\n      calldatasize\n      sub\n      dup2\n      add\n      swap1\n      tag_19\n      swap2\n      swap1\n      tag_20\n      jump\t// in\n    tag_19:\n      tag_21\n      jump\t// in\n    tag_18:\n      mload(0x40)\n      tag_22\n      swap4\n      swap3\n      swap2\n      swap1\n      tag_23\n      jump\t// in\n    tag_22:\n      mload(0x40)\n      dup1\n      swap2\n      sub\n      swap1\n      return\n        /* \"contracts/api3/contracts/rrp/TemplateUtilsV0.sol\":357:411  mapping(bytes32 => Template) public override templates */\n    tag_9:\n      mstore(0x20, 0x00)\n      dup1\n      0x00\n      mstore\n      keccak256(0x00, 0x40)\n      0x00\n      swap2\n      pop\n      swap1\n      pop\n      dup1\n      0x00\n      add\n      0x00\n      swap1\n      sload\n      swap1\n      0x0100\n      exp\n      swap1\n      div\n      0xffffffffffffffffffffffffffffffffffffffff\n      and\n      swap1\n      dup1\n      0x01\n      add\n      sload\n      swap1\n      dup1\n      0x02\n      add\n      dup1\n      sload\n      tag_24\n      swap1\n      tag_25\n      jump\t// in\n    tag_24:\n      dup1\n      0x1f\n      add\n      0x20\n      dup1\n      swap2\n      div\n      mul\n      0x20\n      add\n      mload(0x40)\n      swap1\n      dup2\n      add\n      0x40\n      mstore\n      dup1\n      swap3\n      swap2\n      swap1\n      dup2\n      dup2\n      mstore\n      0x20\n      add\n      dup3\n      dup1\n      sload\n      tag_26\n      swap1\n      tag_25\n      jump\t// in\n    tag_26:\n      dup1\n      iszero\n      tag_27\n      jumpi\n      dup1\n      0x1f\n      lt\n      tag_28\n      jumpi\n      0x0100\n      dup1\n      dup4\n      sload\n      div\n      mul\n      dup4\n      mstore\n      swap2\n      0x20\n      add\n      swap2\n      jump(tag_27)\n    tag_28:\n      dup3\n      add\n      swap2\n      swap1\n      0x00\n      mstore\n      keccak256(0x00, 0x20)\n      swap1\n    tag_29:\n      dup2\n      sload\n      dup2\n      mstore\n      swap1\n      0x01\n      add\n      swap1\n      0x20\n      add\n      dup1\n      dup4\n      gt\n      tag_29\n      jumpi\n      dup3\n      swap1\n      sub\n      0x1f\n      and\n      dup3\n      add\n      swap2\n    tag_27:\n      pop\n      pop\n      pop\n      pop\n      pop\n      swap1\n      pop\n      dup4\n      jump\t// out\n        /* \"contracts/api3/contracts/rrp/TemplateUtilsV0.sol\":1325:1897  function createTemplate(... */\n    tag_15:\n        /* \"contracts/api3/contracts/rrp/TemplateUtilsV0.sol\":1470:1488  bytes32 templateId */\n      0x00\n        /* \"contracts/api3/contracts/rrp/TemplateUtilsV0.sol\":1527:1528  0 */\n      0x00\n        /* \"contracts/api3/contracts/rrp/TemplateUtilsV0.sol\":1508:1529  airnode != address(0) */\n      0xffffffffffffffffffffffffffffffffffffffff\n      and\n        /* \"contracts/api3/contracts/rrp/TemplateUtilsV0.sol\":1508:1515  airnode */\n      dup6\n        /* \"contracts/api3/contracts/rrp/TemplateUtilsV0.sol\":1508:1529  airnode != address(0) */\n      0xffffffffffffffffffffffffffffffffffffffff\n      and\n      sub\n        /* \"contracts/api3/contracts/rrp/TemplateUtilsV0.sol\":1500:1554  require(airnode != address(0), \"Airnode address zero\") */\n      tag_31\n      jumpi\n      mload(0x40)\n      0x08c379a000000000000000000000000000000000000000000000000000000000\n      dup2\n      mstore\n      0x04\n      add\n      tag_32\n      swap1\n      tag_33\n      jump\t// in\n    tag_32:\n      mload(0x40)\n      dup1\n      swap2\n      sub\n      swap1\n      revert\n    tag_31:\n        /* \"contracts/api3/contracts/rrp/TemplateUtilsV0.sol\":1617:1624  airnode */\n      dup5\n        /* \"contracts/api3/contracts/rrp/TemplateUtilsV0.sol\":1626:1636  endpointId */\n      dup5\n        /* \"contracts/api3/contracts/rrp/TemplateUtilsV0.sol\":1638:1648  parameters */\n      dup5\n      dup5\n        /* \"contracts/api3/contracts/rrp/TemplateUtilsV0.sol\":1600:1649  abi.encodePacked(airnode, endpointId, parameters) */\n      add(0x20, mload(0x40))\n      tag_34\n      swap5\n      swap4\n      swap3\n      swap2\n      swap1\n      tag_35\n      jump\t// in\n    tag_34:\n      mload(0x40)\n      0x20\n      dup2\n      dup4\n      sub\n      sub\n      dup2\n      mstore\n      swap1\n      0x40\n      mstore\n        /* \"contracts/api3/contracts/rrp/TemplateUtilsV0.sol\":1577:1659  keccak256(... */\n      dup1\n      mload\n      swap1\n      0x20\n      add\n      keccak256\n        /* \"contracts/api3/contracts/rrp/TemplateUtilsV0.sol\":1564:1659  templateId = keccak256(... */\n      swap1\n      pop\n        /* \"contracts/api3/contracts/rrp/TemplateUtilsV0.sol\":1693:1815  Template({... */\n      mload(0x40)\n      dup1\n      0x60\n      add\n      0x40\n      mstore\n      dup1\n        /* \"contracts/api3/contracts/rrp/TemplateUtilsV0.sol\":1725:1732  airnode */\n      dup7\n        /* \"contracts/api3/contracts/rrp/TemplateUtilsV0.sol\":1693:1815  Template({... */\n      0xffffffffffffffffffffffffffffffffffffffff\n      and\n      dup2\n      mstore\n      0x20\n      add\n        /* \"contracts/api3/contracts/rrp/TemplateUtilsV0.sol\":1758:1768  endpointId */\n      dup6\n        /* \"contracts/api3/contracts/rrp/TemplateUtilsV0.sol\":1693:1815  Template({... */\n      dup2\n      mstore\n      0x20\n      add\n        /* \"contracts/api3/contracts/rrp/TemplateUtilsV0.sol\":1794:1804  parameters */\n      dup5\n      dup5\n        /* \"contracts/api3/contracts/rrp/TemplateUtilsV0.sol\":1693:1815  Template({... */\n      dup1\n      dup1\n      0x1f\n      add\n      0x20\n      dup1\n      swap2\n      div\n      mul\n      0x20\n      add\n      mload(0x40)\n      swap1\n      dup2\n      add\n      0x40\n      mstore\n      dup1\n      swap4\n      swap3\n      swap2\n      swap1\n      dup2\n      dup2\n      mstore\n      0x20\n      add\n      dup4\n      dup4\n      dup1\n      dup3\n      dup5\n      calldatacopy\n      0x00\n      dup2\n      dup5\n      add\n      mstore\n      not(0x1f)\n      0x1f\n      dup3\n      add\n      and\n      swap1\n      pop\n      dup1\n      dup4\n      add\n      swap3\n      pop\n      pop\n      pop\n      pop\n      pop\n      pop\n      pop\n      dup2\n      mstore\n      pop\n        /* \"contracts/api3/contracts/rrp/TemplateUtilsV0.sol\":1669:1678  templates */\n      0x00\n        /* \"contracts/api3/contracts/rrp/TemplateUtilsV0.sol\":1669:1690  templates[templateId] */\n      0x00\n        /* \"contracts/api3/contracts/rrp/TemplateUtilsV0.sol\":1679:1689  templateId */\n      dup4\n        /* \"contracts/api3/contracts/rrp/TemplateUtilsV0.sol\":1669:1690  templates[templateId] */\n      dup2\n      mstore\n      0x20\n      add\n      swap1\n      dup2\n      mstore\n      0x20\n      add\n      0x00\n      keccak256\n        /* \"contracts/api3/contracts/rrp/TemplateUtilsV0.sol\":1669:1815  templates[templateId] = Template({... */\n      0x00\n      dup3\n      add\n      mload\n      dup2\n      0x00\n      add\n      exp(0x0100, 0x00)\n      dup2\n      sload\n      dup2\n      0xffffffffffffffffffffffffffffffffffffffff\n      mul\n      not\n      and\n      swap1\n      dup4\n      0xffffffffffffffffffffffffffffffffffffffff\n      and\n      mul\n      or\n      swap1\n      sstore\n      pop\n      0x20\n      dup3\n      add\n      mload\n      dup2\n      0x01\n      add\n      sstore\n      0x40\n      dup3\n      add\n      mload\n      dup2\n      0x02\n      add\n      swap1\n      dup2\n      tag_36\n      swap2\n      swap1\n      tag_37\n      jump\t// in\n    tag_36:\n      pop\n      swap1\n      pop\n      pop\n        /* \"contracts/api3/contracts/rrp/TemplateUtilsV0.sol\":1846:1856  templateId */\n      dup1\n        /* \"contracts/api3/contracts/rrp/TemplateUtilsV0.sol\":1830:1890  CreatedTemplate(templateId, airnode, endpointId, parameters) */\n      0xba204bad31c4ec4b9b54164af94ae10c4e7312f22c0f9c065d6319c928ec9e7a\n        /* \"contracts/api3/contracts/rrp/TemplateUtilsV0.sol\":1858:1865  airnode */\n      dup7\n        /* \"contracts/api3/contracts/rrp/TemplateUtilsV0.sol\":1867:1877  endpointId */\n      dup7\n        /* \"contracts/api3/contracts/rrp/TemplateUtilsV0.sol\":1879:1889  parameters */\n      dup7\n      dup7\n        /* \"contracts/api3/contracts/rrp/TemplateUtilsV0.sol\":1830:1890  CreatedTemplate(templateId, airnode, endpointId, parameters) */\n      mload(0x40)\n      tag_38\n      swap5\n      swap4\n      swap3\n      swap2\n      swap1\n      tag_39\n      jump\t// in\n    tag_38:\n      mload(0x40)\n      dup1\n      swap2\n      sub\n      swap1\n      log2\n        /* \"contracts/api3/contracts/rrp/TemplateUtilsV0.sol\":1325:1897  function createTemplate(... */\n      swap5\n      swap4\n      pop\n      pop\n      pop\n      pop\n      jump\t// out\n        /* \"contracts/api3/contracts/rrp/TemplateUtilsV0.sol\":2276:2993  function getTemplates(bytes32[] calldata templateIds)... */\n    tag_21:\n        /* \"contracts/api3/contracts/rrp/TemplateUtilsV0.sol\":2407:2432  address[] memory airnodes */\n      0x60\n        /* \"contracts/api3/contracts/rrp/TemplateUtilsV0.sol\":2446:2474  bytes32[] memory endpointIds */\n      dup1\n        /* \"contracts/api3/contracts/rrp/TemplateUtilsV0.sol\":2488:2513  bytes[] memory parameters */\n      0x60\n        /* \"contracts/api3/contracts/rrp/TemplateUtilsV0.sol\":2563:2574  templateIds */\n      dup5\n      dup5\n        /* \"contracts/api3/contracts/rrp/TemplateUtilsV0.sol\":2563:2581  templateIds.length */\n      swap1\n      pop\n        /* \"contracts/api3/contracts/rrp/TemplateUtilsV0.sol\":2549:2582  new address[](templateIds.length) */\n      0xffffffffffffffff\n      dup2\n      gt\n      iszero\n      tag_41\n      jumpi\n      tag_42\n      tag_43\n      jump\t// in\n    tag_42:\n    tag_41:\n      mload(0x40)\n      swap1\n      dup1\n      dup3\n      mstore\n      dup1\n      0x20\n      mul\n      0x20\n      add\n      dup3\n      add\n      0x40\n      mstore\n      dup1\n      iszero\n      tag_44\n      jumpi\n      dup2\n      0x20\n      add\n      0x20\n      dup3\n      mul\n      dup1\n      calldatasize\n      dup4\n      calldatacopy\n      dup1\n      dup3\n      add\n      swap2\n      pop\n      pop\n      swap1\n      pop\n    tag_44:\n      pop\n        /* \"contracts/api3/contracts/rrp/TemplateUtilsV0.sol\":2538:2582  airnodes = new address[](templateIds.length) */\n      swap3\n      pop\n        /* \"contracts/api3/contracts/rrp/TemplateUtilsV0.sol\":2620:2631  templateIds */\n      dup5\n      dup5\n        /* \"contracts/api3/contracts/rrp/TemplateUtilsV0.sol\":2620:2638  templateIds.length */\n      swap1\n      pop\n        /* \"contracts/api3/contracts/rrp/TemplateUtilsV0.sol\":2606:2639  new bytes32[](templateIds.length) */\n      0xffffffffffffffff\n      dup2\n      gt\n      iszero\n      tag_45\n      jumpi\n      tag_46\n      tag_43\n      jump\t// in\n    tag_46:\n    tag_45:\n      mload(0x40)\n      swap1\n      dup1\n      dup3\n      mstore\n      dup1\n      0x20\n      mul\n      0x20\n      add\n      dup3\n      add\n      0x40\n      mstore\n      dup1\n      iszero\n      tag_47\n      jumpi\n      dup2\n      0x20\n      add\n      0x20\n      dup3\n      mul\n      dup1\n      calldatasize\n      dup4\n      calldatacopy\n      dup1\n      dup3\n      add\n      swap2\n      pop\n      pop\n      swap1\n      pop\n    tag_47:\n      pop\n        /* \"contracts/api3/contracts/rrp/TemplateUtilsV0.sol\":2592:2639  endpointIds = new bytes32[](templateIds.length) */\n      swap2\n      pop\n        /* \"contracts/api3/contracts/rrp/TemplateUtilsV0.sol\":2674:2685  templateIds */\n      dup5\n      dup5\n        /* \"contracts/api3/contracts/rrp/TemplateUtilsV0.sol\":2674:2692  templateIds.length */\n      swap1\n      pop\n        /* \"contracts/api3/contracts/rrp/TemplateUtilsV0.sol\":2662:2693  new bytes[](templateIds.length) */\n      0xffffffffffffffff\n      dup2\n      gt\n      iszero\n      tag_48\n      jumpi\n      tag_49\n      tag_43\n      jump\t// in\n    tag_49:\n    tag_48:\n      mload(0x40)\n      swap1\n      dup1\n      dup3\n      mstore\n      dup1\n      0x20\n      mul\n      0x20\n      add\n      dup3\n      add\n      0x40\n      mstore\n      dup1\n      iszero\n      tag_50\n      jumpi\n      dup2\n      0x20\n      add\n    tag_51:\n      0x60\n      dup2\n      mstore\n      0x20\n      add\n      swap1\n      0x01\n      swap1\n      sub\n      swap1\n      dup2\n      tag_51\n      jumpi\n      swap1\n      pop\n    tag_50:\n      pop\n        /* \"contracts/api3/contracts/rrp/TemplateUtilsV0.sol\":2649:2693  parameters = new bytes[](templateIds.length) */\n      swap1\n      pop\n        /* \"contracts/api3/contracts/rrp/TemplateUtilsV0.sol\":2708:2719  uint256 ind */\n      0x00\n        /* \"contracts/api3/contracts/rrp/TemplateUtilsV0.sol\":2722:2723  0 */\n      0x00\n        /* \"contracts/api3/contracts/rrp/TemplateUtilsV0.sol\":2708:2723  uint256 ind = 0 */\n      swap1\n      pop\n        /* \"contracts/api3/contracts/rrp/TemplateUtilsV0.sol\":2703:2987  for (uint256 ind = 0; ind < templateIds.length; ind++) {... */\n    tag_52:\n        /* \"contracts/api3/contracts/rrp/TemplateUtilsV0.sol\":2731:2742  templateIds */\n      dup6\n      dup6\n        /* \"contracts/api3/contracts/rrp/TemplateUtilsV0.sol\":2731:2749  templateIds.length */\n      swap1\n      pop\n        /* \"contracts/api3/contracts/rrp/TemplateUtilsV0.sol\":2725:2728  ind */\n      dup2\n        /* \"contracts/api3/contracts/rrp/TemplateUtilsV0.sol\":2725:2749  ind < templateIds.length */\n      lt\n        /* \"contracts/api3/contracts/rrp/TemplateUtilsV0.sol\":2703:2987  for (uint256 ind = 0; ind < templateIds.length; ind++) {... */\n      iszero\n      tag_53\n      jumpi\n        /* \"contracts/api3/contracts/rrp/TemplateUtilsV0.sol\":2772:2797  Template storage template */\n      0x00\n        /* \"contracts/api3/contracts/rrp/TemplateUtilsV0.sol\":2800:2809  templates */\n      0x00\n        /* \"contracts/api3/contracts/rrp/TemplateUtilsV0.sol\":2800:2827  templates[templateIds[ind]] */\n      0x00\n        /* \"contracts/api3/contracts/rrp/TemplateUtilsV0.sol\":2810:2821  templateIds */\n      dup9\n      dup9\n        /* \"contracts/api3/contracts/rrp/TemplateUtilsV0.sol\":2822:2825  ind */\n      dup6\n        /* \"contracts/api3/contracts/rrp/TemplateUtilsV0.sol\":2810:2826  templateIds[ind] */\n      dup2\n      dup2\n      lt\n      tag_55\n      jumpi\n      tag_56\n      tag_57\n      jump\t// in\n    tag_56:\n    tag_55:\n      swap1\n      pop\n      0x20\n      mul\n      add\n      calldataload\n        /* \"contracts/api3/contracts/rrp/TemplateUtilsV0.sol\":2800:2827  templates[templateIds[ind]] */\n      dup2\n      mstore\n      0x20\n      add\n      swap1\n      dup2\n      mstore\n      0x20\n      add\n      0x00\n      keccak256\n        /* \"contracts/api3/contracts/rrp/TemplateUtilsV0.sol\":2772:2827  Template storage template = templates[templateIds[ind]] */\n      swap1\n      pop\n        /* \"contracts/api3/contracts/rrp/TemplateUtilsV0.sol\":2857:2865  template */\n      dup1\n        /* \"contracts/api3/contracts/rrp/TemplateUtilsV0.sol\":2857:2873  template.airnode */\n      0x00\n      add\n      0x00\n      swap1\n      sload\n      swap1\n      0x0100\n      exp\n      swap1\n      div\n      0xffffffffffffffffffffffffffffffffffffffff\n      and\n        /* \"contracts/api3/contracts/rrp/TemplateUtilsV0.sol\":2841:2849  airnodes */\n      dup6\n        /* \"contracts/api3/contracts/rrp/TemplateUtilsV0.sol\":2850:2853  ind */\n      dup4\n        /* \"contracts/api3/contracts/rrp/TemplateUtilsV0.sol\":2841:2854  airnodes[ind] */\n      dup2\n      mload\n      dup2\n      lt\n      tag_58\n      jumpi\n      tag_59\n      tag_57\n      jump\t// in\n    tag_59:\n    tag_58:\n      0x20\n      mul\n      0x20\n      add\n      add\n        /* \"contracts/api3/contracts/rrp/TemplateUtilsV0.sol\":2841:2873  airnodes[ind] = template.airnode */\n      swap1\n      0xffffffffffffffffffffffffffffffffffffffff\n      and\n      swap1\n      dup2\n      0xffffffffffffffffffffffffffffffffffffffff\n      and\n      dup2\n      mstore\n      pop\n      pop\n        /* \"contracts/api3/contracts/rrp/TemplateUtilsV0.sol\":2906:2914  template */\n      dup1\n        /* \"contracts/api3/contracts/rrp/TemplateUtilsV0.sol\":2906:2925  template.endpointId */\n      0x01\n      add\n      sload\n        /* \"contracts/api3/contracts/rrp/TemplateUtilsV0.sol\":2887:2898  endpointIds */\n      dup5\n        /* \"contracts/api3/contracts/rrp/TemplateUtilsV0.sol\":2899:2902  ind */\n      dup4\n        /* \"contracts/api3/contracts/rrp/TemplateUtilsV0.sol\":2887:2903  endpointIds[ind] */\n      dup2\n      mload\n      dup2\n      lt\n      tag_60\n      jumpi\n      tag_61\n      tag_57\n      jump\t// in\n    tag_61:\n    tag_60:\n      0x20\n      mul\n      0x20\n      add\n      add\n        /* \"contracts/api3/contracts/rrp/TemplateUtilsV0.sol\":2887:2925  endpointIds[ind] = template.endpointId */\n      dup2\n      dup2\n      mstore\n      pop\n      pop\n        /* \"contracts/api3/contracts/rrp/TemplateUtilsV0.sol\":2957:2965  template */\n      dup1\n        /* \"contracts/api3/contracts/rrp/TemplateUtilsV0.sol\":2957:2976  template.parameters */\n      0x02\n      add\n        /* \"contracts/api3/contracts/rrp/TemplateUtilsV0.sol\":2939:2976  parameters[ind] = template.parameters */\n      dup1\n      sload\n      tag_62\n      swap1\n      tag_25\n      jump\t// in\n    tag_62:\n      dup1\n      0x1f\n      add\n      0x20\n      dup1\n      swap2\n      div\n      mul\n      0x20\n      add\n      mload(0x40)\n      swap1\n      dup2\n      add\n      0x40\n      mstore\n      dup1\n      swap3\n      swap2\n      swap1\n      dup2\n      dup2\n      mstore\n      0x20\n      add\n      dup3\n      dup1\n      sload\n      tag_63\n      swap1\n      tag_25\n      jump\t// in\n    tag_63:\n      dup1\n      iszero\n      tag_64\n      jumpi\n      dup1\n      0x1f\n      lt\n      tag_65\n      jumpi\n      0x0100\n      dup1\n      dup4\n      sload\n      div\n      mul\n      dup4\n      mstore\n      swap2\n      0x20\n      add\n      swap2\n      jump(tag_64)\n    tag_65:\n      dup3\n      add\n      swap2\n      swap1\n      0x00\n      mstore\n      keccak256(0x00, 0x20)\n      swap1\n    tag_66:\n      dup2\n      sload\n      dup2\n      mstore\n      swap1\n      0x01\n      add\n      swap1\n      0x20\n      add\n      dup1\n      dup4\n      gt\n      tag_66\n      jumpi\n      dup3\n      swap1\n      sub\n      0x1f\n      and\n      dup3\n      add\n      swap2\n    tag_64:\n      pop\n      pop\n      pop\n      pop\n      pop\n        /* \"contracts/api3/contracts/rrp/TemplateUtilsV0.sol\":2939:2949  parameters */\n      dup4\n        /* \"contracts/api3/contracts/rrp/TemplateUtilsV0.sol\":2950:2953  ind */\n      dup4\n        /* \"contracts/api3/contracts/rrp/TemplateUtilsV0.sol\":2939:2954  parameters[ind] */\n      dup2\n      mload\n      dup2\n      lt\n      tag_67\n      jumpi\n      tag_68\n      tag_57\n      jump\t// in\n    tag_68:\n    tag_67:\n      0x20\n      mul\n      0x20\n      add\n      add\n        /* \"contracts/api3/contracts/rrp/TemplateUtilsV0.sol\":2939:2976  parameters[ind] = template.parameters */\n      dup2\n      swap1\n      mstore\n      pop\n        /* \"contracts/api3/contracts/rrp/TemplateUtilsV0.sol\":2758:2987  {... */\n      pop\n        /* \"contracts/api3/contracts/rrp/TemplateUtilsV0.sol\":2751:2756  ind++ */\n      dup1\n      dup1\n      0x01\n      add\n      swap2\n      pop\n      pop\n        /* \"contracts/api3/contracts/rrp/TemplateUtilsV0.sol\":2703:2987  for (uint256 ind = 0; ind < templateIds.length; ind++) {... */\n      jump(tag_52)\n    tag_53:\n      pop\n        /* \"contracts/api3/contracts/rrp/TemplateUtilsV0.sol\":2276:2993  function getTemplates(bytes32[] calldata templateIds)... */\n      swap3\n      pop\n      swap3\n      pop\n      swap3\n      jump\t// out\n        /* \"#utility.yul\":88:205   */\n    tag_70:\n        /* \"#utility.yul\":197:198   */\n      0x00\n        /* \"#utility.yul\":194:195   */\n      0x00\n        /* \"#utility.yul\":187:199   */\n      revert\n        /* \"#utility.yul\":211:328   */\n    tag_71:\n        /* \"#utility.yul\":320:321   */\n      0x00\n        /* \"#utility.yul\":317:318   */\n      0x00\n        /* \"#utility.yul\":310:322   */\n      revert\n        /* \"#utility.yul\":334:411   */\n    tag_72:\n        /* \"#utility.yul\":371:378   */\n      0x00\n        /* \"#utility.yul\":400:405   */\n      dup2\n        /* \"#utility.yul\":389:405   */\n      swap1\n      pop\n        /* \"#utility.yul\":334:411   */\n      swap2\n      swap1\n      pop\n      jump\t// out\n        /* \"#utility.yul\":417:539   */\n    tag_73:\n        /* \"#utility.yul\":490:514   */\n      tag_149\n        /* \"#utility.yul\":508:513   */\n      dup2\n        /* \"#utility.yul\":490:514   */\n      tag_72\n      jump\t// in\n    tag_149:\n        /* \"#utility.yul\":483:488   */\n      dup2\n        /* \"#utility.yul\":480:515   */\n      eq\n        /* \"#utility.yul\":470:533   */\n      tag_150\n      jumpi\n        /* \"#utility.yul\":529:530   */\n      0x00\n        /* \"#utility.yul\":526:527   */\n      0x00\n        /* \"#utility.yul\":519:531   */\n      revert\n        /* \"#utility.yul\":470:533   */\n    tag_150:\n        /* \"#utility.yul\":417:539   */\n      pop\n      jump\t// out\n        /* \"#utility.yul\":545:684   */\n    tag_74:\n        /* \"#utility.yul\":591:596   */\n      0x00\n        /* \"#utility.yul\":629:635   */\n      dup2\n        /* \"#utility.yul\":616:636   */\n      calldataload\n        /* \"#utility.yul\":607:636   */\n      swap1\n      pop\n        /* \"#utility.yul\":645:678   */\n      tag_152\n        /* \"#utility.yul\":672:677   */\n      dup2\n        /* \"#utility.yul\":645:678   */\n      tag_73\n      jump\t// in\n    tag_152:\n        /* \"#utility.yul\":545:684   */\n      swap3\n      swap2\n      pop\n      pop\n      jump\t// out\n        /* \"#utility.yul\":690:1019   */\n    tag_8:\n        /* \"#utility.yul\":749:755   */\n      0x00\n        /* \"#utility.yul\":798:800   */\n      0x20\n        /* \"#utility.yul\":786:795   */\n      dup3\n        /* \"#utility.yul\":777:784   */\n      dup5\n        /* \"#utility.yul\":773:796   */\n      sub\n        /* \"#utility.yul\":769:801   */\n      slt\n        /* \"#utility.yul\":766:885   */\n      iszero\n      tag_154\n      jumpi\n        /* \"#utility.yul\":804:883   */\n      tag_155\n      tag_70\n      jump\t// in\n    tag_155:\n        /* \"#utility.yul\":766:885   */\n    tag_154:\n        /* \"#utility.yul\":924:925   */\n      0x00\n        /* \"#utility.yul\":949:1002   */\n      tag_156\n        /* \"#utility.yul\":994:1001   */\n      dup5\n        /* \"#utility.yul\":985:991   */\n      dup3\n        /* \"#utility.yul\":974:983   */\n      dup6\n        /* \"#utility.yul\":970:992   */\n      add\n        /* \"#utility.yul\":949:1002   */\n      tag_74\n      jump\t// in\n    tag_156:\n        /* \"#utility.yul\":939:1002   */\n      swap2\n      pop\n        /* \"#utility.yul\":895:1012   */\n      pop\n        /* \"#utility.yul\":690:1019   */\n      swap3\n      swap2\n      pop\n      pop\n      jump\t// out\n        /* \"#utility.yul\":1025:1151   */\n    tag_75:\n        /* \"#utility.yul\":1062:1069   */\n      0x00\n        /* \"#utility.yul\":1102:1144   */\n      0xffffffffffffffffffffffffffffffffffffffff\n        /* \"#utility.yul\":1095:1100   */\n      dup3\n        /* \"#utility.yul\":1091:1145   */\n      and\n        /* \"#utility.yul\":1080:1145   */\n      swap1\n      pop\n        /* \"#utility.yul\":1025:1151   */\n      swap2\n      swap1\n      pop\n      jump\t// out\n        /* \"#utility.yul\":1157:1253   */\n    tag_76:\n        /* \"#utility.yul\":1194:1201   */\n      0x00\n        /* \"#utility.yul\":1223:1247   */\n      tag_159\n        /* \"#utility.yul\":1241:1246   */\n      dup3\n        /* \"#utility.yul\":1223:1247   */\n      tag_75\n      jump\t// in\n    tag_159:\n        /* \"#utility.yul\":1212:1247   */\n      swap1\n      pop\n        /* \"#utility.yul\":1157:1253   */\n      swap2\n      swap1\n      pop\n      jump\t// out\n        /* \"#utility.yul\":1259:1377   */\n    tag_77:\n        /* \"#utility.yul\":1346:1370   */\n      tag_161\n        /* \"#utility.yul\":1364:1369   */\n      dup2\n        /* \"#utility.yul\":1346:1370   */\n      tag_76\n      jump\t// in\n    tag_161:\n        /* \"#utility.yul\":1341:1344   */\n      dup3\n        /* \"#utility.yul\":1334:1371   */\n      mstore\n        /* \"#utility.yul\":1259:1377   */\n      pop\n      pop\n      jump\t// out\n        /* \"#utility.yul\":1383:1501   */\n    tag_78:\n        /* \"#utility.yul\":1470:1494   */\n      tag_163\n        /* \"#utility.yul\":1488:1493   */\n      dup2\n        /* \"#utility.yul\":1470:1494   */\n      tag_72\n      jump\t// in\n    tag_163:\n        /* \"#utility.yul\":1465:1468   */\n      dup3\n        /* \"#utility.yul\":1458:1495   */\n      mstore\n        /* \"#utility.yul\":1383:1501   */\n      pop\n      pop\n      jump\t// out\n        /* \"#utility.yul\":1507:1605   */\n    tag_79:\n        /* \"#utility.yul\":1558:1564   */\n      0x00\n        /* \"#utility.yul\":1592:1597   */\n      dup2\n        /* \"#utility.yul\":1586:1598   */\n      mload\n        /* \"#utility.yul\":1576:1598   */\n      swap1\n      pop\n        /* \"#utility.yul\":1507:1605   */\n      swap2\n      swap1\n      pop\n      jump\t// out\n        /* \"#utility.yul\":1611:1779   */\n    tag_80:\n        /* \"#utility.yul\":1694:1705   */\n      0x00\n        /* \"#utility.yul\":1728:1734   */\n      dup3\n        /* \"#utility.yul\":1723:1726   */\n      dup3\n        /* \"#utility.yul\":1716:1735   */\n      mstore\n        /* \"#utility.yul\":1768:1772   */\n      0x20\n        /* \"#utility.yul\":1763:1766   */\n      dup3\n        /* \"#utility.yul\":1759:1773   */\n      add\n        /* \"#utility.yul\":1744:1773   */\n      swap1\n      pop\n        /* \"#utility.yul\":1611:1779   */\n      swap3\n      swap2\n      pop\n      pop\n      jump\t// out\n        /* \"#utility.yul\":1785:1924   */\n    tag_81:\n        /* \"#utility.yul\":1874:1880   */\n      dup3\n        /* \"#utility.yul\":1869:1872   */\n      dup2\n        /* \"#utility.yul\":1864:1867   */\n      dup4\n        /* \"#utility.yul\":1858:1881   */\n      mcopy\n        /* \"#utility.yul\":1915:1916   */\n      0x00\n        /* \"#utility.yul\":1906:1912   */\n      dup4\n        /* \"#utility.yul\":1901:1904   */\n      dup4\n        /* \"#utility.yul\":1897:1913   */\n      add\n        /* \"#utility.yul\":1890:1917   */\n      mstore\n        /* \"#utility.yul\":1785:1924   */\n      pop\n      pop\n      pop\n      jump\t// out\n        /* \"#utility.yul\":1930:2032   */\n    tag_82:\n        /* \"#utility.yul\":1971:1977   */\n      0x00\n        /* \"#utility.yul\":2022:2024   */\n      0x1f\n        /* \"#utility.yul\":2018:2025   */\n      not\n        /* \"#utility.yul\":2013:2015   */\n      0x1f\n        /* \"#utility.yul\":2006:2011   */\n      dup4\n        /* \"#utility.yul\":2002:2016   */\n      add\n        /* \"#utility.yul\":1998:2026   */\n      and\n        /* \"#utility.yul\":1988:2026   */\n      swap1\n      pop\n        /* \"#utility.yul\":1930:2032   */\n      swap2\n      swap1\n      pop\n      jump\t// out\n        /* \"#utility.yul\":2038:2411   */\n    tag_83:\n        /* \"#utility.yul\":2124:2127   */\n      0x00\n        /* \"#utility.yul\":2152:2190   */\n      tag_169\n        /* \"#utility.yul\":2184:2189   */\n      dup3\n        /* \"#utility.yul\":2152:2190   */\n      tag_79\n      jump\t// in\n    tag_169:\n        /* \"#utility.yul\":2206:2276   */\n      tag_170\n        /* \"#utility.yul\":2269:2275   */\n      dup2\n        /* \"#utility.yul\":2264:2267   */\n      dup6\n        /* \"#utility.yul\":2206:2276   */\n      tag_80\n      jump\t// in\n    tag_170:\n        /* \"#utility.yul\":2199:2276   */\n      swap4\n      pop\n        /* \"#utility.yul\":2285:2350   */\n      tag_171\n        /* \"#utility.yul\":2343:2349   */\n      dup2\n        /* \"#utility.yul\":2338:2341   */\n      dup6\n        /* \"#utility.yul\":2331:2335   */\n      0x20\n        /* \"#utility.yul\":2324:2329   */\n      dup7\n        /* \"#utility.yul\":2320:2336   */\n      add\n        /* \"#utility.yul\":2285:2350   */\n      tag_81\n      jump\t// in\n    tag_171:\n        /* \"#utility.yul\":2375:2404   */\n      tag_172\n        /* \"#utility.yul\":2397:2403   */\n      dup2\n        /* \"#utility.yul\":2375:2404   */\n      tag_82\n      jump\t// in\n    tag_172:\n        /* \"#utility.yul\":2370:2373   */\n      dup5\n        /* \"#utility.yul\":2366:2405   */\n      add\n        /* \"#utility.yul\":2359:2405   */\n      swap2\n      pop\n        /* \"#utility.yul\":2128:2411   */\n      pop\n        /* \"#utility.yul\":2038:2411   */\n      swap3\n      swap2\n      pop\n      pop\n      jump\t// out\n        /* \"#utility.yul\":2417:2946   */\n    tag_11:\n        /* \"#utility.yul\":2584:2588   */\n      0x00\n        /* \"#utility.yul\":2622:2624   */\n      0x60\n        /* \"#utility.yul\":2611:2620   */\n      dup3\n        /* \"#utility.yul\":2607:2625   */\n      add\n        /* \"#utility.yul\":2599:2625   */\n      swap1\n      pop\n        /* \"#utility.yul\":2635:2706   */\n      tag_174\n        /* \"#utility.yul\":2703:2704   */\n      0x00\n        /* \"#utility.yul\":2692:2701   */\n      dup4\n        /* \"#utility.yul\":2688:2705   */\n      add\n        /* \"#utility.yul\":2679:2685   */\n      dup7\n        /* \"#utility.yul\":2635:2706   */\n      tag_77\n      jump\t// in\n    tag_174:\n        /* \"#utility.yul\":2716:2788   */\n      tag_175\n        /* \"#utility.yul\":2784:2786   */\n      0x20\n        /* \"#utility.yul\":2773:2782   */\n      dup4\n        /* \"#utility.yul\":2769:2787   */\n      add\n        /* \"#utility.yul\":2760:2766   */\n      dup6\n        /* \"#utility.yul\":2716:2788   */\n      tag_78\n      jump\t// in\n    tag_175:\n        /* \"#utility.yul\":2835:2844   */\n      dup2\n        /* \"#utility.yul\":2829:2833   */\n      dup2\n        /* \"#utility.yul\":2825:2845   */\n      sub\n        /* \"#utility.yul\":2820:2822   */\n      0x40\n        /* \"#utility.yul\":2809:2818   */\n      dup4\n        /* \"#utility.yul\":2805:2823   */\n      add\n        /* \"#utility.yul\":2798:2846   */\n      mstore\n        /* \"#utility.yul\":2863:2939   */\n      tag_176\n        /* \"#utility.yul\":2934:2938   */\n      dup2\n        /* \"#utility.yul\":2925:2931   */\n      dup5\n        /* \"#utility.yul\":2863:2939   */\n      tag_83\n      jump\t// in\n    tag_176:\n        /* \"#utility.yul\":2855:2939   */\n      swap1\n      pop\n        /* \"#utility.yul\":2417:2946   */\n      swap5\n      swap4\n      pop\n      pop\n      pop\n      pop\n      jump\t// out\n        /* \"#utility.yul\":2952:3074   */\n    tag_84:\n        /* \"#utility.yul\":3025:3049   */\n      tag_178\n        /* \"#utility.yul\":3043:3048   */\n      dup2\n        /* \"#utility.yul\":3025:3049   */\n      tag_76\n      jump\t// in\n    tag_178:\n        /* \"#utility.yul\":3018:3023   */\n      dup2\n        /* \"#utility.yul\":3015:3050   */\n      eq\n        /* \"#utility.yul\":3005:3068   */\n      tag_179\n      jumpi\n        /* \"#utility.yul\":3064:3065   */\n      0x00\n        /* \"#utility.yul\":3061:3062   */\n      0x00\n        /* \"#utility.yul\":3054:3066   */\n      revert\n        /* \"#utility.yul\":3005:3068   */\n    tag_179:\n        /* \"#utility.yul\":2952:3074   */\n      pop\n      jump\t// out\n        /* \"#utility.yul\":3080:3219   */\n    tag_85:\n        /* \"#utility.yul\":3126:3131   */\n      0x00\n        /* \"#utility.yul\":3164:3170   */\n      dup2\n        /* \"#utility.yul\":3151:3171   */\n      calldataload\n        /* \"#utility.yul\":3142:3171   */\n      swap1\n      pop\n        /* \"#utility.yul\":3180:3213   */\n      tag_181\n        /* \"#utility.yul\":3207:3212   */\n      dup2\n        /* \"#utility.yul\":3180:3213   */\n      tag_84\n      jump\t// in\n    tag_181:\n        /* \"#utility.yul\":3080:3219   */\n      swap3\n      swap2\n      pop\n      pop\n      jump\t// out\n        /* \"#utility.yul\":3225:3342   */\n    tag_86:\n        /* \"#utility.yul\":3334:3335   */\n      0x00\n        /* \"#utility.yul\":3331:3332   */\n      0x00\n        /* \"#utility.yul\":3324:3336   */\n      revert\n        /* \"#utility.yul\":3348:3465   */\n    tag_87:\n        /* \"#utility.yul\":3457:3458   */\n      0x00\n        /* \"#utility.yul\":3454:3455   */\n      0x00\n        /* \"#utility.yul\":3447:3459   */\n      revert\n        /* \"#utility.yul\":3471:3588   */\n    tag_88:\n        /* \"#utility.yul\":3580:3581   */\n      0x00\n        /* \"#utility.yul\":3577:3578   */\n      0x00\n        /* \"#utility.yul\":3570:3582   */\n      revert\n        /* \"#utility.yul\":3607:4159   */\n    tag_89:\n        /* \"#utility.yul\":3664:3672   */\n      0x00\n        /* \"#utility.yul\":3674:3680   */\n      0x00\n        /* \"#utility.yul\":3724:3727   */\n      dup4\n        /* \"#utility.yul\":3717:3721   */\n      0x1f\n        /* \"#utility.yul\":3709:3715   */\n      dup5\n        /* \"#utility.yul\":3705:3722   */\n      add\n        /* \"#utility.yul\":3701:3728   */\n      slt\n        /* \"#utility.yul\":3691:3813   */\n      tag_186\n      jumpi\n        /* \"#utility.yul\":3732:3811   */\n      tag_187\n      tag_86\n      jump\t// in\n    tag_187:\n        /* \"#utility.yul\":3691:3813   */\n    tag_186:\n        /* \"#utility.yul\":3845:3851   */\n      dup3\n        /* \"#utility.yul\":3832:3852   */\n      calldataload\n        /* \"#utility.yul\":3822:3852   */\n      swap1\n      pop\n        /* \"#utility.yul\":3875:3893   */\n      0xffffffffffffffff\n        /* \"#utility.yul\":3867:3873   */\n      dup2\n        /* \"#utility.yul\":3864:3894   */\n      gt\n        /* \"#utility.yul\":3861:3978   */\n      iszero\n      tag_188\n      jumpi\n        /* \"#utility.yul\":3897:3976   */\n      tag_189\n      tag_87\n      jump\t// in\n    tag_189:\n        /* \"#utility.yul\":3861:3978   */\n    tag_188:\n        /* \"#utility.yul\":4011:4015   */\n      0x20\n        /* \"#utility.yul\":4003:4009   */\n      dup4\n        /* \"#utility.yul\":3999:4016   */\n      add\n        /* \"#utility.yul\":3987:4016   */\n      swap2\n      pop\n        /* \"#utility.yul\":4065:4068   */\n      dup4\n        /* \"#utility.yul\":4057:4061   */\n      0x01\n        /* \"#utility.yul\":4049:4055   */\n      dup3\n        /* \"#utility.yul\":4045:4062   */\n      mul\n        /* \"#utility.yul\":4035:4043   */\n      dup4\n        /* \"#utility.yul\":4031:4063   */\n      add\n        /* \"#utility.yul\":4028:4069   */\n      gt\n        /* \"#utility.yul\":4025:4153   */\n      iszero\n      tag_190\n      jumpi\n        /* \"#utility.yul\":4072:4151   */\n      tag_191\n      tag_88\n      jump\t// in\n    tag_191:\n        /* \"#utility.yul\":4025:4153   */\n    tag_190:\n        /* \"#utility.yul\":3607:4159   */\n      swap3\n      pop\n      swap3\n      swap1\n      pop\n      jump\t// out\n        /* \"#utility.yul\":4165:4982   */\n    tag_14:\n        /* \"#utility.yul\":4253:4259   */\n      0x00\n        /* \"#utility.yul\":4261:4267   */\n      0x00\n        /* \"#utility.yul\":4269:4275   */\n      0x00\n        /* \"#utility.yul\":4277:4283   */\n      0x00\n        /* \"#utility.yul\":4326:4328   */\n      0x60\n        /* \"#utility.yul\":4314:4323   */\n      dup6\n        /* \"#utility.yul\":4305:4312   */\n      dup8\n        /* \"#utility.yul\":4301:4324   */\n      sub\n        /* \"#utility.yul\":4297:4329   */\n      slt\n        /* \"#utility.yul\":4294:4413   */\n      iszero\n      tag_193\n      jumpi\n        /* \"#utility.yul\":4332:4411   */\n      tag_194\n      tag_70\n      jump\t// in\n    tag_194:\n        /* \"#utility.yul\":4294:4413   */\n    tag_193:\n        /* \"#utility.yul\":4452:4453   */\n      0x00\n        /* \"#utility.yul\":4477:4530   */\n      tag_195\n        /* \"#utility.yul\":4522:4529   */\n      dup8\n        /* \"#utility.yul\":4513:4519   */\n      dup3\n        /* \"#utility.yul\":4502:4511   */\n      dup9\n        /* \"#utility.yul\":4498:4520   */\n      add\n        /* \"#utility.yul\":4477:4530   */\n      tag_85\n      jump\t// in\n    tag_195:\n        /* \"#utility.yul\":4467:4530   */\n      swap5\n      pop\n        /* \"#utility.yul\":4423:4540   */\n      pop\n        /* \"#utility.yul\":4579:4581   */\n      0x20\n        /* \"#utility.yul\":4605:4658   */\n      tag_196\n        /* \"#utility.yul\":4650:4657   */\n      dup8\n        /* \"#utility.yul\":4641:4647   */\n      dup3\n        /* \"#utility.yul\":4630:4639   */\n      dup9\n        /* \"#utility.yul\":4626:4648   */\n      add\n        /* \"#utility.yul\":4605:4658   */\n      tag_74\n      jump\t// in\n    tag_196:\n        /* \"#utility.yul\":4595:4658   */\n      swap4\n      pop\n        /* \"#utility.yul\":4550:4668   */\n      pop\n        /* \"#utility.yul\":4735:4737   */\n      0x40\n        /* \"#utility.yul\":4724:4733   */\n      dup6\n        /* \"#utility.yul\":4720:4738   */\n      add\n        /* \"#utility.yul\":4707:4739   */\n      calldataload\n        /* \"#utility.yul\":4766:4784   */\n      0xffffffffffffffff\n        /* \"#utility.yul\":4758:4764   */\n      dup2\n        /* \"#utility.yul\":4755:4785   */\n      gt\n        /* \"#utility.yul\":4752:4869   */\n      iszero\n      tag_197\n      jumpi\n        /* \"#utility.yul\":4788:4867   */\n      tag_198\n      tag_71\n      jump\t// in\n    tag_198:\n        /* \"#utility.yul\":4752:4869   */\n    tag_197:\n        /* \"#utility.yul\":4901:4965   */\n      tag_199\n        /* \"#utility.yul\":4957:4964   */\n      dup8\n        /* \"#utility.yul\":4948:4954   */\n      dup3\n        /* \"#utility.yul\":4937:4946   */\n      dup9\n        /* \"#utility.yul\":4933:4955   */\n      add\n        /* \"#utility.yul\":4901:4965   */\n      tag_89\n      jump\t// in\n    tag_199:\n        /* \"#utility.yul\":4883:4965   */\n      swap3\n      pop\n      swap3\n      pop\n        /* \"#utility.yul\":4678:4975   */\n      pop\n        /* \"#utility.yul\":4165:4982   */\n      swap3\n      swap6\n      swap2\n      swap5\n      pop\n      swap3\n      pop\n      jump\t// out\n        /* \"#utility.yul\":4988:5210   */\n    tag_17:\n        /* \"#utility.yul\":5081:5085   */\n      0x00\n        /* \"#utility.yul\":5119:5121   */\n      0x20\n        /* \"#utility.yul\":5108:5117   */\n      dup3\n        /* \"#utility.yul\":5104:5122   */\n      add\n        /* \"#utility.yul\":5096:5122   */\n      swap1\n      pop\n        /* \"#utility.yul\":5132:5203   */\n      tag_201\n        /* \"#utility.yul\":5200:5201   */\n      0x00\n        /* \"#utility.yul\":5189:5198   */\n      dup4\n        /* \"#utility.yul\":5185:5202   */\n      add\n        /* \"#utility.yul\":5176:5182   */\n      dup5\n        /* \"#utility.yul\":5132:5203   */\n      tag_78\n      jump\t// in\n    tag_201:\n        /* \"#utility.yul\":4988:5210   */\n      swap3\n      swap2\n      pop\n      pop\n      jump\t// out\n        /* \"#utility.yul\":5233:5801   */\n    tag_90:\n        /* \"#utility.yul\":5306:5314   */\n      0x00\n        /* \"#utility.yul\":5316:5322   */\n      0x00\n        /* \"#utility.yul\":5366:5369   */\n      dup4\n        /* \"#utility.yul\":5359:5363   */\n      0x1f\n        /* \"#utility.yul\":5351:5357   */\n      dup5\n        /* \"#utility.yul\":5347:5364   */\n      add\n        /* \"#utility.yul\":5343:5370   */\n      slt\n        /* \"#utility.yul\":5333:5455   */\n      tag_203\n      jumpi\n        /* \"#utility.yul\":5374:5453   */\n      tag_204\n      tag_86\n      jump\t// in\n    tag_204:\n        /* \"#utility.yul\":5333:5455   */\n    tag_203:\n        /* \"#utility.yul\":5487:5493   */\n      dup3\n        /* \"#utility.yul\":5474:5494   */\n      calldataload\n        /* \"#utility.yul\":5464:5494   */\n      swap1\n      pop\n        /* \"#utility.yul\":5517:5535   */\n      0xffffffffffffffff\n        /* \"#utility.yul\":5509:5515   */\n      dup2\n        /* \"#utility.yul\":5506:5536   */\n      gt\n        /* \"#utility.yul\":5503:5620   */\n      iszero\n      tag_205\n      jumpi\n        /* \"#utility.yul\":5539:5618   */\n      tag_206\n      tag_87\n      jump\t// in\n    tag_206:\n        /* \"#utility.yul\":5503:5620   */\n    tag_205:\n        /* \"#utility.yul\":5653:5657   */\n      0x20\n        /* \"#utility.yul\":5645:5651   */\n      dup4\n        /* \"#utility.yul\":5641:5658   */\n      add\n        /* \"#utility.yul\":5629:5658   */\n      swap2\n      pop\n        /* \"#utility.yul\":5707:5710   */\n      dup4\n        /* \"#utility.yul\":5699:5703   */\n      0x20\n        /* \"#utility.yul\":5691:5697   */\n      dup3\n        /* \"#utility.yul\":5687:5704   */\n      mul\n        /* \"#utility.yul\":5677:5685   */\n      dup4\n        /* \"#utility.yul\":5673:5705   */\n      add\n        /* \"#utility.yul\":5670:5711   */\n      gt\n        /* \"#utility.yul\":5667:5795   */\n      iszero\n      tag_207\n      jumpi\n        /* \"#utility.yul\":5714:5793   */\n      tag_208\n      tag_88\n      jump\t// in\n    tag_208:\n        /* \"#utility.yul\":5667:5795   */\n    tag_207:\n        /* \"#utility.yul\":5233:5801   */\n      swap3\n      pop\n      swap3\n      swap1\n      pop\n      jump\t// out\n        /* \"#utility.yul\":5807:6366   */\n    tag_20:\n        /* \"#utility.yul\":5893:5899   */\n      0x00\n        /* \"#utility.yul\":5901:5907   */\n      0x00\n        /* \"#utility.yul\":5950:5952   */\n      0x20\n        /* \"#utility.yul\":5938:5947   */\n      dup4\n        /* \"#utility.yul\":5929:5936   */\n      dup6\n        /* \"#utility.yul\":5925:5948   */\n      sub\n        /* \"#utility.yul\":5921:5953   */\n      slt\n        /* \"#utility.yul\":5918:6037   */\n      iszero\n      tag_210\n      jumpi\n        /* \"#utility.yul\":5956:6035   */\n      tag_211\n      tag_70\n      jump\t// in\n    tag_211:\n        /* \"#utility.yul\":5918:6037   */\n    tag_210:\n        /* \"#utility.yul\":6104:6105   */\n      0x00\n        /* \"#utility.yul\":6093:6102   */\n      dup4\n        /* \"#utility.yul\":6089:6106   */\n      add\n        /* \"#utility.yul\":6076:6107   */\n      calldataload\n        /* \"#utility.yul\":6134:6152   */\n      0xffffffffffffffff\n        /* \"#utility.yul\":6126:6132   */\n      dup2\n        /* \"#utility.yul\":6123:6153   */\n      gt\n        /* \"#utility.yul\":6120:6237   */\n      iszero\n      tag_212\n      jumpi\n        /* \"#utility.yul\":6156:6235   */\n      tag_213\n      tag_71\n      jump\t// in\n    tag_213:\n        /* \"#utility.yul\":6120:6237   */\n    tag_212:\n        /* \"#utility.yul\":6269:6349   */\n      tag_214\n        /* \"#utility.yul\":6341:6348   */\n      dup6\n        /* \"#utility.yul\":6332:6338   */\n      dup3\n        /* \"#utility.yul\":6321:6330   */\n      dup7\n        /* \"#utility.yul\":6317:6339   */\n      add\n        /* \"#utility.yul\":6269:6349   */\n      tag_90\n      jump\t// in\n    tag_214:\n        /* \"#utility.yul\":6251:6349   */\n      swap3\n      pop\n      swap3\n      pop\n        /* \"#utility.yul\":6047:6359   */\n      pop\n        /* \"#utility.yul\":5807:6366   */\n      swap3\n      pop\n      swap3\n      swap1\n      pop\n      jump\t// out\n        /* \"#utility.yul\":6372:6486   */\n    tag_91:\n        /* \"#utility.yul\":6439:6445   */\n      0x00\n        /* \"#utility.yul\":6473:6478   */\n      dup2\n        /* \"#utility.yul\":6467:6479   */\n      mload\n        /* \"#utility.yul\":6457:6479   */\n      swap1\n      pop\n        /* \"#utility.yul\":6372:6486   */\n      swap2\n      swap1\n      pop\n      jump\t// out\n        /* \"#utility.yul\":6492:6676   */\n    tag_92:\n        /* \"#utility.yul\":6591:6602   */\n      0x00\n        /* \"#utility.yul\":6625:6631   */\n      dup3\n        /* \"#utility.yul\":6620:6623   */\n      dup3\n        /* \"#utility.yul\":6613:6632   */\n      mstore\n        /* \"#utility.yul\":6665:6669   */\n      0x20\n        /* \"#utility.yul\":6660:6663   */\n      dup3\n        /* \"#utility.yul\":6656:6670   */\n      add\n        /* \"#utility.yul\":6641:6670   */\n      swap1\n      pop\n        /* \"#utility.yul\":6492:6676   */\n      swap3\n      swap2\n      pop\n      pop\n      jump\t// out\n        /* \"#utility.yul\":6682:6814   */\n    tag_93:\n        /* \"#utility.yul\":6749:6753   */\n      0x00\n        /* \"#utility.yul\":6772:6775   */\n      dup2\n        /* \"#utility.yul\":6764:6775   */\n      swap1\n      pop\n        /* \"#utility.yul\":6802:6806   */\n      0x20\n        /* \"#utility.yul\":6797:6800   */\n      dup3\n        /* \"#utility.yul\":6793:6807   */\n      add\n        /* \"#utility.yul\":6785:6807   */\n      swap1\n      pop\n        /* \"#utility.yul\":6682:6814   */\n      swap2\n      swap1\n      pop\n      jump\t// out\n        /* \"#utility.yul\":6820:6928   */\n    tag_94:\n        /* \"#utility.yul\":6897:6921   */\n      tag_219\n        /* \"#utility.yul\":6915:6920   */\n      dup2\n        /* \"#utility.yul\":6897:6921   */\n      tag_76\n      jump\t// in\n    tag_219:\n        /* \"#utility.yul\":6892:6895   */\n      dup3\n        /* \"#utility.yul\":6885:6922   */\n      mstore\n        /* \"#utility.yul\":6820:6928   */\n      pop\n      pop\n      jump\t// out\n        /* \"#utility.yul\":6934:7113   */\n    tag_95:\n        /* \"#utility.yul\":7003:7013   */\n      0x00\n        /* \"#utility.yul\":7024:7070   */\n      tag_221\n        /* \"#utility.yul\":7066:7069   */\n      dup4\n        /* \"#utility.yul\":7058:7064   */\n      dup4\n        /* \"#utility.yul\":7024:7070   */\n      tag_94\n      jump\t// in\n    tag_221:\n        /* \"#utility.yul\":7102:7106   */\n      0x20\n        /* \"#utility.yul\":7097:7100   */\n      dup4\n        /* \"#utility.yul\":7093:7107   */\n      add\n        /* \"#utility.yul\":7079:7107   */\n      swap1\n      pop\n        /* \"#utility.yul\":6934:7113   */\n      swap3\n      swap2\n      pop\n      pop\n      jump\t// out\n        /* \"#utility.yul\":7119:7232   */\n    tag_96:\n        /* \"#utility.yul\":7189:7193   */\n      0x00\n        /* \"#utility.yul\":7221:7225   */\n      0x20\n        /* \"#utility.yul\":7216:7219   */\n      dup3\n        /* \"#utility.yul\":7212:7226   */\n      add\n        /* \"#utility.yul\":7204:7226   */\n      swap1\n      pop\n        /* \"#utility.yul\":7119:7232   */\n      swap2\n      swap1\n      pop\n      jump\t// out\n        /* \"#utility.yul\":7268:8000   */\n    tag_97:\n        /* \"#utility.yul\":7387:7390   */\n      0x00\n        /* \"#utility.yul\":7416:7470   */\n      tag_224\n        /* \"#utility.yul\":7464:7469   */\n      dup3\n        /* \"#utility.yul\":7416:7470   */\n      tag_91\n      jump\t// in\n    tag_224:\n        /* \"#utility.yul\":7486:7572   */\n      tag_225\n        /* \"#utility.yul\":7565:7571   */\n      dup2\n        /* \"#utility.yul\":7560:7563   */\n      dup6\n        /* \"#utility.yul\":7486:7572   */\n      tag_92\n      jump\t// in\n    tag_225:\n        /* \"#utility.yul\":7479:7572   */\n      swap4\n      pop\n        /* \"#utility.yul\":7596:7652   */\n      tag_226\n        /* \"#utility.yul\":7646:7651   */\n      dup4\n        /* \"#utility.yul\":7596:7652   */\n      tag_93\n      jump\t// in\n    tag_226:\n        /* \"#utility.yul\":7675:7682   */\n      dup1\n        /* \"#utility.yul\":7706:7707   */\n      0x00\n        /* \"#utility.yul\":7691:7975   */\n    tag_227:\n        /* \"#utility.yul\":7716:7722   */\n      dup4\n        /* \"#utility.yul\":7713:7714   */\n      dup2\n        /* \"#utility.yul\":7710:7723   */\n      lt\n        /* \"#utility.yul\":7691:7975   */\n      iszero\n      tag_229\n      jumpi\n        /* \"#utility.yul\":7792:7798   */\n      dup2\n        /* \"#utility.yul\":7786:7799   */\n      mload\n        /* \"#utility.yul\":7819:7882   */\n      tag_230\n        /* \"#utility.yul\":7878:7881   */\n      dup9\n        /* \"#utility.yul\":7863:7876   */\n      dup3\n        /* \"#utility.yul\":7819:7882   */\n      tag_95\n      jump\t// in\n    tag_230:\n        /* \"#utility.yul\":7812:7882   */\n      swap8\n      pop\n        /* \"#utility.yul\":7905:7965   */\n      tag_231\n        /* \"#utility.yul\":7958:7964   */\n      dup4\n        /* \"#utility.yul\":7905:7965   */\n      tag_96\n      jump\t// in\n    tag_231:\n        /* \"#utility.yul\":7895:7965   */\n      swap3\n      pop\n        /* \"#utility.yul\":7751:7975   */\n      pop\n        /* \"#utility.yul\":7738:7739   */\n      0x01\n        /* \"#utility.yul\":7735:7736   */\n      dup2\n        /* \"#utility.yul\":7731:7740   */\n      add\n        /* \"#utility.yul\":7726:7740   */\n      swap1\n      pop\n        /* \"#utility.yul\":7691:7975   */\n      jump(tag_227)\n    tag_229:\n        /* \"#utility.yul\":7695:7709   */\n      pop\n        /* \"#utility.yul\":7991:7994   */\n      dup6\n        /* \"#utility.yul\":7984:7994   */\n      swap4\n      pop\n        /* \"#utility.yul\":7392:8000   */\n      pop\n      pop\n      pop\n        /* \"#utility.yul\":7268:8000   */\n      swap3\n      swap2\n      pop\n      pop\n      jump\t// out\n        /* \"#utility.yul\":8006:8120   */\n    tag_98:\n        /* \"#utility.yul\":8073:8079   */\n      0x00\n        /* \"#utility.yul\":8107:8112   */\n      dup2\n        /* \"#utility.yul\":8101:8113   */\n      mload\n        /* \"#utility.yul\":8091:8113   */\n      swap1\n      pop\n        /* \"#utility.yul\":8006:8120   */\n      swap2\n      swap1\n      pop\n      jump\t// out\n        /* \"#utility.yul\":8126:8310   */\n    tag_99:\n        /* \"#utility.yul\":8225:8236   */\n      0x00\n        /* \"#utility.yul\":8259:8265   */\n      dup3\n        /* \"#utility.yul\":8254:8257   */\n      dup3\n        /* \"#utility.yul\":8247:8266   */\n      mstore\n        /* \"#utility.yul\":8299:8303   */\n      0x20\n        /* \"#utility.yul\":8294:8297   */\n      dup3\n        /* \"#utility.yul\":8290:8304   */\n      add\n        /* \"#utility.yul\":8275:8304   */\n      swap1\n      pop\n        /* \"#utility.yul\":8126:8310   */\n      swap3\n      swap2\n      pop\n      pop\n      jump\t// out\n        /* \"#utility.yul\":8316:8448   */\n    tag_100:\n        /* \"#utility.yul\":8383:8387   */\n      0x00\n        /* \"#utility.yul\":8406:8409   */\n      dup2\n        /* \"#utility.yul\":8398:8409   */\n      swap1\n      pop\n        /* \"#utility.yul\":8436:8440   */\n      0x20\n        /* \"#utility.yul\":8431:8434   */\n      dup3\n        /* \"#utility.yul\":8427:8441   */\n      add\n        /* \"#utility.yul\":8419:8441   */\n      swap1\n      pop\n        /* \"#utility.yul\":8316:8448   */\n      swap2\n      swap1\n      pop\n      jump\t// out\n        /* \"#utility.yul\":8454:8562   */\n    tag_101:\n        /* \"#utility.yul\":8531:8555   */\n      tag_236\n        /* \"#utility.yul\":8549:8554   */\n      dup2\n        /* \"#utility.yul\":8531:8555   */\n      tag_72\n      jump\t// in\n    tag_236:\n        /* \"#utility.yul\":8526:8529   */\n      dup3\n        /* \"#utility.yul\":8519:8556   */\n      mstore\n        /* \"#utility.yul\":8454:8562   */\n      pop\n      pop\n      jump\t// out\n        /* \"#utility.yul\":8568:8747   */\n    tag_102:\n        /* \"#utility.yul\":8637:8647   */\n      0x00\n        /* \"#utility.yul\":8658:8704   */\n      tag_238\n        /* \"#utility.yul\":8700:8703   */\n      dup4\n        /* \"#utility.yul\":8692:8698   */\n      dup4\n        /* \"#utility.yul\":8658:8704   */\n      tag_101\n      jump\t// in\n    tag_238:\n        /* \"#utility.yul\":8736:8740   */\n      0x20\n        /* \"#utility.yul\":8731:8734   */\n      dup4\n        /* \"#utility.yul\":8727:8741   */\n      add\n        /* \"#utility.yul\":8713:8741   */\n      swap1\n      pop\n        /* \"#utility.yul\":8568:8747   */\n      swap3\n      swap2\n      pop\n      pop\n      jump\t// out\n        /* \"#utility.yul\":8753:8866   */\n    tag_103:\n        /* \"#utility.yul\":8823:8827   */\n      0x00\n        /* \"#utility.yul\":8855:8859   */\n      0x20\n        /* \"#utility.yul\":8850:8853   */\n      dup3\n        /* \"#utility.yul\":8846:8860   */\n      add\n        /* \"#utility.yul\":8838:8860   */\n      swap1\n      pop\n        /* \"#utility.yul\":8753:8866   */\n      swap2\n      swap1\n      pop\n      jump\t// out\n        /* \"#utility.yul\":8902:9634   */\n    tag_104:\n        /* \"#utility.yul\":9021:9024   */\n      0x00\n        /* \"#utility.yul\":9050:9104   */\n      tag_241\n        /* \"#utility.yul\":9098:9103   */\n      dup3\n        /* \"#utility.yul\":9050:9104   */\n      tag_98\n      jump\t// in\n    tag_241:\n        /* \"#utility.yul\":9120:9206   */\n      tag_242\n        /* \"#utility.yul\":9199:9205   */\n      dup2\n        /* \"#utility.yul\":9194:9197   */\n      dup6\n        /* \"#utility.yul\":9120:9206   */\n      tag_99\n      jump\t// in\n    tag_242:\n        /* \"#utility.yul\":9113:9206   */\n      swap4\n      pop\n        /* \"#utility.yul\":9230:9286   */\n      tag_243\n        /* \"#utility.yul\":9280:9285   */\n      dup4\n        /* \"#utility.yul\":9230:9286   */\n      tag_100\n      jump\t// in\n    tag_243:\n        /* \"#utility.yul\":9309:9316   */\n      dup1\n        /* \"#utility.yul\":9340:9341   */\n      0x00\n        /* \"#utility.yul\":9325:9609   */\n    tag_244:\n        /* \"#utility.yul\":9350:9356   */\n      dup4\n        /* \"#utility.yul\":9347:9348   */\n      dup2\n        /* \"#utility.yul\":9344:9357   */\n      lt\n        /* \"#utility.yul\":9325:9609   */\n      iszero\n      tag_246\n      jumpi\n        /* \"#utility.yul\":9426:9432   */\n      dup2\n        /* \"#utility.yul\":9420:9433   */\n      mload\n        /* \"#utility.yul\":9453:9516   */\n      tag_247\n        /* \"#utility.yul\":9512:9515   */\n      dup9\n        /* \"#utility.yul\":9497:9510   */\n      dup3\n        /* \"#utility.yul\":9453:9516   */\n      tag_102\n      jump\t// in\n    tag_247:\n        /* \"#utility.yul\":9446:9516   */\n      swap8\n      pop\n        /* \"#utility.yul\":9539:9599   */\n      tag_248\n        /* \"#utility.yul\":9592:9598   */\n      dup4\n        /* \"#utility.yul\":9539:9599   */\n      tag_103\n      jump\t// in\n    tag_248:\n        /* \"#utility.yul\":9529:9599   */\n      swap3\n      pop\n        /* \"#utility.yul\":9385:9609   */\n      pop\n        /* \"#utility.yul\":9372:9373   */\n      0x01\n        /* \"#utility.yul\":9369:9370   */\n      dup2\n        /* \"#utility.yul\":9365:9374   */\n      add\n        /* \"#utility.yul\":9360:9374   */\n      swap1\n      pop\n        /* \"#utility.yul\":9325:9609   */\n      jump(tag_244)\n    tag_246:\n        /* \"#utility.yul\":9329:9343   */\n      pop\n        /* \"#utility.yul\":9625:9628   */\n      dup6\n        /* \"#utility.yul\":9618:9628   */\n      swap4\n      pop\n        /* \"#utility.yul\":9026:9634   */\n      pop\n      pop\n      pop\n        /* \"#utility.yul\":8902:9634   */\n      swap3\n      swap2\n      pop\n      pop\n      jump\t// out\n        /* \"#utility.yul\":9640:9763   */\n    tag_105:\n        /* \"#utility.yul\":9716:9722   */\n      0x00\n        /* \"#utility.yul\":9750:9755   */\n      dup2\n        /* \"#utility.yul\":9744:9756   */\n      mload\n        /* \"#utility.yul\":9734:9756   */\n      swap1\n      pop\n        /* \"#utility.yul\":9640:9763   */\n      swap2\n      swap1\n      pop\n      jump\t// out\n        /* \"#utility.yul\":9769:9962   */\n    tag_106:\n        /* \"#utility.yul\":9877:9888   */\n      0x00\n        /* \"#utility.yul\":9911:9917   */\n      dup3\n        /* \"#utility.yul\":9906:9909   */\n      dup3\n        /* \"#utility.yul\":9899:9918   */\n      mstore\n        /* \"#utility.yul\":9951:9955   */\n      0x20\n        /* \"#utility.yul\":9946:9949   */\n      dup3\n        /* \"#utility.yul\":9942:9956   */\n      add\n        /* \"#utility.yul\":9927:9956   */\n      swap1\n      pop\n        /* \"#utility.yul\":9769:9962   */\n      swap3\n      swap2\n      pop\n      pop\n      jump\t// out\n        /* \"#utility.yul\":9968:10109   */\n    tag_107:\n        /* \"#utility.yul\":10044:10048   */\n      0x00\n        /* \"#utility.yul\":10067:10070   */\n      dup2\n        /* \"#utility.yul\":10059:10070   */\n      swap1\n      pop\n        /* \"#utility.yul\":10097:10101   */\n      0x20\n        /* \"#utility.yul\":10092:10095   */\n      dup3\n        /* \"#utility.yul\":10088:10102   */\n      add\n        /* \"#utility.yul\":10080:10102   */\n      swap1\n      pop\n        /* \"#utility.yul\":9968:10109   */\n      swap2\n      swap1\n      pop\n      jump\t// out\n        /* \"#utility.yul\":10115:10273   */\n    tag_108:\n        /* \"#utility.yul\":10188:10199   */\n      0x00\n        /* \"#utility.yul\":10222:10228   */\n      dup3\n        /* \"#utility.yul\":10217:10220   */\n      dup3\n        /* \"#utility.yul\":10210:10229   */\n      mstore\n        /* \"#utility.yul\":10262:10266   */\n      0x20\n        /* \"#utility.yul\":10257:10260   */\n      dup3\n        /* \"#utility.yul\":10253:10267   */\n      add\n        /* \"#utility.yul\":10238:10267   */\n      swap1\n      pop\n        /* \"#utility.yul\":10115:10273   */\n      swap3\n      swap2\n      pop\n      pop\n      jump\t// out\n        /* \"#utility.yul\":10279:10632   */\n    tag_109:\n        /* \"#utility.yul\":10355:10358   */\n      0x00\n        /* \"#utility.yul\":10383:10421   */\n      tag_254\n        /* \"#utility.yul\":10415:10420   */\n      dup3\n        /* \"#utility.yul\":10383:10421   */\n      tag_79\n      jump\t// in\n    tag_254:\n        /* \"#utility.yul\":10437:10497   */\n      tag_255\n        /* \"#utility.yul\":10490:10496   */\n      dup2\n        /* \"#utility.yul\":10485:10488   */\n      dup6\n        /* \"#utility.yul\":10437:10497   */\n      tag_108\n      jump\t// in\n    tag_255:\n        /* \"#utility.yul\":10430:10497   */\n      swap4\n      pop\n        /* \"#utility.yul\":10506:10571   */\n      tag_256\n        /* \"#utility.yul\":10564:10570   */\n      dup2\n        /* \"#utility.yul\":10559:10562   */\n      dup6\n        /* \"#utility.yul\":10552:10556   */\n      0x20\n        /* \"#utility.yul\":10545:10550   */\n      dup7\n        /* \"#utility.yul\":10541:10557   */\n      add\n        /* \"#utility.yul\":10506:10571   */\n      tag_81\n      jump\t// in\n    tag_256:\n        /* \"#utility.yul\":10596:10625   */\n      tag_257\n        /* \"#utility.yul\":10618:10624   */\n      dup2\n        /* \"#utility.yul\":10596:10625   */\n      tag_82\n      jump\t// in\n    tag_257:\n        /* \"#utility.yul\":10591:10594   */\n      dup5\n        /* \"#utility.yul\":10587:10626   */\n      add\n        /* \"#utility.yul\":10580:10626   */\n      swap2\n      pop\n        /* \"#utility.yul\":10359:10632   */\n      pop\n        /* \"#utility.yul\":10279:10632   */\n      swap3\n      swap2\n      pop\n      pop\n      jump\t// out\n        /* \"#utility.yul\":10638:10830   */\n    tag_110:\n        /* \"#utility.yul\":10725:10735   */\n      0x00\n        /* \"#utility.yul\":10760:10824   */\n      tag_259\n        /* \"#utility.yul\":10820:10823   */\n      dup4\n        /* \"#utility.yul\":10812:10818   */\n      dup4\n        /* \"#utility.yul\":10760:10824   */\n      tag_109\n      jump\t// in\n    tag_259:\n        /* \"#utility.yul\":10746:10824   */\n      swap1\n      pop\n        /* \"#utility.yul\":10638:10830   */\n      swap3\n      swap2\n      pop\n      pop\n      jump\t// out\n        /* \"#utility.yul\":10836:10958   */\n    tag_111:\n        /* \"#utility.yul\":10915:10919   */\n      0x00\n        /* \"#utility.yul\":10947:10951   */\n      0x20\n        /* \"#utility.yul\":10942:10945   */\n      dup3\n        /* \"#utility.yul\":10938:10952   */\n      add\n        /* \"#utility.yul\":10930:10952   */\n      swap1\n      pop\n        /* \"#utility.yul\":10836:10958   */\n      swap2\n      swap1\n      pop\n      jump\t// out\n        /* \"#utility.yul\":10990:11973   */\n    tag_112:\n        /* \"#utility.yul\":11127:11130   */\n      0x00\n        /* \"#utility.yul\":11156:11219   */\n      tag_262\n        /* \"#utility.yul\":11213:11218   */\n      dup3\n        /* \"#utility.yul\":11156:11219   */\n      tag_105\n      jump\t// in\n    tag_262:\n        /* \"#utility.yul\":11235:11330   */\n      tag_263\n        /* \"#utility.yul\":11323:11329   */\n      dup2\n        /* \"#utility.yul\":11318:11321   */\n      dup6\n        /* \"#utility.yul\":11235:11330   */\n      tag_106\n      jump\t// in\n    tag_263:\n        /* \"#utility.yul\":11228:11330   */\n      swap4\n      pop\n        /* \"#utility.yul\":11356:11359   */\n      dup4\n        /* \"#utility.yul\":11401:11405   */\n      0x20\n        /* \"#utility.yul\":11393:11399   */\n      dup3\n        /* \"#utility.yul\":11389:11406   */\n      mul\n        /* \"#utility.yul\":11384:11387   */\n      dup6\n        /* \"#utility.yul\":11380:11407   */\n      add\n        /* \"#utility.yul\":11431:11496   */\n      tag_264\n        /* \"#utility.yul\":11490:11495   */\n      dup6\n        /* \"#utility.yul\":11431:11496   */\n      tag_107\n      jump\t// in\n    tag_264:\n        /* \"#utility.yul\":11519:11526   */\n      dup1\n        /* \"#utility.yul\":11550:11551   */\n      0x00\n        /* \"#utility.yul\":11535:11928   */\n    tag_265:\n        /* \"#utility.yul\":11560:11566   */\n      dup6\n        /* \"#utility.yul\":11557:11558   */\n      dup2\n        /* \"#utility.yul\":11554:11567   */\n      lt\n        /* \"#utility.yul\":11535:11928   */\n      iszero\n      tag_267\n      jumpi\n        /* \"#utility.yul\":11631:11640   */\n      dup5\n        /* \"#utility.yul\":11625:11629   */\n      dup5\n        /* \"#utility.yul\":11621:11641   */\n      sub\n        /* \"#utility.yul\":11616:11619   */\n      dup10\n        /* \"#utility.yul\":11609:11642   */\n      mstore\n        /* \"#utility.yul\":11682:11688   */\n      dup2\n        /* \"#utility.yul\":11676:11689   */\n      mload\n        /* \"#utility.yul\":11710:11792   */\n      tag_268\n        /* \"#utility.yul\":11787:11791   */\n      dup6\n        /* \"#utility.yul\":11772:11785   */\n      dup3\n        /* \"#utility.yul\":11710:11792   */\n      tag_110\n      jump\t// in\n    tag_268:\n        /* \"#utility.yul\":11702:11792   */\n      swap5\n      pop\n        /* \"#utility.yul\":11815:11884   */\n      tag_269\n        /* \"#utility.yul\":11877:11883   */\n      dup4\n        /* \"#utility.yul\":11815:11884   */\n      tag_111\n      jump\t// in\n    tag_269:\n        /* \"#utility.yul\":11805:11884   */\n      swap3\n      pop\n        /* \"#utility.yul\":11913:11917   */\n      0x20\n        /* \"#utility.yul\":11908:11911   */\n      dup11\n        /* \"#utility.yul\":11904:11918   */\n      add\n        /* \"#utility.yul\":11897:11918   */\n      swap10\n      pop\n        /* \"#utility.yul\":11595:11928   */\n      pop\n        /* \"#utility.yul\":11582:11583   */\n      0x01\n        /* \"#utility.yul\":11579:11580   */\n      dup2\n        /* \"#utility.yul\":11575:11584   */\n      add\n        /* \"#utility.yul\":11570:11584   */\n      swap1\n      pop\n        /* \"#utility.yul\":11535:11928   */\n      jump(tag_265)\n    tag_267:\n        /* \"#utility.yul\":11539:11553   */\n      pop\n        /* \"#utility.yul\":11944:11948   */\n      dup3\n        /* \"#utility.yul\":11937:11948   */\n      swap8\n      pop\n        /* \"#utility.yul\":11964:11967   */\n      dup8\n        /* \"#utility.yul\":11957:11967   */\n      swap6\n      pop\n        /* \"#utility.yul\":11132:11973   */\n      pop\n      pop\n      pop\n      pop\n      pop\n        /* \"#utility.yul\":10990:11973   */\n      swap3\n      swap2\n      pop\n      pop\n      jump\t// out\n        /* \"#utility.yul\":11979:12910   */\n    tag_23:\n        /* \"#utility.yul\":12296:12300   */\n      0x00\n        /* \"#utility.yul\":12334:12336   */\n      0x60\n        /* \"#utility.yul\":12323:12332   */\n      dup3\n        /* \"#utility.yul\":12319:12337   */\n      add\n        /* \"#utility.yul\":12311:12337   */\n      swap1\n      pop\n        /* \"#utility.yul\":12383:12392   */\n      dup2\n        /* \"#utility.yul\":12377:12381   */\n      dup2\n        /* \"#utility.yul\":12373:12393   */\n      sub\n        /* \"#utility.yul\":12369:12370   */\n      0x00\n        /* \"#utility.yul\":12358:12367   */\n      dup4\n        /* \"#utility.yul\":12354:12371   */\n      add\n        /* \"#utility.yul\":12347:12394   */\n      mstore\n        /* \"#utility.yul\":12411:12519   */\n      tag_271\n        /* \"#utility.yul\":12514:12518   */\n      dup2\n        /* \"#utility.yul\":12505:12511   */\n      dup7\n        /* \"#utility.yul\":12411:12519   */\n      tag_97\n      jump\t// in\n    tag_271:\n        /* \"#utility.yul\":12403:12519   */\n      swap1\n      pop\n        /* \"#utility.yul\":12566:12575   */\n      dup2\n        /* \"#utility.yul\":12560:12564   */\n      dup2\n        /* \"#utility.yul\":12556:12576   */\n      sub\n        /* \"#utility.yul\":12551:12553   */\n      0x20\n        /* \"#utility.yul\":12540:12549   */\n      dup4\n        /* \"#utility.yul\":12536:12554   */\n      add\n        /* \"#utility.yul\":12529:12577   */\n      mstore\n        /* \"#utility.yul\":12594:12702   */\n      tag_272\n        /* \"#utility.yul\":12697:12701   */\n      dup2\n        /* \"#utility.yul\":12688:12694   */\n      dup6\n        /* \"#utility.yul\":12594:12702   */\n      tag_104\n      jump\t// in\n    tag_272:\n        /* \"#utility.yul\":12586:12702   */\n      swap1\n      pop\n        /* \"#utility.yul\":12749:12758   */\n      dup2\n        /* \"#utility.yul\":12743:12747   */\n      dup2\n        /* \"#utility.yul\":12739:12759   */\n      sub\n        /* \"#utility.yul\":12734:12736   */\n      0x40\n        /* \"#utility.yul\":12723:12732   */\n      dup4\n        /* \"#utility.yul\":12719:12737   */\n      add\n        /* \"#utility.yul\":12712:12760   */\n      mstore\n        /* \"#utility.yul\":12777:12903   */\n      tag_273\n        /* \"#utility.yul\":12898:12902   */\n      dup2\n        /* \"#utility.yul\":12889:12895   */\n      dup5\n        /* \"#utility.yul\":12777:12903   */\n      tag_112\n      jump\t// in\n    tag_273:\n        /* \"#utility.yul\":12769:12903   */\n      swap1\n      pop\n        /* \"#utility.yul\":11979:12910   */\n      swap5\n      swap4\n      pop\n      pop\n      pop\n      pop\n      jump\t// out\n        /* \"#utility.yul\":12916:13096   */\n    tag_113:\n        /* \"#utility.yul\":12964:13041   */\n      0x4e487b7100000000000000000000000000000000000000000000000000000000\n        /* \"#utility.yul\":12961:12962   */\n      0x00\n        /* \"#utility.yul\":12954:13042   */\n      mstore\n        /* \"#utility.yul\":13061:13065   */\n      0x22\n        /* \"#utility.yul\":13058:13059   */\n      0x04\n        /* \"#utility.yul\":13051:13066   */\n      mstore\n        /* \"#utility.yul\":13085:13089   */\n      0x24\n        /* \"#utility.yul\":13082:13083   */\n      0x00\n        /* \"#utility.yul\":13075:13090   */\n      revert\n        /* \"#utility.yul\":13102:13422   */\n    tag_25:\n        /* \"#utility.yul\":13146:13152   */\n      0x00\n        /* \"#utility.yul\":13183:13184   */\n      0x02\n        /* \"#utility.yul\":13177:13181   */\n      dup3\n        /* \"#utility.yul\":13173:13185   */\n      div\n        /* \"#utility.yul\":13163:13185   */\n      swap1\n      pop\n        /* \"#utility.yul\":13230:13231   */\n      0x01\n        /* \"#utility.yul\":13224:13228   */\n      dup3\n        /* \"#utility.yul\":13220:13232   */\n      and\n        /* \"#utility.yul\":13251:13269   */\n      dup1\n        /* \"#utility.yul\":13241:13322   */\n      tag_276\n      jumpi\n        /* \"#utility.yul\":13307:13311   */\n      0x7f\n        /* \"#utility.yul\":13299:13305   */\n      dup3\n        /* \"#utility.yul\":13295:13312   */\n      and\n        /* \"#utility.yul\":13285:13312   */\n      swap2\n      pop\n        /* \"#utility.yul\":13241:13322   */\n    tag_276:\n        /* \"#utility.yul\":13369:13371   */\n      0x20\n        /* \"#utility.yul\":13361:13367   */\n      dup3\n        /* \"#utility.yul\":13358:13372   */\n      lt\n        /* \"#utility.yul\":13338:13356   */\n      dup2\n        /* \"#utility.yul\":13335:13373   */\n      sub\n        /* \"#utility.yul\":13332:13416   */\n      tag_277\n      jumpi\n        /* \"#utility.yul\":13388:13406   */\n      tag_278\n      tag_113\n      jump\t// in\n    tag_278:\n        /* \"#utility.yul\":13332:13416   */\n    tag_277:\n        /* \"#utility.yul\":13153:13422   */\n      pop\n        /* \"#utility.yul\":13102:13422   */\n      swap2\n      swap1\n      pop\n      jump\t// out\n        /* \"#utility.yul\":13428:13597   */\n    tag_114:\n        /* \"#utility.yul\":13512:13523   */\n      0x00\n        /* \"#utility.yul\":13546:13552   */\n      dup3\n        /* \"#utility.yul\":13541:13544   */\n      dup3\n        /* \"#utility.yul\":13534:13553   */\n      mstore\n        /* \"#utility.yul\":13586:13590   */\n      0x20\n        /* \"#utility.yul\":13581:13584   */\n      dup3\n        /* \"#utility.yul\":13577:13591   */\n      add\n        /* \"#utility.yul\":13562:13591   */\n      swap1\n      pop\n        /* \"#utility.yul\":13428:13597   */\n      swap3\n      swap2\n      pop\n      pop\n      jump\t// out\n        /* \"#utility.yul\":13603:13773   */\n    tag_115:\n        /* \"#utility.yul\":13743:13765   */\n      0x4169726e6f64652061646472657373207a65726f000000000000000000000000\n        /* \"#utility.yul\":13739:13740   */\n      0x00\n        /* \"#utility.yul\":13731:13737   */\n      dup3\n        /* \"#utility.yul\":13727:13741   */\n      add\n        /* \"#utility.yul\":13720:13766   */\n      mstore\n        /* \"#utility.yul\":13603:13773   */\n      pop\n      jump\t// out\n        /* \"#utility.yul\":13779:14145   */\n    tag_116:\n        /* \"#utility.yul\":13921:13924   */\n      0x00\n        /* \"#utility.yul\":13942:14009   */\n      tag_282\n        /* \"#utility.yul\":14006:14008   */\n      0x14\n        /* \"#utility.yul\":14001:14004   */\n      dup4\n        /* \"#utility.yul\":13942:14009   */\n      tag_114\n      jump\t// in\n    tag_282:\n        /* \"#utility.yul\":13935:14009   */\n      swap2\n      pop\n        /* \"#utility.yul\":14018:14111   */\n      tag_283\n        /* \"#utility.yul\":14107:14110   */\n      dup3\n        /* \"#utility.yul\":14018:14111   */\n      tag_115\n      jump\t// in\n    tag_283:\n        /* \"#utility.yul\":14136:14138   */\n      0x20\n        /* \"#utility.yul\":14131:14134   */\n      dup3\n        /* \"#utility.yul\":14127:14139   */\n      add\n        /* \"#utility.yul\":14120:14139   */\n      swap1\n      pop\n        /* \"#utility.yul\":13779:14145   */\n      swap2\n      swap1\n      pop\n      jump\t// out\n        /* \"#utility.yul\":14151:14570   */\n    tag_33:\n        /* \"#utility.yul\":14317:14321   */\n      0x00\n        /* \"#utility.yul\":14355:14357   */\n      0x20\n        /* \"#utility.yul\":14344:14353   */\n      dup3\n        /* \"#utility.yul\":14340:14358   */\n      add\n        /* \"#utility.yul\":14332:14358   */\n      swap1\n      pop\n        /* \"#utility.yul\":14404:14413   */\n      dup2\n        /* \"#utility.yul\":14398:14402   */\n      dup2\n        /* \"#utility.yul\":14394:14414   */\n      sub\n        /* \"#utility.yul\":14390:14391   */\n      0x00\n        /* \"#utility.yul\":14379:14388   */\n      dup4\n        /* \"#utility.yul\":14375:14392   */\n      add\n        /* \"#utility.yul\":14368:14415   */\n      mstore\n        /* \"#utility.yul\":14432:14563   */\n      tag_285\n        /* \"#utility.yul\":14558:14562   */\n      dup2\n        /* \"#utility.yul\":14432:14563   */\n      tag_116\n      jump\t// in\n    tag_285:\n        /* \"#utility.yul\":14424:14563   */\n      swap1\n      pop\n        /* \"#utility.yul\":14151:14570   */\n      swap2\n      swap1\n      pop\n      jump\t// out\n        /* \"#utility.yul\":14576:14670   */\n    tag_117:\n        /* \"#utility.yul\":14609:14617   */\n      0x00\n        /* \"#utility.yul\":14657:14662   */\n      dup2\n        /* \"#utility.yul\":14653:14655   */\n      0x60\n        /* \"#utility.yul\":14649:14663   */\n      shl\n        /* \"#utility.yul\":14628:14663   */\n      swap1\n      pop\n        /* \"#utility.yul\":14576:14670   */\n      swap2\n      swap1\n      pop\n      jump\t// out\n        /* \"#utility.yul\":14676:14770   */\n    tag_118:\n        /* \"#utility.yul\":14715:14722   */\n      0x00\n        /* \"#utility.yul\":14744:14764   */\n      tag_288\n        /* \"#utility.yul\":14758:14763   */\n      dup3\n        /* \"#utility.yul\":14744:14764   */\n      tag_117\n      jump\t// in\n    tag_288:\n        /* \"#utility.yul\":14733:14764   */\n      swap1\n      pop\n        /* \"#utility.yul\":14676:14770   */\n      swap2\n      swap1\n      pop\n      jump\t// out\n        /* \"#utility.yul\":14776:14876   */\n    tag_119:\n        /* \"#utility.yul\":14815:14822   */\n      0x00\n        /* \"#utility.yul\":14844:14870   */\n      tag_290\n        /* \"#utility.yul\":14864:14869   */\n      dup3\n        /* \"#utility.yul\":14844:14870   */\n      tag_118\n      jump\t// in\n    tag_290:\n        /* \"#utility.yul\":14833:14870   */\n      swap1\n      pop\n        /* \"#utility.yul\":14776:14876   */\n      swap2\n      swap1\n      pop\n      jump\t// out\n        /* \"#utility.yul\":14882:15039   */\n    tag_120:\n        /* \"#utility.yul\":14987:15032   */\n      tag_292\n        /* \"#utility.yul\":15007:15031   */\n      tag_293\n        /* \"#utility.yul\":15025:15030   */\n      dup3\n        /* \"#utility.yul\":15007:15031   */\n      tag_76\n      jump\t// in\n    tag_293:\n        /* \"#utility.yul\":14987:15032   */\n      tag_119\n      jump\t// in\n    tag_292:\n        /* \"#utility.yul\":14982:14985   */\n      dup3\n        /* \"#utility.yul\":14975:15033   */\n      mstore\n        /* \"#utility.yul\":14882:15039   */\n      pop\n      pop\n      jump\t// out\n        /* \"#utility.yul\":15045:15124   */\n    tag_121:\n        /* \"#utility.yul\":15084:15091   */\n      0x00\n        /* \"#utility.yul\":15113:15118   */\n      dup2\n        /* \"#utility.yul\":15102:15118   */\n      swap1\n      pop\n        /* \"#utility.yul\":15045:15124   */\n      swap2\n      swap1\n      pop\n      jump\t// out\n        /* \"#utility.yul\":15130:15287   */\n    tag_122:\n        /* \"#utility.yul\":15235:15280   */\n      tag_296\n        /* \"#utility.yul\":15255:15279   */\n      tag_297\n        /* \"#utility.yul\":15273:15278   */\n      dup3\n        /* \"#utility.yul\":15255:15279   */\n      tag_72\n      jump\t// in\n    tag_297:\n        /* \"#utility.yul\":15235:15280   */\n      tag_121\n      jump\t// in\n    tag_296:\n        /* \"#utility.yul\":15230:15233   */\n      dup3\n        /* \"#utility.yul\":15223:15281   */\n      mstore\n        /* \"#utility.yul\":15130:15287   */\n      pop\n      pop\n      jump\t// out\n        /* \"#utility.yul\":15293:15440   */\n    tag_123:\n        /* \"#utility.yul\":15394:15405   */\n      0x00\n        /* \"#utility.yul\":15431:15434   */\n      dup2\n        /* \"#utility.yul\":15416:15434   */\n      swap1\n      pop\n        /* \"#utility.yul\":15293:15440   */\n      swap3\n      swap2\n      pop\n      pop\n      jump\t// out\n        /* \"#utility.yul\":15446:15594   */\n    tag_124:\n        /* \"#utility.yul\":15544:15550   */\n      dup3\n        /* \"#utility.yul\":15539:15542   */\n      dup2\n        /* \"#utility.yul\":15534:15537   */\n      dup4\n        /* \"#utility.yul\":15521:15551   */\n      calldatacopy\n        /* \"#utility.yul\":15585:15586   */\n      0x00\n        /* \"#utility.yul\":15576:15582   */\n      dup4\n        /* \"#utility.yul\":15571:15574   */\n      dup4\n        /* \"#utility.yul\":15567:15583   */\n      add\n        /* \"#utility.yul\":15560:15587   */\n      mstore\n        /* \"#utility.yul\":15446:15594   */\n      pop\n      pop\n      pop\n      jump\t// out\n        /* \"#utility.yul\":15622:15949   */\n    tag_125:\n        /* \"#utility.yul\":15736:15739   */\n      0x00\n        /* \"#utility.yul\":15757:15845   */\n      tag_301\n        /* \"#utility.yul\":15838:15844   */\n      dup4\n        /* \"#utility.yul\":15833:15836   */\n      dup6\n        /* \"#utility.yul\":15757:15845   */\n      tag_123\n      jump\t// in\n    tag_301:\n        /* \"#utility.yul\":15750:15845   */\n      swap4\n      pop\n        /* \"#utility.yul\":15855:15911   */\n      tag_302\n        /* \"#utility.yul\":15904:15910   */\n      dup4\n        /* \"#utility.yul\":15899:15902   */\n      dup6\n        /* \"#utility.yul\":15892:15897   */\n      dup5\n        /* \"#utility.yul\":15855:15911   */\n      tag_124\n      jump\t// in\n    tag_302:\n        /* \"#utility.yul\":15936:15942   */\n      dup3\n        /* \"#utility.yul\":15931:15934   */\n      dup5\n        /* \"#utility.yul\":15927:15943   */\n      add\n        /* \"#utility.yul\":15920:15943   */\n      swap1\n      pop\n        /* \"#utility.yul\":15622:15949   */\n      swap4\n      swap3\n      pop\n      pop\n      pop\n      jump\t// out\n        /* \"#utility.yul\":15955:16528   */\n    tag_35:\n        /* \"#utility.yul\":16151:16154   */\n      0x00\n        /* \"#utility.yul\":16166:16241   */\n      tag_304\n        /* \"#utility.yul\":16237:16240   */\n      dup3\n        /* \"#utility.yul\":16228:16234   */\n      dup8\n        /* \"#utility.yul\":16166:16241   */\n      tag_120\n      jump\t// in\n    tag_304:\n        /* \"#utility.yul\":16266:16268   */\n      0x14\n        /* \"#utility.yul\":16261:16264   */\n      dup3\n        /* \"#utility.yul\":16257:16269   */\n      add\n        /* \"#utility.yul\":16250:16269   */\n      swap2\n      pop\n        /* \"#utility.yul\":16279:16354   */\n      tag_305\n        /* \"#utility.yul\":16350:16353   */\n      dup3\n        /* \"#utility.yul\":16341:16347   */\n      dup7\n        /* \"#utility.yul\":16279:16354   */\n      tag_122\n      jump\t// in\n    tag_305:\n        /* \"#utility.yul\":16379:16381   */\n      0x20\n        /* \"#utility.yul\":16374:16377   */\n      dup3\n        /* \"#utility.yul\":16370:16382   */\n      add\n        /* \"#utility.yul\":16363:16382   */\n      swap2\n      pop\n        /* \"#utility.yul\":16399:16502   */\n      tag_306\n        /* \"#utility.yul\":16498:16501   */\n      dup3\n        /* \"#utility.yul\":16489:16495   */\n      dup5\n        /* \"#utility.yul\":16481:16487   */\n      dup7\n        /* \"#utility.yul\":16399:16502   */\n      tag_125\n      jump\t// in\n    tag_306:\n        /* \"#utility.yul\":16392:16502   */\n      swap2\n      pop\n        /* \"#utility.yul\":16519:16522   */\n      dup2\n        /* \"#utility.yul\":16512:16522   */\n      swap1\n      pop\n        /* \"#utility.yul\":15955:16528   */\n      swap6\n      swap5\n      pop\n      pop\n      pop\n      pop\n      pop\n      jump\t// out\n        /* \"#utility.yul\":16534:16714   */\n    tag_43:\n        /* \"#utility.yul\":16582:16659   */\n      0x4e487b7100000000000000000000000000000000000000000000000000000000\n        /* \"#utility.yul\":16579:16580   */\n      0x00\n        /* \"#utility.yul\":16572:16660   */\n      mstore\n        /* \"#utility.yul\":16679:16683   */\n      0x41\n        /* \"#utility.yul\":16676:16677   */\n      0x04\n        /* \"#utility.yul\":16669:16684   */\n      mstore\n        /* \"#utility.yul\":16703:16707   */\n      0x24\n        /* \"#utility.yul\":16700:16701   */\n      0x00\n        /* \"#utility.yul\":16693:16708   */\n      revert\n        /* \"#utility.yul\":16720:16860   */\n    tag_126:\n        /* \"#utility.yul\":16768:16772   */\n      0x00\n        /* \"#utility.yul\":16791:16794   */\n      dup2\n        /* \"#utility.yul\":16783:16794   */\n      swap1\n      pop\n        /* \"#utility.yul\":16814:16817   */\n      dup2\n        /* \"#utility.yul\":16811:16812   */\n      0x00\n        /* \"#utility.yul\":16804:16818   */\n      mstore\n        /* \"#utility.yul\":16848:16852   */\n      0x20\n        /* \"#utility.yul\":16845:16846   */\n      0x00\n        /* \"#utility.yul\":16835:16853   */\n      keccak256\n        /* \"#utility.yul\":16827:16853   */\n      swap1\n      pop\n        /* \"#utility.yul\":16720:16860   */\n      swap2\n      swap1\n      pop\n      jump\t// out\n        /* \"#utility.yul\":16866:16959   */\n    tag_127:\n        /* \"#utility.yul\":16903:16909   */\n      0x00\n        /* \"#utility.yul\":16950:16952   */\n      0x20\n        /* \"#utility.yul\":16945:16947   */\n      0x1f\n        /* \"#utility.yul\":16938:16943   */\n      dup4\n        /* \"#utility.yul\":16934:16948   */\n      add\n        /* \"#utility.yul\":16930:16953   */\n      div\n        /* \"#utility.yul\":16920:16953   */\n      swap1\n      pop\n        /* \"#utility.yul\":16866:16959   */\n      swap2\n      swap1\n      pop\n      jump\t// out\n        /* \"#utility.yul\":16965:17072   */\n    tag_128:\n        /* \"#utility.yul\":17009:17017   */\n      0x00\n        /* \"#utility.yul\":17059:17064   */\n      dup3\n        /* \"#utility.yul\":17053:17057   */\n      dup3\n        /* \"#utility.yul\":17049:17065   */\n      shl\n        /* \"#utility.yul\":17028:17065   */\n      swap1\n      pop\n        /* \"#utility.yul\":16965:17072   */\n      swap3\n      swap2\n      pop\n      pop\n      jump\t// out\n        /* \"#utility.yul\":17078:17471   */\n    tag_129:\n        /* \"#utility.yul\":17147:17153   */\n      0x00\n        /* \"#utility.yul\":17197:17198   */\n      0x08\n        /* \"#utility.yul\":17185:17195   */\n      dup4\n        /* \"#utility.yul\":17181:17199   */\n      mul\n        /* \"#utility.yul\":17220:17317   */\n      tag_312\n        /* \"#utility.yul\":17250:17316   */\n      0xffffffffffffffffffffffffffffffffffffffffffffffffffffffffffffffff\n        /* \"#utility.yul\":17239:17248   */\n      dup3\n        /* \"#utility.yul\":17220:17317   */\n      tag_128\n      jump\t// in\n    tag_312:\n        /* \"#utility.yul\":17338:17377   */\n      tag_313\n        /* \"#utility.yul\":17368:17376   */\n      dup7\n        /* \"#utility.yul\":17357:17366   */\n      dup4\n        /* \"#utility.yul\":17338:17377   */\n      tag_128\n      jump\t// in\n    tag_313:\n        /* \"#utility.yul\":17326:17377   */\n      swap6\n      pop\n        /* \"#utility.yul\":17410:17414   */\n      dup1\n        /* \"#utility.yul\":17406:17415   */\n      not\n        /* \"#utility.yul\":17399:17404   */\n      dup5\n        /* \"#utility.yul\":17395:17416   */\n      and\n        /* \"#utility.yul\":17386:17416   */\n      swap4\n      pop\n        /* \"#utility.yul\":17459:17463   */\n      dup1\n        /* \"#utility.yul\":17449:17457   */\n      dup7\n        /* \"#utility.yul\":17445:17464   */\n      and\n        /* \"#utility.yul\":17438:17443   */\n      dup5\n        /* \"#utility.yul\":17435:17465   */\n      or\n        /* \"#utility.yul\":17425:17465   */\n      swap3\n      pop\n        /* \"#utility.yul\":17154:17471   */\n      pop\n      pop\n        /* \"#utility.yul\":17078:17471   */\n      swap4\n      swap3\n      pop\n      pop\n      pop\n      jump\t// out\n        /* \"#utility.yul\":17477:17554   */\n    tag_130:\n        /* \"#utility.yul\":17514:17521   */\n      0x00\n        /* \"#utility.yul\":17543:17548   */\n      dup2\n        /* \"#utility.yul\":17532:17548   */\n      swap1\n      pop\n        /* \"#utility.yul\":17477:17554   */\n      swap2\n      swap1\n      pop\n      jump\t// out\n        /* \"#utility.yul\":17560:17620   */\n    tag_131:\n        /* \"#utility.yul\":17588:17591   */\n      0x00\n        /* \"#utility.yul\":17609:17614   */\n      dup2\n        /* \"#utility.yul\":17602:17614   */\n      swap1\n      pop\n        /* \"#utility.yul\":17560:17620   */\n      swap2\n      swap1\n      pop\n      jump\t// out\n        /* \"#utility.yul\":17626:17768   */\n    tag_132:\n        /* \"#utility.yul\":17676:17685   */\n      0x00\n        /* \"#utility.yul\":17709:17762   */\n      tag_317\n        /* \"#utility.yul\":17727:17761   */\n      tag_318\n        /* \"#utility.yul\":17736:17760   */\n      tag_319\n        /* \"#utility.yul\":17754:17759   */\n      dup5\n        /* \"#utility.yul\":17736:17760   */\n      tag_130\n      jump\t// in\n    tag_319:\n        /* \"#utility.yul\":17727:17761   */\n      tag_131\n      jump\t// in\n    tag_318:\n        /* \"#utility.yul\":17709:17762   */\n      tag_130\n      jump\t// in\n    tag_317:\n        /* \"#utility.yul\":17696:17762   */\n      swap1\n      pop\n        /* \"#utility.yul\":17626:17768   */\n      swap2\n      swap1\n      pop\n      jump\t// out\n        /* \"#utility.yul\":17774:17849   */\n    tag_133:\n        /* \"#utility.yul\":17817:17820   */\n      0x00\n        /* \"#utility.yul\":17838:17843   */\n      dup2\n        /* \"#utility.yul\":17831:17843   */\n      swap1\n      pop\n        /* \"#utility.yul\":17774:17849   */\n      swap2\n      swap1\n      pop\n      jump\t// out\n        /* \"#utility.yul\":17855:18124   */\n    tag_134:\n        /* \"#utility.yul\":17965:18004   */\n      tag_322\n        /* \"#utility.yul\":17996:18003   */\n      dup4\n        /* \"#utility.yul\":17965:18004   */\n      tag_132\n      jump\t// in\n    tag_322:\n        /* \"#utility.yul\":18026:18117   */\n      tag_323\n        /* \"#utility.yul\":18075:18116   */\n      tag_324\n        /* \"#utility.yul\":18099:18115   */\n      dup3\n        /* \"#utility.yul\":18075:18116   */\n      tag_133\n      jump\t// in\n    tag_324:\n        /* \"#utility.yul\":18067:18073   */\n      dup5\n        /* \"#utility.yul\":18060:18064   */\n      dup5\n        /* \"#utility.yul\":18054:18065   */\n      sload\n        /* \"#utility.yul\":18026:18117   */\n      tag_129\n      jump\t// in\n    tag_323:\n        /* \"#utility.yul\":18020:18024   */\n      dup3\n        /* \"#utility.yul\":18013:18118   */\n      sstore\n        /* \"#utility.yul\":17931:18124   */\n      pop\n        /* \"#utility.yul\":17855:18124   */\n      pop\n      pop\n      pop\n      jump\t// out\n        /* \"#utility.yul\":18130:18203   */\n    tag_135:\n        /* \"#utility.yul\":18175:18178   */\n      0x00\n        /* \"#utility.yul\":18196:18197   */\n      0x00\n        /* \"#utility.yul\":18189:18197   */\n      swap1\n      pop\n        /* \"#utility.yul\":18130:18203   */\n      swap1\n      jump\t// out\n        /* \"#utility.yul\":18209:18398   */\n    tag_136:\n        /* \"#utility.yul\":18286:18318   */\n      tag_327\n      tag_135\n      jump\t// in\n    tag_327:\n        /* \"#utility.yul\":18327:18392   */\n      tag_328\n        /* \"#utility.yul\":18385:18391   */\n      dup2\n        /* \"#utility.yul\":18377:18383   */\n      dup5\n        /* \"#utility.yul\":18371:18375   */\n      dup5\n        /* \"#utility.yul\":18327:18392   */\n      tag_134\n      jump\t// in\n    tag_328:\n        /* \"#utility.yul\":18262:18398   */\n      pop\n        /* \"#utility.yul\":18209:18398   */\n      pop\n      pop\n      jump\t// out\n        /* \"#utility.yul\":18404:18590   */\n    tag_137:\n        /* \"#utility.yul\":18464:18584   */\n    tag_330:\n        /* \"#utility.yul\":18481:18484   */\n      dup2\n        /* \"#utility.yul\":18474:18479   */\n      dup2\n        /* \"#utility.yul\":18471:18485   */\n      lt\n        /* \"#utility.yul\":18464:18584   */\n      iszero\n      tag_332\n      jumpi\n        /* \"#utility.yul\":18535:18574   */\n      tag_333\n        /* \"#utility.yul\":18572:18573   */\n      0x00\n        /* \"#utility.yul\":18565:18570   */\n      dup3\n        /* \"#utility.yul\":18535:18574   */\n      tag_136\n      jump\t// in\n    tag_333:\n        /* \"#utility.yul\":18508:18509   */\n      0x01\n        /* \"#utility.yul\":18501:18506   */\n      dup2\n        /* \"#utility.yul\":18497:18510   */\n      add\n        /* \"#utility.yul\":18488:18510   */\n      swap1\n      pop\n        /* \"#utility.yul\":18464:18584   */\n      jump(tag_330)\n    tag_332:\n        /* \"#utility.yul\":18404:18590   */\n      pop\n      pop\n      jump\t// out\n        /* \"#utility.yul\":18596:19137   */\n    tag_138:\n        /* \"#utility.yul\":18696:18698   */\n      0x1f\n        /* \"#utility.yul\":18691:18694   */\n      dup3\n        /* \"#utility.yul\":18688:18699   */\n      gt\n        /* \"#utility.yul\":18685:19130   */\n      iszero\n      tag_335\n      jumpi\n        /* \"#utility.yul\":18730:18767   */\n      tag_336\n        /* \"#utility.yul\":18761:18766   */\n      dup2\n        /* \"#utility.yul\":18730:18767   */\n      tag_126\n      jump\t// in\n    tag_336:\n        /* \"#utility.yul\":18813:18842   */\n      tag_337\n        /* \"#utility.yul\":18831:18841   */\n      dup5\n        /* \"#utility.yul\":18813:18842   */\n      tag_127\n      jump\t// in\n    tag_337:\n        /* \"#utility.yul\":18803:18811   */\n      dup2\n        /* \"#utility.yul\":18799:18843   */\n      add\n        /* \"#utility.yul\":18996:18998   */\n      0x20\n        /* \"#utility.yul\":18984:18994   */\n      dup6\n        /* \"#utility.yul\":18981:18999   */\n      lt\n        /* \"#utility.yul\":18978:19027   */\n      iszero\n      tag_338\n      jumpi\n        /* \"#utility.yul\":19017:19025   */\n      dup2\n        /* \"#utility.yul\":19002:19025   */\n      swap1\n      pop\n        /* \"#utility.yul\":18978:19027   */\n    tag_338:\n        /* \"#utility.yul\":19040:19120   */\n      tag_339\n        /* \"#utility.yul\":19096:19118   */\n      tag_340\n        /* \"#utility.yul\":19114:19117   */\n      dup6\n        /* \"#utility.yul\":19096:19118   */\n      tag_127\n      jump\t// in\n    tag_340:\n        /* \"#utility.yul\":19086:19094   */\n      dup4\n        /* \"#utility.yul\":19082:19119   */\n      add\n        /* \"#utility.yul\":19069:19080   */\n      dup3\n        /* \"#utility.yul\":19040:19120   */\n      tag_137\n      jump\t// in\n    tag_339:\n        /* \"#utility.yul\":18700:19130   */\n      pop\n      pop\n        /* \"#utility.yul\":18685:19130   */\n    tag_335:\n        /* \"#utility.yul\":18596:19137   */\n      pop\n      pop\n      pop\n      jump\t// out\n        /* \"#utility.yul\":19143:19260   */\n    tag_139:\n        /* \"#utility.yul\":19197:19205   */\n      0x00\n        /* \"#utility.yul\":19247:19252   */\n      dup3\n        /* \"#utility.yul\":19241:19245   */\n      dup3\n        /* \"#utility.yul\":19237:19253   */\n      shr\n        /* \"#utility.yul\":19216:19253   */\n      swap1\n      pop\n        /* \"#utility.yul\":19143:19260   */\n      swap3\n      swap2\n      pop\n      pop\n      jump\t// out\n        /* \"#utility.yul\":19266:19435   */\n    tag_140:\n        /* \"#utility.yul\":19310:19316   */\n      0x00\n        /* \"#utility.yul\":19343:19394   */\n      tag_343\n        /* \"#utility.yul\":19391:19392   */\n      0x00\n        /* \"#utility.yul\":19387:19393   */\n      not\n        /* \"#utility.yul\":19379:19384   */\n      dup5\n        /* \"#utility.yul\":19376:19377   */\n      0x08\n        /* \"#utility.yul\":19372:19385   */\n      mul\n        /* \"#utility.yul\":19343:19394   */\n      tag_139\n      jump\t// in\n    tag_343:\n        /* \"#utility.yul\":19339:19395   */\n      not\n        /* \"#utility.yul\":19424:19428   */\n      dup1\n        /* \"#utility.yul\":19418:19422   */\n      dup4\n        /* \"#utility.yul\":19414:19429   */\n      and\n        /* \"#utility.yul\":19404:19429   */\n      swap2\n      pop\n        /* \"#utility.yul\":19317:19435   */\n      pop\n        /* \"#utility.yul\":19266:19435   */\n      swap3\n      swap2\n      pop\n      pop\n      jump\t// out\n        /* \"#utility.yul\":19440:19735   */\n    tag_141:\n        /* \"#utility.yul\":19516:19520   */\n      0x00\n        /* \"#utility.yul\":19662:19691   */\n      tag_345\n        /* \"#utility.yul\":19687:19690   */\n      dup4\n        /* \"#utility.yul\":19681:19685   */\n      dup4\n        /* \"#utility.yul\":19662:19691   */\n      tag_140\n      jump\t// in\n    tag_345:\n        /* \"#utility.yul\":19654:19691   */\n      swap2\n      pop\n        /* \"#utility.yul\":19724:19727   */\n      dup3\n        /* \"#utility.yul\":19721:19722   */\n      0x02\n        /* \"#utility.yul\":19717:19728   */\n      mul\n        /* \"#utility.yul\":19711:19715   */\n      dup3\n        /* \"#utility.yul\":19708:19729   */\n      or\n        /* \"#utility.yul\":19700:19729   */\n      swap1\n      pop\n        /* \"#utility.yul\":19440:19735   */\n      swap3\n      swap2\n      pop\n      pop\n      jump\t// out\n        /* \"#utility.yul\":19740:21130   */\n    tag_37:\n        /* \"#utility.yul\":19855:19891   */\n      tag_347\n        /* \"#utility.yul\":19887:19890   */\n      dup3\n        /* \"#utility.yul\":19855:19891   */\n      tag_79\n      jump\t// in\n    tag_347:\n        /* \"#utility.yul\":19956:19974   */\n      0xffffffffffffffff\n        /* \"#utility.yul\":19948:19954   */\n      dup2\n        /* \"#utility.yul\":19945:19975   */\n      gt\n        /* \"#utility.yul\":19942:19998   */\n      iszero\n      tag_348\n      jumpi\n        /* \"#utility.yul\":19978:19996   */\n      tag_349\n      tag_43\n      jump\t// in\n    tag_349:\n        /* \"#utility.yul\":19942:19998   */\n    tag_348:\n        /* \"#utility.yul\":20022:20060   */\n      tag_350\n        /* \"#utility.yul\":20054:20058   */\n      dup3\n        /* \"#utility.yul\":20048:20059   */\n      sload\n        /* \"#utility.yul\":20022:20060   */\n      tag_25\n      jump\t// in\n    tag_350:\n        /* \"#utility.yul\":20107:20173   */\n      tag_351\n        /* \"#utility.yul\":20166:20172   */\n      dup3\n        /* \"#utility.yul\":20158:20164   */\n      dup3\n        /* \"#utility.yul\":20152:20156   */\n      dup6\n        /* \"#utility.yul\":20107:20173   */\n      tag_138\n      jump\t// in\n    tag_351:\n        /* \"#utility.yul\":20200:20201   */\n      0x00\n        /* \"#utility.yul\":20224:20228   */\n      0x20\n        /* \"#utility.yul\":20211:20228   */\n      swap1\n      pop\n        /* \"#utility.yul\":20256:20258   */\n      0x1f\n        /* \"#utility.yul\":20248:20254   */\n      dup4\n        /* \"#utility.yul\":20245:20259   */\n      gt\n        /* \"#utility.yul\":20273:20274   */\n      0x01\n        /* \"#utility.yul\":20268:20885   */\n      dup2\n      eq\n      tag_353\n      jumpi\n        /* \"#utility.yul\":20929:20930   */\n      0x00\n        /* \"#utility.yul\":20946:20952   */\n      dup5\n        /* \"#utility.yul\":20943:21020   */\n      iszero\n      tag_354\n      jumpi\n        /* \"#utility.yul\":20995:21004   */\n      dup3\n        /* \"#utility.yul\":20990:20993   */\n      dup8\n        /* \"#utility.yul\":20986:21005   */\n      add\n        /* \"#utility.yul\":20980:21006   */\n      mload\n        /* \"#utility.yul\":20971:21006   */\n      swap1\n      pop\n        /* \"#utility.yul\":20943:21020   */\n    tag_354:\n        /* \"#utility.yul\":21046:21113   */\n      tag_355\n        /* \"#utility.yul\":21106:21112   */\n      dup6\n        /* \"#utility.yul\":21099:21104   */\n      dup3\n        /* \"#utility.yul\":21046:21113   */\n      tag_141\n      jump\t// in\n    tag_355:\n        /* \"#utility.yul\":21040:21044   */\n      dup7\n        /* \"#utility.yul\":21033:21114   */\n      sstore\n        /* \"#utility.yul\":20902:21124   */\n      pop\n        /* \"#utility.yul\":20238:21124   */\n      jump(tag_352)\n        /* \"#utility.yul\":20268:20885   */\n    tag_353:\n        /* \"#utility.yul\":20320:20324   */\n      0x1f\n        /* \"#utility.yul\":20316:20325   */\n      not\n        /* \"#utility.yul\":20308:20314   */\n      dup5\n        /* \"#utility.yul\":20304:20326   */\n      and\n        /* \"#utility.yul\":20354:20390   */\n      tag_356\n        /* \"#utility.yul\":20385:20389   */\n      dup7\n        /* \"#utility.yul\":20354:20390   */\n      tag_126\n      jump\t// in\n    tag_356:\n        /* \"#utility.yul\":20412:20413   */\n      0x00\n        /* \"#utility.yul\":20426:20634   */\n    tag_357:\n        /* \"#utility.yul\":20440:20447   */\n      dup3\n        /* \"#utility.yul\":20437:20438   */\n      dup2\n        /* \"#utility.yul\":20434:20448   */\n      lt\n        /* \"#utility.yul\":20426:20634   */\n      iszero\n      tag_359\n      jumpi\n        /* \"#utility.yul\":20519:20528   */\n      dup5\n        /* \"#utility.yul\":20514:20517   */\n      dup10\n        /* \"#utility.yul\":20510:20529   */\n      add\n        /* \"#utility.yul\":20504:20530   */\n      mload\n        /* \"#utility.yul\":20496:20502   */\n      dup3\n        /* \"#utility.yul\":20489:20531   */\n      sstore\n        /* \"#utility.yul\":20570:20571   */\n      0x01\n        /* \"#utility.yul\":20562:20568   */\n      dup3\n        /* \"#utility.yul\":20558:20572   */\n      add\n        /* \"#utility.yul\":20548:20572   */\n      swap2\n      pop\n        /* \"#utility.yul\":20617:20619   */\n      0x20\n        /* \"#utility.yul\":20606:20615   */\n      dup6\n        /* \"#utility.yul\":20602:20620   */\n      add\n        /* \"#utility.yul\":20589:20620   */\n      swap5\n      pop\n        /* \"#utility.yul\":20463:20467   */\n      0x20\n        /* \"#utility.yul\":20460:20461   */\n      dup2\n        /* \"#utility.yul\":20456:20468   */\n      add\n        /* \"#utility.yul\":20451:20468   */\n      swap1\n      pop\n        /* \"#utility.yul\":20426:20634   */\n      jump(tag_357)\n    tag_359:\n        /* \"#utility.yul\":20662:20668   */\n      dup7\n        /* \"#utility.yul\":20653:20660   */\n      dup4\n        /* \"#utility.yul\":20650:20669   */\n      lt\n        /* \"#utility.yul\":20647:20826   */\n      iszero\n      tag_360\n      jumpi\n        /* \"#utility.yul\":20720:20729   */\n      dup5\n        /* \"#utility.yul\":20715:20718   */\n      dup10\n        /* \"#utility.yul\":20711:20730   */\n      add\n        /* \"#utility.yul\":20705:20731   */\n      mload\n        /* \"#utility.yul\":20763:20811   */\n      tag_361\n        /* \"#utility.yul\":20805:20809   */\n      0x1f\n        /* \"#utility.yul\":20797:20803   */\n      dup10\n        /* \"#utility.yul\":20793:20810   */\n      and\n        /* \"#utility.yul\":20782:20791   */\n      dup3\n        /* \"#utility.yul\":20763:20811   */\n      tag_140\n      jump\t// in\n    tag_361:\n        /* \"#utility.yul\":20755:20761   */\n      dup4\n        /* \"#utility.yul\":20748:20812   */\n      sstore\n        /* \"#utility.yul\":20670:20826   */\n      pop\n        /* \"#utility.yul\":20647:20826   */\n    tag_360:\n        /* \"#utility.yul\":20872:20873   */\n      0x01\n        /* \"#utility.yul\":20868:20869   */\n      0x02\n        /* \"#utility.yul\":20860:20866   */\n      dup9\n        /* \"#utility.yul\":20856:20870   */\n      mul\n        /* \"#utility.yul\":20852:20874   */\n      add\n        /* \"#utility.yul\":20846:20850   */\n      dup9\n        /* \"#utility.yul\":20839:20875   */\n      sstore\n        /* \"#utility.yul\":20275:20885   */\n      pop\n      pop\n      pop\n        /* \"#utility.yul\":20238:21124   */\n    tag_352:\n      pop\n        /* \"#utility.yul\":19830:21130   */\n      pop\n      pop\n      pop\n        /* \"#utility.yul\":19740:21130   */\n      pop\n      pop\n      jump\t// out\n        /* \"#utility.yul\":21158:21472   */\n    tag_142:\n        /* \"#utility.yul\":21254:21257   */\n      0x00\n        /* \"#utility.yul\":21275:21345   */\n      tag_363\n        /* \"#utility.yul\":21338:21344   */\n      dup4\n        /* \"#utility.yul\":21333:21336   */\n      dup6\n        /* \"#utility.yul\":21275:21345   */\n      tag_80\n      jump\t// in\n    tag_363:\n        /* \"#utility.yul\":21268:21345   */\n      swap4\n      pop\n        /* \"#utility.yul\":21355:21411   */\n      tag_364\n        /* \"#utility.yul\":21404:21410   */\n      dup4\n        /* \"#utility.yul\":21399:21402   */\n      dup6\n        /* \"#utility.yul\":21392:21397   */\n      dup5\n        /* \"#utility.yul\":21355:21411   */\n      tag_124\n      jump\t// in\n    tag_364:\n        /* \"#utility.yul\":21436:21465   */\n      tag_365\n        /* \"#utility.yul\":21458:21464   */\n      dup4\n        /* \"#utility.yul\":21436:21465   */\n      tag_82\n      jump\t// in\n    tag_365:\n        /* \"#utility.yul\":21431:21434   */\n      dup5\n        /* \"#utility.yul\":21427:21466   */\n      add\n        /* \"#utility.yul\":21420:21466   */\n      swap1\n      pop\n        /* \"#utility.yul\":21158:21472   */\n      swap4\n      swap3\n      pop\n      pop\n      pop\n      jump\t// out\n        /* \"#utility.yul\":21478:22027   */\n    tag_39:\n        /* \"#utility.yul\":21655:21659   */\n      0x00\n        /* \"#utility.yul\":21693:21695   */\n      0x60\n        /* \"#utility.yul\":21682:21691   */\n      dup3\n        /* \"#utility.yul\":21678:21696   */\n      add\n        /* \"#utility.yul\":21670:21696   */\n      swap1\n      pop\n        /* \"#utility.yul\":21706:21777   */\n      tag_367\n        /* \"#utility.yul\":21774:21775   */\n      0x00\n        /* \"#utility.yul\":21763:21772   */\n      dup4\n        /* \"#utility.yul\":21759:21776   */\n      add\n        /* \"#utility.yul\":21750:21756   */\n      dup8\n        /* \"#utility.yul\":21706:21777   */\n      tag_77\n      jump\t// in\n    tag_367:\n        /* \"#utility.yul\":21787:21859   */\n      tag_368\n        /* \"#utility.yul\":21855:21857   */\n      0x20\n        /* \"#utility.yul\":21844:21853   */\n      dup4\n        /* \"#utility.yul\":21840:21858   */\n      add\n        /* \"#utility.yul\":21831:21837   */\n      dup7\n        /* \"#utility.yul\":21787:21859   */\n      tag_78\n      jump\t// in\n    tag_368:\n        /* \"#utility.yul\":21906:21915   */\n      dup2\n        /* \"#utility.yul\":21900:21904   */\n      dup2\n        /* \"#utility.yul\":21896:21916   */\n      sub\n        /* \"#utility.yul\":21891:21893   */\n      0x40\n        /* \"#utility.yul\":21880:21889   */\n      dup4\n        /* \"#utility.yul\":21876:21894   */\n      add\n        /* \"#utility.yul\":21869:21917   */\n      mstore\n        /* \"#utility.yul\":21934:22020   */\n      tag_369\n        /* \"#utility.yul\":22015:22019   */\n      dup2\n        /* \"#utility.yul\":22006:22012   */\n      dup5\n        /* \"#utility.yul\":21998:22004   */\n      dup7\n        /* \"#utility.yul\":21934:22020   */\n      tag_142\n      jump\t// in\n    tag_369:\n        /* \"#utility.yul\":21926:22020   */\n      swap1\n      pop\n        /* \"#utility.yul\":21478:22027   */\n      swap6\n      swap5\n      pop\n      pop\n      pop\n      pop\n      pop\n      jump\t// out\n        /* \"#utility.yul\":22033:22213   */\n    tag_57:\n        /* \"#utility.yul\":22081:22158   */\n      0x4e487b7100000000000000000000000000000000000000000000000000000000\n        /* \"#utility.yul\":22078:22079   */\n      0x00\n        /* \"#utility.yul\":22071:22159   */\n      mstore\n        /* \"#utility.yul\":22178:22182   */\n      0x32\n        /* \"#utility.yul\":22175:22176   */\n      0x04\n        /* \"#utility.yul\":22168:22183   */\n      mstore\n        /* \"#utility.yul\":22202:22206   */\n      0x24\n        /* \"#utility.yul\":22199:22200   */\n      0x00\n        /* \"#utility.yul\":22192:22207   */\n      revert\n\n    auxdata: 0xa2646970667358221220c42c4f90f2970084fc1e349cb39d8e1493cdb2ea2df18b5e87c3f511d83be2d064736f6c634300081c0033\n}\n",
				"bytecode": {
					"linkReferences": {},
					"object": "6080604052348015600e575f5ffd5b506110e58061001c5f395ff3fe608060405234801561000f575f5ffd5b506004361061003f575f3560e01c80630a6315761461004357806332393f2b1461007557806376428c9b146100a5575b5f5ffd5b61005d6004803603810190610058919061062e565b6100d7565b60405161006c93929190610717565b60405180910390f35b61008f600480360381019061008a91906107de565b6101a1565b60405161009c919061084f565b60405180910390f35b6100bf60048036038101906100ba91906108bd565b610370565b6040516100ce93929190610b79565b60405180910390f35b5f602052805f5260405f205f91509050805f015f9054906101000a900473ffffffffffffffffffffffffffffffffffffffff169080600101549080600201805461012090610bf0565b80601f016020809104026020016040519081016040528092919081815260200182805461014c90610bf0565b80156101975780601f1061016e57610100808354040283529160200191610197565b820191905f5260205f20905b81548152906001019060200180831161017a57829003601f168201915b5050505050905083565b5f5f73ffffffffffffffffffffffffffffffffffffffff168573ffffffffffffffffffffffffffffffffffffffff1603610210576040517f08c379a000000000000000000000000000000000000000000000000000000000815260040161020790610c7a565b60405180910390fd5b848484846040516020016102279493929190610d39565b60405160208183030381529060405280519060200120905060405180606001604052808673ffffffffffffffffffffffffffffffffffffffff16815260200185815260200184848080601f0160208091040260200160405190810160405280939291908181526020018383808284375f81840152601f19601f820116905080830192505050505050508152505f5f8381526020019081526020015f205f820151815f015f6101000a81548173ffffffffffffffffffffffffffffffffffffffff021916908373ffffffffffffffffffffffffffffffffffffffff1602179055506020820151816001015560408201518160020190816103269190610f49565b50905050807fba204bad31c4ec4b9b54164af94ae10c4e7312f22c0f9c065d6319c928ec9e7a868686866040516103609493929190611044565b60405180910390a2949350505050565b60608060608484905067ffffffffffffffff81111561039257610391610d73565b5b6040519080825280602002602001820160405280156103c05781602001602082028036833780820191505090505b5092508484905067ffffffffffffffff8111156103e0576103df610d73565b5b60405190808252806020026020018201604052801561040e5781602001602082028036833780820191505090505b5091508484905067ffffffffffffffff81111561042e5761042d610d73565b5b60405190808252806020026020018201604052801561046157816020015b606081526020019060019003908161044c5790505b5090505f5f90505b858590508110156105eb575f5f5f88888581811061048a57610489611082565b5b9050602002013581526020019081526020015f209050805f015f9054906101000a900473ffffffffffffffffffffffffffffffffffffffff168583815181106104d6576104d5611082565b5b602002602001019073ffffffffffffffffffffffffffffffffffffffff16908173ffffffffffffffffffffffffffffffffffffffff1681525050806001015484838151811061052857610527611082565b5b60200260200101818152505080600201805461054390610bf0565b80601f016020809104026020016040519081016040528092919081815260200182805461056f90610bf0565b80156105ba5780601f10610591576101008083540402835291602001916105ba565b820191905f5260205f20905b81548152906001019060200180831161059d57829003601f168201915b50505050508383815181106105d2576105d1611082565b5b6020026020010181905250508080600101915050610469565b509250925092565b5f5ffd5b5f5ffd5b5f819050919050565b61060d816105fb565b8114610617575f5ffd5b50565b5f8135905061062881610604565b92915050565b5f60208284031215610643576106426105f3565b5b5f6106508482850161061a565b91505092915050565b5f73ffffffffffffffffffffffffffffffffffffffff82169050919050565b5f61068282610659565b9050919050565b61069281610678565b82525050565b6106a1816105fb565b82525050565b5f81519050919050565b5f82825260208201905092915050565b8281835e5f83830152505050565b5f601f19601f8301169050919050565b5f6106e9826106a7565b6106f381856106b1565b93506107038185602086016106c1565b61070c816106cf565b840191505092915050565b5f60608201905061072a5f830186610689565b6107376020830185610698565b818103604083015261074981846106df565b9050949350505050565b61075c81610678565b8114610766575f5ffd5b50565b5f8135905061077781610753565b92915050565b5f5ffd5b5f5ffd5b5f5ffd5b5f5f83601f84011261079e5761079d61077d565b5b8235905067ffffffffffffffff8111156107bb576107ba610781565b5b6020830191508360018202830111156107d7576107d6610785565b5b9250929050565b5f5f5f5f606085870312156107f6576107f56105f3565b5b5f61080387828801610769565b94505060206108148782880161061a565b935050604085013567ffffffffffffffff811115610835576108346105f7565b5b61084187828801610789565b925092505092959194509250565b5f6020820190506108625f830184610698565b92915050565b5f5f83601f84011261087d5761087c61077d565b5b8235905067ffffffffffffffff81111561089a57610899610781565b5b6020830191508360208202830111156108b6576108b5610785565b5b9250929050565b5f5f602083850312156108d3576108d26105f3565b5b5f83013567ffffffffffffffff8111156108f0576108ef6105f7565b5b6108fc85828601610868565b92509250509250929050565b5f81519050919050565b5f82825260208201905092915050565b5f819050602082019050919050565b61093a81610678565b82525050565b5f61094b8383610931565b60208301905092915050565b5f602082019050919050565b5f61096d82610908565b6109778185610912565b935061098283610922565b805f5b838110156109b25781516109998882610940565b97506109a483610957565b925050600181019050610985565b5085935050505092915050565b5f81519050919050565b5f82825260208201905092915050565b5f819050602082019050919050565b6109f1816105fb565b82525050565b5f610a0283836109e8565b60208301905092915050565b5f602082019050919050565b5f610a24826109bf565b610a2e81856109c9565b9350610a39836109d9565b805f5b83811015610a69578151610a5088826109f7565b9750610a5b83610a0e565b925050600181019050610a3c565b5085935050505092915050565b5f81519050919050565b5f82825260208201905092915050565b5f819050602082019050919050565b5f82825260208201905092915050565b5f610ab9826106a7565b610ac38185610a9f565b9350610ad38185602086016106c1565b610adc816106cf565b840191505092915050565b5f610af28383610aaf565b905092915050565b5f602082019050919050565b5f610b1082610a76565b610b1a8185610a80565b935083602082028501610b2c85610a90565b805f5b85811015610b675784840389528151610b488582610ae7565b9450610b5383610afa565b925060208a01995050600181019050610b2f565b50829750879550505050505092915050565b5f6060820190508181035f830152610b918186610963565b90508181036020830152610ba58185610a1a565b90508181036040830152610bb98184610b06565b9050949350505050565b7f4e487b71000000000000000000000000000000000000000000000000000000005f52602260045260245ffd5b5f6002820490506001821680610c0757607f821691505b602082108103610c1a57610c19610bc3565b5b50919050565b5f82825260208201905092915050565b7f4169726e6f64652061646472657373207a65726f0000000000000000000000005f82015250565b5f610c64601483610c20565b9150610c6f82610c30565b602082019050919050565b5f6020820190508181035f830152610c9181610c58565b9050919050565b5f8160601b9050919050565b5f610cae82610c98565b9050919050565b5f610cbf82610ca4565b9050919050565b610cd7610cd282610678565b610cb5565b82525050565b5f819050919050565b610cf7610cf2826105fb565b610cdd565b82525050565b5f81905092915050565b828183375f83830152505050565b5f610d208385610cfd565b9350610d2d838584610d07565b82840190509392505050565b5f610d448287610cc6565b601482019150610d548286610ce6565b602082019150610d65828486610d15565b915081905095945050505050565b7f4e487b71000000000000000000000000000000000000000000000000000000005f52604160045260245ffd5b5f819050815f5260205f209050919050565b5f6020601f8301049050919050565b5f82821b905092915050565b5f60088302610dfc7fffffffffffffffffffffffffffffffffffffffffffffffffffffffffffffffff82610dc1565b610e068683610dc1565b95508019841693508086168417925050509392505050565b5f819050919050565b5f819050919050565b5f610e4a610e45610e4084610e1e565b610e27565b610e1e565b9050919050565b5f819050919050565b610e6383610e30565b610e77610e6f82610e51565b848454610dcd565b825550505050565b5f5f905090565b610e8e610e7f565b610e99818484610e5a565b505050565b5b81811015610ebc57610eb15f82610e86565b600181019050610e9f565b5050565b601f821115610f0157610ed281610da0565b610edb84610db2565b81016020851015610eea578190505b610efe610ef685610db2565b830182610e9e565b50505b505050565b5f82821c905092915050565b5f610f215f1984600802610f06565b1980831691505092915050565b5f610f398383610f12565b9150826002028217905092915050565b610f52826106a7565b67ffffffffffffffff811115610f6b57610f6a610d73565b5b610f758254610bf0565b610f80828285610ec0565b5f60209050601f831160018114610fb1575f8415610f9f578287015190505b610fa98582610f2e565b865550611010565b601f198416610fbf86610da0565b5f5b82811015610fe657848901518255600182019150602085019450602081019050610fc1565b868310156110035784890151610fff601f891682610f12565b8355505b6001600288020188555050505b505050505050565b5f61102383856106b1565b9350611030838584610d07565b611039836106cf565b840190509392505050565b5f6060820190506110575f830187610689565b6110646020830186610698565b8181036040830152611077818486611018565b905095945050505050565b7f4e487b71000000000000000000000000000000000000000000000000000000005f52603260045260245ffdfea2646970667358221220c42c4f90f2970084fc1e349cb39d8e1493cdb2ea2df18b5e87c3f511d83be2d064736f6c634300081c0033",
					"opcodes": "PUSH1 0x80 PUSH1 0x40 MSTORE CALLVALUE DUP1 ISZERO PUSH1 0xE JUMPI PUSH0 PUSH0 REVERT JUMPDEST POP PUSH2 0x10E5 DUP1 PUSH2 0x1C PUSH0 CODECOPY PUSH0 RETURN INVALID PUSH1 0x80 PUSH1 0x40 MSTORE CALLVALUE DUP1 ISZERO PUSH2 0xF JUMPI PUSH0 PUSH0 REVERT JUMPDEST POP PUSH1 0x4 CALLDATASIZE LT PUSH2 0x3F JUMPI PUSH0 CALLDATALOAD PUSH1 0xE0 SHR DUP1 PUSH4 0xA631576 EQ PUSH2 0x43 JUMPI DUP1 PUSH4 0x32393F2B EQ PUSH2 0x75 JUMPI DUP1 PUSH4 0x76428C9B EQ PUSH2 0xA5 JUMPI JUMPDEST PUSH0 PUSH0 REVERT JUMPDEST PUSH2 0x5D PUSH1 0x4 DUP1 CALLDATASIZE SUB DUP2 ADD SWAP1 PUSH2 0x58 SWAP2 SWAP1 PUSH2 0x62E JUMP JUMPDEST PUSH2 0xD7 JUMP JUMPDEST PUSH1 0x40 MLOAD PUSH2 0x6C SWAP4 SWAP3 SWAP2 SWAP1 PUSH2 0x717 JUMP JUMPDEST PUSH1 0x40 MLOAD DUP1 SWAP2 SUB SWAP1 RETURN JUMPDEST PUSH2 0x8F PUSH1 0x4 DUP1 CALLDATASIZE SUB DUP2 ADD SWAP1 PUSH2 0x8A SWAP2 SWAP1 PUSH2 0x7DE JUMP JUMPDEST PUSH2 0x1A1 JUMP JUMPDEST PUSH1 0x40 MLOAD PUSH2 0x9C SWAP2 SWAP1 PUSH2 0x84F JUMP JUMPDEST PUSH1 0x40 MLOAD DUP1 SWAP2 SUB SWAP1 RETURN JUMPDEST PUSH2 0xBF PUSH1 0x4 DUP1 CALLDATASIZE SUB DUP2 ADD SWAP1 PUSH2 0xBA SWAP2 SWAP1 PUSH2 0x8BD JUMP JUMPDEST PUSH2 0x370 JUMP JUMPDEST PUSH1 0x40 MLOAD PUSH2 0xCE SWAP4 SWAP3 SWAP2 SWAP1 PUSH2 0xB79 JUMP JUMPDEST PUSH1 0x40 MLOAD DUP1 SWAP2 SUB SWAP1 RETURN JUMPDEST PUSH0 PUSH1 0x20 MSTORE DUP1 PUSH0 MSTORE PUSH1 0x40 PUSH0 KECCAK256 PUSH0 SWAP2 POP SWAP1 POP DUP1 PUSH0 ADD PUSH0 SWAP1 SLOAD SWAP1 PUSH2 0x100 EXP SWAP1 DIV PUSH20 0xFFFFFFFFFFFFFFFFFFFFFFFFFFFFFFFFFFFFFFFF AND SWAP1 DUP1 PUSH1 0x1 ADD SLOAD SWAP1 DUP1 PUSH1 0x2 ADD DUP1 SLOAD PUSH2 0x120 SWAP1 PUSH2 0xBF0 JUMP JUMPDEST DUP1 PUSH1 0x1F ADD PUSH1 0x20 DUP1 SWAP2 DIV MUL PUSH1 0x20 ADD PUSH1 0x40 MLOAD SWAP1 DUP2 ADD PUSH1 0x40 MSTORE DUP1 SWAP3 SWAP2 SWAP1 DUP2 DUP2 MSTORE PUSH1 0x20 ADD DUP3 DUP1 SLOAD PUSH2 0x14C SWAP1 PUSH2 0xBF0 JUMP JUMPDEST DUP1 ISZERO PUSH2 0x197 JUMPI DUP1 PUSH1 0x1F LT PUSH2 0x16E JUMPI PUSH2 0x100 DUP1 DUP4 SLOAD DIV MUL DUP4 MSTORE SWAP2 PUSH1 0x20 ADD SWAP2 PUSH2 0x197 JUMP JUMPDEST DUP3 ADD SWAP2 SWAP1 PUSH0 MSTORE PUSH1 0x20 PUSH0 KECCAK256 SWAP1 JUMPDEST DUP2 SLOAD DUP2 MSTORE SWAP1 PUSH1 0x1 ADD SWAP1 PUSH1 0x20 ADD DUP1 DUP4 GT PUSH2 0x17A JUMPI DUP3 SWAP1 SUB PUSH1 0x1F AND DUP3 ADD SWAP2 JUMPDEST POP POP POP POP POP SWAP1 POP DUP4 JUMP JUMPDEST PUSH0 PUSH0 PUSH20 0xFFFFFFFFFFFFFFFFFFFFFFFFFFFFFFFFFFFFFFFF AND DUP6 PUSH20 0xFFFFFFFFFFFFFFFFFFFFFFFFFFFFFFFFFFFFFFFF AND SUB PUSH2 0x210 JUMPI PUSH1 0x40 MLOAD PUSH32 0x8C379A000000000000000000000000000000000000000000000000000000000 DUP2 MSTORE PUSH1 0x4 ADD PUSH2 0x207 SWAP1 PUSH2 0xC7A JUMP JUMPDEST PUSH1 0x40 MLOAD DUP1 SWAP2 SUB SWAP1 REVERT JUMPDEST DUP5 DUP5 DUP5 DUP5 PUSH1 0x40 MLOAD PUSH1 0x20 ADD PUSH2 0x227 SWAP5 SWAP4 SWAP3 SWAP2 SWAP1 PUSH2 0xD39 JUMP JUMPDEST PUSH1 0x40 MLOAD PUSH1 0x20 DUP2 DUP4 SUB SUB DUP2 MSTORE SWAP1 PUSH1 0x40 MSTORE DUP1 MLOAD SWAP1 PUSH1 0x20 ADD KECCAK256 SWAP1 POP PUSH1 0x40 MLOAD DUP1 PUSH1 0x60 ADD PUSH1 0x40 MSTORE DUP1 DUP7 PUSH20 0xFFFFFFFFFFFFFFFFFFFFFFFFFFFFFFFFFFFFFFFF AND DUP2 MSTORE PUSH1 0x20 ADD DUP6 DUP2 MSTORE PUSH1 0x20 ADD DUP5 DUP5 DUP1 DUP1 PUSH1 0x1F ADD PUSH1 0x20 DUP1 SWAP2 DIV MUL PUSH1 0x20 ADD PUSH1 0x40 MLOAD SWAP1 DUP2 ADD PUSH1 0x40 MSTORE DUP1 SWAP4 SWAP3 SWAP2 SWAP1 DUP2 DUP2 MSTORE PUSH1 0x20 ADD DUP4 DUP4 DUP1 DUP3 DUP5 CALLDATACOPY PUSH0 DUP2 DUP5 ADD MSTORE PUSH1 0x1F NOT PUSH1 0x1F DUP3 ADD AND SWAP1 POP DUP1 DUP4 ADD SWAP3 POP POP POP POP POP POP POP DUP2 MSTORE POP PUSH0 PUSH0 DUP4 DUP2 MSTORE PUSH1 0x20 ADD SWAP1 DUP2 MSTORE PUSH1 0x20 ADD PUSH0 KECCAK256 PUSH0 DUP3 ADD MLOAD DUP2 PUSH0 ADD PUSH0 PUSH2 0x100 EXP DUP2 SLOAD DUP2 PUSH20 0xFFFFFFFFFFFFFFFFFFFFFFFFFFFFFFFFFFFFFFFF MUL NOT AND SWAP1 DUP4 PUSH20 0xFFFFFFFFFFFFFFFFFFFFFFFFFFFFFFFFFFFFFFFF AND MUL OR SWAP1 SSTORE POP PUSH1 0x20 DUP3 ADD MLOAD DUP2 PUSH1 0x1 ADD SSTORE PUSH1 0x40 DUP3 ADD MLOAD DUP2 PUSH1 0x2 ADD SWAP1 DUP2 PUSH2 0x326 SWAP2 SWAP1 PUSH2 0xF49 JUMP JUMPDEST POP SWAP1 POP POP DUP1 PUSH32 0xBA204BAD31C4EC4B9B54164AF94AE10C4E7312F22C0F9C065D6319C928EC9E7A DUP7 DUP7 DUP7 DUP7 PUSH1 0x40 MLOAD PUSH2 0x360 SWAP5 SWAP4 SWAP3 SWAP2 SWAP1 PUSH2 0x1044 JUMP JUMPDEST PUSH1 0x40 MLOAD DUP1 SWAP2 SUB SWAP1 LOG2 SWAP5 SWAP4 POP POP POP POP JUMP JUMPDEST PUSH1 0x60 DUP1 PUSH1 0x60 DUP5 DUP5 SWAP1 POP PUSH8 0xFFFFFFFFFFFFFFFF DUP2 GT ISZERO PUSH2 0x392 JUMPI PUSH2 0x391 PUSH2 0xD73 JUMP JUMPDEST JUMPDEST PUSH1 0x40 MLOAD SWAP1 DUP1 DUP3 MSTORE DUP1 PUSH1 0x20 MUL PUSH1 0x20 ADD DUP3 ADD PUSH1 0x40 MSTORE DUP1 ISZERO PUSH2 0x3C0 JUMPI DUP2 PUSH1 0x20 ADD PUSH1 0x20 DUP3 MUL DUP1 CALLDATASIZE DUP4 CALLDATACOPY DUP1 DUP3 ADD SWAP2 POP POP SWAP1 POP JUMPDEST POP SWAP3 POP DUP5 DUP5 SWAP1 POP PUSH8 0xFFFFFFFFFFFFFFFF DUP2 GT ISZERO PUSH2 0x3E0 JUMPI PUSH2 0x3DF PUSH2 0xD73 JUMP JUMPDEST JUMPDEST PUSH1 0x40 MLOAD SWAP1 DUP1 DUP3 MSTORE DUP1 PUSH1 0x20 MUL PUSH1 0x20 ADD DUP3 ADD PUSH1 0x40 MSTORE DUP1 ISZERO PUSH2 0x40E JUMPI DUP2 PUSH1 0x20 ADD PUSH1 0x20 DUP3 MUL DUP1 CALLDATASIZE DUP4 CALLDATACOPY DUP1 DUP3 ADD SWAP2 POP POP SWAP1 POP JUMPDEST POP SWAP2 POP DUP5 DUP5 SWAP1 POP PUSH8 0xFFFFFFFFFFFFFFFF DUP2 GT ISZERO PUSH2 0x42E JUMPI PUSH2 0x42D PUSH2 0xD73 JUMP JUMPDEST JUMPDEST PUSH1 0x40 MLOAD SWAP1 DUP1 DUP3 MSTORE DUP1 PUSH1 0x20 MUL PUSH1 0x20 ADD DUP3 ADD PUSH1 0x40 MSTORE DUP1 ISZERO PUSH2 0x461 JUMPI DUP2 PUSH1 0x20 ADD JUMPDEST PUSH1 0x60 DUP2 MSTORE PUSH1 0x20 ADD SWAP1 PUSH1 0x1 SWAP1 SUB SWAP1 DUP2 PUSH2 0x44C JUMPI SWAP1 POP JUMPDEST POP SWAP1 POP PUSH0 PUSH0 SWAP1 POP JUMPDEST DUP6 DUP6 SWAP1 POP DUP2 LT ISZERO PUSH2 0x5EB JUMPI PUSH0 PUSH0 PUSH0 DUP9 DUP9 DUP6 DUP2 DUP2 LT PUSH2 0x48A JUMPI PUSH2 0x489 PUSH2 0x1082 JUMP JUMPDEST JUMPDEST SWAP1 POP PUSH1 0x20 MUL ADD CALLDATALOAD DUP2 MSTORE PUSH1 0x20 ADD SWAP1 DUP2 MSTORE PUSH1 0x20 ADD PUSH0 KECCAK256 SWAP1 POP DUP1 PUSH0 ADD PUSH0 SWAP1 SLOAD SWAP1 PUSH2 0x100 EXP SWAP1 DIV PUSH20 0xFFFFFFFFFFFFFFFFFFFFFFFFFFFFFFFFFFFFFFFF AND DUP6 DUP4 DUP2 MLOAD DUP2 LT PUSH2 0x4D6 JUMPI PUSH2 0x4D5 PUSH2 0x1082 JUMP JUMPDEST JUMPDEST PUSH1 0x20 MUL PUSH1 0x20 ADD ADD SWAP1 PUSH20 0xFFFFFFFFFFFFFFFFFFFFFFFFFFFFFFFFFFFFFFFF AND SWAP1 DUP2 PUSH20 0xFFFFFFFFFFFFFFFFFFFFFFFFFFFFFFFFFFFFFFFF AND DUP2 MSTORE POP POP DUP1 PUSH1 0x1 ADD SLOAD DUP5 DUP4 DUP2 MLOAD DUP2 LT PUSH2 0x528 JUMPI PUSH2 0x527 PUSH2 0x1082 JUMP JUMPDEST JUMPDEST PUSH1 0x20 MUL PUSH1 0x20 ADD ADD DUP2 DUP2 MSTORE POP POP DUP1 PUSH1 0x2 ADD DUP1 SLOAD PUSH2 0x543 SWAP1 PUSH2 0xBF0 JUMP JUMPDEST DUP1 PUSH1 0x1F ADD PUSH1 0x20 DUP1 SWAP2 DIV MUL PUSH1 0x20 ADD PUSH1 0x40 MLOAD SWAP1 DUP2 ADD PUSH1 0x40 MSTORE DUP1 SWAP3 SWAP2 SWAP1 DUP2 DUP2 MSTORE PUSH1 0x20 ADD DUP3 DUP1 SLOAD PUSH2 0x56F SWAP1 PUSH2 0xBF0 JUMP JUMPDEST DUP1 ISZERO PUSH2 0x5BA JUMPI DUP1 PUSH1 0x1F LT PUSH2 0x591 JUMPI PUSH2 0x100 DUP1 DUP4 SLOAD DIV MUL DUP4 MSTORE SWAP2 PUSH1 0x20 ADD SWAP2 PUSH2 0x5BA JUMP JUMPDEST DUP3 ADD SWAP2 SWAP1 PUSH0 MSTORE PUSH1 0x20 PUSH0 KECCAK256 SWAP1 JUMPDEST DUP2 SLOAD DUP2 MSTORE SWAP1 PUSH1 0x1 ADD SWAP1 PUSH1 0x20 ADD DUP1 DUP4 GT PUSH2 0x59D JUMPI DUP3 SWAP1 SUB PUSH1 0x1F AND DUP3 ADD SWAP2 JUMPDEST POP POP POP POP POP DUP4 DUP4 DUP2 MLOAD DUP2 LT PUSH2 0x5D2 JUMPI PUSH2 0x5D1 PUSH2 0x1082 JUMP JUMPDEST JUMPDEST PUSH1 0x20 MUL PUSH1 0x20 ADD ADD DUP2 SWAP1 MSTORE POP POP DUP1 DUP1 PUSH1 0x1 ADD SWAP2 POP POP PUSH2 0x469 JUMP JUMPDEST POP SWAP3 POP SWAP3 POP SWAP3 JUMP JUMPDEST PUSH0 PUSH0 REVERT JUMPDEST PUSH0 PUSH0 REVERT JUMPDEST PUSH0 DUP2 SWAP1 POP SWAP2 SWAP1 POP JUMP JUMPDEST PUSH2 0x60D DUP2 PUSH2 0x5FB JUMP JUMPDEST DUP2 EQ PUSH2 0x617 JUMPI PUSH0 PUSH0 REVERT JUMPDEST POP JUMP JUMPDEST PUSH0 DUP2 CALLDATALOAD SWAP1 POP PUSH2 0x628 DUP2 PUSH2 0x604 JUMP JUMPDEST SWAP3 SWAP2 POP POP JUMP JUMPDEST PUSH0 PUSH1 0x20 DUP3 DUP5 SUB SLT ISZERO PUSH2 0x643 JUMPI PUSH2 0x642 PUSH2 0x5F3 JUMP JUMPDEST JUMPDEST PUSH0 PUSH2 0x650 DUP5 DUP3 DUP6 ADD PUSH2 0x61A JUMP JUMPDEST SWAP2 POP POP SWAP3 SWAP2 POP POP JUMP JUMPDEST PUSH0 PUSH20 0xFFFFFFFFFFFFFFFFFFFFFFFFFFFFFFFFFFFFFFFF DUP3 AND SWAP1 POP SWAP2 SWAP1 POP JUMP JUMPDEST PUSH0 PUSH2 0x682 DUP3 PUSH2 0x659 JUMP JUMPDEST SWAP1 POP SWAP2 SWAP1 POP JUMP JUMPDEST PUSH2 0x692 DUP2 PUSH2 0x678 JUMP JUMPDEST DUP3 MSTORE POP POP JUMP JUMPDEST PUSH2 0x6A1 DUP2 PUSH2 0x5FB JUMP JUMPDEST DUP3 MSTORE POP POP JUMP JUMPDEST PUSH0 DUP2 MLOAD SWAP1 POP SWAP2 SWAP1 POP JUMP JUMPDEST PUSH0 DUP3 DUP3 MSTORE PUSH1 0x20 DUP3 ADD SWAP1 POP SWAP3 SWAP2 POP POP JUMP JUMPDEST DUP3 DUP2 DUP4 MCOPY PUSH0 DUP4 DUP4 ADD MSTORE POP POP POP JUMP JUMPDEST PUSH0 PUSH1 0x1F NOT PUSH1 0x1F DUP4 ADD AND SWAP1 POP SWAP2 SWAP1 POP JUMP JUMPDEST PUSH0 PUSH2 0x6E9 DUP3 PUSH2 0x6A7 JUMP JUMPDEST PUSH2 0x6F3 DUP2 DUP6 PUSH2 0x6B1 JUMP JUMPDEST SWAP4 POP PUSH2 0x703 DUP2 DUP6 PUSH1 0x20 DUP7 ADD PUSH2 0x6C1 JUMP JUMPDEST PUSH2 0x70C DUP2 PUSH2 0x6CF JUMP JUMPDEST DUP5 ADD SWAP2 POP POP SWAP3 SWAP2 POP POP JUMP JUMPDEST PUSH0 PUSH1 0x60 DUP3 ADD SWAP1 POP PUSH2 0x72A PUSH0 DUP4 ADD DUP7 PUSH2 0x689 JUMP JUMPDEST PUSH2 0x737 PUSH1 0x20 DUP4 ADD DUP6 PUSH2 0x698 JUMP JUMPDEST DUP2 DUP2 SUB PUSH1 0x40 DUP4 ADD MSTORE PUSH2 0x749 DUP2 DUP5 PUSH2 0x6DF JUMP JUMPDEST SWAP1 POP SWAP5 SWAP4 POP POP POP POP JUMP JUMPDEST PUSH2 0x75C DUP2 PUSH2 0x678 JUMP JUMPDEST DUP2 EQ PUSH2 0x766 JUMPI PUSH0 PUSH0 REVERT JUMPDEST POP JUMP JUMPDEST PUSH0 DUP2 CALLDATALOAD SWAP1 POP PUSH2 0x777 DUP2 PUSH2 0x753 JUMP JUMPDEST SWAP3 SWAP2 POP POP JUMP JUMPDEST PUSH0 PUSH0 REVERT JUMPDEST PUSH0 PUSH0 REVERT JUMPDEST PUSH0 PUSH0 REVERT JUMPDEST PUSH0 PUSH0 DUP4 PUSH1 0x1F DUP5 ADD SLT PUSH2 0x79E JUMPI PUSH2 0x79D PUSH2 0x77D JUMP JUMPDEST JUMPDEST DUP3 CALLDATALOAD SWAP1 POP PUSH8 0xFFFFFFFFFFFFFFFF DUP2 GT ISZERO PUSH2 0x7BB JUMPI PUSH2 0x7BA PUSH2 0x781 JUMP JUMPDEST JUMPDEST PUSH1 0x20 DUP4 ADD SWAP2 POP DUP4 PUSH1 0x1 DUP3 MUL DUP4 ADD GT ISZERO PUSH2 0x7D7 JUMPI PUSH2 0x7D6 PUSH2 0x785 JUMP JUMPDEST JUMPDEST SWAP3 POP SWAP3 SWAP1 POP JUMP JUMPDEST PUSH0 PUSH0 PUSH0 PUSH0 PUSH1 0x60 DUP6 DUP8 SUB SLT ISZERO PUSH2 0x7F6 JUMPI PUSH2 0x7F5 PUSH2 0x5F3 JUMP JUMPDEST JUMPDEST PUSH0 PUSH2 0x803 DUP8 DUP3 DUP9 ADD PUSH2 0x769 JUMP JUMPDEST SWAP5 POP POP PUSH1 0x20 PUSH2 0x814 DUP8 DUP3 DUP9 ADD PUSH2 0x61A JUMP JUMPDEST SWAP4 POP POP PUSH1 0x40 DUP6 ADD CALLDATALOAD PUSH8 0xFFFFFFFFFFFFFFFF DUP2 GT ISZERO PUSH2 0x835 JUMPI PUSH2 0x834 PUSH2 0x5F7 JUMP JUMPDEST JUMPDEST PUSH2 0x841 DUP8 DUP3 DUP9 ADD PUSH2 0x789 JUMP JUMPDEST SWAP3 POP SWAP3 POP POP SWAP3 SWAP6 SWAP2 SWAP5 POP SWAP3 POP JUMP JUMPDEST PUSH0 PUSH1 0x20 DUP3 ADD SWAP1 POP PUSH2 0x862 PUSH0 DUP4 ADD DUP5 PUSH2 0x698 JUMP JUMPDEST SWAP3 SWAP2 POP POP JUMP JUMPDEST PUSH0 PUSH0 DUP4 PUSH1 0x1F DUP5 ADD SLT PUSH2 0x87D JUMPI PUSH2 0x87C PUSH2 0x77D JUMP JUMPDEST JUMPDEST DUP3 CALLDATALOAD SWAP1 POP PUSH8 0xFFFFFFFFFFFFFFFF DUP2 GT ISZERO PUSH2 0x89A JUMPI PUSH2 0x899 PUSH2 0x781 JUMP JUMPDEST JUMPDEST PUSH1 0x20 DUP4 ADD SWAP2 POP DUP4 PUSH1 0x20 DUP3 MUL DUP4 ADD GT ISZERO PUSH2 0x8B6 JUMPI PUSH2 0x8B5 PUSH2 0x785 JUMP JUMPDEST JUMPDEST SWAP3 POP SWAP3 SWAP1 POP JUMP JUMPDEST PUSH0 PUSH0 PUSH1 0x20 DUP4 DUP6 SUB SLT ISZERO PUSH2 0x8D3 JUMPI PUSH2 0x8D2 PUSH2 0x5F3 JUMP JUMPDEST JUMPDEST PUSH0 DUP4 ADD CALLDATALOAD PUSH8 0xFFFFFFFFFFFFFFFF DUP2 GT ISZERO PUSH2 0x8F0 JUMPI PUSH2 0x8EF PUSH2 0x5F7 JUMP JUMPDEST JUMPDEST PUSH2 0x8FC DUP6 DUP3 DUP7 ADD PUSH2 0x868 JUMP JUMPDEST SWAP3 POP SWAP3 POP POP SWAP3 POP SWAP3 SWAP1 POP JUMP JUMPDEST PUSH0 DUP2 MLOAD SWAP1 POP SWAP2 SWAP1 POP JUMP JUMPDEST PUSH0 DUP3 DUP3 MSTORE PUSH1 0x20 DUP3 ADD SWAP1 POP SWAP3 SWAP2 POP POP JUMP JUMPDEST PUSH0 DUP2 SWAP1 POP PUSH1 0x20 DUP3 ADD SWAP1 POP SWAP2 SWAP1 POP JUMP JUMPDEST PUSH2 0x93A DUP2 PUSH2 0x678 JUMP JUMPDEST DUP3 MSTORE POP POP JUMP JUMPDEST PUSH0 PUSH2 0x94B DUP4 DUP4 PUSH2 0x931 JUMP JUMPDEST PUSH1 0x20 DUP4 ADD SWAP1 POP SWAP3 SWAP2 POP POP JUMP JUMPDEST PUSH0 PUSH1 0x20 DUP3 ADD SWAP1 POP SWAP2 SWAP1 POP JUMP JUMPDEST PUSH0 PUSH2 0x96D DUP3 PUSH2 0x908 JUMP JUMPDEST PUSH2 0x977 DUP2 DUP6 PUSH2 0x912 JUMP JUMPDEST SWAP4 POP PUSH2 0x982 DUP4 PUSH2 0x922 JUMP JUMPDEST DUP1 PUSH0 JUMPDEST DUP4 DUP2 LT ISZERO PUSH2 0x9B2 JUMPI DUP2 MLOAD PUSH2 0x999 DUP9 DUP3 PUSH2 0x940 JUMP JUMPDEST SWAP8 POP PUSH2 0x9A4 DUP4 PUSH2 0x957 JUMP JUMPDEST SWAP3 POP POP PUSH1 0x1 DUP2 ADD SWAP1 POP PUSH2 0x985 JUMP JUMPDEST POP DUP6 SWAP4 POP POP POP POP SWAP3 SWAP2 POP POP JUMP JUMPDEST PUSH0 DUP2 MLOAD SWAP1 POP SWAP2 SWAP1 POP JUMP JUMPDEST PUSH0 DUP3 DUP3 MSTORE PUSH1 0x20 DUP3 ADD SWAP1 POP SWAP3 SWAP2 POP POP JUMP JUMPDEST PUSH0 DUP2 SWAP1 POP PUSH1 0x20 DUP3 ADD SWAP1 POP SWAP2 SWAP1 POP JUMP JUMPDEST PUSH2 0x9F1 DUP2 PUSH2 0x5FB JUMP JUMPDEST DUP3 MSTORE POP POP JUMP JUMPDEST PUSH0 PUSH2 0xA02 DUP4 DUP4 PUSH2 0x9E8 JUMP JUMPDEST PUSH1 0x20 DUP4 ADD SWAP1 POP SWAP3 SWAP2 POP POP JUMP JUMPDEST PUSH0 PUSH1 0x20 DUP3 ADD SWAP1 POP SWAP2 SWAP1 POP JUMP JUMPDEST PUSH0 PUSH2 0xA24 DUP3 PUSH2 0x9BF JUMP JUMPDEST PUSH2 0xA2E DUP2 DUP6 PUSH2 0x9C9 JUMP JUMPDEST SWAP4 POP PUSH2 0xA39 DUP4 PUSH2 0x9D9 JUMP JUMPDEST DUP1 PUSH0 JUMPDEST DUP4 DUP2 LT ISZERO PUSH2 0xA69 JUMPI DUP2 MLOAD PUSH2 0xA50 DUP9 DUP3 PUSH2 0x9F7 JUMP JUMPDEST SWAP8 POP PUSH2 0xA5B DUP4 PUSH2 0xA0E JUMP JUMPDEST SWAP3 POP POP PUSH1 0x1 DUP2 ADD SWAP1 POP PUSH2 0xA3C JUMP JUMPDEST POP DUP6 SWAP4 POP POP POP POP SWAP3 SWAP2 POP POP JUMP JUMPDEST PUSH0 DUP2 MLOAD SWAP1 POP SWAP2 SWAP1 POP JUMP JUMPDEST PUSH0 DUP3 DUP3 MSTORE PUSH1 0x20 DUP3 ADD SWAP1 POP SWAP3 SWAP2 POP POP JUMP JUMPDEST PUSH0 DUP2 SWAP1 POP PUSH1 0x20 DUP3 ADD SWAP1 POP SWAP2 SWAP1 POP JUMP JUMPDEST PUSH0 DUP3 DUP3 MSTORE PUSH1 0x20 DUP3 ADD SWAP1 POP SWAP3 SWAP2 POP POP JUMP JUMPDEST PUSH0 PUSH2 0xAB9 DUP3 PUSH2 0x6A7 JUMP JUMPDEST PUSH2 0xAC3 DUP2 DUP6 PUSH2 0xA9F JUMP JUMPDEST SWAP4 POP PUSH2 0xAD3 DUP2 DUP6 PUSH1 0x20 DUP7 ADD PUSH2 0x6C1 JUMP JUMPDEST PUSH2 0xADC DUP2 PUSH2 0x6CF JUMP JUMPDEST DUP5 ADD SWAP2 POP POP SWAP3 SWAP2 POP POP JUMP JUMPDEST PUSH0 PUSH2 0xAF2 DUP4 DUP4 PUSH2 0xAAF JUMP JUMPDEST SWAP1 POP SWAP3 SWAP2 POP POP JUMP JUMPDEST PUSH0 PUSH1 0x20 DUP3 ADD SWAP1 POP SWAP2 SWAP1 POP JUMP JUMPDEST PUSH0 PUSH2 0xB10 DUP3 PUSH2 0xA76 JUMP JUMPDEST PUSH2 0xB1A DUP2 DUP6 PUSH2 0xA80 JUMP JUMPDEST SWAP4 POP DUP4 PUSH1 0x20 DUP3 MUL DUP6 ADD PUSH2 0xB2C DUP6 PUSH2 0xA90 JUMP JUMPDEST DUP1 PUSH0 JUMPDEST DUP6 DUP2 LT ISZERO PUSH2 0xB67 JUMPI DUP5 DUP5 SUB DUP10 MSTORE DUP2 MLOAD PUSH2 0xB48 DUP6 DUP3 PUSH2 0xAE7 JUMP JUMPDEST SWAP5 POP PUSH2 0xB53 DUP4 PUSH2 0xAFA JUMP JUMPDEST SWAP3 POP PUSH1 0x20 DUP11 ADD SWAP10 POP POP PUSH1 0x1 DUP2 ADD SWAP1 POP PUSH2 0xB2F JUMP JUMPDEST POP DUP3 SWAP8 POP DUP8 SWAP6 POP POP POP POP POP POP SWAP3 SWAP2 POP POP JUMP JUMPDEST PUSH0 PUSH1 0x60 DUP3 ADD SWAP1 POP DUP2 DUP2 SUB PUSH0 DUP4 ADD MSTORE PUSH2 0xB91 DUP2 DUP7 PUSH2 0x963 JUMP JUMPDEST SWAP1 POP DUP2 DUP2 SUB PUSH1 0x20 DUP4 ADD MSTORE PUSH2 0xBA5 DUP2 DUP6 PUSH2 0xA1A JUMP JUMPDEST SWAP1 POP DUP2 DUP2 SUB PUSH1 0x40 DUP4 ADD MSTORE PUSH2 0xBB9 DUP2 DUP5 PUSH2 0xB06 JUMP JUMPDEST SWAP1 POP SWAP5 SWAP4 POP POP POP POP JUMP JUMPDEST PUSH32 0x4E487B7100000000000000000000000000000000000000000000000000000000 PUSH0 MSTORE PUSH1 0x22 PUSH1 0x4 MSTORE PUSH1 0x24 PUSH0 REVERT JUMPDEST PUSH0 PUSH1 0x2 DUP3 DIV SWAP1 POP PUSH1 0x1 DUP3 AND DUP1 PUSH2 0xC07 JUMPI PUSH1 0x7F DUP3 AND SWAP2 POP JUMPDEST PUSH1 0x20 DUP3 LT DUP2 SUB PUSH2 0xC1A JUMPI PUSH2 0xC19 PUSH2 0xBC3 JUMP JUMPDEST JUMPDEST POP SWAP2 SWAP1 POP JUMP JUMPDEST PUSH0 DUP3 DUP3 MSTORE PUSH1 0x20 DUP3 ADD SWAP1 POP SWAP3 SWAP2 POP POP JUMP JUMPDEST PUSH32 0x4169726E6F64652061646472657373207A65726F000000000000000000000000 PUSH0 DUP3 ADD MSTORE POP JUMP JUMPDEST PUSH0 PUSH2 0xC64 PUSH1 0x14 DUP4 PUSH2 0xC20 JUMP JUMPDEST SWAP2 POP PUSH2 0xC6F DUP3 PUSH2 0xC30 JUMP JUMPDEST PUSH1 0x20 DUP3 ADD SWAP1 POP SWAP2 SWAP1 POP JUMP JUMPDEST PUSH0 PUSH1 0x20 DUP3 ADD SWAP1 POP DUP2 DUP2 SUB PUSH0 DUP4 ADD MSTORE PUSH2 0xC91 DUP2 PUSH2 0xC58 JUMP JUMPDEST SWAP1 POP SWAP2 SWAP1 POP JUMP JUMPDEST PUSH0 DUP2 PUSH1 0x60 SHL SWAP1 POP SWAP2 SWAP1 POP JUMP JUMPDEST PUSH0 PUSH2 0xCAE DUP3 PUSH2 0xC98 JUMP JUMPDEST SWAP1 POP SWAP2 SWAP1 POP JUMP JUMPDEST PUSH0 PUSH2 0xCBF DUP3 PUSH2 0xCA4 JUMP JUMPDEST SWAP1 POP SWAP2 SWAP1 POP JUMP JUMPDEST PUSH2 0xCD7 PUSH2 0xCD2 DUP3 PUSH2 0x678 JUMP JUMPDEST PUSH2 0xCB5 JUMP JUMPDEST DUP3 MSTORE POP POP JUMP JUMPDEST PUSH0 DUP2 SWAP1 POP SWAP2 SWAP1 POP JUMP JUMPDEST PUSH2 0xCF7 PUSH2 0xCF2 DUP3 PUSH2 0x5FB JUMP JUMPDEST PUSH2 0xCDD JUMP JUMPDEST DUP3 MSTORE POP POP JUMP JUMPDEST PUSH0 DUP2 SWAP1 POP SWAP3 SWAP2 POP POP JUMP JUMPDEST DUP3 DUP2 DUP4 CALLDATACOPY PUSH0 DUP4 DUP4 ADD MSTORE POP POP POP JUMP JUMPDEST PUSH0 PUSH2 0xD20 DUP4 DUP6 PUSH2 0xCFD JUMP JUMPDEST SWAP4 POP PUSH2 0xD2D DUP4 DUP6 DUP5 PUSH2 0xD07 JUMP JUMPDEST DUP3 DUP5 ADD SWAP1 POP SWAP4 SWAP3 POP POP POP JUMP JUMPDEST PUSH0 PUSH2 0xD44 DUP3 DUP8 PUSH2 0xCC6 JUMP JUMPDEST PUSH1 0x14 DUP3 ADD SWAP2 POP PUSH2 0xD54 DUP3 DUP7 PUSH2 0xCE6 JUMP JUMPDEST PUSH1 0x20 DUP3 ADD SWAP2 POP PUSH2 0xD65 DUP3 DUP5 DUP7 PUSH2 0xD15 JUMP JUMPDEST SWAP2 POP DUP2 SWAP1 POP SWAP6 SWAP5 POP POP POP POP POP JUMP JUMPDEST PUSH32 0x4E487B7100000000000000000000000000000000000000000000000000000000 PUSH0 MSTORE PUSH1 0x41 PUSH1 0x4 MSTORE PUSH1 0x24 PUSH0 REVERT JUMPDEST PUSH0 DUP2 SWAP1 POP DUP2 PUSH0 MSTORE PUSH1 0x20 PUSH0 KECCAK256 SWAP1 POP SWAP2 SWAP1 POP JUMP JUMPDEST PUSH0 PUSH1 0x20 PUSH1 0x1F DUP4 ADD DIV SWAP1 POP SWAP2 SWAP1 POP JUMP JUMPDEST PUSH0 DUP3 DUP3 SHL SWAP1 POP SWAP3 SWAP2 POP POP JUMP JUMPDEST PUSH0 PUSH1 0x8 DUP4 MUL PUSH2 0xDFC PUSH32 0xFFFFFFFFFFFFFFFFFFFFFFFFFFFFFFFFFFFFFFFFFFFFFFFFFFFFFFFFFFFFFFFF DUP3 PUSH2 0xDC1 JUMP JUMPDEST PUSH2 0xE06 DUP7 DUP4 PUSH2 0xDC1 JUMP JUMPDEST SWAP6 POP DUP1 NOT DUP5 AND SWAP4 POP DUP1 DUP7 AND DUP5 OR SWAP3 POP POP POP SWAP4 SWAP3 POP POP POP JUMP JUMPDEST PUSH0 DUP2 SWAP1 POP SWAP2 SWAP1 POP JUMP JUMPDEST PUSH0 DUP2 SWAP1 POP SWAP2 SWAP1 POP JUMP JUMPDEST PUSH0 PUSH2 0xE4A PUSH2 0xE45 PUSH2 0xE40 DUP5 PUSH2 0xE1E JUMP JUMPDEST PUSH2 0xE27 JUMP JUMPDEST PUSH2 0xE1E JUMP JUMPDEST SWAP1 POP SWAP2 SWAP1 POP JUMP JUMPDEST PUSH0 DUP2 SWAP1 POP SWAP2 SWAP1 POP JUMP JUMPDEST PUSH2 0xE63 DUP4 PUSH2 0xE30 JUMP JUMPDEST PUSH2 0xE77 PUSH2 0xE6F DUP3 PUSH2 0xE51 JUMP JUMPDEST DUP5 DUP5 SLOAD PUSH2 0xDCD JUMP JUMPDEST DUP3 SSTORE POP POP POP POP JUMP JUMPDEST PUSH0 PUSH0 SWAP1 POP SWAP1 JUMP JUMPDEST PUSH2 0xE8E PUSH2 0xE7F JUMP JUMPDEST PUSH2 0xE99 DUP2 DUP5 DUP5 PUSH2 0xE5A JUMP JUMPDEST POP POP POP JUMP JUMPDEST JUMPDEST DUP2 DUP2 LT ISZERO PUSH2 0xEBC JUMPI PUSH2 0xEB1 PUSH0 DUP3 PUSH2 0xE86 JUMP JUMPDEST PUSH1 0x1 DUP2 ADD SWAP1 POP PUSH2 0xE9F JUMP JUMPDEST POP POP JUMP JUMPDEST PUSH1 0x1F DUP3 GT ISZERO PUSH2 0xF01 JUMPI PUSH2 0xED2 DUP2 PUSH2 0xDA0 JUMP JUMPDEST PUSH2 0xEDB DUP5 PUSH2 0xDB2 JUMP JUMPDEST DUP2 ADD PUSH1 0x20 DUP6 LT ISZERO PUSH2 0xEEA JUMPI DUP2 SWAP1 POP JUMPDEST PUSH2 0xEFE PUSH2 0xEF6 DUP6 PUSH2 0xDB2 JUMP JUMPDEST DUP4 ADD DUP3 PUSH2 0xE9E JUMP JUMPDEST POP POP JUMPDEST POP POP POP JUMP JUMPDEST PUSH0 DUP3 DUP3 SHR SWAP1 POP SWAP3 SWAP2 POP POP JUMP JUMPDEST PUSH0 PUSH2 0xF21 PUSH0 NOT DUP5 PUSH1 0x8 MUL PUSH2 0xF06 JUMP JUMPDEST NOT DUP1 DUP4 AND SWAP2 POP POP SWAP3 SWAP2 POP POP JUMP JUMPDEST PUSH0 PUSH2 0xF39 DUP4 DUP4 PUSH2 0xF12 JUMP JUMPDEST SWAP2 POP DUP3 PUSH1 0x2 MUL DUP3 OR SWAP1 POP SWAP3 SWAP2 POP POP JUMP JUMPDEST PUSH2 0xF52 DUP3 PUSH2 0x6A7 JUMP JUMPDEST PUSH8 0xFFFFFFFFFFFFFFFF DUP2 GT ISZERO PUSH2 0xF6B JUMPI PUSH2 0xF6A PUSH2 0xD73 JUMP JUMPDEST JUMPDEST PUSH2 0xF75 DUP3 SLOAD PUSH2 0xBF0 JUMP JUMPDEST PUSH2 0xF80 DUP3 DUP3 DUP6 PUSH2 0xEC0 JUMP JUMPDEST PUSH0 PUSH1 0x20 SWAP1 POP PUSH1 0x1F DUP4 GT PUSH1 0x1 DUP2 EQ PUSH2 0xFB1 JUMPI PUSH0 DUP5 ISZERO PUSH2 0xF9F JUMPI DUP3 DUP8 ADD MLOAD SWAP1 POP JUMPDEST PUSH2 0xFA9 DUP6 DUP3 PUSH2 0xF2E JUMP JUMPDEST DUP7 SSTORE POP PUSH2 0x1010 JUMP JUMPDEST PUSH1 0x1F NOT DUP5 AND PUSH2 0xFBF DUP7 PUSH2 0xDA0 JUMP JUMPDEST PUSH0 JUMPDEST DUP3 DUP2 LT ISZERO PUSH2 0xFE6 JUMPI DUP5 DUP10 ADD MLOAD DUP3 SSTORE PUSH1 0x1 DUP3 ADD SWAP2 POP PUSH1 0x20 DUP6 ADD SWAP5 POP PUSH1 0x20 DUP2 ADD SWAP1 POP PUSH2 0xFC1 JUMP JUMPDEST DUP7 DUP4 LT ISZERO PUSH2 0x1003 JUMPI DUP5 DUP10 ADD MLOAD PUSH2 0xFFF PUSH1 0x1F DUP10 AND DUP3 PUSH2 0xF12 JUMP JUMPDEST DUP4 SSTORE POP JUMPDEST PUSH1 0x1 PUSH1 0x2 DUP9 MUL ADD DUP9 SSTORE POP POP POP JUMPDEST POP POP POP POP POP POP JUMP JUMPDEST PUSH0 PUSH2 0x1023 DUP4 DUP6 PUSH2 0x6B1 JUMP JUMPDEST SWAP4 POP PUSH2 0x1030 DUP4 DUP6 DUP5 PUSH2 0xD07 JUMP JUMPDEST PUSH2 0x1039 DUP4 PUSH2 0x6CF JUMP JUMPDEST DUP5 ADD SWAP1 POP SWAP4 SWAP3 POP POP POP JUMP JUMPDEST PUSH0 PUSH1 0x60 DUP3 ADD SWAP1 POP PUSH2 0x1057 PUSH0 DUP4 ADD DUP8 PUSH2 0x689 JUMP JUMPDEST PUSH2 0x1064 PUSH1 0x20 DUP4 ADD DUP7 PUSH2 0x698 JUMP JUMPDEST DUP2 DUP2 SUB PUSH1 0x40 DUP4 ADD MSTORE PUSH2 0x1077 DUP2 DUP5 DUP7 PUSH2 0x1018 JUMP JUMPDEST SWAP1 POP SWAP6 SWAP5 POP POP POP POP POP JUMP JUMPDEST PUSH32 0x4E487B7100000000000000000000000000000000000000000000000000000000 PUSH0 MSTORE PUSH1 0x32 PUSH1 0x4 MSTORE PUSH1 0x24 PUSH0 REVERT INVALID LOG2 PUSH5 0x6970667358 0x22 SLT KECCAK256 0xC4 0x2C 0x4F SWAP1 CALLCODE SWAP8 STOP DUP5 0xFC 0x1E CALLVALUE SWAP13 0xB3 SWAP14 DUP15 EQ SWAP4 0xCD 0xB2 0xEA 0x2D CALL DUP12 MCOPY DUP8 0xC3 CREATE2 GT 0xD8 EXTCODESIZE 0xE2 0xD0 PUSH5 0x736F6C6343 STOP ADDMOD SHR STOP CALLER "
				},
				"gasEstimates": {
					"creation": {
						"codeDepositCost": "865000",
						"executionCost": "901",
						"totalCost": "865901"
					},
					"external": {
						"createTemplate(address,bytes32,bytes)": "infinite",
						"getTemplates(bytes32[])": "infinite",
						"templates(bytes32)": "infinite"
					}
				},
				"methodIdentifiers": {
					"createTemplate(address,bytes32,bytes)": "32393f2b",
					"getTemplates(bytes32[])": "76428c9b",
					"templates(bytes32)": "0a631576"
				}
			},
			"storageLayout": {
				"storage": [
					{
						"astId": 19,
						"contract": "contracts/api3/contracts/rrp/TemplateUtilsV0.sol:TemplateUtilsV0",
						"label": "templates",
						"offset": 0,
						"slot": "0",
						"type": "t_mapping(t_bytes32,t_struct(Template)12_storage)"
					}
				],
				"types": {
					"t_address": {
						"encoding": "inplace",
						"label": "address",
						"numberOfBytes": "20"
					},
					"t_bytes32": {
						"encoding": "inplace",
						"label": "bytes32",
						"numberOfBytes": "32"
					},
					"t_bytes_storage": {
						"encoding": "bytes",
						"label": "bytes",
						"numberOfBytes": "32"
					},
					"t_mapping(t_bytes32,t_struct(Template)12_storage)": {
						"encoding": "mapping",
						"key": "t_bytes32",
						"label": "mapping(bytes32 => struct TemplateUtilsV0.Template)",
						"numberOfBytes": "32",
						"value": "t_struct(Template)12_storage"
					},
					"t_struct(Template)12_storage": {
						"encoding": "inplace",
						"label": "struct TemplateUtilsV0.Template",
						"members": [
							{
								"astId": 7,
								"contract": "contracts/api3/contracts/rrp/TemplateUtilsV0.sol:TemplateUtilsV0",
								"label": "airnode",
								"offset": 0,
								"slot": "0",
								"type": "t_address"
							},
							{
								"astId": 9,
								"contract": "contracts/api3/contracts/rrp/TemplateUtilsV0.sol:TemplateUtilsV0",
								"label": "endpointId",
								"offset": 0,
								"slot": "1",
								"type": "t_bytes32"
							},
							{
								"astId": 11,
								"contract": "contracts/api3/contracts/rrp/TemplateUtilsV0.sol:TemplateUtilsV0",
								"label": "parameters",
								"offset": 0,
								"slot": "2",
								"type": "t_bytes_storage"
							}
						],
						"numberOfBytes": "96"
					}
				}
			},
			"userdoc": {
				"kind": "user",
				"methods": {
					"createTemplate(address,bytes32,bytes)": {
						"notice": "Creates a request template with the given parameters, addressable by the ID it returns"
					},
					"getTemplates(bytes32[])": {
						"notice": "A convenience method to retrieve multiple templates with a single call"
					},
					"templates(bytes32)": {
						"notice": "Called to get a template"
					}
				},
				"version": 1
			}
		}
	}
}