{
	"contracts/api3/contracts/rrp/AuthorizationUtilsV0.sol": {
		"AuthorizationUtilsV0": {
			"abi": [
				{
					"inputs": [
						{
							"internalType": "address[]",
							"name": "authorizers",
							"type": "address[]"
						},
						{
							"internalType": "address",
							"name": "airnode",
							"type": "address"
						},
						{
							"internalType": "bytes32",
							"name": "requestId",
							"type": "bytes32"
						},
						{
							"internalType": "bytes32",
							"name": "endpointId",
							"type": "bytes32"
						},
						{
							"internalType": "address",
							"name": "sponsor",
							"type": "address"
						},
						{
							"internalType": "address",
							"name": "requester",
							"type": "address"
						}
					],
					"name": "checkAuthorizationStatus",
					"outputs": [
						{
							"internalType": "bool",
							"name": "status",
							"type": "bool"
						}
					],
					"stateMutability": "view",
					"type": "function"
				},
				{
					"inputs": [
						{
							"internalType": "address[]",
							"name": "authorizers",
							"type": "address[]"
						},
						{
							"internalType": "address",
							"name": "airnode",
							"type": "address"
						},
						{
							"internalType": "bytes32[]",
							"name": "requestIds",
							"type": "bytes32[]"
						},
						{
							"internalType": "bytes32[]",
							"name": "endpointIds",
							"type": "bytes32[]"
						},
						{
							"internalType": "address[]",
							"name": "sponsors",
							"type": "address[]"
						},
						{
							"internalType": "address[]",
							"name": "requesters",
							"type": "address[]"
						}
					],
					"name": "checkAuthorizationStatuses",
					"outputs": [
						{
							"internalType": "bool[]",
							"name": "statuses",
							"type": "bool[]"
						}
					],
					"stateMutability": "view",
					"type": "function"
				}
			],
			"devdoc": {
				"kind": "dev",
				"methods": {
					"checkAuthorizationStatus(address[],address,bytes32,bytes32,address,address)": {
						"details": "This method is meant to be called off-chain, statically by the Airnode to decide if it should respond to a request. The requester can also call it, yet this function returning true should not be taken as a guarantee of the subsequent request being fulfilled. It is enough for only one of the authorizer contracts to return true for the request to be authorized.",
						"params": {
							"airnode": "Airnode address",
							"authorizers": "Authorizer contract addresses",
							"endpointId": "Endpoint ID",
							"requestId": "Request ID",
							"requester": "Requester address",
							"sponsor": "Sponsor address"
						},
						"returns": {
							"status": "Authorization status of the request"
						}
					},
					"checkAuthorizationStatuses(address[],address,bytes32[],bytes32[],address[],address[])": {
						"params": {
							"airnode": "Airnode address",
							"authorizers": "Authorizer contract addresses",
							"endpointIds": "Endpoint IDs",
							"requestIds": "Request IDs",
							"requesters": "Requester addresses",
							"sponsors": "Sponsor addresses"
						},
						"returns": {
							"statuses": "Authorization statuses of the request"
						}
					}
				},
				"title": "Contract that implements authorization checks",
				"version": 1
			},
			"evm": {
				"assembly": "    /* \"contracts/api3/contracts/rrp/AuthorizationUtilsV0.sol\":219:3431  contract AuthorizationUtilsV0 is IAuthorizationUtilsV0 {... */\n  mstore(0x40, 0x80)\n  callvalue\n  dup1\n  iszero\n  tag_1\n  jumpi\n  revert(0x00, 0x00)\ntag_1:\n  pop\n  dataSize(sub_0)\n  dup1\n  dataOffset(sub_0)\n  0x00\n  codecopy\n  0x00\n  return\nstop\n\nsub_0: assembly {\n        /* \"contracts/api3/contracts/rrp/AuthorizationUtilsV0.sol\":219:3431  contract AuthorizationUtilsV0 is IAuthorizationUtilsV0 {... */\n      mstore(0x40, 0x80)\n      callvalue\n      dup1\n      iszero\n      tag_1\n      jumpi\n      revert(0x00, 0x00)\n    tag_1:\n      pop\n      jumpi(tag_2, lt(calldatasize, 0x04))\n      shr(0xe0, calldataload(0x00))\n      dup1\n      0x8a33be01\n      eq\n      tag_3\n      jumpi\n      dup1\n      0xca31d586\n      eq\n      tag_4\n      jumpi\n    tag_2:\n      revert(0x00, 0x00)\n        /* \"contracts/api3/contracts/rrp/AuthorizationUtilsV0.sol\":1331:2050  function checkAuthorizationStatus(... */\n    tag_3:\n      tag_5\n      0x04\n      dup1\n      calldatasize\n      sub\n      dup2\n      add\n      swap1\n      tag_6\n      swap2\n      swap1\n      tag_7\n      jump\t// in\n    tag_6:\n      tag_8\n      jump\t// in\n    tag_5:\n      mload(0x40)\n      tag_9\n      swap2\n      swap1\n      tag_10\n      jump\t// in\n    tag_9:\n      mload(0x40)\n      dup1\n      swap2\n      sub\n      swap1\n      return\n        /* \"contracts/api3/contracts/rrp/AuthorizationUtilsV0.sol\":2492:3429  function checkAuthorizationStatuses(... */\n    tag_4:\n      tag_11\n      0x04\n      dup1\n      calldatasize\n      sub\n      dup2\n      add\n      swap1\n      tag_12\n      swap2\n      swap1\n      tag_13\n      jump\t// in\n    tag_12:\n      tag_14\n      jump\t// in\n    tag_11:\n      mload(0x40)\n      tag_15\n      swap2\n      swap1\n      tag_16\n      jump\t// in\n    tag_15:\n      mload(0x40)\n      dup1\n      swap2\n      sub\n      swap1\n      return\n        /* \"contracts/api3/contracts/rrp/AuthorizationUtilsV0.sol\":1331:2050  function checkAuthorizationStatus(... */\n    tag_8:\n        /* \"contracts/api3/contracts/rrp/AuthorizationUtilsV0.sol\":1573:1584  bool status */\n      0x00\n        /* \"contracts/api3/contracts/rrp/AuthorizationUtilsV0.sol\":1601:1612  uint256 ind */\n      0x00\n        /* \"contracts/api3/contracts/rrp/AuthorizationUtilsV0.sol\":1615:1616  0 */\n      0x00\n        /* \"contracts/api3/contracts/rrp/AuthorizationUtilsV0.sol\":1601:1616  uint256 ind = 0 */\n      swap1\n      pop\n        /* \"contracts/api3/contracts/rrp/AuthorizationUtilsV0.sol\":1596:2022  for (uint256 ind = 0; ind < authorizers.length; ind++) {... */\n    tag_18:\n        /* \"contracts/api3/contracts/rrp/AuthorizationUtilsV0.sol\":1624:1635  authorizers */\n      dup9\n      dup9\n        /* \"contracts/api3/contracts/rrp/AuthorizationUtilsV0.sol\":1624:1642  authorizers.length */\n      swap1\n      pop\n        /* \"contracts/api3/contracts/rrp/AuthorizationUtilsV0.sol\":1618:1621  ind */\n      dup2\n        /* \"contracts/api3/contracts/rrp/AuthorizationUtilsV0.sol\":1618:1642  ind < authorizers.length */\n      lt\n        /* \"contracts/api3/contracts/rrp/AuthorizationUtilsV0.sol\":1596:2022  for (uint256 ind = 0; ind < authorizers.length; ind++) {... */\n      iszero\n      tag_19\n      jumpi\n        /* \"contracts/api3/contracts/rrp/AuthorizationUtilsV0.sol\":1665:1689  IAuthorizerV0 authorizer */\n      0x00\n        /* \"contracts/api3/contracts/rrp/AuthorizationUtilsV0.sol\":1706:1717  authorizers */\n      dup10\n      dup10\n        /* \"contracts/api3/contracts/rrp/AuthorizationUtilsV0.sol\":1718:1721  ind */\n      dup4\n        /* \"contracts/api3/contracts/rrp/AuthorizationUtilsV0.sol\":1706:1722  authorizers[ind] */\n      dup2\n      dup2\n      lt\n      tag_21\n      jumpi\n      tag_22\n      tag_23\n      jump\t// in\n    tag_22:\n    tag_21:\n      swap1\n      pop\n      0x20\n      mul\n      add\n      0x20\n      dup2\n      add\n      swap1\n      tag_24\n      swap2\n      swap1\n      tag_25\n      jump\t// in\n    tag_24:\n        /* \"contracts/api3/contracts/rrp/AuthorizationUtilsV0.sol\":1665:1723  IAuthorizerV0 authorizer = IAuthorizerV0(authorizers[ind]) */\n      swap1\n      pop\n        /* \"contracts/api3/contracts/rrp/AuthorizationUtilsV0.sol\":1758:1768  authorizer */\n      dup1\n        /* \"contracts/api3/contracts/rrp/AuthorizationUtilsV0.sol\":1758:1783  authorizer.isAuthorizedV0 */\n      0xffffffffffffffffffffffffffffffffffffffff\n      and\n      0x29b915b3\n        /* \"contracts/api3/contracts/rrp/AuthorizationUtilsV0.sol\":1805:1814  requestId */\n      dup9\n        /* \"contracts/api3/contracts/rrp/AuthorizationUtilsV0.sol\":1836:1843  airnode */\n      dup11\n        /* \"contracts/api3/contracts/rrp/AuthorizationUtilsV0.sol\":1865:1875  endpointId */\n      dup10\n        /* \"contracts/api3/contracts/rrp/AuthorizationUtilsV0.sol\":1897:1904  sponsor */\n      dup10\n        /* \"contracts/api3/contracts/rrp/AuthorizationUtilsV0.sol\":1926:1935  requester */\n      dup10\n        /* \"contracts/api3/contracts/rrp/AuthorizationUtilsV0.sol\":1758:1953  authorizer.isAuthorizedV0(... */\n      mload(0x40)\n      dup7\n      0xffffffff\n      and\n      0xe0\n      shl\n      dup2\n      mstore\n      0x04\n      add\n      tag_26\n      swap6\n      swap5\n      swap4\n      swap3\n      swap2\n      swap1\n      tag_27\n      jump\t// in\n    tag_26:\n      0x20\n      mload(0x40)\n      dup1\n      dup4\n      sub\n      dup2\n      dup7\n      gas\n      staticcall\n      iszero\n      dup1\n      iszero\n      tag_29\n      jumpi\n      returndatacopy(0x00, 0x00, returndatasize)\n      revert(0x00, returndatasize)\n    tag_29:\n      pop\n      pop\n      pop\n      pop\n      mload(0x40)\n      returndatasize\n      not(0x1f)\n      0x1f\n      dup3\n      add\n      and\n      dup3\n      add\n      dup1\n      0x40\n      mstore\n      pop\n      dup2\n      add\n      swap1\n      tag_30\n      swap2\n      swap1\n      tag_31\n      jump\t// in\n    tag_30:\n        /* \"contracts/api3/contracts/rrp/AuthorizationUtilsV0.sol\":1737:2012  if (... */\n      iszero\n      tag_32\n      jumpi\n        /* \"contracts/api3/contracts/rrp/AuthorizationUtilsV0.sol\":1993:1997  true */\n      0x01\n        /* \"contracts/api3/contracts/rrp/AuthorizationUtilsV0.sol\":1986:1997  return true */\n      swap3\n      pop\n      pop\n      pop\n      jump(tag_17)\n        /* \"contracts/api3/contracts/rrp/AuthorizationUtilsV0.sol\":1737:2012  if (... */\n    tag_32:\n        /* \"contracts/api3/contracts/rrp/AuthorizationUtilsV0.sol\":1651:2022  {... */\n      pop\n        /* \"contracts/api3/contracts/rrp/AuthorizationUtilsV0.sol\":1644:1649  ind++ */\n      dup1\n      dup1\n      0x01\n      add\n      swap2\n      pop\n      pop\n        /* \"contracts/api3/contracts/rrp/AuthorizationUtilsV0.sol\":1596:2022  for (uint256 ind = 0; ind < authorizers.length; ind++) {... */\n      jump(tag_18)\n    tag_19:\n      pop\n        /* \"contracts/api3/contracts/rrp/AuthorizationUtilsV0.sol\":2038:2043  false */\n      0x00\n        /* \"contracts/api3/contracts/rrp/AuthorizationUtilsV0.sol\":2031:2043  return false */\n      swap1\n      pop\n        /* \"contracts/api3/contracts/rrp/AuthorizationUtilsV0.sol\":1331:2050  function checkAuthorizationStatus(... */\n    tag_17:\n      swap8\n      swap7\n      pop\n      pop\n      pop\n      pop\n      pop\n      pop\n      pop\n      jump\t// out\n        /* \"contracts/api3/contracts/rrp/AuthorizationUtilsV0.sol\":2492:3429  function checkAuthorizationStatuses(... */\n    tag_14:\n        /* \"contracts/api3/contracts/rrp/AuthorizationUtilsV0.sol\":2786:2808  bool[] memory statuses */\n      0x60\n        /* \"contracts/api3/contracts/rrp/AuthorizationUtilsV0.sol\":2862:2873  endpointIds */\n      dup7\n      dup7\n        /* \"contracts/api3/contracts/rrp/AuthorizationUtilsV0.sol\":2862:2880  endpointIds.length */\n      swap1\n      pop\n        /* \"contracts/api3/contracts/rrp/AuthorizationUtilsV0.sol\":2841:2851  requestIds */\n      dup10\n      dup10\n        /* \"contracts/api3/contracts/rrp/AuthorizationUtilsV0.sol\":2841:2858  requestIds.length */\n      swap1\n      pop\n        /* \"contracts/api3/contracts/rrp/AuthorizationUtilsV0.sol\":2841:2880  requestIds.length == endpointIds.length */\n      eq\n        /* \"contracts/api3/contracts/rrp/AuthorizationUtilsV0.sol\":2841:2936  requestIds.length == endpointIds.length &&... */\n      dup1\n      iszero\n      tag_34\n      jumpi\n      pop\n        /* \"contracts/api3/contracts/rrp/AuthorizationUtilsV0.sol\":2921:2929  sponsors */\n      dup5\n      dup5\n        /* \"contracts/api3/contracts/rrp/AuthorizationUtilsV0.sol\":2921:2936  sponsors.length */\n      swap1\n      pop\n        /* \"contracts/api3/contracts/rrp/AuthorizationUtilsV0.sol\":2900:2910  requestIds */\n      dup10\n      dup10\n        /* \"contracts/api3/contracts/rrp/AuthorizationUtilsV0.sol\":2900:2917  requestIds.length */\n      swap1\n      pop\n        /* \"contracts/api3/contracts/rrp/AuthorizationUtilsV0.sol\":2900:2936  requestIds.length == sponsors.length */\n      eq\n        /* \"contracts/api3/contracts/rrp/AuthorizationUtilsV0.sol\":2841:2936  requestIds.length == endpointIds.length &&... */\n    tag_34:\n        /* \"contracts/api3/contracts/rrp/AuthorizationUtilsV0.sol\":2841:2994  requestIds.length == endpointIds.length &&... */\n      dup1\n      iszero\n      tag_35\n      jumpi\n      pop\n        /* \"contracts/api3/contracts/rrp/AuthorizationUtilsV0.sol\":2977:2987  requesters */\n      dup3\n      dup3\n        /* \"contracts/api3/contracts/rrp/AuthorizationUtilsV0.sol\":2977:2994  requesters.length */\n      swap1\n      pop\n        /* \"contracts/api3/contracts/rrp/AuthorizationUtilsV0.sol\":2956:2966  requestIds */\n      dup10\n      dup10\n        /* \"contracts/api3/contracts/rrp/AuthorizationUtilsV0.sol\":2956:2973  requestIds.length */\n      swap1\n      pop\n        /* \"contracts/api3/contracts/rrp/AuthorizationUtilsV0.sol\":2956:2994  requestIds.length == requesters.length */\n      eq\n        /* \"contracts/api3/contracts/rrp/AuthorizationUtilsV0.sol\":2841:2994  requestIds.length == endpointIds.length &&... */\n    tag_35:\n        /* \"contracts/api3/contracts/rrp/AuthorizationUtilsV0.sol\":2820:3045  require(... */\n      tag_36\n      jumpi\n      mload(0x40)\n      0x08c379a000000000000000000000000000000000000000000000000000000000\n      dup2\n      mstore\n      0x04\n      add\n      tag_37\n      swap1\n      tag_38\n      jump\t// in\n    tag_37:\n      mload(0x40)\n      dup1\n      swap2\n      sub\n      swap1\n      revert\n    tag_36:\n        /* \"contracts/api3/contracts/rrp/AuthorizationUtilsV0.sol\":3077:3087  requestIds */\n      dup9\n      dup9\n        /* \"contracts/api3/contracts/rrp/AuthorizationUtilsV0.sol\":3077:3094  requestIds.length */\n      swap1\n      pop\n        /* \"contracts/api3/contracts/rrp/AuthorizationUtilsV0.sol\":3066:3095  new bool[](requestIds.length) */\n      0xffffffffffffffff\n      dup2\n      gt\n      iszero\n      tag_39\n      jumpi\n      tag_40\n      tag_41\n      jump\t// in\n    tag_40:\n    tag_39:\n      mload(0x40)\n      swap1\n      dup1\n      dup3\n      mstore\n      dup1\n      0x20\n      mul\n      0x20\n      add\n      dup3\n      add\n      0x40\n      mstore\n      dup1\n      iszero\n      tag_42\n      jumpi\n      dup2\n      0x20\n      add\n      0x20\n      dup3\n      mul\n      dup1\n      calldatasize\n      dup4\n      calldatacopy\n      dup1\n      dup3\n      add\n      swap2\n      pop\n      pop\n      swap1\n      pop\n    tag_42:\n      pop\n        /* \"contracts/api3/contracts/rrp/AuthorizationUtilsV0.sol\":3055:3095  statuses = new bool[](requestIds.length) */\n      swap1\n      pop\n        /* \"contracts/api3/contracts/rrp/AuthorizationUtilsV0.sol\":3110:3121  uint256 ind */\n      0x00\n        /* \"contracts/api3/contracts/rrp/AuthorizationUtilsV0.sol\":3124:3125  0 */\n      0x00\n        /* \"contracts/api3/contracts/rrp/AuthorizationUtilsV0.sol\":3110:3125  uint256 ind = 0 */\n      swap1\n      pop\n        /* \"contracts/api3/contracts/rrp/AuthorizationUtilsV0.sol\":3105:3423  for (uint256 ind = 0; ind < requestIds.length; ind++) {... */\n    tag_43:\n        /* \"contracts/api3/contracts/rrp/AuthorizationUtilsV0.sol\":3133:3143  requestIds */\n      dup10\n      dup10\n        /* \"contracts/api3/contracts/rrp/AuthorizationUtilsV0.sol\":3133:3150  requestIds.length */\n      swap1\n      pop\n        /* \"contracts/api3/contracts/rrp/AuthorizationUtilsV0.sol\":3127:3130  ind */\n      dup2\n        /* \"contracts/api3/contracts/rrp/AuthorizationUtilsV0.sol\":3127:3150  ind < requestIds.length */\n      lt\n        /* \"contracts/api3/contracts/rrp/AuthorizationUtilsV0.sol\":3105:3423  for (uint256 ind = 0; ind < requestIds.length; ind++) {... */\n      iszero\n      tag_44\n      jumpi\n        /* \"contracts/api3/contracts/rrp/AuthorizationUtilsV0.sol\":3189:3412  checkAuthorizationStatus(... */\n      tag_46\n        /* \"contracts/api3/contracts/rrp/AuthorizationUtilsV0.sol\":3231:3242  authorizers */\n      dup14\n      dup14\n        /* \"contracts/api3/contracts/rrp/AuthorizationUtilsV0.sol\":3260:3267  airnode */\n      dup14\n        /* \"contracts/api3/contracts/rrp/AuthorizationUtilsV0.sol\":3285:3295  requestIds */\n      dup14\n      dup14\n        /* \"contracts/api3/contracts/rrp/AuthorizationUtilsV0.sol\":3296:3299  ind */\n      dup7\n        /* \"contracts/api3/contracts/rrp/AuthorizationUtilsV0.sol\":3285:3300  requestIds[ind] */\n      dup2\n      dup2\n      lt\n      tag_47\n      jumpi\n      tag_48\n      tag_23\n      jump\t// in\n    tag_48:\n    tag_47:\n      swap1\n      pop\n      0x20\n      mul\n      add\n      calldataload\n        /* \"contracts/api3/contracts/rrp/AuthorizationUtilsV0.sol\":3318:3329  endpointIds */\n      dup13\n      dup13\n        /* \"contracts/api3/contracts/rrp/AuthorizationUtilsV0.sol\":3330:3333  ind */\n      dup8\n        /* \"contracts/api3/contracts/rrp/AuthorizationUtilsV0.sol\":3318:3334  endpointIds[ind] */\n      dup2\n      dup2\n      lt\n      tag_49\n      jumpi\n      tag_50\n      tag_23\n      jump\t// in\n    tag_50:\n    tag_49:\n      swap1\n      pop\n      0x20\n      mul\n      add\n      calldataload\n        /* \"contracts/api3/contracts/rrp/AuthorizationUtilsV0.sol\":3352:3360  sponsors */\n      dup12\n      dup12\n        /* \"contracts/api3/contracts/rrp/AuthorizationUtilsV0.sol\":3361:3364  ind */\n      dup9\n        /* \"contracts/api3/contracts/rrp/AuthorizationUtilsV0.sol\":3352:3365  sponsors[ind] */\n      dup2\n      dup2\n      lt\n      tag_51\n      jumpi\n      tag_52\n      tag_23\n      jump\t// in\n    tag_52:\n    tag_51:\n      swap1\n      pop\n      0x20\n      mul\n      add\n      0x20\n      dup2\n      add\n      swap1\n      tag_53\n      swap2\n      swap1\n      tag_25\n      jump\t// in\n    tag_53:\n        /* \"contracts/api3/contracts/rrp/AuthorizationUtilsV0.sol\":3383:3393  requesters */\n      dup11\n      dup11\n        /* \"contracts/api3/contracts/rrp/AuthorizationUtilsV0.sol\":3394:3397  ind */\n      dup10\n        /* \"contracts/api3/contracts/rrp/AuthorizationUtilsV0.sol\":3383:3398  requesters[ind] */\n      dup2\n      dup2\n      lt\n      tag_54\n      jumpi\n      tag_55\n      tag_23\n      jump\t// in\n    tag_55:\n    tag_54:\n      swap1\n      pop\n      0x20\n      mul\n      add\n      0x20\n      dup2\n      add\n      swap1\n      tag_56\n      swap2\n      swap1\n      tag_25\n      jump\t// in\n    tag_56:\n        /* \"contracts/api3/contracts/rrp/AuthorizationUtilsV0.sol\":3189:3213  checkAuthorizationStatus */\n      tag_8\n        /* \"contracts/api3/contracts/rrp/AuthorizationUtilsV0.sol\":3189:3412  checkAuthorizationStatus(... */\n      jump\t// in\n    tag_46:\n        /* \"contracts/api3/contracts/rrp/AuthorizationUtilsV0.sol\":3173:3181  statuses */\n      dup3\n        /* \"contracts/api3/contracts/rrp/AuthorizationUtilsV0.sol\":3182:3185  ind */\n      dup3\n        /* \"contracts/api3/contracts/rrp/AuthorizationUtilsV0.sol\":3173:3186  statuses[ind] */\n      dup2\n      mload\n      dup2\n      lt\n      tag_57\n      jumpi\n      tag_58\n      tag_23\n      jump\t// in\n    tag_58:\n    tag_57:\n      0x20\n      mul\n      0x20\n      add\n      add\n        /* \"contracts/api3/contracts/rrp/AuthorizationUtilsV0.sol\":3173:3412  statuses[ind] = checkAuthorizationStatus(... */\n      swap1\n      iszero\n      iszero\n      swap1\n      dup2\n      iszero\n      iszero\n      dup2\n      mstore\n      pop\n      pop\n        /* \"contracts/api3/contracts/rrp/AuthorizationUtilsV0.sol\":3152:3157  ind++ */\n      dup1\n      dup1\n      0x01\n      add\n      swap2\n      pop\n      pop\n        /* \"contracts/api3/contracts/rrp/AuthorizationUtilsV0.sol\":3105:3423  for (uint256 ind = 0; ind < requestIds.length; ind++) {... */\n      jump(tag_43)\n    tag_44:\n      pop\n        /* \"contracts/api3/contracts/rrp/AuthorizationUtilsV0.sol\":2492:3429  function checkAuthorizationStatuses(... */\n      swap12\n      swap11\n      pop\n      pop\n      pop\n      pop\n      pop\n      pop\n      pop\n      pop\n      pop\n      pop\n      pop\n      jump\t// out\n        /* \"#utility.yul\":88:205   */\n    tag_60:\n        /* \"#utility.yul\":197:198   */\n      0x00\n        /* \"#utility.yul\":194:195   */\n      0x00\n        /* \"#utility.yul\":187:199   */\n      revert\n        /* \"#utility.yul\":211:328   */\n    tag_61:\n        /* \"#utility.yul\":320:321   */\n      0x00\n        /* \"#utility.yul\":317:318   */\n      0x00\n        /* \"#utility.yul\":310:322   */\n      revert\n        /* \"#utility.yul\":334:451   */\n    tag_62:\n        /* \"#utility.yul\":443:444   */\n      0x00\n        /* \"#utility.yul\":440:441   */\n      0x00\n        /* \"#utility.yul\":433:445   */\n      revert\n        /* \"#utility.yul\":457:574   */\n    tag_63:\n        /* \"#utility.yul\":566:567   */\n      0x00\n        /* \"#utility.yul\":563:564   */\n      0x00\n        /* \"#utility.yul\":556:568   */\n      revert\n        /* \"#utility.yul\":580:697   */\n    tag_64:\n        /* \"#utility.yul\":689:690   */\n      0x00\n        /* \"#utility.yul\":686:687   */\n      0x00\n        /* \"#utility.yul\":679:691   */\n      revert\n        /* \"#utility.yul\":720:1288   */\n    tag_65:\n        /* \"#utility.yul\":793:801   */\n      0x00\n        /* \"#utility.yul\":803:809   */\n      0x00\n        /* \"#utility.yul\":853:856   */\n      dup4\n        /* \"#utility.yul\":846:850   */\n      0x1f\n        /* \"#utility.yul\":838:844   */\n      dup5\n        /* \"#utility.yul\":834:851   */\n      add\n        /* \"#utility.yul\":830:857   */\n      slt\n        /* \"#utility.yul\":820:942   */\n      tag_98\n      jumpi\n        /* \"#utility.yul\":861:940   */\n      tag_99\n      tag_62\n      jump\t// in\n    tag_99:\n        /* \"#utility.yul\":820:942   */\n    tag_98:\n        /* \"#utility.yul\":974:980   */\n      dup3\n        /* \"#utility.yul\":961:981   */\n      calldataload\n        /* \"#utility.yul\":951:981   */\n      swap1\n      pop\n        /* \"#utility.yul\":1004:1022   */\n      0xffffffffffffffff\n        /* \"#utility.yul\":996:1002   */\n      dup2\n        /* \"#utility.yul\":993:1023   */\n      gt\n        /* \"#utility.yul\":990:1107   */\n      iszero\n      tag_100\n      jumpi\n        /* \"#utility.yul\":1026:1105   */\n      tag_101\n      tag_63\n      jump\t// in\n    tag_101:\n        /* \"#utility.yul\":990:1107   */\n    tag_100:\n        /* \"#utility.yul\":1140:1144   */\n      0x20\n        /* \"#utility.yul\":1132:1138   */\n      dup4\n        /* \"#utility.yul\":1128:1145   */\n      add\n        /* \"#utility.yul\":1116:1145   */\n      swap2\n      pop\n        /* \"#utility.yul\":1194:1197   */\n      dup4\n        /* \"#utility.yul\":1186:1190   */\n      0x20\n        /* \"#utility.yul\":1178:1184   */\n      dup3\n        /* \"#utility.yul\":1174:1191   */\n      mul\n        /* \"#utility.yul\":1164:1172   */\n      dup4\n        /* \"#utility.yul\":1160:1192   */\n      add\n        /* \"#utility.yul\":1157:1198   */\n      gt\n        /* \"#utility.yul\":1154:1282   */\n      iszero\n      tag_102\n      jumpi\n        /* \"#utility.yul\":1201:1280   */\n      tag_103\n      tag_64\n      jump\t// in\n    tag_103:\n        /* \"#utility.yul\":1154:1282   */\n    tag_102:\n        /* \"#utility.yul\":720:1288   */\n      swap3\n      pop\n      swap3\n      swap1\n      pop\n      jump\t// out\n        /* \"#utility.yul\":1294:1420   */\n    tag_66:\n        /* \"#utility.yul\":1331:1338   */\n      0x00\n        /* \"#utility.yul\":1371:1413   */\n      0xffffffffffffffffffffffffffffffffffffffff\n        /* \"#utility.yul\":1364:1369   */\n      dup3\n        /* \"#utility.yul\":1360:1414   */\n      and\n        /* \"#utility.yul\":1349:1414   */\n      swap1\n      pop\n        /* \"#utility.yul\":1294:1420   */\n      swap2\n      swap1\n      pop\n      jump\t// out\n        /* \"#utility.yul\":1426:1522   */\n    tag_67:\n        /* \"#utility.yul\":1463:1470   */\n      0x00\n        /* \"#utility.yul\":1492:1516   */\n      tag_106\n        /* \"#utility.yul\":1510:1515   */\n      dup3\n        /* \"#utility.yul\":1492:1516   */\n      tag_66\n      jump\t// in\n    tag_106:\n        /* \"#utility.yul\":1481:1516   */\n      swap1\n      pop\n        /* \"#utility.yul\":1426:1522   */\n      swap2\n      swap1\n      pop\n      jump\t// out\n        /* \"#utility.yul\":1528:1650   */\n    tag_68:\n        /* \"#utility.yul\":1601:1625   */\n      tag_108\n        /* \"#utility.yul\":1619:1624   */\n      dup2\n        /* \"#utility.yul\":1601:1625   */\n      tag_67\n      jump\t// in\n    tag_108:\n        /* \"#utility.yul\":1594:1599   */\n      dup2\n        /* \"#utility.yul\":1591:1626   */\n      eq\n        /* \"#utility.yul\":1581:1644   */\n      tag_109\n      jumpi\n        /* \"#utility.yul\":1640:1641   */\n      0x00\n        /* \"#utility.yul\":1637:1638   */\n      0x00\n        /* \"#utility.yul\":1630:1642   */\n      revert\n        /* \"#utility.yul\":1581:1644   */\n    tag_109:\n        /* \"#utility.yul\":1528:1650   */\n      pop\n      jump\t// out\n        /* \"#utility.yul\":1656:1795   */\n    tag_69:\n        /* \"#utility.yul\":1702:1707   */\n      0x00\n        /* \"#utility.yul\":1740:1746   */\n      dup2\n        /* \"#utility.yul\":1727:1747   */\n      calldataload\n        /* \"#utility.yul\":1718:1747   */\n      swap1\n      pop\n        /* \"#utility.yul\":1756:1789   */\n      tag_111\n        /* \"#utility.yul\":1783:1788   */\n      dup2\n        /* \"#utility.yul\":1756:1789   */\n      tag_68\n      jump\t// in\n    tag_111:\n        /* \"#utility.yul\":1656:1795   */\n      swap3\n      swap2\n      pop\n      pop\n      jump\t// out\n        /* \"#utility.yul\":1801:1878   */\n    tag_70:\n        /* \"#utility.yul\":1838:1845   */\n      0x00\n        /* \"#utility.yul\":1867:1872   */\n      dup2\n        /* \"#utility.yul\":1856:1872   */\n      swap1\n      pop\n        /* \"#utility.yul\":1801:1878   */\n      swap2\n      swap1\n      pop\n      jump\t// out\n        /* \"#utility.yul\":1884:2006   */\n    tag_71:\n        /* \"#utility.yul\":1957:1981   */\n      tag_114\n        /* \"#utility.yul\":1975:1980   */\n      dup2\n        /* \"#utility.yul\":1957:1981   */\n      tag_70\n      jump\t// in\n    tag_114:\n        /* \"#utility.yul\":1950:1955   */\n      dup2\n        /* \"#utility.yul\":1947:1982   */\n      eq\n        /* \"#utility.yul\":1937:2000   */\n      tag_115\n      jumpi\n        /* \"#utility.yul\":1996:1997   */\n      0x00\n        /* \"#utility.yul\":1993:1994   */\n      0x00\n        /* \"#utility.yul\":1986:1998   */\n      revert\n        /* \"#utility.yul\":1937:2000   */\n    tag_115:\n        /* \"#utility.yul\":1884:2006   */\n      pop\n      jump\t// out\n        /* \"#utility.yul\":2012:2151   */\n    tag_72:\n        /* \"#utility.yul\":2058:2063   */\n      0x00\n        /* \"#utility.yul\":2096:2102   */\n      dup2\n        /* \"#utility.yul\":2083:2103   */\n      calldataload\n        /* \"#utility.yul\":2074:2103   */\n      swap1\n      pop\n        /* \"#utility.yul\":2112:2145   */\n      tag_117\n        /* \"#utility.yul\":2139:2144   */\n      dup2\n        /* \"#utility.yul\":2112:2145   */\n      tag_71\n      jump\t// in\n    tag_117:\n        /* \"#utility.yul\":2012:2151   */\n      swap3\n      swap2\n      pop\n      pop\n      jump\t// out\n        /* \"#utility.yul\":2157:3444   */\n    tag_7:\n        /* \"#utility.yul\":2288:2294   */\n      0x00\n        /* \"#utility.yul\":2296:2302   */\n      0x00\n        /* \"#utility.yul\":2304:2310   */\n      0x00\n        /* \"#utility.yul\":2312:2318   */\n      0x00\n        /* \"#utility.yul\":2320:2326   */\n      0x00\n        /* \"#utility.yul\":2328:2334   */\n      0x00\n        /* \"#utility.yul\":2336:2342   */\n      0x00\n        /* \"#utility.yul\":2385:2388   */\n      0xc0\n        /* \"#utility.yul\":2373:2382   */\n      dup9\n        /* \"#utility.yul\":2364:2371   */\n      dup11\n        /* \"#utility.yul\":2360:2383   */\n      sub\n        /* \"#utility.yul\":2356:2389   */\n      slt\n        /* \"#utility.yul\":2353:2473   */\n      iszero\n      tag_119\n      jumpi\n        /* \"#utility.yul\":2392:2471   */\n      tag_120\n      tag_60\n      jump\t// in\n    tag_120:\n        /* \"#utility.yul\":2353:2473   */\n    tag_119:\n        /* \"#utility.yul\":2540:2541   */\n      0x00\n        /* \"#utility.yul\":2529:2538   */\n      dup9\n        /* \"#utility.yul\":2525:2542   */\n      add\n        /* \"#utility.yul\":2512:2543   */\n      calldataload\n        /* \"#utility.yul\":2570:2588   */\n      0xffffffffffffffff\n        /* \"#utility.yul\":2562:2568   */\n      dup2\n        /* \"#utility.yul\":2559:2589   */\n      gt\n        /* \"#utility.yul\":2556:2673   */\n      iszero\n      tag_121\n      jumpi\n        /* \"#utility.yul\":2592:2671   */\n      tag_122\n      tag_61\n      jump\t// in\n    tag_122:\n        /* \"#utility.yul\":2556:2673   */\n    tag_121:\n        /* \"#utility.yul\":2705:2785   */\n      tag_123\n        /* \"#utility.yul\":2777:2784   */\n      dup11\n        /* \"#utility.yul\":2768:2774   */\n      dup3\n        /* \"#utility.yul\":2757:2766   */\n      dup12\n        /* \"#utility.yul\":2753:2775   */\n      add\n        /* \"#utility.yul\":2705:2785   */\n      tag_65\n      jump\t// in\n    tag_123:\n        /* \"#utility.yul\":2687:2785   */\n      swap8\n      pop\n      swap8\n      pop\n        /* \"#utility.yul\":2483:2795   */\n      pop\n        /* \"#utility.yul\":2834:2836   */\n      0x20\n        /* \"#utility.yul\":2860:2913   */\n      tag_124\n        /* \"#utility.yul\":2905:2912   */\n      dup11\n        /* \"#utility.yul\":2896:2902   */\n      dup3\n        /* \"#utility.yul\":2885:2894   */\n      dup12\n        /* \"#utility.yul\":2881:2903   */\n      add\n        /* \"#utility.yul\":2860:2913   */\n      tag_69\n      jump\t// in\n    tag_124:\n        /* \"#utility.yul\":2850:2913   */\n      swap6\n      pop\n        /* \"#utility.yul\":2805:2923   */\n      pop\n        /* \"#utility.yul\":2962:2964   */\n      0x40\n        /* \"#utility.yul\":2988:3041   */\n      tag_125\n        /* \"#utility.yul\":3033:3040   */\n      dup11\n        /* \"#utility.yul\":3024:3030   */\n      dup3\n        /* \"#utility.yul\":3013:3022   */\n      dup12\n        /* \"#utility.yul\":3009:3031   */\n      add\n        /* \"#utility.yul\":2988:3041   */\n      tag_72\n      jump\t// in\n    tag_125:\n        /* \"#utility.yul\":2978:3041   */\n      swap5\n      pop\n        /* \"#utility.yul\":2933:3051   */\n      pop\n        /* \"#utility.yul\":3090:3092   */\n      0x60\n        /* \"#utility.yul\":3116:3169   */\n      tag_126\n        /* \"#utility.yul\":3161:3168   */\n      dup11\n        /* \"#utility.yul\":3152:3158   */\n      dup3\n        /* \"#utility.yul\":3141:3150   */\n      dup12\n        /* \"#utility.yul\":3137:3159   */\n      add\n        /* \"#utility.yul\":3116:3169   */\n      tag_72\n      jump\t// in\n    tag_126:\n        /* \"#utility.yul\":3106:3169   */\n      swap4\n      pop\n        /* \"#utility.yul\":3061:3179   */\n      pop\n        /* \"#utility.yul\":3218:3221   */\n      0x80\n        /* \"#utility.yul\":3245:3298   */\n      tag_127\n        /* \"#utility.yul\":3290:3297   */\n      dup11\n        /* \"#utility.yul\":3281:3287   */\n      dup3\n        /* \"#utility.yul\":3270:3279   */\n      dup12\n        /* \"#utility.yul\":3266:3288   */\n      add\n        /* \"#utility.yul\":3245:3298   */\n      tag_69\n      jump\t// in\n    tag_127:\n        /* \"#utility.yul\":3235:3298   */\n      swap3\n      pop\n        /* \"#utility.yul\":3189:3308   */\n      pop\n        /* \"#utility.yul\":3347:3350   */\n      0xa0\n        /* \"#utility.yul\":3374:3427   */\n      tag_128\n        /* \"#utility.yul\":3419:3426   */\n      dup11\n        /* \"#utility.yul\":3410:3416   */\n      dup3\n        /* \"#utility.yul\":3399:3408   */\n      dup12\n        /* \"#utility.yul\":3395:3417   */\n      add\n        /* \"#utility.yul\":3374:3427   */\n      tag_69\n      jump\t// in\n    tag_128:\n        /* \"#utility.yul\":3364:3427   */\n      swap2\n      pop\n        /* \"#utility.yul\":3318:3437   */\n      pop\n        /* \"#utility.yul\":2157:3444   */\n      swap3\n      swap6\n      swap9\n      swap2\n      swap5\n      swap8\n      pop\n      swap3\n      swap6\n      pop\n      jump\t// out\n        /* \"#utility.yul\":3450:3540   */\n    tag_73:\n        /* \"#utility.yul\":3484:3491   */\n      0x00\n        /* \"#utility.yul\":3527:3532   */\n      dup2\n        /* \"#utility.yul\":3520:3533   */\n      iszero\n        /* \"#utility.yul\":3513:3534   */\n      iszero\n        /* \"#utility.yul\":3502:3534   */\n      swap1\n      pop\n        /* \"#utility.yul\":3450:3540   */\n      swap2\n      swap1\n      pop\n      jump\t// out\n        /* \"#utility.yul\":3546:3655   */\n    tag_74:\n        /* \"#utility.yul\":3627:3648   */\n      tag_131\n        /* \"#utility.yul\":3642:3647   */\n      dup2\n        /* \"#utility.yul\":3627:3648   */\n      tag_73\n      jump\t// in\n    tag_131:\n        /* \"#utility.yul\":3622:3625   */\n      dup3\n        /* \"#utility.yul\":3615:3649   */\n      mstore\n        /* \"#utility.yul\":3546:3655   */\n      pop\n      pop\n      jump\t// out\n        /* \"#utility.yul\":3661:3871   */\n    tag_10:\n        /* \"#utility.yul\":3748:3752   */\n      0x00\n        /* \"#utility.yul\":3786:3788   */\n      0x20\n        /* \"#utility.yul\":3775:3784   */\n      dup3\n        /* \"#utility.yul\":3771:3789   */\n      add\n        /* \"#utility.yul\":3763:3789   */\n      swap1\n      pop\n        /* \"#utility.yul\":3799:3864   */\n      tag_133\n        /* \"#utility.yul\":3861:3862   */\n      0x00\n        /* \"#utility.yul\":3850:3859   */\n      dup4\n        /* \"#utility.yul\":3846:3863   */\n      add\n        /* \"#utility.yul\":3837:3843   */\n      dup5\n        /* \"#utility.yul\":3799:3864   */\n      tag_74\n      jump\t// in\n    tag_133:\n        /* \"#utility.yul\":3661:3871   */\n      swap3\n      swap2\n      pop\n      pop\n      jump\t// out\n        /* \"#utility.yul\":3894:4462   */\n    tag_75:\n        /* \"#utility.yul\":3967:3975   */\n      0x00\n        /* \"#utility.yul\":3977:3983   */\n      0x00\n        /* \"#utility.yul\":4027:4030   */\n      dup4\n        /* \"#utility.yul\":4020:4024   */\n      0x1f\n        /* \"#utility.yul\":4012:4018   */\n      dup5\n        /* \"#utility.yul\":4008:4025   */\n      add\n        /* \"#utility.yul\":4004:4031   */\n      slt\n        /* \"#utility.yul\":3994:4116   */\n      tag_135\n      jumpi\n        /* \"#utility.yul\":4035:4114   */\n      tag_136\n      tag_62\n      jump\t// in\n    tag_136:\n        /* \"#utility.yul\":3994:4116   */\n    tag_135:\n        /* \"#utility.yul\":4148:4154   */\n      dup3\n        /* \"#utility.yul\":4135:4155   */\n      calldataload\n        /* \"#utility.yul\":4125:4155   */\n      swap1\n      pop\n        /* \"#utility.yul\":4178:4196   */\n      0xffffffffffffffff\n        /* \"#utility.yul\":4170:4176   */\n      dup2\n        /* \"#utility.yul\":4167:4197   */\n      gt\n        /* \"#utility.yul\":4164:4281   */\n      iszero\n      tag_137\n      jumpi\n        /* \"#utility.yul\":4200:4279   */\n      tag_138\n      tag_63\n      jump\t// in\n    tag_138:\n        /* \"#utility.yul\":4164:4281   */\n    tag_137:\n        /* \"#utility.yul\":4314:4318   */\n      0x20\n        /* \"#utility.yul\":4306:4312   */\n      dup4\n        /* \"#utility.yul\":4302:4319   */\n      add\n        /* \"#utility.yul\":4290:4319   */\n      swap2\n      pop\n        /* \"#utility.yul\":4368:4371   */\n      dup4\n        /* \"#utility.yul\":4360:4364   */\n      0x20\n        /* \"#utility.yul\":4352:4358   */\n      dup3\n        /* \"#utility.yul\":4348:4365   */\n      mul\n        /* \"#utility.yul\":4338:4346   */\n      dup4\n        /* \"#utility.yul\":4334:4366   */\n      add\n        /* \"#utility.yul\":4331:4372   */\n      gt\n        /* \"#utility.yul\":4328:4456   */\n      iszero\n      tag_139\n      jumpi\n        /* \"#utility.yul\":4375:4454   */\n      tag_140\n      tag_64\n      jump\t// in\n    tag_140:\n        /* \"#utility.yul\":4328:4456   */\n    tag_139:\n        /* \"#utility.yul\":3894:4462   */\n      swap3\n      pop\n      swap3\n      swap1\n      pop\n      jump\t// out\n        /* \"#utility.yul\":4468:6677   */\n    tag_13:\n        /* \"#utility.yul\":4707:4713   */\n      0x00\n        /* \"#utility.yul\":4715:4721   */\n      0x00\n        /* \"#utility.yul\":4723:4729   */\n      0x00\n        /* \"#utility.yul\":4731:4737   */\n      0x00\n        /* \"#utility.yul\":4739:4745   */\n      0x00\n        /* \"#utility.yul\":4747:4753   */\n      0x00\n        /* \"#utility.yul\":4755:4761   */\n      0x00\n        /* \"#utility.yul\":4763:4769   */\n      0x00\n        /* \"#utility.yul\":4771:4777   */\n      0x00\n        /* \"#utility.yul\":4779:4785   */\n      0x00\n        /* \"#utility.yul\":4787:4794   */\n      0x00\n        /* \"#utility.yul\":4837:4840   */\n      0xc0\n        /* \"#utility.yul\":4825:4834   */\n      dup13\n        /* \"#utility.yul\":4816:4823   */\n      dup15\n        /* \"#utility.yul\":4812:4835   */\n      sub\n        /* \"#utility.yul\":4808:4841   */\n      slt\n        /* \"#utility.yul\":4805:4925   */\n      iszero\n      tag_142\n      jumpi\n        /* \"#utility.yul\":4844:4923   */\n      tag_143\n      tag_60\n      jump\t// in\n    tag_143:\n        /* \"#utility.yul\":4805:4925   */\n    tag_142:\n        /* \"#utility.yul\":4992:4993   */\n      0x00\n        /* \"#utility.yul\":4981:4990   */\n      dup13\n        /* \"#utility.yul\":4977:4994   */\n      add\n        /* \"#utility.yul\":4964:4995   */\n      calldataload\n        /* \"#utility.yul\":5022:5040   */\n      0xffffffffffffffff\n        /* \"#utility.yul\":5014:5020   */\n      dup2\n        /* \"#utility.yul\":5011:5041   */\n      gt\n        /* \"#utility.yul\":5008:5125   */\n      iszero\n      tag_144\n      jumpi\n        /* \"#utility.yul\":5044:5123   */\n      tag_145\n      tag_61\n      jump\t// in\n    tag_145:\n        /* \"#utility.yul\":5008:5125   */\n    tag_144:\n        /* \"#utility.yul\":5157:5237   */\n      tag_146\n        /* \"#utility.yul\":5229:5236   */\n      dup15\n        /* \"#utility.yul\":5220:5226   */\n      dup3\n        /* \"#utility.yul\":5209:5218   */\n      dup16\n        /* \"#utility.yul\":5205:5227   */\n      add\n        /* \"#utility.yul\":5157:5237   */\n      tag_65\n      jump\t// in\n    tag_146:\n        /* \"#utility.yul\":5139:5237   */\n      swap12\n      pop\n      swap12\n      pop\n        /* \"#utility.yul\":4935:5247   */\n      pop\n        /* \"#utility.yul\":5286:5288   */\n      0x20\n        /* \"#utility.yul\":5312:5365   */\n      tag_147\n        /* \"#utility.yul\":5357:5364   */\n      dup15\n        /* \"#utility.yul\":5348:5354   */\n      dup3\n        /* \"#utility.yul\":5337:5346   */\n      dup16\n        /* \"#utility.yul\":5333:5355   */\n      add\n        /* \"#utility.yul\":5312:5365   */\n      tag_69\n      jump\t// in\n    tag_147:\n        /* \"#utility.yul\":5302:5365   */\n      swap10\n      pop\n        /* \"#utility.yul\":5257:5375   */\n      pop\n        /* \"#utility.yul\":5442:5444   */\n      0x40\n        /* \"#utility.yul\":5431:5440   */\n      dup13\n        /* \"#utility.yul\":5427:5445   */\n      add\n        /* \"#utility.yul\":5414:5446   */\n      calldataload\n        /* \"#utility.yul\":5473:5491   */\n      0xffffffffffffffff\n        /* \"#utility.yul\":5465:5471   */\n      dup2\n        /* \"#utility.yul\":5462:5492   */\n      gt\n        /* \"#utility.yul\":5459:5576   */\n      iszero\n      tag_148\n      jumpi\n        /* \"#utility.yul\":5495:5574   */\n      tag_149\n      tag_61\n      jump\t// in\n    tag_149:\n        /* \"#utility.yul\":5459:5576   */\n    tag_148:\n        /* \"#utility.yul\":5608:5688   */\n      tag_150\n        /* \"#utility.yul\":5680:5687   */\n      dup15\n        /* \"#utility.yul\":5671:5677   */\n      dup3\n        /* \"#utility.yul\":5660:5669   */\n      dup16\n        /* \"#utility.yul\":5656:5678   */\n      add\n        /* \"#utility.yul\":5608:5688   */\n      tag_75\n      jump\t// in\n    tag_150:\n        /* \"#utility.yul\":5590:5688   */\n      swap9\n      pop\n      swap9\n      pop\n        /* \"#utility.yul\":5385:5698   */\n      pop\n        /* \"#utility.yul\":5765:5767   */\n      0x60\n        /* \"#utility.yul\":5754:5763   */\n      dup13\n        /* \"#utility.yul\":5750:5768   */\n      add\n        /* \"#utility.yul\":5737:5769   */\n      calldataload\n        /* \"#utility.yul\":5796:5814   */\n      0xffffffffffffffff\n        /* \"#utility.yul\":5788:5794   */\n      dup2\n        /* \"#utility.yul\":5785:5815   */\n      gt\n        /* \"#utility.yul\":5782:5899   */\n      iszero\n      tag_151\n      jumpi\n        /* \"#utility.yul\":5818:5897   */\n      tag_152\n      tag_61\n      jump\t// in\n    tag_152:\n        /* \"#utility.yul\":5782:5899   */\n    tag_151:\n        /* \"#utility.yul\":5931:6011   */\n      tag_153\n        /* \"#utility.yul\":6003:6010   */\n      dup15\n        /* \"#utility.yul\":5994:6000   */\n      dup3\n        /* \"#utility.yul\":5983:5992   */\n      dup16\n        /* \"#utility.yul\":5979:6001   */\n      add\n        /* \"#utility.yul\":5931:6011   */\n      tag_75\n      jump\t// in\n    tag_153:\n        /* \"#utility.yul\":5913:6011   */\n      swap7\n      pop\n      swap7\n      pop\n        /* \"#utility.yul\":5708:6021   */\n      pop\n        /* \"#utility.yul\":6088:6091   */\n      0x80\n        /* \"#utility.yul\":6077:6086   */\n      dup13\n        /* \"#utility.yul\":6073:6092   */\n      add\n        /* \"#utility.yul\":6060:6093   */\n      calldataload\n        /* \"#utility.yul\":6120:6138   */\n      0xffffffffffffffff\n        /* \"#utility.yul\":6112:6118   */\n      dup2\n        /* \"#utility.yul\":6109:6139   */\n      gt\n        /* \"#utility.yul\":6106:6223   */\n      iszero\n      tag_154\n      jumpi\n        /* \"#utility.yul\":6142:6221   */\n      tag_155\n      tag_61\n      jump\t// in\n    tag_155:\n        /* \"#utility.yul\":6106:6223   */\n    tag_154:\n        /* \"#utility.yul\":6255:6335   */\n      tag_156\n        /* \"#utility.yul\":6327:6334   */\n      dup15\n        /* \"#utility.yul\":6318:6324   */\n      dup3\n        /* \"#utility.yul\":6307:6316   */\n      dup16\n        /* \"#utility.yul\":6303:6325   */\n      add\n        /* \"#utility.yul\":6255:6335   */\n      tag_65\n      jump\t// in\n    tag_156:\n        /* \"#utility.yul\":6237:6335   */\n      swap5\n      pop\n      swap5\n      pop\n        /* \"#utility.yul\":6031:6345   */\n      pop\n        /* \"#utility.yul\":6412:6415   */\n      0xa0\n        /* \"#utility.yul\":6401:6410   */\n      dup13\n        /* \"#utility.yul\":6397:6416   */\n      add\n        /* \"#utility.yul\":6384:6417   */\n      calldataload\n        /* \"#utility.yul\":6444:6462   */\n      0xffffffffffffffff\n        /* \"#utility.yul\":6436:6442   */\n      dup2\n        /* \"#utility.yul\":6433:6463   */\n      gt\n        /* \"#utility.yul\":6430:6547   */\n      iszero\n      tag_157\n      jumpi\n        /* \"#utility.yul\":6466:6545   */\n      tag_158\n      tag_61\n      jump\t// in\n    tag_158:\n        /* \"#utility.yul\":6430:6547   */\n    tag_157:\n        /* \"#utility.yul\":6580:6660   */\n      tag_159\n        /* \"#utility.yul\":6652:6659   */\n      dup15\n        /* \"#utility.yul\":6643:6649   */\n      dup3\n        /* \"#utility.yul\":6632:6641   */\n      dup16\n        /* \"#utility.yul\":6628:6650   */\n      add\n        /* \"#utility.yul\":6580:6660   */\n      tag_65\n      jump\t// in\n    tag_159:\n        /* \"#utility.yul\":6561:6660   */\n      swap3\n      pop\n      swap3\n      pop\n        /* \"#utility.yul\":6355:6670   */\n      pop\n        /* \"#utility.yul\":4468:6677   */\n      swap3\n      swap6\n      swap9\n      swap12\n      pop\n      swap3\n      swap6\n      swap9\n      swap12\n      swap1\n      swap4\n      swap7\n      swap10\n      pop\n      jump\t// out\n        /* \"#utility.yul\":6683:6794   */\n    tag_76:\n        /* \"#utility.yul\":6747:6753   */\n      0x00\n        /* \"#utility.yul\":6781:6786   */\n      dup2\n        /* \"#utility.yul\":6775:6787   */\n      mload\n        /* \"#utility.yul\":6765:6787   */\n      swap1\n      pop\n        /* \"#utility.yul\":6683:6794   */\n      swap2\n      swap1\n      pop\n      jump\t// out\n        /* \"#utility.yul\":6800:6981   */\n    tag_77:\n        /* \"#utility.yul\":6896:6907   */\n      0x00\n        /* \"#utility.yul\":6930:6936   */\n      dup3\n        /* \"#utility.yul\":6925:6928   */\n      dup3\n        /* \"#utility.yul\":6918:6937   */\n      mstore\n        /* \"#utility.yul\":6970:6974   */\n      0x20\n        /* \"#utility.yul\":6965:6968   */\n      dup3\n        /* \"#utility.yul\":6961:6975   */\n      add\n        /* \"#utility.yul\":6946:6975   */\n      swap1\n      pop\n        /* \"#utility.yul\":6800:6981   */\n      swap3\n      swap2\n      pop\n      pop\n      jump\t// out\n        /* \"#utility.yul\":6987:7116   */\n    tag_78:\n        /* \"#utility.yul\":7051:7055   */\n      0x00\n        /* \"#utility.yul\":7074:7077   */\n      dup2\n        /* \"#utility.yul\":7066:7077   */\n      swap1\n      pop\n        /* \"#utility.yul\":7104:7108   */\n      0x20\n        /* \"#utility.yul\":7099:7102   */\n      dup3\n        /* \"#utility.yul\":7095:7109   */\n      add\n        /* \"#utility.yul\":7087:7109   */\n      swap1\n      pop\n        /* \"#utility.yul\":6987:7116   */\n      swap2\n      swap1\n      pop\n      jump\t// out\n        /* \"#utility.yul\":7122:7221   */\n    tag_79:\n        /* \"#utility.yul\":7193:7214   */\n      tag_164\n        /* \"#utility.yul\":7208:7213   */\n      dup2\n        /* \"#utility.yul\":7193:7214   */\n      tag_73\n      jump\t// in\n    tag_164:\n        /* \"#utility.yul\":7188:7191   */\n      dup3\n        /* \"#utility.yul\":7181:7215   */\n      mstore\n        /* \"#utility.yul\":7122:7221   */\n      pop\n      pop\n      jump\t// out\n        /* \"#utility.yul\":7227:7394   */\n    tag_80:\n        /* \"#utility.yul\":7290:7300   */\n      0x00\n        /* \"#utility.yul\":7311:7351   */\n      tag_166\n        /* \"#utility.yul\":7347:7350   */\n      dup4\n        /* \"#utility.yul\":7339:7345   */\n      dup4\n        /* \"#utility.yul\":7311:7351   */\n      tag_79\n      jump\t// in\n    tag_166:\n        /* \"#utility.yul\":7383:7387   */\n      0x20\n        /* \"#utility.yul\":7378:7381   */\n      dup4\n        /* \"#utility.yul\":7374:7388   */\n      add\n        /* \"#utility.yul\":7360:7388   */\n      swap1\n      pop\n        /* \"#utility.yul\":7227:7394   */\n      swap3\n      swap2\n      pop\n      pop\n      jump\t// out\n        /* \"#utility.yul\":7400:7510   */\n    tag_81:\n        /* \"#utility.yul\":7467:7471   */\n      0x00\n        /* \"#utility.yul\":7499:7503   */\n      0x20\n        /* \"#utility.yul\":7494:7497   */\n      dup3\n        /* \"#utility.yul\":7490:7504   */\n      add\n        /* \"#utility.yul\":7482:7504   */\n      swap1\n      pop\n        /* \"#utility.yul\":7400:7510   */\n      swap2\n      swap1\n      pop\n      jump\t// out\n        /* \"#utility.yul\":7540:8248   */\n    tag_82:\n        /* \"#utility.yul\":7653:7656   */\n      0x00\n        /* \"#utility.yul\":7682:7733   */\n      tag_169\n        /* \"#utility.yul\":7727:7732   */\n      dup3\n        /* \"#utility.yul\":7682:7733   */\n      tag_76\n      jump\t// in\n    tag_169:\n        /* \"#utility.yul\":7749:7832   */\n      tag_170\n        /* \"#utility.yul\":7825:7831   */\n      dup2\n        /* \"#utility.yul\":7820:7823   */\n      dup6\n        /* \"#utility.yul\":7749:7832   */\n      tag_77\n      jump\t// in\n    tag_170:\n        /* \"#utility.yul\":7742:7832   */\n      swap4\n      pop\n        /* \"#utility.yul\":7856:7909   */\n      tag_171\n        /* \"#utility.yul\":7903:7908   */\n      dup4\n        /* \"#utility.yul\":7856:7909   */\n      tag_78\n      jump\t// in\n    tag_171:\n        /* \"#utility.yul\":7932:7939   */\n      dup1\n        /* \"#utility.yul\":7963:7964   */\n      0x00\n        /* \"#utility.yul\":7948:8223   */\n    tag_172:\n        /* \"#utility.yul\":7973:7979   */\n      dup4\n        /* \"#utility.yul\":7970:7971   */\n      dup2\n        /* \"#utility.yul\":7967:7980   */\n      lt\n        /* \"#utility.yul\":7948:8223   */\n      iszero\n      tag_174\n      jumpi\n        /* \"#utility.yul\":8049:8055   */\n      dup2\n        /* \"#utility.yul\":8043:8056   */\n      mload\n        /* \"#utility.yul\":8076:8133   */\n      tag_175\n        /* \"#utility.yul\":8129:8132   */\n      dup9\n        /* \"#utility.yul\":8114:8127   */\n      dup3\n        /* \"#utility.yul\":8076:8133   */\n      tag_80\n      jump\t// in\n    tag_175:\n        /* \"#utility.yul\":8069:8133   */\n      swap8\n      pop\n        /* \"#utility.yul\":8156:8213   */\n      tag_176\n        /* \"#utility.yul\":8206:8212   */\n      dup4\n        /* \"#utility.yul\":8156:8213   */\n      tag_81\n      jump\t// in\n    tag_176:\n        /* \"#utility.yul\":8146:8213   */\n      swap3\n      pop\n        /* \"#utility.yul\":8008:8223   */\n      pop\n        /* \"#utility.yul\":7995:7996   */\n      0x01\n        /* \"#utility.yul\":7992:7993   */\n      dup2\n        /* \"#utility.yul\":7988:7997   */\n      add\n        /* \"#utility.yul\":7983:7997   */\n      swap1\n      pop\n        /* \"#utility.yul\":7948:8223   */\n      jump(tag_172)\n    tag_174:\n        /* \"#utility.yul\":7952:7966   */\n      pop\n        /* \"#utility.yul\":8239:8242   */\n      dup6\n        /* \"#utility.yul\":8232:8242   */\n      swap4\n      pop\n        /* \"#utility.yul\":7658:8248   */\n      pop\n      pop\n      pop\n        /* \"#utility.yul\":7540:8248   */\n      swap3\n      swap2\n      pop\n      pop\n      jump\t// out\n        /* \"#utility.yul\":8254:8615   */\n    tag_16:\n        /* \"#utility.yul\":8391:8395   */\n      0x00\n        /* \"#utility.yul\":8429:8431   */\n      0x20\n        /* \"#utility.yul\":8418:8427   */\n      dup3\n        /* \"#utility.yul\":8414:8432   */\n      add\n        /* \"#utility.yul\":8406:8432   */\n      swap1\n      pop\n        /* \"#utility.yul\":8478:8487   */\n      dup2\n        /* \"#utility.yul\":8472:8476   */\n      dup2\n        /* \"#utility.yul\":8468:8488   */\n      sub\n        /* \"#utility.yul\":8464:8465   */\n      0x00\n        /* \"#utility.yul\":8453:8462   */\n      dup4\n        /* \"#utility.yul\":8449:8466   */\n      add\n        /* \"#utility.yul\":8442:8489   */\n      mstore\n        /* \"#utility.yul\":8506:8608   */\n      tag_178\n        /* \"#utility.yul\":8603:8607   */\n      dup2\n        /* \"#utility.yul\":8594:8600   */\n      dup5\n        /* \"#utility.yul\":8506:8608   */\n      tag_82\n      jump\t// in\n    tag_178:\n        /* \"#utility.yul\":8498:8608   */\n      swap1\n      pop\n        /* \"#utility.yul\":8254:8615   */\n      swap3\n      swap2\n      pop\n      pop\n      jump\t// out\n        /* \"#utility.yul\":8621:8801   */\n    tag_23:\n        /* \"#utility.yul\":8669:8746   */\n      0x4e487b7100000000000000000000000000000000000000000000000000000000\n        /* \"#utility.yul\":8666:8667   */\n      0x00\n        /* \"#utility.yul\":8659:8747   */\n      mstore\n        /* \"#utility.yul\":8766:8770   */\n      0x32\n        /* \"#utility.yul\":8763:8764   */\n      0x04\n        /* \"#utility.yul\":8756:8771   */\n      mstore\n        /* \"#utility.yul\":8790:8794   */\n      0x24\n        /* \"#utility.yul\":8787:8788   */\n      0x00\n        /* \"#utility.yul\":8780:8795   */\n      revert\n        /* \"#utility.yul\":8807:9136   */\n    tag_25:\n        /* \"#utility.yul\":8866:8872   */\n      0x00\n        /* \"#utility.yul\":8915:8917   */\n      0x20\n        /* \"#utility.yul\":8903:8912   */\n      dup3\n        /* \"#utility.yul\":8894:8901   */\n      dup5\n        /* \"#utility.yul\":8890:8913   */\n      sub\n        /* \"#utility.yul\":8886:8918   */\n      slt\n        /* \"#utility.yul\":8883:9002   */\n      iszero\n      tag_181\n      jumpi\n        /* \"#utility.yul\":8921:9000   */\n      tag_182\n      tag_60\n      jump\t// in\n    tag_182:\n        /* \"#utility.yul\":8883:9002   */\n    tag_181:\n        /* \"#utility.yul\":9041:9042   */\n      0x00\n        /* \"#utility.yul\":9066:9119   */\n      tag_183\n        /* \"#utility.yul\":9111:9118   */\n      dup5\n        /* \"#utility.yul\":9102:9108   */\n      dup3\n        /* \"#utility.yul\":9091:9100   */\n      dup6\n        /* \"#utility.yul\":9087:9109   */\n      add\n        /* \"#utility.yul\":9066:9119   */\n      tag_69\n      jump\t// in\n    tag_183:\n        /* \"#utility.yul\":9056:9119   */\n      swap2\n      pop\n        /* \"#utility.yul\":9012:9129   */\n      pop\n        /* \"#utility.yul\":8807:9136   */\n      swap3\n      swap2\n      pop\n      pop\n      jump\t// out\n        /* \"#utility.yul\":9142:9260   */\n    tag_83:\n        /* \"#utility.yul\":9229:9253   */\n      tag_185\n        /* \"#utility.yul\":9247:9252   */\n      dup2\n        /* \"#utility.yul\":9229:9253   */\n      tag_70\n      jump\t// in\n    tag_185:\n        /* \"#utility.yul\":9224:9227   */\n      dup3\n        /* \"#utility.yul\":9217:9254   */\n      mstore\n        /* \"#utility.yul\":9142:9260   */\n      pop\n      pop\n      jump\t// out\n        /* \"#utility.yul\":9266:9384   */\n    tag_84:\n        /* \"#utility.yul\":9353:9377   */\n      tag_187\n        /* \"#utility.yul\":9371:9376   */\n      dup2\n        /* \"#utility.yul\":9353:9377   */\n      tag_67\n      jump\t// in\n    tag_187:\n        /* \"#utility.yul\":9348:9351   */\n      dup3\n        /* \"#utility.yul\":9341:9378   */\n      mstore\n        /* \"#utility.yul\":9266:9384   */\n      pop\n      pop\n      jump\t// out\n        /* \"#utility.yul\":9390:10054   */\n    tag_27:\n        /* \"#utility.yul\":9595:9599   */\n      0x00\n        /* \"#utility.yul\":9633:9636   */\n      0xa0\n        /* \"#utility.yul\":9622:9631   */\n      dup3\n        /* \"#utility.yul\":9618:9637   */\n      add\n        /* \"#utility.yul\":9610:9637   */\n      swap1\n      pop\n        /* \"#utility.yul\":9647:9718   */\n      tag_189\n        /* \"#utility.yul\":9715:9716   */\n      0x00\n        /* \"#utility.yul\":9704:9713   */\n      dup4\n        /* \"#utility.yul\":9700:9717   */\n      add\n        /* \"#utility.yul\":9691:9697   */\n      dup9\n        /* \"#utility.yul\":9647:9718   */\n      tag_83\n      jump\t// in\n    tag_189:\n        /* \"#utility.yul\":9728:9800   */\n      tag_190\n        /* \"#utility.yul\":9796:9798   */\n      0x20\n        /* \"#utility.yul\":9785:9794   */\n      dup4\n        /* \"#utility.yul\":9781:9799   */\n      add\n        /* \"#utility.yul\":9772:9778   */\n      dup8\n        /* \"#utility.yul\":9728:9800   */\n      tag_84\n      jump\t// in\n    tag_190:\n        /* \"#utility.yul\":9810:9882   */\n      tag_191\n        /* \"#utility.yul\":9878:9880   */\n      0x40\n        /* \"#utility.yul\":9867:9876   */\n      dup4\n        /* \"#utility.yul\":9863:9881   */\n      add\n        /* \"#utility.yul\":9854:9860   */\n      dup7\n        /* \"#utility.yul\":9810:9882   */\n      tag_83\n      jump\t// in\n    tag_191:\n        /* \"#utility.yul\":9892:9964   */\n      tag_192\n        /* \"#utility.yul\":9960:9962   */\n      0x60\n        /* \"#utility.yul\":9949:9958   */\n      dup4\n        /* \"#utility.yul\":9945:9963   */\n      add\n        /* \"#utility.yul\":9936:9942   */\n      dup6\n        /* \"#utility.yul\":9892:9964   */\n      tag_84\n      jump\t// in\n    tag_192:\n        /* \"#utility.yul\":9974:10047   */\n      tag_193\n        /* \"#utility.yul\":10042:10045   */\n      0x80\n        /* \"#utility.yul\":10031:10040   */\n      dup4\n        /* \"#utility.yul\":10027:10046   */\n      add\n        /* \"#utility.yul\":10018:10024   */\n      dup5\n        /* \"#utility.yul\":9974:10047   */\n      tag_84\n      jump\t// in\n    tag_193:\n        /* \"#utility.yul\":9390:10054   */\n      swap7\n      swap6\n      pop\n      pop\n      pop\n      pop\n      pop\n      pop\n      jump\t// out\n        /* \"#utility.yul\":10060:10176   */\n    tag_85:\n        /* \"#utility.yul\":10130:10151   */\n      tag_195\n        /* \"#utility.yul\":10145:10150   */\n      dup2\n        /* \"#utility.yul\":10130:10151   */\n      tag_73\n      jump\t// in\n    tag_195:\n        /* \"#utility.yul\":10123:10128   */\n      dup2\n        /* \"#utility.yul\":10120:10152   */\n      eq\n        /* \"#utility.yul\":10110:10170   */\n      tag_196\n      jumpi\n        /* \"#utility.yul\":10166:10167   */\n      0x00\n        /* \"#utility.yul\":10163:10164   */\n      0x00\n        /* \"#utility.yul\":10156:10168   */\n      revert\n        /* \"#utility.yul\":10110:10170   */\n    tag_196:\n        /* \"#utility.yul\":10060:10176   */\n      pop\n      jump\t// out\n        /* \"#utility.yul\":10182:10319   */\n    tag_86:\n        /* \"#utility.yul\":10236:10241   */\n      0x00\n        /* \"#utility.yul\":10267:10273   */\n      dup2\n        /* \"#utility.yul\":10261:10274   */\n      mload\n        /* \"#utility.yul\":10252:10274   */\n      swap1\n      pop\n        /* \"#utility.yul\":10283:10313   */\n      tag_198\n        /* \"#utility.yul\":10307:10312   */\n      dup2\n        /* \"#utility.yul\":10283:10313   */\n      tag_85\n      jump\t// in\n    tag_198:\n        /* \"#utility.yul\":10182:10319   */\n      swap3\n      swap2\n      pop\n      pop\n      jump\t// out\n        /* \"#utility.yul\":10325:10670   */\n    tag_31:\n        /* \"#utility.yul\":10392:10398   */\n      0x00\n        /* \"#utility.yul\":10441:10443   */\n      0x20\n        /* \"#utility.yul\":10429:10438   */\n      dup3\n        /* \"#utility.yul\":10420:10427   */\n      dup5\n        /* \"#utility.yul\":10416:10439   */\n      sub\n        /* \"#utility.yul\":10412:10444   */\n      slt\n        /* \"#utility.yul\":10409:10528   */\n      iszero\n      tag_200\n      jumpi\n        /* \"#utility.yul\":10447:10526   */\n      tag_201\n      tag_60\n      jump\t// in\n    tag_201:\n        /* \"#utility.yul\":10409:10528   */\n    tag_200:\n        /* \"#utility.yul\":10567:10568   */\n      0x00\n        /* \"#utility.yul\":10592:10653   */\n      tag_202\n        /* \"#utility.yul\":10645:10652   */\n      dup5\n        /* \"#utility.yul\":10636:10642   */\n      dup3\n        /* \"#utility.yul\":10625:10634   */\n      dup6\n        /* \"#utility.yul\":10621:10643   */\n      add\n        /* \"#utility.yul\":10592:10653   */\n      tag_86\n      jump\t// in\n    tag_202:\n        /* \"#utility.yul\":10582:10653   */\n      swap2\n      pop\n        /* \"#utility.yul\":10538:10663   */\n      pop\n        /* \"#utility.yul\":10325:10670   */\n      swap3\n      swap2\n      pop\n      pop\n      jump\t// out\n        /* \"#utility.yul\":10676:10845   */\n    tag_87:\n        /* \"#utility.yul\":10760:10771   */\n      0x00\n        /* \"#utility.yul\":10794:10800   */\n      dup3\n        /* \"#utility.yul\":10789:10792   */\n      dup3\n        /* \"#utility.yul\":10782:10801   */\n      mstore\n        /* \"#utility.yul\":10834:10838   */\n      0x20\n        /* \"#utility.yul\":10829:10832   */\n      dup3\n        /* \"#utility.yul\":10825:10839   */\n      add\n        /* \"#utility.yul\":10810:10839   */\n      swap1\n      pop\n        /* \"#utility.yul\":10676:10845   */\n      swap3\n      swap2\n      pop\n      pop\n      jump\t// out\n        /* \"#utility.yul\":10851:11026   */\n    tag_88:\n        /* \"#utility.yul\":10991:11018   */\n      0x556e657175616c20706172616d65746572206c656e6774687300000000000000\n        /* \"#utility.yul\":10987:10988   */\n      0x00\n        /* \"#utility.yul\":10979:10985   */\n      dup3\n        /* \"#utility.yul\":10975:10989   */\n      add\n        /* \"#utility.yul\":10968:11019   */\n      mstore\n        /* \"#utility.yul\":10851:11026   */\n      pop\n      jump\t// out\n        /* \"#utility.yul\":11032:11398   */\n    tag_89:\n        /* \"#utility.yul\":11174:11177   */\n      0x00\n        /* \"#utility.yul\":11195:11262   */\n      tag_206\n        /* \"#utility.yul\":11259:11261   */\n      0x19\n        /* \"#utility.yul\":11254:11257   */\n      dup4\n        /* \"#utility.yul\":11195:11262   */\n      tag_87\n      jump\t// in\n    tag_206:\n        /* \"#utility.yul\":11188:11262   */\n      swap2\n      pop\n        /* \"#utility.yul\":11271:11364   */\n      tag_207\n        /* \"#utility.yul\":11360:11363   */\n      dup3\n        /* \"#utility.yul\":11271:11364   */\n      tag_88\n      jump\t// in\n    tag_207:\n        /* \"#utility.yul\":11389:11391   */\n      0x20\n        /* \"#utility.yul\":11384:11387   */\n      dup3\n        /* \"#utility.yul\":11380:11392   */\n      add\n        /* \"#utility.yul\":11373:11392   */\n      swap1\n      pop\n        /* \"#utility.yul\":11032:11398   */\n      swap2\n      swap1\n      pop\n      jump\t// out\n        /* \"#utility.yul\":11404:11823   */\n    tag_38:\n        /* \"#utility.yul\":11570:11574   */\n      0x00\n        /* \"#utility.yul\":11608:11610   */\n      0x20\n        /* \"#utility.yul\":11597:11606   */\n      dup3\n        /* \"#utility.yul\":11593:11611   */\n      add\n        /* \"#utility.yul\":11585:11611   */\n      swap1\n      pop\n        /* \"#utility.yul\":11657:11666   */\n      dup2\n        /* \"#utility.yul\":11651:11655   */\n      dup2\n        /* \"#utility.yul\":11647:11667   */\n      sub\n        /* \"#utility.yul\":11643:11644   */\n      0x00\n        /* \"#utility.yul\":11632:11641   */\n      dup4\n        /* \"#utility.yul\":11628:11645   */\n      add\n        /* \"#utility.yul\":11621:11668   */\n      mstore\n        /* \"#utility.yul\":11685:11816   */\n      tag_209\n        /* \"#utility.yul\":11811:11815   */\n      dup2\n        /* \"#utility.yul\":11685:11816   */\n      tag_89\n      jump\t// in\n    tag_209:\n        /* \"#utility.yul\":11677:11816   */\n      swap1\n      pop\n        /* \"#utility.yul\":11404:11823   */\n      swap2\n      swap1\n      pop\n      jump\t// out\n        /* \"#utility.yul\":11829:12009   */\n    tag_41:\n        /* \"#utility.yul\":11877:11954   */\n      0x4e487b7100000000000000000000000000000000000000000000000000000000\n        /* \"#utility.yul\":11874:11875   */\n      0x00\n        /* \"#utility.yul\":11867:11955   */\n      mstore\n        /* \"#utility.yul\":11974:11978   */\n      0x41\n        /* \"#utility.yul\":11971:11972   */\n      0x04\n        /* \"#utility.yul\":11964:11979   */\n      mstore\n        /* \"#utility.yul\":11998:12002   */\n      0x24\n        /* \"#utility.yul\":11995:11996   */\n      0x00\n        /* \"#utility.yul\":11988:12003   */\n      revert\n\n    auxdata: 0xa26469706673582212200a466837d27b1c1933f42e4f8bf3d3b08d8e48277e1e96873792c28e601e966f64736f6c634300081c0033\n}\n",
				"bytecode": {
					"linkReferences": {},
					"object": "6080604052348015600e575f5ffd5b5061093d8061001c5f395ff3fe608060405234801561000f575f5ffd5b5060043610610034575f3560e01c80638a33be0114610038578063ca31d58614610068575b5f5ffd5b610052600480360381019061004d9190610413565b610098565b60405161005f91906104d7565b60405180910390f35b610082600480360381019061007d9190610545565b610182565b60405161008f9190610726565b60405180910390f35b5f5f5f90505b88889050811015610172575f8989838181106100bd576100bc610746565b5b90506020020160208101906100d29190610773565b90508073ffffffffffffffffffffffffffffffffffffffff166329b915b3888a8989896040518663ffffffff1660e01b81526004016101159594939291906107bc565b602060405180830381865afa158015610130573d5f5f3e3d5ffd5b505050506040513d601f19601f820116820180604052508101906101549190610837565b1561016457600192505050610177565b50808060010191505061009e565b505f90505b979650505050505050565b6060868690508989905014801561019e57508484905089899050145b80156101af57508282905089899050145b6101ee576040517f08c379a00000000000000000000000000000000000000000000000000000000081526004016101e5906108bc565b60405180910390fd5b8888905067ffffffffffffffff81111561020b5761020a6108da565b5b6040519080825280602002602001820160405280156102395781602001602082028036833780820191505090505b5090505f5f90505b8989905081101561030d576102db8d8d8d8d8d8681811061026557610264610746565b5b905060200201358c8c8781811061027f5761027e610746565b5b905060200201358b8b8881811061029957610298610746565b5b90506020020160208101906102ae9190610773565b8a8a898181106102c1576102c0610746565b5b90506020020160208101906102d69190610773565b610098565b8282815181106102ee576102ed610746565b5b6020026020010190151590811515815250508080600101915050610241565b509b9a5050505050505050505050565b5f5ffd5b5f5ffd5b5f5ffd5b5f5ffd5b5f5ffd5b5f5f83601f84011261034657610345610325565b5b8235905067ffffffffffffffff81111561036357610362610329565b5b60208301915083602082028301111561037f5761037e61032d565b5b9250929050565b5f73ffffffffffffffffffffffffffffffffffffffff82169050919050565b5f6103af82610386565b9050919050565b6103bf816103a5565b81146103c9575f5ffd5b50565b5f813590506103da816103b6565b92915050565b5f819050919050565b6103f2816103e0565b81146103fc575f5ffd5b50565b5f8135905061040d816103e9565b92915050565b5f5f5f5f5f5f5f60c0888a03121561042e5761042d61031d565b5b5f88013567ffffffffffffffff81111561044b5761044a610321565b5b6104578a828b01610331565b9750975050602061046a8a828b016103cc565b955050604061047b8a828b016103ff565b945050606061048c8a828b016103ff565b935050608061049d8a828b016103cc565b92505060a06104ae8a828b016103cc565b91505092959891949750929550565b5f8115159050919050565b6104d1816104bd565b82525050565b5f6020820190506104ea5f8301846104c8565b92915050565b5f5f83601f84011261050557610504610325565b5b8235905067ffffffffffffffff81111561052257610521610329565b5b60208301915083602082028301111561053e5761053d61032d565b5b9250929050565b5f5f5f5f5f5f5f5f5f5f5f60c08c8e0312156105645761056361031d565b5b5f8c013567ffffffffffffffff81111561058157610580610321565b5b61058d8e828f01610331565b9b509b505060206105a08e828f016103cc565b99505060408c013567ffffffffffffffff8111156105c1576105c0610321565b5b6105cd8e828f016104f0565b985098505060608c013567ffffffffffffffff8111156105f0576105ef610321565b5b6105fc8e828f016104f0565b965096505060808c013567ffffffffffffffff81111561061f5761061e610321565b5b61062b8e828f01610331565b945094505060a08c013567ffffffffffffffff81111561064e5761064d610321565b5b61065a8e828f01610331565b92509250509295989b509295989b9093969950565b5f81519050919050565b5f82825260208201905092915050565b5f819050602082019050919050565b6106a1816104bd565b82525050565b5f6106b28383610698565b60208301905092915050565b5f602082019050919050565b5f6106d48261066f565b6106de8185610679565b93506106e983610689565b805f5b8381101561071957815161070088826106a7565b975061070b836106be565b9250506001810190506106ec565b5085935050505092915050565b5f6020820190508181035f83015261073e81846106ca565b905092915050565b7f4e487b71000000000000000000000000000000000000000000000000000000005f52603260045260245ffd5b5f602082840312156107885761078761031d565b5b5f610795848285016103cc565b91505092915050565b6107a7816103e0565b82525050565b6107b6816103a5565b82525050565b5f60a0820190506107cf5f83018861079e565b6107dc60208301876107ad565b6107e9604083018661079e565b6107f660608301856107ad565b61080360808301846107ad565b9695505050505050565b610816816104bd565b8114610820575f5ffd5b50565b5f815190506108318161080d565b92915050565b5f6020828403121561084c5761084b61031d565b5b5f61085984828501610823565b91505092915050565b5f82825260208201905092915050565b7f556e657175616c20706172616d65746572206c656e67746873000000000000005f82015250565b5f6108a6601983610862565b91506108b182610872565b602082019050919050565b5f6020820190508181035f8301526108d38161089a565b9050919050565b7f4e487b71000000000000000000000000000000000000000000000000000000005f52604160045260245ffdfea26469706673582212200a466837d27b1c1933f42e4f8bf3d3b08d8e48277e1e96873792c28e601e966f64736f6c634300081c0033",
					"opcodes": "PUSH1 0x80 PUSH1 0x40 MSTORE CALLVALUE DUP1 ISZERO PUSH1 0xE JUMPI PUSH0 PUSH0 REVERT JUMPDEST POP PUSH2 0x93D DUP1 PUSH2 0x1C PUSH0 CODECOPY PUSH0 RETURN INVALID PUSH1 0x80 PUSH1 0x40 MSTORE CALLVALUE DUP1 ISZERO PUSH2 0xF JUMPI PUSH0 PUSH0 REVERT JUMPDEST POP PUSH1 0x4 CALLDATASIZE LT PUSH2 0x34 JUMPI PUSH0 CALLDATALOAD PUSH1 0xE0 SHR DUP1 PUSH4 0x8A33BE01 EQ PUSH2 0x38 JUMPI DUP1 PUSH4 0xCA31D586 EQ PUSH2 0x68 JUMPI JUMPDEST PUSH0 PUSH0 REVERT JUMPDEST PUSH2 0x52 PUSH1 0x4 DUP1 CALLDATASIZE SUB DUP2 ADD SWAP1 PUSH2 0x4D SWAP2 SWAP1 PUSH2 0x413 JUMP JUMPDEST PUSH2 0x98 JUMP JUMPDEST PUSH1 0x40 MLOAD PUSH2 0x5F SWAP2 SWAP1 PUSH2 0x4D7 JUMP JUMPDEST PUSH1 0x40 MLOAD DUP1 SWAP2 SUB SWAP1 RETURN JUMPDEST PUSH2 0x82 PUSH1 0x4 DUP1 CALLDATASIZE SUB DUP2 ADD SWAP1 PUSH2 0x7D SWAP2 SWAP1 PUSH2 0x545 JUMP JUMPDEST PUSH2 0x182 JUMP JUMPDEST PUSH1 0x40 MLOAD PUSH2 0x8F SWAP2 SWAP1 PUSH2 0x726 JUMP JUMPDEST PUSH1 0x40 MLOAD DUP1 SWAP2 SUB SWAP1 RETURN JUMPDEST PUSH0 PUSH0 PUSH0 SWAP1 POP JUMPDEST DUP9 DUP9 SWAP1 POP DUP2 LT ISZERO PUSH2 0x172 JUMPI PUSH0 DUP10 DUP10 DUP4 DUP2 DUP2 LT PUSH2 0xBD JUMPI PUSH2 0xBC PUSH2 0x746 JUMP JUMPDEST JUMPDEST SWAP1 POP PUSH1 0x20 MUL ADD PUSH1 0x20 DUP2 ADD SWAP1 PUSH2 0xD2 SWAP2 SWAP1 PUSH2 0x773 JUMP JUMPDEST SWAP1 POP DUP1 PUSH20 0xFFFFFFFFFFFFFFFFFFFFFFFFFFFFFFFFFFFFFFFF AND PUSH4 0x29B915B3 DUP9 DUP11 DUP10 DUP10 DUP10 PUSH1 0x40 MLOAD DUP7 PUSH4 0xFFFFFFFF AND PUSH1 0xE0 SHL DUP2 MSTORE PUSH1 0x4 ADD PUSH2 0x115 SWAP6 SWAP5 SWAP4 SWAP3 SWAP2 SWAP1 PUSH2 0x7BC JUMP JUMPDEST PUSH1 0x20 PUSH1 0x40 MLOAD DUP1 DUP4 SUB DUP2 DUP7 GAS STATICCALL ISZERO DUP1 ISZERO PUSH2 0x130 JUMPI RETURNDATASIZE PUSH0 PUSH0 RETURNDATACOPY RETURNDATASIZE PUSH0 REVERT JUMPDEST POP POP POP POP PUSH1 0x40 MLOAD RETURNDATASIZE PUSH1 0x1F NOT PUSH1 0x1F DUP3 ADD AND DUP3 ADD DUP1 PUSH1 0x40 MSTORE POP DUP2 ADD SWAP1 PUSH2 0x154 SWAP2 SWAP1 PUSH2 0x837 JUMP JUMPDEST ISZERO PUSH2 0x164 JUMPI PUSH1 0x1 SWAP3 POP POP POP PUSH2 0x177 JUMP JUMPDEST POP DUP1 DUP1 PUSH1 0x1 ADD SWAP2 POP POP PUSH2 0x9E JUMP JUMPDEST POP PUSH0 SWAP1 POP JUMPDEST SWAP8 SWAP7 POP POP POP POP POP POP POP JUMP JUMPDEST PUSH1 0x60 DUP7 DUP7 SWAP1 POP DUP10 DUP10 SWAP1 POP EQ DUP1 ISZERO PUSH2 0x19E JUMPI POP DUP5 DUP5 SWAP1 POP DUP10 DUP10 SWAP1 POP EQ JUMPDEST DUP1 ISZERO PUSH2 0x1AF JUMPI POP DUP3 DUP3 SWAP1 POP DUP10 DUP10 SWAP1 POP EQ JUMPDEST PUSH2 0x1EE JUMPI PUSH1 0x40 MLOAD PUSH32 0x8C379A000000000000000000000000000000000000000000000000000000000 DUP2 MSTORE PUSH1 0x4 ADD PUSH2 0x1E5 SWAP1 PUSH2 0x8BC JUMP JUMPDEST PUSH1 0x40 MLOAD DUP1 SWAP2 SUB SWAP1 REVERT JUMPDEST DUP9 DUP9 SWAP1 POP PUSH8 0xFFFFFFFFFFFFFFFF DUP2 GT ISZERO PUSH2 0x20B JUMPI PUSH2 0x20A PUSH2 0x8DA JUMP JUMPDEST JUMPDEST PUSH1 0x40 MLOAD SWAP1 DUP1 DUP3 MSTORE DUP1 PUSH1 0x20 MUL PUSH1 0x20 ADD DUP3 ADD PUSH1 0x40 MSTORE DUP1 ISZERO PUSH2 0x239 JUMPI DUP2 PUSH1 0x20 ADD PUSH1 0x20 DUP3 MUL DUP1 CALLDATASIZE DUP4 CALLDATACOPY DUP1 DUP3 ADD SWAP2 POP POP SWAP1 POP JUMPDEST POP SWAP1 POP PUSH0 PUSH0 SWAP1 POP JUMPDEST DUP10 DUP10 SWAP1 POP DUP2 LT ISZERO PUSH2 0x30D JUMPI PUSH2 0x2DB DUP14 DUP14 DUP14 DUP14 DUP14 DUP7 DUP2 DUP2 LT PUSH2 0x265 JUMPI PUSH2 0x264 PUSH2 0x746 JUMP JUMPDEST JUMPDEST SWAP1 POP PUSH1 0x20 MUL ADD CALLDATALOAD DUP13 DUP13 DUP8 DUP2 DUP2 LT PUSH2 0x27F JUMPI PUSH2 0x27E PUSH2 0x746 JUMP JUMPDEST JUMPDEST SWAP1 POP PUSH1 0x20 MUL ADD CALLDATALOAD DUP12 DUP12 DUP9 DUP2 DUP2 LT PUSH2 0x299 JUMPI PUSH2 0x298 PUSH2 0x746 JUMP JUMPDEST JUMPDEST SWAP1 POP PUSH1 0x20 MUL ADD PUSH1 0x20 DUP2 ADD SWAP1 PUSH2 0x2AE SWAP2 SWAP1 PUSH2 0x773 JUMP JUMPDEST DUP11 DUP11 DUP10 DUP2 DUP2 LT PUSH2 0x2C1 JUMPI PUSH2 0x2C0 PUSH2 0x746 JUMP JUMPDEST JUMPDEST SWAP1 POP PUSH1 0x20 MUL ADD PUSH1 0x20 DUP2 ADD SWAP1 PUSH2 0x2D6 SWAP2 SWAP1 PUSH2 0x773 JUMP JUMPDEST PUSH2 0x98 JUMP JUMPDEST DUP3 DUP3 DUP2 MLOAD DUP2 LT PUSH2 0x2EE JUMPI PUSH2 0x2ED PUSH2 0x746 JUMP JUMPDEST JUMPDEST PUSH1 0x20 MUL PUSH1 0x20 ADD ADD SWAP1 ISZERO ISZERO SWAP1 DUP2 ISZERO ISZERO DUP2 MSTORE POP POP DUP1 DUP1 PUSH1 0x1 ADD SWAP2 POP POP PUSH2 0x241 JUMP JUMPDEST POP SWAP12 SWAP11 POP POP POP POP POP POP POP POP POP POP POP JUMP JUMPDEST PUSH0 PUSH0 REVERT JUMPDEST PUSH0 PUSH0 REVERT JUMPDEST PUSH0 PUSH0 REVERT JUMPDEST PUSH0 PUSH0 REVERT JUMPDEST PUSH0 PUSH0 REVERT JUMPDEST PUSH0 PUSH0 DUP4 PUSH1 0x1F DUP5 ADD SLT PUSH2 0x346 JUMPI PUSH2 0x345 PUSH2 0x325 JUMP JUMPDEST JUMPDEST DUP3 CALLDATALOAD SWAP1 POP PUSH8 0xFFFFFFFFFFFFFFFF DUP2 GT ISZERO PUSH2 0x363 JUMPI PUSH2 0x362 PUSH2 0x329 JUMP JUMPDEST JUMPDEST PUSH1 0x20 DUP4 ADD SWAP2 POP DUP4 PUSH1 0x20 DUP3 MUL DUP4 ADD GT ISZERO PUSH2 0x37F JUMPI PUSH2 0x37E PUSH2 0x32D JUMP JUMPDEST JUMPDEST SWAP3 POP SWAP3 SWAP1 POP JUMP JUMPDEST PUSH0 PUSH20 0xFFFFFFFFFFFFFFFFFFFFFFFFFFFFFFFFFFFFFFFF DUP3 AND SWAP1 POP SWAP2 SWAP1 POP JUMP JUMPDEST PUSH0 PUSH2 0x3AF DUP3 PUSH2 0x386 JUMP JUMPDEST SWAP1 POP SWAP2 SWAP1 POP JUMP JUMPDEST PUSH2 0x3BF DUP2 PUSH2 0x3A5 JUMP JUMPDEST DUP2 EQ PUSH2 0x3C9 JUMPI PUSH0 PUSH0 REVERT JUMPDEST POP JUMP JUMPDEST PUSH0 DUP2 CALLDATALOAD SWAP1 POP PUSH2 0x3DA DUP2 PUSH2 0x3B6 JUMP JUMPDEST SWAP3 SWAP2 POP POP JUMP JUMPDEST PUSH0 DUP2 SWAP1 POP SWAP2 SWAP1 POP JUMP JUMPDEST PUSH2 0x3F2 DUP2 PUSH2 0x3E0 JUMP JUMPDEST DUP2 EQ PUSH2 0x3FC JUMPI PUSH0 PUSH0 REVERT JUMPDEST POP JUMP JUMPDEST PUSH0 DUP2 CALLDATALOAD SWAP1 POP PUSH2 0x40D DUP2 PUSH2 0x3E9 JUMP JUMPDEST SWAP3 SWAP2 POP POP JUMP JUMPDEST PUSH0 PUSH0 PUSH0 PUSH0 PUSH0 PUSH0 PUSH0 PUSH1 0xC0 DUP9 DUP11 SUB SLT ISZERO PUSH2 0x42E JUMPI PUSH2 0x42D PUSH2 0x31D JUMP JUMPDEST JUMPDEST PUSH0 DUP9 ADD CALLDATALOAD PUSH8 0xFFFFFFFFFFFFFFFF DUP2 GT ISZERO PUSH2 0x44B JUMPI PUSH2 0x44A PUSH2 0x321 JUMP JUMPDEST JUMPDEST PUSH2 0x457 DUP11 DUP3 DUP12 ADD PUSH2 0x331 JUMP JUMPDEST SWAP8 POP SWAP8 POP POP PUSH1 0x20 PUSH2 0x46A DUP11 DUP3 DUP12 ADD PUSH2 0x3CC JUMP JUMPDEST SWAP6 POP POP PUSH1 0x40 PUSH2 0x47B DUP11 DUP3 DUP12 ADD PUSH2 0x3FF JUMP JUMPDEST SWAP5 POP POP PUSH1 0x60 PUSH2 0x48C DUP11 DUP3 DUP12 ADD PUSH2 0x3FF JUMP JUMPDEST SWAP4 POP POP PUSH1 0x80 PUSH2 0x49D DUP11 DUP3 DUP12 ADD PUSH2 0x3CC JUMP JUMPDEST SWAP3 POP POP PUSH1 0xA0 PUSH2 0x4AE DUP11 DUP3 DUP12 ADD PUSH2 0x3CC JUMP JUMPDEST SWAP2 POP POP SWAP3 SWAP6 SWAP9 SWAP2 SWAP5 SWAP8 POP SWAP3 SWAP6 POP JUMP JUMPDEST PUSH0 DUP2 ISZERO ISZERO SWAP1 POP SWAP2 SWAP1 POP JUMP JUMPDEST PUSH2 0x4D1 DUP2 PUSH2 0x4BD JUMP JUMPDEST DUP3 MSTORE POP POP JUMP JUMPDEST PUSH0 PUSH1 0x20 DUP3 ADD SWAP1 POP PUSH2 0x4EA PUSH0 DUP4 ADD DUP5 PUSH2 0x4C8 JUMP JUMPDEST SWAP3 SWAP2 POP POP JUMP JUMPDEST PUSH0 PUSH0 DUP4 PUSH1 0x1F DUP5 ADD SLT PUSH2 0x505 JUMPI PUSH2 0x504 PUSH2 0x325 JUMP JUMPDEST JUMPDEST DUP3 CALLDATALOAD SWAP1 POP PUSH8 0xFFFFFFFFFFFFFFFF DUP2 GT ISZERO PUSH2 0x522 JUMPI PUSH2 0x521 PUSH2 0x329 JUMP JUMPDEST JUMPDEST PUSH1 0x20 DUP4 ADD SWAP2 POP DUP4 PUSH1 0x20 DUP3 MUL DUP4 ADD GT ISZERO PUSH2 0x53E JUMPI PUSH2 0x53D PUSH2 0x32D JUMP JUMPDEST JUMPDEST SWAP3 POP SWAP3 SWAP1 POP JUMP JUMPDEST PUSH0 PUSH0 PUSH0 PUSH0 PUSH0 PUSH0 PUSH0 PUSH0 PUSH0 PUSH0 PUSH0 PUSH1 0xC0 DUP13 DUP15 SUB SLT ISZERO PUSH2 0x564 JUMPI PUSH2 0x563 PUSH2 0x31D JUMP JUMPDEST JUMPDEST PUSH0 DUP13 ADD CALLDATALOAD PUSH8 0xFFFFFFFFFFFFFFFF DUP2 GT ISZERO PUSH2 0x581 JUMPI PUSH2 0x580 PUSH2 0x321 JUMP JUMPDEST JUMPDEST PUSH2 0x58D DUP15 DUP3 DUP16 ADD PUSH2 0x331 JUMP JUMPDEST SWAP12 POP SWAP12 POP POP PUSH1 0x20 PUSH2 0x5A0 DUP15 DUP3 DUP16 ADD PUSH2 0x3CC JUMP JUMPDEST SWAP10 POP POP PUSH1 0x40 DUP13 ADD CALLDATALOAD PUSH8 0xFFFFFFFFFFFFFFFF DUP2 GT ISZERO PUSH2 0x5C1 JUMPI PUSH2 0x5C0 PUSH2 0x321 JUMP JUMPDEST JUMPDEST PUSH2 0x5CD DUP15 DUP3 DUP16 ADD PUSH2 0x4F0 JUMP JUMPDEST SWAP9 POP SWAP9 POP POP PUSH1 0x60 DUP13 ADD CALLDATALOAD PUSH8 0xFFFFFFFFFFFFFFFF DUP2 GT ISZERO PUSH2 0x5F0 JUMPI PUSH2 0x5EF PUSH2 0x321 JUMP JUMPDEST JUMPDEST PUSH2 0x5FC DUP15 DUP3 DUP16 ADD PUSH2 0x4F0 JUMP JUMPDEST SWAP7 POP SWAP7 POP POP PUSH1 0x80 DUP13 ADD CALLDATALOAD PUSH8 0xFFFFFFFFFFFFFFFF DUP2 GT ISZERO PUSH2 0x61F JUMPI PUSH2 0x61E PUSH2 0x321 JUMP JUMPDEST JUMPDEST PUSH2 0x62B DUP15 DUP3 DUP16 ADD PUSH2 0x331 JUMP JUMPDEST SWAP5 POP SWAP5 POP POP PUSH1 0xA0 DUP13 ADD CALLDATALOAD PUSH8 0xFFFFFFFFFFFFFFFF DUP2 GT ISZERO PUSH2 0x64E JUMPI PUSH2 0x64D PUSH2 0x321 JUMP JUMPDEST JUMPDEST PUSH2 0x65A DUP15 DUP3 DUP16 ADD PUSH2 0x331 JUMP JUMPDEST SWAP3 POP SWAP3 POP POP SWAP3 SWAP6 SWAP9 SWAP12 POP SWAP3 SWAP6 SWAP9 SWAP12 SWAP1 SWAP4 SWAP7 SWAP10 POP JUMP JUMPDEST PUSH0 DUP2 MLOAD SWAP1 POP SWAP2 SWAP1 POP JUMP JUMPDEST PUSH0 DUP3 DUP3 MSTORE PUSH1 0x20 DUP3 ADD SWAP1 POP SWAP3 SWAP2 POP POP JUMP JUMPDEST PUSH0 DUP2 SWAP1 POP PUSH1 0x20 DUP3 ADD SWAP1 POP SWAP2 SWAP1 POP JUMP JUMPDEST PUSH2 0x6A1 DUP2 PUSH2 0x4BD JUMP JUMPDEST DUP3 MSTORE POP POP JUMP JUMPDEST PUSH0 PUSH2 0x6B2 DUP4 DUP4 PUSH2 0x698 JUMP JUMPDEST PUSH1 0x20 DUP4 ADD SWAP1 POP SWAP3 SWAP2 POP POP JUMP JUMPDEST PUSH0 PUSH1 0x20 DUP3 ADD SWAP1 POP SWAP2 SWAP1 POP JUMP JUMPDEST PUSH0 PUSH2 0x6D4 DUP3 PUSH2 0x66F JUMP JUMPDEST PUSH2 0x6DE DUP2 DUP6 PUSH2 0x679 JUMP JUMPDEST SWAP4 POP PUSH2 0x6E9 DUP4 PUSH2 0x689 JUMP JUMPDEST DUP1 PUSH0 JUMPDEST DUP4 DUP2 LT ISZERO PUSH2 0x719 JUMPI DUP2 MLOAD PUSH2 0x700 DUP9 DUP3 PUSH2 0x6A7 JUMP JUMPDEST SWAP8 POP PUSH2 0x70B DUP4 PUSH2 0x6BE JUMP JUMPDEST SWAP3 POP POP PUSH1 0x1 DUP2 ADD SWAP1 POP PUSH2 0x6EC JUMP JUMPDEST POP DUP6 SWAP4 POP POP POP POP SWAP3 SWAP2 POP POP JUMP JUMPDEST PUSH0 PUSH1 0x20 DUP3 ADD SWAP1 POP DUP2 DUP2 SUB PUSH0 DUP4 ADD MSTORE PUSH2 0x73E DUP2 DUP5 PUSH2 0x6CA JUMP JUMPDEST SWAP1 POP SWAP3 SWAP2 POP POP JUMP JUMPDEST PUSH32 0x4E487B7100000000000000000000000000000000000000000000000000000000 PUSH0 MSTORE PUSH1 0x32 PUSH1 0x4 MSTORE PUSH1 0x24 PUSH0 REVERT JUMPDEST PUSH0 PUSH1 0x20 DUP3 DUP5 SUB SLT ISZERO PUSH2 0x788 JUMPI PUSH2 0x787 PUSH2 0x31D JUMP JUMPDEST JUMPDEST PUSH0 PUSH2 0x795 DUP5 DUP3 DUP6 ADD PUSH2 0x3CC JUMP JUMPDEST SWAP2 POP POP SWAP3 SWAP2 POP POP JUMP JUMPDEST PUSH2 0x7A7 DUP2 PUSH2 0x3E0 JUMP JUMPDEST DUP3 MSTORE POP POP JUMP JUMPDEST PUSH2 0x7B6 DUP2 PUSH2 0x3A5 JUMP JUMPDEST DUP3 MSTORE POP POP JUMP JUMPDEST PUSH0 PUSH1 0xA0 DUP3 ADD SWAP1 POP PUSH2 0x7CF PUSH0 DUP4 ADD DUP9 PUSH2 0x79E JUMP JUMPDEST PUSH2 0x7DC PUSH1 0x20 DUP4 ADD DUP8 PUSH2 0x7AD JUMP JUMPDEST PUSH2 0x7E9 PUSH1 0x40 DUP4 ADD DUP7 PUSH2 0x79E JUMP JUMPDEST PUSH2 0x7F6 PUSH1 0x60 DUP4 ADD DUP6 PUSH2 0x7AD JUMP JUMPDEST PUSH2 0x803 PUSH1 0x80 DUP4 ADD DUP5 PUSH2 0x7AD JUMP JUMPDEST SWAP7 SWAP6 POP POP POP POP POP POP JUMP JUMPDEST PUSH2 0x816 DUP2 PUSH2 0x4BD JUMP JUMPDEST DUP2 EQ PUSH2 0x820 JUMPI PUSH0 PUSH0 REVERT JUMPDEST POP JUMP JUMPDEST PUSH0 DUP2 MLOAD SWAP1 POP PUSH2 0x831 DUP2 PUSH2 0x80D JUMP JUMPDEST SWAP3 SWAP2 POP POP JUMP JUMPDEST PUSH0 PUSH1 0x20 DUP3 DUP5 SUB SLT ISZERO PUSH2 0x84C JUMPI PUSH2 0x84B PUSH2 0x31D JUMP JUMPDEST JUMPDEST PUSH0 PUSH2 0x859 DUP5 DUP3 DUP6 ADD PUSH2 0x823 JUMP JUMPDEST SWAP2 POP POP SWAP3 SWAP2 POP POP JUMP JUMPDEST PUSH0 DUP3 DUP3 MSTORE PUSH1 0x20 DUP3 ADD SWAP1 POP SWAP3 SWAP2 POP POP JUMP JUMPDEST PUSH32 0x556E657175616C20706172616D65746572206C656E6774687300000000000000 PUSH0 DUP3 ADD MSTORE POP JUMP JUMPDEST PUSH0 PUSH2 0x8A6 PUSH1 0x19 DUP4 PUSH2 0x862 JUMP JUMPDEST SWAP2 POP PUSH2 0x8B1 DUP3 PUSH2 0x872 JUMP JUMPDEST PUSH1 0x20 DUP3 ADD SWAP1 POP SWAP2 SWAP1 POP JUMP JUMPDEST PUSH0 PUSH1 0x20 DUP3 ADD SWAP1 POP DUP2 DUP2 SUB PUSH0 DUP4 ADD MSTORE PUSH2 0x8D3 DUP2 PUSH2 0x89A JUMP JUMPDEST SWAP1 POP SWAP2 SWAP1 POP JUMP JUMPDEST PUSH32 0x4E487B7100000000000000000000000000000000000000000000000000000000 PUSH0 MSTORE PUSH1 0x41 PUSH1 0x4 MSTORE PUSH1 0x24 PUSH0 REVERT INVALID LOG2 PUSH5 0x6970667358 0x22 SLT KECCAK256 EXP CHAINID PUSH9 0x37D27B1C1933F42E4F DUP12 RETURN 0xD3 0xB0 DUP14 DUP15 BASEFEE 0x27 PUSH31 0x1E96873792C28E601E966F64736F6C634300081C0033000000000000000000 "
				},
				"gasEstimates": {
					"creation": {
						"codeDepositCost": "473000",
						"executionCost": "503",
						"totalCost": "473503"
					},
					"external": {
						"checkAuthorizationStatus(address[],address,bytes32,bytes32,address,address)": "infinite",
						"checkAuthorizationStatuses(address[],address,bytes32[],bytes32[],address[],address[])": "infinite"
					}
				},
				"methodIdentifiers": {
					"checkAuthorizationStatus(address[],address,bytes32,bytes32,address,address)": "8a33be01",
					"checkAuthorizationStatuses(address[],address,bytes32[],bytes32[],address[],address[])": "ca31d586"
				}
			},
			"storageLayout": {
				"storage": [],
				"types": null
			},
			"userdoc": {
				"kind": "user",
				"methods": {
					"checkAuthorizationStatus(address[],address,bytes32,bytes32,address,address)": {
						"notice": "Uses the authorizer contracts of an Airnode to decide if a request is authorized. Once an Airnode receives a request, it calls this method to determine if it should respond. Similarly, third parties can use this method to determine if a particular request would be authorized."
					},
					"checkAuthorizationStatuses(address[],address,bytes32[],bytes32[],address[],address[])": {
						"notice": "A convenience function to make multiple authorization status checks with a single call"
					}
				},
				"version": 1
			}
		}
	}
}