{
	"contracts/api3/contracts/rrp/WithdrawalUtilsV0.sol": {
		"WithdrawalUtilsV0": {
			"abi": [
				{
					"anonymous": false,
					"inputs": [
						{
							"indexed": true,
							"internalType": "address",
							"name": "airnode",
							"type": "address"
						},
						{
							"indexed": true,
							"internalType": "address",
							"name": "sponsor",
							"type": "address"
						},
						{
							"indexed": true,
							"internalType": "bytes32",
							"name": "withdrawalRequestId",
							"type": "bytes32"
						},
						{
							"indexed": false,
							"internalType": "address",
							"name": "sponsorWallet",
							"type": "address"
						},
						{
							"indexed": false,
							"internalType": "uint256",
							"name": "amount",
							"type": "uint256"
						}
					],
					"name": "FulfilledWithdrawal",
					"type": "event"
				},
				{
					"anonymous": false,
					"inputs": [
						{
							"indexed": true,
							"internalType": "address",
							"name": "airnode",
							"type": "address"
						},
						{
							"indexed": true,
							"internalType": "address",
							"name": "sponsor",
							"type": "address"
						},
						{
							"indexed": true,
							"internalType": "bytes32",
							"name": "withdrawalRequestId",
							"type": "bytes32"
						},
						{
							"indexed": false,
							"internalType": "address",
							"name": "sponsorWallet",
							"type": "address"
						}
					],
					"name": "RequestedWithdrawal",
					"type": "event"
				},
				{
					"inputs": [
						{
							"internalType": "bytes32",
							"name": "withdrawalRequestId",
							"type": "bytes32"
						},
						{
							"internalType": "address",
							"name": "airnode",
							"type": "address"
						},
						{
							"internalType": "address",
							"name": "sponsor",
							"type": "address"
						}
					],
					"name": "fulfillWithdrawal",
					"outputs": [],
					"stateMutability": "payable",
					"type": "function"
				},
				{
					"inputs": [
						{
							"internalType": "address",
							"name": "airnode",
							"type": "address"
						},
						{
							"internalType": "address",
							"name": "sponsorWallet",
							"type": "address"
						}
					],
					"name": "requestWithdrawal",
					"outputs": [],
					"stateMutability": "nonpayable",
					"type": "function"
				},
				{
					"inputs": [
						{
							"internalType": "address",
							"name": "",
							"type": "address"
						}
					],
					"name": "sponsorToWithdrawalRequestCount",
					"outputs": [
						{
							"internalType": "uint256",
							"name": "",
							"type": "uint256"
						}
					],
					"stateMutability": "view",
					"type": "function"
				}
			],
			"devdoc": {
				"kind": "dev",
				"methods": {
					"fulfillWithdrawal(bytes32,address,address)": {
						"details": "The Airnode sends the funds to the sponsor through this method to emit an event that indicates that the withdrawal request has been fulfilled",
						"params": {
							"airnode": "Airnode address",
							"sponsor": "Sponsor address",
							"withdrawalRequestId": "Withdrawal request ID"
						}
					},
					"requestWithdrawal(address,address)": {
						"details": "We do not need to use the withdrawal request parameters in the request ID hash to validate them at the node-side because all of the parameters are used during fulfillment and will get validated on-chain. The first withdrawal request a sponsor will make will cost slightly higher gas than the rest due to how the request counter is implemented.",
						"params": {
							"airnode": "Airnode address",
							"sponsorWallet": "Sponsor wallet that the withdrawal is requested from"
						}
					}
				},
				"stateVariables": {
					"sponsorToWithdrawalRequestCount": {
						"details": "Can be used to calculate the ID of the next withdrawal request the sponsor will make"
					},
					"withdrawalRequestIdToParameters": {
						"details": "Hash of expected fulfillment parameters are kept to verify that the fulfillment will be done with the correct parameters"
					}
				},
				"title": "Contract that implements logic for withdrawals from sponsor wallets",
				"version": 1
			},
			"evm": {
				"assembly": "    /* \"contracts/api3/contracts/rrp/WithdrawalUtilsV0.sol\":184:3250  contract WithdrawalUtilsV0 is IWithdrawalUtilsV0 {... */\n  mstore(0x40, 0x80)\n  callvalue\n  dup1\n  iszero\n  tag_1\n  jumpi\n  revert(0x00, 0x00)\ntag_1:\n  pop\n  dataSize(sub_0)\n  dup1\n  dataOffset(sub_0)\n  0x00\n  codecopy\n  0x00\n  return\nstop\n\nsub_0: assembly {\n        /* \"contracts/api3/contracts/rrp/WithdrawalUtilsV0.sol\":184:3250  contract WithdrawalUtilsV0 is IWithdrawalUtilsV0 {... */\n      mstore(0x40, 0x80)\n      jumpi(tag_1, lt(calldatasize, 0x04))\n      shr(0xe0, calldataload(0x00))\n      dup1\n      0x1d414cbd\n      eq\n      tag_2\n      jumpi\n      dup1\n      0x3c7fe5e3\n      eq\n      tag_3\n      jumpi\n      dup1\n      0xf8fa73a1\n      eq\n      tag_4\n      jumpi\n    tag_1:\n      revert(0x00, 0x00)\n        /* \"contracts/api3/contracts/rrp/WithdrawalUtilsV0.sol\":1386:2053  function requestWithdrawal(address airnode, address sponsorWallet)... */\n    tag_2:\n      callvalue\n      dup1\n      iszero\n      tag_5\n      jumpi\n      revert(0x00, 0x00)\n    tag_5:\n      pop\n      tag_6\n      0x04\n      dup1\n      calldatasize\n      sub\n      dup2\n      add\n      swap1\n      tag_7\n      swap2\n      swap1\n      tag_8\n      jump\t// in\n    tag_7:\n      tag_9\n      jump\t// in\n    tag_6:\n      stop\n        /* \"contracts/api3/contracts/rrp/WithdrawalUtilsV0.sol\":2490:3248  function fulfillWithdrawal(... */\n    tag_3:\n      tag_10\n      0x04\n      dup1\n      calldatasize\n      sub\n      dup2\n      add\n      swap1\n      tag_11\n      swap2\n      swap1\n      tag_12\n      jump\t// in\n    tag_11:\n      tag_13\n      jump\t// in\n    tag_10:\n      stop\n        /* \"contracts/api3/contracts/rrp/WithdrawalUtilsV0.sol\":419:494  mapping(address => uint256) public override sponsorToWithdrawalRequestCount */\n    tag_4:\n      callvalue\n      dup1\n      iszero\n      tag_14\n      jumpi\n      revert(0x00, 0x00)\n    tag_14:\n      pop\n      tag_15\n      0x04\n      dup1\n      calldatasize\n      sub\n      dup2\n      add\n      swap1\n      tag_16\n      swap2\n      swap1\n      tag_17\n      jump\t// in\n    tag_16:\n      tag_18\n      jump\t// in\n    tag_15:\n      mload(0x40)\n      tag_19\n      swap2\n      swap1\n      tag_20\n      jump\t// in\n    tag_19:\n      mload(0x40)\n      dup1\n      swap2\n      sub\n      swap1\n      return\n        /* \"contracts/api3/contracts/rrp/WithdrawalUtilsV0.sol\":1386:2053  function requestWithdrawal(address airnode, address sponsorWallet)... */\n    tag_9:\n        /* \"contracts/api3/contracts/rrp/WithdrawalUtilsV0.sol\":1501:1528  bytes32 withdrawalRequestId */\n      0x00\n        /* \"contracts/api3/contracts/rrp/WithdrawalUtilsV0.sol\":1588:1601  block.chainid */\n      chainid\n        /* \"contracts/api3/contracts/rrp/WithdrawalUtilsV0.sol\":1627:1631  this */\n      address\n        /* \"contracts/api3/contracts/rrp/WithdrawalUtilsV0.sol\":1650:1660  msg.sender */\n      caller\n        /* \"contracts/api3/contracts/rrp/WithdrawalUtilsV0.sol\":1680:1711  sponsorToWithdrawalRequestCount */\n      0x00\n        /* \"contracts/api3/contracts/rrp/WithdrawalUtilsV0.sol\":1680:1723  sponsorToWithdrawalRequestCount[msg.sender] */\n      0x00\n        /* \"contracts/api3/contracts/rrp/WithdrawalUtilsV0.sol\":1712:1722  msg.sender */\n      caller\n        /* \"contracts/api3/contracts/rrp/WithdrawalUtilsV0.sol\":1680:1723  sponsorToWithdrawalRequestCount[msg.sender] */\n      0xffffffffffffffffffffffffffffffffffffffff\n      and\n      0xffffffffffffffffffffffffffffffffffffffff\n      and\n      dup2\n      mstore\n      0x20\n      add\n      swap1\n      dup2\n      mstore\n      0x20\n      add\n      0x00\n      keccak256\n      0x00\n        /* \"contracts/api3/contracts/rrp/WithdrawalUtilsV0.sol\":1678:1723  ++sponsorToWithdrawalRequestCount[msg.sender] */\n      dup2\n      sload\n      tag_22\n      swap1\n      tag_23\n      jump\t// in\n    tag_22:\n      swap2\n      swap1\n      pop\n      dup2\n      swap1\n      sstore\n        /* \"contracts/api3/contracts/rrp/WithdrawalUtilsV0.sol\":1554:1737  abi.encodePacked(... */\n      add(0x20, mload(0x40))\n      tag_24\n      swap5\n      swap4\n      swap3\n      swap2\n      swap1\n      tag_25\n      jump\t// in\n    tag_24:\n      mload(0x40)\n      0x20\n      dup2\n      dup4\n      sub\n      sub\n      dup2\n      mstore\n      swap1\n      0x40\n      mstore\n        /* \"contracts/api3/contracts/rrp/WithdrawalUtilsV0.sol\":1531:1747  keccak256(... */\n      dup1\n      mload\n      swap1\n      0x20\n      add\n      keccak256\n        /* \"contracts/api3/contracts/rrp/WithdrawalUtilsV0.sol\":1501:1747  bytes32 withdrawalRequestId = keccak256(... */\n      swap1\n      pop\n        /* \"contracts/api3/contracts/rrp/WithdrawalUtilsV0.sol\":1852:1859  airnode */\n      dup3\n        /* \"contracts/api3/contracts/rrp/WithdrawalUtilsV0.sol\":1861:1871  msg.sender */\n      caller\n        /* \"contracts/api3/contracts/rrp/WithdrawalUtilsV0.sol\":1873:1886  sponsorWallet */\n      dup4\n        /* \"contracts/api3/contracts/rrp/WithdrawalUtilsV0.sol\":1835:1887  abi.encodePacked(airnode, msg.sender, sponsorWallet) */\n      add(0x20, mload(0x40))\n      tag_26\n      swap4\n      swap3\n      swap2\n      swap1\n      tag_27\n      jump\t// in\n    tag_26:\n      mload(0x40)\n      0x20\n      dup2\n      dup4\n      sub\n      sub\n      dup2\n      mstore\n      swap1\n      0x40\n      mstore\n        /* \"contracts/api3/contracts/rrp/WithdrawalUtilsV0.sol\":1812:1897  keccak256(... */\n      dup1\n      mload\n      swap1\n      0x20\n      add\n      keccak256\n        /* \"contracts/api3/contracts/rrp/WithdrawalUtilsV0.sol\":1757:1788  withdrawalRequestIdToParameters */\n      0x01\n        /* \"contracts/api3/contracts/rrp/WithdrawalUtilsV0.sol\":1757:1809  withdrawalRequestIdToParameters[withdrawalRequestId] */\n      0x00\n        /* \"contracts/api3/contracts/rrp/WithdrawalUtilsV0.sol\":1789:1808  withdrawalRequestId */\n      dup4\n        /* \"contracts/api3/contracts/rrp/WithdrawalUtilsV0.sol\":1757:1809  withdrawalRequestIdToParameters[withdrawalRequestId] */\n      dup2\n      mstore\n      0x20\n      add\n      swap1\n      dup2\n      mstore\n      0x20\n      add\n      0x00\n      keccak256\n        /* \"contracts/api3/contracts/rrp/WithdrawalUtilsV0.sol\":1757:1897  withdrawalRequestIdToParameters[withdrawalRequestId] = keccak256(... */\n      dup2\n      swap1\n      sstore\n      pop\n        /* \"contracts/api3/contracts/rrp/WithdrawalUtilsV0.sol\":1990:2009  withdrawalRequestId */\n      dup1\n        /* \"contracts/api3/contracts/rrp/WithdrawalUtilsV0.sol\":1966:1976  msg.sender */\n      caller\n        /* \"contracts/api3/contracts/rrp/WithdrawalUtilsV0.sol\":1912:2046  RequestedWithdrawal(... */\n      0xffffffffffffffffffffffffffffffffffffffff\n      and\n        /* \"contracts/api3/contracts/rrp/WithdrawalUtilsV0.sol\":1945:1952  airnode */\n      dup5\n        /* \"contracts/api3/contracts/rrp/WithdrawalUtilsV0.sol\":1912:2046  RequestedWithdrawal(... */\n      0xffffffffffffffffffffffffffffffffffffffff\n      and\n      0xd48d52c7c6d0c940f3f8d07591e1800ef3a70daf79929a97ccd80b4494769fc7\n        /* \"contracts/api3/contracts/rrp/WithdrawalUtilsV0.sol\":2023:2036  sponsorWallet */\n      dup6\n        /* \"contracts/api3/contracts/rrp/WithdrawalUtilsV0.sol\":1912:2046  RequestedWithdrawal(... */\n      mload(0x40)\n      tag_28\n      swap2\n      swap1\n      tag_29\n      jump\t// in\n    tag_28:\n      mload(0x40)\n      dup1\n      swap2\n      sub\n      swap1\n      log4\n        /* \"contracts/api3/contracts/rrp/WithdrawalUtilsV0.sol\":1491:2053  {... */\n      pop\n        /* \"contracts/api3/contracts/rrp/WithdrawalUtilsV0.sol\":1386:2053  function requestWithdrawal(address airnode, address sponsorWallet)... */\n      pop\n      pop\n      jump\t// out\n        /* \"contracts/api3/contracts/rrp/WithdrawalUtilsV0.sol\":2490:3248  function fulfillWithdrawal(... */\n    tag_13:\n        /* \"contracts/api3/contracts/rrp/WithdrawalUtilsV0.sol\":2766:2773  airnode */\n      dup2\n        /* \"contracts/api3/contracts/rrp/WithdrawalUtilsV0.sol\":2775:2782  sponsor */\n      dup2\n        /* \"contracts/api3/contracts/rrp/WithdrawalUtilsV0.sol\":2784:2794  msg.sender */\n      caller\n        /* \"contracts/api3/contracts/rrp/WithdrawalUtilsV0.sol\":2749:2795  abi.encodePacked(airnode, sponsor, msg.sender) */\n      add(0x20, mload(0x40))\n      tag_31\n      swap4\n      swap3\n      swap2\n      swap1\n      tag_27\n      jump\t// in\n    tag_31:\n      mload(0x40)\n      0x20\n      dup2\n      dup4\n      sub\n      sub\n      dup2\n      mstore\n      swap1\n      0x40\n      mstore\n        /* \"contracts/api3/contracts/rrp/WithdrawalUtilsV0.sol\":2739:2796  keccak256(abi.encodePacked(airnode, sponsor, msg.sender)) */\n      dup1\n      mload\n      swap1\n      0x20\n      add\n      keccak256\n        /* \"contracts/api3/contracts/rrp/WithdrawalUtilsV0.sol\":2667:2698  withdrawalRequestIdToParameters */\n      0x01\n        /* \"contracts/api3/contracts/rrp/WithdrawalUtilsV0.sol\":2667:2719  withdrawalRequestIdToParameters[withdrawalRequestId] */\n      0x00\n        /* \"contracts/api3/contracts/rrp/WithdrawalUtilsV0.sol\":2699:2718  withdrawalRequestId */\n      dup6\n        /* \"contracts/api3/contracts/rrp/WithdrawalUtilsV0.sol\":2667:2719  withdrawalRequestIdToParameters[withdrawalRequestId] */\n      dup2\n      mstore\n      0x20\n      add\n      swap1\n      dup2\n      mstore\n      0x20\n      add\n      0x00\n      keccak256\n      sload\n        /* \"contracts/api3/contracts/rrp/WithdrawalUtilsV0.sol\":2667:2796  withdrawalRequestIdToParameters[withdrawalRequestId] ==... */\n      eq\n        /* \"contracts/api3/contracts/rrp/WithdrawalUtilsV0.sol\":2646:2852  require(... */\n      tag_32\n      jumpi\n      mload(0x40)\n      0x08c379a000000000000000000000000000000000000000000000000000000000\n      dup2\n      mstore\n      0x04\n      add\n      tag_33\n      swap1\n      tag_34\n      jump\t// in\n    tag_33:\n      mload(0x40)\n      dup1\n      swap2\n      sub\n      swap1\n      revert\n    tag_32:\n        /* \"contracts/api3/contracts/rrp/WithdrawalUtilsV0.sol\":2869:2900  withdrawalRequestIdToParameters */\n      0x01\n        /* \"contracts/api3/contracts/rrp/WithdrawalUtilsV0.sol\":2869:2921  withdrawalRequestIdToParameters[withdrawalRequestId] */\n      0x00\n        /* \"contracts/api3/contracts/rrp/WithdrawalUtilsV0.sol\":2901:2920  withdrawalRequestId */\n      dup5\n        /* \"contracts/api3/contracts/rrp/WithdrawalUtilsV0.sol\":2869:2921  withdrawalRequestIdToParameters[withdrawalRequestId] */\n      dup2\n      mstore\n      0x20\n      add\n      swap1\n      dup2\n      mstore\n      0x20\n      add\n      0x00\n      keccak256\n        /* \"contracts/api3/contracts/rrp/WithdrawalUtilsV0.sol\":2862:2921  delete withdrawalRequestIdToParameters[withdrawalRequestId] */\n      0x00\n      swap1\n      sstore\n        /* \"contracts/api3/contracts/rrp/WithdrawalUtilsV0.sol\":3011:3030  withdrawalRequestId */\n      dup3\n        /* \"contracts/api3/contracts/rrp/WithdrawalUtilsV0.sol\":2990:2997  sponsor */\n      dup2\n        /* \"contracts/api3/contracts/rrp/WithdrawalUtilsV0.sol\":2936:3087  FulfilledWithdrawal(... */\n      0xffffffffffffffffffffffffffffffffffffffff\n      and\n        /* \"contracts/api3/contracts/rrp/WithdrawalUtilsV0.sol\":2969:2976  airnode */\n      dup4\n        /* \"contracts/api3/contracts/rrp/WithdrawalUtilsV0.sol\":2936:3087  FulfilledWithdrawal(... */\n      0xffffffffffffffffffffffffffffffffffffffff\n      and\n      0xadb4840bbd5f924665ae7e0e0c83de5c0fb40a98c9b57dba53a6c978127a622e\n        /* \"contracts/api3/contracts/rrp/WithdrawalUtilsV0.sol\":3044:3054  msg.sender */\n      caller\n        /* \"contracts/api3/contracts/rrp/WithdrawalUtilsV0.sol\":3068:3077  msg.value */\n      callvalue\n        /* \"contracts/api3/contracts/rrp/WithdrawalUtilsV0.sol\":2936:3087  FulfilledWithdrawal(... */\n      mload(0x40)\n      tag_35\n      swap3\n      swap2\n      swap1\n      tag_36\n      jump\t// in\n    tag_35:\n      mload(0x40)\n      dup1\n      swap2\n      sub\n      swap1\n      log4\n        /* \"contracts/api3/contracts/rrp/WithdrawalUtilsV0.sol\":3098:3110  bool success */\n      0x00\n        /* \"contracts/api3/contracts/rrp/WithdrawalUtilsV0.sol\":3116:3123  sponsor */\n      dup2\n        /* \"contracts/api3/contracts/rrp/WithdrawalUtilsV0.sol\":3116:3128  sponsor.call */\n      0xffffffffffffffffffffffffffffffffffffffff\n      and\n        /* \"contracts/api3/contracts/rrp/WithdrawalUtilsV0.sol\":3136:3145  msg.value */\n      callvalue\n        /* \"contracts/api3/contracts/rrp/WithdrawalUtilsV0.sol\":3116:3150  sponsor.call{value: msg.value}(\"\") */\n      mload(0x40)\n      tag_37\n      swap1\n      tag_38\n      jump\t// in\n    tag_37:\n      0x00\n      mload(0x40)\n      dup1\n      dup4\n      sub\n      dup2\n      dup6\n      dup8\n      gas\n      call\n      swap3\n      pop\n      pop\n      pop\n      returndatasize\n      dup1\n      0x00\n      dup2\n      eq\n      tag_41\n      jumpi\n      mload(0x40)\n      swap2\n      pop\n      and(add(returndatasize, 0x3f), not(0x1f))\n      dup3\n      add\n      0x40\n      mstore\n      returndatasize\n      dup3\n      mstore\n      returndatasize\n      0x00\n      0x20\n      dup5\n      add\n      returndatacopy\n      jump(tag_40)\n    tag_41:\n      0x60\n      swap2\n      pop\n    tag_40:\n      pop\n        /* \"contracts/api3/contracts/rrp/WithdrawalUtilsV0.sol\":3097:3150  (bool success, ) = sponsor.call{value: msg.value}(\"\") */\n      pop\n      swap1\n      pop\n        /* \"contracts/api3/contracts/rrp/WithdrawalUtilsV0.sol\":3214:3221  success */\n      dup1\n        /* \"contracts/api3/contracts/rrp/WithdrawalUtilsV0.sol\":3206:3241  require(success, \"Transfer failed\") */\n      tag_42\n      jumpi\n      mload(0x40)\n      0x08c379a000000000000000000000000000000000000000000000000000000000\n      dup2\n      mstore\n      0x04\n      add\n      tag_43\n      swap1\n      tag_44\n      jump\t// in\n    tag_43:\n      mload(0x40)\n      dup1\n      swap2\n      sub\n      swap1\n      revert\n    tag_42:\n        /* \"contracts/api3/contracts/rrp/WithdrawalUtilsV0.sol\":2636:3248  {... */\n      pop\n        /* \"contracts/api3/contracts/rrp/WithdrawalUtilsV0.sol\":2490:3248  function fulfillWithdrawal(... */\n      pop\n      pop\n      pop\n      jump\t// out\n        /* \"contracts/api3/contracts/rrp/WithdrawalUtilsV0.sol\":419:494  mapping(address => uint256) public override sponsorToWithdrawalRequestCount */\n    tag_18:\n      mstore(0x20, 0x00)\n      dup1\n      0x00\n      mstore\n      keccak256(0x00, 0x40)\n      0x00\n      swap2\n      pop\n      swap1\n      pop\n      sload\n      dup2\n      jump\t// out\n        /* \"#utility.yul\":88:205   */\n    tag_46:\n        /* \"#utility.yul\":197:198   */\n      0x00\n        /* \"#utility.yul\":194:195   */\n      0x00\n        /* \"#utility.yul\":187:199   */\n      revert\n        /* \"#utility.yul\":334:460   */\n    tag_48:\n        /* \"#utility.yul\":371:378   */\n      0x00\n        /* \"#utility.yul\":411:453   */\n      0xffffffffffffffffffffffffffffffffffffffff\n        /* \"#utility.yul\":404:409   */\n      dup3\n        /* \"#utility.yul\":400:454   */\n      and\n        /* \"#utility.yul\":389:454   */\n      swap1\n      pop\n        /* \"#utility.yul\":334:460   */\n      swap2\n      swap1\n      pop\n      jump\t// out\n        /* \"#utility.yul\":466:562   */\n    tag_49:\n        /* \"#utility.yul\":503:510   */\n      0x00\n        /* \"#utility.yul\":532:556   */\n      tag_79\n        /* \"#utility.yul\":550:555   */\n      dup3\n        /* \"#utility.yul\":532:556   */\n      tag_48\n      jump\t// in\n    tag_79:\n        /* \"#utility.yul\":521:556   */\n      swap1\n      pop\n        /* \"#utility.yul\":466:562   */\n      swap2\n      swap1\n      pop\n      jump\t// out\n        /* \"#utility.yul\":568:690   */\n    tag_50:\n        /* \"#utility.yul\":641:665   */\n      tag_81\n        /* \"#utility.yul\":659:664   */\n      dup2\n        /* \"#utility.yul\":641:665   */\n      tag_49\n      jump\t// in\n    tag_81:\n        /* \"#utility.yul\":634:639   */\n      dup2\n        /* \"#utility.yul\":631:666   */\n      eq\n        /* \"#utility.yul\":621:684   */\n      tag_82\n      jumpi\n        /* \"#utility.yul\":680:681   */\n      0x00\n        /* \"#utility.yul\":677:678   */\n      0x00\n        /* \"#utility.yul\":670:682   */\n      revert\n        /* \"#utility.yul\":621:684   */\n    tag_82:\n        /* \"#utility.yul\":568:690   */\n      pop\n      jump\t// out\n        /* \"#utility.yul\":696:835   */\n    tag_51:\n        /* \"#utility.yul\":742:747   */\n      0x00\n        /* \"#utility.yul\":780:786   */\n      dup2\n        /* \"#utility.yul\":767:787   */\n      calldataload\n        /* \"#utility.yul\":758:787   */\n      swap1\n      pop\n        /* \"#utility.yul\":796:829   */\n      tag_84\n        /* \"#utility.yul\":823:828   */\n      dup2\n        /* \"#utility.yul\":796:829   */\n      tag_50\n      jump\t// in\n    tag_84:\n        /* \"#utility.yul\":696:835   */\n      swap3\n      swap2\n      pop\n      pop\n      jump\t// out\n        /* \"#utility.yul\":841:1315   */\n    tag_8:\n        /* \"#utility.yul\":909:915   */\n      0x00\n        /* \"#utility.yul\":917:923   */\n      0x00\n        /* \"#utility.yul\":966:968   */\n      0x40\n        /* \"#utility.yul\":954:963   */\n      dup4\n        /* \"#utility.yul\":945:952   */\n      dup6\n        /* \"#utility.yul\":941:964   */\n      sub\n        /* \"#utility.yul\":937:969   */\n      slt\n        /* \"#utility.yul\":934:1053   */\n      iszero\n      tag_86\n      jumpi\n        /* \"#utility.yul\":972:1051   */\n      tag_87\n      tag_46\n      jump\t// in\n    tag_87:\n        /* \"#utility.yul\":934:1053   */\n    tag_86:\n        /* \"#utility.yul\":1092:1093   */\n      0x00\n        /* \"#utility.yul\":1117:1170   */\n      tag_88\n        /* \"#utility.yul\":1162:1169   */\n      dup6\n        /* \"#utility.yul\":1153:1159   */\n      dup3\n        /* \"#utility.yul\":1142:1151   */\n      dup7\n        /* \"#utility.yul\":1138:1160   */\n      add\n        /* \"#utility.yul\":1117:1170   */\n      tag_51\n      jump\t// in\n    tag_88:\n        /* \"#utility.yul\":1107:1170   */\n      swap3\n      pop\n        /* \"#utility.yul\":1063:1180   */\n      pop\n        /* \"#utility.yul\":1219:1221   */\n      0x20\n        /* \"#utility.yul\":1245:1298   */\n      tag_89\n        /* \"#utility.yul\":1290:1297   */\n      dup6\n        /* \"#utility.yul\":1281:1287   */\n      dup3\n        /* \"#utility.yul\":1270:1279   */\n      dup7\n        /* \"#utility.yul\":1266:1288   */\n      add\n        /* \"#utility.yul\":1245:1298   */\n      tag_51\n      jump\t// in\n    tag_89:\n        /* \"#utility.yul\":1235:1298   */\n      swap2\n      pop\n        /* \"#utility.yul\":1190:1308   */\n      pop\n        /* \"#utility.yul\":841:1315   */\n      swap3\n      pop\n      swap3\n      swap1\n      pop\n      jump\t// out\n        /* \"#utility.yul\":1321:1398   */\n    tag_52:\n        /* \"#utility.yul\":1358:1365   */\n      0x00\n        /* \"#utility.yul\":1387:1392   */\n      dup2\n        /* \"#utility.yul\":1376:1392   */\n      swap1\n      pop\n        /* \"#utility.yul\":1321:1398   */\n      swap2\n      swap1\n      pop\n      jump\t// out\n        /* \"#utility.yul\":1404:1526   */\n    tag_53:\n        /* \"#utility.yul\":1477:1501   */\n      tag_92\n        /* \"#utility.yul\":1495:1500   */\n      dup2\n        /* \"#utility.yul\":1477:1501   */\n      tag_52\n      jump\t// in\n    tag_92:\n        /* \"#utility.yul\":1470:1475   */\n      dup2\n        /* \"#utility.yul\":1467:1502   */\n      eq\n        /* \"#utility.yul\":1457:1520   */\n      tag_93\n      jumpi\n        /* \"#utility.yul\":1516:1517   */\n      0x00\n        /* \"#utility.yul\":1513:1514   */\n      0x00\n        /* \"#utility.yul\":1506:1518   */\n      revert\n        /* \"#utility.yul\":1457:1520   */\n    tag_93:\n        /* \"#utility.yul\":1404:1526   */\n      pop\n      jump\t// out\n        /* \"#utility.yul\":1532:1671   */\n    tag_54:\n        /* \"#utility.yul\":1578:1583   */\n      0x00\n        /* \"#utility.yul\":1616:1622   */\n      dup2\n        /* \"#utility.yul\":1603:1623   */\n      calldataload\n        /* \"#utility.yul\":1594:1623   */\n      swap1\n      pop\n        /* \"#utility.yul\":1632:1665   */\n      tag_95\n        /* \"#utility.yul\":1659:1664   */\n      dup2\n        /* \"#utility.yul\":1632:1665   */\n      tag_53\n      jump\t// in\n    tag_95:\n        /* \"#utility.yul\":1532:1671   */\n      swap3\n      swap2\n      pop\n      pop\n      jump\t// out\n        /* \"#utility.yul\":1677:2296   */\n    tag_12:\n        /* \"#utility.yul\":1754:1760   */\n      0x00\n        /* \"#utility.yul\":1762:1768   */\n      0x00\n        /* \"#utility.yul\":1770:1776   */\n      0x00\n        /* \"#utility.yul\":1819:1821   */\n      0x60\n        /* \"#utility.yul\":1807:1816   */\n      dup5\n        /* \"#utility.yul\":1798:1805   */\n      dup7\n        /* \"#utility.yul\":1794:1817   */\n      sub\n        /* \"#utility.yul\":1790:1822   */\n      slt\n        /* \"#utility.yul\":1787:1906   */\n      iszero\n      tag_97\n      jumpi\n        /* \"#utility.yul\":1825:1904   */\n      tag_98\n      tag_46\n      jump\t// in\n    tag_98:\n        /* \"#utility.yul\":1787:1906   */\n    tag_97:\n        /* \"#utility.yul\":1945:1946   */\n      0x00\n        /* \"#utility.yul\":1970:2023   */\n      tag_99\n        /* \"#utility.yul\":2015:2022   */\n      dup7\n        /* \"#utility.yul\":2006:2012   */\n      dup3\n        /* \"#utility.yul\":1995:2004   */\n      dup8\n        /* \"#utility.yul\":1991:2013   */\n      add\n        /* \"#utility.yul\":1970:2023   */\n      tag_54\n      jump\t// in\n    tag_99:\n        /* \"#utility.yul\":1960:2023   */\n      swap4\n      pop\n        /* \"#utility.yul\":1916:2033   */\n      pop\n        /* \"#utility.yul\":2072:2074   */\n      0x20\n        /* \"#utility.yul\":2098:2151   */\n      tag_100\n        /* \"#utility.yul\":2143:2150   */\n      dup7\n        /* \"#utility.yul\":2134:2140   */\n      dup3\n        /* \"#utility.yul\":2123:2132   */\n      dup8\n        /* \"#utility.yul\":2119:2141   */\n      add\n        /* \"#utility.yul\":2098:2151   */\n      tag_51\n      jump\t// in\n    tag_100:\n        /* \"#utility.yul\":2088:2151   */\n      swap3\n      pop\n        /* \"#utility.yul\":2043:2161   */\n      pop\n        /* \"#utility.yul\":2200:2202   */\n      0x40\n        /* \"#utility.yul\":2226:2279   */\n      tag_101\n        /* \"#utility.yul\":2271:2278   */\n      dup7\n        /* \"#utility.yul\":2262:2268   */\n      dup3\n        /* \"#utility.yul\":2251:2260   */\n      dup8\n        /* \"#utility.yul\":2247:2269   */\n      add\n        /* \"#utility.yul\":2226:2279   */\n      tag_51\n      jump\t// in\n    tag_101:\n        /* \"#utility.yul\":2216:2279   */\n      swap2\n      pop\n        /* \"#utility.yul\":2171:2289   */\n      pop\n        /* \"#utility.yul\":1677:2296   */\n      swap3\n      pop\n      swap3\n      pop\n      swap3\n      jump\t// out\n        /* \"#utility.yul\":2302:2631   */\n    tag_17:\n        /* \"#utility.yul\":2361:2367   */\n      0x00\n        /* \"#utility.yul\":2410:2412   */\n      0x20\n        /* \"#utility.yul\":2398:2407   */\n      dup3\n        /* \"#utility.yul\":2389:2396   */\n      dup5\n        /* \"#utility.yul\":2385:2408   */\n      sub\n        /* \"#utility.yul\":2381:2413   */\n      slt\n        /* \"#utility.yul\":2378:2497   */\n      iszero\n      tag_103\n      jumpi\n        /* \"#utility.yul\":2416:2495   */\n      tag_104\n      tag_46\n      jump\t// in\n    tag_104:\n        /* \"#utility.yul\":2378:2497   */\n    tag_103:\n        /* \"#utility.yul\":2536:2537   */\n      0x00\n        /* \"#utility.yul\":2561:2614   */\n      tag_105\n        /* \"#utility.yul\":2606:2613   */\n      dup5\n        /* \"#utility.yul\":2597:2603   */\n      dup3\n        /* \"#utility.yul\":2586:2595   */\n      dup6\n        /* \"#utility.yul\":2582:2604   */\n      add\n        /* \"#utility.yul\":2561:2614   */\n      tag_51\n      jump\t// in\n    tag_105:\n        /* \"#utility.yul\":2551:2614   */\n      swap2\n      pop\n        /* \"#utility.yul\":2507:2624   */\n      pop\n        /* \"#utility.yul\":2302:2631   */\n      swap3\n      swap2\n      pop\n      pop\n      jump\t// out\n        /* \"#utility.yul\":2637:2714   */\n    tag_55:\n        /* \"#utility.yul\":2674:2681   */\n      0x00\n        /* \"#utility.yul\":2703:2708   */\n      dup2\n        /* \"#utility.yul\":2692:2708   */\n      swap1\n      pop\n        /* \"#utility.yul\":2637:2714   */\n      swap2\n      swap1\n      pop\n      jump\t// out\n        /* \"#utility.yul\":2720:2838   */\n    tag_56:\n        /* \"#utility.yul\":2807:2831   */\n      tag_108\n        /* \"#utility.yul\":2825:2830   */\n      dup2\n        /* \"#utility.yul\":2807:2831   */\n      tag_55\n      jump\t// in\n    tag_108:\n        /* \"#utility.yul\":2802:2805   */\n      dup3\n        /* \"#utility.yul\":2795:2832   */\n      mstore\n        /* \"#utility.yul\":2720:2838   */\n      pop\n      pop\n      jump\t// out\n        /* \"#utility.yul\":2844:3066   */\n    tag_20:\n        /* \"#utility.yul\":2937:2941   */\n      0x00\n        /* \"#utility.yul\":2975:2977   */\n      0x20\n        /* \"#utility.yul\":2964:2973   */\n      dup3\n        /* \"#utility.yul\":2960:2978   */\n      add\n        /* \"#utility.yul\":2952:2978   */\n      swap1\n      pop\n        /* \"#utility.yul\":2988:3059   */\n      tag_110\n        /* \"#utility.yul\":3056:3057   */\n      0x00\n        /* \"#utility.yul\":3045:3054   */\n      dup4\n        /* \"#utility.yul\":3041:3058   */\n      add\n        /* \"#utility.yul\":3032:3038   */\n      dup5\n        /* \"#utility.yul\":2988:3059   */\n      tag_56\n      jump\t// in\n    tag_110:\n        /* \"#utility.yul\":2844:3066   */\n      swap3\n      swap2\n      pop\n      pop\n      jump\t// out\n        /* \"#utility.yul\":3072:3252   */\n    tag_57:\n        /* \"#utility.yul\":3120:3197   */\n      0x4e487b7100000000000000000000000000000000000000000000000000000000\n        /* \"#utility.yul\":3117:3118   */\n      0x00\n        /* \"#utility.yul\":3110:3198   */\n      mstore\n        /* \"#utility.yul\":3217:3221   */\n      0x11\n        /* \"#utility.yul\":3214:3215   */\n      0x04\n        /* \"#utility.yul\":3207:3222   */\n      mstore\n        /* \"#utility.yul\":3241:3245   */\n      0x24\n        /* \"#utility.yul\":3238:3239   */\n      0x00\n        /* \"#utility.yul\":3231:3246   */\n      revert\n        /* \"#utility.yul\":3258:3491   */\n    tag_23:\n        /* \"#utility.yul\":3297:3300   */\n      0x00\n        /* \"#utility.yul\":3320:3344   */\n      tag_113\n        /* \"#utility.yul\":3338:3343   */\n      dup3\n        /* \"#utility.yul\":3320:3344   */\n      tag_55\n      jump\t// in\n    tag_113:\n        /* \"#utility.yul\":3311:3344   */\n      swap2\n      pop\n        /* \"#utility.yul\":3366:3432   */\n      0xffffffffffffffffffffffffffffffffffffffffffffffffffffffffffffffff\n        /* \"#utility.yul\":3359:3364   */\n      dup3\n        /* \"#utility.yul\":3356:3433   */\n      sub\n        /* \"#utility.yul\":3353:3456   */\n      tag_114\n      jumpi\n        /* \"#utility.yul\":3436:3454   */\n      tag_115\n      tag_57\n      jump\t// in\n    tag_115:\n        /* \"#utility.yul\":3353:3456   */\n    tag_114:\n        /* \"#utility.yul\":3483:3484   */\n      0x01\n        /* \"#utility.yul\":3476:3481   */\n      dup3\n        /* \"#utility.yul\":3472:3485   */\n      add\n        /* \"#utility.yul\":3465:3485   */\n      swap1\n      pop\n        /* \"#utility.yul\":3258:3491   */\n      swap2\n      swap1\n      pop\n      jump\t// out\n        /* \"#utility.yul\":3497:3576   */\n    tag_58:\n        /* \"#utility.yul\":3536:3543   */\n      0x00\n        /* \"#utility.yul\":3565:3570   */\n      dup2\n        /* \"#utility.yul\":3554:3570   */\n      swap1\n      pop\n        /* \"#utility.yul\":3497:3576   */\n      swap2\n      swap1\n      pop\n      jump\t// out\n        /* \"#utility.yul\":3582:3739   */\n    tag_59:\n        /* \"#utility.yul\":3687:3732   */\n      tag_118\n        /* \"#utility.yul\":3707:3731   */\n      tag_119\n        /* \"#utility.yul\":3725:3730   */\n      dup3\n        /* \"#utility.yul\":3707:3731   */\n      tag_55\n      jump\t// in\n    tag_119:\n        /* \"#utility.yul\":3687:3732   */\n      tag_58\n      jump\t// in\n    tag_118:\n        /* \"#utility.yul\":3682:3685   */\n      dup3\n        /* \"#utility.yul\":3675:3733   */\n      mstore\n        /* \"#utility.yul\":3582:3739   */\n      pop\n      pop\n      jump\t// out\n        /* \"#utility.yul\":3745:3839   */\n    tag_60:\n        /* \"#utility.yul\":3778:3786   */\n      0x00\n        /* \"#utility.yul\":3826:3831   */\n      dup2\n        /* \"#utility.yul\":3822:3824   */\n      0x60\n        /* \"#utility.yul\":3818:3832   */\n      shl\n        /* \"#utility.yul\":3797:3832   */\n      swap1\n      pop\n        /* \"#utility.yul\":3745:3839   */\n      swap2\n      swap1\n      pop\n      jump\t// out\n        /* \"#utility.yul\":3845:3939   */\n    tag_61:\n        /* \"#utility.yul\":3884:3891   */\n      0x00\n        /* \"#utility.yul\":3913:3933   */\n      tag_122\n        /* \"#utility.yul\":3927:3932   */\n      dup3\n        /* \"#utility.yul\":3913:3933   */\n      tag_60\n      jump\t// in\n    tag_122:\n        /* \"#utility.yul\":3902:3933   */\n      swap1\n      pop\n        /* \"#utility.yul\":3845:3939   */\n      swap2\n      swap1\n      pop\n      jump\t// out\n        /* \"#utility.yul\":3945:4045   */\n    tag_62:\n        /* \"#utility.yul\":3984:3991   */\n      0x00\n        /* \"#utility.yul\":4013:4039   */\n      tag_124\n        /* \"#utility.yul\":4033:4038   */\n      dup3\n        /* \"#utility.yul\":4013:4039   */\n      tag_61\n      jump\t// in\n    tag_124:\n        /* \"#utility.yul\":4002:4039   */\n      swap1\n      pop\n        /* \"#utility.yul\":3945:4045   */\n      swap2\n      swap1\n      pop\n      jump\t// out\n        /* \"#utility.yul\":4051:4208   */\n    tag_63:\n        /* \"#utility.yul\":4156:4201   */\n      tag_126\n        /* \"#utility.yul\":4176:4200   */\n      tag_127\n        /* \"#utility.yul\":4194:4199   */\n      dup3\n        /* \"#utility.yul\":4176:4200   */\n      tag_49\n      jump\t// in\n    tag_127:\n        /* \"#utility.yul\":4156:4201   */\n      tag_62\n      jump\t// in\n    tag_126:\n        /* \"#utility.yul\":4151:4154   */\n      dup3\n        /* \"#utility.yul\":4144:4202   */\n      mstore\n        /* \"#utility.yul\":4051:4208   */\n      pop\n      pop\n      jump\t// out\n        /* \"#utility.yul\":4214:4893   */\n    tag_25:\n        /* \"#utility.yul\":4410:4413   */\n      0x00\n        /* \"#utility.yul\":4425:4500   */\n      tag_129\n        /* \"#utility.yul\":4496:4499   */\n      dup3\n        /* \"#utility.yul\":4487:4493   */\n      dup8\n        /* \"#utility.yul\":4425:4500   */\n      tag_59\n      jump\t// in\n    tag_129:\n        /* \"#utility.yul\":4525:4527   */\n      0x20\n        /* \"#utility.yul\":4520:4523   */\n      dup3\n        /* \"#utility.yul\":4516:4528   */\n      add\n        /* \"#utility.yul\":4509:4528   */\n      swap2\n      pop\n        /* \"#utility.yul\":4538:4613   */\n      tag_130\n        /* \"#utility.yul\":4609:4612   */\n      dup3\n        /* \"#utility.yul\":4600:4606   */\n      dup7\n        /* \"#utility.yul\":4538:4613   */\n      tag_63\n      jump\t// in\n    tag_130:\n        /* \"#utility.yul\":4638:4640   */\n      0x14\n        /* \"#utility.yul\":4633:4636   */\n      dup3\n        /* \"#utility.yul\":4629:4641   */\n      add\n        /* \"#utility.yul\":4622:4641   */\n      swap2\n      pop\n        /* \"#utility.yul\":4651:4726   */\n      tag_131\n        /* \"#utility.yul\":4722:4725   */\n      dup3\n        /* \"#utility.yul\":4713:4719   */\n      dup6\n        /* \"#utility.yul\":4651:4726   */\n      tag_63\n      jump\t// in\n    tag_131:\n        /* \"#utility.yul\":4751:4753   */\n      0x14\n        /* \"#utility.yul\":4746:4749   */\n      dup3\n        /* \"#utility.yul\":4742:4754   */\n      add\n        /* \"#utility.yul\":4735:4754   */\n      swap2\n      pop\n        /* \"#utility.yul\":4764:4839   */\n      tag_132\n        /* \"#utility.yul\":4835:4838   */\n      dup3\n        /* \"#utility.yul\":4826:4832   */\n      dup5\n        /* \"#utility.yul\":4764:4839   */\n      tag_59\n      jump\t// in\n    tag_132:\n        /* \"#utility.yul\":4864:4866   */\n      0x20\n        /* \"#utility.yul\":4859:4862   */\n      dup3\n        /* \"#utility.yul\":4855:4867   */\n      add\n        /* \"#utility.yul\":4848:4867   */\n      swap2\n      pop\n        /* \"#utility.yul\":4884:4887   */\n      dup2\n        /* \"#utility.yul\":4877:4887   */\n      swap1\n      pop\n        /* \"#utility.yul\":4214:4893   */\n      swap6\n      swap5\n      pop\n      pop\n      pop\n      pop\n      pop\n      jump\t// out\n        /* \"#utility.yul\":4899:5437   */\n    tag_27:\n        /* \"#utility.yul\":5067:5070   */\n      0x00\n        /* \"#utility.yul\":5082:5157   */\n      tag_134\n        /* \"#utility.yul\":5153:5156   */\n      dup3\n        /* \"#utility.yul\":5144:5150   */\n      dup7\n        /* \"#utility.yul\":5082:5157   */\n      tag_63\n      jump\t// in\n    tag_134:\n        /* \"#utility.yul\":5182:5184   */\n      0x14\n        /* \"#utility.yul\":5177:5180   */\n      dup3\n        /* \"#utility.yul\":5173:5185   */\n      add\n        /* \"#utility.yul\":5166:5185   */\n      swap2\n      pop\n        /* \"#utility.yul\":5195:5270   */\n      tag_135\n        /* \"#utility.yul\":5266:5269   */\n      dup3\n        /* \"#utility.yul\":5257:5263   */\n      dup6\n        /* \"#utility.yul\":5195:5270   */\n      tag_63\n      jump\t// in\n    tag_135:\n        /* \"#utility.yul\":5295:5297   */\n      0x14\n        /* \"#utility.yul\":5290:5293   */\n      dup3\n        /* \"#utility.yul\":5286:5298   */\n      add\n        /* \"#utility.yul\":5279:5298   */\n      swap2\n      pop\n        /* \"#utility.yul\":5308:5383   */\n      tag_136\n        /* \"#utility.yul\":5379:5382   */\n      dup3\n        /* \"#utility.yul\":5370:5376   */\n      dup5\n        /* \"#utility.yul\":5308:5383   */\n      tag_63\n      jump\t// in\n    tag_136:\n        /* \"#utility.yul\":5408:5410   */\n      0x14\n        /* \"#utility.yul\":5403:5406   */\n      dup3\n        /* \"#utility.yul\":5399:5411   */\n      add\n        /* \"#utility.yul\":5392:5411   */\n      swap2\n      pop\n        /* \"#utility.yul\":5428:5431   */\n      dup2\n        /* \"#utility.yul\":5421:5431   */\n      swap1\n      pop\n        /* \"#utility.yul\":4899:5437   */\n      swap5\n      swap4\n      pop\n      pop\n      pop\n      pop\n      jump\t// out\n        /* \"#utility.yul\":5443:5561   */\n    tag_64:\n        /* \"#utility.yul\":5530:5554   */\n      tag_138\n        /* \"#utility.yul\":5548:5553   */\n      dup2\n        /* \"#utility.yul\":5530:5554   */\n      tag_49\n      jump\t// in\n    tag_138:\n        /* \"#utility.yul\":5525:5528   */\n      dup3\n        /* \"#utility.yul\":5518:5555   */\n      mstore\n        /* \"#utility.yul\":5443:5561   */\n      pop\n      pop\n      jump\t// out\n        /* \"#utility.yul\":5567:5789   */\n    tag_29:\n        /* \"#utility.yul\":5660:5664   */\n      0x00\n        /* \"#utility.yul\":5698:5700   */\n      0x20\n        /* \"#utility.yul\":5687:5696   */\n      dup3\n        /* \"#utility.yul\":5683:5701   */\n      add\n        /* \"#utility.yul\":5675:5701   */\n      swap1\n      pop\n        /* \"#utility.yul\":5711:5782   */\n      tag_140\n        /* \"#utility.yul\":5779:5780   */\n      0x00\n        /* \"#utility.yul\":5768:5777   */\n      dup4\n        /* \"#utility.yul\":5764:5781   */\n      add\n        /* \"#utility.yul\":5755:5761   */\n      dup5\n        /* \"#utility.yul\":5711:5782   */\n      tag_64\n      jump\t// in\n    tag_140:\n        /* \"#utility.yul\":5567:5789   */\n      swap3\n      swap2\n      pop\n      pop\n      jump\t// out\n        /* \"#utility.yul\":5795:5964   */\n    tag_65:\n        /* \"#utility.yul\":5879:5890   */\n      0x00\n        /* \"#utility.yul\":5913:5919   */\n      dup3\n        /* \"#utility.yul\":5908:5911   */\n      dup3\n        /* \"#utility.yul\":5901:5920   */\n      mstore\n        /* \"#utility.yul\":5953:5957   */\n      0x20\n        /* \"#utility.yul\":5948:5951   */\n      dup3\n        /* \"#utility.yul\":5944:5958   */\n      add\n        /* \"#utility.yul\":5929:5958   */\n      swap1\n      pop\n        /* \"#utility.yul\":5795:5964   */\n      swap3\n      swap2\n      pop\n      pop\n      jump\t// out\n        /* \"#utility.yul\":5970:6150   */\n    tag_66:\n        /* \"#utility.yul\":6110:6142   */\n      0x496e76616c6964207769746864726177616c2066756c66696c6c6d656e740000\n        /* \"#utility.yul\":6106:6107   */\n      0x00\n        /* \"#utility.yul\":6098:6104   */\n      dup3\n        /* \"#utility.yul\":6094:6108   */\n      add\n        /* \"#utility.yul\":6087:6143   */\n      mstore\n        /* \"#utility.yul\":5970:6150   */\n      pop\n      jump\t// out\n        /* \"#utility.yul\":6156:6522   */\n    tag_67:\n        /* \"#utility.yul\":6298:6301   */\n      0x00\n        /* \"#utility.yul\":6319:6386   */\n      tag_144\n        /* \"#utility.yul\":6383:6385   */\n      0x1e\n        /* \"#utility.yul\":6378:6381   */\n      dup4\n        /* \"#utility.yul\":6319:6386   */\n      tag_65\n      jump\t// in\n    tag_144:\n        /* \"#utility.yul\":6312:6386   */\n      swap2\n      pop\n        /* \"#utility.yul\":6395:6488   */\n      tag_145\n        /* \"#utility.yul\":6484:6487   */\n      dup3\n        /* \"#utility.yul\":6395:6488   */\n      tag_66\n      jump\t// in\n    tag_145:\n        /* \"#utility.yul\":6513:6515   */\n      0x20\n        /* \"#utility.yul\":6508:6511   */\n      dup3\n        /* \"#utility.yul\":6504:6516   */\n      add\n        /* \"#utility.yul\":6497:6516   */\n      swap1\n      pop\n        /* \"#utility.yul\":6156:6522   */\n      swap2\n      swap1\n      pop\n      jump\t// out\n        /* \"#utility.yul\":6528:6947   */\n    tag_34:\n        /* \"#utility.yul\":6694:6698   */\n      0x00\n        /* \"#utility.yul\":6732:6734   */\n      0x20\n        /* \"#utility.yul\":6721:6730   */\n      dup3\n        /* \"#utility.yul\":6717:6735   */\n      add\n        /* \"#utility.yul\":6709:6735   */\n      swap1\n      pop\n        /* \"#utility.yul\":6781:6790   */\n      dup2\n        /* \"#utility.yul\":6775:6779   */\n      dup2\n        /* \"#utility.yul\":6771:6791   */\n      sub\n        /* \"#utility.yul\":6767:6768   */\n      0x00\n        /* \"#utility.yul\":6756:6765   */\n      dup4\n        /* \"#utility.yul\":6752:6769   */\n      add\n        /* \"#utility.yul\":6745:6792   */\n      mstore\n        /* \"#utility.yul\":6809:6940   */\n      tag_147\n        /* \"#utility.yul\":6935:6939   */\n      dup2\n        /* \"#utility.yul\":6809:6940   */\n      tag_67\n      jump\t// in\n    tag_147:\n        /* \"#utility.yul\":6801:6940   */\n      swap1\n      pop\n        /* \"#utility.yul\":6528:6947   */\n      swap2\n      swap1\n      pop\n      jump\t// out\n        /* \"#utility.yul\":6953:7285   */\n    tag_36:\n        /* \"#utility.yul\":7074:7078   */\n      0x00\n        /* \"#utility.yul\":7112:7114   */\n      0x40\n        /* \"#utility.yul\":7101:7110   */\n      dup3\n        /* \"#utility.yul\":7097:7115   */\n      add\n        /* \"#utility.yul\":7089:7115   */\n      swap1\n      pop\n        /* \"#utility.yul\":7125:7196   */\n      tag_149\n        /* \"#utility.yul\":7193:7194   */\n      0x00\n        /* \"#utility.yul\":7182:7191   */\n      dup4\n        /* \"#utility.yul\":7178:7195   */\n      add\n        /* \"#utility.yul\":7169:7175   */\n      dup6\n        /* \"#utility.yul\":7125:7196   */\n      tag_64\n      jump\t// in\n    tag_149:\n        /* \"#utility.yul\":7206:7278   */\n      tag_150\n        /* \"#utility.yul\":7274:7276   */\n      0x20\n        /* \"#utility.yul\":7263:7272   */\n      dup4\n        /* \"#utility.yul\":7259:7277   */\n      add\n        /* \"#utility.yul\":7250:7256   */\n      dup5\n        /* \"#utility.yul\":7206:7278   */\n      tag_56\n      jump\t// in\n    tag_150:\n        /* \"#utility.yul\":6953:7285   */\n      swap4\n      swap3\n      pop\n      pop\n      pop\n      jump\t// out\n        /* \"#utility.yul\":7291:7438   */\n    tag_68:\n        /* \"#utility.yul\":7392:7403   */\n      0x00\n        /* \"#utility.yul\":7429:7432   */\n      dup2\n        /* \"#utility.yul\":7414:7432   */\n      swap1\n      pop\n        /* \"#utility.yul\":7291:7438   */\n      swap3\n      swap2\n      pop\n      pop\n      jump\t// out\n        /* \"#utility.yul\":7444:7558   */\n    tag_69:\n      pop\n      jump\t// out\n        /* \"#utility.yul\":7564:7962   */\n    tag_70:\n        /* \"#utility.yul\":7723:7726   */\n      0x00\n        /* \"#utility.yul\":7744:7827   */\n      tag_154\n        /* \"#utility.yul\":7825:7826   */\n      0x00\n        /* \"#utility.yul\":7820:7823   */\n      dup4\n        /* \"#utility.yul\":7744:7827   */\n      tag_68\n      jump\t// in\n    tag_154:\n        /* \"#utility.yul\":7737:7827   */\n      swap2\n      pop\n        /* \"#utility.yul\":7836:7929   */\n      tag_155\n        /* \"#utility.yul\":7925:7928   */\n      dup3\n        /* \"#utility.yul\":7836:7929   */\n      tag_69\n      jump\t// in\n    tag_155:\n        /* \"#utility.yul\":7954:7955   */\n      0x00\n        /* \"#utility.yul\":7949:7952   */\n      dup3\n        /* \"#utility.yul\":7945:7956   */\n      add\n        /* \"#utility.yul\":7938:7956   */\n      swap1\n      pop\n        /* \"#utility.yul\":7564:7962   */\n      swap2\n      swap1\n      pop\n      jump\t// out\n        /* \"#utility.yul\":7968:8347   */\n    tag_38:\n        /* \"#utility.yul\":8152:8155   */\n      0x00\n        /* \"#utility.yul\":8174:8321   */\n      tag_157\n        /* \"#utility.yul\":8317:8320   */\n      dup3\n        /* \"#utility.yul\":8174:8321   */\n      tag_70\n      jump\t// in\n    tag_157:\n        /* \"#utility.yul\":8167:8321   */\n      swap2\n      pop\n        /* \"#utility.yul\":8338:8341   */\n      dup2\n        /* \"#utility.yul\":8331:8341   */\n      swap1\n      pop\n        /* \"#utility.yul\":7968:8347   */\n      swap2\n      swap1\n      pop\n      jump\t// out\n        /* \"#utility.yul\":8353:8518   */\n    tag_71:\n        /* \"#utility.yul\":8493:8510   */\n      0x5472616e73666572206661696c65640000000000000000000000000000000000\n        /* \"#utility.yul\":8489:8490   */\n      0x00\n        /* \"#utility.yul\":8481:8487   */\n      dup3\n        /* \"#utility.yul\":8477:8491   */\n      add\n        /* \"#utility.yul\":8470:8511   */\n      mstore\n        /* \"#utility.yul\":8353:8518   */\n      pop\n      jump\t// out\n        /* \"#utility.yul\":8524:8890   */\n    tag_72:\n        /* \"#utility.yul\":8666:8669   */\n      0x00\n        /* \"#utility.yul\":8687:8754   */\n      tag_160\n        /* \"#utility.yul\":8751:8753   */\n      0x0f\n        /* \"#utility.yul\":8746:8749   */\n      dup4\n        /* \"#utility.yul\":8687:8754   */\n      tag_65\n      jump\t// in\n    tag_160:\n        /* \"#utility.yul\":8680:8754   */\n      swap2\n      pop\n        /* \"#utility.yul\":8763:8856   */\n      tag_161\n        /* \"#utility.yul\":8852:8855   */\n      dup3\n        /* \"#utility.yul\":8763:8856   */\n      tag_71\n      jump\t// in\n    tag_161:\n        /* \"#utility.yul\":8881:8883   */\n      0x20\n        /* \"#utility.yul\":8876:8879   */\n      dup3\n        /* \"#utility.yul\":8872:8884   */\n      add\n        /* \"#utility.yul\":8865:8884   */\n      swap1\n      pop\n        /* \"#utility.yul\":8524:8890   */\n      swap2\n      swap1\n      pop\n      jump\t// out\n        /* \"#utility.yul\":8896:9315   */\n    tag_44:\n        /* \"#utility.yul\":9062:9066   */\n      0x00\n        /* \"#utility.yul\":9100:9102   */\n      0x20\n        /* \"#utility.yul\":9089:9098   */\n      dup3\n        /* \"#utility.yul\":9085:9103   */\n      add\n        /* \"#utility.yul\":9077:9103   */\n      swap1\n      pop\n        /* \"#utility.yul\":9149:9158   */\n      dup2\n        /* \"#utility.yul\":9143:9147   */\n      dup2\n        /* \"#utility.yul\":9139:9159   */\n      sub\n        /* \"#utility.yul\":9135:9136   */\n      0x00\n        /* \"#utility.yul\":9124:9133   */\n      dup4\n        /* \"#utility.yul\":9120:9137   */\n      add\n        /* \"#utility.yul\":9113:9160   */\n      mstore\n        /* \"#utility.yul\":9177:9308   */\n      tag_163\n        /* \"#utility.yul\":9303:9307   */\n      dup2\n        /* \"#utility.yul\":9177:9308   */\n      tag_72\n      jump\t// in\n    tag_163:\n        /* \"#utility.yul\":9169:9308   */\n      swap1\n      pop\n        /* \"#utility.yul\":8896:9315   */\n      swap2\n      swap1\n      pop\n      jump\t// out\n\n    auxdata: 0xa2646970667358221220f499de04bfeb30503233cc76066ea0e5ec2228d81952296eaf1355015c93212164736f6c634300081c0033\n}\n",
				"bytecode": {
					"linkReferences": {},
					"object": "6080604052348015600e575f5ffd5b5061081d8061001c5f395ff3fe608060405260043610610033575f3560e01c80631d414cbd146100375780633c7fe5e31461005f578063f8fa73a11461007b575b5f5ffd5b348015610042575f5ffd5b5061005d600480360381019061005891906103f8565b6100b7565b005b61007960048036038101906100749190610469565b6101df565b005b348015610086575f5ffd5b506100a1600480360381019061009c91906104b9565b610386565b6040516100ae91906104fc565b60405180910390f35b5f4630335f5f3373ffffffffffffffffffffffffffffffffffffffff1673ffffffffffffffffffffffffffffffffffffffff1681526020019081526020015f205f815461010390610542565b91905081905560405160200161011c94939291906105ee565b6040516020818303038152906040528051906020012090508233836040516020016101499392919061063b565b6040516020818303038152906040528051906020012060015f8381526020019081526020015f2081905550803373ffffffffffffffffffffffffffffffffffffffff168473ffffffffffffffffffffffffffffffffffffffff167fd48d52c7c6d0c940f3f8d07591e1800ef3a70daf79929a97ccd80b4494769fc7856040516101d29190610686565b60405180910390a4505050565b8181336040516020016101f49392919061063b565b6040516020818303038152906040528051906020012060015f8581526020019081526020015f20541461025c576040517f08c379a0000000000000000000000000000000000000000000000000000000008152600401610253906106f9565b60405180910390fd5b60015f8481526020019081526020015f205f9055828173ffffffffffffffffffffffffffffffffffffffff168373ffffffffffffffffffffffffffffffffffffffff167fadb4840bbd5f924665ae7e0e0c83de5c0fb40a98c9b57dba53a6c978127a622e33346040516102d0929190610717565b60405180910390a45f8173ffffffffffffffffffffffffffffffffffffffff16346040516102fd9061076b565b5f6040518083038185875af1925050503d805f8114610337576040519150601f19603f3d011682016040523d82523d5f602084013e61033c565b606091505b5050905080610380576040517f08c379a0000000000000000000000000000000000000000000000000000000008152600401610377906107c9565b60405180910390fd5b50505050565b5f602052805f5260405f205f915090505481565b5f5ffd5b5f73ffffffffffffffffffffffffffffffffffffffff82169050919050565b5f6103c78261039e565b9050919050565b6103d7816103bd565b81146103e1575f5ffd5b50565b5f813590506103f2816103ce565b92915050565b5f5f6040838503121561040e5761040d61039a565b5b5f61041b858286016103e4565b925050602061042c858286016103e4565b9150509250929050565b5f819050919050565b61044881610436565b8114610452575f5ffd5b50565b5f813590506104638161043f565b92915050565b5f5f5f606084860312156104805761047f61039a565b5b5f61048d86828701610455565b935050602061049e868287016103e4565b92505060406104af868287016103e4565b9150509250925092565b5f602082840312156104ce576104cd61039a565b5b5f6104db848285016103e4565b91505092915050565b5f819050919050565b6104f6816104e4565b82525050565b5f60208201905061050f5f8301846104ed565b92915050565b7f4e487b71000000000000000000000000000000000000000000000000000000005f52601160045260245ffd5b5f61054c826104e4565b91507fffffffffffffffffffffffffffffffffffffffffffffffffffffffffffffffff820361057e5761057d610515565b5b600182019050919050565b5f819050919050565b6105a361059e826104e4565b610589565b82525050565b5f8160601b9050919050565b5f6105bf826105a9565b9050919050565b5f6105d0826105b5565b9050919050565b6105e86105e3826103bd565b6105c6565b82525050565b5f6105f98287610592565b60208201915061060982866105d7565b60148201915061061982856105d7565b6014820191506106298284610592565b60208201915081905095945050505050565b5f61064682866105d7565b60148201915061065682856105d7565b60148201915061066682846105d7565b601482019150819050949350505050565b610680816103bd565b82525050565b5f6020820190506106995f830184610677565b92915050565b5f82825260208201905092915050565b7f496e76616c6964207769746864726177616c2066756c66696c6c6d656e7400005f82015250565b5f6106e3601e8361069f565b91506106ee826106af565b602082019050919050565b5f6020820190508181035f830152610710816106d7565b9050919050565b5f60408201905061072a5f830185610677565b61073760208301846104ed565b9392505050565b5f81905092915050565b50565b5f6107565f8361073e565b915061076182610748565b5f82019050919050565b5f6107758261074b565b9150819050919050565b7f5472616e73666572206661696c656400000000000000000000000000000000005f82015250565b5f6107b3600f8361069f565b91506107be8261077f565b602082019050919050565b5f6020820190508181035f8301526107e0816107a7565b905091905056fea2646970667358221220f499de04bfeb30503233cc76066ea0e5ec2228d81952296eaf1355015c93212164736f6c634300081c0033",
					"opcodes": "PUSH1 0x80 PUSH1 0x40 MSTORE CALLVALUE DUP1 ISZERO PUSH1 0xE JUMPI PUSH0 PUSH0 REVERT JUMPDEST POP PUSH2 0x81D DUP1 PUSH2 0x1C PUSH0 CODECOPY PUSH0 RETURN INVALID PUSH1 0x80 PUSH1 0x40 MSTORE PUSH1 0x4 CALLDATASIZE LT PUSH2 0x33 JUMPI PUSH0 CALLDATALOAD PUSH1 0xE0 SHR DUP1 PUSH4 0x1D414CBD EQ PUSH2 0x37 JUMPI DUP1 PUSH4 0x3C7FE5E3 EQ PUSH2 0x5F JUMPI DUP1 PUSH4 0xF8FA73A1 EQ PUSH2 0x7B JUMPI JUMPDEST PUSH0 PUSH0 REVERT JUMPDEST CALLVALUE DUP1 ISZERO PUSH2 0x42 JUMPI PUSH0 PUSH0 REVERT JUMPDEST POP PUSH2 0x5D PUSH1 0x4 DUP1 CALLDATASIZE SUB DUP2 ADD SWAP1 PUSH2 0x58 SWAP2 SWAP1 PUSH2 0x3F8 JUMP JUMPDEST PUSH2 0xB7 JUMP JUMPDEST STOP JUMPDEST PUSH2 0x79 PUSH1 0x4 DUP1 CALLDATASIZE SUB DUP2 ADD SWAP1 PUSH2 0x74 SWAP2 SWAP1 PUSH2 0x469 JUMP JUMPDEST PUSH2 0x1DF JUMP JUMPDEST STOP JUMPDEST CALLVALUE DUP1 ISZERO PUSH2 0x86 JUMPI PUSH0 PUSH0 REVERT JUMPDEST POP PUSH2 0xA1 PUSH1 0x4 DUP1 CALLDATASIZE SUB DUP2 ADD SWAP1 PUSH2 0x9C SWAP2 SWAP1 PUSH2 0x4B9 JUMP JUMPDEST PUSH2 0x386 JUMP JUMPDEST PUSH1 0x40 MLOAD PUSH2 0xAE SWAP2 SWAP1 PUSH2 0x4FC JUMP JUMPDEST PUSH1 0x40 MLOAD DUP1 SWAP2 SUB SWAP1 RETURN JUMPDEST PUSH0 CHAINID ADDRESS CALLER PUSH0 PUSH0 CALLER PUSH20 0xFFFFFFFFFFFFFFFFFFFFFFFFFFFFFFFFFFFFFFFF AND PUSH20 0xFFFFFFFFFFFFFFFFFFFFFFFFFFFFFFFFFFFFFFFF AND DUP2 MSTORE PUSH1 0x20 ADD SWAP1 DUP2 MSTORE PUSH1 0x20 ADD PUSH0 KECCAK256 PUSH0 DUP2 SLOAD PUSH2 0x103 SWAP1 PUSH2 0x542 JUMP JUMPDEST SWAP2 SWAP1 POP DUP2 SWAP1 SSTORE PUSH1 0x40 MLOAD PUSH1 0x20 ADD PUSH2 0x11C SWAP5 SWAP4 SWAP3 SWAP2 SWAP1 PUSH2 0x5EE JUMP JUMPDEST PUSH1 0x40 MLOAD PUSH1 0x20 DUP2 DUP4 SUB SUB DUP2 MSTORE SWAP1 PUSH1 0x40 MSTORE DUP1 MLOAD SWAP1 PUSH1 0x20 ADD KECCAK256 SWAP1 POP DUP3 CALLER DUP4 PUSH1 0x40 MLOAD PUSH1 0x20 ADD PUSH2 0x149 SWAP4 SWAP3 SWAP2 SWAP1 PUSH2 0x63B JUMP JUMPDEST PUSH1 0x40 MLOAD PUSH1 0x20 DUP2 DUP4 SUB SUB DUP2 MSTORE SWAP1 PUSH1 0x40 MSTORE DUP1 MLOAD SWAP1 PUSH1 0x20 ADD KECCAK256 PUSH1 0x1 PUSH0 DUP4 DUP2 MSTORE PUSH1 0x20 ADD SWAP1 DUP2 MSTORE PUSH1 0x20 ADD PUSH0 KECCAK256 DUP2 SWAP1 SSTORE POP DUP1 CALLER PUSH20 0xFFFFFFFFFFFFFFFFFFFFFFFFFFFFFFFFFFFFFFFF AND DUP5 PUSH20 0xFFFFFFFFFFFFFFFFFFFFFFFFFFFFFFFFFFFFFFFF AND PUSH32 0xD48D52C7C6D0C940F3F8D07591E1800EF3A70DAF79929A97CCD80B4494769FC7 DUP6 PUSH1 0x40 MLOAD PUSH2 0x1D2 SWAP2 SWAP1 PUSH2 0x686 JUMP JUMPDEST PUSH1 0x40 MLOAD DUP1 SWAP2 SUB SWAP1 LOG4 POP POP POP JUMP JUMPDEST DUP2 DUP2 CALLER PUSH1 0x40 MLOAD PUSH1 0x20 ADD PUSH2 0x1F4 SWAP4 SWAP3 SWAP2 SWAP1 PUSH2 0x63B JUMP JUMPDEST PUSH1 0x40 MLOAD PUSH1 0x20 DUP2 DUP4 SUB SUB DUP2 MSTORE SWAP1 PUSH1 0x40 MSTORE DUP1 MLOAD SWAP1 PUSH1 0x20 ADD KECCAK256 PUSH1 0x1 PUSH0 DUP6 DUP2 MSTORE PUSH1 0x20 ADD SWAP1 DUP2 MSTORE PUSH1 0x20 ADD PUSH0 KECCAK256 SLOAD EQ PUSH2 0x25C JUMPI PUSH1 0x40 MLOAD PUSH32 0x8C379A000000000000000000000000000000000000000000000000000000000 DUP2 MSTORE PUSH1 0x4 ADD PUSH2 0x253 SWAP1 PUSH2 0x6F9 JUMP JUMPDEST PUSH1 0x40 MLOAD DUP1 SWAP2 SUB SWAP1 REVERT JUMPDEST PUSH1 0x1 PUSH0 DUP5 DUP2 MSTORE PUSH1 0x20 ADD SWAP1 DUP2 MSTORE PUSH1 0x20 ADD PUSH0 KECCAK256 PUSH0 SWAP1 SSTORE DUP3 DUP2 PUSH20 0xFFFFFFFFFFFFFFFFFFFFFFFFFFFFFFFFFFFFFFFF AND DUP4 PUSH20 0xFFFFFFFFFFFFFFFFFFFFFFFFFFFFFFFFFFFFFFFF AND PUSH32 0xADB4840BBD5F924665AE7E0E0C83DE5C0FB40A98C9B57DBA53A6C978127A622E CALLER CALLVALUE PUSH1 0x40 MLOAD PUSH2 0x2D0 SWAP3 SWAP2 SWAP1 PUSH2 0x717 JUMP JUMPDEST PUSH1 0x40 MLOAD DUP1 SWAP2 SUB SWAP1 LOG4 PUSH0 DUP2 PUSH20 0xFFFFFFFFFFFFFFFFFFFFFFFFFFFFFFFFFFFFFFFF AND CALLVALUE PUSH1 0x40 MLOAD PUSH2 0x2FD SWAP1 PUSH2 0x76B JUMP JUMPDEST PUSH0 PUSH1 0x40 MLOAD DUP1 DUP4 SUB DUP2 DUP6 DUP8 GAS CALL SWAP3 POP POP POP RETURNDATASIZE DUP1 PUSH0 DUP2 EQ PUSH2 0x337 JUMPI PUSH1 0x40 MLOAD SWAP2 POP PUSH1 0x1F NOT PUSH1 0x3F RETURNDATASIZE ADD AND DUP3 ADD PUSH1 0x40 MSTORE RETURNDATASIZE DUP3 MSTORE RETURNDATASIZE PUSH0 PUSH1 0x20 DUP5 ADD RETURNDATACOPY PUSH2 0x33C JUMP JUMPDEST PUSH1 0x60 SWAP2 POP JUMPDEST POP POP SWAP1 POP DUP1 PUSH2 0x380 JUMPI PUSH1 0x40 MLOAD PUSH32 0x8C379A000000000000000000000000000000000000000000000000000000000 DUP2 MSTORE PUSH1 0x4 ADD PUSH2 0x377 SWAP1 PUSH2 0x7C9 JUMP JUMPDEST PUSH1 0x40 MLOAD DUP1 SWAP2 SUB SWAP1 REVERT JUMPDEST POP POP POP POP JUMP JUMPDEST PUSH0 PUSH1 0x20 MSTORE DUP1 PUSH0 MSTORE PUSH1 0x40 PUSH0 KECCAK256 PUSH0 SWAP2 POP SWAP1 POP SLOAD DUP2 JUMP JUMPDEST PUSH0 PUSH0 REVERT JUMPDEST PUSH0 PUSH20 0xFFFFFFFFFFFFFFFFFFFFFFFFFFFFFFFFFFFFFFFF DUP3 AND SWAP1 POP SWAP2 SWAP1 POP JUMP JUMPDEST PUSH0 PUSH2 0x3C7 DUP3 PUSH2 0x39E JUMP JUMPDEST SWAP1 POP SWAP2 SWAP1 POP JUMP JUMPDEST PUSH2 0x3D7 DUP2 PUSH2 0x3BD JUMP JUMPDEST DUP2 EQ PUSH2 0x3E1 JUMPI PUSH0 PUSH0 REVERT JUMPDEST POP JUMP JUMPDEST PUSH0 DUP2 CALLDATALOAD SWAP1 POP PUSH2 0x3F2 DUP2 PUSH2 0x3CE JUMP JUMPDEST SWAP3 SWAP2 POP POP JUMP JUMPDEST PUSH0 PUSH0 PUSH1 0x40 DUP4 DUP6 SUB SLT ISZERO PUSH2 0x40E JUMPI PUSH2 0x40D PUSH2 0x39A JUMP JUMPDEST JUMPDEST PUSH0 PUSH2 0x41B DUP6 DUP3 DUP7 ADD PUSH2 0x3E4 JUMP JUMPDEST SWAP3 POP POP PUSH1 0x20 PUSH2 0x42C DUP6 DUP3 DUP7 ADD PUSH2 0x3E4 JUMP JUMPDEST SWAP2 POP POP SWAP3 POP SWAP3 SWAP1 POP JUMP JUMPDEST PUSH0 DUP2 SWAP1 POP SWAP2 SWAP1 POP JUMP JUMPDEST PUSH2 0x448 DUP2 PUSH2 0x436 JUMP JUMPDEST DUP2 EQ PUSH2 0x452 JUMPI PUSH0 PUSH0 REVERT JUMPDEST POP JUMP JUMPDEST PUSH0 DUP2 CALLDATALOAD SWAP1 POP PUSH2 0x463 DUP2 PUSH2 0x43F JUMP JUMPDEST SWAP3 SWAP2 POP POP JUMP JUMPDEST PUSH0 PUSH0 PUSH0 PUSH1 0x60 DUP5 DUP7 SUB SLT ISZERO PUSH2 0x480 JUMPI PUSH2 0x47F PUSH2 0x39A JUMP JUMPDEST JUMPDEST PUSH0 PUSH2 0x48D DUP7 DUP3 DUP8 ADD PUSH2 0x455 JUMP JUMPDEST SWAP4 POP POP PUSH1 0x20 PUSH2 0x49E DUP7 DUP3 DUP8 ADD PUSH2 0x3E4 JUMP JUMPDEST SWAP3 POP POP PUSH1 0x40 PUSH2 0x4AF DUP7 DUP3 DUP8 ADD PUSH2 0x3E4 JUMP JUMPDEST SWAP2 POP POP SWAP3 POP SWAP3 POP SWAP3 JUMP JUMPDEST PUSH0 PUSH1 0x20 DUP3 DUP5 SUB SLT ISZERO PUSH2 0x4CE JUMPI PUSH2 0x4CD PUSH2 0x39A JUMP JUMPDEST JUMPDEST PUSH0 PUSH2 0x4DB DUP5 DUP3 DUP6 ADD PUSH2 0x3E4 JUMP JUMPDEST SWAP2 POP POP SWAP3 SWAP2 POP POP JUMP JUMPDEST PUSH0 DUP2 SWAP1 POP SWAP2 SWAP1 POP JUMP JUMPDEST PUSH2 0x4F6 DUP2 PUSH2 0x4E4 JUMP JUMPDEST DUP3 MSTORE POP POP JUMP JUMPDEST PUSH0 PUSH1 0x20 DUP3 ADD SWAP1 POP PUSH2 0x50F PUSH0 DUP4 ADD DUP5 PUSH2 0x4ED JUMP JUMPDEST SWAP3 SWAP2 POP POP JUMP JUMPDEST PUSH32 0x4E487B7100000000000000000000000000000000000000000000000000000000 PUSH0 MSTORE PUSH1 0x11 PUSH1 0x4 MSTORE PUSH1 0x24 PUSH0 REVERT JUMPDEST PUSH0 PUSH2 0x54C DUP3 PUSH2 0x4E4 JUMP JUMPDEST SWAP2 POP PUSH32 0xFFFFFFFFFFFFFFFFFFFFFFFFFFFFFFFFFFFFFFFFFFFFFFFFFFFFFFFFFFFFFFFF DUP3 SUB PUSH2 0x57E JUMPI PUSH2 0x57D PUSH2 0x515 JUMP JUMPDEST JUMPDEST PUSH1 0x1 DUP3 ADD SWAP1 POP SWAP2 SWAP1 POP JUMP JUMPDEST PUSH0 DUP2 SWAP1 POP SWAP2 SWAP1 POP JUMP JUMPDEST PUSH2 0x5A3 PUSH2 0x59E DUP3 PUSH2 0x4E4 JUMP JUMPDEST PUSH2 0x589 JUMP JUMPDEST DUP3 MSTORE POP POP JUMP JUMPDEST PUSH0 DUP2 PUSH1 0x60 SHL SWAP1 POP SWAP2 SWAP1 POP JUMP JUMPDEST PUSH0 PUSH2 0x5BF DUP3 PUSH2 0x5A9 JUMP JUMPDEST SWAP1 POP SWAP2 SWAP1 POP JUMP JUMPDEST PUSH0 PUSH2 0x5D0 DUP3 PUSH2 0x5B5 JUMP JUMPDEST SWAP1 POP SWAP2 SWAP1 POP JUMP JUMPDEST PUSH2 0x5E8 PUSH2 0x5E3 DUP3 PUSH2 0x3BD JUMP JUMPDEST PUSH2 0x5C6 JUMP JUMPDEST DUP3 MSTORE POP POP JUMP JUMPDEST PUSH0 PUSH2 0x5F9 DUP3 DUP8 PUSH2 0x592 JUMP JUMPDEST PUSH1 0x20 DUP3 ADD SWAP2 POP PUSH2 0x609 DUP3 DUP7 PUSH2 0x5D7 JUMP JUMPDEST PUSH1 0x14 DUP3 ADD SWAP2 POP PUSH2 0x619 DUP3 DUP6 PUSH2 0x5D7 JUMP JUMPDEST PUSH1 0x14 DUP3 ADD SWAP2 POP PUSH2 0x629 DUP3 DUP5 PUSH2 0x592 JUMP JUMPDEST PUSH1 0x20 DUP3 ADD SWAP2 POP DUP2 SWAP1 POP SWAP6 SWAP5 POP POP POP POP POP JUMP JUMPDEST PUSH0 PUSH2 0x646 DUP3 DUP7 PUSH2 0x5D7 JUMP JUMPDEST PUSH1 0x14 DUP3 ADD SWAP2 POP PUSH2 0x656 DUP3 DUP6 PUSH2 0x5D7 JUMP JUMPDEST PUSH1 0x14 DUP3 ADD SWAP2 POP PUSH2 0x666 DUP3 DUP5 PUSH2 0x5D7 JUMP JUMPDEST PUSH1 0x14 DUP3 ADD SWAP2 POP DUP2 SWAP1 POP SWAP5 SWAP4 POP POP POP POP JUMP JUMPDEST PUSH2 0x680 DUP2 PUSH2 0x3BD JUMP JUMPDEST DUP3 MSTORE POP POP JUMP JUMPDEST PUSH0 PUSH1 0x20 DUP3 ADD SWAP1 POP PUSH2 0x699 PUSH0 DUP4 ADD DUP5 PUSH2 0x677 JUMP JUMPDEST SWAP3 SWAP2 POP POP JUMP JUMPDEST PUSH0 DUP3 DUP3 MSTORE PUSH1 0x20 DUP3 ADD SWAP1 POP SWAP3 SWAP2 POP POP JUMP JUMPDEST PUSH32 0x496E76616C6964207769746864726177616C2066756C66696C6C6D656E740000 PUSH0 DUP3 ADD MSTORE POP JUMP JUMPDEST PUSH0 PUSH2 0x6E3 PUSH1 0x1E DUP4 PUSH2 0x69F JUMP JUMPDEST SWAP2 POP PUSH2 0x6EE DUP3 PUSH2 0x6AF JUMP JUMPDEST PUSH1 0x20 DUP3 ADD SWAP1 POP SWAP2 SWAP1 POP JUMP JUMPDEST PUSH0 PUSH1 0x20 DUP3 ADD SWAP1 POP DUP2 DUP2 SUB PUSH0 DUP4 ADD MSTORE PUSH2 0x710 DUP2 PUSH2 0x6D7 JUMP JUMPDEST SWAP1 POP SWAP2 SWAP1 POP JUMP JUMPDEST PUSH0 PUSH1 0x40 DUP3 ADD SWAP1 POP PUSH2 0x72A PUSH0 DUP4 ADD DUP6 PUSH2 0x677 JUMP JUMPDEST PUSH2 0x737 PUSH1 0x20 DUP4 ADD DUP5 PUSH2 0x4ED JUMP JUMPDEST SWAP4 SWAP3 POP POP POP JUMP JUMPDEST PUSH0 DUP2 SWAP1 POP SWAP3 SWAP2 POP POP JUMP JUMPDEST POP JUMP JUMPDEST PUSH0 PUSH2 0x756 PUSH0 DUP4 PUSH2 0x73E JUMP JUMPDEST SWAP2 POP PUSH2 0x761 DUP3 PUSH2 0x748 JUMP JUMPDEST PUSH0 DUP3 ADD SWAP1 POP SWAP2 SWAP1 POP JUMP JUMPDEST PUSH0 PUSH2 0x775 DUP3 PUSH2 0x74B JUMP JUMPDEST SWAP2 POP DUP2 SWAP1 POP SWAP2 SWAP1 POP JUMP JUMPDEST PUSH32 0x5472616E73666572206661696C65640000000000000000000000000000000000 PUSH0 DUP3 ADD MSTORE POP JUMP JUMPDEST PUSH0 PUSH2 0x7B3 PUSH1 0xF DUP4 PUSH2 0x69F JUMP JUMPDEST SWAP2 POP PUSH2 0x7BE DUP3 PUSH2 0x77F JUMP JUMPDEST PUSH1 0x20 DUP3 ADD SWAP1 POP SWAP2 SWAP1 POP JUMP JUMPDEST PUSH0 PUSH1 0x20 DUP3 ADD SWAP1 POP DUP2 DUP2 SUB PUSH0 DUP4 ADD MSTORE PUSH2 0x7E0 DUP2 PUSH2 0x7A7 JUMP JUMPDEST SWAP1 POP SWAP2 SWAP1 POP JUMP INVALID LOG2 PUSH5 0x6970667358 0x22 SLT KECCAK256 DELEGATECALL SWAP10 0xDE DIV 0xBF 0xEB ADDRESS POP ORIGIN CALLER 0xCC PUSH23 0x66EA0E5EC2228D81952296EAF1355015C93212164736F PUSH13 0x634300081C0033000000000000 "
				},
				"gasEstimates": {
					"creation": {
						"codeDepositCost": "415400",
						"executionCost": "447",
						"totalCost": "415847"
					},
					"external": {
						"fulfillWithdrawal(bytes32,address,address)": "infinite",
						"requestWithdrawal(address,address)": "infinite",
						"sponsorToWithdrawalRequestCount(address)": "2823"
					}
				},
				"methodIdentifiers": {
					"fulfillWithdrawal(bytes32,address,address)": "3c7fe5e3",
					"requestWithdrawal(address,address)": "1d414cbd",
					"sponsorToWithdrawalRequestCount(address)": "f8fa73a1"
				}
			},
			"storageLayout": {
				"storage": [
					{
						"astId": 11,
						"contract": "contracts/api3/contracts/rrp/WithdrawalUtilsV0.sol:WithdrawalUtilsV0",
						"label": "sponsorToWithdrawalRequestCount",
						"offset": 0,
						"slot": "0",
						"type": "t_mapping(t_address,t_uint256)"
					},
					{
						"astId": 16,
						"contract": "contracts/api3/contracts/rrp/WithdrawalUtilsV0.sol:WithdrawalUtilsV0",
						"label": "withdrawalRequestIdToParameters",
						"offset": 0,
						"slot": "1",
						"type": "t_mapping(t_bytes32,t_bytes32)"
					}
				],
				"types": {
					"t_address": {
						"encoding": "inplace",
						"label": "address",
						"numberOfBytes": "20"
					},
					"t_bytes32": {
						"encoding": "inplace",
						"label": "bytes32",
						"numberOfBytes": "32"
					},
					"t_mapping(t_address,t_uint256)": {
						"encoding": "mapping",
						"key": "t_address",
						"label": "mapping(address => uint256)",
						"numberOfBytes": "32",
						"value": "t_uint256"
					},
					"t_mapping(t_bytes32,t_bytes32)": {
						"encoding": "mapping",
						"key": "t_bytes32",
						"label": "mapping(bytes32 => bytes32)",
						"numberOfBytes": "32",
						"value": "t_bytes32"
					},
					"t_uint256": {
						"encoding": "inplace",
						"label": "uint256",
						"numberOfBytes": "32"
					}
				}
			},
			"userdoc": {
				"kind": "user",
				"methods": {
					"fulfillWithdrawal(bytes32,address,address)": {
						"notice": "Called by the Airnode using the sponsor wallet to fulfill the withdrawal request made by the sponsor"
					},
					"requestWithdrawal(address,address)": {
						"notice": "Called by a sponsor to create a request for the Airnode to send the funds kept in the respective sponsor wallet to the sponsor"
					},
					"sponsorToWithdrawalRequestCount(address)": {
						"notice": "Called to get the withdrawal request count of the sponsor"
					}
				},
				"version": 1
			}
		}
	}
}