{
	"contracts/api3/PriceConsumer.sol": {
		"Api3PriceConsumer": {
			"abi": [
				{
					"inputs": [
						{
							"internalType": "address",
							"name": "_airnodeRrp",
							"type": "address"
						}
					],
					"stateMutability": "nonpayable",
					"type": "constructor"
				},
				{
					"anonymous": false,
					"inputs": [
						{
							"indexed": false,
							"internalType": "bytes32",
							"name": "requestId",
							"type": "bytes32"
						}
					],
					"name": "Requested",
					"type": "event"
				},
				{
					"inputs": [],
					"name": "airnode",
					"outputs": [
						{
							"internalType": "address",
							"name": "",
							"type": "address"
						}
					],
					"stateMutability": "view",
					"type": "function"
				},
				{
					"inputs": [],
					"name": "airnodeRrp",
					"outputs": [
						{
							"internalType": "address",
							"name": "",
							"type": "address"
						}
					],
					"stateMutability": "view",
					"type": "function"
				},
				{
					"inputs": [],
					"name": "endpointId",
					"outputs": [
						{
							"internalType": "bytes32",
							"name": "",
							"type": "bytes32"
						}
					],
					"stateMutability": "view",
					"type": "function"
				},
				{
					"inputs": [
						{
							"internalType": "bytes32",
							"name": "",
							"type": "bytes32"
						},
						{
							"internalType": "bytes",
							"name": "data",
							"type": "bytes"
						}
					],
					"name": "fulfill",
					"outputs": [],
					"stateMutability": "nonpayable",
					"type": "function"
				},
				{
					"inputs": [],
					"name": "latestPrice",
					"outputs": [
						{
							"internalType": "int256",
							"name": "",
							"type": "int256"
						}
					],
					"stateMutability": "view",
					"type": "function"
				},
				{
					"inputs": [],
					"name": "requestPrice",
					"outputs": [],
					"stateMutability": "nonpayable",
					"type": "function"
				},
				{
					"inputs": [
						{
							"internalType": "address",
							"name": "_airnode",
							"type": "address"
						},
						{
							"internalType": "bytes32",
							"name": "_endpointId",
							"type": "bytes32"
						},
						{
							"internalType": "address",
							"name": "_sponsorWallet",
							"type": "address"
						}
					],
					"name": "setAirnodeDetails",
					"outputs": [],
					"stateMutability": "nonpayable",
					"type": "function"
				},
				{
					"inputs": [],
					"name": "sponsor",
					"outputs": [
						{
							"internalType": "address",
							"name": "",
							"type": "address"
						}
					],
					"stateMutability": "view",
					"type": "function"
				},
				{
					"inputs": [],
					"name": "sponsorWallet",
					"outputs": [
						{
							"internalType": "address",
							"name": "",
							"type": "address"
						}
					],
					"stateMutability": "view",
					"type": "function"
				}
			],
			"devdoc": {
				"kind": "dev",
				"methods": {},
				"version": 1
			},
			"evm": {
				"assembly": "    /* \"contracts/api3/PriceConsumer.sol\":58:1640  contract Api3PriceConsumer {... */\n  mstore(0x40, 0x80)\n    /* \"contracts/api3/PriceConsumer.sol\":721:795  constructor(address _airnodeRrp) {... */\n  callvalue\n  dup1\n  iszero\n  tag_1\n  jumpi\n  0x00\n  dup1\n  revert\ntag_1:\n  pop\n  mload(0x40)\n  sub(codesize, bytecodeSize)\n  dup1\n  bytecodeSize\n  dup4\n  codecopy\n  dup2\n  dup2\n  add\n  0x40\n  mstore\n  dup2\n  add\n  swap1\n  tag_2\n  swap2\n  swap1\n  tag_3\n  jump\t// in\ntag_2:\n    /* \"contracts/api3/PriceConsumer.sol\":777:788  _airnodeRrp */\n  dup1\n    /* \"contracts/api3/PriceConsumer.sol\":764:774  airnodeRrp */\n  0x04\n  0x00\n    /* \"contracts/api3/PriceConsumer.sol\":764:788  airnodeRrp = _airnodeRrp */\n  0x0100\n  exp\n  dup2\n  sload\n  dup2\n  0xffffffffffffffffffffffffffffffffffffffff\n  mul\n  not\n  and\n  swap1\n  dup4\n  0xffffffffffffffffffffffffffffffffffffffff\n  and\n  mul\n  or\n  swap1\n  sstore\n  pop\n    /* \"contracts/api3/PriceConsumer.sol\":721:795  constructor(address _airnodeRrp) {... */\n  pop\n    /* \"contracts/api3/PriceConsumer.sol\":58:1640  contract Api3PriceConsumer {... */\n  jump(tag_6)\n    /* \"#utility.yul\":88:205   */\ntag_8:\n    /* \"#utility.yul\":197:198   */\n  0x00\n    /* \"#utility.yul\":194:195   */\n  dup1\n    /* \"#utility.yul\":187:199   */\n  revert\n    /* \"#utility.yul\":334:460   */\ntag_10:\n    /* \"#utility.yul\":371:378   */\n  0x00\n    /* \"#utility.yul\":411:453   */\n  0xffffffffffffffffffffffffffffffffffffffff\n    /* \"#utility.yul\":404:409   */\n  dup3\n    /* \"#utility.yul\":400:454   */\n  and\n    /* \"#utility.yul\":389:454   */\n  swap1\n  pop\n    /* \"#utility.yul\":334:460   */\n  swap2\n  swap1\n  pop\n  jump\t// out\n    /* \"#utility.yul\":466:562   */\ntag_11:\n    /* \"#utility.yul\":503:510   */\n  0x00\n    /* \"#utility.yul\":532:556   */\n  tag_20\n    /* \"#utility.yul\":550:555   */\n  dup3\n    /* \"#utility.yul\":532:556   */\n  tag_10\n  jump\t// in\ntag_20:\n    /* \"#utility.yul\":521:556   */\n  swap1\n  pop\n    /* \"#utility.yul\":466:562   */\n  swap2\n  swap1\n  pop\n  jump\t// out\n    /* \"#utility.yul\":568:690   */\ntag_12:\n    /* \"#utility.yul\":641:665   */\n  tag_22\n    /* \"#utility.yul\":659:664   */\n  dup2\n    /* \"#utility.yul\":641:665   */\n  tag_11\n  jump\t// in\ntag_22:\n    /* \"#utility.yul\":634:639   */\n  dup2\n    /* \"#utility.yul\":631:666   */\n  eq\n    /* \"#utility.yul\":621:684   */\n  tag_23\n  jumpi\n    /* \"#utility.yul\":680:681   */\n  0x00\n    /* \"#utility.yul\":677:678   */\n  dup1\n    /* \"#utility.yul\":670:682   */\n  revert\n    /* \"#utility.yul\":621:684   */\ntag_23:\n    /* \"#utility.yul\":568:690   */\n  pop\n  jump\t// out\n    /* \"#utility.yul\":696:839   */\ntag_13:\n    /* \"#utility.yul\":753:758   */\n  0x00\n    /* \"#utility.yul\":784:790   */\n  dup2\n    /* \"#utility.yul\":778:791   */\n  mload\n    /* \"#utility.yul\":769:791   */\n  swap1\n  pop\n    /* \"#utility.yul\":800:833   */\n  tag_25\n    /* \"#utility.yul\":827:832   */\n  dup2\n    /* \"#utility.yul\":800:833   */\n  tag_12\n  jump\t// in\ntag_25:\n    /* \"#utility.yul\":696:839   */\n  swap3\n  swap2\n  pop\n  pop\n  jump\t// out\n    /* \"#utility.yul\":845:1196   */\ntag_3:\n    /* \"#utility.yul\":915:921   */\n  0x00\n    /* \"#utility.yul\":964:966   */\n  0x20\n    /* \"#utility.yul\":952:961   */\n  dup3\n    /* \"#utility.yul\":943:950   */\n  dup5\n    /* \"#utility.yul\":939:962   */\n  sub\n    /* \"#utility.yul\":935:967   */\n  slt\n    /* \"#utility.yul\":932:1051   */\n  iszero\n  tag_27\n  jumpi\n    /* \"#utility.yul\":970:1049   */\n  tag_28\n  tag_8\n  jump\t// in\ntag_28:\n    /* \"#utility.yul\":932:1051   */\ntag_27:\n    /* \"#utility.yul\":1090:1091   */\n  0x00\n    /* \"#utility.yul\":1115:1179   */\n  tag_29\n    /* \"#utility.yul\":1171:1178   */\n  dup5\n    /* \"#utility.yul\":1162:1168   */\n  dup3\n    /* \"#utility.yul\":1151:1160   */\n  dup6\n    /* \"#utility.yul\":1147:1169   */\n  add\n    /* \"#utility.yul\":1115:1179   */\n  tag_13\n  jump\t// in\ntag_29:\n    /* \"#utility.yul\":1105:1179   */\n  swap2\n  pop\n    /* \"#utility.yul\":1061:1189   */\n  pop\n    /* \"#utility.yul\":845:1196   */\n  swap3\n  swap2\n  pop\n  pop\n  jump\t// out\n    /* \"contracts/api3/PriceConsumer.sol\":58:1640  contract Api3PriceConsumer {... */\ntag_6:\n  dataSize(sub_0)\n  dup1\n  dataOffset(sub_0)\n  0x00\n  codecopy\n  0x00\n  return\nstop\n\nsub_0: assembly {\n        /* \"contracts/api3/PriceConsumer.sol\":58:1640  contract Api3PriceConsumer {... */\n      mstore(0x40, 0x80)\n      callvalue\n      dup1\n      iszero\n      tag_1\n      jumpi\n      0x00\n      dup1\n      revert\n    tag_1:\n      pop\n      jumpi(tag_2, lt(calldatasize, 0x04))\n      shr(0xe0, calldataload(0x00))\n      dup1\n      0x77e20df8\n      gt\n      tag_12\n      jumpi\n      dup1\n      0x77e20df8\n      eq\n      tag_7\n      jumpi\n      dup1\n      0x7c1de7e1\n      eq\n      tag_8\n      jumpi\n      dup1\n      0xa36ff4d8\n      eq\n      tag_9\n      jumpi\n      dup1\n      0xa3e6ba94\n      eq\n      tag_10\n      jumpi\n      dup1\n      0xbf90fb4e\n      eq\n      tag_11\n      jumpi\n      jump(tag_2)\n    tag_12:\n      dup1\n      0x1604f9ea\n      eq\n      tag_3\n      jumpi\n      dup1\n      0x4daff67e\n      eq\n      tag_4\n      jumpi\n      dup1\n      0x71bab666\n      eq\n      tag_5\n      jumpi\n      dup1\n      0x77c93662\n      eq\n      tag_6\n      jumpi\n    tag_2:\n      0x00\n      dup1\n      revert\n        /* \"contracts/api3/PriceConsumer.sol\":1129:1451  function requestPrice() external {... */\n    tag_3:\n      tag_13\n      tag_14\n      jump\t// in\n    tag_13:\n      stop\n        /* \"contracts/api3/PriceConsumer.sol\":840:1078  function setAirnodeDetails(... */\n    tag_4:\n      tag_15\n      0x04\n      dup1\n      calldatasize\n      sub\n      dup2\n      add\n      swap1\n      tag_16\n      swap2\n      swap1\n      tag_17\n      jump\t// in\n    tag_16:\n      tag_18\n      jump\t// in\n    tag_15:\n      stop\n        /* \"contracts/api3/PriceConsumer.sol\":302:327  address public airnodeRrp */\n    tag_5:\n      tag_19\n      tag_20\n      jump\t// in\n    tag_19:\n      mload(0x40)\n      tag_21\n      swap2\n      swap1\n      tag_22\n      jump\t// in\n    tag_21:\n      mload(0x40)\n      dup1\n      swap2\n      sub\n      swap1\n      return\n        /* \"contracts/api3/PriceConsumer.sol\":196:218  address public sponsor */\n    tag_6:\n      tag_23\n      tag_24\n      jump\t// in\n    tag_23:\n      mload(0x40)\n      tag_25\n      swap2\n      swap1\n      tag_22\n      jump\t// in\n    tag_25:\n      mload(0x40)\n      dup1\n      swap2\n      sub\n      swap1\n      return\n        /* \"contracts/api3/PriceConsumer.sol\":138:163  bytes32 public endpointId */\n    tag_7:\n      tag_26\n      tag_27\n      jump\t// in\n    tag_26:\n      mload(0x40)\n      tag_28\n      swap2\n      swap1\n      tag_29\n      jump\t// in\n    tag_28:\n      mload(0x40)\n      dup1\n      swap2\n      sub\n      swap1\n      return\n        /* \"contracts/api3/PriceConsumer.sol\":1510:1638  function fulfill(bytes32, bytes calldata data) external onlyAirnodeRrp {... */\n    tag_8:\n      tag_30\n      0x04\n      dup1\n      calldatasize\n      sub\n      dup2\n      add\n      swap1\n      tag_31\n      swap2\n      swap1\n      tag_32\n      jump\t// in\n    tag_31:\n      tag_33\n      jump\t// in\n    tag_30:\n      stop\n        /* \"contracts/api3/PriceConsumer.sol\":91:113  address public airnode */\n    tag_9:\n      tag_34\n      tag_35\n      jump\t// in\n    tag_34:\n      mload(0x40)\n      tag_36\n      swap2\n      swap1\n      tag_22\n      jump\t// in\n    tag_36:\n      mload(0x40)\n      dup1\n      swap2\n      sub\n      swap1\n      return\n        /* \"contracts/api3/PriceConsumer.sol\":356:381  int256 public latestPrice */\n    tag_10:\n      tag_37\n      tag_38\n      jump\t// in\n    tag_37:\n      mload(0x40)\n      tag_39\n      swap2\n      swap1\n      tag_40\n      jump\t// in\n    tag_39:\n      mload(0x40)\n      dup1\n      swap2\n      sub\n      swap1\n      return\n        /* \"contracts/api3/PriceConsumer.sol\":242:270  address public sponsorWallet */\n    tag_11:\n      tag_41\n      tag_42\n      jump\t// in\n    tag_41:\n      mload(0x40)\n      tag_43\n      swap2\n      swap1\n      tag_22\n      jump\t// in\n    tag_43:\n      mload(0x40)\n      dup1\n      swap2\n      sub\n      swap1\n      return\n        /* \"contracts/api3/PriceConsumer.sol\":1129:1451  function requestPrice() external {... */\n    tag_14:\n        /* \"contracts/api3/PriceConsumer.sol\":1172:1189  bytes32 requestId */\n      0x00\n        /* \"contracts/api3/PriceConsumer.sol\":1249:1256  airnode */\n      dup1\n      0x00\n      swap1\n      sload\n      swap1\n      0x0100\n      exp\n      swap1\n      div\n      0xffffffffffffffffffffffffffffffffffffffff\n      and\n        /* \"contracts/api3/PriceConsumer.sol\":1274:1284  endpointId */\n      sload(0x01)\n        /* \"contracts/api3/PriceConsumer.sol\":1302:1315  sponsorWallet */\n      0x03\n      0x00\n      swap1\n      sload\n      swap1\n      0x0100\n      exp\n      swap1\n      div\n      0xffffffffffffffffffffffffffffffffffffffff\n      and\n        /* \"contracts/api3/PriceConsumer.sol\":1341:1345  this */\n      address\n        /* \"contracts/api3/PriceConsumer.sol\":1364:1385  this.fulfill.selector */\n      shl(0xe0, 0x7c1de7e1)\n        /* \"contracts/api3/PriceConsumer.sol\":1215:1399  abi.encodePacked(... */\n      add(0x20, mload(0x40))\n      tag_45\n      swap6\n      swap5\n      swap4\n      swap3\n      swap2\n      swap1\n      tag_46\n      jump\t// in\n    tag_45:\n      mload(0x40)\n      0x20\n      dup2\n      dup4\n      sub\n      sub\n      dup2\n      mstore\n      swap1\n      0x40\n      mstore\n        /* \"contracts/api3/PriceConsumer.sol\":1192:1409  keccak256(... */\n      dup1\n      mload\n      swap1\n      0x20\n      add\n      keccak256\n        /* \"contracts/api3/PriceConsumer.sol\":1172:1409  bytes32 requestId = keccak256(... */\n      swap1\n      pop\n        /* \"contracts/api3/PriceConsumer.sol\":1424:1444  Requested(requestId) */\n      0x9dc80e952f32e8aef7828795a4cc11bbe605c2ad3cc626df8115be4f78338f69\n        /* \"contracts/api3/PriceConsumer.sol\":1434:1443  requestId */\n      dup2\n        /* \"contracts/api3/PriceConsumer.sol\":1424:1444  Requested(requestId) */\n      mload(0x40)\n      tag_47\n      swap2\n      swap1\n      tag_29\n      jump\t// in\n    tag_47:\n      mload(0x40)\n      dup1\n      swap2\n      sub\n      swap1\n      log1\n        /* \"contracts/api3/PriceConsumer.sol\":1162:1451  {... */\n      pop\n        /* \"contracts/api3/PriceConsumer.sol\":1129:1451  function requestPrice() external {... */\n      jump\t// out\n        /* \"contracts/api3/PriceConsumer.sol\":840:1078  function setAirnodeDetails(... */\n    tag_18:\n        /* \"contracts/api3/PriceConsumer.sol\":989:997  _airnode */\n      dup3\n        /* \"contracts/api3/PriceConsumer.sol\":979:986  airnode */\n      0x00\n      dup1\n        /* \"contracts/api3/PriceConsumer.sol\":979:997  airnode = _airnode */\n      0x0100\n      exp\n      dup2\n      sload\n      dup2\n      0xffffffffffffffffffffffffffffffffffffffff\n      mul\n      not\n      and\n      swap1\n      dup4\n      0xffffffffffffffffffffffffffffffffffffffff\n      and\n      mul\n      or\n      swap1\n      sstore\n      pop\n        /* \"contracts/api3/PriceConsumer.sol\":1020:1031  _endpointId */\n      dup2\n        /* \"contracts/api3/PriceConsumer.sol\":1007:1017  endpointId */\n      0x01\n        /* \"contracts/api3/PriceConsumer.sol\":1007:1031  endpointId = _endpointId */\n      dup2\n      swap1\n      sstore\n      pop\n        /* \"contracts/api3/PriceConsumer.sol\":1057:1071  _sponsorWallet */\n      dup1\n        /* \"contracts/api3/PriceConsumer.sol\":1041:1054  sponsorWallet */\n      0x03\n      0x00\n        /* \"contracts/api3/PriceConsumer.sol\":1041:1071  sponsorWallet = _sponsorWallet */\n      0x0100\n      exp\n      dup2\n      sload\n      dup2\n      0xffffffffffffffffffffffffffffffffffffffff\n      mul\n      not\n      and\n      swap1\n      dup4\n      0xffffffffffffffffffffffffffffffffffffffff\n      and\n      mul\n      or\n      swap1\n      sstore\n      pop\n        /* \"contracts/api3/PriceConsumer.sol\":840:1078  function setAirnodeDetails(... */\n      pop\n      pop\n      pop\n      jump\t// out\n        /* \"contracts/api3/PriceConsumer.sol\":302:327  address public airnodeRrp */\n    tag_20:\n      0x04\n      0x00\n      swap1\n      sload\n      swap1\n      0x0100\n      exp\n      swap1\n      div\n      0xffffffffffffffffffffffffffffffffffffffff\n      and\n      dup2\n      jump\t// out\n        /* \"contracts/api3/PriceConsumer.sol\":196:218  address public sponsor */\n    tag_24:\n      0x02\n      0x00\n      swap1\n      sload\n      swap1\n      0x0100\n      exp\n      swap1\n      div\n      0xffffffffffffffffffffffffffffffffffffffff\n      and\n      dup2\n      jump\t// out\n        /* \"contracts/api3/PriceConsumer.sol\":138:163  bytes32 public endpointId */\n    tag_27:\n      sload(0x01)\n      dup2\n      jump\t// out\n        /* \"contracts/api3/PriceConsumer.sol\":1510:1638  function fulfill(bytes32, bytes calldata data) external onlyAirnodeRrp {... */\n    tag_33:\n        /* \"contracts/api3/PriceConsumer.sol\":596:606  airnodeRrp */\n      0x04\n      0x00\n      swap1\n      sload\n      swap1\n      0x0100\n      exp\n      swap1\n      div\n      0xffffffffffffffffffffffffffffffffffffffff\n      and\n        /* \"contracts/api3/PriceConsumer.sol\":582:606  msg.sender == airnodeRrp */\n      0xffffffffffffffffffffffffffffffffffffffff\n      and\n        /* \"contracts/api3/PriceConsumer.sol\":582:592  msg.sender */\n      caller\n        /* \"contracts/api3/PriceConsumer.sol\":582:606  msg.sender == airnodeRrp */\n      0xffffffffffffffffffffffffffffffffffffffff\n      and\n      eq\n        /* \"contracts/api3/PriceConsumer.sol\":574:640  require(msg.sender == airnodeRrp, \"Caller is not the Airnode RRP\") */\n      tag_50\n      jumpi\n      mload(0x40)\n      0x08c379a000000000000000000000000000000000000000000000000000000000\n      dup2\n      mstore\n      0x04\n      add\n      tag_51\n      swap1\n      tag_52\n      jump\t// in\n    tag_51:\n      mload(0x40)\n      dup1\n      swap2\n      sub\n      swap1\n      revert\n    tag_50:\n        /* \"contracts/api3/PriceConsumer.sol\":1616:1620  data */\n      dup2\n      dup2\n        /* \"contracts/api3/PriceConsumer.sol\":1605:1631  abi.decode(data, (int256)) */\n      dup2\n      add\n      swap1\n      tag_54\n      swap2\n      swap1\n      tag_55\n      jump\t// in\n    tag_54:\n        /* \"contracts/api3/PriceConsumer.sol\":1591:1602  latestPrice */\n      0x05\n        /* \"contracts/api3/PriceConsumer.sol\":1591:1631  latestPrice = abi.decode(data, (int256)) */\n      dup2\n      swap1\n      sstore\n      pop\n        /* \"contracts/api3/PriceConsumer.sol\":1510:1638  function fulfill(bytes32, bytes calldata data) external onlyAirnodeRrp {... */\n      pop\n      pop\n      pop\n      jump\t// out\n        /* \"contracts/api3/PriceConsumer.sol\":91:113  address public airnode */\n    tag_35:\n      0x00\n      dup1\n      sload\n      swap1\n      0x0100\n      exp\n      swap1\n      div\n      0xffffffffffffffffffffffffffffffffffffffff\n      and\n      dup2\n      jump\t// out\n        /* \"contracts/api3/PriceConsumer.sol\":356:381  int256 public latestPrice */\n    tag_38:\n      sload(0x05)\n      dup2\n      jump\t// out\n        /* \"contracts/api3/PriceConsumer.sol\":242:270  address public sponsorWallet */\n    tag_42:\n      0x03\n      0x00\n      swap1\n      sload\n      swap1\n      0x0100\n      exp\n      swap1\n      div\n      0xffffffffffffffffffffffffffffffffffffffff\n      and\n      dup2\n      jump\t// out\n        /* \"#utility.yul\":88:205   */\n    tag_57:\n        /* \"#utility.yul\":197:198   */\n      0x00\n        /* \"#utility.yul\":194:195   */\n      dup1\n        /* \"#utility.yul\":187:199   */\n      revert\n        /* \"#utility.yul\":211:328   */\n    tag_58:\n        /* \"#utility.yul\":320:321   */\n      0x00\n        /* \"#utility.yul\":317:318   */\n      dup1\n        /* \"#utility.yul\":310:322   */\n      revert\n        /* \"#utility.yul\":334:460   */\n    tag_59:\n        /* \"#utility.yul\":371:378   */\n      0x00\n        /* \"#utility.yul\":411:453   */\n      0xffffffffffffffffffffffffffffffffffffffff\n        /* \"#utility.yul\":404:409   */\n      dup3\n        /* \"#utility.yul\":400:454   */\n      and\n        /* \"#utility.yul\":389:454   */\n      swap1\n      pop\n        /* \"#utility.yul\":334:460   */\n      swap2\n      swap1\n      pop\n      jump\t// out\n        /* \"#utility.yul\":466:562   */\n    tag_60:\n        /* \"#utility.yul\":503:510   */\n      0x00\n        /* \"#utility.yul\":532:556   */\n      tag_94\n        /* \"#utility.yul\":550:555   */\n      dup3\n        /* \"#utility.yul\":532:556   */\n      tag_59\n      jump\t// in\n    tag_94:\n        /* \"#utility.yul\":521:556   */\n      swap1\n      pop\n        /* \"#utility.yul\":466:562   */\n      swap2\n      swap1\n      pop\n      jump\t// out\n        /* \"#utility.yul\":568:690   */\n    tag_61:\n        /* \"#utility.yul\":641:665   */\n      tag_96\n        /* \"#utility.yul\":659:664   */\n      dup2\n        /* \"#utility.yul\":641:665   */\n      tag_60\n      jump\t// in\n    tag_96:\n        /* \"#utility.yul\":634:639   */\n      dup2\n        /* \"#utility.yul\":631:666   */\n      eq\n        /* \"#utility.yul\":621:684   */\n      tag_97\n      jumpi\n        /* \"#utility.yul\":680:681   */\n      0x00\n        /* \"#utility.yul\":677:678   */\n      dup1\n        /* \"#utility.yul\":670:682   */\n      revert\n        /* \"#utility.yul\":621:684   */\n    tag_97:\n        /* \"#utility.yul\":568:690   */\n      pop\n      jump\t// out\n        /* \"#utility.yul\":696:835   */\n    tag_62:\n        /* \"#utility.yul\":742:747   */\n      0x00\n        /* \"#utility.yul\":780:786   */\n      dup2\n        /* \"#utility.yul\":767:787   */\n      calldataload\n        /* \"#utility.yul\":758:787   */\n      swap1\n      pop\n        /* \"#utility.yul\":796:829   */\n      tag_99\n        /* \"#utility.yul\":823:828   */\n      dup2\n        /* \"#utility.yul\":796:829   */\n      tag_61\n      jump\t// in\n    tag_99:\n        /* \"#utility.yul\":696:835   */\n      swap3\n      swap2\n      pop\n      pop\n      jump\t// out\n        /* \"#utility.yul\":841:918   */\n    tag_63:\n        /* \"#utility.yul\":878:885   */\n      0x00\n        /* \"#utility.yul\":907:912   */\n      dup2\n        /* \"#utility.yul\":896:912   */\n      swap1\n      pop\n        /* \"#utility.yul\":841:918   */\n      swap2\n      swap1\n      pop\n      jump\t// out\n        /* \"#utility.yul\":924:1046   */\n    tag_64:\n        /* \"#utility.yul\":997:1021   */\n      tag_102\n        /* \"#utility.yul\":1015:1020   */\n      dup2\n        /* \"#utility.yul\":997:1021   */\n      tag_63\n      jump\t// in\n    tag_102:\n        /* \"#utility.yul\":990:995   */\n      dup2\n        /* \"#utility.yul\":987:1022   */\n      eq\n        /* \"#utility.yul\":977:1040   */\n      tag_103\n      jumpi\n        /* \"#utility.yul\":1036:1037   */\n      0x00\n        /* \"#utility.yul\":1033:1034   */\n      dup1\n        /* \"#utility.yul\":1026:1038   */\n      revert\n        /* \"#utility.yul\":977:1040   */\n    tag_103:\n        /* \"#utility.yul\":924:1046   */\n      pop\n      jump\t// out\n        /* \"#utility.yul\":1052:1191   */\n    tag_65:\n        /* \"#utility.yul\":1098:1103   */\n      0x00\n        /* \"#utility.yul\":1136:1142   */\n      dup2\n        /* \"#utility.yul\":1123:1143   */\n      calldataload\n        /* \"#utility.yul\":1114:1143   */\n      swap1\n      pop\n        /* \"#utility.yul\":1152:1185   */\n      tag_105\n        /* \"#utility.yul\":1179:1184   */\n      dup2\n        /* \"#utility.yul\":1152:1185   */\n      tag_64\n      jump\t// in\n    tag_105:\n        /* \"#utility.yul\":1052:1191   */\n      swap3\n      swap2\n      pop\n      pop\n      jump\t// out\n        /* \"#utility.yul\":1197:1816   */\n    tag_17:\n        /* \"#utility.yul\":1274:1280   */\n      0x00\n        /* \"#utility.yul\":1282:1288   */\n      dup1\n        /* \"#utility.yul\":1290:1296   */\n      0x00\n        /* \"#utility.yul\":1339:1341   */\n      0x60\n        /* \"#utility.yul\":1327:1336   */\n      dup5\n        /* \"#utility.yul\":1318:1325   */\n      dup7\n        /* \"#utility.yul\":1314:1337   */\n      sub\n        /* \"#utility.yul\":1310:1342   */\n      slt\n        /* \"#utility.yul\":1307:1426   */\n      iszero\n      tag_107\n      jumpi\n        /* \"#utility.yul\":1345:1424   */\n      tag_108\n      tag_57\n      jump\t// in\n    tag_108:\n        /* \"#utility.yul\":1307:1426   */\n    tag_107:\n        /* \"#utility.yul\":1465:1466   */\n      0x00\n        /* \"#utility.yul\":1490:1543   */\n      tag_109\n        /* \"#utility.yul\":1535:1542   */\n      dup7\n        /* \"#utility.yul\":1526:1532   */\n      dup3\n        /* \"#utility.yul\":1515:1524   */\n      dup8\n        /* \"#utility.yul\":1511:1533   */\n      add\n        /* \"#utility.yul\":1490:1543   */\n      tag_62\n      jump\t// in\n    tag_109:\n        /* \"#utility.yul\":1480:1543   */\n      swap4\n      pop\n        /* \"#utility.yul\":1436:1553   */\n      pop\n        /* \"#utility.yul\":1592:1594   */\n      0x20\n        /* \"#utility.yul\":1618:1671   */\n      tag_110\n        /* \"#utility.yul\":1663:1670   */\n      dup7\n        /* \"#utility.yul\":1654:1660   */\n      dup3\n        /* \"#utility.yul\":1643:1652   */\n      dup8\n        /* \"#utility.yul\":1639:1661   */\n      add\n        /* \"#utility.yul\":1618:1671   */\n      tag_65\n      jump\t// in\n    tag_110:\n        /* \"#utility.yul\":1608:1671   */\n      swap3\n      pop\n        /* \"#utility.yul\":1563:1681   */\n      pop\n        /* \"#utility.yul\":1720:1722   */\n      0x40\n        /* \"#utility.yul\":1746:1799   */\n      tag_111\n        /* \"#utility.yul\":1791:1798   */\n      dup7\n        /* \"#utility.yul\":1782:1788   */\n      dup3\n        /* \"#utility.yul\":1771:1780   */\n      dup8\n        /* \"#utility.yul\":1767:1789   */\n      add\n        /* \"#utility.yul\":1746:1799   */\n      tag_62\n      jump\t// in\n    tag_111:\n        /* \"#utility.yul\":1736:1799   */\n      swap2\n      pop\n        /* \"#utility.yul\":1691:1809   */\n      pop\n        /* \"#utility.yul\":1197:1816   */\n      swap3\n      pop\n      swap3\n      pop\n      swap3\n      jump\t// out\n        /* \"#utility.yul\":1822:1940   */\n    tag_66:\n        /* \"#utility.yul\":1909:1933   */\n      tag_113\n        /* \"#utility.yul\":1927:1932   */\n      dup2\n        /* \"#utility.yul\":1909:1933   */\n      tag_60\n      jump\t// in\n    tag_113:\n        /* \"#utility.yul\":1904:1907   */\n      dup3\n        /* \"#utility.yul\":1897:1934   */\n      mstore\n        /* \"#utility.yul\":1822:1940   */\n      pop\n      pop\n      jump\t// out\n        /* \"#utility.yul\":1946:2168   */\n    tag_22:\n        /* \"#utility.yul\":2039:2043   */\n      0x00\n        /* \"#utility.yul\":2077:2079   */\n      0x20\n        /* \"#utility.yul\":2066:2075   */\n      dup3\n        /* \"#utility.yul\":2062:2080   */\n      add\n        /* \"#utility.yul\":2054:2080   */\n      swap1\n      pop\n        /* \"#utility.yul\":2090:2161   */\n      tag_115\n        /* \"#utility.yul\":2158:2159   */\n      0x00\n        /* \"#utility.yul\":2147:2156   */\n      dup4\n        /* \"#utility.yul\":2143:2160   */\n      add\n        /* \"#utility.yul\":2134:2140   */\n      dup5\n        /* \"#utility.yul\":2090:2161   */\n      tag_66\n      jump\t// in\n    tag_115:\n        /* \"#utility.yul\":1946:2168   */\n      swap3\n      swap2\n      pop\n      pop\n      jump\t// out\n        /* \"#utility.yul\":2174:2292   */\n    tag_67:\n        /* \"#utility.yul\":2261:2285   */\n      tag_117\n        /* \"#utility.yul\":2279:2284   */\n      dup2\n        /* \"#utility.yul\":2261:2285   */\n      tag_63\n      jump\t// in\n    tag_117:\n        /* \"#utility.yul\":2256:2259   */\n      dup3\n        /* \"#utility.yul\":2249:2286   */\n      mstore\n        /* \"#utility.yul\":2174:2292   */\n      pop\n      pop\n      jump\t// out\n        /* \"#utility.yul\":2298:2520   */\n    tag_29:\n        /* \"#utility.yul\":2391:2395   */\n      0x00\n        /* \"#utility.yul\":2429:2431   */\n      0x20\n        /* \"#utility.yul\":2418:2427   */\n      dup3\n        /* \"#utility.yul\":2414:2432   */\n      add\n        /* \"#utility.yul\":2406:2432   */\n      swap1\n      pop\n        /* \"#utility.yul\":2442:2513   */\n      tag_119\n        /* \"#utility.yul\":2510:2511   */\n      0x00\n        /* \"#utility.yul\":2499:2508   */\n      dup4\n        /* \"#utility.yul\":2495:2512   */\n      add\n        /* \"#utility.yul\":2486:2492   */\n      dup5\n        /* \"#utility.yul\":2442:2513   */\n      tag_67\n      jump\t// in\n    tag_119:\n        /* \"#utility.yul\":2298:2520   */\n      swap3\n      swap2\n      pop\n      pop\n      jump\t// out\n        /* \"#utility.yul\":2526:2643   */\n    tag_68:\n        /* \"#utility.yul\":2635:2636   */\n      0x00\n        /* \"#utility.yul\":2632:2633   */\n      dup1\n        /* \"#utility.yul\":2625:2637   */\n      revert\n        /* \"#utility.yul\":2649:2766   */\n    tag_69:\n        /* \"#utility.yul\":2758:2759   */\n      0x00\n        /* \"#utility.yul\":2755:2756   */\n      dup1\n        /* \"#utility.yul\":2748:2760   */\n      revert\n        /* \"#utility.yul\":2772:2889   */\n    tag_70:\n        /* \"#utility.yul\":2881:2882   */\n      0x00\n        /* \"#utility.yul\":2878:2879   */\n      dup1\n        /* \"#utility.yul\":2871:2883   */\n      revert\n        /* \"#utility.yul\":2908:3460   */\n    tag_71:\n        /* \"#utility.yul\":2965:2973   */\n      0x00\n        /* \"#utility.yul\":2975:2981   */\n      dup1\n        /* \"#utility.yul\":3025:3028   */\n      dup4\n        /* \"#utility.yul\":3018:3022   */\n      0x1f\n        /* \"#utility.yul\":3010:3016   */\n      dup5\n        /* \"#utility.yul\":3006:3023   */\n      add\n        /* \"#utility.yul\":3002:3029   */\n      slt\n        /* \"#utility.yul\":2992:3114   */\n      tag_124\n      jumpi\n        /* \"#utility.yul\":3033:3112   */\n      tag_125\n      tag_68\n      jump\t// in\n    tag_125:\n        /* \"#utility.yul\":2992:3114   */\n    tag_124:\n        /* \"#utility.yul\":3146:3152   */\n      dup3\n        /* \"#utility.yul\":3133:3153   */\n      calldataload\n        /* \"#utility.yul\":3123:3153   */\n      swap1\n      pop\n        /* \"#utility.yul\":3176:3194   */\n      0xffffffffffffffff\n        /* \"#utility.yul\":3168:3174   */\n      dup2\n        /* \"#utility.yul\":3165:3195   */\n      gt\n        /* \"#utility.yul\":3162:3279   */\n      iszero\n      tag_126\n      jumpi\n        /* \"#utility.yul\":3198:3277   */\n      tag_127\n      tag_69\n      jump\t// in\n    tag_127:\n        /* \"#utility.yul\":3162:3279   */\n    tag_126:\n        /* \"#utility.yul\":3312:3316   */\n      0x20\n        /* \"#utility.yul\":3304:3310   */\n      dup4\n        /* \"#utility.yul\":3300:3317   */\n      add\n        /* \"#utility.yul\":3288:3317   */\n      swap2\n      pop\n        /* \"#utility.yul\":3366:3369   */\n      dup4\n        /* \"#utility.yul\":3358:3362   */\n      0x01\n        /* \"#utility.yul\":3350:3356   */\n      dup3\n        /* \"#utility.yul\":3346:3363   */\n      mul\n        /* \"#utility.yul\":3336:3344   */\n      dup4\n        /* \"#utility.yul\":3332:3364   */\n      add\n        /* \"#utility.yul\":3329:3370   */\n      gt\n        /* \"#utility.yul\":3326:3454   */\n      iszero\n      tag_128\n      jumpi\n        /* \"#utility.yul\":3373:3452   */\n      tag_129\n      tag_70\n      jump\t// in\n    tag_129:\n        /* \"#utility.yul\":3326:3454   */\n    tag_128:\n        /* \"#utility.yul\":2908:3460   */\n      swap3\n      pop\n      swap3\n      swap1\n      pop\n      jump\t// out\n        /* \"#utility.yul\":3466:4138   */\n    tag_32:\n        /* \"#utility.yul\":3545:3551   */\n      0x00\n        /* \"#utility.yul\":3553:3559   */\n      dup1\n        /* \"#utility.yul\":3561:3567   */\n      0x00\n        /* \"#utility.yul\":3610:3612   */\n      0x40\n        /* \"#utility.yul\":3598:3607   */\n      dup5\n        /* \"#utility.yul\":3589:3596   */\n      dup7\n        /* \"#utility.yul\":3585:3608   */\n      sub\n        /* \"#utility.yul\":3581:3613   */\n      slt\n        /* \"#utility.yul\":3578:3697   */\n      iszero\n      tag_131\n      jumpi\n        /* \"#utility.yul\":3616:3695   */\n      tag_132\n      tag_57\n      jump\t// in\n    tag_132:\n        /* \"#utility.yul\":3578:3697   */\n    tag_131:\n        /* \"#utility.yul\":3736:3737   */\n      0x00\n        /* \"#utility.yul\":3761:3814   */\n      tag_133\n        /* \"#utility.yul\":3806:3813   */\n      dup7\n        /* \"#utility.yul\":3797:3803   */\n      dup3\n        /* \"#utility.yul\":3786:3795   */\n      dup8\n        /* \"#utility.yul\":3782:3804   */\n      add\n        /* \"#utility.yul\":3761:3814   */\n      tag_65\n      jump\t// in\n    tag_133:\n        /* \"#utility.yul\":3751:3814   */\n      swap4\n      pop\n        /* \"#utility.yul\":3707:3824   */\n      pop\n        /* \"#utility.yul\":3891:3893   */\n      0x20\n        /* \"#utility.yul\":3880:3889   */\n      dup5\n        /* \"#utility.yul\":3876:3894   */\n      add\n        /* \"#utility.yul\":3863:3895   */\n      calldataload\n        /* \"#utility.yul\":3922:3940   */\n      0xffffffffffffffff\n        /* \"#utility.yul\":3914:3920   */\n      dup2\n        /* \"#utility.yul\":3911:3941   */\n      gt\n        /* \"#utility.yul\":3908:4025   */\n      iszero\n      tag_134\n      jumpi\n        /* \"#utility.yul\":3944:4023   */\n      tag_135\n      tag_58\n      jump\t// in\n    tag_135:\n        /* \"#utility.yul\":3908:4025   */\n    tag_134:\n        /* \"#utility.yul\":4057:4121   */\n      tag_136\n        /* \"#utility.yul\":4113:4120   */\n      dup7\n        /* \"#utility.yul\":4104:4110   */\n      dup3\n        /* \"#utility.yul\":4093:4102   */\n      dup8\n        /* \"#utility.yul\":4089:4111   */\n      add\n        /* \"#utility.yul\":4057:4121   */\n      tag_71\n      jump\t// in\n    tag_136:\n        /* \"#utility.yul\":4039:4121   */\n      swap3\n      pop\n      swap3\n      pop\n        /* \"#utility.yul\":3834:4131   */\n      pop\n        /* \"#utility.yul\":3466:4138   */\n      swap3\n      pop\n      swap3\n      pop\n      swap3\n      jump\t// out\n        /* \"#utility.yul\":4144:4220   */\n    tag_72:\n        /* \"#utility.yul\":4180:4187   */\n      0x00\n        /* \"#utility.yul\":4209:4214   */\n      dup2\n        /* \"#utility.yul\":4198:4214   */\n      swap1\n      pop\n        /* \"#utility.yul\":4144:4220   */\n      swap2\n      swap1\n      pop\n      jump\t// out\n        /* \"#utility.yul\":4226:4341   */\n    tag_73:\n        /* \"#utility.yul\":4311:4334   */\n      tag_139\n        /* \"#utility.yul\":4328:4333   */\n      dup2\n        /* \"#utility.yul\":4311:4334   */\n      tag_72\n      jump\t// in\n    tag_139:\n        /* \"#utility.yul\":4306:4309   */\n      dup3\n        /* \"#utility.yul\":4299:4335   */\n      mstore\n        /* \"#utility.yul\":4226:4341   */\n      pop\n      pop\n      jump\t// out\n        /* \"#utility.yul\":4347:4565   */\n    tag_40:\n        /* \"#utility.yul\":4438:4442   */\n      0x00\n        /* \"#utility.yul\":4476:4478   */\n      0x20\n        /* \"#utility.yul\":4465:4474   */\n      dup3\n        /* \"#utility.yul\":4461:4479   */\n      add\n        /* \"#utility.yul\":4453:4479   */\n      swap1\n      pop\n        /* \"#utility.yul\":4489:4558   */\n      tag_141\n        /* \"#utility.yul\":4555:4556   */\n      0x00\n        /* \"#utility.yul\":4544:4553   */\n      dup4\n        /* \"#utility.yul\":4540:4557   */\n      add\n        /* \"#utility.yul\":4531:4537   */\n      dup5\n        /* \"#utility.yul\":4489:4558   */\n      tag_73\n      jump\t// in\n    tag_141:\n        /* \"#utility.yul\":4347:4565   */\n      swap3\n      swap2\n      pop\n      pop\n      jump\t// out\n        /* \"#utility.yul\":4571:4665   */\n    tag_74:\n        /* \"#utility.yul\":4604:4612   */\n      0x00\n        /* \"#utility.yul\":4652:4657   */\n      dup2\n        /* \"#utility.yul\":4648:4650   */\n      0x60\n        /* \"#utility.yul\":4644:4658   */\n      shl\n        /* \"#utility.yul\":4623:4658   */\n      swap1\n      pop\n        /* \"#utility.yul\":4571:4665   */\n      swap2\n      swap1\n      pop\n      jump\t// out\n        /* \"#utility.yul\":4671:4765   */\n    tag_75:\n        /* \"#utility.yul\":4710:4717   */\n      0x00\n        /* \"#utility.yul\":4739:4759   */\n      tag_144\n        /* \"#utility.yul\":4753:4758   */\n      dup3\n        /* \"#utility.yul\":4739:4759   */\n      tag_74\n      jump\t// in\n    tag_144:\n        /* \"#utility.yul\":4728:4759   */\n      swap1\n      pop\n        /* \"#utility.yul\":4671:4765   */\n      swap2\n      swap1\n      pop\n      jump\t// out\n        /* \"#utility.yul\":4771:4871   */\n    tag_76:\n        /* \"#utility.yul\":4810:4817   */\n      0x00\n        /* \"#utility.yul\":4839:4865   */\n      tag_146\n        /* \"#utility.yul\":4859:4864   */\n      dup3\n        /* \"#utility.yul\":4839:4865   */\n      tag_75\n      jump\t// in\n    tag_146:\n        /* \"#utility.yul\":4828:4865   */\n      swap1\n      pop\n        /* \"#utility.yul\":4771:4871   */\n      swap2\n      swap1\n      pop\n      jump\t// out\n        /* \"#utility.yul\":4877:5034   */\n    tag_77:\n        /* \"#utility.yul\":4982:5027   */\n      tag_148\n        /* \"#utility.yul\":5002:5026   */\n      tag_149\n        /* \"#utility.yul\":5020:5025   */\n      dup3\n        /* \"#utility.yul\":5002:5026   */\n      tag_60\n      jump\t// in\n    tag_149:\n        /* \"#utility.yul\":4982:5027   */\n      tag_76\n      jump\t// in\n    tag_148:\n        /* \"#utility.yul\":4977:4980   */\n      dup3\n        /* \"#utility.yul\":4970:5028   */\n      mstore\n        /* \"#utility.yul\":4877:5034   */\n      pop\n      pop\n      jump\t// out\n        /* \"#utility.yul\":5040:5119   */\n    tag_78:\n        /* \"#utility.yul\":5079:5086   */\n      0x00\n        /* \"#utility.yul\":5108:5113   */\n      dup2\n        /* \"#utility.yul\":5097:5113   */\n      swap1\n      pop\n        /* \"#utility.yul\":5040:5119   */\n      swap2\n      swap1\n      pop\n      jump\t// out\n        /* \"#utility.yul\":5125:5282   */\n    tag_79:\n        /* \"#utility.yul\":5230:5275   */\n      tag_152\n        /* \"#utility.yul\":5250:5274   */\n      tag_153\n        /* \"#utility.yul\":5268:5273   */\n      dup3\n        /* \"#utility.yul\":5250:5274   */\n      tag_63\n      jump\t// in\n    tag_153:\n        /* \"#utility.yul\":5230:5275   */\n      tag_78\n      jump\t// in\n    tag_152:\n        /* \"#utility.yul\":5225:5228   */\n      dup3\n        /* \"#utility.yul\":5218:5276   */\n      mstore\n        /* \"#utility.yul\":5125:5282   */\n      pop\n      pop\n      jump\t// out\n        /* \"#utility.yul\":5288:5437   */\n    tag_80:\n        /* \"#utility.yul\":5324:5331   */\n      0x00\n        /* \"#utility.yul\":5364:5430   */\n      0xffffffff00000000000000000000000000000000000000000000000000000000\n        /* \"#utility.yul\":5357:5362   */\n      dup3\n        /* \"#utility.yul\":5353:5431   */\n      and\n        /* \"#utility.yul\":5342:5431   */\n      swap1\n      pop\n        /* \"#utility.yul\":5288:5437   */\n      swap2\n      swap1\n      pop\n      jump\t// out\n        /* \"#utility.yul\":5443:5521   */\n    tag_81:\n        /* \"#utility.yul\":5481:5488   */\n      0x00\n        /* \"#utility.yul\":5510:5515   */\n      dup2\n        /* \"#utility.yul\":5499:5515   */\n      swap1\n      pop\n        /* \"#utility.yul\":5443:5521   */\n      swap2\n      swap1\n      pop\n      jump\t// out\n        /* \"#utility.yul\":5527:5680   */\n    tag_82:\n        /* \"#utility.yul\":5630:5673   */\n      tag_157\n        /* \"#utility.yul\":5649:5672   */\n      tag_158\n        /* \"#utility.yul\":5666:5671   */\n      dup3\n        /* \"#utility.yul\":5649:5672   */\n      tag_80\n      jump\t// in\n    tag_158:\n        /* \"#utility.yul\":5630:5673   */\n      tag_81\n      jump\t// in\n    tag_157:\n        /* \"#utility.yul\":5625:5628   */\n      dup3\n        /* \"#utility.yul\":5618:5674   */\n      mstore\n        /* \"#utility.yul\":5527:5680   */\n      pop\n      pop\n      jump\t// out\n        /* \"#utility.yul\":5686:6501   */\n    tag_46:\n        /* \"#utility.yul\":5908:5911   */\n      0x00\n        /* \"#utility.yul\":5923:5998   */\n      tag_160\n        /* \"#utility.yul\":5994:5997   */\n      dup3\n        /* \"#utility.yul\":5985:5991   */\n      dup9\n        /* \"#utility.yul\":5923:5998   */\n      tag_77\n      jump\t// in\n    tag_160:\n        /* \"#utility.yul\":6023:6025   */\n      0x14\n        /* \"#utility.yul\":6018:6021   */\n      dup3\n        /* \"#utility.yul\":6014:6026   */\n      add\n        /* \"#utility.yul\":6007:6026   */\n      swap2\n      pop\n        /* \"#utility.yul\":6036:6111   */\n      tag_161\n        /* \"#utility.yul\":6107:6110   */\n      dup3\n        /* \"#utility.yul\":6098:6104   */\n      dup8\n        /* \"#utility.yul\":6036:6111   */\n      tag_79\n      jump\t// in\n    tag_161:\n        /* \"#utility.yul\":6136:6138   */\n      0x20\n        /* \"#utility.yul\":6131:6134   */\n      dup3\n        /* \"#utility.yul\":6127:6139   */\n      add\n        /* \"#utility.yul\":6120:6139   */\n      swap2\n      pop\n        /* \"#utility.yul\":6149:6224   */\n      tag_162\n        /* \"#utility.yul\":6220:6223   */\n      dup3\n        /* \"#utility.yul\":6211:6217   */\n      dup7\n        /* \"#utility.yul\":6149:6224   */\n      tag_77\n      jump\t// in\n    tag_162:\n        /* \"#utility.yul\":6249:6251   */\n      0x14\n        /* \"#utility.yul\":6244:6247   */\n      dup3\n        /* \"#utility.yul\":6240:6252   */\n      add\n        /* \"#utility.yul\":6233:6252   */\n      swap2\n      pop\n        /* \"#utility.yul\":6262:6337   */\n      tag_163\n        /* \"#utility.yul\":6333:6336   */\n      dup3\n        /* \"#utility.yul\":6324:6330   */\n      dup6\n        /* \"#utility.yul\":6262:6337   */\n      tag_77\n      jump\t// in\n    tag_163:\n        /* \"#utility.yul\":6362:6364   */\n      0x14\n        /* \"#utility.yul\":6357:6360   */\n      dup3\n        /* \"#utility.yul\":6353:6365   */\n      add\n        /* \"#utility.yul\":6346:6365   */\n      swap2\n      pop\n        /* \"#utility.yul\":6375:6448   */\n      tag_164\n        /* \"#utility.yul\":6444:6447   */\n      dup3\n        /* \"#utility.yul\":6435:6441   */\n      dup5\n        /* \"#utility.yul\":6375:6448   */\n      tag_82\n      jump\t// in\n    tag_164:\n        /* \"#utility.yul\":6473:6474   */\n      0x04\n        /* \"#utility.yul\":6468:6471   */\n      dup3\n        /* \"#utility.yul\":6464:6475   */\n      add\n        /* \"#utility.yul\":6457:6475   */\n      swap2\n      pop\n        /* \"#utility.yul\":6492:6495   */\n      dup2\n        /* \"#utility.yul\":6485:6495   */\n      swap1\n      pop\n        /* \"#utility.yul\":5686:6501   */\n      swap7\n      swap6\n      pop\n      pop\n      pop\n      pop\n      pop\n      pop\n      jump\t// out\n        /* \"#utility.yul\":6507:6676   */\n    tag_83:\n        /* \"#utility.yul\":6591:6602   */\n      0x00\n        /* \"#utility.yul\":6625:6631   */\n      dup3\n        /* \"#utility.yul\":6620:6623   */\n      dup3\n        /* \"#utility.yul\":6613:6632   */\n      mstore\n        /* \"#utility.yul\":6665:6669   */\n      0x20\n        /* \"#utility.yul\":6660:6663   */\n      dup3\n        /* \"#utility.yul\":6656:6670   */\n      add\n        /* \"#utility.yul\":6641:6670   */\n      swap1\n      pop\n        /* \"#utility.yul\":6507:6676   */\n      swap3\n      swap2\n      pop\n      pop\n      jump\t// out\n        /* \"#utility.yul\":6682:6861   */\n    tag_84:\n        /* \"#utility.yul\":6822:6853   */\n      0x43616c6c6572206973206e6f7420746865204169726e6f646520525250000000\n        /* \"#utility.yul\":6818:6819   */\n      0x00\n        /* \"#utility.yul\":6810:6816   */\n      dup3\n        /* \"#utility.yul\":6806:6820   */\n      add\n        /* \"#utility.yul\":6799:6854   */\n      mstore\n        /* \"#utility.yul\":6682:6861   */\n      pop\n      jump\t// out\n        /* \"#utility.yul\":6867:7233   */\n    tag_85:\n        /* \"#utility.yul\":7009:7012   */\n      0x00\n        /* \"#utility.yul\":7030:7097   */\n      tag_168\n        /* \"#utility.yul\":7094:7096   */\n      0x1d\n        /* \"#utility.yul\":7089:7092   */\n      dup4\n        /* \"#utility.yul\":7030:7097   */\n      tag_83\n      jump\t// in\n    tag_168:\n        /* \"#utility.yul\":7023:7097   */\n      swap2\n      pop\n        /* \"#utility.yul\":7106:7199   */\n      tag_169\n        /* \"#utility.yul\":7195:7198   */\n      dup3\n        /* \"#utility.yul\":7106:7199   */\n      tag_84\n      jump\t// in\n    tag_169:\n        /* \"#utility.yul\":7224:7226   */\n      0x20\n        /* \"#utility.yul\":7219:7222   */\n      dup3\n        /* \"#utility.yul\":7215:7227   */\n      add\n        /* \"#utility.yul\":7208:7227   */\n      swap1\n      pop\n        /* \"#utility.yul\":6867:7233   */\n      swap2\n      swap1\n      pop\n      jump\t// out\n        /* \"#utility.yul\":7239:7658   */\n    tag_52:\n        /* \"#utility.yul\":7405:7409   */\n      0x00\n        /* \"#utility.yul\":7443:7445   */\n      0x20\n        /* \"#utility.yul\":7432:7441   */\n      dup3\n        /* \"#utility.yul\":7428:7446   */\n      add\n        /* \"#utility.yul\":7420:7446   */\n      swap1\n      pop\n        /* \"#utility.yul\":7492:7501   */\n      dup2\n        /* \"#utility.yul\":7486:7490   */\n      dup2\n        /* \"#utility.yul\":7482:7502   */\n      sub\n        /* \"#utility.yul\":7478:7479   */\n      0x00\n        /* \"#utility.yul\":7467:7476   */\n      dup4\n        /* \"#utility.yul\":7463:7480   */\n      add\n        /* \"#utility.yul\":7456:7503   */\n      mstore\n        /* \"#utility.yul\":7520:7651   */\n      tag_171\n        /* \"#utility.yul\":7646:7650   */\n      dup2\n        /* \"#utility.yul\":7520:7651   */\n      tag_85\n      jump\t// in\n    tag_171:\n        /* \"#utility.yul\":7512:7651   */\n      swap1\n      pop\n        /* \"#utility.yul\":7239:7658   */\n      swap2\n      swap1\n      pop\n      jump\t// out\n        /* \"#utility.yul\":7664:7784   */\n    tag_86:\n        /* \"#utility.yul\":7736:7759   */\n      tag_173\n        /* \"#utility.yul\":7753:7758   */\n      dup2\n        /* \"#utility.yul\":7736:7759   */\n      tag_72\n      jump\t// in\n    tag_173:\n        /* \"#utility.yul\":7729:7734   */\n      dup2\n        /* \"#utility.yul\":7726:7760   */\n      eq\n        /* \"#utility.yul\":7716:7778   */\n      tag_174\n      jumpi\n        /* \"#utility.yul\":7774:7775   */\n      0x00\n        /* \"#utility.yul\":7771:7772   */\n      dup1\n        /* \"#utility.yul\":7764:7776   */\n      revert\n        /* \"#utility.yul\":7716:7778   */\n    tag_174:\n        /* \"#utility.yul\":7664:7784   */\n      pop\n      jump\t// out\n        /* \"#utility.yul\":7790:7927   */\n    tag_87:\n        /* \"#utility.yul\":7835:7840   */\n      0x00\n        /* \"#utility.yul\":7873:7879   */\n      dup2\n        /* \"#utility.yul\":7860:7880   */\n      calldataload\n        /* \"#utility.yul\":7851:7880   */\n      swap1\n      pop\n        /* \"#utility.yul\":7889:7921   */\n      tag_176\n        /* \"#utility.yul\":7915:7920   */\n      dup2\n        /* \"#utility.yul\":7889:7921   */\n      tag_86\n      jump\t// in\n    tag_176:\n        /* \"#utility.yul\":7790:7927   */\n      swap3\n      swap2\n      pop\n      pop\n      jump\t// out\n        /* \"#utility.yul\":7933:8260   */\n    tag_55:\n        /* \"#utility.yul\":7991:7997   */\n      0x00\n        /* \"#utility.yul\":8040:8042   */\n      0x20\n        /* \"#utility.yul\":8028:8037   */\n      dup3\n        /* \"#utility.yul\":8019:8026   */\n      dup5\n        /* \"#utility.yul\":8015:8038   */\n      sub\n        /* \"#utility.yul\":8011:8043   */\n      slt\n        /* \"#utility.yul\":8008:8127   */\n      iszero\n      tag_178\n      jumpi\n        /* \"#utility.yul\":8046:8125   */\n      tag_179\n      tag_57\n      jump\t// in\n    tag_179:\n        /* \"#utility.yul\":8008:8127   */\n    tag_178:\n        /* \"#utility.yul\":8166:8167   */\n      0x00\n        /* \"#utility.yul\":8191:8243   */\n      tag_180\n        /* \"#utility.yul\":8235:8242   */\n      dup5\n        /* \"#utility.yul\":8226:8232   */\n      dup3\n        /* \"#utility.yul\":8215:8224   */\n      dup6\n        /* \"#utility.yul\":8211:8233   */\n      add\n        /* \"#utility.yul\":8191:8243   */\n      tag_87\n      jump\t// in\n    tag_180:\n        /* \"#utility.yul\":8181:8243   */\n      swap2\n      pop\n        /* \"#utility.yul\":8137:8253   */\n      pop\n        /* \"#utility.yul\":7933:8260   */\n      swap3\n      swap2\n      pop\n      pop\n      jump\t// out\n\n    auxdata: 0xa2646970667358221220b0c950f2b5eb9dee69c85c40fec13fe7d83c292d389ed8204f2cbee865c2589664736f6c63430008140033\n}\n",
				"bytecode": {
					"linkReferences": {},
					"object": "608060405234801561000f575f80fd5b50604051610955380380610955833981810160405281019061003191906100d5565b8060045f6101000a81548173ffffffffffffffffffffffffffffffffffffffff021916908373ffffffffffffffffffffffffffffffffffffffff16021790555050610100565b5f80fd5b5f73ffffffffffffffffffffffffffffffffffffffff82169050919050565b5f6100a48261007b565b9050919050565b6100b48161009a565b81146100be575f80fd5b50565b5f815190506100cf816100ab565b92915050565b5f602082840312156100ea576100e9610077565b5b5f6100f7848285016100c1565b91505092915050565b6108488061010d5f395ff3fe608060405234801561000f575f80fd5b5060043610610091575f3560e01c806377e20df81161006457806377e20df8146100f75780637c1de7e114610115578063a36ff4d814610131578063a3e6ba941461014f578063bf90fb4e1461016d57610091565b80631604f9ea146100955780634daff67e1461009f57806371bab666146100bb57806377c93662146100d9575b5f80fd5b61009d61018b565b005b6100b960048036038101906100b491906104a8565b610241565b005b6100c36102cc565b6040516100d09190610507565b60405180910390f35b6100e16102f1565b6040516100ee9190610507565b60405180910390f35b6100ff610316565b60405161010c919061052f565b60405180910390f35b61012f600480360381019061012a91906105a9565b61031c565b005b6101396103c5565b6040516101469190610507565b60405180910390f35b6101576103e8565b604051610164919061061e565b60405180910390f35b6101756103ee565b6040516101829190610507565b60405180910390f35b5f805f9054906101000a900473ffffffffffffffffffffffffffffffffffffffff1660015460035f9054906101000a900473ffffffffffffffffffffffffffffffffffffffff1630637c1de7e160e01b6040516020016101ef9594939291906106e7565b6040516020818303038152906040528051906020012090507f9dc80e952f32e8aef7828795a4cc11bbe605c2ad3cc626df8115be4f78338f6981604051610236919061052f565b60405180910390a150565b825f806101000a81548173ffffffffffffffffffffffffffffffffffffffff021916908373ffffffffffffffffffffffffffffffffffffffff160217905550816001819055508060035f6101000a81548173ffffffffffffffffffffffffffffffffffffffff021916908373ffffffffffffffffffffffffffffffffffffffff160217905550505050565b60045f9054906101000a900473ffffffffffffffffffffffffffffffffffffffff1681565b60025f9054906101000a900473ffffffffffffffffffffffffffffffffffffffff1681565b60015481565b60045f9054906101000a900473ffffffffffffffffffffffffffffffffffffffff1673ffffffffffffffffffffffffffffffffffffffff163373ffffffffffffffffffffffffffffffffffffffff16146103ab576040517f08c379a00000000000000000000000000000000000000000000000000000000081526004016103a29061079f565b60405180910390fd5b81818101906103ba91906107e7565b600581905550505050565b5f8054906101000a900473ffffffffffffffffffffffffffffffffffffffff1681565b60055481565b60035f9054906101000a900473ffffffffffffffffffffffffffffffffffffffff1681565b5f80fd5b5f80fd5b5f73ffffffffffffffffffffffffffffffffffffffff82169050919050565b5f6104448261041b565b9050919050565b6104548161043a565b811461045e575f80fd5b50565b5f8135905061046f8161044b565b92915050565b5f819050919050565b61048781610475565b8114610491575f80fd5b50565b5f813590506104a28161047e565b92915050565b5f805f606084860312156104bf576104be610413565b5b5f6104cc86828701610461565b93505060206104dd86828701610494565b92505060406104ee86828701610461565b9150509250925092565b6105018161043a565b82525050565b5f60208201905061051a5f8301846104f8565b92915050565b61052981610475565b82525050565b5f6020820190506105425f830184610520565b92915050565b5f80fd5b5f80fd5b5f80fd5b5f8083601f84011261056957610568610548565b5b8235905067ffffffffffffffff8111156105865761058561054c565b5b6020830191508360018202830111156105a2576105a1610550565b5b9250929050565b5f805f604084860312156105c0576105bf610413565b5b5f6105cd86828701610494565b935050602084013567ffffffffffffffff8111156105ee576105ed610417565b5b6105fa86828701610554565b92509250509250925092565b5f819050919050565b61061881610606565b82525050565b5f6020820190506106315f83018461060f565b92915050565b5f8160601b9050919050565b5f61064d82610637565b9050919050565b5f61065e82610643565b9050919050565b6106766106718261043a565b610654565b82525050565b5f819050919050565b61069661069182610475565b61067c565b82525050565b5f7fffffffff0000000000000000000000000000000000000000000000000000000082169050919050565b5f819050919050565b6106e16106dc8261069c565b6106c7565b82525050565b5f6106f28288610665565b6014820191506107028287610685565b6020820191506107128286610665565b6014820191506107228285610665565b60148201915061073282846106d0565b6004820191508190509695505050505050565b5f82825260208201905092915050565b7f43616c6c6572206973206e6f7420746865204169726e6f6465205252500000005f82015250565b5f610789601d83610745565b915061079482610755565b602082019050919050565b5f6020820190508181035f8301526107b68161077d565b9050919050565b6107c681610606565b81146107d0575f80fd5b50565b5f813590506107e1816107bd565b92915050565b5f602082840312156107fc576107fb610413565b5b5f610809848285016107d3565b9150509291505056fea2646970667358221220b0c950f2b5eb9dee69c85c40fec13fe7d83c292d389ed8204f2cbee865c2589664736f6c63430008140033",
					"opcodes": "PUSH1 0x80 PUSH1 0x40 MSTORE CALLVALUE DUP1 ISZERO PUSH2 0xF JUMPI PUSH0 DUP1 REVERT JUMPDEST POP PUSH1 0x40 MLOAD PUSH2 0x955 CODESIZE SUB DUP1 PUSH2 0x955 DUP4 CODECOPY DUP2 DUP2 ADD PUSH1 0x40 MSTORE DUP2 ADD SWAP1 PUSH2 0x31 SWAP2 SWAP1 PUSH2 0xD5 JUMP JUMPDEST DUP1 PUSH1 0x4 PUSH0 PUSH2 0x100 EXP DUP2 SLOAD DUP2 PUSH20 0xFFFFFFFFFFFFFFFFFFFFFFFFFFFFFFFFFFFFFFFF MUL NOT AND SWAP1 DUP4 PUSH20 0xFFFFFFFFFFFFFFFFFFFFFFFFFFFFFFFFFFFFFFFF AND MUL OR SWAP1 SSTORE POP POP PUSH2 0x100 JUMP JUMPDEST PUSH0 DUP1 REVERT JUMPDEST PUSH0 PUSH20 0xFFFFFFFFFFFFFFFFFFFFFFFFFFFFFFFFFFFFFFFF DUP3 AND SWAP1 POP SWAP2 SWAP1 POP JUMP JUMPDEST PUSH0 PUSH2 0xA4 DUP3 PUSH2 0x7B JUMP JUMPDEST SWAP1 POP SWAP2 SWAP1 POP JUMP JUMPDEST PUSH2 0xB4 DUP2 PUSH2 0x9A JUMP JUMPDEST DUP2 EQ PUSH2 0xBE JUMPI PUSH0 DUP1 REVERT JUMPDEST POP JUMP JUMPDEST PUSH0 DUP2 MLOAD SWAP1 POP PUSH2 0xCF DUP2 PUSH2 0xAB JUMP JUMPDEST SWAP3 SWAP2 POP POP JUMP JUMPDEST PUSH0 PUSH1 0x20 DUP3 DUP5 SUB SLT ISZERO PUSH2 0xEA JUMPI PUSH2 0xE9 PUSH2 0x77 JUMP JUMPDEST JUMPDEST PUSH0 PUSH2 0xF7 DUP5 DUP3 DUP6 ADD PUSH2 0xC1 JUMP JUMPDEST SWAP2 POP POP SWAP3 SWAP2 POP POP JUMP JUMPDEST PUSH2 0x848 DUP1 PUSH2 0x10D PUSH0 CODECOPY PUSH0 RETURN INVALID PUSH1 0x80 PUSH1 0x40 MSTORE CALLVALUE DUP1 ISZERO PUSH2 0xF JUMPI PUSH0 DUP1 REVERT JUMPDEST POP PUSH1 0x4 CALLDATASIZE LT PUSH2 0x91 JUMPI PUSH0 CALLDATALOAD PUSH1 0xE0 SHR DUP1 PUSH4 0x77E20DF8 GT PUSH2 0x64 JUMPI DUP1 PUSH4 0x77E20DF8 EQ PUSH2 0xF7 JUMPI DUP1 PUSH4 0x7C1DE7E1 EQ PUSH2 0x115 JUMPI DUP1 PUSH4 0xA36FF4D8 EQ PUSH2 0x131 JUMPI DUP1 PUSH4 0xA3E6BA94 EQ PUSH2 0x14F JUMPI DUP1 PUSH4 0xBF90FB4E EQ PUSH2 0x16D JUMPI PUSH2 0x91 JUMP JUMPDEST DUP1 PUSH4 0x1604F9EA EQ PUSH2 0x95 JUMPI DUP1 PUSH4 0x4DAFF67E EQ PUSH2 0x9F JUMPI DUP1 PUSH4 0x71BAB666 EQ PUSH2 0xBB JUMPI DUP1 PUSH4 0x77C93662 EQ PUSH2 0xD9 JUMPI JUMPDEST PUSH0 DUP1 REVERT JUMPDEST PUSH2 0x9D PUSH2 0x18B JUMP JUMPDEST STOP JUMPDEST PUSH2 0xB9 PUSH1 0x4 DUP1 CALLDATASIZE SUB DUP2 ADD SWAP1 PUSH2 0xB4 SWAP2 SWAP1 PUSH2 0x4A8 JUMP JUMPDEST PUSH2 0x241 JUMP JUMPDEST STOP JUMPDEST PUSH2 0xC3 PUSH2 0x2CC JUMP JUMPDEST PUSH1 0x40 MLOAD PUSH2 0xD0 SWAP2 SWAP1 PUSH2 0x507 JUMP JUMPDEST PUSH1 0x40 MLOAD DUP1 SWAP2 SUB SWAP1 RETURN JUMPDEST PUSH2 0xE1 PUSH2 0x2F1 JUMP JUMPDEST PUSH1 0x40 MLOAD PUSH2 0xEE SWAP2 SWAP1 PUSH2 0x507 JUMP JUMPDEST PUSH1 0x40 MLOAD DUP1 SWAP2 SUB SWAP1 RETURN JUMPDEST PUSH2 0xFF PUSH2 0x316 JUMP JUMPDEST PUSH1 0x40 MLOAD PUSH2 0x10C SWAP2 SWAP1 PUSH2 0x52F JUMP JUMPDEST PUSH1 0x40 MLOAD DUP1 SWAP2 SUB SWAP1 RETURN JUMPDEST PUSH2 0x12F PUSH1 0x4 DUP1 CALLDATASIZE SUB DUP2 ADD SWAP1 PUSH2 0x12A SWAP2 SWAP1 PUSH2 0x5A9 JUMP JUMPDEST PUSH2 0x31C JUMP JUMPDEST STOP JUMPDEST PUSH2 0x139 PUSH2 0x3C5 JUMP JUMPDEST PUSH1 0x40 MLOAD PUSH2 0x146 SWAP2 SWAP1 PUSH2 0x507 JUMP JUMPDEST PUSH1 0x40 MLOAD DUP1 SWAP2 SUB SWAP1 RETURN JUMPDEST PUSH2 0x157 PUSH2 0x3E8 JUMP JUMPDEST PUSH1 0x40 MLOAD PUSH2 0x164 SWAP2 SWAP1 PUSH2 0x61E JUMP JUMPDEST PUSH1 0x40 MLOAD DUP1 SWAP2 SUB SWAP1 RETURN JUMPDEST PUSH2 0x175 PUSH2 0x3EE JUMP JUMPDEST PUSH1 0x40 MLOAD PUSH2 0x182 SWAP2 SWAP1 PUSH2 0x507 JUMP JUMPDEST PUSH1 0x40 MLOAD DUP1 SWAP2 SUB SWAP1 RETURN JUMPDEST PUSH0 DUP1 PUSH0 SWAP1 SLOAD SWAP1 PUSH2 0x100 EXP SWAP1 DIV PUSH20 0xFFFFFFFFFFFFFFFFFFFFFFFFFFFFFFFFFFFFFFFF AND PUSH1 0x1 SLOAD PUSH1 0x3 PUSH0 SWAP1 SLOAD SWAP1 PUSH2 0x100 EXP SWAP1 DIV PUSH20 0xFFFFFFFFFFFFFFFFFFFFFFFFFFFFFFFFFFFFFFFF AND ADDRESS PUSH4 0x7C1DE7E1 PUSH1 0xE0 SHL PUSH1 0x40 MLOAD PUSH1 0x20 ADD PUSH2 0x1EF SWAP6 SWAP5 SWAP4 SWAP3 SWAP2 SWAP1 PUSH2 0x6E7 JUMP JUMPDEST PUSH1 0x40 MLOAD PUSH1 0x20 DUP2 DUP4 SUB SUB DUP2 MSTORE SWAP1 PUSH1 0x40 MSTORE DUP1 MLOAD SWAP1 PUSH1 0x20 ADD KECCAK256 SWAP1 POP PUSH32 0x9DC80E952F32E8AEF7828795A4CC11BBE605C2AD3CC626DF8115BE4F78338F69 DUP2 PUSH1 0x40 MLOAD PUSH2 0x236 SWAP2 SWAP1 PUSH2 0x52F JUMP JUMPDEST PUSH1 0x40 MLOAD DUP1 SWAP2 SUB SWAP1 LOG1 POP JUMP JUMPDEST DUP3 PUSH0 DUP1 PUSH2 0x100 EXP DUP2 SLOAD DUP2 PUSH20 0xFFFFFFFFFFFFFFFFFFFFFFFFFFFFFFFFFFFFFFFF MUL NOT AND SWAP1 DUP4 PUSH20 0xFFFFFFFFFFFFFFFFFFFFFFFFFFFFFFFFFFFFFFFF AND MUL OR SWAP1 SSTORE POP DUP2 PUSH1 0x1 DUP2 SWAP1 SSTORE POP DUP1 PUSH1 0x3 PUSH0 PUSH2 0x100 EXP DUP2 SLOAD DUP2 PUSH20 0xFFFFFFFFFFFFFFFFFFFFFFFFFFFFFFFFFFFFFFFF MUL NOT AND SWAP1 DUP4 PUSH20 0xFFFFFFFFFFFFFFFFFFFFFFFFFFFFFFFFFFFFFFFF AND MUL OR SWAP1 SSTORE POP POP POP POP JUMP JUMPDEST PUSH1 0x4 PUSH0 SWAP1 SLOAD SWAP1 PUSH2 0x100 EXP SWAP1 DIV PUSH20 0xFFFFFFFFFFFFFFFFFFFFFFFFFFFFFFFFFFFFFFFF AND DUP2 JUMP JUMPDEST PUSH1 0x2 PUSH0 SWAP1 SLOAD SWAP1 PUSH2 0x100 EXP SWAP1 DIV PUSH20 0xFFFFFFFFFFFFFFFFFFFFFFFFFFFFFFFFFFFFFFFF AND DUP2 JUMP JUMPDEST PUSH1 0x1 SLOAD DUP2 JUMP JUMPDEST PUSH1 0x4 PUSH0 SWAP1 SLOAD SWAP1 PUSH2 0x100 EXP SWAP1 DIV PUSH20 0xFFFFFFFFFFFFFFFFFFFFFFFFFFFFFFFFFFFFFFFF AND PUSH20 0xFFFFFFFFFFFFFFFFFFFFFFFFFFFFFFFFFFFFFFFF AND CALLER PUSH20 0xFFFFFFFFFFFFFFFFFFFFFFFFFFFFFFFFFFFFFFFF AND EQ PUSH2 0x3AB JUMPI PUSH1 0x40 MLOAD PUSH32 0x8C379A000000000000000000000000000000000000000000000000000000000 DUP2 MSTORE PUSH1 0x4 ADD PUSH2 0x3A2 SWAP1 PUSH2 0x79F JUMP JUMPDEST PUSH1 0x40 MLOAD DUP1 SWAP2 SUB SWAP1 REVERT JUMPDEST DUP2 DUP2 DUP2 ADD SWAP1 PUSH2 0x3BA SWAP2 SWAP1 PUSH2 0x7E7 JUMP JUMPDEST PUSH1 0x5 DUP2 SWAP1 SSTORE POP POP POP POP JUMP JUMPDEST PUSH0 DUP1 SLOAD SWAP1 PUSH2 0x100 EXP SWAP1 DIV PUSH20 0xFFFFFFFFFFFFFFFFFFFFFFFFFFFFFFFFFFFFFFFF AND DUP2 JUMP JUMPDEST PUSH1 0x5 SLOAD DUP2 JUMP JUMPDEST PUSH1 0x3 PUSH0 SWAP1 SLOAD SWAP1 PUSH2 0x100 EXP SWAP1 DIV PUSH20 0xFFFFFFFFFFFFFFFFFFFFFFFFFFFFFFFFFFFFFFFF AND DUP2 JUMP JUMPDEST PUSH0 DUP1 REVERT JUMPDEST PUSH0 DUP1 REVERT JUMPDEST PUSH0 PUSH20 0xFFFFFFFFFFFFFFFFFFFFFFFFFFFFFFFFFFFFFFFF DUP3 AND SWAP1 POP SWAP2 SWAP1 POP JUMP JUMPDEST PUSH0 PUSH2 0x444 DUP3 PUSH2 0x41B JUMP JUMPDEST SWAP1 POP SWAP2 SWAP1 POP JUMP JUMPDEST PUSH2 0x454 DUP2 PUSH2 0x43A JUMP JUMPDEST DUP2 EQ PUSH2 0x45E JUMPI PUSH0 DUP1 REVERT JUMPDEST POP JUMP JUMPDEST PUSH0 DUP2 CALLDATALOAD SWAP1 POP PUSH2 0x46F DUP2 PUSH2 0x44B JUMP JUMPDEST SWAP3 SWAP2 POP POP JUMP JUMPDEST PUSH0 DUP2 SWAP1 POP SWAP2 SWAP1 POP JUMP JUMPDEST PUSH2 0x487 DUP2 PUSH2 0x475 JUMP JUMPDEST DUP2 EQ PUSH2 0x491 JUMPI PUSH0 DUP1 REVERT JUMPDEST POP JUMP JUMPDEST PUSH0 DUP2 CALLDATALOAD SWAP1 POP PUSH2 0x4A2 DUP2 PUSH2 0x47E JUMP JUMPDEST SWAP3 SWAP2 POP POP JUMP JUMPDEST PUSH0 DUP1 PUSH0 PUSH1 0x60 DUP5 DUP7 SUB SLT ISZERO PUSH2 0x4BF JUMPI PUSH2 0x4BE PUSH2 0x413 JUMP JUMPDEST JUMPDEST PUSH0 PUSH2 0x4CC DUP7 DUP3 DUP8 ADD PUSH2 0x461 JUMP JUMPDEST SWAP4 POP POP PUSH1 0x20 PUSH2 0x4DD DUP7 DUP3 DUP8 ADD PUSH2 0x494 JUMP JUMPDEST SWAP3 POP POP PUSH1 0x40 PUSH2 0x4EE DUP7 DUP3 DUP8 ADD PUSH2 0x461 JUMP JUMPDEST SWAP2 POP POP SWAP3 POP SWAP3 POP SWAP3 JUMP JUMPDEST PUSH2 0x501 DUP2 PUSH2 0x43A JUMP JUMPDEST DUP3 MSTORE POP POP JUMP JUMPDEST PUSH0 PUSH1 0x20 DUP3 ADD SWAP1 POP PUSH2 0x51A PUSH0 DUP4 ADD DUP5 PUSH2 0x4F8 JUMP JUMPDEST SWAP3 SWAP2 POP POP JUMP JUMPDEST PUSH2 0x529 DUP2 PUSH2 0x475 JUMP JUMPDEST DUP3 MSTORE POP POP JUMP JUMPDEST PUSH0 PUSH1 0x20 DUP3 ADD SWAP1 POP PUSH2 0x542 PUSH0 DUP4 ADD DUP5 PUSH2 0x520 JUMP JUMPDEST SWAP3 SWAP2 POP POP JUMP JUMPDEST PUSH0 DUP1 REVERT JUMPDEST PUSH0 DUP1 REVERT JUMPDEST PUSH0 DUP1 REVERT JUMPDEST PUSH0 DUP1 DUP4 PUSH1 0x1F DUP5 ADD SLT PUSH2 0x569 JUMPI PUSH2 0x568 PUSH2 0x548 JUMP JUMPDEST JUMPDEST DUP3 CALLDATALOAD SWAP1 POP PUSH8 0xFFFFFFFFFFFFFFFF DUP2 GT ISZERO PUSH2 0x586 JUMPI PUSH2 0x585 PUSH2 0x54C JUMP JUMPDEST JUMPDEST PUSH1 0x20 DUP4 ADD SWAP2 POP DUP4 PUSH1 0x1 DUP3 MUL DUP4 ADD GT ISZERO PUSH2 0x5A2 JUMPI PUSH2 0x5A1 PUSH2 0x550 JUMP JUMPDEST JUMPDEST SWAP3 POP SWAP3 SWAP1 POP JUMP JUMPDEST PUSH0 DUP1 PUSH0 PUSH1 0x40 DUP5 DUP7 SUB SLT ISZERO PUSH2 0x5C0 JUMPI PUSH2 0x5BF PUSH2 0x413 JUMP JUMPDEST JUMPDEST PUSH0 PUSH2 0x5CD DUP7 DUP3 DUP8 ADD PUSH2 0x494 JUMP JUMPDEST SWAP4 POP POP PUSH1 0x20 DUP5 ADD CALLDATALOAD PUSH8 0xFFFFFFFFFFFFFFFF DUP2 GT ISZERO PUSH2 0x5EE JUMPI PUSH2 0x5ED PUSH2 0x417 JUMP JUMPDEST JUMPDEST PUSH2 0x5FA DUP7 DUP3 DUP8 ADD PUSH2 0x554 JUMP JUMPDEST SWAP3 POP SWAP3 POP POP SWAP3 POP SWAP3 POP SWAP3 JUMP JUMPDEST PUSH0 DUP2 SWAP1 POP SWAP2 SWAP1 POP JUMP JUMPDEST PUSH2 0x618 DUP2 PUSH2 0x606 JUMP JUMPDEST DUP3 MSTORE POP POP JUMP JUMPDEST PUSH0 PUSH1 0x20 DUP3 ADD SWAP1 POP PUSH2 0x631 PUSH0 DUP4 ADD DUP5 PUSH2 0x60F JUMP JUMPDEST SWAP3 SWAP2 POP POP JUMP JUMPDEST PUSH0 DUP2 PUSH1 0x60 SHL SWAP1 POP SWAP2 SWAP1 POP JUMP JUMPDEST PUSH0 PUSH2 0x64D DUP3 PUSH2 0x637 JUMP JUMPDEST SWAP1 POP SWAP2 SWAP1 POP JUMP JUMPDEST PUSH0 PUSH2 0x65E DUP3 PUSH2 0x643 JUMP JUMPDEST SWAP1 POP SWAP2 SWAP1 POP JUMP JUMPDEST PUSH2 0x676 PUSH2 0x671 DUP3 PUSH2 0x43A JUMP JUMPDEST PUSH2 0x654 JUMP JUMPDEST DUP3 MSTORE POP POP JUMP JUMPDEST PUSH0 DUP2 SWAP1 POP SWAP2 SWAP1 POP JUMP JUMPDEST PUSH2 0x696 PUSH2 0x691 DUP3 PUSH2 0x475 JUMP JUMPDEST PUSH2 0x67C JUMP JUMPDEST DUP3 MSTORE POP POP JUMP JUMPDEST PUSH0 PUSH32 0xFFFFFFFF00000000000000000000000000000000000000000000000000000000 DUP3 AND SWAP1 POP SWAP2 SWAP1 POP JUMP JUMPDEST PUSH0 DUP2 SWAP1 POP SWAP2 SWAP1 POP JUMP JUMPDEST PUSH2 0x6E1 PUSH2 0x6DC DUP3 PUSH2 0x69C JUMP JUMPDEST PUSH2 0x6C7 JUMP JUMPDEST DUP3 MSTORE POP POP JUMP JUMPDEST PUSH0 PUSH2 0x6F2 DUP3 DUP9 PUSH2 0x665 JUMP JUMPDEST PUSH1 0x14 DUP3 ADD SWAP2 POP PUSH2 0x702 DUP3 DUP8 PUSH2 0x685 JUMP JUMPDEST PUSH1 0x20 DUP3 ADD SWAP2 POP PUSH2 0x712 DUP3 DUP7 PUSH2 0x665 JUMP JUMPDEST PUSH1 0x14 DUP3 ADD SWAP2 POP PUSH2 0x722 DUP3 DUP6 PUSH2 0x665 JUMP JUMPDEST PUSH1 0x14 DUP3 ADD SWAP2 POP PUSH2 0x732 DUP3 DUP5 PUSH2 0x6D0 JUMP JUMPDEST PUSH1 0x4 DUP3 ADD SWAP2 POP DUP2 SWAP1 POP SWAP7 SWAP6 POP POP POP POP POP POP JUMP JUMPDEST PUSH0 DUP3 DUP3 MSTORE PUSH1 0x20 DUP3 ADD SWAP1 POP SWAP3 SWAP2 POP POP JUMP JUMPDEST PUSH32 0x43616C6C6572206973206E6F7420746865204169726E6F646520525250000000 PUSH0 DUP3 ADD MSTORE POP JUMP JUMPDEST PUSH0 PUSH2 0x789 PUSH1 0x1D DUP4 PUSH2 0x745 JUMP JUMPDEST SWAP2 POP PUSH2 0x794 DUP3 PUSH2 0x755 JUMP JUMPDEST PUSH1 0x20 DUP3 ADD SWAP1 POP SWAP2 SWAP1 POP JUMP JUMPDEST PUSH0 PUSH1 0x20 DUP3 ADD SWAP1 POP DUP2 DUP2 SUB PUSH0 DUP4 ADD MSTORE PUSH2 0x7B6 DUP2 PUSH2 0x77D JUMP JUMPDEST SWAP1 POP SWAP2 SWAP1 POP JUMP JUMPDEST PUSH2 0x7C6 DUP2 PUSH2 0x606 JUMP JUMPDEST DUP2 EQ PUSH2 0x7D0 JUMPI PUSH0 DUP1 REVERT JUMPDEST POP JUMP JUMPDEST PUSH0 DUP2 CALLDATALOAD SWAP1 POP PUSH2 0x7E1 DUP2 PUSH2 0x7BD JUMP JUMPDEST SWAP3 SWAP2 POP POP JUMP JUMPDEST PUSH0 PUSH1 0x20 DUP3 DUP5 SUB SLT ISZERO PUSH2 0x7FC JUMPI PUSH2 0x7FB PUSH2 0x413 JUMP JUMPDEST JUMPDEST PUSH0 PUSH2 0x809 DUP5 DUP3 DUP6 ADD PUSH2 0x7D3 JUMP JUMPDEST SWAP2 POP POP SWAP3 SWAP2 POP POP JUMP INVALID LOG2 PUSH5 0x6970667358 0x22 SLT KECCAK256 0xB0 0xC9 POP CALLCODE 0xB5 0xEB SWAP14 0xEE PUSH10 0xC85C40FEC13FE7D83C29 0x2D CODESIZE SWAP15 0xD8 KECCAK256 0x4F 0x2C 0xBE 0xE8 PUSH6 0xC2589664736F PUSH13 0x63430008140033000000000000 "
				},
				"gasEstimates": {
					"creation": {
						"codeDepositCost": "424000",
						"executionCost": "infinite",
						"totalCost": "infinite"
					},
					"external": {
						"airnode()": "2549",
						"airnodeRrp()": "2553",
						"endpointId()": "2425",
						"fulfill(bytes32,bytes)": "25190",
						"latestPrice()": "2491",
						"requestPrice()": "infinite",
						"setAirnodeDetails(address,bytes32,address)": "infinite",
						"sponsor()": "2575",
						"sponsorWallet()": "2596"
					}
				},
				"methodIdentifiers": {
					"airnode()": "a36ff4d8",
					"airnodeRrp()": "71bab666",
					"endpointId()": "77e20df8",
					"fulfill(bytes32,bytes)": "7c1de7e1",
					"latestPrice()": "a3e6ba94",
					"requestPrice()": "1604f9ea",
					"setAirnodeDetails(address,bytes32,address)": "4daff67e",
					"sponsor()": "77c93662",
					"sponsorWallet()": "bf90fb4e"
				}
			},
			"storageLayout": {
				"storage": [
					{
						"astId": 3,
						"contract": "contracts/api3/PriceConsumer.sol:Api3PriceConsumer",
						"label": "airnode",
						"offset": 0,
						"slot": "0",
						"type": "t_address"
					},
					{
						"astId": 5,
						"contract": "contracts/api3/PriceConsumer.sol:Api3PriceConsumer",
						"label": "endpointId",
						"offset": 0,
						"slot": "1",
						"type": "t_bytes32"
					},
					{
						"astId": 7,
						"contract": "contracts/api3/PriceConsumer.sol:Api3PriceConsumer",
						"label": "sponsor",
						"offset": 0,
						"slot": "2",
						"type": "t_address"
					},
					{
						"astId": 9,
						"contract": "contracts/api3/PriceConsumer.sol:Api3PriceConsumer",
						"label": "sponsorWallet",
						"offset": 0,
						"slot": "3",
						"type": "t_address"
					},
					{
						"astId": 11,
						"contract": "contracts/api3/PriceConsumer.sol:Api3PriceConsumer",
						"label": "airnodeRrp",
						"offset": 0,
						"slot": "4",
						"type": "t_address"
					},
					{
						"astId": 13,
						"contract": "contracts/api3/PriceConsumer.sol:Api3PriceConsumer",
						"label": "latestPrice",
						"offset": 0,
						"slot": "5",
						"type": "t_int256"
					}
				],
				"types": {
					"t_address": {
						"encoding": "inplace",
						"label": "address",
						"numberOfBytes": "20"
					},
					"t_bytes32": {
						"encoding": "inplace",
						"label": "bytes32",
						"numberOfBytes": "32"
					},
					"t_int256": {
						"encoding": "inplace",
						"label": "int256",
						"numberOfBytes": "32"
					}
				}
			},
			"userdoc": {
				"kind": "user",
				"methods": {},
				"version": 1
			}
		}
	}
}