{
	"contracts/multiple_asset_fetch_sepolia/multiple_asset_fetch_sm.sol": {
		"PriceAlertSystem": {
			"abi": [
				{
					"anonymous": false,
					"inputs": [
						{
							"indexed": false,
							"internalType": "string",
							"name": "asset",
							"type": "string"
						},
						{
							"indexed": false,
							"internalType": "int256",
							"name": "price",
							"type": "int256"
						},
						{
							"indexed": false,
							"internalType": "uint256",
							"name": "timestamp",
							"type": "uint256"
						}
					],
					"name": "ThresholdReached",
					"type": "event"
				},
				{
					"inputs": [
						{
							"internalType": "string",
							"name": "name",
							"type": "string"
						},
						{
							"internalType": "address",
							"name": "priceFeed",
							"type": "address"
						},
						{
							"internalType": "int256",
							"name": "priceThreshold",
							"type": "int256"
						}
					],
					"name": "addAsset",
					"outputs": [],
					"stateMutability": "nonpayable",
					"type": "function"
				},
				{
					"inputs": [
						{
							"internalType": "string",
							"name": "",
							"type": "string"
						}
					],
					"name": "assets",
					"outputs": [
						{
							"internalType": "address",
							"name": "priceFeed",
							"type": "address"
						},
						{
							"internalType": "int256",
							"name": "priceThreshold",
							"type": "int256"
						},
						{
							"internalType": "bool",
							"name": "thresholdReached",
							"type": "bool"
						}
					],
					"stateMutability": "view",
					"type": "function"
				},
				{
					"inputs": [
						{
							"internalType": "string",
							"name": "name",
							"type": "string"
						}
					],
					"name": "checkPrice",
					"outputs": [],
					"stateMutability": "nonpayable",
					"type": "function"
				},
				{
					"inputs": [
						{
							"internalType": "string",
							"name": "name",
							"type": "string"
						}
					],
					"name": "getLatestPrice",
					"outputs": [
						{
							"internalType": "int256",
							"name": "",
							"type": "int256"
						}
					],
					"stateMutability": "view",
					"type": "function"
				}
			],
			"devdoc": {
				"kind": "dev",
				"methods": {},
				"version": 1
			},
			"evm": {
				"assembly": "    /* \"contracts/multiple_asset_fetch_sepolia/multiple_asset_fetch_sm.sol\":135:1763  contract PriceAlertSystem {... */\n  mstore(0x40, 0x80)\n  callvalue\n  dup1\n  iszero\n  tag_1\n  jumpi\n  0x00\n  dup1\n  revert\ntag_1:\n  pop\n  dataSize(sub_0)\n  dup1\n  dataOffset(sub_0)\n  0x00\n  codecopy\n  0x00\n  return\nstop\n\nsub_0: assembly {\n        /* \"contracts/multiple_asset_fetch_sepolia/multiple_asset_fetch_sm.sol\":135:1763  contract PriceAlertSystem {... */\n      mstore(0x40, 0x80)\n      callvalue\n      dup1\n      iszero\n      tag_1\n      jumpi\n      0x00\n      dup1\n      revert\n    tag_1:\n      pop\n      jumpi(tag_2, lt(calldatasize, 0x04))\n      shr(0xe0, calldataload(0x00))\n      dup1\n      0x85936228\n      eq\n      tag_3\n      jumpi\n      dup1\n      0xabc4544e\n      eq\n      tag_4\n      jumpi\n      dup1\n      0xcee8ba47\n      eq\n      tag_5\n      jumpi\n      dup1\n      0xf66a1b71\n      eq\n      tag_6\n      jumpi\n    tag_2:\n      0x00\n      dup1\n      revert\n        /* \"contracts/multiple_asset_fetch_sepolia/multiple_asset_fetch_sm.sol\":282:320  mapping(string => Asset) public assets */\n    tag_3:\n      tag_7\n      0x04\n      dup1\n      calldatasize\n      sub\n      dup2\n      add\n      swap1\n      tag_8\n      swap2\n      swap1\n      tag_9\n      jump\t// in\n    tag_8:\n      tag_10\n      jump\t// in\n    tag_7:\n      mload(0x40)\n      tag_11\n      swap4\n      swap3\n      swap2\n      swap1\n      tag_12\n      jump\t// in\n    tag_11:\n      mload(0x40)\n      dup1\n      swap2\n      sub\n      swap1\n      return\n        /* \"contracts/multiple_asset_fetch_sepolia/multiple_asset_fetch_sm.sol\":833:1343  function checkPrice(string memory name) public {... */\n    tag_4:\n      tag_13\n      0x04\n      dup1\n      calldatasize\n      sub\n      dup2\n      add\n      swap1\n      tag_14\n      swap2\n      swap1\n      tag_9\n      jump\t// in\n    tag_14:\n      tag_15\n      jump\t// in\n    tag_13:\n      stop\n        /* \"contracts/multiple_asset_fetch_sepolia/multiple_asset_fetch_sm.sol\":460:770  function addAsset(string memory name, address priceFeed, int256 priceThreshold) public {... */\n    tag_5:\n      tag_16\n      0x04\n      dup1\n      calldatasize\n      sub\n      dup2\n      add\n      swap1\n      tag_17\n      swap2\n      swap1\n      tag_18\n      jump\t// in\n    tag_17:\n      tag_19\n      jump\t// in\n    tag_16:\n      stop\n        /* \"contracts/multiple_asset_fetch_sepolia/multiple_asset_fetch_sm.sol\":1406:1761  function getLatestPrice(string memory name) public view returns (int256) {... */\n    tag_6:\n      tag_20\n      0x04\n      dup1\n      calldatasize\n      sub\n      dup2\n      add\n      swap1\n      tag_21\n      swap2\n      swap1\n      tag_9\n      jump\t// in\n    tag_21:\n      tag_22\n      jump\t// in\n    tag_20:\n      mload(0x40)\n      tag_23\n      swap2\n      swap1\n      tag_24\n      jump\t// in\n    tag_23:\n      mload(0x40)\n      dup1\n      swap2\n      sub\n      swap1\n      return\n        /* \"contracts/multiple_asset_fetch_sepolia/multiple_asset_fetch_sm.sol\":282:320  mapping(string => Asset) public assets */\n    tag_10:\n      0x00\n      dup2\n      dup1\n      mload\n      0x20\n      dup2\n      add\n      dup3\n      add\n      dup1\n      mload\n      dup5\n      dup3\n      mstore\n      0x20\n      dup4\n      add\n      0x20\n      dup6\n      add\n      keccak256\n      dup2\n      dup4\n      mstore\n      dup1\n      swap6\n      pop\n      pop\n      pop\n      pop\n      pop\n      pop\n      0x00\n      swap2\n      pop\n      swap1\n      pop\n      dup1\n      0x00\n      add\n      0x00\n      swap1\n      sload\n      swap1\n      0x0100\n      exp\n      swap1\n      div\n      0xffffffffffffffffffffffffffffffffffffffff\n      and\n      swap1\n      dup1\n      0x01\n      add\n      sload\n      swap1\n      dup1\n      0x02\n      add\n      0x00\n      swap1\n      sload\n      swap1\n      0x0100\n      exp\n      swap1\n      div\n      0xff\n      and\n      swap1\n      pop\n      dup4\n      jump\t// out\n        /* \"contracts/multiple_asset_fetch_sepolia/multiple_asset_fetch_sm.sol\":833:1343  function checkPrice(string memory name) public {... */\n    tag_15:\n        /* \"contracts/multiple_asset_fetch_sepolia/multiple_asset_fetch_sm.sol\":890:909  Asset storage asset */\n      0x00\n        /* \"contracts/multiple_asset_fetch_sepolia/multiple_asset_fetch_sm.sol\":912:918  assets */\n      dup1\n        /* \"contracts/multiple_asset_fetch_sepolia/multiple_asset_fetch_sm.sol\":919:923  name */\n      dup3\n        /* \"contracts/multiple_asset_fetch_sepolia/multiple_asset_fetch_sm.sol\":912:924  assets[name] */\n      mload(0x40)\n      tag_26\n      swap2\n      swap1\n      tag_27\n      jump\t// in\n    tag_26:\n      swap1\n      dup2\n      mstore\n      0x20\n      add\n      mload(0x40)\n      dup1\n      swap2\n      sub\n      swap1\n      keccak256\n        /* \"contracts/multiple_asset_fetch_sepolia/multiple_asset_fetch_sm.sol\":890:924  Asset storage asset = assets[name] */\n      swap1\n      pop\n        /* \"contracts/multiple_asset_fetch_sepolia/multiple_asset_fetch_sm.sol\":969:970  0 */\n      0x00\n        /* \"contracts/multiple_asset_fetch_sepolia/multiple_asset_fetch_sm.sol\":942:971  asset.priceFeed != address(0) */\n      0xffffffffffffffffffffffffffffffffffffffff\n      and\n        /* \"contracts/multiple_asset_fetch_sepolia/multiple_asset_fetch_sm.sol\":942:947  asset */\n      dup2\n        /* \"contracts/multiple_asset_fetch_sepolia/multiple_asset_fetch_sm.sol\":942:957  asset.priceFeed */\n      0x00\n      add\n      0x00\n      swap1\n      sload\n      swap1\n      0x0100\n      exp\n      swap1\n      div\n      0xffffffffffffffffffffffffffffffffffffffff\n      and\n        /* \"contracts/multiple_asset_fetch_sepolia/multiple_asset_fetch_sm.sol\":942:971  asset.priceFeed != address(0) */\n      0xffffffffffffffffffffffffffffffffffffffff\n      and\n      sub\n        /* \"contracts/multiple_asset_fetch_sepolia/multiple_asset_fetch_sm.sol\":934:991  require(asset.priceFeed != address(0), \"Asset not found\") */\n      tag_28\n      jumpi\n      mload(0x40)\n      0x08c379a000000000000000000000000000000000000000000000000000000000\n      dup2\n      mstore\n      0x04\n      add\n      tag_29\n      swap1\n      tag_30\n      jump\t// in\n    tag_29:\n      mload(0x40)\n      dup1\n      swap2\n      sub\n      swap1\n      revert\n    tag_28:\n        /* \"contracts/multiple_asset_fetch_sepolia/multiple_asset_fetch_sm.sol\":1002:1033  AggregatorV3Interface priceFeed */\n      0x00\n        /* \"contracts/multiple_asset_fetch_sepolia/multiple_asset_fetch_sm.sol\":1058:1063  asset */\n      dup2\n        /* \"contracts/multiple_asset_fetch_sepolia/multiple_asset_fetch_sm.sol\":1058:1073  asset.priceFeed */\n      0x00\n      add\n      0x00\n      swap1\n      sload\n      swap1\n      0x0100\n      exp\n      swap1\n      div\n      0xffffffffffffffffffffffffffffffffffffffff\n      and\n        /* \"contracts/multiple_asset_fetch_sepolia/multiple_asset_fetch_sm.sol\":1002:1074  AggregatorV3Interface priceFeed = AggregatorV3Interface(asset.priceFeed) */\n      swap1\n      pop\n        /* \"contracts/multiple_asset_fetch_sepolia/multiple_asset_fetch_sm.sol\":1087:1099  int256 price */\n      0x00\n        /* \"contracts/multiple_asset_fetch_sepolia/multiple_asset_fetch_sm.sol\":1102:1119  uint256 updatedAt */\n      dup1\n        /* \"contracts/multiple_asset_fetch_sepolia/multiple_asset_fetch_sm.sol\":1124:1133  priceFeed */\n      dup3\n        /* \"contracts/multiple_asset_fetch_sepolia/multiple_asset_fetch_sm.sol\":1124:1149  priceFeed.latestRoundData */\n      0xffffffffffffffffffffffffffffffffffffffff\n      and\n      0xfeaf968c\n        /* \"contracts/multiple_asset_fetch_sepolia/multiple_asset_fetch_sm.sol\":1124:1151  priceFeed.latestRoundData() */\n      mload(0x40)\n      dup2\n      0xffffffff\n      and\n      0xe0\n      shl\n      dup2\n      mstore\n      0x04\n      add\n      0xa0\n      mload(0x40)\n      dup1\n      dup4\n      sub\n      dup2\n      dup7\n      gas\n      staticcall\n      iszero\n      dup1\n      iszero\n      tag_32\n      jumpi\n      returndatasize\n      0x00\n      dup1\n      returndatacopy\n      revert(0x00, returndatasize)\n    tag_32:\n      pop\n      pop\n      pop\n      pop\n      mload(0x40)\n      returndatasize\n      not(0x1f)\n      0x1f\n      dup3\n      add\n      and\n      dup3\n      add\n      dup1\n      0x40\n      mstore\n      pop\n      dup2\n      add\n      swap1\n      tag_33\n      swap2\n      swap1\n      tag_34\n      jump\t// in\n    tag_33:\n        /* \"contracts/multiple_asset_fetch_sepolia/multiple_asset_fetch_sm.sol\":1084:1151  (, int256 price,, uint256 updatedAt,) = priceFeed.latestRoundData() */\n      pop\n      swap4\n      pop\n      pop\n      swap3\n      pop\n      pop\n        /* \"contracts/multiple_asset_fetch_sepolia/multiple_asset_fetch_sm.sol\":1167:1172  asset */\n      dup4\n        /* \"contracts/multiple_asset_fetch_sepolia/multiple_asset_fetch_sm.sol\":1167:1189  asset.thresholdReached */\n      0x02\n      add\n      0x00\n      swap1\n      sload\n      swap1\n      0x0100\n      exp\n      swap1\n      div\n      0xff\n      and\n        /* \"contracts/multiple_asset_fetch_sepolia/multiple_asset_fetch_sm.sol\":1166:1189  !asset.thresholdReached */\n      iszero\n        /* \"contracts/multiple_asset_fetch_sepolia/multiple_asset_fetch_sm.sol\":1166:1222  !asset.thresholdReached && price >= asset.priceThreshold */\n      dup1\n      iszero\n      tag_35\n      jumpi\n      pop\n        /* \"contracts/multiple_asset_fetch_sepolia/multiple_asset_fetch_sm.sol\":1202:1207  asset */\n      dup4\n        /* \"contracts/multiple_asset_fetch_sepolia/multiple_asset_fetch_sm.sol\":1202:1222  asset.priceThreshold */\n      0x01\n      add\n      sload\n        /* \"contracts/multiple_asset_fetch_sepolia/multiple_asset_fetch_sm.sol\":1193:1198  price */\n      dup3\n        /* \"contracts/multiple_asset_fetch_sepolia/multiple_asset_fetch_sm.sol\":1193:1222  price >= asset.priceThreshold */\n      slt\n      iszero\n        /* \"contracts/multiple_asset_fetch_sepolia/multiple_asset_fetch_sm.sol\":1166:1222  !asset.thresholdReached && price >= asset.priceThreshold */\n    tag_35:\n        /* \"contracts/multiple_asset_fetch_sepolia/multiple_asset_fetch_sm.sol\":1162:1337  if (!asset.thresholdReached && price >= asset.priceThreshold) {... */\n      iszero\n      tag_36\n      jumpi\n        /* \"contracts/multiple_asset_fetch_sepolia/multiple_asset_fetch_sm.sol\":1263:1267  true */\n      0x01\n        /* \"contracts/multiple_asset_fetch_sepolia/multiple_asset_fetch_sm.sol\":1238:1243  asset */\n      dup5\n        /* \"contracts/multiple_asset_fetch_sepolia/multiple_asset_fetch_sm.sol\":1238:1260  asset.thresholdReached */\n      0x02\n      add\n      0x00\n        /* \"contracts/multiple_asset_fetch_sepolia/multiple_asset_fetch_sm.sol\":1238:1267  asset.thresholdReached = true */\n      0x0100\n      exp\n      dup2\n      sload\n      dup2\n      0xff\n      mul\n      not\n      and\n      swap1\n      dup4\n      iszero\n      iszero\n      mul\n      or\n      swap1\n      sstore\n      pop\n        /* \"contracts/multiple_asset_fetch_sepolia/multiple_asset_fetch_sm.sol\":1286:1326  ThresholdReached(name, price, updatedAt) */\n      0xc4d07dac08b92039a7fae337838fc362d5d62827c43a5ed8b66c8aa7f01b940b\n        /* \"contracts/multiple_asset_fetch_sepolia/multiple_asset_fetch_sm.sol\":1303:1307  name */\n      dup6\n        /* \"contracts/multiple_asset_fetch_sepolia/multiple_asset_fetch_sm.sol\":1309:1314  price */\n      dup4\n        /* \"contracts/multiple_asset_fetch_sepolia/multiple_asset_fetch_sm.sol\":1316:1325  updatedAt */\n      dup4\n        /* \"contracts/multiple_asset_fetch_sepolia/multiple_asset_fetch_sm.sol\":1286:1326  ThresholdReached(name, price, updatedAt) */\n      mload(0x40)\n      tag_37\n      swap4\n      swap3\n      swap2\n      swap1\n      tag_38\n      jump\t// in\n    tag_37:\n      mload(0x40)\n      dup1\n      swap2\n      sub\n      swap1\n      log1\n        /* \"contracts/multiple_asset_fetch_sepolia/multiple_asset_fetch_sm.sol\":1162:1337  if (!asset.thresholdReached && price >= asset.priceThreshold) {... */\n    tag_36:\n        /* \"contracts/multiple_asset_fetch_sepolia/multiple_asset_fetch_sm.sol\":880:1343  {... */\n      pop\n      pop\n      pop\n      pop\n        /* \"contracts/multiple_asset_fetch_sepolia/multiple_asset_fetch_sm.sol\":833:1343  function checkPrice(string memory name) public {... */\n      pop\n      jump\t// out\n        /* \"contracts/multiple_asset_fetch_sepolia/multiple_asset_fetch_sm.sol\":460:770  function addAsset(string memory name, address priceFeed, int256 priceThreshold) public {... */\n    tag_19:\n        /* \"contracts/multiple_asset_fetch_sepolia/multiple_asset_fetch_sm.sol\":586:587  0 */\n      0x00\n        /* \"contracts/multiple_asset_fetch_sepolia/multiple_asset_fetch_sm.sol\":565:588  priceFeed != address(0) */\n      0xffffffffffffffffffffffffffffffffffffffff\n      and\n        /* \"contracts/multiple_asset_fetch_sepolia/multiple_asset_fetch_sm.sol\":565:574  priceFeed */\n      dup3\n        /* \"contracts/multiple_asset_fetch_sepolia/multiple_asset_fetch_sm.sol\":565:588  priceFeed != address(0) */\n      0xffffffffffffffffffffffffffffffffffffffff\n      and\n      sub\n        /* \"contracts/multiple_asset_fetch_sepolia/multiple_asset_fetch_sm.sol\":557:619  require(priceFeed != address(0), \"Invalid price feed address\") */\n      tag_40\n      jumpi\n      mload(0x40)\n      0x08c379a000000000000000000000000000000000000000000000000000000000\n      dup2\n      mstore\n      0x04\n      add\n      tag_41\n      swap1\n      tag_42\n      jump\t// in\n    tag_41:\n      mload(0x40)\n      dup1\n      swap2\n      sub\n      swap1\n      revert\n    tag_40:\n        /* \"contracts/multiple_asset_fetch_sepolia/multiple_asset_fetch_sm.sol\":671:672  0 */\n      0x00\n        /* \"contracts/multiple_asset_fetch_sepolia/multiple_asset_fetch_sm.sol\":637:673  assets[name].priceFeed == address(0) */\n      0xffffffffffffffffffffffffffffffffffffffff\n      and\n        /* \"contracts/multiple_asset_fetch_sepolia/multiple_asset_fetch_sm.sol\":637:643  assets */\n      0x00\n        /* \"contracts/multiple_asset_fetch_sepolia/multiple_asset_fetch_sm.sol\":644:648  name */\n      dup5\n        /* \"contracts/multiple_asset_fetch_sepolia/multiple_asset_fetch_sm.sol\":637:649  assets[name] */\n      mload(0x40)\n      tag_43\n      swap2\n      swap1\n      tag_27\n      jump\t// in\n    tag_43:\n      swap1\n      dup2\n      mstore\n      0x20\n      add\n      mload(0x40)\n      dup1\n      swap2\n      sub\n      swap1\n      keccak256\n        /* \"contracts/multiple_asset_fetch_sepolia/multiple_asset_fetch_sm.sol\":637:659  assets[name].priceFeed */\n      0x00\n      add\n      0x00\n      swap1\n      sload\n      swap1\n      0x0100\n      exp\n      swap1\n      div\n      0xffffffffffffffffffffffffffffffffffffffff\n      and\n        /* \"contracts/multiple_asset_fetch_sepolia/multiple_asset_fetch_sm.sol\":637:673  assets[name].priceFeed == address(0) */\n      0xffffffffffffffffffffffffffffffffffffffff\n      and\n      eq\n        /* \"contracts/multiple_asset_fetch_sepolia/multiple_asset_fetch_sm.sol\":629:698  require(assets[name].priceFeed == address(0), \"Asset already exists\") */\n      tag_44\n      jumpi\n      mload(0x40)\n      0x08c379a000000000000000000000000000000000000000000000000000000000\n      dup2\n      mstore\n      0x04\n      add\n      tag_45\n      swap1\n      tag_46\n      jump\t// in\n    tag_45:\n      mload(0x40)\n      dup1\n      swap2\n      sub\n      swap1\n      revert\n    tag_44:\n        /* \"contracts/multiple_asset_fetch_sepolia/multiple_asset_fetch_sm.sol\":724:763  Asset(priceFeed, priceThreshold, false) */\n      mload(0x40)\n      dup1\n      0x60\n      add\n      0x40\n      mstore\n      dup1\n        /* \"contracts/multiple_asset_fetch_sepolia/multiple_asset_fetch_sm.sol\":730:739  priceFeed */\n      dup4\n        /* \"contracts/multiple_asset_fetch_sepolia/multiple_asset_fetch_sm.sol\":724:763  Asset(priceFeed, priceThreshold, false) */\n      0xffffffffffffffffffffffffffffffffffffffff\n      and\n      dup2\n      mstore\n      0x20\n      add\n        /* \"contracts/multiple_asset_fetch_sepolia/multiple_asset_fetch_sm.sol\":741:755  priceThreshold */\n      dup3\n        /* \"contracts/multiple_asset_fetch_sepolia/multiple_asset_fetch_sm.sol\":724:763  Asset(priceFeed, priceThreshold, false) */\n      dup2\n      mstore\n      0x20\n      add\n        /* \"contracts/multiple_asset_fetch_sepolia/multiple_asset_fetch_sm.sol\":757:762  false */\n      0x00\n        /* \"contracts/multiple_asset_fetch_sepolia/multiple_asset_fetch_sm.sol\":724:763  Asset(priceFeed, priceThreshold, false) */\n      iszero\n      iszero\n      dup2\n      mstore\n      pop\n        /* \"contracts/multiple_asset_fetch_sepolia/multiple_asset_fetch_sm.sol\":709:715  assets */\n      0x00\n        /* \"contracts/multiple_asset_fetch_sepolia/multiple_asset_fetch_sm.sol\":716:720  name */\n      dup5\n        /* \"contracts/multiple_asset_fetch_sepolia/multiple_asset_fetch_sm.sol\":709:721  assets[name] */\n      mload(0x40)\n      tag_47\n      swap2\n      swap1\n      tag_27\n      jump\t// in\n    tag_47:\n      swap1\n      dup2\n      mstore\n      0x20\n      add\n      mload(0x40)\n      dup1\n      swap2\n      sub\n      swap1\n      keccak256\n        /* \"contracts/multiple_asset_fetch_sepolia/multiple_asset_fetch_sm.sol\":709:763  assets[name] = Asset(priceFeed, priceThreshold, false) */\n      0x00\n      dup3\n      add\n      mload\n      dup2\n      0x00\n      add\n      exp(0x0100, 0x00)\n      dup2\n      sload\n      dup2\n      0xffffffffffffffffffffffffffffffffffffffff\n      mul\n      not\n      and\n      swap1\n      dup4\n      0xffffffffffffffffffffffffffffffffffffffff\n      and\n      mul\n      or\n      swap1\n      sstore\n      pop\n      0x20\n      dup3\n      add\n      mload\n      dup2\n      0x01\n      add\n      sstore\n      0x40\n      dup3\n      add\n      mload\n      dup2\n      0x02\n      add\n      exp(0x0100, 0x00)\n      dup2\n      sload\n      dup2\n      0xff\n      mul\n      not\n      and\n      swap1\n      dup4\n      iszero\n      iszero\n      mul\n      or\n      swap1\n      sstore\n      pop\n      swap1\n      pop\n      pop\n        /* \"contracts/multiple_asset_fetch_sepolia/multiple_asset_fetch_sm.sol\":460:770  function addAsset(string memory name, address priceFeed, int256 priceThreshold) public {... */\n      pop\n      pop\n      pop\n      jump\t// out\n        /* \"contracts/multiple_asset_fetch_sepolia/multiple_asset_fetch_sm.sol\":1406:1761  function getLatestPrice(string memory name) public view returns (int256) {... */\n    tag_22:\n        /* \"contracts/multiple_asset_fetch_sepolia/multiple_asset_fetch_sm.sol\":1471:1477  int256 */\n      0x00\n        /* \"contracts/multiple_asset_fetch_sepolia/multiple_asset_fetch_sm.sol\":1489:1508  Asset storage asset */\n      dup1\n        /* \"contracts/multiple_asset_fetch_sepolia/multiple_asset_fetch_sm.sol\":1511:1517  assets */\n      0x00\n        /* \"contracts/multiple_asset_fetch_sepolia/multiple_asset_fetch_sm.sol\":1518:1522  name */\n      dup4\n        /* \"contracts/multiple_asset_fetch_sepolia/multiple_asset_fetch_sm.sol\":1511:1523  assets[name] */\n      mload(0x40)\n      tag_49\n      swap2\n      swap1\n      tag_27\n      jump\t// in\n    tag_49:\n      swap1\n      dup2\n      mstore\n      0x20\n      add\n      mload(0x40)\n      dup1\n      swap2\n      sub\n      swap1\n      keccak256\n        /* \"contracts/multiple_asset_fetch_sepolia/multiple_asset_fetch_sm.sol\":1489:1523  Asset storage asset = assets[name] */\n      swap1\n      pop\n        /* \"contracts/multiple_asset_fetch_sepolia/multiple_asset_fetch_sm.sol\":1568:1569  0 */\n      0x00\n        /* \"contracts/multiple_asset_fetch_sepolia/multiple_asset_fetch_sm.sol\":1541:1570  asset.priceFeed != address(0) */\n      0xffffffffffffffffffffffffffffffffffffffff\n      and\n        /* \"contracts/multiple_asset_fetch_sepolia/multiple_asset_fetch_sm.sol\":1541:1546  asset */\n      dup2\n        /* \"contracts/multiple_asset_fetch_sepolia/multiple_asset_fetch_sm.sol\":1541:1556  asset.priceFeed */\n      0x00\n      add\n      0x00\n      swap1\n      sload\n      swap1\n      0x0100\n      exp\n      swap1\n      div\n      0xffffffffffffffffffffffffffffffffffffffff\n      and\n        /* \"contracts/multiple_asset_fetch_sepolia/multiple_asset_fetch_sm.sol\":1541:1570  asset.priceFeed != address(0) */\n      0xffffffffffffffffffffffffffffffffffffffff\n      and\n      sub\n        /* \"contracts/multiple_asset_fetch_sepolia/multiple_asset_fetch_sm.sol\":1533:1590  require(asset.priceFeed != address(0), \"Asset not found\") */\n      tag_50\n      jumpi\n      mload(0x40)\n      0x08c379a000000000000000000000000000000000000000000000000000000000\n      dup2\n      mstore\n      0x04\n      add\n      tag_51\n      swap1\n      tag_30\n      jump\t// in\n    tag_51:\n      mload(0x40)\n      dup1\n      swap2\n      sub\n      swap1\n      revert\n    tag_50:\n        /* \"contracts/multiple_asset_fetch_sepolia/multiple_asset_fetch_sm.sol\":1601:1632  AggregatorV3Interface priceFeed */\n      0x00\n        /* \"contracts/multiple_asset_fetch_sepolia/multiple_asset_fetch_sm.sol\":1657:1662  asset */\n      dup2\n        /* \"contracts/multiple_asset_fetch_sepolia/multiple_asset_fetch_sm.sol\":1657:1672  asset.priceFeed */\n      0x00\n      add\n      0x00\n      swap1\n      sload\n      swap1\n      0x0100\n      exp\n      swap1\n      div\n      0xffffffffffffffffffffffffffffffffffffffff\n      and\n        /* \"contracts/multiple_asset_fetch_sepolia/multiple_asset_fetch_sm.sol\":1601:1673  AggregatorV3Interface priceFeed = AggregatorV3Interface(asset.priceFeed) */\n      swap1\n      pop\n        /* \"contracts/multiple_asset_fetch_sepolia/multiple_asset_fetch_sm.sol\":1686:1698  int256 price */\n      0x00\n        /* \"contracts/multiple_asset_fetch_sepolia/multiple_asset_fetch_sm.sol\":1705:1714  priceFeed */\n      dup2\n        /* \"contracts/multiple_asset_fetch_sepolia/multiple_asset_fetch_sm.sol\":1705:1730  priceFeed.latestRoundData */\n      0xffffffffffffffffffffffffffffffffffffffff\n      and\n      0xfeaf968c\n        /* \"contracts/multiple_asset_fetch_sepolia/multiple_asset_fetch_sm.sol\":1705:1732  priceFeed.latestRoundData() */\n      mload(0x40)\n      dup2\n      0xffffffff\n      and\n      0xe0\n      shl\n      dup2\n      mstore\n      0x04\n      add\n      0xa0\n      mload(0x40)\n      dup1\n      dup4\n      sub\n      dup2\n      dup7\n      gas\n      staticcall\n      iszero\n      dup1\n      iszero\n      tag_53\n      jumpi\n      returndatasize\n      0x00\n      dup1\n      returndatacopy\n      revert(0x00, returndatasize)\n    tag_53:\n      pop\n      pop\n      pop\n      pop\n      mload(0x40)\n      returndatasize\n      not(0x1f)\n      0x1f\n      dup3\n      add\n      and\n      dup3\n      add\n      dup1\n      0x40\n      mstore\n      pop\n      dup2\n      add\n      swap1\n      tag_54\n      swap2\n      swap1\n      tag_34\n      jump\t// in\n    tag_54:\n        /* \"contracts/multiple_asset_fetch_sepolia/multiple_asset_fetch_sm.sol\":1683:1732  (, int256 price,,,) = priceFeed.latestRoundData() */\n      pop\n      pop\n      pop\n      swap2\n      pop\n      pop\n        /* \"contracts/multiple_asset_fetch_sepolia/multiple_asset_fetch_sm.sol\":1749:1754  price */\n      dup1\n        /* \"contracts/multiple_asset_fetch_sepolia/multiple_asset_fetch_sm.sol\":1742:1754  return price */\n      swap4\n      pop\n      pop\n      pop\n      pop\n        /* \"contracts/multiple_asset_fetch_sepolia/multiple_asset_fetch_sm.sol\":1406:1761  function getLatestPrice(string memory name) public view returns (int256) {... */\n      swap2\n      swap1\n      pop\n      jump\t// out\n        /* \"#utility.yul\":7:82   */\n    tag_55:\n        /* \"#utility.yul\":40:46   */\n      0x00\n        /* \"#utility.yul\":73:75   */\n      0x40\n        /* \"#utility.yul\":67:76   */\n      mload\n        /* \"#utility.yul\":57:76   */\n      swap1\n      pop\n        /* \"#utility.yul\":7:82   */\n      swap1\n      jump\t// out\n        /* \"#utility.yul\":88:205   */\n    tag_56:\n        /* \"#utility.yul\":197:198   */\n      0x00\n        /* \"#utility.yul\":194:195   */\n      dup1\n        /* \"#utility.yul\":187:199   */\n      revert\n        /* \"#utility.yul\":211:328   */\n    tag_57:\n        /* \"#utility.yul\":320:321   */\n      0x00\n        /* \"#utility.yul\":317:318   */\n      dup1\n        /* \"#utility.yul\":310:322   */\n      revert\n        /* \"#utility.yul\":334:451   */\n    tag_58:\n        /* \"#utility.yul\":443:444   */\n      0x00\n        /* \"#utility.yul\":440:441   */\n      dup1\n        /* \"#utility.yul\":433:445   */\n      revert\n        /* \"#utility.yul\":457:574   */\n    tag_59:\n        /* \"#utility.yul\":566:567   */\n      0x00\n        /* \"#utility.yul\":563:564   */\n      dup1\n        /* \"#utility.yul\":556:568   */\n      revert\n        /* \"#utility.yul\":580:682   */\n    tag_60:\n        /* \"#utility.yul\":621:627   */\n      0x00\n        /* \"#utility.yul\":672:674   */\n      0x1f\n        /* \"#utility.yul\":668:675   */\n      not\n        /* \"#utility.yul\":663:665   */\n      0x1f\n        /* \"#utility.yul\":656:661   */\n      dup4\n        /* \"#utility.yul\":652:666   */\n      add\n        /* \"#utility.yul\":648:676   */\n      and\n        /* \"#utility.yul\":638:676   */\n      swap1\n      pop\n        /* \"#utility.yul\":580:682   */\n      swap2\n      swap1\n      pop\n      jump\t// out\n        /* \"#utility.yul\":688:868   */\n    tag_61:\n        /* \"#utility.yul\":736:813   */\n      0x4e487b7100000000000000000000000000000000000000000000000000000000\n        /* \"#utility.yul\":733:734   */\n      0x00\n        /* \"#utility.yul\":726:814   */\n      mstore\n        /* \"#utility.yul\":833:837   */\n      0x41\n        /* \"#utility.yul\":830:831   */\n      0x04\n        /* \"#utility.yul\":823:838   */\n      mstore\n        /* \"#utility.yul\":857:861   */\n      0x24\n        /* \"#utility.yul\":854:855   */\n      0x00\n        /* \"#utility.yul\":847:862   */\n      revert\n        /* \"#utility.yul\":874:1155   */\n    tag_62:\n        /* \"#utility.yul\":957:984   */\n      tag_108\n        /* \"#utility.yul\":979:983   */\n      dup3\n        /* \"#utility.yul\":957:984   */\n      tag_60\n      jump\t// in\n    tag_108:\n        /* \"#utility.yul\":949:955   */\n      dup2\n        /* \"#utility.yul\":945:985   */\n      add\n        /* \"#utility.yul\":1087:1093   */\n      dup2\n        /* \"#utility.yul\":1075:1085   */\n      dup2\n        /* \"#utility.yul\":1072:1094   */\n      lt\n        /* \"#utility.yul\":1051:1069   */\n      0xffffffffffffffff\n        /* \"#utility.yul\":1039:1049   */\n      dup3\n        /* \"#utility.yul\":1036:1070   */\n      gt\n        /* \"#utility.yul\":1033:1095   */\n      or\n        /* \"#utility.yul\":1030:1118   */\n      iszero\n      tag_109\n      jumpi\n        /* \"#utility.yul\":1098:1116   */\n      tag_110\n      tag_61\n      jump\t// in\n    tag_110:\n        /* \"#utility.yul\":1030:1118   */\n    tag_109:\n        /* \"#utility.yul\":1138:1148   */\n      dup1\n        /* \"#utility.yul\":1134:1136   */\n      0x40\n        /* \"#utility.yul\":1127:1149   */\n      mstore\n        /* \"#utility.yul\":917:1155   */\n      pop\n        /* \"#utility.yul\":874:1155   */\n      pop\n      pop\n      jump\t// out\n        /* \"#utility.yul\":1161:1290   */\n    tag_63:\n        /* \"#utility.yul\":1195:1201   */\n      0x00\n        /* \"#utility.yul\":1222:1242   */\n      tag_112\n      tag_55\n      jump\t// in\n    tag_112:\n        /* \"#utility.yul\":1212:1242   */\n      swap1\n      pop\n        /* \"#utility.yul\":1251:1284   */\n      tag_113\n        /* \"#utility.yul\":1279:1283   */\n      dup3\n        /* \"#utility.yul\":1271:1277   */\n      dup3\n        /* \"#utility.yul\":1251:1284   */\n      tag_62\n      jump\t// in\n    tag_113:\n        /* \"#utility.yul\":1161:1290   */\n      swap2\n      swap1\n      pop\n      jump\t// out\n        /* \"#utility.yul\":1296:1604   */\n    tag_64:\n        /* \"#utility.yul\":1358:1362   */\n      0x00\n        /* \"#utility.yul\":1448:1466   */\n      0xffffffffffffffff\n        /* \"#utility.yul\":1440:1446   */\n      dup3\n        /* \"#utility.yul\":1437:1467   */\n      gt\n        /* \"#utility.yul\":1434:1490   */\n      iszero\n      tag_115\n      jumpi\n        /* \"#utility.yul\":1470:1488   */\n      tag_116\n      tag_61\n      jump\t// in\n    tag_116:\n        /* \"#utility.yul\":1434:1490   */\n    tag_115:\n        /* \"#utility.yul\":1508:1537   */\n      tag_117\n        /* \"#utility.yul\":1530:1536   */\n      dup3\n        /* \"#utility.yul\":1508:1537   */\n      tag_60\n      jump\t// in\n    tag_117:\n        /* \"#utility.yul\":1500:1537   */\n      swap1\n      pop\n        /* \"#utility.yul\":1592:1596   */\n      0x20\n        /* \"#utility.yul\":1586:1590   */\n      dup2\n        /* \"#utility.yul\":1582:1597   */\n      add\n        /* \"#utility.yul\":1574:1597   */\n      swap1\n      pop\n        /* \"#utility.yul\":1296:1604   */\n      swap2\n      swap1\n      pop\n      jump\t// out\n        /* \"#utility.yul\":1610:1758   */\n    tag_65:\n        /* \"#utility.yul\":1708:1714   */\n      dup3\n        /* \"#utility.yul\":1703:1706   */\n      dup2\n        /* \"#utility.yul\":1698:1701   */\n      dup4\n        /* \"#utility.yul\":1685:1715   */\n      calldatacopy\n        /* \"#utility.yul\":1749:1750   */\n      0x00\n        /* \"#utility.yul\":1740:1746   */\n      dup4\n        /* \"#utility.yul\":1735:1738   */\n      dup4\n        /* \"#utility.yul\":1731:1747   */\n      add\n        /* \"#utility.yul\":1724:1751   */\n      mstore\n        /* \"#utility.yul\":1610:1758   */\n      pop\n      pop\n      pop\n      jump\t// out\n        /* \"#utility.yul\":1764:2189   */\n    tag_66:\n        /* \"#utility.yul\":1842:1847   */\n      0x00\n        /* \"#utility.yul\":1867:1933   */\n      tag_120\n        /* \"#utility.yul\":1883:1932   */\n      tag_121\n        /* \"#utility.yul\":1925:1931   */\n      dup5\n        /* \"#utility.yul\":1883:1932   */\n      tag_64\n      jump\t// in\n    tag_121:\n        /* \"#utility.yul\":1867:1933   */\n      tag_63\n      jump\t// in\n    tag_120:\n        /* \"#utility.yul\":1858:1933   */\n      swap1\n      pop\n        /* \"#utility.yul\":1956:1962   */\n      dup3\n        /* \"#utility.yul\":1949:1954   */\n      dup2\n        /* \"#utility.yul\":1942:1963   */\n      mstore\n        /* \"#utility.yul\":1994:1998   */\n      0x20\n        /* \"#utility.yul\":1987:1992   */\n      dup2\n        /* \"#utility.yul\":1983:1999   */\n      add\n        /* \"#utility.yul\":2032:2035   */\n      dup5\n        /* \"#utility.yul\":2023:2029   */\n      dup5\n        /* \"#utility.yul\":2018:2021   */\n      dup5\n        /* \"#utility.yul\":2014:2030   */\n      add\n        /* \"#utility.yul\":2011:2036   */\n      gt\n        /* \"#utility.yul\":2008:2120   */\n      iszero\n      tag_122\n      jumpi\n        /* \"#utility.yul\":2039:2118   */\n      tag_123\n      tag_59\n      jump\t// in\n    tag_123:\n        /* \"#utility.yul\":2008:2120   */\n    tag_122:\n        /* \"#utility.yul\":2129:2183   */\n      tag_124\n        /* \"#utility.yul\":2176:2182   */\n      dup5\n        /* \"#utility.yul\":2171:2174   */\n      dup3\n        /* \"#utility.yul\":2166:2169   */\n      dup6\n        /* \"#utility.yul\":2129:2183   */\n      tag_65\n      jump\t// in\n    tag_124:\n        /* \"#utility.yul\":1848:2189   */\n      pop\n        /* \"#utility.yul\":1764:2189   */\n      swap4\n      swap3\n      pop\n      pop\n      pop\n      jump\t// out\n        /* \"#utility.yul\":2209:2549   */\n    tag_67:\n        /* \"#utility.yul\":2265:2270   */\n      0x00\n        /* \"#utility.yul\":2314:2317   */\n      dup3\n        /* \"#utility.yul\":2307:2311   */\n      0x1f\n        /* \"#utility.yul\":2299:2305   */\n      dup4\n        /* \"#utility.yul\":2295:2312   */\n      add\n        /* \"#utility.yul\":2291:2318   */\n      slt\n        /* \"#utility.yul\":2281:2403   */\n      tag_126\n      jumpi\n        /* \"#utility.yul\":2322:2401   */\n      tag_127\n      tag_58\n      jump\t// in\n    tag_127:\n        /* \"#utility.yul\":2281:2403   */\n    tag_126:\n        /* \"#utility.yul\":2439:2445   */\n      dup2\n        /* \"#utility.yul\":2426:2446   */\n      calldataload\n        /* \"#utility.yul\":2464:2543   */\n      tag_128\n        /* \"#utility.yul\":2539:2542   */\n      dup5\n        /* \"#utility.yul\":2531:2537   */\n      dup3\n        /* \"#utility.yul\":2524:2528   */\n      0x20\n        /* \"#utility.yul\":2516:2522   */\n      dup7\n        /* \"#utility.yul\":2512:2529   */\n      add\n        /* \"#utility.yul\":2464:2543   */\n      tag_66\n      jump\t// in\n    tag_128:\n        /* \"#utility.yul\":2455:2543   */\n      swap2\n      pop\n        /* \"#utility.yul\":2271:2549   */\n      pop\n        /* \"#utility.yul\":2209:2549   */\n      swap3\n      swap2\n      pop\n      pop\n      jump\t// out\n        /* \"#utility.yul\":2555:3064   */\n    tag_9:\n        /* \"#utility.yul\":2624:2630   */\n      0x00\n        /* \"#utility.yul\":2673:2675   */\n      0x20\n        /* \"#utility.yul\":2661:2670   */\n      dup3\n        /* \"#utility.yul\":2652:2659   */\n      dup5\n        /* \"#utility.yul\":2648:2671   */\n      sub\n        /* \"#utility.yul\":2644:2676   */\n      slt\n        /* \"#utility.yul\":2641:2760   */\n      iszero\n      tag_130\n      jumpi\n        /* \"#utility.yul\":2679:2758   */\n      tag_131\n      tag_56\n      jump\t// in\n    tag_131:\n        /* \"#utility.yul\":2641:2760   */\n    tag_130:\n        /* \"#utility.yul\":2827:2828   */\n      0x00\n        /* \"#utility.yul\":2816:2825   */\n      dup3\n        /* \"#utility.yul\":2812:2829   */\n      add\n        /* \"#utility.yul\":2799:2830   */\n      calldataload\n        /* \"#utility.yul\":2857:2875   */\n      0xffffffffffffffff\n        /* \"#utility.yul\":2849:2855   */\n      dup2\n        /* \"#utility.yul\":2846:2876   */\n      gt\n        /* \"#utility.yul\":2843:2960   */\n      iszero\n      tag_132\n      jumpi\n        /* \"#utility.yul\":2879:2958   */\n      tag_133\n      tag_57\n      jump\t// in\n    tag_133:\n        /* \"#utility.yul\":2843:2960   */\n    tag_132:\n        /* \"#utility.yul\":2984:3047   */\n      tag_134\n        /* \"#utility.yul\":3039:3046   */\n      dup5\n        /* \"#utility.yul\":3030:3036   */\n      dup3\n        /* \"#utility.yul\":3019:3028   */\n      dup6\n        /* \"#utility.yul\":3015:3037   */\n      add\n        /* \"#utility.yul\":2984:3047   */\n      tag_67\n      jump\t// in\n    tag_134:\n        /* \"#utility.yul\":2974:3047   */\n      swap2\n      pop\n        /* \"#utility.yul\":2770:3057   */\n      pop\n        /* \"#utility.yul\":2555:3064   */\n      swap3\n      swap2\n      pop\n      pop\n      jump\t// out\n        /* \"#utility.yul\":3070:3196   */\n    tag_68:\n        /* \"#utility.yul\":3107:3114   */\n      0x00\n        /* \"#utility.yul\":3147:3189   */\n      0xffffffffffffffffffffffffffffffffffffffff\n        /* \"#utility.yul\":3140:3145   */\n      dup3\n        /* \"#utility.yul\":3136:3190   */\n      and\n        /* \"#utility.yul\":3125:3190   */\n      swap1\n      pop\n        /* \"#utility.yul\":3070:3196   */\n      swap2\n      swap1\n      pop\n      jump\t// out\n        /* \"#utility.yul\":3202:3298   */\n    tag_69:\n        /* \"#utility.yul\":3239:3246   */\n      0x00\n        /* \"#utility.yul\":3268:3292   */\n      tag_137\n        /* \"#utility.yul\":3286:3291   */\n      dup3\n        /* \"#utility.yul\":3268:3292   */\n      tag_68\n      jump\t// in\n    tag_137:\n        /* \"#utility.yul\":3257:3292   */\n      swap1\n      pop\n        /* \"#utility.yul\":3202:3298   */\n      swap2\n      swap1\n      pop\n      jump\t// out\n        /* \"#utility.yul\":3304:3422   */\n    tag_70:\n        /* \"#utility.yul\":3391:3415   */\n      tag_139\n        /* \"#utility.yul\":3409:3414   */\n      dup2\n        /* \"#utility.yul\":3391:3415   */\n      tag_69\n      jump\t// in\n    tag_139:\n        /* \"#utility.yul\":3386:3389   */\n      dup3\n        /* \"#utility.yul\":3379:3416   */\n      mstore\n        /* \"#utility.yul\":3304:3422   */\n      pop\n      pop\n      jump\t// out\n        /* \"#utility.yul\":3428:3504   */\n    tag_71:\n        /* \"#utility.yul\":3464:3471   */\n      0x00\n        /* \"#utility.yul\":3493:3498   */\n      dup2\n        /* \"#utility.yul\":3482:3498   */\n      swap1\n      pop\n        /* \"#utility.yul\":3428:3504   */\n      swap2\n      swap1\n      pop\n      jump\t// out\n        /* \"#utility.yul\":3510:3625   */\n    tag_72:\n        /* \"#utility.yul\":3595:3618   */\n      tag_142\n        /* \"#utility.yul\":3612:3617   */\n      dup2\n        /* \"#utility.yul\":3595:3618   */\n      tag_71\n      jump\t// in\n    tag_142:\n        /* \"#utility.yul\":3590:3593   */\n      dup3\n        /* \"#utility.yul\":3583:3619   */\n      mstore\n        /* \"#utility.yul\":3510:3625   */\n      pop\n      pop\n      jump\t// out\n        /* \"#utility.yul\":3631:3721   */\n    tag_73:\n        /* \"#utility.yul\":3665:3672   */\n      0x00\n        /* \"#utility.yul\":3708:3713   */\n      dup2\n        /* \"#utility.yul\":3701:3714   */\n      iszero\n        /* \"#utility.yul\":3694:3715   */\n      iszero\n        /* \"#utility.yul\":3683:3715   */\n      swap1\n      pop\n        /* \"#utility.yul\":3631:3721   */\n      swap2\n      swap1\n      pop\n      jump\t// out\n        /* \"#utility.yul\":3727:3836   */\n    tag_74:\n        /* \"#utility.yul\":3808:3829   */\n      tag_145\n        /* \"#utility.yul\":3823:3828   */\n      dup2\n        /* \"#utility.yul\":3808:3829   */\n      tag_73\n      jump\t// in\n    tag_145:\n        /* \"#utility.yul\":3803:3806   */\n      dup3\n        /* \"#utility.yul\":3796:3830   */\n      mstore\n        /* \"#utility.yul\":3727:3836   */\n      pop\n      pop\n      jump\t// out\n        /* \"#utility.yul\":3842:4268   */\n    tag_12:\n        /* \"#utility.yul\":3983:3987   */\n      0x00\n        /* \"#utility.yul\":4021:4023   */\n      0x60\n        /* \"#utility.yul\":4010:4019   */\n      dup3\n        /* \"#utility.yul\":4006:4024   */\n      add\n        /* \"#utility.yul\":3998:4024   */\n      swap1\n      pop\n        /* \"#utility.yul\":4034:4105   */\n      tag_147\n        /* \"#utility.yul\":4102:4103   */\n      0x00\n        /* \"#utility.yul\":4091:4100   */\n      dup4\n        /* \"#utility.yul\":4087:4104   */\n      add\n        /* \"#utility.yul\":4078:4084   */\n      dup7\n        /* \"#utility.yul\":4034:4105   */\n      tag_70\n      jump\t// in\n    tag_147:\n        /* \"#utility.yul\":4115:4185   */\n      tag_148\n        /* \"#utility.yul\":4181:4183   */\n      0x20\n        /* \"#utility.yul\":4170:4179   */\n      dup4\n        /* \"#utility.yul\":4166:4184   */\n      add\n        /* \"#utility.yul\":4157:4163   */\n      dup6\n        /* \"#utility.yul\":4115:4185   */\n      tag_72\n      jump\t// in\n    tag_148:\n        /* \"#utility.yul\":4195:4261   */\n      tag_149\n        /* \"#utility.yul\":4257:4259   */\n      0x40\n        /* \"#utility.yul\":4246:4255   */\n      dup4\n        /* \"#utility.yul\":4242:4260   */\n      add\n        /* \"#utility.yul\":4233:4239   */\n      dup5\n        /* \"#utility.yul\":4195:4261   */\n      tag_74\n      jump\t// in\n    tag_149:\n        /* \"#utility.yul\":3842:4268   */\n      swap5\n      swap4\n      pop\n      pop\n      pop\n      pop\n      jump\t// out\n        /* \"#utility.yul\":4274:4396   */\n    tag_75:\n        /* \"#utility.yul\":4347:4371   */\n      tag_151\n        /* \"#utility.yul\":4365:4370   */\n      dup2\n        /* \"#utility.yul\":4347:4371   */\n      tag_69\n      jump\t// in\n    tag_151:\n        /* \"#utility.yul\":4340:4345   */\n      dup2\n        /* \"#utility.yul\":4337:4372   */\n      eq\n        /* \"#utility.yul\":4327:4390   */\n      tag_152\n      jumpi\n        /* \"#utility.yul\":4386:4387   */\n      0x00\n        /* \"#utility.yul\":4383:4384   */\n      dup1\n        /* \"#utility.yul\":4376:4388   */\n      revert\n        /* \"#utility.yul\":4327:4390   */\n    tag_152:\n        /* \"#utility.yul\":4274:4396   */\n      pop\n      jump\t// out\n        /* \"#utility.yul\":4402:4541   */\n    tag_76:\n        /* \"#utility.yul\":4448:4453   */\n      0x00\n        /* \"#utility.yul\":4486:4492   */\n      dup2\n        /* \"#utility.yul\":4473:4493   */\n      calldataload\n        /* \"#utility.yul\":4464:4493   */\n      swap1\n      pop\n        /* \"#utility.yul\":4502:4535   */\n      tag_154\n        /* \"#utility.yul\":4529:4534   */\n      dup2\n        /* \"#utility.yul\":4502:4535   */\n      tag_75\n      jump\t// in\n    tag_154:\n        /* \"#utility.yul\":4402:4541   */\n      swap3\n      swap2\n      pop\n      pop\n      jump\t// out\n        /* \"#utility.yul\":4547:4667   */\n    tag_77:\n        /* \"#utility.yul\":4619:4642   */\n      tag_156\n        /* \"#utility.yul\":4636:4641   */\n      dup2\n        /* \"#utility.yul\":4619:4642   */\n      tag_71\n      jump\t// in\n    tag_156:\n        /* \"#utility.yul\":4612:4617   */\n      dup2\n        /* \"#utility.yul\":4609:4643   */\n      eq\n        /* \"#utility.yul\":4599:4661   */\n      tag_157\n      jumpi\n        /* \"#utility.yul\":4657:4658   */\n      0x00\n        /* \"#utility.yul\":4654:4655   */\n      dup1\n        /* \"#utility.yul\":4647:4659   */\n      revert\n        /* \"#utility.yul\":4599:4661   */\n    tag_157:\n        /* \"#utility.yul\":4547:4667   */\n      pop\n      jump\t// out\n        /* \"#utility.yul\":4673:4810   */\n    tag_78:\n        /* \"#utility.yul\":4718:4723   */\n      0x00\n        /* \"#utility.yul\":4756:4762   */\n      dup2\n        /* \"#utility.yul\":4743:4763   */\n      calldataload\n        /* \"#utility.yul\":4734:4763   */\n      swap1\n      pop\n        /* \"#utility.yul\":4772:4804   */\n      tag_159\n        /* \"#utility.yul\":4798:4803   */\n      dup2\n        /* \"#utility.yul\":4772:4804   */\n      tag_77\n      jump\t// in\n    tag_159:\n        /* \"#utility.yul\":4673:4810   */\n      swap3\n      swap2\n      pop\n      pop\n      jump\t// out\n        /* \"#utility.yul\":4816:5613   */\n    tag_18:\n        /* \"#utility.yul\":4902:4908   */\n      0x00\n        /* \"#utility.yul\":4910:4916   */\n      dup1\n        /* \"#utility.yul\":4918:4924   */\n      0x00\n        /* \"#utility.yul\":4967:4969   */\n      0x60\n        /* \"#utility.yul\":4955:4964   */\n      dup5\n        /* \"#utility.yul\":4946:4953   */\n      dup7\n        /* \"#utility.yul\":4942:4965   */\n      sub\n        /* \"#utility.yul\":4938:4970   */\n      slt\n        /* \"#utility.yul\":4935:5054   */\n      iszero\n      tag_161\n      jumpi\n        /* \"#utility.yul\":4973:5052   */\n      tag_162\n      tag_56\n      jump\t// in\n    tag_162:\n        /* \"#utility.yul\":4935:5054   */\n    tag_161:\n        /* \"#utility.yul\":5121:5122   */\n      0x00\n        /* \"#utility.yul\":5110:5119   */\n      dup5\n        /* \"#utility.yul\":5106:5123   */\n      add\n        /* \"#utility.yul\":5093:5124   */\n      calldataload\n        /* \"#utility.yul\":5151:5169   */\n      0xffffffffffffffff\n        /* \"#utility.yul\":5143:5149   */\n      dup2\n        /* \"#utility.yul\":5140:5170   */\n      gt\n        /* \"#utility.yul\":5137:5254   */\n      iszero\n      tag_163\n      jumpi\n        /* \"#utility.yul\":5173:5252   */\n      tag_164\n      tag_57\n      jump\t// in\n    tag_164:\n        /* \"#utility.yul\":5137:5254   */\n    tag_163:\n        /* \"#utility.yul\":5278:5341   */\n      tag_165\n        /* \"#utility.yul\":5333:5340   */\n      dup7\n        /* \"#utility.yul\":5324:5330   */\n      dup3\n        /* \"#utility.yul\":5313:5322   */\n      dup8\n        /* \"#utility.yul\":5309:5331   */\n      add\n        /* \"#utility.yul\":5278:5341   */\n      tag_67\n      jump\t// in\n    tag_165:\n        /* \"#utility.yul\":5268:5341   */\n      swap4\n      pop\n        /* \"#utility.yul\":5064:5351   */\n      pop\n        /* \"#utility.yul\":5390:5392   */\n      0x20\n        /* \"#utility.yul\":5416:5469   */\n      tag_166\n        /* \"#utility.yul\":5461:5468   */\n      dup7\n        /* \"#utility.yul\":5452:5458   */\n      dup3\n        /* \"#utility.yul\":5441:5450   */\n      dup8\n        /* \"#utility.yul\":5437:5459   */\n      add\n        /* \"#utility.yul\":5416:5469   */\n      tag_76\n      jump\t// in\n    tag_166:\n        /* \"#utility.yul\":5406:5469   */\n      swap3\n      pop\n        /* \"#utility.yul\":5361:5479   */\n      pop\n        /* \"#utility.yul\":5518:5520   */\n      0x40\n        /* \"#utility.yul\":5544:5596   */\n      tag_167\n        /* \"#utility.yul\":5588:5595   */\n      dup7\n        /* \"#utility.yul\":5579:5585   */\n      dup3\n        /* \"#utility.yul\":5568:5577   */\n      dup8\n        /* \"#utility.yul\":5564:5586   */\n      add\n        /* \"#utility.yul\":5544:5596   */\n      tag_78\n      jump\t// in\n    tag_167:\n        /* \"#utility.yul\":5534:5596   */\n      swap2\n      pop\n        /* \"#utility.yul\":5489:5606   */\n      pop\n        /* \"#utility.yul\":4816:5613   */\n      swap3\n      pop\n      swap3\n      pop\n      swap3\n      jump\t// out\n        /* \"#utility.yul\":5619:5837   */\n    tag_24:\n        /* \"#utility.yul\":5710:5714   */\n      0x00\n        /* \"#utility.yul\":5748:5750   */\n      0x20\n        /* \"#utility.yul\":5737:5746   */\n      dup3\n        /* \"#utility.yul\":5733:5751   */\n      add\n        /* \"#utility.yul\":5725:5751   */\n      swap1\n      pop\n        /* \"#utility.yul\":5761:5830   */\n      tag_169\n        /* \"#utility.yul\":5827:5828   */\n      0x00\n        /* \"#utility.yul\":5816:5825   */\n      dup4\n        /* \"#utility.yul\":5812:5829   */\n      add\n        /* \"#utility.yul\":5803:5809   */\n      dup5\n        /* \"#utility.yul\":5761:5830   */\n      tag_72\n      jump\t// in\n    tag_169:\n        /* \"#utility.yul\":5619:5837   */\n      swap3\n      swap2\n      pop\n      pop\n      jump\t// out\n        /* \"#utility.yul\":5843:5942   */\n    tag_79:\n        /* \"#utility.yul\":5895:5901   */\n      0x00\n        /* \"#utility.yul\":5929:5934   */\n      dup2\n        /* \"#utility.yul\":5923:5935   */\n      mload\n        /* \"#utility.yul\":5913:5935   */\n      swap1\n      pop\n        /* \"#utility.yul\":5843:5942   */\n      swap2\n      swap1\n      pop\n      jump\t// out\n        /* \"#utility.yul\":5948:6096   */\n    tag_80:\n        /* \"#utility.yul\":6050:6061   */\n      0x00\n        /* \"#utility.yul\":6087:6090   */\n      dup2\n        /* \"#utility.yul\":6072:6090   */\n      swap1\n      pop\n        /* \"#utility.yul\":5948:6096   */\n      swap3\n      swap2\n      pop\n      pop\n      jump\t// out\n        /* \"#utility.yul\":6102:6241   */\n    tag_81:\n        /* \"#utility.yul\":6191:6197   */\n      dup3\n        /* \"#utility.yul\":6186:6189   */\n      dup2\n        /* \"#utility.yul\":6181:6184   */\n      dup4\n        /* \"#utility.yul\":6175:6198   */\n      mcopy\n        /* \"#utility.yul\":6232:6233   */\n      0x00\n        /* \"#utility.yul\":6223:6229   */\n      dup4\n        /* \"#utility.yul\":6218:6221   */\n      dup4\n        /* \"#utility.yul\":6214:6230   */\n      add\n        /* \"#utility.yul\":6207:6234   */\n      mstore\n        /* \"#utility.yul\":6102:6241   */\n      pop\n      pop\n      pop\n      jump\t// out\n        /* \"#utility.yul\":6247:6637   */\n    tag_82:\n        /* \"#utility.yul\":6353:6356   */\n      0x00\n        /* \"#utility.yul\":6381:6420   */\n      tag_174\n        /* \"#utility.yul\":6414:6419   */\n      dup3\n        /* \"#utility.yul\":6381:6420   */\n      tag_79\n      jump\t// in\n    tag_174:\n        /* \"#utility.yul\":6436:6525   */\n      tag_175\n        /* \"#utility.yul\":6518:6524   */\n      dup2\n        /* \"#utility.yul\":6513:6516   */\n      dup6\n        /* \"#utility.yul\":6436:6525   */\n      tag_80\n      jump\t// in\n    tag_175:\n        /* \"#utility.yul\":6429:6525   */\n      swap4\n      pop\n        /* \"#utility.yul\":6534:6599   */\n      tag_176\n        /* \"#utility.yul\":6592:6598   */\n      dup2\n        /* \"#utility.yul\":6587:6590   */\n      dup6\n        /* \"#utility.yul\":6580:6584   */\n      0x20\n        /* \"#utility.yul\":6573:6578   */\n      dup7\n        /* \"#utility.yul\":6569:6585   */\n      add\n        /* \"#utility.yul\":6534:6599   */\n      tag_81\n      jump\t// in\n    tag_176:\n        /* \"#utility.yul\":6624:6630   */\n      dup1\n        /* \"#utility.yul\":6619:6622   */\n      dup5\n        /* \"#utility.yul\":6615:6631   */\n      add\n        /* \"#utility.yul\":6608:6631   */\n      swap2\n      pop\n        /* \"#utility.yul\":6357:6637   */\n      pop\n        /* \"#utility.yul\":6247:6637   */\n      swap3\n      swap2\n      pop\n      pop\n      jump\t// out\n        /* \"#utility.yul\":6643:6918   */\n    tag_27:\n        /* \"#utility.yul\":6775:6778   */\n      0x00\n        /* \"#utility.yul\":6797:6892   */\n      tag_178\n        /* \"#utility.yul\":6888:6891   */\n      dup3\n        /* \"#utility.yul\":6879:6885   */\n      dup5\n        /* \"#utility.yul\":6797:6892   */\n      tag_82\n      jump\t// in\n    tag_178:\n        /* \"#utility.yul\":6790:6892   */\n      swap2\n      pop\n        /* \"#utility.yul\":6909:6912   */\n      dup2\n        /* \"#utility.yul\":6902:6912   */\n      swap1\n      pop\n        /* \"#utility.yul\":6643:6918   */\n      swap3\n      swap2\n      pop\n      pop\n      jump\t// out\n        /* \"#utility.yul\":6924:7093   */\n    tag_83:\n        /* \"#utility.yul\":7008:7019   */\n      0x00\n        /* \"#utility.yul\":7042:7048   */\n      dup3\n        /* \"#utility.yul\":7037:7040   */\n      dup3\n        /* \"#utility.yul\":7030:7049   */\n      mstore\n        /* \"#utility.yul\":7082:7086   */\n      0x20\n        /* \"#utility.yul\":7077:7080   */\n      dup3\n        /* \"#utility.yul\":7073:7087   */\n      add\n        /* \"#utility.yul\":7058:7087   */\n      swap1\n      pop\n        /* \"#utility.yul\":6924:7093   */\n      swap3\n      swap2\n      pop\n      pop\n      jump\t// out\n        /* \"#utility.yul\":7099:7264   */\n    tag_84:\n        /* \"#utility.yul\":7239:7256   */\n      0x4173736574206e6f7420666f756e640000000000000000000000000000000000\n        /* \"#utility.yul\":7235:7236   */\n      0x00\n        /* \"#utility.yul\":7227:7233   */\n      dup3\n        /* \"#utility.yul\":7223:7237   */\n      add\n        /* \"#utility.yul\":7216:7257   */\n      mstore\n        /* \"#utility.yul\":7099:7264   */\n      pop\n      jump\t// out\n        /* \"#utility.yul\":7270:7636   */\n    tag_85:\n        /* \"#utility.yul\":7412:7415   */\n      0x00\n        /* \"#utility.yul\":7433:7500   */\n      tag_182\n        /* \"#utility.yul\":7497:7499   */\n      0x0f\n        /* \"#utility.yul\":7492:7495   */\n      dup4\n        /* \"#utility.yul\":7433:7500   */\n      tag_83\n      jump\t// in\n    tag_182:\n        /* \"#utility.yul\":7426:7500   */\n      swap2\n      pop\n        /* \"#utility.yul\":7509:7602   */\n      tag_183\n        /* \"#utility.yul\":7598:7601   */\n      dup3\n        /* \"#utility.yul\":7509:7602   */\n      tag_84\n      jump\t// in\n    tag_183:\n        /* \"#utility.yul\":7627:7629   */\n      0x20\n        /* \"#utility.yul\":7622:7625   */\n      dup3\n        /* \"#utility.yul\":7618:7630   */\n      add\n        /* \"#utility.yul\":7611:7630   */\n      swap1\n      pop\n        /* \"#utility.yul\":7270:7636   */\n      swap2\n      swap1\n      pop\n      jump\t// out\n        /* \"#utility.yul\":7642:8061   */\n    tag_30:\n        /* \"#utility.yul\":7808:7812   */\n      0x00\n        /* \"#utility.yul\":7846:7848   */\n      0x20\n        /* \"#utility.yul\":7835:7844   */\n      dup3\n        /* \"#utility.yul\":7831:7849   */\n      add\n        /* \"#utility.yul\":7823:7849   */\n      swap1\n      pop\n        /* \"#utility.yul\":7895:7904   */\n      dup2\n        /* \"#utility.yul\":7889:7893   */\n      dup2\n        /* \"#utility.yul\":7885:7905   */\n      sub\n        /* \"#utility.yul\":7881:7882   */\n      0x00\n        /* \"#utility.yul\":7870:7879   */\n      dup4\n        /* \"#utility.yul\":7866:7883   */\n      add\n        /* \"#utility.yul\":7859:7906   */\n      mstore\n        /* \"#utility.yul\":7923:8054   */\n      tag_185\n        /* \"#utility.yul\":8049:8053   */\n      dup2\n        /* \"#utility.yul\":7923:8054   */\n      tag_85\n      jump\t// in\n    tag_185:\n        /* \"#utility.yul\":7915:8054   */\n      swap1\n      pop\n        /* \"#utility.yul\":7642:8061   */\n      swap2\n      swap1\n      pop\n      jump\t// out\n        /* \"#utility.yul\":8067:8172   */\n    tag_86:\n        /* \"#utility.yul\":8103:8110   */\n      0x00\n        /* \"#utility.yul\":8143:8165   */\n      0xffffffffffffffffffff\n        /* \"#utility.yul\":8136:8141   */\n      dup3\n        /* \"#utility.yul\":8132:8166   */\n      and\n        /* \"#utility.yul\":8121:8166   */\n      swap1\n      pop\n        /* \"#utility.yul\":8067:8172   */\n      swap2\n      swap1\n      pop\n      jump\t// out\n        /* \"#utility.yul\":8178:8298   */\n    tag_87:\n        /* \"#utility.yul\":8250:8273   */\n      tag_188\n        /* \"#utility.yul\":8267:8272   */\n      dup2\n        /* \"#utility.yul\":8250:8273   */\n      tag_86\n      jump\t// in\n    tag_188:\n        /* \"#utility.yul\":8243:8248   */\n      dup2\n        /* \"#utility.yul\":8240:8274   */\n      eq\n        /* \"#utility.yul\":8230:8292   */\n      tag_189\n      jumpi\n        /* \"#utility.yul\":8288:8289   */\n      0x00\n        /* \"#utility.yul\":8285:8286   */\n      dup1\n        /* \"#utility.yul\":8278:8290   */\n      revert\n        /* \"#utility.yul\":8230:8292   */\n    tag_189:\n        /* \"#utility.yul\":8178:8298   */\n      pop\n      jump\t// out\n        /* \"#utility.yul\":8304:8445   */\n    tag_88:\n        /* \"#utility.yul\":8360:8365   */\n      0x00\n        /* \"#utility.yul\":8391:8397   */\n      dup2\n        /* \"#utility.yul\":8385:8398   */\n      mload\n        /* \"#utility.yul\":8376:8398   */\n      swap1\n      pop\n        /* \"#utility.yul\":8407:8439   */\n      tag_191\n        /* \"#utility.yul\":8433:8438   */\n      dup2\n        /* \"#utility.yul\":8407:8439   */\n      tag_87\n      jump\t// in\n    tag_191:\n        /* \"#utility.yul\":8304:8445   */\n      swap3\n      swap2\n      pop\n      pop\n      jump\t// out\n        /* \"#utility.yul\":8451:8592   */\n    tag_89:\n        /* \"#utility.yul\":8507:8512   */\n      0x00\n        /* \"#utility.yul\":8538:8544   */\n      dup2\n        /* \"#utility.yul\":8532:8545   */\n      mload\n        /* \"#utility.yul\":8523:8545   */\n      swap1\n      pop\n        /* \"#utility.yul\":8554:8586   */\n      tag_193\n        /* \"#utility.yul\":8580:8585   */\n      dup2\n        /* \"#utility.yul\":8554:8586   */\n      tag_77\n      jump\t// in\n    tag_193:\n        /* \"#utility.yul\":8451:8592   */\n      swap3\n      swap2\n      pop\n      pop\n      jump\t// out\n        /* \"#utility.yul\":8598:8675   */\n    tag_90:\n        /* \"#utility.yul\":8635:8642   */\n      0x00\n        /* \"#utility.yul\":8664:8669   */\n      dup2\n        /* \"#utility.yul\":8653:8669   */\n      swap1\n      pop\n        /* \"#utility.yul\":8598:8675   */\n      swap2\n      swap1\n      pop\n      jump\t// out\n        /* \"#utility.yul\":8681:8803   */\n    tag_91:\n        /* \"#utility.yul\":8754:8778   */\n      tag_196\n        /* \"#utility.yul\":8772:8777   */\n      dup2\n        /* \"#utility.yul\":8754:8778   */\n      tag_90\n      jump\t// in\n    tag_196:\n        /* \"#utility.yul\":8747:8752   */\n      dup2\n        /* \"#utility.yul\":8744:8779   */\n      eq\n        /* \"#utility.yul\":8734:8797   */\n      tag_197\n      jumpi\n        /* \"#utility.yul\":8793:8794   */\n      0x00\n        /* \"#utility.yul\":8790:8791   */\n      dup1\n        /* \"#utility.yul\":8783:8795   */\n      revert\n        /* \"#utility.yul\":8734:8797   */\n    tag_197:\n        /* \"#utility.yul\":8681:8803   */\n      pop\n      jump\t// out\n        /* \"#utility.yul\":8809:8952   */\n    tag_92:\n        /* \"#utility.yul\":8866:8871   */\n      0x00\n        /* \"#utility.yul\":8897:8903   */\n      dup2\n        /* \"#utility.yul\":8891:8904   */\n      mload\n        /* \"#utility.yul\":8882:8904   */\n      swap1\n      pop\n        /* \"#utility.yul\":8913:8946   */\n      tag_199\n        /* \"#utility.yul\":8940:8945   */\n      dup2\n        /* \"#utility.yul\":8913:8946   */\n      tag_91\n      jump\t// in\n    tag_199:\n        /* \"#utility.yul\":8809:8952   */\n      swap3\n      swap2\n      pop\n      pop\n      jump\t// out\n        /* \"#utility.yul\":8958:9929   */\n    tag_34:\n        /* \"#utility.yul\":9061:9067   */\n      0x00\n        /* \"#utility.yul\":9069:9075   */\n      dup1\n        /* \"#utility.yul\":9077:9083   */\n      0x00\n        /* \"#utility.yul\":9085:9091   */\n      dup1\n        /* \"#utility.yul\":9093:9099   */\n      0x00\n        /* \"#utility.yul\":9142:9145   */\n      0xa0\n        /* \"#utility.yul\":9130:9139   */\n      dup7\n        /* \"#utility.yul\":9121:9128   */\n      dup9\n        /* \"#utility.yul\":9117:9140   */\n      sub\n        /* \"#utility.yul\":9113:9146   */\n      slt\n        /* \"#utility.yul\":9110:9230   */\n      iszero\n      tag_201\n      jumpi\n        /* \"#utility.yul\":9149:9228   */\n      tag_202\n      tag_56\n      jump\t// in\n    tag_202:\n        /* \"#utility.yul\":9110:9230   */\n    tag_201:\n        /* \"#utility.yul\":9269:9270   */\n      0x00\n        /* \"#utility.yul\":9294:9357   */\n      tag_203\n        /* \"#utility.yul\":9349:9356   */\n      dup9\n        /* \"#utility.yul\":9340:9346   */\n      dup3\n        /* \"#utility.yul\":9329:9338   */\n      dup10\n        /* \"#utility.yul\":9325:9347   */\n      add\n        /* \"#utility.yul\":9294:9357   */\n      tag_88\n      jump\t// in\n    tag_203:\n        /* \"#utility.yul\":9284:9357   */\n      swap6\n      pop\n        /* \"#utility.yul\":9240:9367   */\n      pop\n        /* \"#utility.yul\":9406:9408   */\n      0x20\n        /* \"#utility.yul\":9432:9495   */\n      tag_204\n        /* \"#utility.yul\":9487:9494   */\n      dup9\n        /* \"#utility.yul\":9478:9484   */\n      dup3\n        /* \"#utility.yul\":9467:9476   */\n      dup10\n        /* \"#utility.yul\":9463:9485   */\n      add\n        /* \"#utility.yul\":9432:9495   */\n      tag_89\n      jump\t// in\n    tag_204:\n        /* \"#utility.yul\":9422:9495   */\n      swap5\n      pop\n        /* \"#utility.yul\":9377:9505   */\n      pop\n        /* \"#utility.yul\":9544:9546   */\n      0x40\n        /* \"#utility.yul\":9570:9634   */\n      tag_205\n        /* \"#utility.yul\":9626:9633   */\n      dup9\n        /* \"#utility.yul\":9617:9623   */\n      dup3\n        /* \"#utility.yul\":9606:9615   */\n      dup10\n        /* \"#utility.yul\":9602:9624   */\n      add\n        /* \"#utility.yul\":9570:9634   */\n      tag_92\n      jump\t// in\n    tag_205:\n        /* \"#utility.yul\":9560:9634   */\n      swap4\n      pop\n        /* \"#utility.yul\":9515:9644   */\n      pop\n        /* \"#utility.yul\":9683:9685   */\n      0x60\n        /* \"#utility.yul\":9709:9773   */\n      tag_206\n        /* \"#utility.yul\":9765:9772   */\n      dup9\n        /* \"#utility.yul\":9756:9762   */\n      dup3\n        /* \"#utility.yul\":9745:9754   */\n      dup10\n        /* \"#utility.yul\":9741:9763   */\n      add\n        /* \"#utility.yul\":9709:9773   */\n      tag_92\n      jump\t// in\n    tag_206:\n        /* \"#utility.yul\":9699:9773   */\n      swap3\n      pop\n        /* \"#utility.yul\":9654:9783   */\n      pop\n        /* \"#utility.yul\":9822:9825   */\n      0x80\n        /* \"#utility.yul\":9849:9912   */\n      tag_207\n        /* \"#utility.yul\":9904:9911   */\n      dup9\n        /* \"#utility.yul\":9895:9901   */\n      dup3\n        /* \"#utility.yul\":9884:9893   */\n      dup10\n        /* \"#utility.yul\":9880:9902   */\n      add\n        /* \"#utility.yul\":9849:9912   */\n      tag_88\n      jump\t// in\n    tag_207:\n        /* \"#utility.yul\":9839:9912   */\n      swap2\n      pop\n        /* \"#utility.yul\":9793:9922   */\n      pop\n        /* \"#utility.yul\":8958:9929   */\n      swap3\n      swap6\n      pop\n      swap3\n      swap6\n      swap1\n      swap4\n      pop\n      jump\t// out\n        /* \"#utility.yul\":9935:10312   */\n    tag_93:\n        /* \"#utility.yul\":10023:10026   */\n      0x00\n        /* \"#utility.yul\":10051:10090   */\n      tag_209\n        /* \"#utility.yul\":10084:10089   */\n      dup3\n        /* \"#utility.yul\":10051:10090   */\n      tag_79\n      jump\t// in\n    tag_209:\n        /* \"#utility.yul\":10106:10177   */\n      tag_210\n        /* \"#utility.yul\":10170:10176   */\n      dup2\n        /* \"#utility.yul\":10165:10168   */\n      dup6\n        /* \"#utility.yul\":10106:10177   */\n      tag_83\n      jump\t// in\n    tag_210:\n        /* \"#utility.yul\":10099:10177   */\n      swap4\n      pop\n        /* \"#utility.yul\":10186:10251   */\n      tag_211\n        /* \"#utility.yul\":10244:10250   */\n      dup2\n        /* \"#utility.yul\":10239:10242   */\n      dup6\n        /* \"#utility.yul\":10232:10236   */\n      0x20\n        /* \"#utility.yul\":10225:10230   */\n      dup7\n        /* \"#utility.yul\":10221:10237   */\n      add\n        /* \"#utility.yul\":10186:10251   */\n      tag_81\n      jump\t// in\n    tag_211:\n        /* \"#utility.yul\":10276:10305   */\n      tag_212\n        /* \"#utility.yul\":10298:10304   */\n      dup2\n        /* \"#utility.yul\":10276:10305   */\n      tag_60\n      jump\t// in\n    tag_212:\n        /* \"#utility.yul\":10271:10274   */\n      dup5\n        /* \"#utility.yul\":10267:10306   */\n      add\n        /* \"#utility.yul\":10260:10306   */\n      swap2\n      pop\n        /* \"#utility.yul\":10027:10312   */\n      pop\n        /* \"#utility.yul\":9935:10312   */\n      swap3\n      swap2\n      pop\n      pop\n      jump\t// out\n        /* \"#utility.yul\":10318:10436   */\n    tag_94:\n        /* \"#utility.yul\":10405:10429   */\n      tag_214\n        /* \"#utility.yul\":10423:10428   */\n      dup2\n        /* \"#utility.yul\":10405:10429   */\n      tag_90\n      jump\t// in\n    tag_214:\n        /* \"#utility.yul\":10400:10403   */\n      dup3\n        /* \"#utility.yul\":10393:10430   */\n      mstore\n        /* \"#utility.yul\":10318:10436   */\n      pop\n      pop\n      jump\t// out\n        /* \"#utility.yul\":10442:10971   */\n    tag_38:\n        /* \"#utility.yul\":10609:10613   */\n      0x00\n        /* \"#utility.yul\":10647:10649   */\n      0x60\n        /* \"#utility.yul\":10636:10645   */\n      dup3\n        /* \"#utility.yul\":10632:10650   */\n      add\n        /* \"#utility.yul\":10624:10650   */\n      swap1\n      pop\n        /* \"#utility.yul\":10696:10705   */\n      dup2\n        /* \"#utility.yul\":10690:10694   */\n      dup2\n        /* \"#utility.yul\":10686:10706   */\n      sub\n        /* \"#utility.yul\":10682:10683   */\n      0x00\n        /* \"#utility.yul\":10671:10680   */\n      dup4\n        /* \"#utility.yul\":10667:10684   */\n      add\n        /* \"#utility.yul\":10660:10707   */\n      mstore\n        /* \"#utility.yul\":10724:10802   */\n      tag_216\n        /* \"#utility.yul\":10797:10801   */\n      dup2\n        /* \"#utility.yul\":10788:10794   */\n      dup7\n        /* \"#utility.yul\":10724:10802   */\n      tag_93\n      jump\t// in\n    tag_216:\n        /* \"#utility.yul\":10716:10802   */\n      swap1\n      pop\n        /* \"#utility.yul\":10812:10882   */\n      tag_217\n        /* \"#utility.yul\":10878:10880   */\n      0x20\n        /* \"#utility.yul\":10867:10876   */\n      dup4\n        /* \"#utility.yul\":10863:10881   */\n      add\n        /* \"#utility.yul\":10854:10860   */\n      dup6\n        /* \"#utility.yul\":10812:10882   */\n      tag_72\n      jump\t// in\n    tag_217:\n        /* \"#utility.yul\":10892:10964   */\n      tag_218\n        /* \"#utility.yul\":10960:10962   */\n      0x40\n        /* \"#utility.yul\":10949:10958   */\n      dup4\n        /* \"#utility.yul\":10945:10963   */\n      add\n        /* \"#utility.yul\":10936:10942   */\n      dup5\n        /* \"#utility.yul\":10892:10964   */\n      tag_94\n      jump\t// in\n    tag_218:\n        /* \"#utility.yul\":10442:10971   */\n      swap5\n      swap4\n      pop\n      pop\n      pop\n      pop\n      jump\t// out\n        /* \"#utility.yul\":10977:11153   */\n    tag_95:\n        /* \"#utility.yul\":11117:11145   */\n      0x496e76616c696420707269636520666565642061646472657373000000000000\n        /* \"#utility.yul\":11113:11114   */\n      0x00\n        /* \"#utility.yul\":11105:11111   */\n      dup3\n        /* \"#utility.yul\":11101:11115   */\n      add\n        /* \"#utility.yul\":11094:11146   */\n      mstore\n        /* \"#utility.yul\":10977:11153   */\n      pop\n      jump\t// out\n        /* \"#utility.yul\":11159:11525   */\n    tag_96:\n        /* \"#utility.yul\":11301:11304   */\n      0x00\n        /* \"#utility.yul\":11322:11389   */\n      tag_221\n        /* \"#utility.yul\":11386:11388   */\n      0x1a\n        /* \"#utility.yul\":11381:11384   */\n      dup4\n        /* \"#utility.yul\":11322:11389   */\n      tag_83\n      jump\t// in\n    tag_221:\n        /* \"#utility.yul\":11315:11389   */\n      swap2\n      pop\n        /* \"#utility.yul\":11398:11491   */\n      tag_222\n        /* \"#utility.yul\":11487:11490   */\n      dup3\n        /* \"#utility.yul\":11398:11491   */\n      tag_95\n      jump\t// in\n    tag_222:\n        /* \"#utility.yul\":11516:11518   */\n      0x20\n        /* \"#utility.yul\":11511:11514   */\n      dup3\n        /* \"#utility.yul\":11507:11519   */\n      add\n        /* \"#utility.yul\":11500:11519   */\n      swap1\n      pop\n        /* \"#utility.yul\":11159:11525   */\n      swap2\n      swap1\n      pop\n      jump\t// out\n        /* \"#utility.yul\":11531:11950   */\n    tag_42:\n        /* \"#utility.yul\":11697:11701   */\n      0x00\n        /* \"#utility.yul\":11735:11737   */\n      0x20\n        /* \"#utility.yul\":11724:11733   */\n      dup3\n        /* \"#utility.yul\":11720:11738   */\n      add\n        /* \"#utility.yul\":11712:11738   */\n      swap1\n      pop\n        /* \"#utility.yul\":11784:11793   */\n      dup2\n        /* \"#utility.yul\":11778:11782   */\n      dup2\n        /* \"#utility.yul\":11774:11794   */\n      sub\n        /* \"#utility.yul\":11770:11771   */\n      0x00\n        /* \"#utility.yul\":11759:11768   */\n      dup4\n        /* \"#utility.yul\":11755:11772   */\n      add\n        /* \"#utility.yul\":11748:11795   */\n      mstore\n        /* \"#utility.yul\":11812:11943   */\n      tag_224\n        /* \"#utility.yul\":11938:11942   */\n      dup2\n        /* \"#utility.yul\":11812:11943   */\n      tag_96\n      jump\t// in\n    tag_224:\n        /* \"#utility.yul\":11804:11943   */\n      swap1\n      pop\n        /* \"#utility.yul\":11531:11950   */\n      swap2\n      swap1\n      pop\n      jump\t// out\n        /* \"#utility.yul\":11956:12126   */\n    tag_97:\n        /* \"#utility.yul\":12096:12118   */\n      0x417373657420616c726561647920657869737473000000000000000000000000\n        /* \"#utility.yul\":12092:12093   */\n      0x00\n        /* \"#utility.yul\":12084:12090   */\n      dup3\n        /* \"#utility.yul\":12080:12094   */\n      add\n        /* \"#utility.yul\":12073:12119   */\n      mstore\n        /* \"#utility.yul\":11956:12126   */\n      pop\n      jump\t// out\n        /* \"#utility.yul\":12132:12498   */\n    tag_98:\n        /* \"#utility.yul\":12274:12277   */\n      0x00\n        /* \"#utility.yul\":12295:12362   */\n      tag_227\n        /* \"#utility.yul\":12359:12361   */\n      0x14\n        /* \"#utility.yul\":12354:12357   */\n      dup4\n        /* \"#utility.yul\":12295:12362   */\n      tag_83\n      jump\t// in\n    tag_227:\n        /* \"#utility.yul\":12288:12362   */\n      swap2\n      pop\n        /* \"#utility.yul\":12371:12464   */\n      tag_228\n        /* \"#utility.yul\":12460:12463   */\n      dup3\n        /* \"#utility.yul\":12371:12464   */\n      tag_97\n      jump\t// in\n    tag_228:\n        /* \"#utility.yul\":12489:12491   */\n      0x20\n        /* \"#utility.yul\":12484:12487   */\n      dup3\n        /* \"#utility.yul\":12480:12492   */\n      add\n        /* \"#utility.yul\":12473:12492   */\n      swap1\n      pop\n        /* \"#utility.yul\":12132:12498   */\n      swap2\n      swap1\n      pop\n      jump\t// out\n        /* \"#utility.yul\":12504:12923   */\n    tag_46:\n        /* \"#utility.yul\":12670:12674   */\n      0x00\n        /* \"#utility.yul\":12708:12710   */\n      0x20\n        /* \"#utility.yul\":12697:12706   */\n      dup3\n        /* \"#utility.yul\":12693:12711   */\n      add\n        /* \"#utility.yul\":12685:12711   */\n      swap1\n      pop\n        /* \"#utility.yul\":12757:12766   */\n      dup2\n        /* \"#utility.yul\":12751:12755   */\n      dup2\n        /* \"#utility.yul\":12747:12767   */\n      sub\n        /* \"#utility.yul\":12743:12744   */\n      0x00\n        /* \"#utility.yul\":12732:12741   */\n      dup4\n        /* \"#utility.yul\":12728:12745   */\n      add\n        /* \"#utility.yul\":12721:12768   */\n      mstore\n        /* \"#utility.yul\":12785:12916   */\n      tag_230\n        /* \"#utility.yul\":12911:12915   */\n      dup2\n        /* \"#utility.yul\":12785:12916   */\n      tag_98\n      jump\t// in\n    tag_230:\n        /* \"#utility.yul\":12777:12916   */\n      swap1\n      pop\n        /* \"#utility.yul\":12504:12923   */\n      swap2\n      swap1\n      pop\n      jump\t// out\n\n    auxdata: 0xa26469706673582212203061961dcd4170b2076e7dbb6da7ab33365ac232a31f3b47dce6d14829ffc30064736f6c634300081a0033\n}\n",
				"bytecode": {
					"linkReferences": {},
					"object": "6080604052348015600e575f80fd5b50610cd08061001c5f395ff3fe608060405234801561000f575f80fd5b506004361061004a575f3560e01c8063859362281461004e578063abc4544e14610080578063cee8ba471461009c578063f66a1b71146100b8575b5f80fd5b610068600480360381019061006391906107a4565b6100e8565b6040516100779392919061085c565b60405180910390f35b61009a600480360381019061009591906107a4565b610150565b005b6100b660048036038101906100b191906108e5565b610322565b005b6100d260048036038101906100cd91906107a4565b610501565b6040516100df9190610951565b60405180910390f35b5f818051602081018201805184825260208301602085012081835280955050505050505f91509050805f015f9054906101000a900473ffffffffffffffffffffffffffffffffffffffff1690806001015490806002015f9054906101000a900460ff16905083565b5f808260405161016091906109bc565b908152602001604051809103902090505f73ffffffffffffffffffffffffffffffffffffffff16815f015f9054906101000a900473ffffffffffffffffffffffffffffffffffffffff1673ffffffffffffffffffffffffffffffffffffffff1603610200576040517f08c379a00000000000000000000000000000000000000000000000000000000081526004016101f790610a2c565b60405180910390fd5b5f815f015f9054906101000a900473ffffffffffffffffffffffffffffffffffffffff1690505f808273ffffffffffffffffffffffffffffffffffffffff1663feaf968c6040518163ffffffff1660e01b815260040160a060405180830381865afa158015610271573d5f803e3d5ffd5b505050506040513d601f19601f820116820180604052508101906102959190610ad0565b50935050925050836002015f9054906101000a900460ff161580156102be575083600101548212155b1561031b576001846002015f6101000a81548160ff0219169083151502179055507fc4d07dac08b92039a7fae337838fc362d5d62827c43a5ed8b66c8aa7f01b940b85838360405161031293929190610b8e565b60405180910390a15b5050505050565b5f73ffffffffffffffffffffffffffffffffffffffff168273ffffffffffffffffffffffffffffffffffffffff1603610390576040517f08c379a000000000000000000000000000000000000000000000000000000000815260040161038790610c14565b60405180910390fd5b5f73ffffffffffffffffffffffffffffffffffffffff165f846040516103b691906109bc565b90815260200160405180910390205f015f9054906101000a900473ffffffffffffffffffffffffffffffffffffffff1673ffffffffffffffffffffffffffffffffffffffff161461043c576040517f08c379a000000000000000000000000000000000000000000000000000000000815260040161043390610c7c565b60405180910390fd5b60405180606001604052808373ffffffffffffffffffffffffffffffffffffffff1681526020018281526020015f15158152505f8460405161047e91906109bc565b90815260200160405180910390205f820151815f015f6101000a81548173ffffffffffffffffffffffffffffffffffffffff021916908373ffffffffffffffffffffffffffffffffffffffff160217905550602082015181600101556040820151816002015f6101000a81548160ff021916908315150217905550905050505050565b5f805f8360405161051291906109bc565b908152602001604051809103902090505f73ffffffffffffffffffffffffffffffffffffffff16815f015f9054906101000a900473ffffffffffffffffffffffffffffffffffffffff1673ffffffffffffffffffffffffffffffffffffffff16036105b2576040517f08c379a00000000000000000000000000000000000000000000000000000000081526004016105a990610a2c565b60405180910390fd5b5f815f015f9054906101000a900473ffffffffffffffffffffffffffffffffffffffff1690505f8173ffffffffffffffffffffffffffffffffffffffff1663feaf968c6040518163ffffffff1660e01b815260040160a060405180830381865afa158015610622573d5f803e3d5ffd5b505050506040513d601f19601f820116820180604052508101906106469190610ad0565b505050915050809350505050919050565b5f604051905090565b5f80fd5b5f80fd5b5f80fd5b5f80fd5b5f601f19601f8301169050919050565b7f4e487b71000000000000000000000000000000000000000000000000000000005f52604160045260245ffd5b6106b682610670565b810181811067ffffffffffffffff821117156106d5576106d4610680565b5b80604052505050565b5f6106e7610657565b90506106f382826106ad565b919050565b5f67ffffffffffffffff82111561071257610711610680565b5b61071b82610670565b9050602081019050919050565b828183375f83830152505050565b5f610748610743846106f8565b6106de565b9050828152602081018484840111156107645761076361066c565b5b61076f848285610728565b509392505050565b5f82601f83011261078b5761078a610668565b5b813561079b848260208601610736565b91505092915050565b5f602082840312156107b9576107b8610660565b5b5f82013567ffffffffffffffff8111156107d6576107d5610664565b5b6107e284828501610777565b91505092915050565b5f73ffffffffffffffffffffffffffffffffffffffff82169050919050565b5f610814826107eb565b9050919050565b6108248161080a565b82525050565b5f819050919050565b61083c8161082a565b82525050565b5f8115159050919050565b61085681610842565b82525050565b5f60608201905061086f5f83018661081b565b61087c6020830185610833565b610889604083018461084d565b949350505050565b61089a8161080a565b81146108a4575f80fd5b50565b5f813590506108b581610891565b92915050565b6108c48161082a565b81146108ce575f80fd5b50565b5f813590506108df816108bb565b92915050565b5f805f606084860312156108fc576108fb610660565b5b5f84013567ffffffffffffffff81111561091957610918610664565b5b61092586828701610777565b9350506020610936868287016108a7565b9250506040610947868287016108d1565b9150509250925092565b5f6020820190506109645f830184610833565b92915050565b5f81519050919050565b5f81905092915050565b8281835e5f83830152505050565b5f6109968261096a565b6109a08185610974565b93506109b081856020860161097e565b80840191505092915050565b5f6109c7828461098c565b915081905092915050565b5f82825260208201905092915050565b7f4173736574206e6f7420666f756e6400000000000000000000000000000000005f82015250565b5f610a16600f836109d2565b9150610a21826109e2565b602082019050919050565b5f6020820190508181035f830152610a4381610a0a565b9050919050565b5f69ffffffffffffffffffff82169050919050565b610a6881610a4a565b8114610a72575f80fd5b50565b5f81519050610a8381610a5f565b92915050565b5f81519050610a97816108bb565b92915050565b5f819050919050565b610aaf81610a9d565b8114610ab9575f80fd5b50565b5f81519050610aca81610aa6565b92915050565b5f805f805f60a08688031215610ae957610ae8610660565b5b5f610af688828901610a75565b9550506020610b0788828901610a89565b9450506040610b1888828901610abc565b9350506060610b2988828901610abc565b9250506080610b3a88828901610a75565b9150509295509295909350565b5f610b518261096a565b610b5b81856109d2565b9350610b6b81856020860161097e565b610b7481610670565b840191505092915050565b610b8881610a9d565b82525050565b5f6060820190508181035f830152610ba68186610b47565b9050610bb56020830185610833565b610bc26040830184610b7f565b949350505050565b7f496e76616c6964207072696365206665656420616464726573730000000000005f82015250565b5f610bfe601a836109d2565b9150610c0982610bca565b602082019050919050565b5f6020820190508181035f830152610c2b81610bf2565b9050919050565b7f417373657420616c7265616479206578697374730000000000000000000000005f82015250565b5f610c666014836109d2565b9150610c7182610c32565b602082019050919050565b5f6020820190508181035f830152610c9381610c5a565b905091905056fea26469706673582212203061961dcd4170b2076e7dbb6da7ab33365ac232a31f3b47dce6d14829ffc30064736f6c634300081a0033",
					"opcodes": "PUSH1 0x80 PUSH1 0x40 MSTORE CALLVALUE DUP1 ISZERO PUSH1 0xE JUMPI PUSH0 DUP1 REVERT JUMPDEST POP PUSH2 0xCD0 DUP1 PUSH2 0x1C PUSH0 CODECOPY PUSH0 RETURN INVALID PUSH1 0x80 PUSH1 0x40 MSTORE CALLVALUE DUP1 ISZERO PUSH2 0xF JUMPI PUSH0 DUP1 REVERT JUMPDEST POP PUSH1 0x4 CALLDATASIZE LT PUSH2 0x4A JUMPI PUSH0 CALLDATALOAD PUSH1 0xE0 SHR DUP1 PUSH4 0x85936228 EQ PUSH2 0x4E JUMPI DUP1 PUSH4 0xABC4544E EQ PUSH2 0x80 JUMPI DUP1 PUSH4 0xCEE8BA47 EQ PUSH2 0x9C JUMPI DUP1 PUSH4 0xF66A1B71 EQ PUSH2 0xB8 JUMPI JUMPDEST PUSH0 DUP1 REVERT JUMPDEST PUSH2 0x68 PUSH1 0x4 DUP1 CALLDATASIZE SUB DUP2 ADD SWAP1 PUSH2 0x63 SWAP2 SWAP1 PUSH2 0x7A4 JUMP JUMPDEST PUSH2 0xE8 JUMP JUMPDEST PUSH1 0x40 MLOAD PUSH2 0x77 SWAP4 SWAP3 SWAP2 SWAP1 PUSH2 0x85C JUMP JUMPDEST PUSH1 0x40 MLOAD DUP1 SWAP2 SUB SWAP1 RETURN JUMPDEST PUSH2 0x9A PUSH1 0x4 DUP1 CALLDATASIZE SUB DUP2 ADD SWAP1 PUSH2 0x95 SWAP2 SWAP1 PUSH2 0x7A4 JUMP JUMPDEST PUSH2 0x150 JUMP JUMPDEST STOP JUMPDEST PUSH2 0xB6 PUSH1 0x4 DUP1 CALLDATASIZE SUB DUP2 ADD SWAP1 PUSH2 0xB1 SWAP2 SWAP1 PUSH2 0x8E5 JUMP JUMPDEST PUSH2 0x322 JUMP JUMPDEST STOP JUMPDEST PUSH2 0xD2 PUSH1 0x4 DUP1 CALLDATASIZE SUB DUP2 ADD SWAP1 PUSH2 0xCD SWAP2 SWAP1 PUSH2 0x7A4 JUMP JUMPDEST PUSH2 0x501 JUMP JUMPDEST PUSH1 0x40 MLOAD PUSH2 0xDF SWAP2 SWAP1 PUSH2 0x951 JUMP JUMPDEST PUSH1 0x40 MLOAD DUP1 SWAP2 SUB SWAP1 RETURN JUMPDEST PUSH0 DUP2 DUP1 MLOAD PUSH1 0x20 DUP2 ADD DUP3 ADD DUP1 MLOAD DUP5 DUP3 MSTORE PUSH1 0x20 DUP4 ADD PUSH1 0x20 DUP6 ADD KECCAK256 DUP2 DUP4 MSTORE DUP1 SWAP6 POP POP POP POP POP POP PUSH0 SWAP2 POP SWAP1 POP DUP1 PUSH0 ADD PUSH0 SWAP1 SLOAD SWAP1 PUSH2 0x100 EXP SWAP1 DIV PUSH20 0xFFFFFFFFFFFFFFFFFFFFFFFFFFFFFFFFFFFFFFFF AND SWAP1 DUP1 PUSH1 0x1 ADD SLOAD SWAP1 DUP1 PUSH1 0x2 ADD PUSH0 SWAP1 SLOAD SWAP1 PUSH2 0x100 EXP SWAP1 DIV PUSH1 0xFF AND SWAP1 POP DUP4 JUMP JUMPDEST PUSH0 DUP1 DUP3 PUSH1 0x40 MLOAD PUSH2 0x160 SWAP2 SWAP1 PUSH2 0x9BC JUMP JUMPDEST SWAP1 DUP2 MSTORE PUSH1 0x20 ADD PUSH1 0x40 MLOAD DUP1 SWAP2 SUB SWAP1 KECCAK256 SWAP1 POP PUSH0 PUSH20 0xFFFFFFFFFFFFFFFFFFFFFFFFFFFFFFFFFFFFFFFF AND DUP2 PUSH0 ADD PUSH0 SWAP1 SLOAD SWAP1 PUSH2 0x100 EXP SWAP1 DIV PUSH20 0xFFFFFFFFFFFFFFFFFFFFFFFFFFFFFFFFFFFFFFFF AND PUSH20 0xFFFFFFFFFFFFFFFFFFFFFFFFFFFFFFFFFFFFFFFF AND SUB PUSH2 0x200 JUMPI PUSH1 0x40 MLOAD PUSH32 0x8C379A000000000000000000000000000000000000000000000000000000000 DUP2 MSTORE PUSH1 0x4 ADD PUSH2 0x1F7 SWAP1 PUSH2 0xA2C JUMP JUMPDEST PUSH1 0x40 MLOAD DUP1 SWAP2 SUB SWAP1 REVERT JUMPDEST PUSH0 DUP2 PUSH0 ADD PUSH0 SWAP1 SLOAD SWAP1 PUSH2 0x100 EXP SWAP1 DIV PUSH20 0xFFFFFFFFFFFFFFFFFFFFFFFFFFFFFFFFFFFFFFFF AND SWAP1 POP PUSH0 DUP1 DUP3 PUSH20 0xFFFFFFFFFFFFFFFFFFFFFFFFFFFFFFFFFFFFFFFF AND PUSH4 0xFEAF968C PUSH1 0x40 MLOAD DUP2 PUSH4 0xFFFFFFFF AND PUSH1 0xE0 SHL DUP2 MSTORE PUSH1 0x4 ADD PUSH1 0xA0 PUSH1 0x40 MLOAD DUP1 DUP4 SUB DUP2 DUP7 GAS STATICCALL ISZERO DUP1 ISZERO PUSH2 0x271 JUMPI RETURNDATASIZE PUSH0 DUP1 RETURNDATACOPY RETURNDATASIZE PUSH0 REVERT JUMPDEST POP POP POP POP PUSH1 0x40 MLOAD RETURNDATASIZE PUSH1 0x1F NOT PUSH1 0x1F DUP3 ADD AND DUP3 ADD DUP1 PUSH1 0x40 MSTORE POP DUP2 ADD SWAP1 PUSH2 0x295 SWAP2 SWAP1 PUSH2 0xAD0 JUMP JUMPDEST POP SWAP4 POP POP SWAP3 POP POP DUP4 PUSH1 0x2 ADD PUSH0 SWAP1 SLOAD SWAP1 PUSH2 0x100 EXP SWAP1 DIV PUSH1 0xFF AND ISZERO DUP1 ISZERO PUSH2 0x2BE JUMPI POP DUP4 PUSH1 0x1 ADD SLOAD DUP3 SLT ISZERO JUMPDEST ISZERO PUSH2 0x31B JUMPI PUSH1 0x1 DUP5 PUSH1 0x2 ADD PUSH0 PUSH2 0x100 EXP DUP2 SLOAD DUP2 PUSH1 0xFF MUL NOT AND SWAP1 DUP4 ISZERO ISZERO MUL OR SWAP1 SSTORE POP PUSH32 0xC4D07DAC08B92039A7FAE337838FC362D5D62827C43A5ED8B66C8AA7F01B940B DUP6 DUP4 DUP4 PUSH1 0x40 MLOAD PUSH2 0x312 SWAP4 SWAP3 SWAP2 SWAP1 PUSH2 0xB8E JUMP JUMPDEST PUSH1 0x40 MLOAD DUP1 SWAP2 SUB SWAP1 LOG1 JUMPDEST POP POP POP POP POP JUMP JUMPDEST PUSH0 PUSH20 0xFFFFFFFFFFFFFFFFFFFFFFFFFFFFFFFFFFFFFFFF AND DUP3 PUSH20 0xFFFFFFFFFFFFFFFFFFFFFFFFFFFFFFFFFFFFFFFF AND SUB PUSH2 0x390 JUMPI PUSH1 0x40 MLOAD PUSH32 0x8C379A000000000000000000000000000000000000000000000000000000000 DUP2 MSTORE PUSH1 0x4 ADD PUSH2 0x387 SWAP1 PUSH2 0xC14 JUMP JUMPDEST PUSH1 0x40 MLOAD DUP1 SWAP2 SUB SWAP1 REVERT JUMPDEST PUSH0 PUSH20 0xFFFFFFFFFFFFFFFFFFFFFFFFFFFFFFFFFFFFFFFF AND PUSH0 DUP5 PUSH1 0x40 MLOAD PUSH2 0x3B6 SWAP2 SWAP1 PUSH2 0x9BC JUMP JUMPDEST SWAP1 DUP2 MSTORE PUSH1 0x20 ADD PUSH1 0x40 MLOAD DUP1 SWAP2 SUB SWAP1 KECCAK256 PUSH0 ADD PUSH0 SWAP1 SLOAD SWAP1 PUSH2 0x100 EXP SWAP1 DIV PUSH20 0xFFFFFFFFFFFFFFFFFFFFFFFFFFFFFFFFFFFFFFFF AND PUSH20 0xFFFFFFFFFFFFFFFFFFFFFFFFFFFFFFFFFFFFFFFF AND EQ PUSH2 0x43C JUMPI PUSH1 0x40 MLOAD PUSH32 0x8C379A000000000000000000000000000000000000000000000000000000000 DUP2 MSTORE PUSH1 0x4 ADD PUSH2 0x433 SWAP1 PUSH2 0xC7C JUMP JUMPDEST PUSH1 0x40 MLOAD DUP1 SWAP2 SUB SWAP1 REVERT JUMPDEST PUSH1 0x40 MLOAD DUP1 PUSH1 0x60 ADD PUSH1 0x40 MSTORE DUP1 DUP4 PUSH20 0xFFFFFFFFFFFFFFFFFFFFFFFFFFFFFFFFFFFFFFFF AND DUP2 MSTORE PUSH1 0x20 ADD DUP3 DUP2 MSTORE PUSH1 0x20 ADD PUSH0 ISZERO ISZERO DUP2 MSTORE POP PUSH0 DUP5 PUSH1 0x40 MLOAD PUSH2 0x47E SWAP2 SWAP1 PUSH2 0x9BC JUMP JUMPDEST SWAP1 DUP2 MSTORE PUSH1 0x20 ADD PUSH1 0x40 MLOAD DUP1 SWAP2 SUB SWAP1 KECCAK256 PUSH0 DUP3 ADD MLOAD DUP2 PUSH0 ADD PUSH0 PUSH2 0x100 EXP DUP2 SLOAD DUP2 PUSH20 0xFFFFFFFFFFFFFFFFFFFFFFFFFFFFFFFFFFFFFFFF MUL NOT AND SWAP1 DUP4 PUSH20 0xFFFFFFFFFFFFFFFFFFFFFFFFFFFFFFFFFFFFFFFF AND MUL OR SWAP1 SSTORE POP PUSH1 0x20 DUP3 ADD MLOAD DUP2 PUSH1 0x1 ADD SSTORE PUSH1 0x40 DUP3 ADD MLOAD DUP2 PUSH1 0x2 ADD PUSH0 PUSH2 0x100 EXP DUP2 SLOAD DUP2 PUSH1 0xFF MUL NOT AND SWAP1 DUP4 ISZERO ISZERO MUL OR SWAP1 SSTORE POP SWAP1 POP POP POP POP POP JUMP JUMPDEST PUSH0 DUP1 PUSH0 DUP4 PUSH1 0x40 MLOAD PUSH2 0x512 SWAP2 SWAP1 PUSH2 0x9BC JUMP JUMPDEST SWAP1 DUP2 MSTORE PUSH1 0x20 ADD PUSH1 0x40 MLOAD DUP1 SWAP2 SUB SWAP1 KECCAK256 SWAP1 POP PUSH0 PUSH20 0xFFFFFFFFFFFFFFFFFFFFFFFFFFFFFFFFFFFFFFFF AND DUP2 PUSH0 ADD PUSH0 SWAP1 SLOAD SWAP1 PUSH2 0x100 EXP SWAP1 DIV PUSH20 0xFFFFFFFFFFFFFFFFFFFFFFFFFFFFFFFFFFFFFFFF AND PUSH20 0xFFFFFFFFFFFFFFFFFFFFFFFFFFFFFFFFFFFFFFFF AND SUB PUSH2 0x5B2 JUMPI PUSH1 0x40 MLOAD PUSH32 0x8C379A000000000000000000000000000000000000000000000000000000000 DUP2 MSTORE PUSH1 0x4 ADD PUSH2 0x5A9 SWAP1 PUSH2 0xA2C JUMP JUMPDEST PUSH1 0x40 MLOAD DUP1 SWAP2 SUB SWAP1 REVERT JUMPDEST PUSH0 DUP2 PUSH0 ADD PUSH0 SWAP1 SLOAD SWAP1 PUSH2 0x100 EXP SWAP1 DIV PUSH20 0xFFFFFFFFFFFFFFFFFFFFFFFFFFFFFFFFFFFFFFFF AND SWAP1 POP PUSH0 DUP2 PUSH20 0xFFFFFFFFFFFFFFFFFFFFFFFFFFFFFFFFFFFFFFFF AND PUSH4 0xFEAF968C PUSH1 0x40 MLOAD DUP2 PUSH4 0xFFFFFFFF AND PUSH1 0xE0 SHL DUP2 MSTORE PUSH1 0x4 ADD PUSH1 0xA0 PUSH1 0x40 MLOAD DUP1 DUP4 SUB DUP2 DUP7 GAS STATICCALL ISZERO DUP1 ISZERO PUSH2 0x622 JUMPI RETURNDATASIZE PUSH0 DUP1 RETURNDATACOPY RETURNDATASIZE PUSH0 REVERT JUMPDEST POP POP POP POP PUSH1 0x40 MLOAD RETURNDATASIZE PUSH1 0x1F NOT PUSH1 0x1F DUP3 ADD AND DUP3 ADD DUP1 PUSH1 0x40 MSTORE POP DUP2 ADD SWAP1 PUSH2 0x646 SWAP2 SWAP1 PUSH2 0xAD0 JUMP JUMPDEST POP POP POP SWAP2 POP POP DUP1 SWAP4 POP POP POP POP SWAP2 SWAP1 POP JUMP JUMPDEST PUSH0 PUSH1 0x40 MLOAD SWAP1 POP SWAP1 JUMP JUMPDEST PUSH0 DUP1 REVERT JUMPDEST PUSH0 DUP1 REVERT JUMPDEST PUSH0 DUP1 REVERT JUMPDEST PUSH0 DUP1 REVERT JUMPDEST PUSH0 PUSH1 0x1F NOT PUSH1 0x1F DUP4 ADD AND SWAP1 POP SWAP2 SWAP1 POP JUMP JUMPDEST PUSH32 0x4E487B7100000000000000000000000000000000000000000000000000000000 PUSH0 MSTORE PUSH1 0x41 PUSH1 0x4 MSTORE PUSH1 0x24 PUSH0 REVERT JUMPDEST PUSH2 0x6B6 DUP3 PUSH2 0x670 JUMP JUMPDEST DUP2 ADD DUP2 DUP2 LT PUSH8 0xFFFFFFFFFFFFFFFF DUP3 GT OR ISZERO PUSH2 0x6D5 JUMPI PUSH2 0x6D4 PUSH2 0x680 JUMP JUMPDEST JUMPDEST DUP1 PUSH1 0x40 MSTORE POP POP POP JUMP JUMPDEST PUSH0 PUSH2 0x6E7 PUSH2 0x657 JUMP JUMPDEST SWAP1 POP PUSH2 0x6F3 DUP3 DUP3 PUSH2 0x6AD JUMP JUMPDEST SWAP2 SWAP1 POP JUMP JUMPDEST PUSH0 PUSH8 0xFFFFFFFFFFFFFFFF DUP3 GT ISZERO PUSH2 0x712 JUMPI PUSH2 0x711 PUSH2 0x680 JUMP JUMPDEST JUMPDEST PUSH2 0x71B DUP3 PUSH2 0x670 JUMP JUMPDEST SWAP1 POP PUSH1 0x20 DUP2 ADD SWAP1 POP SWAP2 SWAP1 POP JUMP JUMPDEST DUP3 DUP2 DUP4 CALLDATACOPY PUSH0 DUP4 DUP4 ADD MSTORE POP POP POP JUMP JUMPDEST PUSH0 PUSH2 0x748 PUSH2 0x743 DUP5 PUSH2 0x6F8 JUMP JUMPDEST PUSH2 0x6DE JUMP JUMPDEST SWAP1 POP DUP3 DUP2 MSTORE PUSH1 0x20 DUP2 ADD DUP5 DUP5 DUP5 ADD GT ISZERO PUSH2 0x764 JUMPI PUSH2 0x763 PUSH2 0x66C JUMP JUMPDEST JUMPDEST PUSH2 0x76F DUP5 DUP3 DUP6 PUSH2 0x728 JUMP JUMPDEST POP SWAP4 SWAP3 POP POP POP JUMP JUMPDEST PUSH0 DUP3 PUSH1 0x1F DUP4 ADD SLT PUSH2 0x78B JUMPI PUSH2 0x78A PUSH2 0x668 JUMP JUMPDEST JUMPDEST DUP2 CALLDATALOAD PUSH2 0x79B DUP5 DUP3 PUSH1 0x20 DUP7 ADD PUSH2 0x736 JUMP JUMPDEST SWAP2 POP POP SWAP3 SWAP2 POP POP JUMP JUMPDEST PUSH0 PUSH1 0x20 DUP3 DUP5 SUB SLT ISZERO PUSH2 0x7B9 JUMPI PUSH2 0x7B8 PUSH2 0x660 JUMP JUMPDEST JUMPDEST PUSH0 DUP3 ADD CALLDATALOAD PUSH8 0xFFFFFFFFFFFFFFFF DUP2 GT ISZERO PUSH2 0x7D6 JUMPI PUSH2 0x7D5 PUSH2 0x664 JUMP JUMPDEST JUMPDEST PUSH2 0x7E2 DUP5 DUP3 DUP6 ADD PUSH2 0x777 JUMP JUMPDEST SWAP2 POP POP SWAP3 SWAP2 POP POP JUMP JUMPDEST PUSH0 PUSH20 0xFFFFFFFFFFFFFFFFFFFFFFFFFFFFFFFFFFFFFFFF DUP3 AND SWAP1 POP SWAP2 SWAP1 POP JUMP JUMPDEST PUSH0 PUSH2 0x814 DUP3 PUSH2 0x7EB JUMP JUMPDEST SWAP1 POP SWAP2 SWAP1 POP JUMP JUMPDEST PUSH2 0x824 DUP2 PUSH2 0x80A JUMP JUMPDEST DUP3 MSTORE POP POP JUMP JUMPDEST PUSH0 DUP2 SWAP1 POP SWAP2 SWAP1 POP JUMP JUMPDEST PUSH2 0x83C DUP2 PUSH2 0x82A JUMP JUMPDEST DUP3 MSTORE POP POP JUMP JUMPDEST PUSH0 DUP2 ISZERO ISZERO SWAP1 POP SWAP2 SWAP1 POP JUMP JUMPDEST PUSH2 0x856 DUP2 PUSH2 0x842 JUMP JUMPDEST DUP3 MSTORE POP POP JUMP JUMPDEST PUSH0 PUSH1 0x60 DUP3 ADD SWAP1 POP PUSH2 0x86F PUSH0 DUP4 ADD DUP7 PUSH2 0x81B JUMP JUMPDEST PUSH2 0x87C PUSH1 0x20 DUP4 ADD DUP6 PUSH2 0x833 JUMP JUMPDEST PUSH2 0x889 PUSH1 0x40 DUP4 ADD DUP5 PUSH2 0x84D JUMP JUMPDEST SWAP5 SWAP4 POP POP POP POP JUMP JUMPDEST PUSH2 0x89A DUP2 PUSH2 0x80A JUMP JUMPDEST DUP2 EQ PUSH2 0x8A4 JUMPI PUSH0 DUP1 REVERT JUMPDEST POP JUMP JUMPDEST PUSH0 DUP2 CALLDATALOAD SWAP1 POP PUSH2 0x8B5 DUP2 PUSH2 0x891 JUMP JUMPDEST SWAP3 SWAP2 POP POP JUMP JUMPDEST PUSH2 0x8C4 DUP2 PUSH2 0x82A JUMP JUMPDEST DUP2 EQ PUSH2 0x8CE JUMPI PUSH0 DUP1 REVERT JUMPDEST POP JUMP JUMPDEST PUSH0 DUP2 CALLDATALOAD SWAP1 POP PUSH2 0x8DF DUP2 PUSH2 0x8BB JUMP JUMPDEST SWAP3 SWAP2 POP POP JUMP JUMPDEST PUSH0 DUP1 PUSH0 PUSH1 0x60 DUP5 DUP7 SUB SLT ISZERO PUSH2 0x8FC JUMPI PUSH2 0x8FB PUSH2 0x660 JUMP JUMPDEST JUMPDEST PUSH0 DUP5 ADD CALLDATALOAD PUSH8 0xFFFFFFFFFFFFFFFF DUP2 GT ISZERO PUSH2 0x919 JUMPI PUSH2 0x918 PUSH2 0x664 JUMP JUMPDEST JUMPDEST PUSH2 0x925 DUP7 DUP3 DUP8 ADD PUSH2 0x777 JUMP JUMPDEST SWAP4 POP POP PUSH1 0x20 PUSH2 0x936 DUP7 DUP3 DUP8 ADD PUSH2 0x8A7 JUMP JUMPDEST SWAP3 POP POP PUSH1 0x40 PUSH2 0x947 DUP7 DUP3 DUP8 ADD PUSH2 0x8D1 JUMP JUMPDEST SWAP2 POP POP SWAP3 POP SWAP3 POP SWAP3 JUMP JUMPDEST PUSH0 PUSH1 0x20 DUP3 ADD SWAP1 POP PUSH2 0x964 PUSH0 DUP4 ADD DUP5 PUSH2 0x833 JUMP JUMPDEST SWAP3 SWAP2 POP POP JUMP JUMPDEST PUSH0 DUP2 MLOAD SWAP1 POP SWAP2 SWAP1 POP JUMP JUMPDEST PUSH0 DUP2 SWAP1 POP SWAP3 SWAP2 POP POP JUMP JUMPDEST DUP3 DUP2 DUP4 MCOPY PUSH0 DUP4 DUP4 ADD MSTORE POP POP POP JUMP JUMPDEST PUSH0 PUSH2 0x996 DUP3 PUSH2 0x96A JUMP JUMPDEST PUSH2 0x9A0 DUP2 DUP6 PUSH2 0x974 JUMP JUMPDEST SWAP4 POP PUSH2 0x9B0 DUP2 DUP6 PUSH1 0x20 DUP7 ADD PUSH2 0x97E JUMP JUMPDEST DUP1 DUP5 ADD SWAP2 POP POP SWAP3 SWAP2 POP POP JUMP JUMPDEST PUSH0 PUSH2 0x9C7 DUP3 DUP5 PUSH2 0x98C JUMP JUMPDEST SWAP2 POP DUP2 SWAP1 POP SWAP3 SWAP2 POP POP JUMP JUMPDEST PUSH0 DUP3 DUP3 MSTORE PUSH1 0x20 DUP3 ADD SWAP1 POP SWAP3 SWAP2 POP POP JUMP JUMPDEST PUSH32 0x4173736574206E6F7420666F756E640000000000000000000000000000000000 PUSH0 DUP3 ADD MSTORE POP JUMP JUMPDEST PUSH0 PUSH2 0xA16 PUSH1 0xF DUP4 PUSH2 0x9D2 JUMP JUMPDEST SWAP2 POP PUSH2 0xA21 DUP3 PUSH2 0x9E2 JUMP JUMPDEST PUSH1 0x20 DUP3 ADD SWAP1 POP SWAP2 SWAP1 POP JUMP JUMPDEST PUSH0 PUSH1 0x20 DUP3 ADD SWAP1 POP DUP2 DUP2 SUB PUSH0 DUP4 ADD MSTORE PUSH2 0xA43 DUP2 PUSH2 0xA0A JUMP JUMPDEST SWAP1 POP SWAP2 SWAP1 POP JUMP JUMPDEST PUSH0 PUSH10 0xFFFFFFFFFFFFFFFFFFFF DUP3 AND SWAP1 POP SWAP2 SWAP1 POP JUMP JUMPDEST PUSH2 0xA68 DUP2 PUSH2 0xA4A JUMP JUMPDEST DUP2 EQ PUSH2 0xA72 JUMPI PUSH0 DUP1 REVERT JUMPDEST POP JUMP JUMPDEST PUSH0 DUP2 MLOAD SWAP1 POP PUSH2 0xA83 DUP2 PUSH2 0xA5F JUMP JUMPDEST SWAP3 SWAP2 POP POP JUMP JUMPDEST PUSH0 DUP2 MLOAD SWAP1 POP PUSH2 0xA97 DUP2 PUSH2 0x8BB JUMP JUMPDEST SWAP3 SWAP2 POP POP JUMP JUMPDEST PUSH0 DUP2 SWAP1 POP SWAP2 SWAP1 POP JUMP JUMPDEST PUSH2 0xAAF DUP2 PUSH2 0xA9D JUMP JUMPDEST DUP2 EQ PUSH2 0xAB9 JUMPI PUSH0 DUP1 REVERT JUMPDEST POP JUMP JUMPDEST PUSH0 DUP2 MLOAD SWAP1 POP PUSH2 0xACA DUP2 PUSH2 0xAA6 JUMP JUMPDEST SWAP3 SWAP2 POP POP JUMP JUMPDEST PUSH0 DUP1 PUSH0 DUP1 PUSH0 PUSH1 0xA0 DUP7 DUP9 SUB SLT ISZERO PUSH2 0xAE9 JUMPI PUSH2 0xAE8 PUSH2 0x660 JUMP JUMPDEST JUMPDEST PUSH0 PUSH2 0xAF6 DUP9 DUP3 DUP10 ADD PUSH2 0xA75 JUMP JUMPDEST SWAP6 POP POP PUSH1 0x20 PUSH2 0xB07 DUP9 DUP3 DUP10 ADD PUSH2 0xA89 JUMP JUMPDEST SWAP5 POP POP PUSH1 0x40 PUSH2 0xB18 DUP9 DUP3 DUP10 ADD PUSH2 0xABC JUMP JUMPDEST SWAP4 POP POP PUSH1 0x60 PUSH2 0xB29 DUP9 DUP3 DUP10 ADD PUSH2 0xABC JUMP JUMPDEST SWAP3 POP POP PUSH1 0x80 PUSH2 0xB3A DUP9 DUP3 DUP10 ADD PUSH2 0xA75 JUMP JUMPDEST SWAP2 POP POP SWAP3 SWAP6 POP SWAP3 SWAP6 SWAP1 SWAP4 POP JUMP JUMPDEST PUSH0 PUSH2 0xB51 DUP3 PUSH2 0x96A JUMP JUMPDEST PUSH2 0xB5B DUP2 DUP6 PUSH2 0x9D2 JUMP JUMPDEST SWAP4 POP PUSH2 0xB6B DUP2 DUP6 PUSH1 0x20 DUP7 ADD PUSH2 0x97E JUMP JUMPDEST PUSH2 0xB74 DUP2 PUSH2 0x670 JUMP JUMPDEST DUP5 ADD SWAP2 POP POP SWAP3 SWAP2 POP POP JUMP JUMPDEST PUSH2 0xB88 DUP2 PUSH2 0xA9D JUMP JUMPDEST DUP3 MSTORE POP POP JUMP JUMPDEST PUSH0 PUSH1 0x60 DUP3 ADD SWAP1 POP DUP2 DUP2 SUB PUSH0 DUP4 ADD MSTORE PUSH2 0xBA6 DUP2 DUP7 PUSH2 0xB47 JUMP JUMPDEST SWAP1 POP PUSH2 0xBB5 PUSH1 0x20 DUP4 ADD DUP6 PUSH2 0x833 JUMP JUMPDEST PUSH2 0xBC2 PUSH1 0x40 DUP4 ADD DUP5 PUSH2 0xB7F JUMP JUMPDEST SWAP5 SWAP4 POP POP POP POP JUMP JUMPDEST PUSH32 0x496E76616C696420707269636520666565642061646472657373000000000000 PUSH0 DUP3 ADD MSTORE POP JUMP JUMPDEST PUSH0 PUSH2 0xBFE PUSH1 0x1A DUP4 PUSH2 0x9D2 JUMP JUMPDEST SWAP2 POP PUSH2 0xC09 DUP3 PUSH2 0xBCA JUMP JUMPDEST PUSH1 0x20 DUP3 ADD SWAP1 POP SWAP2 SWAP1 POP JUMP JUMPDEST PUSH0 PUSH1 0x20 DUP3 ADD SWAP1 POP DUP2 DUP2 SUB PUSH0 DUP4 ADD MSTORE PUSH2 0xC2B DUP2 PUSH2 0xBF2 JUMP JUMPDEST SWAP1 POP SWAP2 SWAP1 POP JUMP JUMPDEST PUSH32 0x417373657420616C726561647920657869737473000000000000000000000000 PUSH0 DUP3 ADD MSTORE POP JUMP JUMPDEST PUSH0 PUSH2 0xC66 PUSH1 0x14 DUP4 PUSH2 0x9D2 JUMP JUMPDEST SWAP2 POP PUSH2 0xC71 DUP3 PUSH2 0xC32 JUMP JUMPDEST PUSH1 0x20 DUP3 ADD SWAP1 POP SWAP2 SWAP1 POP JUMP JUMPDEST PUSH0 PUSH1 0x20 DUP3 ADD SWAP1 POP DUP2 DUP2 SUB PUSH0 DUP4 ADD MSTORE PUSH2 0xC93 DUP2 PUSH2 0xC5A JUMP JUMPDEST SWAP1 POP SWAP2 SWAP1 POP JUMP INVALID LOG2 PUSH5 0x6970667358 0x22 SLT KECCAK256 ADDRESS PUSH2 0x961D 0xCD COINBASE PUSH17 0xB2076E7DBB6DA7AB33365AC232A31F3B47 0xDC 0xE6 0xD1 BASEFEE 0x29 SELFDESTRUCT 0xC3 STOP PUSH5 0x736F6C6343 STOP ADDMOD BYTE STOP CALLER "
				},
				"gasEstimates": {
					"creation": {
						"codeDepositCost": "656000",
						"executionCost": "687",
						"totalCost": "656687"
					},
					"external": {
						"addAsset(string,address,int256)": "infinite",
						"assets(string)": "infinite",
						"checkPrice(string)": "infinite",
						"getLatestPrice(string)": "infinite"
					}
				},
				"methodIdentifiers": {
					"addAsset(string,address,int256)": "cee8ba47",
					"assets(string)": "85936228",
					"checkPrice(string)": "abc4544e",
					"getLatestPrice(string)": "f66a1b71"
				}
			},
			"storageLayout": {
				"storage": [
					{
						"astId": 60,
						"contract": "contracts/multiple_asset_fetch_sepolia/multiple_asset_fetch_sm.sol:PriceAlertSystem",
						"label": "assets",
						"offset": 0,
						"slot": "0",
						"type": "t_mapping(t_string_memory_ptr,t_struct(Asset)55_storage)"
					}
				],
				"types": {
					"t_address": {
						"encoding": "inplace",
						"label": "address",
						"numberOfBytes": "20"
					},
					"t_bool": {
						"encoding": "inplace",
						"label": "bool",
						"numberOfBytes": "1"
					},
					"t_int256": {
						"encoding": "inplace",
						"label": "int256",
						"numberOfBytes": "32"
					},
					"t_mapping(t_string_memory_ptr,t_struct(Asset)55_storage)": {
						"encoding": "mapping",
						"key": "t_string_memory_ptr",
						"label": "mapping(string => struct PriceAlertSystem.Asset)",
						"numberOfBytes": "32",
						"value": "t_struct(Asset)55_storage"
					},
					"t_string_memory_ptr": {
						"encoding": "bytes",
						"label": "string",
						"numberOfBytes": "32"
					},
					"t_struct(Asset)55_storage": {
						"encoding": "inplace",
						"label": "struct PriceAlertSystem.Asset",
						"members": [
							{
								"astId": 50,
								"contract": "contracts/multiple_asset_fetch_sepolia/multiple_asset_fetch_sm.sol:PriceAlertSystem",
								"label": "priceFeed",
								"offset": 0,
								"slot": "0",
								"type": "t_address"
							},
							{
								"astId": 52,
								"contract": "contracts/multiple_asset_fetch_sepolia/multiple_asset_fetch_sm.sol:PriceAlertSystem",
								"label": "priceThreshold",
								"offset": 0,
								"slot": "1",
								"type": "t_int256"
							},
							{
								"astId": 54,
								"contract": "contracts/multiple_asset_fetch_sepolia/multiple_asset_fetch_sm.sol:PriceAlertSystem",
								"label": "thresholdReached",
								"offset": 0,
								"slot": "2",
								"type": "t_bool"
							}
						],
						"numberOfBytes": "96"
					}
				}
			},
			"userdoc": {
				"kind": "user",
				"methods": {},
				"version": 1
			}
		}
	}
}