{
	"contracts/PriceAlarmTracking/AutomaticPriceLimitFlag.sol": {
		"PriceAlertSystem": {
			"abi": [
				{
					"anonymous": false,
					"inputs": [
						{
							"indexed": false,
							"internalType": "string",
							"name": "asset",
							"type": "string"
						},
						{
							"indexed": false,
							"internalType": "int256",
							"name": "price",
							"type": "int256"
						},
						{
							"indexed": false,
							"internalType": "uint256",
							"name": "timestamp",
							"type": "uint256"
						}
					],
					"name": "PriceLimitReached",
					"type": "event"
				},
				{
					"inputs": [
						{
							"internalType": "string",
							"name": "name",
							"type": "string"
						},
						{
							"internalType": "address",
							"name": "priceFeed",
							"type": "address"
						},
						{
							"internalType": "int256",
							"name": "priceLimit",
							"type": "int256"
						}
					],
					"name": "addAsset",
					"outputs": [],
					"stateMutability": "nonpayable",
					"type": "function"
				},
				{
					"inputs": [
						{
							"internalType": "string",
							"name": "",
							"type": "string"
						}
					],
					"name": "assets",
					"outputs": [
						{
							"internalType": "address",
							"name": "priceFeed",
							"type": "address"
						},
						{
							"internalType": "int256",
							"name": "priceLimit",
							"type": "int256"
						},
						{
							"internalType": "bool",
							"name": "priceLimitReached",
							"type": "bool"
						}
					],
					"stateMutability": "view",
					"type": "function"
				},
				{
					"inputs": [
						{
							"internalType": "string",
							"name": "name",
							"type": "string"
						}
					],
					"name": "checkPrice",
					"outputs": [],
					"stateMutability": "nonpayable",
					"type": "function"
				},
				{
					"inputs": [
						{
							"internalType": "string",
							"name": "name",
							"type": "string"
						}
					],
					"name": "getLatestPrice",
					"outputs": [
						{
							"internalType": "int256",
							"name": "",
							"type": "int256"
						}
					],
					"stateMutability": "view",
					"type": "function"
				},
				{
					"inputs": [
						{
							"internalType": "string",
							"name": "name",
							"type": "string"
						},
						{
							"internalType": "int256",
							"name": "newThreshold",
							"type": "int256"
						}
					],
					"name": "updateThreshold",
					"outputs": [],
					"stateMutability": "nonpayable",
					"type": "function"
				}
			],
			"devdoc": {
				"kind": "dev",
				"methods": {},
				"version": 1
			},
			"evm": {
				"assembly": "    /* \"contracts/PriceAlarmTracking/AutomaticPriceLimitFlag.sol\":135:2214  contract PriceAlertSystem {... */\n  mstore(0x40, 0x80)\n  callvalue\n  dup1\n  iszero\n  tag_1\n  jumpi\n  0x00\n  dup1\n  revert\ntag_1:\n  pop\n  dataSize(sub_0)\n  dup1\n  dataOffset(sub_0)\n  0x00\n  codecopy\n  0x00\n  return\nstop\n\nsub_0: assembly {\n        /* \"contracts/PriceAlarmTracking/AutomaticPriceLimitFlag.sol\":135:2214  contract PriceAlertSystem {... */\n      mstore(0x40, 0x80)\n      callvalue\n      dup1\n      iszero\n      tag_1\n      jumpi\n      0x00\n      dup1\n      revert\n    tag_1:\n      pop\n      jumpi(tag_2, lt(calldatasize, 0x04))\n      shr(0xe0, calldataload(0x00))\n      dup1\n      0x0fc5de48\n      eq\n      tag_3\n      jumpi\n      dup1\n      0x85936228\n      eq\n      tag_4\n      jumpi\n      dup1\n      0xabc4544e\n      eq\n      tag_5\n      jumpi\n      dup1\n      0xcee8ba47\n      eq\n      tag_6\n      jumpi\n      dup1\n      0xf66a1b71\n      eq\n      tag_7\n      jumpi\n    tag_2:\n      0x00\n      dup1\n      revert\n        /* \"contracts/PriceAlarmTracking/AutomaticPriceLimitFlag.sol\":750:1331  function updateThreshold(string memory name, int256 newThreshold) public {... */\n    tag_3:\n      tag_8\n      0x04\n      dup1\n      calldatasize\n      sub\n      dup2\n      add\n      swap1\n      tag_9\n      swap2\n      swap1\n      tag_10\n      jump\t// in\n    tag_9:\n      tag_11\n      jump\t// in\n    tag_8:\n      stop\n        /* \"contracts/PriceAlarmTracking/AutomaticPriceLimitFlag.sol\":279:317  mapping(string => Asset) public assets */\n    tag_4:\n      tag_12\n      0x04\n      dup1\n      calldatasize\n      sub\n      dup2\n      add\n      swap1\n      tag_13\n      swap2\n      swap1\n      tag_14\n      jump\t// in\n    tag_13:\n      tag_15\n      jump\t// in\n    tag_12:\n      mload(0x40)\n      tag_16\n      swap4\n      swap3\n      swap2\n      swap1\n      tag_17\n      jump\t// in\n    tag_16:\n      mload(0x40)\n      dup1\n      swap2\n      sub\n      swap1\n      return\n        /* \"contracts/PriceAlarmTracking/AutomaticPriceLimitFlag.sol\":1337:1846  function checkPrice(string memory name) public {... */\n    tag_5:\n      tag_18\n      0x04\n      dup1\n      calldatasize\n      sub\n      dup2\n      add\n      swap1\n      tag_19\n      swap2\n      swap1\n      tag_14\n      jump\t// in\n    tag_19:\n      tag_20\n      jump\t// in\n    tag_18:\n      stop\n        /* \"contracts/PriceAlarmTracking/AutomaticPriceLimitFlag.sol\":444:746  function addAsset(string memory name, address priceFeed, int256 priceLimit) public {... */\n    tag_6:\n      tag_21\n      0x04\n      dup1\n      calldatasize\n      sub\n      dup2\n      add\n      swap1\n      tag_22\n      swap2\n      swap1\n      tag_23\n      jump\t// in\n    tag_22:\n      tag_24\n      jump\t// in\n    tag_21:\n      stop\n        /* \"contracts/PriceAlarmTracking/AutomaticPriceLimitFlag.sol\":1857:2212  function getLatestPrice(string memory name) public view returns (int256) {... */\n    tag_7:\n      tag_25\n      0x04\n      dup1\n      calldatasize\n      sub\n      dup2\n      add\n      swap1\n      tag_26\n      swap2\n      swap1\n      tag_14\n      jump\t// in\n    tag_26:\n      tag_27\n      jump\t// in\n    tag_25:\n      mload(0x40)\n      tag_28\n      swap2\n      swap1\n      tag_29\n      jump\t// in\n    tag_28:\n      mload(0x40)\n      dup1\n      swap2\n      sub\n      swap1\n      return\n        /* \"contracts/PriceAlarmTracking/AutomaticPriceLimitFlag.sol\":750:1331  function updateThreshold(string memory name, int256 newThreshold) public {... */\n    tag_11:\n        /* \"contracts/PriceAlarmTracking/AutomaticPriceLimitFlag.sol\":871:872  0 */\n      0x00\n        /* \"contracts/PriceAlarmTracking/AutomaticPriceLimitFlag.sol\":837:873  assets[name].priceFeed != address(0) */\n      0xffffffffffffffffffffffffffffffffffffffff\n      and\n        /* \"contracts/PriceAlarmTracking/AutomaticPriceLimitFlag.sol\":837:843  assets */\n      0x00\n        /* \"contracts/PriceAlarmTracking/AutomaticPriceLimitFlag.sol\":844:848  name */\n      dup4\n        /* \"contracts/PriceAlarmTracking/AutomaticPriceLimitFlag.sol\":837:849  assets[name] */\n      mload(0x40)\n      tag_31\n      swap2\n      swap1\n      tag_32\n      jump\t// in\n    tag_31:\n      swap1\n      dup2\n      mstore\n      0x20\n      add\n      mload(0x40)\n      dup1\n      swap2\n      sub\n      swap1\n      keccak256\n        /* \"contracts/PriceAlarmTracking/AutomaticPriceLimitFlag.sol\":837:859  assets[name].priceFeed */\n      0x00\n      add\n      0x00\n      swap1\n      sload\n      swap1\n      0x0100\n      exp\n      swap1\n      div\n      0xffffffffffffffffffffffffffffffffffffffff\n      and\n        /* \"contracts/PriceAlarmTracking/AutomaticPriceLimitFlag.sol\":837:873  assets[name].priceFeed != address(0) */\n      0xffffffffffffffffffffffffffffffffffffffff\n      and\n      sub\n        /* \"contracts/PriceAlarmTracking/AutomaticPriceLimitFlag.sol\":829:893  require(assets[name].priceFeed != address(0), \"Asset not found\") */\n      tag_33\n      jumpi\n      mload(0x40)\n      0x08c379a000000000000000000000000000000000000000000000000000000000\n      dup2\n      mstore\n      0x04\n      add\n      tag_34\n      swap1\n      tag_35\n      jump\t// in\n    tag_34:\n      mload(0x40)\n      dup1\n      swap2\n      sub\n      swap1\n      revert\n    tag_33:\n        /* \"contracts/PriceAlarmTracking/AutomaticPriceLimitFlag.sol\":925:937  newThreshold */\n      dup1\n        /* \"contracts/PriceAlarmTracking/AutomaticPriceLimitFlag.sol\":899:905  assets */\n      0x00\n        /* \"contracts/PriceAlarmTracking/AutomaticPriceLimitFlag.sol\":906:910  name */\n      dup4\n        /* \"contracts/PriceAlarmTracking/AutomaticPriceLimitFlag.sol\":899:911  assets[name] */\n      mload(0x40)\n      tag_36\n      swap2\n      swap1\n      tag_32\n      jump\t// in\n    tag_36:\n      swap1\n      dup2\n      mstore\n      0x20\n      add\n      mload(0x40)\n      dup1\n      swap2\n      sub\n      swap1\n      keccak256\n        /* \"contracts/PriceAlarmTracking/AutomaticPriceLimitFlag.sol\":899:922  assets[name].priceLimit */\n      0x01\n      add\n        /* \"contracts/PriceAlarmTracking/AutomaticPriceLimitFlag.sol\":899:937  assets[name].priceLimit = newThreshold */\n      dup2\n      swap1\n      sstore\n      pop\n        /* \"contracts/PriceAlarmTracking/AutomaticPriceLimitFlag.sol\":976:981  false */\n      0x00\n        /* \"contracts/PriceAlarmTracking/AutomaticPriceLimitFlag.sol\":943:949  assets */\n      dup1\n        /* \"contracts/PriceAlarmTracking/AutomaticPriceLimitFlag.sol\":950:954  name */\n      dup4\n        /* \"contracts/PriceAlarmTracking/AutomaticPriceLimitFlag.sol\":943:955  assets[name] */\n      mload(0x40)\n      tag_37\n      swap2\n      swap1\n      tag_32\n      jump\t// in\n    tag_37:\n      swap1\n      dup2\n      mstore\n      0x20\n      add\n      mload(0x40)\n      dup1\n      swap2\n      sub\n      swap1\n      keccak256\n        /* \"contracts/PriceAlarmTracking/AutomaticPriceLimitFlag.sol\":943:973  assets[name].priceLimitReached */\n      0x02\n      add\n      0x00\n        /* \"contracts/PriceAlarmTracking/AutomaticPriceLimitFlag.sol\":943:981  assets[name].priceLimitReached = false */\n      0x0100\n      exp\n      dup2\n      sload\n      dup2\n      0xff\n      mul\n      not\n      and\n      swap1\n      dup4\n      iszero\n      iszero\n      mul\n      or\n      swap1\n      sstore\n      pop\n        /* \"contracts/PriceAlarmTracking/AutomaticPriceLimitFlag.sol\":1033:1064  AggregatorV3Interface priceFeed */\n      0x00\n        /* \"contracts/PriceAlarmTracking/AutomaticPriceLimitFlag.sol\":1089:1095  assets */\n      dup1\n        /* \"contracts/PriceAlarmTracking/AutomaticPriceLimitFlag.sol\":1096:1100  name */\n      dup4\n        /* \"contracts/PriceAlarmTracking/AutomaticPriceLimitFlag.sol\":1089:1101  assets[name] */\n      mload(0x40)\n      tag_38\n      swap2\n      swap1\n      tag_32\n      jump\t// in\n    tag_38:\n      swap1\n      dup2\n      mstore\n      0x20\n      add\n      mload(0x40)\n      dup1\n      swap2\n      sub\n      swap1\n      keccak256\n        /* \"contracts/PriceAlarmTracking/AutomaticPriceLimitFlag.sol\":1089:1111  assets[name].priceFeed */\n      0x00\n      add\n      0x00\n      swap1\n      sload\n      swap1\n      0x0100\n      exp\n      swap1\n      div\n      0xffffffffffffffffffffffffffffffffffffffff\n      and\n        /* \"contracts/PriceAlarmTracking/AutomaticPriceLimitFlag.sol\":1033:1112  AggregatorV3Interface priceFeed = AggregatorV3Interface(assets[name].priceFeed) */\n      swap1\n      pop\n        /* \"contracts/PriceAlarmTracking/AutomaticPriceLimitFlag.sol\":1121:1133  int256 price */\n      0x00\n        /* \"contracts/PriceAlarmTracking/AutomaticPriceLimitFlag.sol\":1136:1153  uint256 updatedAt */\n      dup1\n        /* \"contracts/PriceAlarmTracking/AutomaticPriceLimitFlag.sol\":1158:1167  priceFeed */\n      dup3\n        /* \"contracts/PriceAlarmTracking/AutomaticPriceLimitFlag.sol\":1158:1183  priceFeed.latestRoundData */\n      0xffffffffffffffffffffffffffffffffffffffff\n      and\n      0xfeaf968c\n        /* \"contracts/PriceAlarmTracking/AutomaticPriceLimitFlag.sol\":1158:1185  priceFeed.latestRoundData() */\n      mload(0x40)\n      dup2\n      0xffffffff\n      and\n      0xe0\n      shl\n      dup2\n      mstore\n      0x04\n      add\n      0xa0\n      mload(0x40)\n      dup1\n      dup4\n      sub\n      dup2\n      dup7\n      gas\n      staticcall\n      iszero\n      dup1\n      iszero\n      tag_40\n      jumpi\n      returndatasize\n      0x00\n      dup1\n      returndatacopy\n      revert(0x00, returndatasize)\n    tag_40:\n      pop\n      pop\n      pop\n      pop\n      mload(0x40)\n      returndatasize\n      not(0x1f)\n      0x1f\n      dup3\n      add\n      and\n      dup3\n      add\n      dup1\n      0x40\n      mstore\n      pop\n      dup2\n      add\n      swap1\n      tag_41\n      swap2\n      swap1\n      tag_42\n      jump\t// in\n    tag_41:\n        /* \"contracts/PriceAlarmTracking/AutomaticPriceLimitFlag.sol\":1118:1185  (, int256 price,, uint256 updatedAt,) = priceFeed.latestRoundData() */\n      pop\n      swap4\n      pop\n      pop\n      swap3\n      pop\n      pop\n        /* \"contracts/PriceAlarmTracking/AutomaticPriceLimitFlag.sol\":1205:1217  newThreshold */\n      dup4\n        /* \"contracts/PriceAlarmTracking/AutomaticPriceLimitFlag.sol\":1196:1201  price */\n      dup3\n        /* \"contracts/PriceAlarmTracking/AutomaticPriceLimitFlag.sol\":1196:1217  price >= newThreshold */\n      slt\n        /* \"contracts/PriceAlarmTracking/AutomaticPriceLimitFlag.sol\":1192:1329  if (price >= newThreshold) {... */\n      tag_43\n      jumpi\n        /* \"contracts/PriceAlarmTracking/AutomaticPriceLimitFlag.sol\":1262:1266  true */\n      0x01\n        /* \"contracts/PriceAlarmTracking/AutomaticPriceLimitFlag.sol\":1229:1235  assets */\n      0x00\n        /* \"contracts/PriceAlarmTracking/AutomaticPriceLimitFlag.sol\":1236:1240  name */\n      dup7\n        /* \"contracts/PriceAlarmTracking/AutomaticPriceLimitFlag.sol\":1229:1241  assets[name] */\n      mload(0x40)\n      tag_44\n      swap2\n      swap1\n      tag_32\n      jump\t// in\n    tag_44:\n      swap1\n      dup2\n      mstore\n      0x20\n      add\n      mload(0x40)\n      dup1\n      swap2\n      sub\n      swap1\n      keccak256\n        /* \"contracts/PriceAlarmTracking/AutomaticPriceLimitFlag.sol\":1229:1259  assets[name].priceLimitReached */\n      0x02\n      add\n      0x00\n        /* \"contracts/PriceAlarmTracking/AutomaticPriceLimitFlag.sol\":1229:1266  assets[name].priceLimitReached = true */\n      0x0100\n      exp\n      dup2\n      sload\n      dup2\n      0xff\n      mul\n      not\n      and\n      swap1\n      dup4\n      iszero\n      iszero\n      mul\n      or\n      swap1\n      sstore\n      pop\n        /* \"contracts/PriceAlarmTracking/AutomaticPriceLimitFlag.sol\":1281:1322  PriceLimitReached(name, price, updatedAt) */\n      0xbb5e414197ea3679db445f9b3517361ee7def2d6525fb43df5a7a42c3c4a88e1\n        /* \"contracts/PriceAlarmTracking/AutomaticPriceLimitFlag.sol\":1299:1303  name */\n      dup6\n        /* \"contracts/PriceAlarmTracking/AutomaticPriceLimitFlag.sol\":1305:1310  price */\n      dup4\n        /* \"contracts/PriceAlarmTracking/AutomaticPriceLimitFlag.sol\":1312:1321  updatedAt */\n      dup4\n        /* \"contracts/PriceAlarmTracking/AutomaticPriceLimitFlag.sol\":1281:1322  PriceLimitReached(name, price, updatedAt) */\n      mload(0x40)\n      tag_45\n      swap4\n      swap3\n      swap2\n      swap1\n      tag_46\n      jump\t// in\n    tag_45:\n      mload(0x40)\n      dup1\n      swap2\n      sub\n      swap1\n      log1\n        /* \"contracts/PriceAlarmTracking/AutomaticPriceLimitFlag.sol\":1192:1329  if (price >= newThreshold) {... */\n    tag_43:\n        /* \"contracts/PriceAlarmTracking/AutomaticPriceLimitFlag.sol\":823:1331  {... */\n      pop\n      pop\n      pop\n        /* \"contracts/PriceAlarmTracking/AutomaticPriceLimitFlag.sol\":750:1331  function updateThreshold(string memory name, int256 newThreshold) public {... */\n      pop\n      pop\n      jump\t// out\n        /* \"contracts/PriceAlarmTracking/AutomaticPriceLimitFlag.sol\":279:317  mapping(string => Asset) public assets */\n    tag_15:\n      0x00\n      dup2\n      dup1\n      mload\n      0x20\n      dup2\n      add\n      dup3\n      add\n      dup1\n      mload\n      dup5\n      dup3\n      mstore\n      0x20\n      dup4\n      add\n      0x20\n      dup6\n      add\n      keccak256\n      dup2\n      dup4\n      mstore\n      dup1\n      swap6\n      pop\n      pop\n      pop\n      pop\n      pop\n      pop\n      0x00\n      swap2\n      pop\n      swap1\n      pop\n      dup1\n      0x00\n      add\n      0x00\n      swap1\n      sload\n      swap1\n      0x0100\n      exp\n      swap1\n      div\n      0xffffffffffffffffffffffffffffffffffffffff\n      and\n      swap1\n      dup1\n      0x01\n      add\n      sload\n      swap1\n      dup1\n      0x02\n      add\n      0x00\n      swap1\n      sload\n      swap1\n      0x0100\n      exp\n      swap1\n      div\n      0xff\n      and\n      swap1\n      pop\n      dup4\n      jump\t// out\n        /* \"contracts/PriceAlarmTracking/AutomaticPriceLimitFlag.sol\":1337:1846  function checkPrice(string memory name) public {... */\n    tag_20:\n        /* \"contracts/PriceAlarmTracking/AutomaticPriceLimitFlag.sol\":1394:1413  Asset storage asset */\n      0x00\n        /* \"contracts/PriceAlarmTracking/AutomaticPriceLimitFlag.sol\":1416:1422  assets */\n      dup1\n        /* \"contracts/PriceAlarmTracking/AutomaticPriceLimitFlag.sol\":1423:1427  name */\n      dup3\n        /* \"contracts/PriceAlarmTracking/AutomaticPriceLimitFlag.sol\":1416:1428  assets[name] */\n      mload(0x40)\n      tag_48\n      swap2\n      swap1\n      tag_32\n      jump\t// in\n    tag_48:\n      swap1\n      dup2\n      mstore\n      0x20\n      add\n      mload(0x40)\n      dup1\n      swap2\n      sub\n      swap1\n      keccak256\n        /* \"contracts/PriceAlarmTracking/AutomaticPriceLimitFlag.sol\":1394:1428  Asset storage asset = assets[name] */\n      swap1\n      pop\n        /* \"contracts/PriceAlarmTracking/AutomaticPriceLimitFlag.sol\":1473:1474  0 */\n      0x00\n        /* \"contracts/PriceAlarmTracking/AutomaticPriceLimitFlag.sol\":1446:1475  asset.priceFeed != address(0) */\n      0xffffffffffffffffffffffffffffffffffffffff\n      and\n        /* \"contracts/PriceAlarmTracking/AutomaticPriceLimitFlag.sol\":1446:1451  asset */\n      dup2\n        /* \"contracts/PriceAlarmTracking/AutomaticPriceLimitFlag.sol\":1446:1461  asset.priceFeed */\n      0x00\n      add\n      0x00\n      swap1\n      sload\n      swap1\n      0x0100\n      exp\n      swap1\n      div\n      0xffffffffffffffffffffffffffffffffffffffff\n      and\n        /* \"contracts/PriceAlarmTracking/AutomaticPriceLimitFlag.sol\":1446:1475  asset.priceFeed != address(0) */\n      0xffffffffffffffffffffffffffffffffffffffff\n      and\n      sub\n        /* \"contracts/PriceAlarmTracking/AutomaticPriceLimitFlag.sol\":1438:1495  require(asset.priceFeed != address(0), \"Asset not found\") */\n      tag_49\n      jumpi\n      mload(0x40)\n      0x08c379a000000000000000000000000000000000000000000000000000000000\n      dup2\n      mstore\n      0x04\n      add\n      tag_50\n      swap1\n      tag_35\n      jump\t// in\n    tag_50:\n      mload(0x40)\n      dup1\n      swap2\n      sub\n      swap1\n      revert\n    tag_49:\n        /* \"contracts/PriceAlarmTracking/AutomaticPriceLimitFlag.sol\":1506:1537  AggregatorV3Interface priceFeed */\n      0x00\n        /* \"contracts/PriceAlarmTracking/AutomaticPriceLimitFlag.sol\":1562:1567  asset */\n      dup2\n        /* \"contracts/PriceAlarmTracking/AutomaticPriceLimitFlag.sol\":1562:1577  asset.priceFeed */\n      0x00\n      add\n      0x00\n      swap1\n      sload\n      swap1\n      0x0100\n      exp\n      swap1\n      div\n      0xffffffffffffffffffffffffffffffffffffffff\n      and\n        /* \"contracts/PriceAlarmTracking/AutomaticPriceLimitFlag.sol\":1506:1578  AggregatorV3Interface priceFeed = AggregatorV3Interface(asset.priceFeed) */\n      swap1\n      pop\n        /* \"contracts/PriceAlarmTracking/AutomaticPriceLimitFlag.sol\":1591:1603  int256 price */\n      0x00\n        /* \"contracts/PriceAlarmTracking/AutomaticPriceLimitFlag.sol\":1606:1623  uint256 updatedAt */\n      dup1\n        /* \"contracts/PriceAlarmTracking/AutomaticPriceLimitFlag.sol\":1628:1637  priceFeed */\n      dup3\n        /* \"contracts/PriceAlarmTracking/AutomaticPriceLimitFlag.sol\":1628:1653  priceFeed.latestRoundData */\n      0xffffffffffffffffffffffffffffffffffffffff\n      and\n      0xfeaf968c\n        /* \"contracts/PriceAlarmTracking/AutomaticPriceLimitFlag.sol\":1628:1655  priceFeed.latestRoundData() */\n      mload(0x40)\n      dup2\n      0xffffffff\n      and\n      0xe0\n      shl\n      dup2\n      mstore\n      0x04\n      add\n      0xa0\n      mload(0x40)\n      dup1\n      dup4\n      sub\n      dup2\n      dup7\n      gas\n      staticcall\n      iszero\n      dup1\n      iszero\n      tag_52\n      jumpi\n      returndatasize\n      0x00\n      dup1\n      returndatacopy\n      revert(0x00, returndatasize)\n    tag_52:\n      pop\n      pop\n      pop\n      pop\n      mload(0x40)\n      returndatasize\n      not(0x1f)\n      0x1f\n      dup3\n      add\n      and\n      dup3\n      add\n      dup1\n      0x40\n      mstore\n      pop\n      dup2\n      add\n      swap1\n      tag_53\n      swap2\n      swap1\n      tag_42\n      jump\t// in\n    tag_53:\n        /* \"contracts/PriceAlarmTracking/AutomaticPriceLimitFlag.sol\":1588:1655  (, int256 price,, uint256 updatedAt,) = priceFeed.latestRoundData() */\n      pop\n      swap4\n      pop\n      pop\n      swap3\n      pop\n      pop\n        /* \"contracts/PriceAlarmTracking/AutomaticPriceLimitFlag.sol\":1671:1676  asset */\n      dup4\n        /* \"contracts/PriceAlarmTracking/AutomaticPriceLimitFlag.sol\":1671:1694  asset.priceLimitReached */\n      0x02\n      add\n      0x00\n      swap1\n      sload\n      swap1\n      0x0100\n      exp\n      swap1\n      div\n      0xff\n      and\n        /* \"contracts/PriceAlarmTracking/AutomaticPriceLimitFlag.sol\":1670:1694  !asset.priceLimitReached */\n      iszero\n        /* \"contracts/PriceAlarmTracking/AutomaticPriceLimitFlag.sol\":1670:1723  !asset.priceLimitReached && price >= asset.priceLimit */\n      dup1\n      iszero\n      tag_54\n      jumpi\n      pop\n        /* \"contracts/PriceAlarmTracking/AutomaticPriceLimitFlag.sol\":1707:1712  asset */\n      dup4\n        /* \"contracts/PriceAlarmTracking/AutomaticPriceLimitFlag.sol\":1707:1723  asset.priceLimit */\n      0x01\n      add\n      sload\n        /* \"contracts/PriceAlarmTracking/AutomaticPriceLimitFlag.sol\":1698:1703  price */\n      dup3\n        /* \"contracts/PriceAlarmTracking/AutomaticPriceLimitFlag.sol\":1698:1723  price >= asset.priceLimit */\n      slt\n      iszero\n        /* \"contracts/PriceAlarmTracking/AutomaticPriceLimitFlag.sol\":1670:1723  !asset.priceLimitReached && price >= asset.priceLimit */\n    tag_54:\n        /* \"contracts/PriceAlarmTracking/AutomaticPriceLimitFlag.sol\":1666:1840  if (!asset.priceLimitReached && price >= asset.priceLimit) {... */\n      iszero\n      tag_55\n      jumpi\n        /* \"contracts/PriceAlarmTracking/AutomaticPriceLimitFlag.sol\":1765:1769  true */\n      0x01\n        /* \"contracts/PriceAlarmTracking/AutomaticPriceLimitFlag.sol\":1739:1744  asset */\n      dup5\n        /* \"contracts/PriceAlarmTracking/AutomaticPriceLimitFlag.sol\":1739:1762  asset.priceLimitReached */\n      0x02\n      add\n      0x00\n        /* \"contracts/PriceAlarmTracking/AutomaticPriceLimitFlag.sol\":1739:1769  asset.priceLimitReached = true */\n      0x0100\n      exp\n      dup2\n      sload\n      dup2\n      0xff\n      mul\n      not\n      and\n      swap1\n      dup4\n      iszero\n      iszero\n      mul\n      or\n      swap1\n      sstore\n      pop\n        /* \"contracts/PriceAlarmTracking/AutomaticPriceLimitFlag.sol\":1788:1829  PriceLimitReached(name, price, updatedAt) */\n      0xbb5e414197ea3679db445f9b3517361ee7def2d6525fb43df5a7a42c3c4a88e1\n        /* \"contracts/PriceAlarmTracking/AutomaticPriceLimitFlag.sol\":1806:1810  name */\n      dup6\n        /* \"contracts/PriceAlarmTracking/AutomaticPriceLimitFlag.sol\":1812:1817  price */\n      dup4\n        /* \"contracts/PriceAlarmTracking/AutomaticPriceLimitFlag.sol\":1819:1828  updatedAt */\n      dup4\n        /* \"contracts/PriceAlarmTracking/AutomaticPriceLimitFlag.sol\":1788:1829  PriceLimitReached(name, price, updatedAt) */\n      mload(0x40)\n      tag_56\n      swap4\n      swap3\n      swap2\n      swap1\n      tag_46\n      jump\t// in\n    tag_56:\n      mload(0x40)\n      dup1\n      swap2\n      sub\n      swap1\n      log1\n        /* \"contracts/PriceAlarmTracking/AutomaticPriceLimitFlag.sol\":1666:1840  if (!asset.priceLimitReached && price >= asset.priceLimit) {... */\n    tag_55:\n        /* \"contracts/PriceAlarmTracking/AutomaticPriceLimitFlag.sol\":1384:1846  {... */\n      pop\n      pop\n      pop\n      pop\n        /* \"contracts/PriceAlarmTracking/AutomaticPriceLimitFlag.sol\":1337:1846  function checkPrice(string memory name) public {... */\n      pop\n      jump\t// out\n        /* \"contracts/PriceAlarmTracking/AutomaticPriceLimitFlag.sol\":444:746  function addAsset(string memory name, address priceFeed, int256 priceLimit) public {... */\n    tag_24:\n        /* \"contracts/PriceAlarmTracking/AutomaticPriceLimitFlag.sol\":566:567  0 */\n      0x00\n        /* \"contracts/PriceAlarmTracking/AutomaticPriceLimitFlag.sol\":545:568  priceFeed != address(0) */\n      0xffffffffffffffffffffffffffffffffffffffff\n      and\n        /* \"contracts/PriceAlarmTracking/AutomaticPriceLimitFlag.sol\":545:554  priceFeed */\n      dup3\n        /* \"contracts/PriceAlarmTracking/AutomaticPriceLimitFlag.sol\":545:568  priceFeed != address(0) */\n      0xffffffffffffffffffffffffffffffffffffffff\n      and\n      sub\n        /* \"contracts/PriceAlarmTracking/AutomaticPriceLimitFlag.sol\":537:599  require(priceFeed != address(0), \"invalide price feed adress\") */\n      tag_58\n      jumpi\n      mload(0x40)\n      0x08c379a000000000000000000000000000000000000000000000000000000000\n      dup2\n      mstore\n      0x04\n      add\n      tag_59\n      swap1\n      tag_60\n      jump\t// in\n    tag_59:\n      mload(0x40)\n      dup1\n      swap2\n      sub\n      swap1\n      revert\n    tag_58:\n        /* \"contracts/PriceAlarmTracking/AutomaticPriceLimitFlag.sol\":651:652  0 */\n      0x00\n        /* \"contracts/PriceAlarmTracking/AutomaticPriceLimitFlag.sol\":617:653  assets[name].priceFeed == address(0) */\n      0xffffffffffffffffffffffffffffffffffffffff\n      and\n        /* \"contracts/PriceAlarmTracking/AutomaticPriceLimitFlag.sol\":617:623  assets */\n      0x00\n        /* \"contracts/PriceAlarmTracking/AutomaticPriceLimitFlag.sol\":624:628  name */\n      dup5\n        /* \"contracts/PriceAlarmTracking/AutomaticPriceLimitFlag.sol\":617:629  assets[name] */\n      mload(0x40)\n      tag_61\n      swap2\n      swap1\n      tag_32\n      jump\t// in\n    tag_61:\n      swap1\n      dup2\n      mstore\n      0x20\n      add\n      mload(0x40)\n      dup1\n      swap2\n      sub\n      swap1\n      keccak256\n        /* \"contracts/PriceAlarmTracking/AutomaticPriceLimitFlag.sol\":617:639  assets[name].priceFeed */\n      0x00\n      add\n      0x00\n      swap1\n      sload\n      swap1\n      0x0100\n      exp\n      swap1\n      div\n      0xffffffffffffffffffffffffffffffffffffffff\n      and\n        /* \"contracts/PriceAlarmTracking/AutomaticPriceLimitFlag.sol\":617:653  assets[name].priceFeed == address(0) */\n      0xffffffffffffffffffffffffffffffffffffffff\n      and\n      eq\n        /* \"contracts/PriceAlarmTracking/AutomaticPriceLimitFlag.sol\":609:678  require(assets[name].priceFeed == address(0), \"asset already exists\") */\n      tag_62\n      jumpi\n      mload(0x40)\n      0x08c379a000000000000000000000000000000000000000000000000000000000\n      dup2\n      mstore\n      0x04\n      add\n      tag_63\n      swap1\n      tag_64\n      jump\t// in\n    tag_63:\n      mload(0x40)\n      dup1\n      swap2\n      sub\n      swap1\n      revert\n    tag_62:\n        /* \"contracts/PriceAlarmTracking/AutomaticPriceLimitFlag.sol\":704:739  Asset(priceFeed, priceLimit, false) */\n      mload(0x40)\n      dup1\n      0x60\n      add\n      0x40\n      mstore\n      dup1\n        /* \"contracts/PriceAlarmTracking/AutomaticPriceLimitFlag.sol\":710:719  priceFeed */\n      dup4\n        /* \"contracts/PriceAlarmTracking/AutomaticPriceLimitFlag.sol\":704:739  Asset(priceFeed, priceLimit, false) */\n      0xffffffffffffffffffffffffffffffffffffffff\n      and\n      dup2\n      mstore\n      0x20\n      add\n        /* \"contracts/PriceAlarmTracking/AutomaticPriceLimitFlag.sol\":721:731  priceLimit */\n      dup3\n        /* \"contracts/PriceAlarmTracking/AutomaticPriceLimitFlag.sol\":704:739  Asset(priceFeed, priceLimit, false) */\n      dup2\n      mstore\n      0x20\n      add\n        /* \"contracts/PriceAlarmTracking/AutomaticPriceLimitFlag.sol\":733:738  false */\n      0x00\n        /* \"contracts/PriceAlarmTracking/AutomaticPriceLimitFlag.sol\":704:739  Asset(priceFeed, priceLimit, false) */\n      iszero\n      iszero\n      dup2\n      mstore\n      pop\n        /* \"contracts/PriceAlarmTracking/AutomaticPriceLimitFlag.sol\":689:695  assets */\n      0x00\n        /* \"contracts/PriceAlarmTracking/AutomaticPriceLimitFlag.sol\":696:700  name */\n      dup5\n        /* \"contracts/PriceAlarmTracking/AutomaticPriceLimitFlag.sol\":689:701  assets[name] */\n      mload(0x40)\n      tag_65\n      swap2\n      swap1\n      tag_32\n      jump\t// in\n    tag_65:\n      swap1\n      dup2\n      mstore\n      0x20\n      add\n      mload(0x40)\n      dup1\n      swap2\n      sub\n      swap1\n      keccak256\n        /* \"contracts/PriceAlarmTracking/AutomaticPriceLimitFlag.sol\":689:739  assets[name] = Asset(priceFeed, priceLimit, false) */\n      0x00\n      dup3\n      add\n      mload\n      dup2\n      0x00\n      add\n      exp(0x0100, 0x00)\n      dup2\n      sload\n      dup2\n      0xffffffffffffffffffffffffffffffffffffffff\n      mul\n      not\n      and\n      swap1\n      dup4\n      0xffffffffffffffffffffffffffffffffffffffff\n      and\n      mul\n      or\n      swap1\n      sstore\n      pop\n      0x20\n      dup3\n      add\n      mload\n      dup2\n      0x01\n      add\n      sstore\n      0x40\n      dup3\n      add\n      mload\n      dup2\n      0x02\n      add\n      exp(0x0100, 0x00)\n      dup2\n      sload\n      dup2\n      0xff\n      mul\n      not\n      and\n      swap1\n      dup4\n      iszero\n      iszero\n      mul\n      or\n      swap1\n      sstore\n      pop\n      swap1\n      pop\n      pop\n        /* \"contracts/PriceAlarmTracking/AutomaticPriceLimitFlag.sol\":444:746  function addAsset(string memory name, address priceFeed, int256 priceLimit) public {... */\n      pop\n      pop\n      pop\n      jump\t// out\n        /* \"contracts/PriceAlarmTracking/AutomaticPriceLimitFlag.sol\":1857:2212  function getLatestPrice(string memory name) public view returns (int256) {... */\n    tag_27:\n        /* \"contracts/PriceAlarmTracking/AutomaticPriceLimitFlag.sol\":1922:1928  int256 */\n      0x00\n        /* \"contracts/PriceAlarmTracking/AutomaticPriceLimitFlag.sol\":1940:1959  Asset storage asset */\n      dup1\n        /* \"contracts/PriceAlarmTracking/AutomaticPriceLimitFlag.sol\":1962:1968  assets */\n      0x00\n        /* \"contracts/PriceAlarmTracking/AutomaticPriceLimitFlag.sol\":1969:1973  name */\n      dup4\n        /* \"contracts/PriceAlarmTracking/AutomaticPriceLimitFlag.sol\":1962:1974  assets[name] */\n      mload(0x40)\n      tag_67\n      swap2\n      swap1\n      tag_32\n      jump\t// in\n    tag_67:\n      swap1\n      dup2\n      mstore\n      0x20\n      add\n      mload(0x40)\n      dup1\n      swap2\n      sub\n      swap1\n      keccak256\n        /* \"contracts/PriceAlarmTracking/AutomaticPriceLimitFlag.sol\":1940:1974  Asset storage asset = assets[name] */\n      swap1\n      pop\n        /* \"contracts/PriceAlarmTracking/AutomaticPriceLimitFlag.sol\":2019:2020  0 */\n      0x00\n        /* \"contracts/PriceAlarmTracking/AutomaticPriceLimitFlag.sol\":1992:2021  asset.priceFeed != address(0) */\n      0xffffffffffffffffffffffffffffffffffffffff\n      and\n        /* \"contracts/PriceAlarmTracking/AutomaticPriceLimitFlag.sol\":1992:1997  asset */\n      dup2\n        /* \"contracts/PriceAlarmTracking/AutomaticPriceLimitFlag.sol\":1992:2007  asset.priceFeed */\n      0x00\n      add\n      0x00\n      swap1\n      sload\n      swap1\n      0x0100\n      exp\n      swap1\n      div\n      0xffffffffffffffffffffffffffffffffffffffff\n      and\n        /* \"contracts/PriceAlarmTracking/AutomaticPriceLimitFlag.sol\":1992:2021  asset.priceFeed != address(0) */\n      0xffffffffffffffffffffffffffffffffffffffff\n      and\n      sub\n        /* \"contracts/PriceAlarmTracking/AutomaticPriceLimitFlag.sol\":1984:2041  require(asset.priceFeed != address(0), \"Asset not found\") */\n      tag_68\n      jumpi\n      mload(0x40)\n      0x08c379a000000000000000000000000000000000000000000000000000000000\n      dup2\n      mstore\n      0x04\n      add\n      tag_69\n      swap1\n      tag_35\n      jump\t// in\n    tag_69:\n      mload(0x40)\n      dup1\n      swap2\n      sub\n      swap1\n      revert\n    tag_68:\n        /* \"contracts/PriceAlarmTracking/AutomaticPriceLimitFlag.sol\":2052:2083  AggregatorV3Interface priceFeed */\n      0x00\n        /* \"contracts/PriceAlarmTracking/AutomaticPriceLimitFlag.sol\":2108:2113  asset */\n      dup2\n        /* \"contracts/PriceAlarmTracking/AutomaticPriceLimitFlag.sol\":2108:2123  asset.priceFeed */\n      0x00\n      add\n      0x00\n      swap1\n      sload\n      swap1\n      0x0100\n      exp\n      swap1\n      div\n      0xffffffffffffffffffffffffffffffffffffffff\n      and\n        /* \"contracts/PriceAlarmTracking/AutomaticPriceLimitFlag.sol\":2052:2124  AggregatorV3Interface priceFeed = AggregatorV3Interface(asset.priceFeed) */\n      swap1\n      pop\n        /* \"contracts/PriceAlarmTracking/AutomaticPriceLimitFlag.sol\":2137:2149  int256 price */\n      0x00\n        /* \"contracts/PriceAlarmTracking/AutomaticPriceLimitFlag.sol\":2156:2165  priceFeed */\n      dup2\n        /* \"contracts/PriceAlarmTracking/AutomaticPriceLimitFlag.sol\":2156:2181  priceFeed.latestRoundData */\n      0xffffffffffffffffffffffffffffffffffffffff\n      and\n      0xfeaf968c\n        /* \"contracts/PriceAlarmTracking/AutomaticPriceLimitFlag.sol\":2156:2183  priceFeed.latestRoundData() */\n      mload(0x40)\n      dup2\n      0xffffffff\n      and\n      0xe0\n      shl\n      dup2\n      mstore\n      0x04\n      add\n      0xa0\n      mload(0x40)\n      dup1\n      dup4\n      sub\n      dup2\n      dup7\n      gas\n      staticcall\n      iszero\n      dup1\n      iszero\n      tag_71\n      jumpi\n      returndatasize\n      0x00\n      dup1\n      returndatacopy\n      revert(0x00, returndatasize)\n    tag_71:\n      pop\n      pop\n      pop\n      pop\n      mload(0x40)\n      returndatasize\n      not(0x1f)\n      0x1f\n      dup3\n      add\n      and\n      dup3\n      add\n      dup1\n      0x40\n      mstore\n      pop\n      dup2\n      add\n      swap1\n      tag_72\n      swap2\n      swap1\n      tag_42\n      jump\t// in\n    tag_72:\n        /* \"contracts/PriceAlarmTracking/AutomaticPriceLimitFlag.sol\":2134:2183  (, int256 price,,,) = priceFeed.latestRoundData() */\n      pop\n      pop\n      pop\n      swap2\n      pop\n      pop\n        /* \"contracts/PriceAlarmTracking/AutomaticPriceLimitFlag.sol\":2200:2205  price */\n      dup1\n        /* \"contracts/PriceAlarmTracking/AutomaticPriceLimitFlag.sol\":2193:2205  return price */\n      swap4\n      pop\n      pop\n      pop\n      pop\n        /* \"contracts/PriceAlarmTracking/AutomaticPriceLimitFlag.sol\":1857:2212  function getLatestPrice(string memory name) public view returns (int256) {... */\n      swap2\n      swap1\n      pop\n      jump\t// out\n        /* \"#utility.yul\":7:82   */\n    tag_73:\n        /* \"#utility.yul\":40:46   */\n      0x00\n        /* \"#utility.yul\":73:75   */\n      0x40\n        /* \"#utility.yul\":67:76   */\n      mload\n        /* \"#utility.yul\":57:76   */\n      swap1\n      pop\n        /* \"#utility.yul\":7:82   */\n      swap1\n      jump\t// out\n        /* \"#utility.yul\":88:205   */\n    tag_74:\n        /* \"#utility.yul\":197:198   */\n      0x00\n        /* \"#utility.yul\":194:195   */\n      dup1\n        /* \"#utility.yul\":187:199   */\n      revert\n        /* \"#utility.yul\":211:328   */\n    tag_75:\n        /* \"#utility.yul\":320:321   */\n      0x00\n        /* \"#utility.yul\":317:318   */\n      dup1\n        /* \"#utility.yul\":310:322   */\n      revert\n        /* \"#utility.yul\":334:451   */\n    tag_76:\n        /* \"#utility.yul\":443:444   */\n      0x00\n        /* \"#utility.yul\":440:441   */\n      dup1\n        /* \"#utility.yul\":433:445   */\n      revert\n        /* \"#utility.yul\":457:574   */\n    tag_77:\n        /* \"#utility.yul\":566:567   */\n      0x00\n        /* \"#utility.yul\":563:564   */\n      dup1\n        /* \"#utility.yul\":556:568   */\n      revert\n        /* \"#utility.yul\":580:682   */\n    tag_78:\n        /* \"#utility.yul\":621:627   */\n      0x00\n        /* \"#utility.yul\":672:674   */\n      0x1f\n        /* \"#utility.yul\":668:675   */\n      not\n        /* \"#utility.yul\":663:665   */\n      0x1f\n        /* \"#utility.yul\":656:661   */\n      dup4\n        /* \"#utility.yul\":652:666   */\n      add\n        /* \"#utility.yul\":648:676   */\n      and\n        /* \"#utility.yul\":638:676   */\n      swap1\n      pop\n        /* \"#utility.yul\":580:682   */\n      swap2\n      swap1\n      pop\n      jump\t// out\n        /* \"#utility.yul\":688:868   */\n    tag_79:\n        /* \"#utility.yul\":736:813   */\n      0x4e487b7100000000000000000000000000000000000000000000000000000000\n        /* \"#utility.yul\":733:734   */\n      0x00\n        /* \"#utility.yul\":726:814   */\n      mstore\n        /* \"#utility.yul\":833:837   */\n      0x41\n        /* \"#utility.yul\":830:831   */\n      0x04\n        /* \"#utility.yul\":823:838   */\n      mstore\n        /* \"#utility.yul\":857:861   */\n      0x24\n        /* \"#utility.yul\":854:855   */\n      0x00\n        /* \"#utility.yul\":847:862   */\n      revert\n        /* \"#utility.yul\":874:1155   */\n    tag_80:\n        /* \"#utility.yul\":957:984   */\n      tag_126\n        /* \"#utility.yul\":979:983   */\n      dup3\n        /* \"#utility.yul\":957:984   */\n      tag_78\n      jump\t// in\n    tag_126:\n        /* \"#utility.yul\":949:955   */\n      dup2\n        /* \"#utility.yul\":945:985   */\n      add\n        /* \"#utility.yul\":1087:1093   */\n      dup2\n        /* \"#utility.yul\":1075:1085   */\n      dup2\n        /* \"#utility.yul\":1072:1094   */\n      lt\n        /* \"#utility.yul\":1051:1069   */\n      0xffffffffffffffff\n        /* \"#utility.yul\":1039:1049   */\n      dup3\n        /* \"#utility.yul\":1036:1070   */\n      gt\n        /* \"#utility.yul\":1033:1095   */\n      or\n        /* \"#utility.yul\":1030:1118   */\n      iszero\n      tag_127\n      jumpi\n        /* \"#utility.yul\":1098:1116   */\n      tag_128\n      tag_79\n      jump\t// in\n    tag_128:\n        /* \"#utility.yul\":1030:1118   */\n    tag_127:\n        /* \"#utility.yul\":1138:1148   */\n      dup1\n        /* \"#utility.yul\":1134:1136   */\n      0x40\n        /* \"#utility.yul\":1127:1149   */\n      mstore\n        /* \"#utility.yul\":917:1155   */\n      pop\n        /* \"#utility.yul\":874:1155   */\n      pop\n      pop\n      jump\t// out\n        /* \"#utility.yul\":1161:1290   */\n    tag_81:\n        /* \"#utility.yul\":1195:1201   */\n      0x00\n        /* \"#utility.yul\":1222:1242   */\n      tag_130\n      tag_73\n      jump\t// in\n    tag_130:\n        /* \"#utility.yul\":1212:1242   */\n      swap1\n      pop\n        /* \"#utility.yul\":1251:1284   */\n      tag_131\n        /* \"#utility.yul\":1279:1283   */\n      dup3\n        /* \"#utility.yul\":1271:1277   */\n      dup3\n        /* \"#utility.yul\":1251:1284   */\n      tag_80\n      jump\t// in\n    tag_131:\n        /* \"#utility.yul\":1161:1290   */\n      swap2\n      swap1\n      pop\n      jump\t// out\n        /* \"#utility.yul\":1296:1604   */\n    tag_82:\n        /* \"#utility.yul\":1358:1362   */\n      0x00\n        /* \"#utility.yul\":1448:1466   */\n      0xffffffffffffffff\n        /* \"#utility.yul\":1440:1446   */\n      dup3\n        /* \"#utility.yul\":1437:1467   */\n      gt\n        /* \"#utility.yul\":1434:1490   */\n      iszero\n      tag_133\n      jumpi\n        /* \"#utility.yul\":1470:1488   */\n      tag_134\n      tag_79\n      jump\t// in\n    tag_134:\n        /* \"#utility.yul\":1434:1490   */\n    tag_133:\n        /* \"#utility.yul\":1508:1537   */\n      tag_135\n        /* \"#utility.yul\":1530:1536   */\n      dup3\n        /* \"#utility.yul\":1508:1537   */\n      tag_78\n      jump\t// in\n    tag_135:\n        /* \"#utility.yul\":1500:1537   */\n      swap1\n      pop\n        /* \"#utility.yul\":1592:1596   */\n      0x20\n        /* \"#utility.yul\":1586:1590   */\n      dup2\n        /* \"#utility.yul\":1582:1597   */\n      add\n        /* \"#utility.yul\":1574:1597   */\n      swap1\n      pop\n        /* \"#utility.yul\":1296:1604   */\n      swap2\n      swap1\n      pop\n      jump\t// out\n        /* \"#utility.yul\":1610:1756   */\n    tag_83:\n        /* \"#utility.yul\":1707:1713   */\n      dup3\n        /* \"#utility.yul\":1702:1705   */\n      dup2\n        /* \"#utility.yul\":1697:1700   */\n      dup4\n        /* \"#utility.yul\":1684:1714   */\n      calldatacopy\n        /* \"#utility.yul\":1748:1749   */\n      0x00\n        /* \"#utility.yul\":1739:1745   */\n      dup4\n        /* \"#utility.yul\":1734:1737   */\n      dup4\n        /* \"#utility.yul\":1730:1746   */\n      add\n        /* \"#utility.yul\":1723:1750   */\n      mstore\n        /* \"#utility.yul\":1610:1756   */\n      pop\n      pop\n      pop\n      jump\t// out\n        /* \"#utility.yul\":1762:2187   */\n    tag_84:\n        /* \"#utility.yul\":1840:1845   */\n      0x00\n        /* \"#utility.yul\":1865:1931   */\n      tag_138\n        /* \"#utility.yul\":1881:1930   */\n      tag_139\n        /* \"#utility.yul\":1923:1929   */\n      dup5\n        /* \"#utility.yul\":1881:1930   */\n      tag_82\n      jump\t// in\n    tag_139:\n        /* \"#utility.yul\":1865:1931   */\n      tag_81\n      jump\t// in\n    tag_138:\n        /* \"#utility.yul\":1856:1931   */\n      swap1\n      pop\n        /* \"#utility.yul\":1954:1960   */\n      dup3\n        /* \"#utility.yul\":1947:1952   */\n      dup2\n        /* \"#utility.yul\":1940:1961   */\n      mstore\n        /* \"#utility.yul\":1992:1996   */\n      0x20\n        /* \"#utility.yul\":1985:1990   */\n      dup2\n        /* \"#utility.yul\":1981:1997   */\n      add\n        /* \"#utility.yul\":2030:2033   */\n      dup5\n        /* \"#utility.yul\":2021:2027   */\n      dup5\n        /* \"#utility.yul\":2016:2019   */\n      dup5\n        /* \"#utility.yul\":2012:2028   */\n      add\n        /* \"#utility.yul\":2009:2034   */\n      gt\n        /* \"#utility.yul\":2006:2118   */\n      iszero\n      tag_140\n      jumpi\n        /* \"#utility.yul\":2037:2116   */\n      tag_141\n      tag_77\n      jump\t// in\n    tag_141:\n        /* \"#utility.yul\":2006:2118   */\n    tag_140:\n        /* \"#utility.yul\":2127:2181   */\n      tag_142\n        /* \"#utility.yul\":2174:2180   */\n      dup5\n        /* \"#utility.yul\":2169:2172   */\n      dup3\n        /* \"#utility.yul\":2164:2167   */\n      dup6\n        /* \"#utility.yul\":2127:2181   */\n      tag_83\n      jump\t// in\n    tag_142:\n        /* \"#utility.yul\":1846:2187   */\n      pop\n        /* \"#utility.yul\":1762:2187   */\n      swap4\n      swap3\n      pop\n      pop\n      pop\n      jump\t// out\n        /* \"#utility.yul\":2207:2547   */\n    tag_85:\n        /* \"#utility.yul\":2263:2268   */\n      0x00\n        /* \"#utility.yul\":2312:2315   */\n      dup3\n        /* \"#utility.yul\":2305:2309   */\n      0x1f\n        /* \"#utility.yul\":2297:2303   */\n      dup4\n        /* \"#utility.yul\":2293:2310   */\n      add\n        /* \"#utility.yul\":2289:2316   */\n      slt\n        /* \"#utility.yul\":2279:2401   */\n      tag_144\n      jumpi\n        /* \"#utility.yul\":2320:2399   */\n      tag_145\n      tag_76\n      jump\t// in\n    tag_145:\n        /* \"#utility.yul\":2279:2401   */\n    tag_144:\n        /* \"#utility.yul\":2437:2443   */\n      dup2\n        /* \"#utility.yul\":2424:2444   */\n      calldataload\n        /* \"#utility.yul\":2462:2541   */\n      tag_146\n        /* \"#utility.yul\":2537:2540   */\n      dup5\n        /* \"#utility.yul\":2529:2535   */\n      dup3\n        /* \"#utility.yul\":2522:2526   */\n      0x20\n        /* \"#utility.yul\":2514:2520   */\n      dup7\n        /* \"#utility.yul\":2510:2527   */\n      add\n        /* \"#utility.yul\":2462:2541   */\n      tag_84\n      jump\t// in\n    tag_146:\n        /* \"#utility.yul\":2453:2541   */\n      swap2\n      pop\n        /* \"#utility.yul\":2269:2547   */\n      pop\n        /* \"#utility.yul\":2207:2547   */\n      swap3\n      swap2\n      pop\n      pop\n      jump\t// out\n        /* \"#utility.yul\":2553:2629   */\n    tag_86:\n        /* \"#utility.yul\":2589:2596   */\n      0x00\n        /* \"#utility.yul\":2618:2623   */\n      dup2\n        /* \"#utility.yul\":2607:2623   */\n      swap1\n      pop\n        /* \"#utility.yul\":2553:2629   */\n      swap2\n      swap1\n      pop\n      jump\t// out\n        /* \"#utility.yul\":2635:2755   */\n    tag_87:\n        /* \"#utility.yul\":2707:2730   */\n      tag_149\n        /* \"#utility.yul\":2724:2729   */\n      dup2\n        /* \"#utility.yul\":2707:2730   */\n      tag_86\n      jump\t// in\n    tag_149:\n        /* \"#utility.yul\":2700:2705   */\n      dup2\n        /* \"#utility.yul\":2697:2731   */\n      eq\n        /* \"#utility.yul\":2687:2749   */\n      tag_150\n      jumpi\n        /* \"#utility.yul\":2745:2746   */\n      0x00\n        /* \"#utility.yul\":2742:2743   */\n      dup1\n        /* \"#utility.yul\":2735:2747   */\n      revert\n        /* \"#utility.yul\":2687:2749   */\n    tag_150:\n        /* \"#utility.yul\":2635:2755   */\n      pop\n      jump\t// out\n        /* \"#utility.yul\":2761:2898   */\n    tag_88:\n        /* \"#utility.yul\":2806:2811   */\n      0x00\n        /* \"#utility.yul\":2844:2850   */\n      dup2\n        /* \"#utility.yul\":2831:2851   */\n      calldataload\n        /* \"#utility.yul\":2822:2851   */\n      swap1\n      pop\n        /* \"#utility.yul\":2860:2892   */\n      tag_152\n        /* \"#utility.yul\":2886:2891   */\n      dup2\n        /* \"#utility.yul\":2860:2892   */\n      tag_87\n      jump\t// in\n    tag_152:\n        /* \"#utility.yul\":2761:2898   */\n      swap3\n      swap2\n      pop\n      pop\n      jump\t// out\n        /* \"#utility.yul\":2904:3556   */\n    tag_10:\n        /* \"#utility.yul\":2981:2987   */\n      0x00\n        /* \"#utility.yul\":2989:2995   */\n      dup1\n        /* \"#utility.yul\":3038:3040   */\n      0x40\n        /* \"#utility.yul\":3026:3035   */\n      dup4\n        /* \"#utility.yul\":3017:3024   */\n      dup6\n        /* \"#utility.yul\":3013:3036   */\n      sub\n        /* \"#utility.yul\":3009:3041   */\n      slt\n        /* \"#utility.yul\":3006:3125   */\n      iszero\n      tag_154\n      jumpi\n        /* \"#utility.yul\":3044:3123   */\n      tag_155\n      tag_74\n      jump\t// in\n    tag_155:\n        /* \"#utility.yul\":3006:3125   */\n    tag_154:\n        /* \"#utility.yul\":3192:3193   */\n      0x00\n        /* \"#utility.yul\":3181:3190   */\n      dup4\n        /* \"#utility.yul\":3177:3194   */\n      add\n        /* \"#utility.yul\":3164:3195   */\n      calldataload\n        /* \"#utility.yul\":3222:3240   */\n      0xffffffffffffffff\n        /* \"#utility.yul\":3214:3220   */\n      dup2\n        /* \"#utility.yul\":3211:3241   */\n      gt\n        /* \"#utility.yul\":3208:3325   */\n      iszero\n      tag_156\n      jumpi\n        /* \"#utility.yul\":3244:3323   */\n      tag_157\n      tag_75\n      jump\t// in\n    tag_157:\n        /* \"#utility.yul\":3208:3325   */\n    tag_156:\n        /* \"#utility.yul\":3349:3412   */\n      tag_158\n        /* \"#utility.yul\":3404:3411   */\n      dup6\n        /* \"#utility.yul\":3395:3401   */\n      dup3\n        /* \"#utility.yul\":3384:3393   */\n      dup7\n        /* \"#utility.yul\":3380:3402   */\n      add\n        /* \"#utility.yul\":3349:3412   */\n      tag_85\n      jump\t// in\n    tag_158:\n        /* \"#utility.yul\":3339:3412   */\n      swap3\n      pop\n        /* \"#utility.yul\":3135:3422   */\n      pop\n        /* \"#utility.yul\":3461:3463   */\n      0x20\n        /* \"#utility.yul\":3487:3539   */\n      tag_159\n        /* \"#utility.yul\":3531:3538   */\n      dup6\n        /* \"#utility.yul\":3522:3528   */\n      dup3\n        /* \"#utility.yul\":3511:3520   */\n      dup7\n        /* \"#utility.yul\":3507:3529   */\n      add\n        /* \"#utility.yul\":3487:3539   */\n      tag_88\n      jump\t// in\n    tag_159:\n        /* \"#utility.yul\":3477:3539   */\n      swap2\n      pop\n        /* \"#utility.yul\":3432:3549   */\n      pop\n        /* \"#utility.yul\":2904:3556   */\n      swap3\n      pop\n      swap3\n      swap1\n      pop\n      jump\t// out\n        /* \"#utility.yul\":3562:4071   */\n    tag_14:\n        /* \"#utility.yul\":3631:3637   */\n      0x00\n        /* \"#utility.yul\":3680:3682   */\n      0x20\n        /* \"#utility.yul\":3668:3677   */\n      dup3\n        /* \"#utility.yul\":3659:3666   */\n      dup5\n        /* \"#utility.yul\":3655:3678   */\n      sub\n        /* \"#utility.yul\":3651:3683   */\n      slt\n        /* \"#utility.yul\":3648:3767   */\n      iszero\n      tag_161\n      jumpi\n        /* \"#utility.yul\":3686:3765   */\n      tag_162\n      tag_74\n      jump\t// in\n    tag_162:\n        /* \"#utility.yul\":3648:3767   */\n    tag_161:\n        /* \"#utility.yul\":3834:3835   */\n      0x00\n        /* \"#utility.yul\":3823:3832   */\n      dup3\n        /* \"#utility.yul\":3819:3836   */\n      add\n        /* \"#utility.yul\":3806:3837   */\n      calldataload\n        /* \"#utility.yul\":3864:3882   */\n      0xffffffffffffffff\n        /* \"#utility.yul\":3856:3862   */\n      dup2\n        /* \"#utility.yul\":3853:3883   */\n      gt\n        /* \"#utility.yul\":3850:3967   */\n      iszero\n      tag_163\n      jumpi\n        /* \"#utility.yul\":3886:3965   */\n      tag_164\n      tag_75\n      jump\t// in\n    tag_164:\n        /* \"#utility.yul\":3850:3967   */\n    tag_163:\n        /* \"#utility.yul\":3991:4054   */\n      tag_165\n        /* \"#utility.yul\":4046:4053   */\n      dup5\n        /* \"#utility.yul\":4037:4043   */\n      dup3\n        /* \"#utility.yul\":4026:4035   */\n      dup6\n        /* \"#utility.yul\":4022:4044   */\n      add\n        /* \"#utility.yul\":3991:4054   */\n      tag_85\n      jump\t// in\n    tag_165:\n        /* \"#utility.yul\":3981:4054   */\n      swap2\n      pop\n        /* \"#utility.yul\":3777:4064   */\n      pop\n        /* \"#utility.yul\":3562:4071   */\n      swap3\n      swap2\n      pop\n      pop\n      jump\t// out\n        /* \"#utility.yul\":4077:4203   */\n    tag_89:\n        /* \"#utility.yul\":4114:4121   */\n      0x00\n        /* \"#utility.yul\":4154:4196   */\n      0xffffffffffffffffffffffffffffffffffffffff\n        /* \"#utility.yul\":4147:4152   */\n      dup3\n        /* \"#utility.yul\":4143:4197   */\n      and\n        /* \"#utility.yul\":4132:4197   */\n      swap1\n      pop\n        /* \"#utility.yul\":4077:4203   */\n      swap2\n      swap1\n      pop\n      jump\t// out\n        /* \"#utility.yul\":4209:4305   */\n    tag_90:\n        /* \"#utility.yul\":4246:4253   */\n      0x00\n        /* \"#utility.yul\":4275:4299   */\n      tag_168\n        /* \"#utility.yul\":4293:4298   */\n      dup3\n        /* \"#utility.yul\":4275:4299   */\n      tag_89\n      jump\t// in\n    tag_168:\n        /* \"#utility.yul\":4264:4299   */\n      swap1\n      pop\n        /* \"#utility.yul\":4209:4305   */\n      swap2\n      swap1\n      pop\n      jump\t// out\n        /* \"#utility.yul\":4311:4429   */\n    tag_91:\n        /* \"#utility.yul\":4398:4422   */\n      tag_170\n        /* \"#utility.yul\":4416:4421   */\n      dup2\n        /* \"#utility.yul\":4398:4422   */\n      tag_90\n      jump\t// in\n    tag_170:\n        /* \"#utility.yul\":4393:4396   */\n      dup3\n        /* \"#utility.yul\":4386:4423   */\n      mstore\n        /* \"#utility.yul\":4311:4429   */\n      pop\n      pop\n      jump\t// out\n        /* \"#utility.yul\":4435:4550   */\n    tag_92:\n        /* \"#utility.yul\":4520:4543   */\n      tag_172\n        /* \"#utility.yul\":4537:4542   */\n      dup2\n        /* \"#utility.yul\":4520:4543   */\n      tag_86\n      jump\t// in\n    tag_172:\n        /* \"#utility.yul\":4515:4518   */\n      dup3\n        /* \"#utility.yul\":4508:4544   */\n      mstore\n        /* \"#utility.yul\":4435:4550   */\n      pop\n      pop\n      jump\t// out\n        /* \"#utility.yul\":4556:4646   */\n    tag_93:\n        /* \"#utility.yul\":4590:4597   */\n      0x00\n        /* \"#utility.yul\":4633:4638   */\n      dup2\n        /* \"#utility.yul\":4626:4639   */\n      iszero\n        /* \"#utility.yul\":4619:4640   */\n      iszero\n        /* \"#utility.yul\":4608:4640   */\n      swap1\n      pop\n        /* \"#utility.yul\":4556:4646   */\n      swap2\n      swap1\n      pop\n      jump\t// out\n        /* \"#utility.yul\":4652:4761   */\n    tag_94:\n        /* \"#utility.yul\":4733:4754   */\n      tag_175\n        /* \"#utility.yul\":4748:4753   */\n      dup2\n        /* \"#utility.yul\":4733:4754   */\n      tag_93\n      jump\t// in\n    tag_175:\n        /* \"#utility.yul\":4728:4731   */\n      dup3\n        /* \"#utility.yul\":4721:4755   */\n      mstore\n        /* \"#utility.yul\":4652:4761   */\n      pop\n      pop\n      jump\t// out\n        /* \"#utility.yul\":4767:5193   */\n    tag_17:\n        /* \"#utility.yul\":4908:4912   */\n      0x00\n        /* \"#utility.yul\":4946:4948   */\n      0x60\n        /* \"#utility.yul\":4935:4944   */\n      dup3\n        /* \"#utility.yul\":4931:4949   */\n      add\n        /* \"#utility.yul\":4923:4949   */\n      swap1\n      pop\n        /* \"#utility.yul\":4959:5030   */\n      tag_177\n        /* \"#utility.yul\":5027:5028   */\n      0x00\n        /* \"#utility.yul\":5016:5025   */\n      dup4\n        /* \"#utility.yul\":5012:5029   */\n      add\n        /* \"#utility.yul\":5003:5009   */\n      dup7\n        /* \"#utility.yul\":4959:5030   */\n      tag_91\n      jump\t// in\n    tag_177:\n        /* \"#utility.yul\":5040:5110   */\n      tag_178\n        /* \"#utility.yul\":5106:5108   */\n      0x20\n        /* \"#utility.yul\":5095:5104   */\n      dup4\n        /* \"#utility.yul\":5091:5109   */\n      add\n        /* \"#utility.yul\":5082:5088   */\n      dup6\n        /* \"#utility.yul\":5040:5110   */\n      tag_92\n      jump\t// in\n    tag_178:\n        /* \"#utility.yul\":5120:5186   */\n      tag_179\n        /* \"#utility.yul\":5182:5184   */\n      0x40\n        /* \"#utility.yul\":5171:5180   */\n      dup4\n        /* \"#utility.yul\":5167:5185   */\n      add\n        /* \"#utility.yul\":5158:5164   */\n      dup5\n        /* \"#utility.yul\":5120:5186   */\n      tag_94\n      jump\t// in\n    tag_179:\n        /* \"#utility.yul\":4767:5193   */\n      swap5\n      swap4\n      pop\n      pop\n      pop\n      pop\n      jump\t// out\n        /* \"#utility.yul\":5199:5321   */\n    tag_95:\n        /* \"#utility.yul\":5272:5296   */\n      tag_181\n        /* \"#utility.yul\":5290:5295   */\n      dup2\n        /* \"#utility.yul\":5272:5296   */\n      tag_90\n      jump\t// in\n    tag_181:\n        /* \"#utility.yul\":5265:5270   */\n      dup2\n        /* \"#utility.yul\":5262:5297   */\n      eq\n        /* \"#utility.yul\":5252:5315   */\n      tag_182\n      jumpi\n        /* \"#utility.yul\":5311:5312   */\n      0x00\n        /* \"#utility.yul\":5308:5309   */\n      dup1\n        /* \"#utility.yul\":5301:5313   */\n      revert\n        /* \"#utility.yul\":5252:5315   */\n    tag_182:\n        /* \"#utility.yul\":5199:5321   */\n      pop\n      jump\t// out\n        /* \"#utility.yul\":5327:5466   */\n    tag_96:\n        /* \"#utility.yul\":5373:5378   */\n      0x00\n        /* \"#utility.yul\":5411:5417   */\n      dup2\n        /* \"#utility.yul\":5398:5418   */\n      calldataload\n        /* \"#utility.yul\":5389:5418   */\n      swap1\n      pop\n        /* \"#utility.yul\":5427:5460   */\n      tag_184\n        /* \"#utility.yul\":5454:5459   */\n      dup2\n        /* \"#utility.yul\":5427:5460   */\n      tag_95\n      jump\t// in\n    tag_184:\n        /* \"#utility.yul\":5327:5466   */\n      swap3\n      swap2\n      pop\n      pop\n      jump\t// out\n        /* \"#utility.yul\":5472:6269   */\n    tag_23:\n        /* \"#utility.yul\":5558:5564   */\n      0x00\n        /* \"#utility.yul\":5566:5572   */\n      dup1\n        /* \"#utility.yul\":5574:5580   */\n      0x00\n        /* \"#utility.yul\":5623:5625   */\n      0x60\n        /* \"#utility.yul\":5611:5620   */\n      dup5\n        /* \"#utility.yul\":5602:5609   */\n      dup7\n        /* \"#utility.yul\":5598:5621   */\n      sub\n        /* \"#utility.yul\":5594:5626   */\n      slt\n        /* \"#utility.yul\":5591:5710   */\n      iszero\n      tag_186\n      jumpi\n        /* \"#utility.yul\":5629:5708   */\n      tag_187\n      tag_74\n      jump\t// in\n    tag_187:\n        /* \"#utility.yul\":5591:5710   */\n    tag_186:\n        /* \"#utility.yul\":5777:5778   */\n      0x00\n        /* \"#utility.yul\":5766:5775   */\n      dup5\n        /* \"#utility.yul\":5762:5779   */\n      add\n        /* \"#utility.yul\":5749:5780   */\n      calldataload\n        /* \"#utility.yul\":5807:5825   */\n      0xffffffffffffffff\n        /* \"#utility.yul\":5799:5805   */\n      dup2\n        /* \"#utility.yul\":5796:5826   */\n      gt\n        /* \"#utility.yul\":5793:5910   */\n      iszero\n      tag_188\n      jumpi\n        /* \"#utility.yul\":5829:5908   */\n      tag_189\n      tag_75\n      jump\t// in\n    tag_189:\n        /* \"#utility.yul\":5793:5910   */\n    tag_188:\n        /* \"#utility.yul\":5934:5997   */\n      tag_190\n        /* \"#utility.yul\":5989:5996   */\n      dup7\n        /* \"#utility.yul\":5980:5986   */\n      dup3\n        /* \"#utility.yul\":5969:5978   */\n      dup8\n        /* \"#utility.yul\":5965:5987   */\n      add\n        /* \"#utility.yul\":5934:5997   */\n      tag_85\n      jump\t// in\n    tag_190:\n        /* \"#utility.yul\":5924:5997   */\n      swap4\n      pop\n        /* \"#utility.yul\":5720:6007   */\n      pop\n        /* \"#utility.yul\":6046:6048   */\n      0x20\n        /* \"#utility.yul\":6072:6125   */\n      tag_191\n        /* \"#utility.yul\":6117:6124   */\n      dup7\n        /* \"#utility.yul\":6108:6114   */\n      dup3\n        /* \"#utility.yul\":6097:6106   */\n      dup8\n        /* \"#utility.yul\":6093:6115   */\n      add\n        /* \"#utility.yul\":6072:6125   */\n      tag_96\n      jump\t// in\n    tag_191:\n        /* \"#utility.yul\":6062:6125   */\n      swap3\n      pop\n        /* \"#utility.yul\":6017:6135   */\n      pop\n        /* \"#utility.yul\":6174:6176   */\n      0x40\n        /* \"#utility.yul\":6200:6252   */\n      tag_192\n        /* \"#utility.yul\":6244:6251   */\n      dup7\n        /* \"#utility.yul\":6235:6241   */\n      dup3\n        /* \"#utility.yul\":6224:6233   */\n      dup8\n        /* \"#utility.yul\":6220:6242   */\n      add\n        /* \"#utility.yul\":6200:6252   */\n      tag_88\n      jump\t// in\n    tag_192:\n        /* \"#utility.yul\":6190:6252   */\n      swap2\n      pop\n        /* \"#utility.yul\":6145:6262   */\n      pop\n        /* \"#utility.yul\":5472:6269   */\n      swap3\n      pop\n      swap3\n      pop\n      swap3\n      jump\t// out\n        /* \"#utility.yul\":6275:6493   */\n    tag_29:\n        /* \"#utility.yul\":6366:6370   */\n      0x00\n        /* \"#utility.yul\":6404:6406   */\n      0x20\n        /* \"#utility.yul\":6393:6402   */\n      dup3\n        /* \"#utility.yul\":6389:6407   */\n      add\n        /* \"#utility.yul\":6381:6407   */\n      swap1\n      pop\n        /* \"#utility.yul\":6417:6486   */\n      tag_194\n        /* \"#utility.yul\":6483:6484   */\n      0x00\n        /* \"#utility.yul\":6472:6481   */\n      dup4\n        /* \"#utility.yul\":6468:6485   */\n      add\n        /* \"#utility.yul\":6459:6465   */\n      dup5\n        /* \"#utility.yul\":6417:6486   */\n      tag_92\n      jump\t// in\n    tag_194:\n        /* \"#utility.yul\":6275:6493   */\n      swap3\n      swap2\n      pop\n      pop\n      jump\t// out\n        /* \"#utility.yul\":6499:6598   */\n    tag_97:\n        /* \"#utility.yul\":6551:6557   */\n      0x00\n        /* \"#utility.yul\":6585:6590   */\n      dup2\n        /* \"#utility.yul\":6579:6591   */\n      mload\n        /* \"#utility.yul\":6569:6591   */\n      swap1\n      pop\n        /* \"#utility.yul\":6499:6598   */\n      swap2\n      swap1\n      pop\n      jump\t// out\n        /* \"#utility.yul\":6604:6752   */\n    tag_98:\n        /* \"#utility.yul\":6706:6717   */\n      0x00\n        /* \"#utility.yul\":6743:6746   */\n      dup2\n        /* \"#utility.yul\":6728:6746   */\n      swap1\n      pop\n        /* \"#utility.yul\":6604:6752   */\n      swap3\n      swap2\n      pop\n      pop\n      jump\t// out\n        /* \"#utility.yul\":6758:7004   */\n    tag_99:\n        /* \"#utility.yul\":6839:6840   */\n      0x00\n        /* \"#utility.yul\":6849:6962   */\n    tag_198:\n        /* \"#utility.yul\":6863:6869   */\n      dup4\n        /* \"#utility.yul\":6860:6861   */\n      dup2\n        /* \"#utility.yul\":6857:6870   */\n      lt\n        /* \"#utility.yul\":6849:6962   */\n      iszero\n      tag_200\n      jumpi\n        /* \"#utility.yul\":6948:6949   */\n      dup1\n        /* \"#utility.yul\":6943:6946   */\n      dup3\n        /* \"#utility.yul\":6939:6950   */\n      add\n        /* \"#utility.yul\":6933:6951   */\n      mload\n        /* \"#utility.yul\":6929:6930   */\n      dup2\n        /* \"#utility.yul\":6924:6927   */\n      dup5\n        /* \"#utility.yul\":6920:6931   */\n      add\n        /* \"#utility.yul\":6913:6952   */\n      mstore\n        /* \"#utility.yul\":6885:6887   */\n      0x20\n        /* \"#utility.yul\":6882:6883   */\n      dup2\n        /* \"#utility.yul\":6878:6888   */\n      add\n        /* \"#utility.yul\":6873:6888   */\n      swap1\n      pop\n        /* \"#utility.yul\":6849:6962   */\n      jump(tag_198)\n    tag_200:\n        /* \"#utility.yul\":6996:6997   */\n      0x00\n        /* \"#utility.yul\":6987:6993   */\n      dup5\n        /* \"#utility.yul\":6982:6985   */\n      dup5\n        /* \"#utility.yul\":6978:6994   */\n      add\n        /* \"#utility.yul\":6971:6998   */\n      mstore\n        /* \"#utility.yul\":6820:7004   */\n      pop\n        /* \"#utility.yul\":6758:7004   */\n      pop\n      pop\n      pop\n      jump\t// out\n        /* \"#utility.yul\":7010:7400   */\n    tag_100:\n        /* \"#utility.yul\":7116:7119   */\n      0x00\n        /* \"#utility.yul\":7144:7183   */\n      tag_202\n        /* \"#utility.yul\":7177:7182   */\n      dup3\n        /* \"#utility.yul\":7144:7183   */\n      tag_97\n      jump\t// in\n    tag_202:\n        /* \"#utility.yul\":7199:7288   */\n      tag_203\n        /* \"#utility.yul\":7281:7287   */\n      dup2\n        /* \"#utility.yul\":7276:7279   */\n      dup6\n        /* \"#utility.yul\":7199:7288   */\n      tag_98\n      jump\t// in\n    tag_203:\n        /* \"#utility.yul\":7192:7288   */\n      swap4\n      pop\n        /* \"#utility.yul\":7297:7362   */\n      tag_204\n        /* \"#utility.yul\":7355:7361   */\n      dup2\n        /* \"#utility.yul\":7350:7353   */\n      dup6\n        /* \"#utility.yul\":7343:7347   */\n      0x20\n        /* \"#utility.yul\":7336:7341   */\n      dup7\n        /* \"#utility.yul\":7332:7348   */\n      add\n        /* \"#utility.yul\":7297:7362   */\n      tag_99\n      jump\t// in\n    tag_204:\n        /* \"#utility.yul\":7387:7393   */\n      dup1\n        /* \"#utility.yul\":7382:7385   */\n      dup5\n        /* \"#utility.yul\":7378:7394   */\n      add\n        /* \"#utility.yul\":7371:7394   */\n      swap2\n      pop\n        /* \"#utility.yul\":7120:7400   */\n      pop\n        /* \"#utility.yul\":7010:7400   */\n      swap3\n      swap2\n      pop\n      pop\n      jump\t// out\n        /* \"#utility.yul\":7406:7681   */\n    tag_32:\n        /* \"#utility.yul\":7538:7541   */\n      0x00\n        /* \"#utility.yul\":7560:7655   */\n      tag_206\n        /* \"#utility.yul\":7651:7654   */\n      dup3\n        /* \"#utility.yul\":7642:7648   */\n      dup5\n        /* \"#utility.yul\":7560:7655   */\n      tag_100\n      jump\t// in\n    tag_206:\n        /* \"#utility.yul\":7553:7655   */\n      swap2\n      pop\n        /* \"#utility.yul\":7672:7675   */\n      dup2\n        /* \"#utility.yul\":7665:7675   */\n      swap1\n      pop\n        /* \"#utility.yul\":7406:7681   */\n      swap3\n      swap2\n      pop\n      pop\n      jump\t// out\n        /* \"#utility.yul\":7687:7856   */\n    tag_101:\n        /* \"#utility.yul\":7771:7782   */\n      0x00\n        /* \"#utility.yul\":7805:7811   */\n      dup3\n        /* \"#utility.yul\":7800:7803   */\n      dup3\n        /* \"#utility.yul\":7793:7812   */\n      mstore\n        /* \"#utility.yul\":7845:7849   */\n      0x20\n        /* \"#utility.yul\":7840:7843   */\n      dup3\n        /* \"#utility.yul\":7836:7850   */\n      add\n        /* \"#utility.yul\":7821:7850   */\n      swap1\n      pop\n        /* \"#utility.yul\":7687:7856   */\n      swap3\n      swap2\n      pop\n      pop\n      jump\t// out\n        /* \"#utility.yul\":7862:8027   */\n    tag_102:\n        /* \"#utility.yul\":8002:8019   */\n      0x4173736574206e6f7420666f756e640000000000000000000000000000000000\n        /* \"#utility.yul\":7998:7999   */\n      0x00\n        /* \"#utility.yul\":7990:7996   */\n      dup3\n        /* \"#utility.yul\":7986:8000   */\n      add\n        /* \"#utility.yul\":7979:8020   */\n      mstore\n        /* \"#utility.yul\":7862:8027   */\n      pop\n      jump\t// out\n        /* \"#utility.yul\":8033:8399   */\n    tag_103:\n        /* \"#utility.yul\":8175:8178   */\n      0x00\n        /* \"#utility.yul\":8196:8263   */\n      tag_210\n        /* \"#utility.yul\":8260:8262   */\n      0x0f\n        /* \"#utility.yul\":8255:8258   */\n      dup4\n        /* \"#utility.yul\":8196:8263   */\n      tag_101\n      jump\t// in\n    tag_210:\n        /* \"#utility.yul\":8189:8263   */\n      swap2\n      pop\n        /* \"#utility.yul\":8272:8365   */\n      tag_211\n        /* \"#utility.yul\":8361:8364   */\n      dup3\n        /* \"#utility.yul\":8272:8365   */\n      tag_102\n      jump\t// in\n    tag_211:\n        /* \"#utility.yul\":8390:8392   */\n      0x20\n        /* \"#utility.yul\":8385:8388   */\n      dup3\n        /* \"#utility.yul\":8381:8393   */\n      add\n        /* \"#utility.yul\":8374:8393   */\n      swap1\n      pop\n        /* \"#utility.yul\":8033:8399   */\n      swap2\n      swap1\n      pop\n      jump\t// out\n        /* \"#utility.yul\":8405:8824   */\n    tag_35:\n        /* \"#utility.yul\":8571:8575   */\n      0x00\n        /* \"#utility.yul\":8609:8611   */\n      0x20\n        /* \"#utility.yul\":8598:8607   */\n      dup3\n        /* \"#utility.yul\":8594:8612   */\n      add\n        /* \"#utility.yul\":8586:8612   */\n      swap1\n      pop\n        /* \"#utility.yul\":8658:8667   */\n      dup2\n        /* \"#utility.yul\":8652:8656   */\n      dup2\n        /* \"#utility.yul\":8648:8668   */\n      sub\n        /* \"#utility.yul\":8644:8645   */\n      0x00\n        /* \"#utility.yul\":8633:8642   */\n      dup4\n        /* \"#utility.yul\":8629:8646   */\n      add\n        /* \"#utility.yul\":8622:8669   */\n      mstore\n        /* \"#utility.yul\":8686:8817   */\n      tag_213\n        /* \"#utility.yul\":8812:8816   */\n      dup2\n        /* \"#utility.yul\":8686:8817   */\n      tag_103\n      jump\t// in\n    tag_213:\n        /* \"#utility.yul\":8678:8817   */\n      swap1\n      pop\n        /* \"#utility.yul\":8405:8824   */\n      swap2\n      swap1\n      pop\n      jump\t// out\n        /* \"#utility.yul\":8830:8935   */\n    tag_104:\n        /* \"#utility.yul\":8866:8873   */\n      0x00\n        /* \"#utility.yul\":8906:8928   */\n      0xffffffffffffffffffff\n        /* \"#utility.yul\":8899:8904   */\n      dup3\n        /* \"#utility.yul\":8895:8929   */\n      and\n        /* \"#utility.yul\":8884:8929   */\n      swap1\n      pop\n        /* \"#utility.yul\":8830:8935   */\n      swap2\n      swap1\n      pop\n      jump\t// out\n        /* \"#utility.yul\":8941:9061   */\n    tag_105:\n        /* \"#utility.yul\":9013:9036   */\n      tag_216\n        /* \"#utility.yul\":9030:9035   */\n      dup2\n        /* \"#utility.yul\":9013:9036   */\n      tag_104\n      jump\t// in\n    tag_216:\n        /* \"#utility.yul\":9006:9011   */\n      dup2\n        /* \"#utility.yul\":9003:9037   */\n      eq\n        /* \"#utility.yul\":8993:9055   */\n      tag_217\n      jumpi\n        /* \"#utility.yul\":9051:9052   */\n      0x00\n        /* \"#utility.yul\":9048:9049   */\n      dup1\n        /* \"#utility.yul\":9041:9053   */\n      revert\n        /* \"#utility.yul\":8993:9055   */\n    tag_217:\n        /* \"#utility.yul\":8941:9061   */\n      pop\n      jump\t// out\n        /* \"#utility.yul\":9067:9208   */\n    tag_106:\n        /* \"#utility.yul\":9123:9128   */\n      0x00\n        /* \"#utility.yul\":9154:9160   */\n      dup2\n        /* \"#utility.yul\":9148:9161   */\n      mload\n        /* \"#utility.yul\":9139:9161   */\n      swap1\n      pop\n        /* \"#utility.yul\":9170:9202   */\n      tag_219\n        /* \"#utility.yul\":9196:9201   */\n      dup2\n        /* \"#utility.yul\":9170:9202   */\n      tag_105\n      jump\t// in\n    tag_219:\n        /* \"#utility.yul\":9067:9208   */\n      swap3\n      swap2\n      pop\n      pop\n      jump\t// out\n        /* \"#utility.yul\":9214:9355   */\n    tag_107:\n        /* \"#utility.yul\":9270:9275   */\n      0x00\n        /* \"#utility.yul\":9301:9307   */\n      dup2\n        /* \"#utility.yul\":9295:9308   */\n      mload\n        /* \"#utility.yul\":9286:9308   */\n      swap1\n      pop\n        /* \"#utility.yul\":9317:9349   */\n      tag_221\n        /* \"#utility.yul\":9343:9348   */\n      dup2\n        /* \"#utility.yul\":9317:9349   */\n      tag_87\n      jump\t// in\n    tag_221:\n        /* \"#utility.yul\":9214:9355   */\n      swap3\n      swap2\n      pop\n      pop\n      jump\t// out\n        /* \"#utility.yul\":9361:9438   */\n    tag_108:\n        /* \"#utility.yul\":9398:9405   */\n      0x00\n        /* \"#utility.yul\":9427:9432   */\n      dup2\n        /* \"#utility.yul\":9416:9432   */\n      swap1\n      pop\n        /* \"#utility.yul\":9361:9438   */\n      swap2\n      swap1\n      pop\n      jump\t// out\n        /* \"#utility.yul\":9444:9566   */\n    tag_109:\n        /* \"#utility.yul\":9517:9541   */\n      tag_224\n        /* \"#utility.yul\":9535:9540   */\n      dup2\n        /* \"#utility.yul\":9517:9541   */\n      tag_108\n      jump\t// in\n    tag_224:\n        /* \"#utility.yul\":9510:9515   */\n      dup2\n        /* \"#utility.yul\":9507:9542   */\n      eq\n        /* \"#utility.yul\":9497:9560   */\n      tag_225\n      jumpi\n        /* \"#utility.yul\":9556:9557   */\n      0x00\n        /* \"#utility.yul\":9553:9554   */\n      dup1\n        /* \"#utility.yul\":9546:9558   */\n      revert\n        /* \"#utility.yul\":9497:9560   */\n    tag_225:\n        /* \"#utility.yul\":9444:9566   */\n      pop\n      jump\t// out\n        /* \"#utility.yul\":9572:9715   */\n    tag_110:\n        /* \"#utility.yul\":9629:9634   */\n      0x00\n        /* \"#utility.yul\":9660:9666   */\n      dup2\n        /* \"#utility.yul\":9654:9667   */\n      mload\n        /* \"#utility.yul\":9645:9667   */\n      swap1\n      pop\n        /* \"#utility.yul\":9676:9709   */\n      tag_227\n        /* \"#utility.yul\":9703:9708   */\n      dup2\n        /* \"#utility.yul\":9676:9709   */\n      tag_109\n      jump\t// in\n    tag_227:\n        /* \"#utility.yul\":9572:9715   */\n      swap3\n      swap2\n      pop\n      pop\n      jump\t// out\n        /* \"#utility.yul\":9721:10692   */\n    tag_42:\n        /* \"#utility.yul\":9824:9830   */\n      0x00\n        /* \"#utility.yul\":9832:9838   */\n      dup1\n        /* \"#utility.yul\":9840:9846   */\n      0x00\n        /* \"#utility.yul\":9848:9854   */\n      dup1\n        /* \"#utility.yul\":9856:9862   */\n      0x00\n        /* \"#utility.yul\":9905:9908   */\n      0xa0\n        /* \"#utility.yul\":9893:9902   */\n      dup7\n        /* \"#utility.yul\":9884:9891   */\n      dup9\n        /* \"#utility.yul\":9880:9903   */\n      sub\n        /* \"#utility.yul\":9876:9909   */\n      slt\n        /* \"#utility.yul\":9873:9993   */\n      iszero\n      tag_229\n      jumpi\n        /* \"#utility.yul\":9912:9991   */\n      tag_230\n      tag_74\n      jump\t// in\n    tag_230:\n        /* \"#utility.yul\":9873:9993   */\n    tag_229:\n        /* \"#utility.yul\":10032:10033   */\n      0x00\n        /* \"#utility.yul\":10057:10120   */\n      tag_231\n        /* \"#utility.yul\":10112:10119   */\n      dup9\n        /* \"#utility.yul\":10103:10109   */\n      dup3\n        /* \"#utility.yul\":10092:10101   */\n      dup10\n        /* \"#utility.yul\":10088:10110   */\n      add\n        /* \"#utility.yul\":10057:10120   */\n      tag_106\n      jump\t// in\n    tag_231:\n        /* \"#utility.yul\":10047:10120   */\n      swap6\n      pop\n        /* \"#utility.yul\":10003:10130   */\n      pop\n        /* \"#utility.yul\":10169:10171   */\n      0x20\n        /* \"#utility.yul\":10195:10258   */\n      tag_232\n        /* \"#utility.yul\":10250:10257   */\n      dup9\n        /* \"#utility.yul\":10241:10247   */\n      dup3\n        /* \"#utility.yul\":10230:10239   */\n      dup10\n        /* \"#utility.yul\":10226:10248   */\n      add\n        /* \"#utility.yul\":10195:10258   */\n      tag_107\n      jump\t// in\n    tag_232:\n        /* \"#utility.yul\":10185:10258   */\n      swap5\n      pop\n        /* \"#utility.yul\":10140:10268   */\n      pop\n        /* \"#utility.yul\":10307:10309   */\n      0x40\n        /* \"#utility.yul\":10333:10397   */\n      tag_233\n        /* \"#utility.yul\":10389:10396   */\n      dup9\n        /* \"#utility.yul\":10380:10386   */\n      dup3\n        /* \"#utility.yul\":10369:10378   */\n      dup10\n        /* \"#utility.yul\":10365:10387   */\n      add\n        /* \"#utility.yul\":10333:10397   */\n      tag_110\n      jump\t// in\n    tag_233:\n        /* \"#utility.yul\":10323:10397   */\n      swap4\n      pop\n        /* \"#utility.yul\":10278:10407   */\n      pop\n        /* \"#utility.yul\":10446:10448   */\n      0x60\n        /* \"#utility.yul\":10472:10536   */\n      tag_234\n        /* \"#utility.yul\":10528:10535   */\n      dup9\n        /* \"#utility.yul\":10519:10525   */\n      dup3\n        /* \"#utility.yul\":10508:10517   */\n      dup10\n        /* \"#utility.yul\":10504:10526   */\n      add\n        /* \"#utility.yul\":10472:10536   */\n      tag_110\n      jump\t// in\n    tag_234:\n        /* \"#utility.yul\":10462:10536   */\n      swap3\n      pop\n        /* \"#utility.yul\":10417:10546   */\n      pop\n        /* \"#utility.yul\":10585:10588   */\n      0x80\n        /* \"#utility.yul\":10612:10675   */\n      tag_235\n        /* \"#utility.yul\":10667:10674   */\n      dup9\n        /* \"#utility.yul\":10658:10664   */\n      dup3\n        /* \"#utility.yul\":10647:10656   */\n      dup10\n        /* \"#utility.yul\":10643:10665   */\n      add\n        /* \"#utility.yul\":10612:10675   */\n      tag_106\n      jump\t// in\n    tag_235:\n        /* \"#utility.yul\":10602:10675   */\n      swap2\n      pop\n        /* \"#utility.yul\":10556:10685   */\n      pop\n        /* \"#utility.yul\":9721:10692   */\n      swap3\n      swap6\n      pop\n      swap3\n      swap6\n      swap1\n      swap4\n      pop\n      jump\t// out\n        /* \"#utility.yul\":10698:11075   */\n    tag_111:\n        /* \"#utility.yul\":10786:10789   */\n      0x00\n        /* \"#utility.yul\":10814:10853   */\n      tag_237\n        /* \"#utility.yul\":10847:10852   */\n      dup3\n        /* \"#utility.yul\":10814:10853   */\n      tag_97\n      jump\t// in\n    tag_237:\n        /* \"#utility.yul\":10869:10940   */\n      tag_238\n        /* \"#utility.yul\":10933:10939   */\n      dup2\n        /* \"#utility.yul\":10928:10931   */\n      dup6\n        /* \"#utility.yul\":10869:10940   */\n      tag_101\n      jump\t// in\n    tag_238:\n        /* \"#utility.yul\":10862:10940   */\n      swap4\n      pop\n        /* \"#utility.yul\":10949:11014   */\n      tag_239\n        /* \"#utility.yul\":11007:11013   */\n      dup2\n        /* \"#utility.yul\":11002:11005   */\n      dup6\n        /* \"#utility.yul\":10995:10999   */\n      0x20\n        /* \"#utility.yul\":10988:10993   */\n      dup7\n        /* \"#utility.yul\":10984:11000   */\n      add\n        /* \"#utility.yul\":10949:11014   */\n      tag_99\n      jump\t// in\n    tag_239:\n        /* \"#utility.yul\":11039:11068   */\n      tag_240\n        /* \"#utility.yul\":11061:11067   */\n      dup2\n        /* \"#utility.yul\":11039:11068   */\n      tag_78\n      jump\t// in\n    tag_240:\n        /* \"#utility.yul\":11034:11037   */\n      dup5\n        /* \"#utility.yul\":11030:11069   */\n      add\n        /* \"#utility.yul\":11023:11069   */\n      swap2\n      pop\n        /* \"#utility.yul\":10790:11075   */\n      pop\n        /* \"#utility.yul\":10698:11075   */\n      swap3\n      swap2\n      pop\n      pop\n      jump\t// out\n        /* \"#utility.yul\":11081:11199   */\n    tag_112:\n        /* \"#utility.yul\":11168:11192   */\n      tag_242\n        /* \"#utility.yul\":11186:11191   */\n      dup2\n        /* \"#utility.yul\":11168:11192   */\n      tag_108\n      jump\t// in\n    tag_242:\n        /* \"#utility.yul\":11163:11166   */\n      dup3\n        /* \"#utility.yul\":11156:11193   */\n      mstore\n        /* \"#utility.yul\":11081:11199   */\n      pop\n      pop\n      jump\t// out\n        /* \"#utility.yul\":11205:11734   */\n    tag_46:\n        /* \"#utility.yul\":11372:11376   */\n      0x00\n        /* \"#utility.yul\":11410:11412   */\n      0x60\n        /* \"#utility.yul\":11399:11408   */\n      dup3\n        /* \"#utility.yul\":11395:11413   */\n      add\n        /* \"#utility.yul\":11387:11413   */\n      swap1\n      pop\n        /* \"#utility.yul\":11459:11468   */\n      dup2\n        /* \"#utility.yul\":11453:11457   */\n      dup2\n        /* \"#utility.yul\":11449:11469   */\n      sub\n        /* \"#utility.yul\":11445:11446   */\n      0x00\n        /* \"#utility.yul\":11434:11443   */\n      dup4\n        /* \"#utility.yul\":11430:11447   */\n      add\n        /* \"#utility.yul\":11423:11470   */\n      mstore\n        /* \"#utility.yul\":11487:11565   */\n      tag_244\n        /* \"#utility.yul\":11560:11564   */\n      dup2\n        /* \"#utility.yul\":11551:11557   */\n      dup7\n        /* \"#utility.yul\":11487:11565   */\n      tag_111\n      jump\t// in\n    tag_244:\n        /* \"#utility.yul\":11479:11565   */\n      swap1\n      pop\n        /* \"#utility.yul\":11575:11645   */\n      tag_245\n        /* \"#utility.yul\":11641:11643   */\n      0x20\n        /* \"#utility.yul\":11630:11639   */\n      dup4\n        /* \"#utility.yul\":11626:11644   */\n      add\n        /* \"#utility.yul\":11617:11623   */\n      dup6\n        /* \"#utility.yul\":11575:11645   */\n      tag_92\n      jump\t// in\n    tag_245:\n        /* \"#utility.yul\":11655:11727   */\n      tag_246\n        /* \"#utility.yul\":11723:11725   */\n      0x40\n        /* \"#utility.yul\":11712:11721   */\n      dup4\n        /* \"#utility.yul\":11708:11726   */\n      add\n        /* \"#utility.yul\":11699:11705   */\n      dup5\n        /* \"#utility.yul\":11655:11727   */\n      tag_112\n      jump\t// in\n    tag_246:\n        /* \"#utility.yul\":11205:11734   */\n      swap5\n      swap4\n      pop\n      pop\n      pop\n      pop\n      jump\t// out\n        /* \"#utility.yul\":11740:11916   */\n    tag_113:\n        /* \"#utility.yul\":11880:11908   */\n      0x696e76616c696465207072696365206665656420616472657373000000000000\n        /* \"#utility.yul\":11876:11877   */\n      0x00\n        /* \"#utility.yul\":11868:11874   */\n      dup3\n        /* \"#utility.yul\":11864:11878   */\n      add\n        /* \"#utility.yul\":11857:11909   */\n      mstore\n        /* \"#utility.yul\":11740:11916   */\n      pop\n      jump\t// out\n        /* \"#utility.yul\":11922:12288   */\n    tag_114:\n        /* \"#utility.yul\":12064:12067   */\n      0x00\n        /* \"#utility.yul\":12085:12152   */\n      tag_249\n        /* \"#utility.yul\":12149:12151   */\n      0x1a\n        /* \"#utility.yul\":12144:12147   */\n      dup4\n        /* \"#utility.yul\":12085:12152   */\n      tag_101\n      jump\t// in\n    tag_249:\n        /* \"#utility.yul\":12078:12152   */\n      swap2\n      pop\n        /* \"#utility.yul\":12161:12254   */\n      tag_250\n        /* \"#utility.yul\":12250:12253   */\n      dup3\n        /* \"#utility.yul\":12161:12254   */\n      tag_113\n      jump\t// in\n    tag_250:\n        /* \"#utility.yul\":12279:12281   */\n      0x20\n        /* \"#utility.yul\":12274:12277   */\n      dup3\n        /* \"#utility.yul\":12270:12282   */\n      add\n        /* \"#utility.yul\":12263:12282   */\n      swap1\n      pop\n        /* \"#utility.yul\":11922:12288   */\n      swap2\n      swap1\n      pop\n      jump\t// out\n        /* \"#utility.yul\":12294:12713   */\n    tag_60:\n        /* \"#utility.yul\":12460:12464   */\n      0x00\n        /* \"#utility.yul\":12498:12500   */\n      0x20\n        /* \"#utility.yul\":12487:12496   */\n      dup3\n        /* \"#utility.yul\":12483:12501   */\n      add\n        /* \"#utility.yul\":12475:12501   */\n      swap1\n      pop\n        /* \"#utility.yul\":12547:12556   */\n      dup2\n        /* \"#utility.yul\":12541:12545   */\n      dup2\n        /* \"#utility.yul\":12537:12557   */\n      sub\n        /* \"#utility.yul\":12533:12534   */\n      0x00\n        /* \"#utility.yul\":12522:12531   */\n      dup4\n        /* \"#utility.yul\":12518:12535   */\n      add\n        /* \"#utility.yul\":12511:12558   */\n      mstore\n        /* \"#utility.yul\":12575:12706   */\n      tag_252\n        /* \"#utility.yul\":12701:12705   */\n      dup2\n        /* \"#utility.yul\":12575:12706   */\n      tag_114\n      jump\t// in\n    tag_252:\n        /* \"#utility.yul\":12567:12706   */\n      swap1\n      pop\n        /* \"#utility.yul\":12294:12713   */\n      swap2\n      swap1\n      pop\n      jump\t// out\n        /* \"#utility.yul\":12719:12889   */\n    tag_115:\n        /* \"#utility.yul\":12859:12881   */\n      0x617373657420616c726561647920657869737473000000000000000000000000\n        /* \"#utility.yul\":12855:12856   */\n      0x00\n        /* \"#utility.yul\":12847:12853   */\n      dup3\n        /* \"#utility.yul\":12843:12857   */\n      add\n        /* \"#utility.yul\":12836:12882   */\n      mstore\n        /* \"#utility.yul\":12719:12889   */\n      pop\n      jump\t// out\n        /* \"#utility.yul\":12895:13261   */\n    tag_116:\n        /* \"#utility.yul\":13037:13040   */\n      0x00\n        /* \"#utility.yul\":13058:13125   */\n      tag_255\n        /* \"#utility.yul\":13122:13124   */\n      0x14\n        /* \"#utility.yul\":13117:13120   */\n      dup4\n        /* \"#utility.yul\":13058:13125   */\n      tag_101\n      jump\t// in\n    tag_255:\n        /* \"#utility.yul\":13051:13125   */\n      swap2\n      pop\n        /* \"#utility.yul\":13134:13227   */\n      tag_256\n        /* \"#utility.yul\":13223:13226   */\n      dup3\n        /* \"#utility.yul\":13134:13227   */\n      tag_115\n      jump\t// in\n    tag_256:\n        /* \"#utility.yul\":13252:13254   */\n      0x20\n        /* \"#utility.yul\":13247:13250   */\n      dup3\n        /* \"#utility.yul\":13243:13255   */\n      add\n        /* \"#utility.yul\":13236:13255   */\n      swap1\n      pop\n        /* \"#utility.yul\":12895:13261   */\n      swap2\n      swap1\n      pop\n      jump\t// out\n        /* \"#utility.yul\":13267:13686   */\n    tag_64:\n        /* \"#utility.yul\":13433:13437   */\n      0x00\n        /* \"#utility.yul\":13471:13473   */\n      0x20\n        /* \"#utility.yul\":13460:13469   */\n      dup3\n        /* \"#utility.yul\":13456:13474   */\n      add\n        /* \"#utility.yul\":13448:13474   */\n      swap1\n      pop\n        /* \"#utility.yul\":13520:13529   */\n      dup2\n        /* \"#utility.yul\":13514:13518   */\n      dup2\n        /* \"#utility.yul\":13510:13530   */\n      sub\n        /* \"#utility.yul\":13506:13507   */\n      0x00\n        /* \"#utility.yul\":13495:13504   */\n      dup4\n        /* \"#utility.yul\":13491:13508   */\n      add\n        /* \"#utility.yul\":13484:13531   */\n      mstore\n        /* \"#utility.yul\":13548:13679   */\n      tag_258\n        /* \"#utility.yul\":13674:13678   */\n      dup2\n        /* \"#utility.yul\":13548:13679   */\n      tag_116\n      jump\t// in\n    tag_258:\n        /* \"#utility.yul\":13540:13679   */\n      swap1\n      pop\n        /* \"#utility.yul\":13267:13686   */\n      swap2\n      swap1\n      pop\n      jump\t// out\n\n    auxdata: 0xa2646970667358221220da60b6d027d6e49aa325ce2251321d7cab5f16208f775f58fcbf14acd6be919b64736f6c63430008180033\n}\n",
				"bytecode": {
					"linkReferences": {},
					"object": "608060405234801561000f575f80fd5b50610fad8061001d5f395ff3fe608060405234801561000f575f80fd5b5060043610610055575f3560e01c80630fc5de48146100595780638593622814610075578063abc4544e146100a7578063cee8ba47146100c3578063f66a1b71146100df575b5f80fd5b610073600480360381019061006e9190610a40565b61010f565b005b61008f600480360381019061008a9190610a9a565b610351565b60405161009e93929190610b49565b60405180910390f35b6100c160048036038101906100bc9190610a9a565b6103b9565b005b6100dd60048036038101906100d89190610ba8565b61058b565b005b6100f960048036038101906100f49190610a9a565b61076a565b6040516101069190610c14565b60405180910390f35b5f73ffffffffffffffffffffffffffffffffffffffff165f836040516101359190610c99565b90815260200160405180910390205f015f9054906101000a900473ffffffffffffffffffffffffffffffffffffffff1673ffffffffffffffffffffffffffffffffffffffff16036101bb576040517f08c379a00000000000000000000000000000000000000000000000000000000081526004016101b290610d09565b60405180910390fd5b805f836040516101cb9190610c99565b9081526020016040518091039020600101819055505f80836040516101f09190610c99565b90815260200160405180910390206002015f6101000a81548160ff0219169083151502179055505f80836040516102279190610c99565b90815260200160405180910390205f015f9054906101000a900473ffffffffffffffffffffffffffffffffffffffff1690505f808273ffffffffffffffffffffffffffffffffffffffff1663feaf968c6040518163ffffffff1660e01b815260040160a060405180830381865afa1580156102a4573d5f803e3d5ffd5b505050506040513d601f19601f820116820180604052508101906102c89190610dad565b5093505092505083821261034a5760015f866040516102e79190610c99565b90815260200160405180910390206002015f6101000a81548160ff0219169083151502179055507fbb5e414197ea3679db445f9b3517361ee7def2d6525fb43df5a7a42c3c4a88e185838360405161034193929190610e6b565b60405180910390a15b5050505050565b5f818051602081018201805184825260208301602085012081835280955050505050505f91509050805f015f9054906101000a900473ffffffffffffffffffffffffffffffffffffffff1690806001015490806002015f9054906101000a900460ff16905083565b5f80826040516103c99190610c99565b908152602001604051809103902090505f73ffffffffffffffffffffffffffffffffffffffff16815f015f9054906101000a900473ffffffffffffffffffffffffffffffffffffffff1673ffffffffffffffffffffffffffffffffffffffff1603610469576040517f08c379a000000000000000000000000000000000000000000000000000000000815260040161046090610d09565b60405180910390fd5b5f815f015f9054906101000a900473ffffffffffffffffffffffffffffffffffffffff1690505f808273ffffffffffffffffffffffffffffffffffffffff1663feaf968c6040518163ffffffff1660e01b815260040160a060405180830381865afa1580156104da573d5f803e3d5ffd5b505050506040513d601f19601f820116820180604052508101906104fe9190610dad565b50935050925050836002015f9054906101000a900460ff16158015610527575083600101548212155b15610584576001846002015f6101000a81548160ff0219169083151502179055507fbb5e414197ea3679db445f9b3517361ee7def2d6525fb43df5a7a42c3c4a88e185838360405161057b93929190610e6b565b60405180910390a15b5050505050565b5f73ffffffffffffffffffffffffffffffffffffffff168273ffffffffffffffffffffffffffffffffffffffff16036105f9576040517f08c379a00000000000000000000000000000000000000000000000000000000081526004016105f090610ef1565b60405180910390fd5b5f73ffffffffffffffffffffffffffffffffffffffff165f8460405161061f9190610c99565b90815260200160405180910390205f015f9054906101000a900473ffffffffffffffffffffffffffffffffffffffff1673ffffffffffffffffffffffffffffffffffffffff16146106a5576040517f08c379a000000000000000000000000000000000000000000000000000000000815260040161069c90610f59565b60405180910390fd5b60405180606001604052808373ffffffffffffffffffffffffffffffffffffffff1681526020018281526020015f15158152505f846040516106e79190610c99565b90815260200160405180910390205f820151815f015f6101000a81548173ffffffffffffffffffffffffffffffffffffffff021916908373ffffffffffffffffffffffffffffffffffffffff160217905550602082015181600101556040820151816002015f6101000a81548160ff021916908315150217905550905050505050565b5f805f8360405161077b9190610c99565b908152602001604051809103902090505f73ffffffffffffffffffffffffffffffffffffffff16815f015f9054906101000a900473ffffffffffffffffffffffffffffffffffffffff1673ffffffffffffffffffffffffffffffffffffffff160361081b576040517f08c379a000000000000000000000000000000000000000000000000000000000815260040161081290610d09565b60405180910390fd5b5f815f015f9054906101000a900473ffffffffffffffffffffffffffffffffffffffff1690505f8173ffffffffffffffffffffffffffffffffffffffff1663feaf968c6040518163ffffffff1660e01b815260040160a060405180830381865afa15801561088b573d5f803e3d5ffd5b505050506040513d601f19601f820116820180604052508101906108af9190610dad565b505050915050809350505050919050565b5f604051905090565b5f80fd5b5f80fd5b5f80fd5b5f80fd5b5f601f19601f8301169050919050565b7f4e487b71000000000000000000000000000000000000000000000000000000005f52604160045260245ffd5b61091f826108d9565b810181811067ffffffffffffffff8211171561093e5761093d6108e9565b5b80604052505050565b5f6109506108c0565b905061095c8282610916565b919050565b5f67ffffffffffffffff82111561097b5761097a6108e9565b5b610984826108d9565b9050602081019050919050565b828183375f83830152505050565b5f6109b16109ac84610961565b610947565b9050828152602081018484840111156109cd576109cc6108d5565b5b6109d8848285610991565b509392505050565b5f82601f8301126109f4576109f36108d1565b5b8135610a0484826020860161099f565b91505092915050565b5f819050919050565b610a1f81610a0d565b8114610a29575f80fd5b50565b5f81359050610a3a81610a16565b92915050565b5f8060408385031215610a5657610a556108c9565b5b5f83013567ffffffffffffffff811115610a7357610a726108cd565b5b610a7f858286016109e0565b9250506020610a9085828601610a2c565b9150509250929050565b5f60208284031215610aaf57610aae6108c9565b5b5f82013567ffffffffffffffff811115610acc57610acb6108cd565b5b610ad8848285016109e0565b91505092915050565b5f73ffffffffffffffffffffffffffffffffffffffff82169050919050565b5f610b0a82610ae1565b9050919050565b610b1a81610b00565b82525050565b610b2981610a0d565b82525050565b5f8115159050919050565b610b4381610b2f565b82525050565b5f606082019050610b5c5f830186610b11565b610b696020830185610b20565b610b766040830184610b3a565b949350505050565b610b8781610b00565b8114610b91575f80fd5b50565b5f81359050610ba281610b7e565b92915050565b5f805f60608486031215610bbf57610bbe6108c9565b5b5f84013567ffffffffffffffff811115610bdc57610bdb6108cd565b5b610be8868287016109e0565b9350506020610bf986828701610b94565b9250506040610c0a86828701610a2c565b9150509250925092565b5f602082019050610c275f830184610b20565b92915050565b5f81519050919050565b5f81905092915050565b5f5b83811015610c5e578082015181840152602081019050610c43565b5f8484015250505050565b5f610c7382610c2d565b610c7d8185610c37565b9350610c8d818560208601610c41565b80840191505092915050565b5f610ca48284610c69565b915081905092915050565b5f82825260208201905092915050565b7f4173736574206e6f7420666f756e6400000000000000000000000000000000005f82015250565b5f610cf3600f83610caf565b9150610cfe82610cbf565b602082019050919050565b5f6020820190508181035f830152610d2081610ce7565b9050919050565b5f69ffffffffffffffffffff82169050919050565b610d4581610d27565b8114610d4f575f80fd5b50565b5f81519050610d6081610d3c565b92915050565b5f81519050610d7481610a16565b92915050565b5f819050919050565b610d8c81610d7a565b8114610d96575f80fd5b50565b5f81519050610da781610d83565b92915050565b5f805f805f60a08688031215610dc657610dc56108c9565b5b5f610dd388828901610d52565b9550506020610de488828901610d66565b9450506040610df588828901610d99565b9350506060610e0688828901610d99565b9250506080610e1788828901610d52565b9150509295509295909350565b5f610e2e82610c2d565b610e388185610caf565b9350610e48818560208601610c41565b610e51816108d9565b840191505092915050565b610e6581610d7a565b82525050565b5f6060820190508181035f830152610e838186610e24565b9050610e926020830185610b20565b610e9f6040830184610e5c565b949350505050565b7f696e76616c6964652070726963652066656564206164726573730000000000005f82015250565b5f610edb601a83610caf565b9150610ee682610ea7565b602082019050919050565b5f6020820190508181035f830152610f0881610ecf565b9050919050565b7f617373657420616c7265616479206578697374730000000000000000000000005f82015250565b5f610f43601483610caf565b9150610f4e82610f0f565b602082019050919050565b5f6020820190508181035f830152610f7081610f37565b905091905056fea2646970667358221220da60b6d027d6e49aa325ce2251321d7cab5f16208f775f58fcbf14acd6be919b64736f6c63430008180033",
					"opcodes": "PUSH1 0x80 PUSH1 0x40 MSTORE CALLVALUE DUP1 ISZERO PUSH2 0xF JUMPI PUSH0 DUP1 REVERT JUMPDEST POP PUSH2 0xFAD DUP1 PUSH2 0x1D PUSH0 CODECOPY PUSH0 RETURN INVALID PUSH1 0x80 PUSH1 0x40 MSTORE CALLVALUE DUP1 ISZERO PUSH2 0xF JUMPI PUSH0 DUP1 REVERT JUMPDEST POP PUSH1 0x4 CALLDATASIZE LT PUSH2 0x55 JUMPI PUSH0 CALLDATALOAD PUSH1 0xE0 SHR DUP1 PUSH4 0xFC5DE48 EQ PUSH2 0x59 JUMPI DUP1 PUSH4 0x85936228 EQ PUSH2 0x75 JUMPI DUP1 PUSH4 0xABC4544E EQ PUSH2 0xA7 JUMPI DUP1 PUSH4 0xCEE8BA47 EQ PUSH2 0xC3 JUMPI DUP1 PUSH4 0xF66A1B71 EQ PUSH2 0xDF JUMPI JUMPDEST PUSH0 DUP1 REVERT JUMPDEST PUSH2 0x73 PUSH1 0x4 DUP1 CALLDATASIZE SUB DUP2 ADD SWAP1 PUSH2 0x6E SWAP2 SWAP1 PUSH2 0xA40 JUMP JUMPDEST PUSH2 0x10F JUMP JUMPDEST STOP JUMPDEST PUSH2 0x8F PUSH1 0x4 DUP1 CALLDATASIZE SUB DUP2 ADD SWAP1 PUSH2 0x8A SWAP2 SWAP1 PUSH2 0xA9A JUMP JUMPDEST PUSH2 0x351 JUMP JUMPDEST PUSH1 0x40 MLOAD PUSH2 0x9E SWAP4 SWAP3 SWAP2 SWAP1 PUSH2 0xB49 JUMP JUMPDEST PUSH1 0x40 MLOAD DUP1 SWAP2 SUB SWAP1 RETURN JUMPDEST PUSH2 0xC1 PUSH1 0x4 DUP1 CALLDATASIZE SUB DUP2 ADD SWAP1 PUSH2 0xBC SWAP2 SWAP1 PUSH2 0xA9A JUMP JUMPDEST PUSH2 0x3B9 JUMP JUMPDEST STOP JUMPDEST PUSH2 0xDD PUSH1 0x4 DUP1 CALLDATASIZE SUB DUP2 ADD SWAP1 PUSH2 0xD8 SWAP2 SWAP1 PUSH2 0xBA8 JUMP JUMPDEST PUSH2 0x58B JUMP JUMPDEST STOP JUMPDEST PUSH2 0xF9 PUSH1 0x4 DUP1 CALLDATASIZE SUB DUP2 ADD SWAP1 PUSH2 0xF4 SWAP2 SWAP1 PUSH2 0xA9A JUMP JUMPDEST PUSH2 0x76A JUMP JUMPDEST PUSH1 0x40 MLOAD PUSH2 0x106 SWAP2 SWAP1 PUSH2 0xC14 JUMP JUMPDEST PUSH1 0x40 MLOAD DUP1 SWAP2 SUB SWAP1 RETURN JUMPDEST PUSH0 PUSH20 0xFFFFFFFFFFFFFFFFFFFFFFFFFFFFFFFFFFFFFFFF AND PUSH0 DUP4 PUSH1 0x40 MLOAD PUSH2 0x135 SWAP2 SWAP1 PUSH2 0xC99 JUMP JUMPDEST SWAP1 DUP2 MSTORE PUSH1 0x20 ADD PUSH1 0x40 MLOAD DUP1 SWAP2 SUB SWAP1 KECCAK256 PUSH0 ADD PUSH0 SWAP1 SLOAD SWAP1 PUSH2 0x100 EXP SWAP1 DIV PUSH20 0xFFFFFFFFFFFFFFFFFFFFFFFFFFFFFFFFFFFFFFFF AND PUSH20 0xFFFFFFFFFFFFFFFFFFFFFFFFFFFFFFFFFFFFFFFF AND SUB PUSH2 0x1BB JUMPI PUSH1 0x40 MLOAD PUSH32 0x8C379A000000000000000000000000000000000000000000000000000000000 DUP2 MSTORE PUSH1 0x4 ADD PUSH2 0x1B2 SWAP1 PUSH2 0xD09 JUMP JUMPDEST PUSH1 0x40 MLOAD DUP1 SWAP2 SUB SWAP1 REVERT JUMPDEST DUP1 PUSH0 DUP4 PUSH1 0x40 MLOAD PUSH2 0x1CB SWAP2 SWAP1 PUSH2 0xC99 JUMP JUMPDEST SWAP1 DUP2 MSTORE PUSH1 0x20 ADD PUSH1 0x40 MLOAD DUP1 SWAP2 SUB SWAP1 KECCAK256 PUSH1 0x1 ADD DUP2 SWAP1 SSTORE POP PUSH0 DUP1 DUP4 PUSH1 0x40 MLOAD PUSH2 0x1F0 SWAP2 SWAP1 PUSH2 0xC99 JUMP JUMPDEST SWAP1 DUP2 MSTORE PUSH1 0x20 ADD PUSH1 0x40 MLOAD DUP1 SWAP2 SUB SWAP1 KECCAK256 PUSH1 0x2 ADD PUSH0 PUSH2 0x100 EXP DUP2 SLOAD DUP2 PUSH1 0xFF MUL NOT AND SWAP1 DUP4 ISZERO ISZERO MUL OR SWAP1 SSTORE POP PUSH0 DUP1 DUP4 PUSH1 0x40 MLOAD PUSH2 0x227 SWAP2 SWAP1 PUSH2 0xC99 JUMP JUMPDEST SWAP1 DUP2 MSTORE PUSH1 0x20 ADD PUSH1 0x40 MLOAD DUP1 SWAP2 SUB SWAP1 KECCAK256 PUSH0 ADD PUSH0 SWAP1 SLOAD SWAP1 PUSH2 0x100 EXP SWAP1 DIV PUSH20 0xFFFFFFFFFFFFFFFFFFFFFFFFFFFFFFFFFFFFFFFF AND SWAP1 POP PUSH0 DUP1 DUP3 PUSH20 0xFFFFFFFFFFFFFFFFFFFFFFFFFFFFFFFFFFFFFFFF AND PUSH4 0xFEAF968C PUSH1 0x40 MLOAD DUP2 PUSH4 0xFFFFFFFF AND PUSH1 0xE0 SHL DUP2 MSTORE PUSH1 0x4 ADD PUSH1 0xA0 PUSH1 0x40 MLOAD DUP1 DUP4 SUB DUP2 DUP7 GAS STATICCALL ISZERO DUP1 ISZERO PUSH2 0x2A4 JUMPI RETURNDATASIZE PUSH0 DUP1 RETURNDATACOPY RETURNDATASIZE PUSH0 REVERT JUMPDEST POP POP POP POP PUSH1 0x40 MLOAD RETURNDATASIZE PUSH1 0x1F NOT PUSH1 0x1F DUP3 ADD AND DUP3 ADD DUP1 PUSH1 0x40 MSTORE POP DUP2 ADD SWAP1 PUSH2 0x2C8 SWAP2 SWAP1 PUSH2 0xDAD JUMP JUMPDEST POP SWAP4 POP POP SWAP3 POP POP DUP4 DUP3 SLT PUSH2 0x34A JUMPI PUSH1 0x1 PUSH0 DUP7 PUSH1 0x40 MLOAD PUSH2 0x2E7 SWAP2 SWAP1 PUSH2 0xC99 JUMP JUMPDEST SWAP1 DUP2 MSTORE PUSH1 0x20 ADD PUSH1 0x40 MLOAD DUP1 SWAP2 SUB SWAP1 KECCAK256 PUSH1 0x2 ADD PUSH0 PUSH2 0x100 EXP DUP2 SLOAD DUP2 PUSH1 0xFF MUL NOT AND SWAP1 DUP4 ISZERO ISZERO MUL OR SWAP1 SSTORE POP PUSH32 0xBB5E414197EA3679DB445F9B3517361EE7DEF2D6525FB43DF5A7A42C3C4A88E1 DUP6 DUP4 DUP4 PUSH1 0x40 MLOAD PUSH2 0x341 SWAP4 SWAP3 SWAP2 SWAP1 PUSH2 0xE6B JUMP JUMPDEST PUSH1 0x40 MLOAD DUP1 SWAP2 SUB SWAP1 LOG1 JUMPDEST POP POP POP POP POP JUMP JUMPDEST PUSH0 DUP2 DUP1 MLOAD PUSH1 0x20 DUP2 ADD DUP3 ADD DUP1 MLOAD DUP5 DUP3 MSTORE PUSH1 0x20 DUP4 ADD PUSH1 0x20 DUP6 ADD KECCAK256 DUP2 DUP4 MSTORE DUP1 SWAP6 POP POP POP POP POP POP PUSH0 SWAP2 POP SWAP1 POP DUP1 PUSH0 ADD PUSH0 SWAP1 SLOAD SWAP1 PUSH2 0x100 EXP SWAP1 DIV PUSH20 0xFFFFFFFFFFFFFFFFFFFFFFFFFFFFFFFFFFFFFFFF AND SWAP1 DUP1 PUSH1 0x1 ADD SLOAD SWAP1 DUP1 PUSH1 0x2 ADD PUSH0 SWAP1 SLOAD SWAP1 PUSH2 0x100 EXP SWAP1 DIV PUSH1 0xFF AND SWAP1 POP DUP4 JUMP JUMPDEST PUSH0 DUP1 DUP3 PUSH1 0x40 MLOAD PUSH2 0x3C9 SWAP2 SWAP1 PUSH2 0xC99 JUMP JUMPDEST SWAP1 DUP2 MSTORE PUSH1 0x20 ADD PUSH1 0x40 MLOAD DUP1 SWAP2 SUB SWAP1 KECCAK256 SWAP1 POP PUSH0 PUSH20 0xFFFFFFFFFFFFFFFFFFFFFFFFFFFFFFFFFFFFFFFF AND DUP2 PUSH0 ADD PUSH0 SWAP1 SLOAD SWAP1 PUSH2 0x100 EXP SWAP1 DIV PUSH20 0xFFFFFFFFFFFFFFFFFFFFFFFFFFFFFFFFFFFFFFFF AND PUSH20 0xFFFFFFFFFFFFFFFFFFFFFFFFFFFFFFFFFFFFFFFF AND SUB PUSH2 0x469 JUMPI PUSH1 0x40 MLOAD PUSH32 0x8C379A000000000000000000000000000000000000000000000000000000000 DUP2 MSTORE PUSH1 0x4 ADD PUSH2 0x460 SWAP1 PUSH2 0xD09 JUMP JUMPDEST PUSH1 0x40 MLOAD DUP1 SWAP2 SUB SWAP1 REVERT JUMPDEST PUSH0 DUP2 PUSH0 ADD PUSH0 SWAP1 SLOAD SWAP1 PUSH2 0x100 EXP SWAP1 DIV PUSH20 0xFFFFFFFFFFFFFFFFFFFFFFFFFFFFFFFFFFFFFFFF AND SWAP1 POP PUSH0 DUP1 DUP3 PUSH20 0xFFFFFFFFFFFFFFFFFFFFFFFFFFFFFFFFFFFFFFFF AND PUSH4 0xFEAF968C PUSH1 0x40 MLOAD DUP2 PUSH4 0xFFFFFFFF AND PUSH1 0xE0 SHL DUP2 MSTORE PUSH1 0x4 ADD PUSH1 0xA0 PUSH1 0x40 MLOAD DUP1 DUP4 SUB DUP2 DUP7 GAS STATICCALL ISZERO DUP1 ISZERO PUSH2 0x4DA JUMPI RETURNDATASIZE PUSH0 DUP1 RETURNDATACOPY RETURNDATASIZE PUSH0 REVERT JUMPDEST POP POP POP POP PUSH1 0x40 MLOAD RETURNDATASIZE PUSH1 0x1F NOT PUSH1 0x1F DUP3 ADD AND DUP3 ADD DUP1 PUSH1 0x40 MSTORE POP DUP2 ADD SWAP1 PUSH2 0x4FE SWAP2 SWAP1 PUSH2 0xDAD JUMP JUMPDEST POP SWAP4 POP POP SWAP3 POP POP DUP4 PUSH1 0x2 ADD PUSH0 SWAP1 SLOAD SWAP1 PUSH2 0x100 EXP SWAP1 DIV PUSH1 0xFF AND ISZERO DUP1 ISZERO PUSH2 0x527 JUMPI POP DUP4 PUSH1 0x1 ADD SLOAD DUP3 SLT ISZERO JUMPDEST ISZERO PUSH2 0x584 JUMPI PUSH1 0x1 DUP5 PUSH1 0x2 ADD PUSH0 PUSH2 0x100 EXP DUP2 SLOAD DUP2 PUSH1 0xFF MUL NOT AND SWAP1 DUP4 ISZERO ISZERO MUL OR SWAP1 SSTORE POP PUSH32 0xBB5E414197EA3679DB445F9B3517361EE7DEF2D6525FB43DF5A7A42C3C4A88E1 DUP6 DUP4 DUP4 PUSH1 0x40 MLOAD PUSH2 0x57B SWAP4 SWAP3 SWAP2 SWAP1 PUSH2 0xE6B JUMP JUMPDEST PUSH1 0x40 MLOAD DUP1 SWAP2 SUB SWAP1 LOG1 JUMPDEST POP POP POP POP POP JUMP JUMPDEST PUSH0 PUSH20 0xFFFFFFFFFFFFFFFFFFFFFFFFFFFFFFFFFFFFFFFF AND DUP3 PUSH20 0xFFFFFFFFFFFFFFFFFFFFFFFFFFFFFFFFFFFFFFFF AND SUB PUSH2 0x5F9 JUMPI PUSH1 0x40 MLOAD PUSH32 0x8C379A000000000000000000000000000000000000000000000000000000000 DUP2 MSTORE PUSH1 0x4 ADD PUSH2 0x5F0 SWAP1 PUSH2 0xEF1 JUMP JUMPDEST PUSH1 0x40 MLOAD DUP1 SWAP2 SUB SWAP1 REVERT JUMPDEST PUSH0 PUSH20 0xFFFFFFFFFFFFFFFFFFFFFFFFFFFFFFFFFFFFFFFF AND PUSH0 DUP5 PUSH1 0x40 MLOAD PUSH2 0x61F SWAP2 SWAP1 PUSH2 0xC99 JUMP JUMPDEST SWAP1 DUP2 MSTORE PUSH1 0x20 ADD PUSH1 0x40 MLOAD DUP1 SWAP2 SUB SWAP1 KECCAK256 PUSH0 ADD PUSH0 SWAP1 SLOAD SWAP1 PUSH2 0x100 EXP SWAP1 DIV PUSH20 0xFFFFFFFFFFFFFFFFFFFFFFFFFFFFFFFFFFFFFFFF AND PUSH20 0xFFFFFFFFFFFFFFFFFFFFFFFFFFFFFFFFFFFFFFFF AND EQ PUSH2 0x6A5 JUMPI PUSH1 0x40 MLOAD PUSH32 0x8C379A000000000000000000000000000000000000000000000000000000000 DUP2 MSTORE PUSH1 0x4 ADD PUSH2 0x69C SWAP1 PUSH2 0xF59 JUMP JUMPDEST PUSH1 0x40 MLOAD DUP1 SWAP2 SUB SWAP1 REVERT JUMPDEST PUSH1 0x40 MLOAD DUP1 PUSH1 0x60 ADD PUSH1 0x40 MSTORE DUP1 DUP4 PUSH20 0xFFFFFFFFFFFFFFFFFFFFFFFFFFFFFFFFFFFFFFFF AND DUP2 MSTORE PUSH1 0x20 ADD DUP3 DUP2 MSTORE PUSH1 0x20 ADD PUSH0 ISZERO ISZERO DUP2 MSTORE POP PUSH0 DUP5 PUSH1 0x40 MLOAD PUSH2 0x6E7 SWAP2 SWAP1 PUSH2 0xC99 JUMP JUMPDEST SWAP1 DUP2 MSTORE PUSH1 0x20 ADD PUSH1 0x40 MLOAD DUP1 SWAP2 SUB SWAP1 KECCAK256 PUSH0 DUP3 ADD MLOAD DUP2 PUSH0 ADD PUSH0 PUSH2 0x100 EXP DUP2 SLOAD DUP2 PUSH20 0xFFFFFFFFFFFFFFFFFFFFFFFFFFFFFFFFFFFFFFFF MUL NOT AND SWAP1 DUP4 PUSH20 0xFFFFFFFFFFFFFFFFFFFFFFFFFFFFFFFFFFFFFFFF AND MUL OR SWAP1 SSTORE POP PUSH1 0x20 DUP3 ADD MLOAD DUP2 PUSH1 0x1 ADD SSTORE PUSH1 0x40 DUP3 ADD MLOAD DUP2 PUSH1 0x2 ADD PUSH0 PUSH2 0x100 EXP DUP2 SLOAD DUP2 PUSH1 0xFF MUL NOT AND SWAP1 DUP4 ISZERO ISZERO MUL OR SWAP1 SSTORE POP SWAP1 POP POP POP POP POP JUMP JUMPDEST PUSH0 DUP1 PUSH0 DUP4 PUSH1 0x40 MLOAD PUSH2 0x77B SWAP2 SWAP1 PUSH2 0xC99 JUMP JUMPDEST SWAP1 DUP2 MSTORE PUSH1 0x20 ADD PUSH1 0x40 MLOAD DUP1 SWAP2 SUB SWAP1 KECCAK256 SWAP1 POP PUSH0 PUSH20 0xFFFFFFFFFFFFFFFFFFFFFFFFFFFFFFFFFFFFFFFF AND DUP2 PUSH0 ADD PUSH0 SWAP1 SLOAD SWAP1 PUSH2 0x100 EXP SWAP1 DIV PUSH20 0xFFFFFFFFFFFFFFFFFFFFFFFFFFFFFFFFFFFFFFFF AND PUSH20 0xFFFFFFFFFFFFFFFFFFFFFFFFFFFFFFFFFFFFFFFF AND SUB PUSH2 0x81B JUMPI PUSH1 0x40 MLOAD PUSH32 0x8C379A000000000000000000000000000000000000000000000000000000000 DUP2 MSTORE PUSH1 0x4 ADD PUSH2 0x812 SWAP1 PUSH2 0xD09 JUMP JUMPDEST PUSH1 0x40 MLOAD DUP1 SWAP2 SUB SWAP1 REVERT JUMPDEST PUSH0 DUP2 PUSH0 ADD PUSH0 SWAP1 SLOAD SWAP1 PUSH2 0x100 EXP SWAP1 DIV PUSH20 0xFFFFFFFFFFFFFFFFFFFFFFFFFFFFFFFFFFFFFFFF AND SWAP1 POP PUSH0 DUP2 PUSH20 0xFFFFFFFFFFFFFFFFFFFFFFFFFFFFFFFFFFFFFFFF AND PUSH4 0xFEAF968C PUSH1 0x40 MLOAD DUP2 PUSH4 0xFFFFFFFF AND PUSH1 0xE0 SHL DUP2 MSTORE PUSH1 0x4 ADD PUSH1 0xA0 PUSH1 0x40 MLOAD DUP1 DUP4 SUB DUP2 DUP7 GAS STATICCALL ISZERO DUP1 ISZERO PUSH2 0x88B JUMPI RETURNDATASIZE PUSH0 DUP1 RETURNDATACOPY RETURNDATASIZE PUSH0 REVERT JUMPDEST POP POP POP POP PUSH1 0x40 MLOAD RETURNDATASIZE PUSH1 0x1F NOT PUSH1 0x1F DUP3 ADD AND DUP3 ADD DUP1 PUSH1 0x40 MSTORE POP DUP2 ADD SWAP1 PUSH2 0x8AF SWAP2 SWAP1 PUSH2 0xDAD JUMP JUMPDEST POP POP POP SWAP2 POP POP DUP1 SWAP4 POP POP POP POP SWAP2 SWAP1 POP JUMP JUMPDEST PUSH0 PUSH1 0x40 MLOAD SWAP1 POP SWAP1 JUMP JUMPDEST PUSH0 DUP1 REVERT JUMPDEST PUSH0 DUP1 REVERT JUMPDEST PUSH0 DUP1 REVERT JUMPDEST PUSH0 DUP1 REVERT JUMPDEST PUSH0 PUSH1 0x1F NOT PUSH1 0x1F DUP4 ADD AND SWAP1 POP SWAP2 SWAP1 POP JUMP JUMPDEST PUSH32 0x4E487B7100000000000000000000000000000000000000000000000000000000 PUSH0 MSTORE PUSH1 0x41 PUSH1 0x4 MSTORE PUSH1 0x24 PUSH0 REVERT JUMPDEST PUSH2 0x91F DUP3 PUSH2 0x8D9 JUMP JUMPDEST DUP2 ADD DUP2 DUP2 LT PUSH8 0xFFFFFFFFFFFFFFFF DUP3 GT OR ISZERO PUSH2 0x93E JUMPI PUSH2 0x93D PUSH2 0x8E9 JUMP JUMPDEST JUMPDEST DUP1 PUSH1 0x40 MSTORE POP POP POP JUMP JUMPDEST PUSH0 PUSH2 0x950 PUSH2 0x8C0 JUMP JUMPDEST SWAP1 POP PUSH2 0x95C DUP3 DUP3 PUSH2 0x916 JUMP JUMPDEST SWAP2 SWAP1 POP JUMP JUMPDEST PUSH0 PUSH8 0xFFFFFFFFFFFFFFFF DUP3 GT ISZERO PUSH2 0x97B JUMPI PUSH2 0x97A PUSH2 0x8E9 JUMP JUMPDEST JUMPDEST PUSH2 0x984 DUP3 PUSH2 0x8D9 JUMP JUMPDEST SWAP1 POP PUSH1 0x20 DUP2 ADD SWAP1 POP SWAP2 SWAP1 POP JUMP JUMPDEST DUP3 DUP2 DUP4 CALLDATACOPY PUSH0 DUP4 DUP4 ADD MSTORE POP POP POP JUMP JUMPDEST PUSH0 PUSH2 0x9B1 PUSH2 0x9AC DUP5 PUSH2 0x961 JUMP JUMPDEST PUSH2 0x947 JUMP JUMPDEST SWAP1 POP DUP3 DUP2 MSTORE PUSH1 0x20 DUP2 ADD DUP5 DUP5 DUP5 ADD GT ISZERO PUSH2 0x9CD JUMPI PUSH2 0x9CC PUSH2 0x8D5 JUMP JUMPDEST JUMPDEST PUSH2 0x9D8 DUP5 DUP3 DUP6 PUSH2 0x991 JUMP JUMPDEST POP SWAP4 SWAP3 POP POP POP JUMP JUMPDEST PUSH0 DUP3 PUSH1 0x1F DUP4 ADD SLT PUSH2 0x9F4 JUMPI PUSH2 0x9F3 PUSH2 0x8D1 JUMP JUMPDEST JUMPDEST DUP2 CALLDATALOAD PUSH2 0xA04 DUP5 DUP3 PUSH1 0x20 DUP7 ADD PUSH2 0x99F JUMP JUMPDEST SWAP2 POP POP SWAP3 SWAP2 POP POP JUMP JUMPDEST PUSH0 DUP2 SWAP1 POP SWAP2 SWAP1 POP JUMP JUMPDEST PUSH2 0xA1F DUP2 PUSH2 0xA0D JUMP JUMPDEST DUP2 EQ PUSH2 0xA29 JUMPI PUSH0 DUP1 REVERT JUMPDEST POP JUMP JUMPDEST PUSH0 DUP2 CALLDATALOAD SWAP1 POP PUSH2 0xA3A DUP2 PUSH2 0xA16 JUMP JUMPDEST SWAP3 SWAP2 POP POP JUMP JUMPDEST PUSH0 DUP1 PUSH1 0x40 DUP4 DUP6 SUB SLT ISZERO PUSH2 0xA56 JUMPI PUSH2 0xA55 PUSH2 0x8C9 JUMP JUMPDEST JUMPDEST PUSH0 DUP4 ADD CALLDATALOAD PUSH8 0xFFFFFFFFFFFFFFFF DUP2 GT ISZERO PUSH2 0xA73 JUMPI PUSH2 0xA72 PUSH2 0x8CD JUMP JUMPDEST JUMPDEST PUSH2 0xA7F DUP6 DUP3 DUP7 ADD PUSH2 0x9E0 JUMP JUMPDEST SWAP3 POP POP PUSH1 0x20 PUSH2 0xA90 DUP6 DUP3 DUP7 ADD PUSH2 0xA2C JUMP JUMPDEST SWAP2 POP POP SWAP3 POP SWAP3 SWAP1 POP JUMP JUMPDEST PUSH0 PUSH1 0x20 DUP3 DUP5 SUB SLT ISZERO PUSH2 0xAAF JUMPI PUSH2 0xAAE PUSH2 0x8C9 JUMP JUMPDEST JUMPDEST PUSH0 DUP3 ADD CALLDATALOAD PUSH8 0xFFFFFFFFFFFFFFFF DUP2 GT ISZERO PUSH2 0xACC JUMPI PUSH2 0xACB PUSH2 0x8CD JUMP JUMPDEST JUMPDEST PUSH2 0xAD8 DUP5 DUP3 DUP6 ADD PUSH2 0x9E0 JUMP JUMPDEST SWAP2 POP POP SWAP3 SWAP2 POP POP JUMP JUMPDEST PUSH0 PUSH20 0xFFFFFFFFFFFFFFFFFFFFFFFFFFFFFFFFFFFFFFFF DUP3 AND SWAP1 POP SWAP2 SWAP1 POP JUMP JUMPDEST PUSH0 PUSH2 0xB0A DUP3 PUSH2 0xAE1 JUMP JUMPDEST SWAP1 POP SWAP2 SWAP1 POP JUMP JUMPDEST PUSH2 0xB1A DUP2 PUSH2 0xB00 JUMP JUMPDEST DUP3 MSTORE POP POP JUMP JUMPDEST PUSH2 0xB29 DUP2 PUSH2 0xA0D JUMP JUMPDEST DUP3 MSTORE POP POP JUMP JUMPDEST PUSH0 DUP2 ISZERO ISZERO SWAP1 POP SWAP2 SWAP1 POP JUMP JUMPDEST PUSH2 0xB43 DUP2 PUSH2 0xB2F JUMP JUMPDEST DUP3 MSTORE POP POP JUMP JUMPDEST PUSH0 PUSH1 0x60 DUP3 ADD SWAP1 POP PUSH2 0xB5C PUSH0 DUP4 ADD DUP7 PUSH2 0xB11 JUMP JUMPDEST PUSH2 0xB69 PUSH1 0x20 DUP4 ADD DUP6 PUSH2 0xB20 JUMP JUMPDEST PUSH2 0xB76 PUSH1 0x40 DUP4 ADD DUP5 PUSH2 0xB3A JUMP JUMPDEST SWAP5 SWAP4 POP POP POP POP JUMP JUMPDEST PUSH2 0xB87 DUP2 PUSH2 0xB00 JUMP JUMPDEST DUP2 EQ PUSH2 0xB91 JUMPI PUSH0 DUP1 REVERT JUMPDEST POP JUMP JUMPDEST PUSH0 DUP2 CALLDATALOAD SWAP1 POP PUSH2 0xBA2 DUP2 PUSH2 0xB7E JUMP JUMPDEST SWAP3 SWAP2 POP POP JUMP JUMPDEST PUSH0 DUP1 PUSH0 PUSH1 0x60 DUP5 DUP7 SUB SLT ISZERO PUSH2 0xBBF JUMPI PUSH2 0xBBE PUSH2 0x8C9 JUMP JUMPDEST JUMPDEST PUSH0 DUP5 ADD CALLDATALOAD PUSH8 0xFFFFFFFFFFFFFFFF DUP2 GT ISZERO PUSH2 0xBDC JUMPI PUSH2 0xBDB PUSH2 0x8CD JUMP JUMPDEST JUMPDEST PUSH2 0xBE8 DUP7 DUP3 DUP8 ADD PUSH2 0x9E0 JUMP JUMPDEST SWAP4 POP POP PUSH1 0x20 PUSH2 0xBF9 DUP7 DUP3 DUP8 ADD PUSH2 0xB94 JUMP JUMPDEST SWAP3 POP POP PUSH1 0x40 PUSH2 0xC0A DUP7 DUP3 DUP8 ADD PUSH2 0xA2C JUMP JUMPDEST SWAP2 POP POP SWAP3 POP SWAP3 POP SWAP3 JUMP JUMPDEST PUSH0 PUSH1 0x20 DUP3 ADD SWAP1 POP PUSH2 0xC27 PUSH0 DUP4 ADD DUP5 PUSH2 0xB20 JUMP JUMPDEST SWAP3 SWAP2 POP POP JUMP JUMPDEST PUSH0 DUP2 MLOAD SWAP1 POP SWAP2 SWAP1 POP JUMP JUMPDEST PUSH0 DUP2 SWAP1 POP SWAP3 SWAP2 POP POP JUMP JUMPDEST PUSH0 JUMPDEST DUP4 DUP2 LT ISZERO PUSH2 0xC5E JUMPI DUP1 DUP3 ADD MLOAD DUP2 DUP5 ADD MSTORE PUSH1 0x20 DUP2 ADD SWAP1 POP PUSH2 0xC43 JUMP JUMPDEST PUSH0 DUP5 DUP5 ADD MSTORE POP POP POP POP JUMP JUMPDEST PUSH0 PUSH2 0xC73 DUP3 PUSH2 0xC2D JUMP JUMPDEST PUSH2 0xC7D DUP2 DUP6 PUSH2 0xC37 JUMP JUMPDEST SWAP4 POP PUSH2 0xC8D DUP2 DUP6 PUSH1 0x20 DUP7 ADD PUSH2 0xC41 JUMP JUMPDEST DUP1 DUP5 ADD SWAP2 POP POP SWAP3 SWAP2 POP POP JUMP JUMPDEST PUSH0 PUSH2 0xCA4 DUP3 DUP5 PUSH2 0xC69 JUMP JUMPDEST SWAP2 POP DUP2 SWAP1 POP SWAP3 SWAP2 POP POP JUMP JUMPDEST PUSH0 DUP3 DUP3 MSTORE PUSH1 0x20 DUP3 ADD SWAP1 POP SWAP3 SWAP2 POP POP JUMP JUMPDEST PUSH32 0x4173736574206E6F7420666F756E640000000000000000000000000000000000 PUSH0 DUP3 ADD MSTORE POP JUMP JUMPDEST PUSH0 PUSH2 0xCF3 PUSH1 0xF DUP4 PUSH2 0xCAF JUMP JUMPDEST SWAP2 POP PUSH2 0xCFE DUP3 PUSH2 0xCBF JUMP JUMPDEST PUSH1 0x20 DUP3 ADD SWAP1 POP SWAP2 SWAP1 POP JUMP JUMPDEST PUSH0 PUSH1 0x20 DUP3 ADD SWAP1 POP DUP2 DUP2 SUB PUSH0 DUP4 ADD MSTORE PUSH2 0xD20 DUP2 PUSH2 0xCE7 JUMP JUMPDEST SWAP1 POP SWAP2 SWAP1 POP JUMP JUMPDEST PUSH0 PUSH10 0xFFFFFFFFFFFFFFFFFFFF DUP3 AND SWAP1 POP SWAP2 SWAP1 POP JUMP JUMPDEST PUSH2 0xD45 DUP2 PUSH2 0xD27 JUMP JUMPDEST DUP2 EQ PUSH2 0xD4F JUMPI PUSH0 DUP1 REVERT JUMPDEST POP JUMP JUMPDEST PUSH0 DUP2 MLOAD SWAP1 POP PUSH2 0xD60 DUP2 PUSH2 0xD3C JUMP JUMPDEST SWAP3 SWAP2 POP POP JUMP JUMPDEST PUSH0 DUP2 MLOAD SWAP1 POP PUSH2 0xD74 DUP2 PUSH2 0xA16 JUMP JUMPDEST SWAP3 SWAP2 POP POP JUMP JUMPDEST PUSH0 DUP2 SWAP1 POP SWAP2 SWAP1 POP JUMP JUMPDEST PUSH2 0xD8C DUP2 PUSH2 0xD7A JUMP JUMPDEST DUP2 EQ PUSH2 0xD96 JUMPI PUSH0 DUP1 REVERT JUMPDEST POP JUMP JUMPDEST PUSH0 DUP2 MLOAD SWAP1 POP PUSH2 0xDA7 DUP2 PUSH2 0xD83 JUMP JUMPDEST SWAP3 SWAP2 POP POP JUMP JUMPDEST PUSH0 DUP1 PUSH0 DUP1 PUSH0 PUSH1 0xA0 DUP7 DUP9 SUB SLT ISZERO PUSH2 0xDC6 JUMPI PUSH2 0xDC5 PUSH2 0x8C9 JUMP JUMPDEST JUMPDEST PUSH0 PUSH2 0xDD3 DUP9 DUP3 DUP10 ADD PUSH2 0xD52 JUMP JUMPDEST SWAP6 POP POP PUSH1 0x20 PUSH2 0xDE4 DUP9 DUP3 DUP10 ADD PUSH2 0xD66 JUMP JUMPDEST SWAP5 POP POP PUSH1 0x40 PUSH2 0xDF5 DUP9 DUP3 DUP10 ADD PUSH2 0xD99 JUMP JUMPDEST SWAP4 POP POP PUSH1 0x60 PUSH2 0xE06 DUP9 DUP3 DUP10 ADD PUSH2 0xD99 JUMP JUMPDEST SWAP3 POP POP PUSH1 0x80 PUSH2 0xE17 DUP9 DUP3 DUP10 ADD PUSH2 0xD52 JUMP JUMPDEST SWAP2 POP POP SWAP3 SWAP6 POP SWAP3 SWAP6 SWAP1 SWAP4 POP JUMP JUMPDEST PUSH0 PUSH2 0xE2E DUP3 PUSH2 0xC2D JUMP JUMPDEST PUSH2 0xE38 DUP2 DUP6 PUSH2 0xCAF JUMP JUMPDEST SWAP4 POP PUSH2 0xE48 DUP2 DUP6 PUSH1 0x20 DUP7 ADD PUSH2 0xC41 JUMP JUMPDEST PUSH2 0xE51 DUP2 PUSH2 0x8D9 JUMP JUMPDEST DUP5 ADD SWAP2 POP POP SWAP3 SWAP2 POP POP JUMP JUMPDEST PUSH2 0xE65 DUP2 PUSH2 0xD7A JUMP JUMPDEST DUP3 MSTORE POP POP JUMP JUMPDEST PUSH0 PUSH1 0x60 DUP3 ADD SWAP1 POP DUP2 DUP2 SUB PUSH0 DUP4 ADD MSTORE PUSH2 0xE83 DUP2 DUP7 PUSH2 0xE24 JUMP JUMPDEST SWAP1 POP PUSH2 0xE92 PUSH1 0x20 DUP4 ADD DUP6 PUSH2 0xB20 JUMP JUMPDEST PUSH2 0xE9F PUSH1 0x40 DUP4 ADD DUP5 PUSH2 0xE5C JUMP JUMPDEST SWAP5 SWAP4 POP POP POP POP JUMP JUMPDEST PUSH32 0x696E76616C696465207072696365206665656420616472657373000000000000 PUSH0 DUP3 ADD MSTORE POP JUMP JUMPDEST PUSH0 PUSH2 0xEDB PUSH1 0x1A DUP4 PUSH2 0xCAF JUMP JUMPDEST SWAP2 POP PUSH2 0xEE6 DUP3 PUSH2 0xEA7 JUMP JUMPDEST PUSH1 0x20 DUP3 ADD SWAP1 POP SWAP2 SWAP1 POP JUMP JUMPDEST PUSH0 PUSH1 0x20 DUP3 ADD SWAP1 POP DUP2 DUP2 SUB PUSH0 DUP4 ADD MSTORE PUSH2 0xF08 DUP2 PUSH2 0xECF JUMP JUMPDEST SWAP1 POP SWAP2 SWAP1 POP JUMP JUMPDEST PUSH32 0x617373657420616C726561647920657869737473000000000000000000000000 PUSH0 DUP3 ADD MSTORE POP JUMP JUMPDEST PUSH0 PUSH2 0xF43 PUSH1 0x14 DUP4 PUSH2 0xCAF JUMP JUMPDEST SWAP2 POP PUSH2 0xF4E DUP3 PUSH2 0xF0F JUMP JUMPDEST PUSH1 0x20 DUP3 ADD SWAP1 POP SWAP2 SWAP1 POP JUMP JUMPDEST PUSH0 PUSH1 0x20 DUP3 ADD SWAP1 POP DUP2 DUP2 SUB PUSH0 DUP4 ADD MSTORE PUSH2 0xF70 DUP2 PUSH2 0xF37 JUMP JUMPDEST SWAP1 POP SWAP2 SWAP1 POP JUMP INVALID LOG2 PUSH5 0x6970667358 0x22 SLT KECCAK256 0xDA PUSH1 0xB6 0xD0 0x27 0xD6 0xE4 SWAP11 LOG3 0x25 0xCE 0x22 MLOAD ORIGIN SAR PUSH29 0xAB5F16208F775F58FCBF14ACD6BE919B64736F6C634300081800330000 "
				},
				"gasEstimates": {
					"creation": {
						"codeDepositCost": "802600",
						"executionCost": "836",
						"totalCost": "803436"
					},
					"external": {
						"addAsset(string,address,int256)": "infinite",
						"assets(string)": "infinite",
						"checkPrice(string)": "infinite",
						"getLatestPrice(string)": "infinite",
						"updateThreshold(string,int256)": "infinite"
					}
				},
				"methodIdentifiers": {
					"addAsset(string,address,int256)": "cee8ba47",
					"assets(string)": "85936228",
					"checkPrice(string)": "abc4544e",
					"getLatestPrice(string)": "f66a1b71",
					"updateThreshold(string,int256)": "0fc5de48"
				}
			},
			"storageLayout": {
				"storage": [
					{
						"astId": 60,
						"contract": "contracts/PriceAlarmTracking/AutomaticPriceLimitFlag.sol:PriceAlertSystem",
						"label": "assets",
						"offset": 0,
						"slot": "0",
						"type": "t_mapping(t_string_memory_ptr,t_struct(Asset)55_storage)"
					}
				],
				"types": {
					"t_address": {
						"encoding": "inplace",
						"label": "address",
						"numberOfBytes": "20"
					},
					"t_bool": {
						"encoding": "inplace",
						"label": "bool",
						"numberOfBytes": "1"
					},
					"t_int256": {
						"encoding": "inplace",
						"label": "int256",
						"numberOfBytes": "32"
					},
					"t_mapping(t_string_memory_ptr,t_struct(Asset)55_storage)": {
						"encoding": "mapping",
						"key": "t_string_memory_ptr",
						"label": "mapping(string => struct PriceAlertSystem.Asset)",
						"numberOfBytes": "32",
						"value": "t_struct(Asset)55_storage"
					},
					"t_string_memory_ptr": {
						"encoding": "bytes",
						"label": "string",
						"numberOfBytes": "32"
					},
					"t_struct(Asset)55_storage": {
						"encoding": "inplace",
						"label": "struct PriceAlertSystem.Asset",
						"members": [
							{
								"astId": 50,
								"contract": "contracts/PriceAlarmTracking/AutomaticPriceLimitFlag.sol:PriceAlertSystem",
								"label": "priceFeed",
								"offset": 0,
								"slot": "0",
								"type": "t_address"
							},
							{
								"astId": 52,
								"contract": "contracts/PriceAlarmTracking/AutomaticPriceLimitFlag.sol:PriceAlertSystem",
								"label": "priceLimit",
								"offset": 0,
								"slot": "1",
								"type": "t_int256"
							},
							{
								"astId": 54,
								"contract": "contracts/PriceAlarmTracking/AutomaticPriceLimitFlag.sol:PriceAlertSystem",
								"label": "priceLimitReached",
								"offset": 0,
								"slot": "2",
								"type": "t_bool"
							}
						],
						"numberOfBytes": "96"
					}
				}
			},
			"userdoc": {
				"kind": "user",
				"methods": {},
				"version": 1
			}
		}
	}
}