{
	"contracts/PriceAlarmTracking/PriceAlarmTracker.sol": {
		"PriceAlertSystem": {
			"abi": [
				{
					"anonymous": false,
					"inputs": [
						{
							"indexed": false,
							"internalType": "string",
							"name": "asset",
							"type": "string"
						},
						{
							"indexed": false,
							"internalType": "int256",
							"name": "price",
							"type": "int256"
						},
						{
							"indexed": false,
							"internalType": "uint256",
							"name": "timestamp",
							"type": "uint256"
						}
					],
					"name": "ThresholdReached",
					"type": "event"
				},
				{
					"inputs": [
						{
							"internalType": "string",
							"name": "name",
							"type": "string"
						},
						{
							"internalType": "address",
							"name": "priceFeed",
							"type": "address"
						},
						{
							"internalType": "int256",
							"name": "priceThreshold",
							"type": "int256"
						}
					],
					"name": "addAsset",
					"outputs": [],
					"stateMutability": "nonpayable",
					"type": "function"
				},
				{
					"inputs": [
						{
							"internalType": "string",
							"name": "",
							"type": "string"
						}
					],
					"name": "assets",
					"outputs": [
						{
							"internalType": "address",
							"name": "priceFeed",
							"type": "address"
						},
						{
							"internalType": "int256",
							"name": "priceThreshold",
							"type": "int256"
						},
						{
							"internalType": "bool",
							"name": "thresholdReached",
							"type": "bool"
						}
					],
					"stateMutability": "view",
					"type": "function"
				},
				{
					"inputs": [
						{
							"internalType": "string",
							"name": "name",
							"type": "string"
						}
					],
					"name": "checkPrice",
					"outputs": [],
					"stateMutability": "nonpayable",
					"type": "function"
				},
				{
					"inputs": [
						{
							"internalType": "string",
							"name": "name",
							"type": "string"
						}
					],
					"name": "getLatestPrice",
					"outputs": [
						{
							"internalType": "int256",
							"name": "",
							"type": "int256"
						}
					],
					"stateMutability": "view",
					"type": "function"
				}
			],
			"devdoc": {
				"kind": "dev",
				"methods": {},
				"version": 1
			},
			"evm": {
				"assembly": "    /* \"contracts/PriceAlarmTracking/PriceAlarmTracker.sol\":135:1599  contract PriceAlertSystem {... */\n  mstore(0x40, 0x80)\n  callvalue\n  dup1\n  iszero\n  tag_1\n  jumpi\n  0x00\n  dup1\n  revert\ntag_1:\n  pop\n  dataSize(sub_0)\n  dup1\n  dataOffset(sub_0)\n  0x00\n  codecopy\n  0x00\n  return\nstop\n\nsub_0: assembly {\n        /* \"contracts/PriceAlarmTracking/PriceAlarmTracker.sol\":135:1599  contract PriceAlertSystem {... */\n      mstore(0x40, 0x80)\n      callvalue\n      dup1\n      iszero\n      tag_1\n      jumpi\n      0x00\n      dup1\n      revert\n    tag_1:\n      pop\n      jumpi(tag_2, lt(calldatasize, 0x04))\n      shr(0xe0, calldataload(0x00))\n      dup1\n      0x85936228\n      eq\n      tag_3\n      jumpi\n      dup1\n      0xabc4544e\n      eq\n      tag_4\n      jumpi\n      dup1\n      0xcee8ba47\n      eq\n      tag_5\n      jumpi\n      dup1\n      0xf66a1b71\n      eq\n      tag_6\n      jumpi\n    tag_2:\n      0x00\n      dup1\n      revert\n        /* \"contracts/PriceAlarmTracking/PriceAlarmTracker.sol\":282:320  mapping(string => Asset) public assets */\n    tag_3:\n      tag_7\n      0x04\n      dup1\n      calldatasize\n      sub\n      dup2\n      add\n      swap1\n      tag_8\n      swap2\n      swap1\n      tag_9\n      jump\t// in\n    tag_8:\n      tag_10\n      jump\t// in\n    tag_7:\n      mload(0x40)\n      tag_11\n      swap4\n      swap3\n      swap2\n      swap1\n      tag_12\n      jump\t// in\n    tag_11:\n      mload(0x40)\n      dup1\n      swap2\n      sub\n      swap1\n      return\n        /* \"contracts/PriceAlarmTracking/PriceAlarmTracker.sol\":723:1233  function checkPrice(string memory name) public {... */\n    tag_4:\n      tag_13\n      0x04\n      dup1\n      calldatasize\n      sub\n      dup2\n      add\n      swap1\n      tag_14\n      swap2\n      swap1\n      tag_9\n      jump\t// in\n    tag_14:\n      tag_15\n      jump\t// in\n    tag_13:\n      stop\n        /* \"contracts/PriceAlarmTracking/PriceAlarmTracker.sol\":407:717  function addAsset(string memory name, address priceFeed, int256 priceThreshold) public {... */\n    tag_5:\n      tag_16\n      0x04\n      dup1\n      calldatasize\n      sub\n      dup2\n      add\n      swap1\n      tag_17\n      swap2\n      swap1\n      tag_18\n      jump\t// in\n    tag_17:\n      tag_19\n      jump\t// in\n    tag_16:\n      stop\n        /* \"contracts/PriceAlarmTracking/PriceAlarmTracker.sol\":1242:1597  function getLatestPrice(string memory name) public view returns (int256) {... */\n    tag_6:\n      tag_20\n      0x04\n      dup1\n      calldatasize\n      sub\n      dup2\n      add\n      swap1\n      tag_21\n      swap2\n      swap1\n      tag_9\n      jump\t// in\n    tag_21:\n      tag_22\n      jump\t// in\n    tag_20:\n      mload(0x40)\n      tag_23\n      swap2\n      swap1\n      tag_24\n      jump\t// in\n    tag_23:\n      mload(0x40)\n      dup1\n      swap2\n      sub\n      swap1\n      return\n        /* \"contracts/PriceAlarmTracking/PriceAlarmTracker.sol\":282:320  mapping(string => Asset) public assets */\n    tag_10:\n      0x00\n      dup2\n      dup1\n      mload\n      0x20\n      dup2\n      add\n      dup3\n      add\n      dup1\n      mload\n      dup5\n      dup3\n      mstore\n      0x20\n      dup4\n      add\n      0x20\n      dup6\n      add\n      keccak256\n      dup2\n      dup4\n      mstore\n      dup1\n      swap6\n      pop\n      pop\n      pop\n      pop\n      pop\n      pop\n      0x00\n      swap2\n      pop\n      swap1\n      pop\n      dup1\n      0x00\n      add\n      0x00\n      swap1\n      sload\n      swap1\n      0x0100\n      exp\n      swap1\n      div\n      0xffffffffffffffffffffffffffffffffffffffff\n      and\n      swap1\n      dup1\n      0x01\n      add\n      sload\n      swap1\n      dup1\n      0x02\n      add\n      0x00\n      swap1\n      sload\n      swap1\n      0x0100\n      exp\n      swap1\n      div\n      0xff\n      and\n      swap1\n      pop\n      dup4\n      jump\t// out\n        /* \"contracts/PriceAlarmTracking/PriceAlarmTracker.sol\":723:1233  function checkPrice(string memory name) public {... */\n    tag_15:\n        /* \"contracts/PriceAlarmTracking/PriceAlarmTracker.sol\":780:799  Asset storage asset */\n      0x00\n        /* \"contracts/PriceAlarmTracking/PriceAlarmTracker.sol\":802:808  assets */\n      dup1\n        /* \"contracts/PriceAlarmTracking/PriceAlarmTracker.sol\":809:813  name */\n      dup3\n        /* \"contracts/PriceAlarmTracking/PriceAlarmTracker.sol\":802:814  assets[name] */\n      mload(0x40)\n      tag_26\n      swap2\n      swap1\n      tag_27\n      jump\t// in\n    tag_26:\n      swap1\n      dup2\n      mstore\n      0x20\n      add\n      mload(0x40)\n      dup1\n      swap2\n      sub\n      swap1\n      keccak256\n        /* \"contracts/PriceAlarmTracking/PriceAlarmTracker.sol\":780:814  Asset storage asset = assets[name] */\n      swap1\n      pop\n        /* \"contracts/PriceAlarmTracking/PriceAlarmTracker.sol\":859:860  0 */\n      0x00\n        /* \"contracts/PriceAlarmTracking/PriceAlarmTracker.sol\":832:861  asset.priceFeed != address(0) */\n      0xffffffffffffffffffffffffffffffffffffffff\n      and\n        /* \"contracts/PriceAlarmTracking/PriceAlarmTracker.sol\":832:837  asset */\n      dup2\n        /* \"contracts/PriceAlarmTracking/PriceAlarmTracker.sol\":832:847  asset.priceFeed */\n      0x00\n      add\n      0x00\n      swap1\n      sload\n      swap1\n      0x0100\n      exp\n      swap1\n      div\n      0xffffffffffffffffffffffffffffffffffffffff\n      and\n        /* \"contracts/PriceAlarmTracking/PriceAlarmTracker.sol\":832:861  asset.priceFeed != address(0) */\n      0xffffffffffffffffffffffffffffffffffffffff\n      and\n      sub\n        /* \"contracts/PriceAlarmTracking/PriceAlarmTracker.sol\":824:881  require(asset.priceFeed != address(0), \"Asset not found\") */\n      tag_28\n      jumpi\n      mload(0x40)\n      0x08c379a000000000000000000000000000000000000000000000000000000000\n      dup2\n      mstore\n      0x04\n      add\n      tag_29\n      swap1\n      tag_30\n      jump\t// in\n    tag_29:\n      mload(0x40)\n      dup1\n      swap2\n      sub\n      swap1\n      revert\n    tag_28:\n        /* \"contracts/PriceAlarmTracking/PriceAlarmTracker.sol\":892:923  AggregatorV3Interface priceFeed */\n      0x00\n        /* \"contracts/PriceAlarmTracking/PriceAlarmTracker.sol\":948:953  asset */\n      dup2\n        /* \"contracts/PriceAlarmTracking/PriceAlarmTracker.sol\":948:963  asset.priceFeed */\n      0x00\n      add\n      0x00\n      swap1\n      sload\n      swap1\n      0x0100\n      exp\n      swap1\n      div\n      0xffffffffffffffffffffffffffffffffffffffff\n      and\n        /* \"contracts/PriceAlarmTracking/PriceAlarmTracker.sol\":892:964  AggregatorV3Interface priceFeed = AggregatorV3Interface(asset.priceFeed) */\n      swap1\n      pop\n        /* \"contracts/PriceAlarmTracking/PriceAlarmTracker.sol\":977:989  int256 price */\n      0x00\n        /* \"contracts/PriceAlarmTracking/PriceAlarmTracker.sol\":992:1009  uint256 updatedAt */\n      dup1\n        /* \"contracts/PriceAlarmTracking/PriceAlarmTracker.sol\":1014:1023  priceFeed */\n      dup3\n        /* \"contracts/PriceAlarmTracking/PriceAlarmTracker.sol\":1014:1039  priceFeed.latestRoundData */\n      0xffffffffffffffffffffffffffffffffffffffff\n      and\n      0xfeaf968c\n        /* \"contracts/PriceAlarmTracking/PriceAlarmTracker.sol\":1014:1041  priceFeed.latestRoundData() */\n      mload(0x40)\n      dup2\n      0xffffffff\n      and\n      0xe0\n      shl\n      dup2\n      mstore\n      0x04\n      add\n      0xa0\n      mload(0x40)\n      dup1\n      dup4\n      sub\n      dup2\n      dup7\n      gas\n      staticcall\n      iszero\n      dup1\n      iszero\n      tag_32\n      jumpi\n      returndatasize\n      0x00\n      dup1\n      returndatacopy\n      revert(0x00, returndatasize)\n    tag_32:\n      pop\n      pop\n      pop\n      pop\n      mload(0x40)\n      returndatasize\n      not(0x1f)\n      0x1f\n      dup3\n      add\n      and\n      dup3\n      add\n      dup1\n      0x40\n      mstore\n      pop\n      dup2\n      add\n      swap1\n      tag_33\n      swap2\n      swap1\n      tag_34\n      jump\t// in\n    tag_33:\n        /* \"contracts/PriceAlarmTracking/PriceAlarmTracker.sol\":974:1041  (, int256 price,, uint256 updatedAt,) = priceFeed.latestRoundData() */\n      pop\n      swap4\n      pop\n      pop\n      swap3\n      pop\n      pop\n        /* \"contracts/PriceAlarmTracking/PriceAlarmTracker.sol\":1057:1062  asset */\n      dup4\n        /* \"contracts/PriceAlarmTracking/PriceAlarmTracker.sol\":1057:1079  asset.thresholdReached */\n      0x02\n      add\n      0x00\n      swap1\n      sload\n      swap1\n      0x0100\n      exp\n      swap1\n      div\n      0xff\n      and\n        /* \"contracts/PriceAlarmTracking/PriceAlarmTracker.sol\":1056:1079  !asset.thresholdReached */\n      iszero\n        /* \"contracts/PriceAlarmTracking/PriceAlarmTracker.sol\":1056:1112  !asset.thresholdReached && price >= asset.priceThreshold */\n      dup1\n      iszero\n      tag_35\n      jumpi\n      pop\n        /* \"contracts/PriceAlarmTracking/PriceAlarmTracker.sol\":1092:1097  asset */\n      dup4\n        /* \"contracts/PriceAlarmTracking/PriceAlarmTracker.sol\":1092:1112  asset.priceThreshold */\n      0x01\n      add\n      sload\n        /* \"contracts/PriceAlarmTracking/PriceAlarmTracker.sol\":1083:1088  price */\n      dup3\n        /* \"contracts/PriceAlarmTracking/PriceAlarmTracker.sol\":1083:1112  price >= asset.priceThreshold */\n      slt\n      iszero\n        /* \"contracts/PriceAlarmTracking/PriceAlarmTracker.sol\":1056:1112  !asset.thresholdReached && price >= asset.priceThreshold */\n    tag_35:\n        /* \"contracts/PriceAlarmTracking/PriceAlarmTracker.sol\":1052:1227  if (!asset.thresholdReached && price >= asset.priceThreshold) {... */\n      iszero\n      tag_36\n      jumpi\n        /* \"contracts/PriceAlarmTracking/PriceAlarmTracker.sol\":1153:1157  true */\n      0x01\n        /* \"contracts/PriceAlarmTracking/PriceAlarmTracker.sol\":1128:1133  asset */\n      dup5\n        /* \"contracts/PriceAlarmTracking/PriceAlarmTracker.sol\":1128:1150  asset.thresholdReached */\n      0x02\n      add\n      0x00\n        /* \"contracts/PriceAlarmTracking/PriceAlarmTracker.sol\":1128:1157  asset.thresholdReached = true */\n      0x0100\n      exp\n      dup2\n      sload\n      dup2\n      0xff\n      mul\n      not\n      and\n      swap1\n      dup4\n      iszero\n      iszero\n      mul\n      or\n      swap1\n      sstore\n      pop\n        /* \"contracts/PriceAlarmTracking/PriceAlarmTracker.sol\":1176:1216  ThresholdReached(name, price, updatedAt) */\n      0xc4d07dac08b92039a7fae337838fc362d5d62827c43a5ed8b66c8aa7f01b940b\n        /* \"contracts/PriceAlarmTracking/PriceAlarmTracker.sol\":1193:1197  name */\n      dup6\n        /* \"contracts/PriceAlarmTracking/PriceAlarmTracker.sol\":1199:1204  price */\n      dup4\n        /* \"contracts/PriceAlarmTracking/PriceAlarmTracker.sol\":1206:1215  updatedAt */\n      dup4\n        /* \"contracts/PriceAlarmTracking/PriceAlarmTracker.sol\":1176:1216  ThresholdReached(name, price, updatedAt) */\n      mload(0x40)\n      tag_37\n      swap4\n      swap3\n      swap2\n      swap1\n      tag_38\n      jump\t// in\n    tag_37:\n      mload(0x40)\n      dup1\n      swap2\n      sub\n      swap1\n      log1\n        /* \"contracts/PriceAlarmTracking/PriceAlarmTracker.sol\":1052:1227  if (!asset.thresholdReached && price >= asset.priceThreshold) {... */\n    tag_36:\n        /* \"contracts/PriceAlarmTracking/PriceAlarmTracker.sol\":770:1233  {... */\n      pop\n      pop\n      pop\n      pop\n        /* \"contracts/PriceAlarmTracking/PriceAlarmTracker.sol\":723:1233  function checkPrice(string memory name) public {... */\n      pop\n      jump\t// out\n        /* \"contracts/PriceAlarmTracking/PriceAlarmTracker.sol\":407:717  function addAsset(string memory name, address priceFeed, int256 priceThreshold) public {... */\n    tag_19:\n        /* \"contracts/PriceAlarmTracking/PriceAlarmTracker.sol\":533:534  0 */\n      0x00\n        /* \"contracts/PriceAlarmTracking/PriceAlarmTracker.sol\":512:535  priceFeed != address(0) */\n      0xffffffffffffffffffffffffffffffffffffffff\n      and\n        /* \"contracts/PriceAlarmTracking/PriceAlarmTracker.sol\":512:521  priceFeed */\n      dup3\n        /* \"contracts/PriceAlarmTracking/PriceAlarmTracker.sol\":512:535  priceFeed != address(0) */\n      0xffffffffffffffffffffffffffffffffffffffff\n      and\n      sub\n        /* \"contracts/PriceAlarmTracking/PriceAlarmTracker.sol\":504:566  require(priceFeed != address(0), \"Invalid price feed address\") */\n      tag_40\n      jumpi\n      mload(0x40)\n      0x08c379a000000000000000000000000000000000000000000000000000000000\n      dup2\n      mstore\n      0x04\n      add\n      tag_41\n      swap1\n      tag_42\n      jump\t// in\n    tag_41:\n      mload(0x40)\n      dup1\n      swap2\n      sub\n      swap1\n      revert\n    tag_40:\n        /* \"contracts/PriceAlarmTracking/PriceAlarmTracker.sol\":618:619  0 */\n      0x00\n        /* \"contracts/PriceAlarmTracking/PriceAlarmTracker.sol\":584:620  assets[name].priceFeed == address(0) */\n      0xffffffffffffffffffffffffffffffffffffffff\n      and\n        /* \"contracts/PriceAlarmTracking/PriceAlarmTracker.sol\":584:590  assets */\n      0x00\n        /* \"contracts/PriceAlarmTracking/PriceAlarmTracker.sol\":591:595  name */\n      dup5\n        /* \"contracts/PriceAlarmTracking/PriceAlarmTracker.sol\":584:596  assets[name] */\n      mload(0x40)\n      tag_43\n      swap2\n      swap1\n      tag_27\n      jump\t// in\n    tag_43:\n      swap1\n      dup2\n      mstore\n      0x20\n      add\n      mload(0x40)\n      dup1\n      swap2\n      sub\n      swap1\n      keccak256\n        /* \"contracts/PriceAlarmTracking/PriceAlarmTracker.sol\":584:606  assets[name].priceFeed */\n      0x00\n      add\n      0x00\n      swap1\n      sload\n      swap1\n      0x0100\n      exp\n      swap1\n      div\n      0xffffffffffffffffffffffffffffffffffffffff\n      and\n        /* \"contracts/PriceAlarmTracking/PriceAlarmTracker.sol\":584:620  assets[name].priceFeed == address(0) */\n      0xffffffffffffffffffffffffffffffffffffffff\n      and\n      eq\n        /* \"contracts/PriceAlarmTracking/PriceAlarmTracker.sol\":576:645  require(assets[name].priceFeed == address(0), \"Asset already exists\") */\n      tag_44\n      jumpi\n      mload(0x40)\n      0x08c379a000000000000000000000000000000000000000000000000000000000\n      dup2\n      mstore\n      0x04\n      add\n      tag_45\n      swap1\n      tag_46\n      jump\t// in\n    tag_45:\n      mload(0x40)\n      dup1\n      swap2\n      sub\n      swap1\n      revert\n    tag_44:\n        /* \"contracts/PriceAlarmTracking/PriceAlarmTracker.sol\":671:710  Asset(priceFeed, priceThreshold, false) */\n      mload(0x40)\n      dup1\n      0x60\n      add\n      0x40\n      mstore\n      dup1\n        /* \"contracts/PriceAlarmTracking/PriceAlarmTracker.sol\":677:686  priceFeed */\n      dup4\n        /* \"contracts/PriceAlarmTracking/PriceAlarmTracker.sol\":671:710  Asset(priceFeed, priceThreshold, false) */\n      0xffffffffffffffffffffffffffffffffffffffff\n      and\n      dup2\n      mstore\n      0x20\n      add\n        /* \"contracts/PriceAlarmTracking/PriceAlarmTracker.sol\":688:702  priceThreshold */\n      dup3\n        /* \"contracts/PriceAlarmTracking/PriceAlarmTracker.sol\":671:710  Asset(priceFeed, priceThreshold, false) */\n      dup2\n      mstore\n      0x20\n      add\n        /* \"contracts/PriceAlarmTracking/PriceAlarmTracker.sol\":704:709  false */\n      0x00\n        /* \"contracts/PriceAlarmTracking/PriceAlarmTracker.sol\":671:710  Asset(priceFeed, priceThreshold, false) */\n      iszero\n      iszero\n      dup2\n      mstore\n      pop\n        /* \"contracts/PriceAlarmTracking/PriceAlarmTracker.sol\":656:662  assets */\n      0x00\n        /* \"contracts/PriceAlarmTracking/PriceAlarmTracker.sol\":663:667  name */\n      dup5\n        /* \"contracts/PriceAlarmTracking/PriceAlarmTracker.sol\":656:668  assets[name] */\n      mload(0x40)\n      tag_47\n      swap2\n      swap1\n      tag_27\n      jump\t// in\n    tag_47:\n      swap1\n      dup2\n      mstore\n      0x20\n      add\n      mload(0x40)\n      dup1\n      swap2\n      sub\n      swap1\n      keccak256\n        /* \"contracts/PriceAlarmTracking/PriceAlarmTracker.sol\":656:710  assets[name] = Asset(priceFeed, priceThreshold, false) */\n      0x00\n      dup3\n      add\n      mload\n      dup2\n      0x00\n      add\n      exp(0x0100, 0x00)\n      dup2\n      sload\n      dup2\n      0xffffffffffffffffffffffffffffffffffffffff\n      mul\n      not\n      and\n      swap1\n      dup4\n      0xffffffffffffffffffffffffffffffffffffffff\n      and\n      mul\n      or\n      swap1\n      sstore\n      pop\n      0x20\n      dup3\n      add\n      mload\n      dup2\n      0x01\n      add\n      sstore\n      0x40\n      dup3\n      add\n      mload\n      dup2\n      0x02\n      add\n      exp(0x0100, 0x00)\n      dup2\n      sload\n      dup2\n      0xff\n      mul\n      not\n      and\n      swap1\n      dup4\n      iszero\n      iszero\n      mul\n      or\n      swap1\n      sstore\n      pop\n      swap1\n      pop\n      pop\n        /* \"contracts/PriceAlarmTracking/PriceAlarmTracker.sol\":407:717  function addAsset(string memory name, address priceFeed, int256 priceThreshold) public {... */\n      pop\n      pop\n      pop\n      jump\t// out\n        /* \"contracts/PriceAlarmTracking/PriceAlarmTracker.sol\":1242:1597  function getLatestPrice(string memory name) public view returns (int256) {... */\n    tag_22:\n        /* \"contracts/PriceAlarmTracking/PriceAlarmTracker.sol\":1307:1313  int256 */\n      0x00\n        /* \"contracts/PriceAlarmTracking/PriceAlarmTracker.sol\":1325:1344  Asset storage asset */\n      dup1\n        /* \"contracts/PriceAlarmTracking/PriceAlarmTracker.sol\":1347:1353  assets */\n      0x00\n        /* \"contracts/PriceAlarmTracking/PriceAlarmTracker.sol\":1354:1358  name */\n      dup4\n        /* \"contracts/PriceAlarmTracking/PriceAlarmTracker.sol\":1347:1359  assets[name] */\n      mload(0x40)\n      tag_49\n      swap2\n      swap1\n      tag_27\n      jump\t// in\n    tag_49:\n      swap1\n      dup2\n      mstore\n      0x20\n      add\n      mload(0x40)\n      dup1\n      swap2\n      sub\n      swap1\n      keccak256\n        /* \"contracts/PriceAlarmTracking/PriceAlarmTracker.sol\":1325:1359  Asset storage asset = assets[name] */\n      swap1\n      pop\n        /* \"contracts/PriceAlarmTracking/PriceAlarmTracker.sol\":1404:1405  0 */\n      0x00\n        /* \"contracts/PriceAlarmTracking/PriceAlarmTracker.sol\":1377:1406  asset.priceFeed != address(0) */\n      0xffffffffffffffffffffffffffffffffffffffff\n      and\n        /* \"contracts/PriceAlarmTracking/PriceAlarmTracker.sol\":1377:1382  asset */\n      dup2\n        /* \"contracts/PriceAlarmTracking/PriceAlarmTracker.sol\":1377:1392  asset.priceFeed */\n      0x00\n      add\n      0x00\n      swap1\n      sload\n      swap1\n      0x0100\n      exp\n      swap1\n      div\n      0xffffffffffffffffffffffffffffffffffffffff\n      and\n        /* \"contracts/PriceAlarmTracking/PriceAlarmTracker.sol\":1377:1406  asset.priceFeed != address(0) */\n      0xffffffffffffffffffffffffffffffffffffffff\n      and\n      sub\n        /* \"contracts/PriceAlarmTracking/PriceAlarmTracker.sol\":1369:1426  require(asset.priceFeed != address(0), \"Asset not found\") */\n      tag_50\n      jumpi\n      mload(0x40)\n      0x08c379a000000000000000000000000000000000000000000000000000000000\n      dup2\n      mstore\n      0x04\n      add\n      tag_51\n      swap1\n      tag_30\n      jump\t// in\n    tag_51:\n      mload(0x40)\n      dup1\n      swap2\n      sub\n      swap1\n      revert\n    tag_50:\n        /* \"contracts/PriceAlarmTracking/PriceAlarmTracker.sol\":1437:1468  AggregatorV3Interface priceFeed */\n      0x00\n        /* \"contracts/PriceAlarmTracking/PriceAlarmTracker.sol\":1493:1498  asset */\n      dup2\n        /* \"contracts/PriceAlarmTracking/PriceAlarmTracker.sol\":1493:1508  asset.priceFeed */\n      0x00\n      add\n      0x00\n      swap1\n      sload\n      swap1\n      0x0100\n      exp\n      swap1\n      div\n      0xffffffffffffffffffffffffffffffffffffffff\n      and\n        /* \"contracts/PriceAlarmTracking/PriceAlarmTracker.sol\":1437:1509  AggregatorV3Interface priceFeed = AggregatorV3Interface(asset.priceFeed) */\n      swap1\n      pop\n        /* \"contracts/PriceAlarmTracking/PriceAlarmTracker.sol\":1522:1534  int256 price */\n      0x00\n        /* \"contracts/PriceAlarmTracking/PriceAlarmTracker.sol\":1541:1550  priceFeed */\n      dup2\n        /* \"contracts/PriceAlarmTracking/PriceAlarmTracker.sol\":1541:1566  priceFeed.latestRoundData */\n      0xffffffffffffffffffffffffffffffffffffffff\n      and\n      0xfeaf968c\n        /* \"contracts/PriceAlarmTracking/PriceAlarmTracker.sol\":1541:1568  priceFeed.latestRoundData() */\n      mload(0x40)\n      dup2\n      0xffffffff\n      and\n      0xe0\n      shl\n      dup2\n      mstore\n      0x04\n      add\n      0xa0\n      mload(0x40)\n      dup1\n      dup4\n      sub\n      dup2\n      dup7\n      gas\n      staticcall\n      iszero\n      dup1\n      iszero\n      tag_53\n      jumpi\n      returndatasize\n      0x00\n      dup1\n      returndatacopy\n      revert(0x00, returndatasize)\n    tag_53:\n      pop\n      pop\n      pop\n      pop\n      mload(0x40)\n      returndatasize\n      not(0x1f)\n      0x1f\n      dup3\n      add\n      and\n      dup3\n      add\n      dup1\n      0x40\n      mstore\n      pop\n      dup2\n      add\n      swap1\n      tag_54\n      swap2\n      swap1\n      tag_34\n      jump\t// in\n    tag_54:\n        /* \"contracts/PriceAlarmTracking/PriceAlarmTracker.sol\":1519:1568  (, int256 price,,,) = priceFeed.latestRoundData() */\n      pop\n      pop\n      pop\n      swap2\n      pop\n      pop\n        /* \"contracts/PriceAlarmTracking/PriceAlarmTracker.sol\":1585:1590  price */\n      dup1\n        /* \"contracts/PriceAlarmTracking/PriceAlarmTracker.sol\":1578:1590  return price */\n      swap4\n      pop\n      pop\n      pop\n      pop\n        /* \"contracts/PriceAlarmTracking/PriceAlarmTracker.sol\":1242:1597  function getLatestPrice(string memory name) public view returns (int256) {... */\n      swap2\n      swap1\n      pop\n      jump\t// out\n        /* \"#utility.yul\":7:82   */\n    tag_55:\n        /* \"#utility.yul\":40:46   */\n      0x00\n        /* \"#utility.yul\":73:75   */\n      0x40\n        /* \"#utility.yul\":67:76   */\n      mload\n        /* \"#utility.yul\":57:76   */\n      swap1\n      pop\n        /* \"#utility.yul\":7:82   */\n      swap1\n      jump\t// out\n        /* \"#utility.yul\":88:205   */\n    tag_56:\n        /* \"#utility.yul\":197:198   */\n      0x00\n        /* \"#utility.yul\":194:195   */\n      dup1\n        /* \"#utility.yul\":187:199   */\n      revert\n        /* \"#utility.yul\":211:328   */\n    tag_57:\n        /* \"#utility.yul\":320:321   */\n      0x00\n        /* \"#utility.yul\":317:318   */\n      dup1\n        /* \"#utility.yul\":310:322   */\n      revert\n        /* \"#utility.yul\":334:451   */\n    tag_58:\n        /* \"#utility.yul\":443:444   */\n      0x00\n        /* \"#utility.yul\":440:441   */\n      dup1\n        /* \"#utility.yul\":433:445   */\n      revert\n        /* \"#utility.yul\":457:574   */\n    tag_59:\n        /* \"#utility.yul\":566:567   */\n      0x00\n        /* \"#utility.yul\":563:564   */\n      dup1\n        /* \"#utility.yul\":556:568   */\n      revert\n        /* \"#utility.yul\":580:682   */\n    tag_60:\n        /* \"#utility.yul\":621:627   */\n      0x00\n        /* \"#utility.yul\":672:674   */\n      0x1f\n        /* \"#utility.yul\":668:675   */\n      not\n        /* \"#utility.yul\":663:665   */\n      0x1f\n        /* \"#utility.yul\":656:661   */\n      dup4\n        /* \"#utility.yul\":652:666   */\n      add\n        /* \"#utility.yul\":648:676   */\n      and\n        /* \"#utility.yul\":638:676   */\n      swap1\n      pop\n        /* \"#utility.yul\":580:682   */\n      swap2\n      swap1\n      pop\n      jump\t// out\n        /* \"#utility.yul\":688:868   */\n    tag_61:\n        /* \"#utility.yul\":736:813   */\n      0x4e487b7100000000000000000000000000000000000000000000000000000000\n        /* \"#utility.yul\":733:734   */\n      0x00\n        /* \"#utility.yul\":726:814   */\n      mstore\n        /* \"#utility.yul\":833:837   */\n      0x41\n        /* \"#utility.yul\":830:831   */\n      0x04\n        /* \"#utility.yul\":823:838   */\n      mstore\n        /* \"#utility.yul\":857:861   */\n      0x24\n        /* \"#utility.yul\":854:855   */\n      0x00\n        /* \"#utility.yul\":847:862   */\n      revert\n        /* \"#utility.yul\":874:1155   */\n    tag_62:\n        /* \"#utility.yul\":957:984   */\n      tag_108\n        /* \"#utility.yul\":979:983   */\n      dup3\n        /* \"#utility.yul\":957:984   */\n      tag_60\n      jump\t// in\n    tag_108:\n        /* \"#utility.yul\":949:955   */\n      dup2\n        /* \"#utility.yul\":945:985   */\n      add\n        /* \"#utility.yul\":1087:1093   */\n      dup2\n        /* \"#utility.yul\":1075:1085   */\n      dup2\n        /* \"#utility.yul\":1072:1094   */\n      lt\n        /* \"#utility.yul\":1051:1069   */\n      0xffffffffffffffff\n        /* \"#utility.yul\":1039:1049   */\n      dup3\n        /* \"#utility.yul\":1036:1070   */\n      gt\n        /* \"#utility.yul\":1033:1095   */\n      or\n        /* \"#utility.yul\":1030:1118   */\n      iszero\n      tag_109\n      jumpi\n        /* \"#utility.yul\":1098:1116   */\n      tag_110\n      tag_61\n      jump\t// in\n    tag_110:\n        /* \"#utility.yul\":1030:1118   */\n    tag_109:\n        /* \"#utility.yul\":1138:1148   */\n      dup1\n        /* \"#utility.yul\":1134:1136   */\n      0x40\n        /* \"#utility.yul\":1127:1149   */\n      mstore\n        /* \"#utility.yul\":917:1155   */\n      pop\n        /* \"#utility.yul\":874:1155   */\n      pop\n      pop\n      jump\t// out\n        /* \"#utility.yul\":1161:1290   */\n    tag_63:\n        /* \"#utility.yul\":1195:1201   */\n      0x00\n        /* \"#utility.yul\":1222:1242   */\n      tag_112\n      tag_55\n      jump\t// in\n    tag_112:\n        /* \"#utility.yul\":1212:1242   */\n      swap1\n      pop\n        /* \"#utility.yul\":1251:1284   */\n      tag_113\n        /* \"#utility.yul\":1279:1283   */\n      dup3\n        /* \"#utility.yul\":1271:1277   */\n      dup3\n        /* \"#utility.yul\":1251:1284   */\n      tag_62\n      jump\t// in\n    tag_113:\n        /* \"#utility.yul\":1161:1290   */\n      swap2\n      swap1\n      pop\n      jump\t// out\n        /* \"#utility.yul\":1296:1604   */\n    tag_64:\n        /* \"#utility.yul\":1358:1362   */\n      0x00\n        /* \"#utility.yul\":1448:1466   */\n      0xffffffffffffffff\n        /* \"#utility.yul\":1440:1446   */\n      dup3\n        /* \"#utility.yul\":1437:1467   */\n      gt\n        /* \"#utility.yul\":1434:1490   */\n      iszero\n      tag_115\n      jumpi\n        /* \"#utility.yul\":1470:1488   */\n      tag_116\n      tag_61\n      jump\t// in\n    tag_116:\n        /* \"#utility.yul\":1434:1490   */\n    tag_115:\n        /* \"#utility.yul\":1508:1537   */\n      tag_117\n        /* \"#utility.yul\":1530:1536   */\n      dup3\n        /* \"#utility.yul\":1508:1537   */\n      tag_60\n      jump\t// in\n    tag_117:\n        /* \"#utility.yul\":1500:1537   */\n      swap1\n      pop\n        /* \"#utility.yul\":1592:1596   */\n      0x20\n        /* \"#utility.yul\":1586:1590   */\n      dup2\n        /* \"#utility.yul\":1582:1597   */\n      add\n        /* \"#utility.yul\":1574:1597   */\n      swap1\n      pop\n        /* \"#utility.yul\":1296:1604   */\n      swap2\n      swap1\n      pop\n      jump\t// out\n        /* \"#utility.yul\":1610:1756   */\n    tag_65:\n        /* \"#utility.yul\":1707:1713   */\n      dup3\n        /* \"#utility.yul\":1702:1705   */\n      dup2\n        /* \"#utility.yul\":1697:1700   */\n      dup4\n        /* \"#utility.yul\":1684:1714   */\n      calldatacopy\n        /* \"#utility.yul\":1748:1749   */\n      0x00\n        /* \"#utility.yul\":1739:1745   */\n      dup4\n        /* \"#utility.yul\":1734:1737   */\n      dup4\n        /* \"#utility.yul\":1730:1746   */\n      add\n        /* \"#utility.yul\":1723:1750   */\n      mstore\n        /* \"#utility.yul\":1610:1756   */\n      pop\n      pop\n      pop\n      jump\t// out\n        /* \"#utility.yul\":1762:2187   */\n    tag_66:\n        /* \"#utility.yul\":1840:1845   */\n      0x00\n        /* \"#utility.yul\":1865:1931   */\n      tag_120\n        /* \"#utility.yul\":1881:1930   */\n      tag_121\n        /* \"#utility.yul\":1923:1929   */\n      dup5\n        /* \"#utility.yul\":1881:1930   */\n      tag_64\n      jump\t// in\n    tag_121:\n        /* \"#utility.yul\":1865:1931   */\n      tag_63\n      jump\t// in\n    tag_120:\n        /* \"#utility.yul\":1856:1931   */\n      swap1\n      pop\n        /* \"#utility.yul\":1954:1960   */\n      dup3\n        /* \"#utility.yul\":1947:1952   */\n      dup2\n        /* \"#utility.yul\":1940:1961   */\n      mstore\n        /* \"#utility.yul\":1992:1996   */\n      0x20\n        /* \"#utility.yul\":1985:1990   */\n      dup2\n        /* \"#utility.yul\":1981:1997   */\n      add\n        /* \"#utility.yul\":2030:2033   */\n      dup5\n        /* \"#utility.yul\":2021:2027   */\n      dup5\n        /* \"#utility.yul\":2016:2019   */\n      dup5\n        /* \"#utility.yul\":2012:2028   */\n      add\n        /* \"#utility.yul\":2009:2034   */\n      gt\n        /* \"#utility.yul\":2006:2118   */\n      iszero\n      tag_122\n      jumpi\n        /* \"#utility.yul\":2037:2116   */\n      tag_123\n      tag_59\n      jump\t// in\n    tag_123:\n        /* \"#utility.yul\":2006:2118   */\n    tag_122:\n        /* \"#utility.yul\":2127:2181   */\n      tag_124\n        /* \"#utility.yul\":2174:2180   */\n      dup5\n        /* \"#utility.yul\":2169:2172   */\n      dup3\n        /* \"#utility.yul\":2164:2167   */\n      dup6\n        /* \"#utility.yul\":2127:2181   */\n      tag_65\n      jump\t// in\n    tag_124:\n        /* \"#utility.yul\":1846:2187   */\n      pop\n        /* \"#utility.yul\":1762:2187   */\n      swap4\n      swap3\n      pop\n      pop\n      pop\n      jump\t// out\n        /* \"#utility.yul\":2207:2547   */\n    tag_67:\n        /* \"#utility.yul\":2263:2268   */\n      0x00\n        /* \"#utility.yul\":2312:2315   */\n      dup3\n        /* \"#utility.yul\":2305:2309   */\n      0x1f\n        /* \"#utility.yul\":2297:2303   */\n      dup4\n        /* \"#utility.yul\":2293:2310   */\n      add\n        /* \"#utility.yul\":2289:2316   */\n      slt\n        /* \"#utility.yul\":2279:2401   */\n      tag_126\n      jumpi\n        /* \"#utility.yul\":2320:2399   */\n      tag_127\n      tag_58\n      jump\t// in\n    tag_127:\n        /* \"#utility.yul\":2279:2401   */\n    tag_126:\n        /* \"#utility.yul\":2437:2443   */\n      dup2\n        /* \"#utility.yul\":2424:2444   */\n      calldataload\n        /* \"#utility.yul\":2462:2541   */\n      tag_128\n        /* \"#utility.yul\":2537:2540   */\n      dup5\n        /* \"#utility.yul\":2529:2535   */\n      dup3\n        /* \"#utility.yul\":2522:2526   */\n      0x20\n        /* \"#utility.yul\":2514:2520   */\n      dup7\n        /* \"#utility.yul\":2510:2527   */\n      add\n        /* \"#utility.yul\":2462:2541   */\n      tag_66\n      jump\t// in\n    tag_128:\n        /* \"#utility.yul\":2453:2541   */\n      swap2\n      pop\n        /* \"#utility.yul\":2269:2547   */\n      pop\n        /* \"#utility.yul\":2207:2547   */\n      swap3\n      swap2\n      pop\n      pop\n      jump\t// out\n        /* \"#utility.yul\":2553:3062   */\n    tag_9:\n        /* \"#utility.yul\":2622:2628   */\n      0x00\n        /* \"#utility.yul\":2671:2673   */\n      0x20\n        /* \"#utility.yul\":2659:2668   */\n      dup3\n        /* \"#utility.yul\":2650:2657   */\n      dup5\n        /* \"#utility.yul\":2646:2669   */\n      sub\n        /* \"#utility.yul\":2642:2674   */\n      slt\n        /* \"#utility.yul\":2639:2758   */\n      iszero\n      tag_130\n      jumpi\n        /* \"#utility.yul\":2677:2756   */\n      tag_131\n      tag_56\n      jump\t// in\n    tag_131:\n        /* \"#utility.yul\":2639:2758   */\n    tag_130:\n        /* \"#utility.yul\":2825:2826   */\n      0x00\n        /* \"#utility.yul\":2814:2823   */\n      dup3\n        /* \"#utility.yul\":2810:2827   */\n      add\n        /* \"#utility.yul\":2797:2828   */\n      calldataload\n        /* \"#utility.yul\":2855:2873   */\n      0xffffffffffffffff\n        /* \"#utility.yul\":2847:2853   */\n      dup2\n        /* \"#utility.yul\":2844:2874   */\n      gt\n        /* \"#utility.yul\":2841:2958   */\n      iszero\n      tag_132\n      jumpi\n        /* \"#utility.yul\":2877:2956   */\n      tag_133\n      tag_57\n      jump\t// in\n    tag_133:\n        /* \"#utility.yul\":2841:2958   */\n    tag_132:\n        /* \"#utility.yul\":2982:3045   */\n      tag_134\n        /* \"#utility.yul\":3037:3044   */\n      dup5\n        /* \"#utility.yul\":3028:3034   */\n      dup3\n        /* \"#utility.yul\":3017:3026   */\n      dup6\n        /* \"#utility.yul\":3013:3035   */\n      add\n        /* \"#utility.yul\":2982:3045   */\n      tag_67\n      jump\t// in\n    tag_134:\n        /* \"#utility.yul\":2972:3045   */\n      swap2\n      pop\n        /* \"#utility.yul\":2768:3055   */\n      pop\n        /* \"#utility.yul\":2553:3062   */\n      swap3\n      swap2\n      pop\n      pop\n      jump\t// out\n        /* \"#utility.yul\":3068:3194   */\n    tag_68:\n        /* \"#utility.yul\":3105:3112   */\n      0x00\n        /* \"#utility.yul\":3145:3187   */\n      0xffffffffffffffffffffffffffffffffffffffff\n        /* \"#utility.yul\":3138:3143   */\n      dup3\n        /* \"#utility.yul\":3134:3188   */\n      and\n        /* \"#utility.yul\":3123:3188   */\n      swap1\n      pop\n        /* \"#utility.yul\":3068:3194   */\n      swap2\n      swap1\n      pop\n      jump\t// out\n        /* \"#utility.yul\":3200:3296   */\n    tag_69:\n        /* \"#utility.yul\":3237:3244   */\n      0x00\n        /* \"#utility.yul\":3266:3290   */\n      tag_137\n        /* \"#utility.yul\":3284:3289   */\n      dup3\n        /* \"#utility.yul\":3266:3290   */\n      tag_68\n      jump\t// in\n    tag_137:\n        /* \"#utility.yul\":3255:3290   */\n      swap1\n      pop\n        /* \"#utility.yul\":3200:3296   */\n      swap2\n      swap1\n      pop\n      jump\t// out\n        /* \"#utility.yul\":3302:3420   */\n    tag_70:\n        /* \"#utility.yul\":3389:3413   */\n      tag_139\n        /* \"#utility.yul\":3407:3412   */\n      dup2\n        /* \"#utility.yul\":3389:3413   */\n      tag_69\n      jump\t// in\n    tag_139:\n        /* \"#utility.yul\":3384:3387   */\n      dup3\n        /* \"#utility.yul\":3377:3414   */\n      mstore\n        /* \"#utility.yul\":3302:3420   */\n      pop\n      pop\n      jump\t// out\n        /* \"#utility.yul\":3426:3502   */\n    tag_71:\n        /* \"#utility.yul\":3462:3469   */\n      0x00\n        /* \"#utility.yul\":3491:3496   */\n      dup2\n        /* \"#utility.yul\":3480:3496   */\n      swap1\n      pop\n        /* \"#utility.yul\":3426:3502   */\n      swap2\n      swap1\n      pop\n      jump\t// out\n        /* \"#utility.yul\":3508:3623   */\n    tag_72:\n        /* \"#utility.yul\":3593:3616   */\n      tag_142\n        /* \"#utility.yul\":3610:3615   */\n      dup2\n        /* \"#utility.yul\":3593:3616   */\n      tag_71\n      jump\t// in\n    tag_142:\n        /* \"#utility.yul\":3588:3591   */\n      dup3\n        /* \"#utility.yul\":3581:3617   */\n      mstore\n        /* \"#utility.yul\":3508:3623   */\n      pop\n      pop\n      jump\t// out\n        /* \"#utility.yul\":3629:3719   */\n    tag_73:\n        /* \"#utility.yul\":3663:3670   */\n      0x00\n        /* \"#utility.yul\":3706:3711   */\n      dup2\n        /* \"#utility.yul\":3699:3712   */\n      iszero\n        /* \"#utility.yul\":3692:3713   */\n      iszero\n        /* \"#utility.yul\":3681:3713   */\n      swap1\n      pop\n        /* \"#utility.yul\":3629:3719   */\n      swap2\n      swap1\n      pop\n      jump\t// out\n        /* \"#utility.yul\":3725:3834   */\n    tag_74:\n        /* \"#utility.yul\":3806:3827   */\n      tag_145\n        /* \"#utility.yul\":3821:3826   */\n      dup2\n        /* \"#utility.yul\":3806:3827   */\n      tag_73\n      jump\t// in\n    tag_145:\n        /* \"#utility.yul\":3801:3804   */\n      dup3\n        /* \"#utility.yul\":3794:3828   */\n      mstore\n        /* \"#utility.yul\":3725:3834   */\n      pop\n      pop\n      jump\t// out\n        /* \"#utility.yul\":3840:4266   */\n    tag_12:\n        /* \"#utility.yul\":3981:3985   */\n      0x00\n        /* \"#utility.yul\":4019:4021   */\n      0x60\n        /* \"#utility.yul\":4008:4017   */\n      dup3\n        /* \"#utility.yul\":4004:4022   */\n      add\n        /* \"#utility.yul\":3996:4022   */\n      swap1\n      pop\n        /* \"#utility.yul\":4032:4103   */\n      tag_147\n        /* \"#utility.yul\":4100:4101   */\n      0x00\n        /* \"#utility.yul\":4089:4098   */\n      dup4\n        /* \"#utility.yul\":4085:4102   */\n      add\n        /* \"#utility.yul\":4076:4082   */\n      dup7\n        /* \"#utility.yul\":4032:4103   */\n      tag_70\n      jump\t// in\n    tag_147:\n        /* \"#utility.yul\":4113:4183   */\n      tag_148\n        /* \"#utility.yul\":4179:4181   */\n      0x20\n        /* \"#utility.yul\":4168:4177   */\n      dup4\n        /* \"#utility.yul\":4164:4182   */\n      add\n        /* \"#utility.yul\":4155:4161   */\n      dup6\n        /* \"#utility.yul\":4113:4183   */\n      tag_72\n      jump\t// in\n    tag_148:\n        /* \"#utility.yul\":4193:4259   */\n      tag_149\n        /* \"#utility.yul\":4255:4257   */\n      0x40\n        /* \"#utility.yul\":4244:4253   */\n      dup4\n        /* \"#utility.yul\":4240:4258   */\n      add\n        /* \"#utility.yul\":4231:4237   */\n      dup5\n        /* \"#utility.yul\":4193:4259   */\n      tag_74\n      jump\t// in\n    tag_149:\n        /* \"#utility.yul\":3840:4266   */\n      swap5\n      swap4\n      pop\n      pop\n      pop\n      pop\n      jump\t// out\n        /* \"#utility.yul\":4272:4394   */\n    tag_75:\n        /* \"#utility.yul\":4345:4369   */\n      tag_151\n        /* \"#utility.yul\":4363:4368   */\n      dup2\n        /* \"#utility.yul\":4345:4369   */\n      tag_69\n      jump\t// in\n    tag_151:\n        /* \"#utility.yul\":4338:4343   */\n      dup2\n        /* \"#utility.yul\":4335:4370   */\n      eq\n        /* \"#utility.yul\":4325:4388   */\n      tag_152\n      jumpi\n        /* \"#utility.yul\":4384:4385   */\n      0x00\n        /* \"#utility.yul\":4381:4382   */\n      dup1\n        /* \"#utility.yul\":4374:4386   */\n      revert\n        /* \"#utility.yul\":4325:4388   */\n    tag_152:\n        /* \"#utility.yul\":4272:4394   */\n      pop\n      jump\t// out\n        /* \"#utility.yul\":4400:4539   */\n    tag_76:\n        /* \"#utility.yul\":4446:4451   */\n      0x00\n        /* \"#utility.yul\":4484:4490   */\n      dup2\n        /* \"#utility.yul\":4471:4491   */\n      calldataload\n        /* \"#utility.yul\":4462:4491   */\n      swap1\n      pop\n        /* \"#utility.yul\":4500:4533   */\n      tag_154\n        /* \"#utility.yul\":4527:4532   */\n      dup2\n        /* \"#utility.yul\":4500:4533   */\n      tag_75\n      jump\t// in\n    tag_154:\n        /* \"#utility.yul\":4400:4539   */\n      swap3\n      swap2\n      pop\n      pop\n      jump\t// out\n        /* \"#utility.yul\":4545:4665   */\n    tag_77:\n        /* \"#utility.yul\":4617:4640   */\n      tag_156\n        /* \"#utility.yul\":4634:4639   */\n      dup2\n        /* \"#utility.yul\":4617:4640   */\n      tag_71\n      jump\t// in\n    tag_156:\n        /* \"#utility.yul\":4610:4615   */\n      dup2\n        /* \"#utility.yul\":4607:4641   */\n      eq\n        /* \"#utility.yul\":4597:4659   */\n      tag_157\n      jumpi\n        /* \"#utility.yul\":4655:4656   */\n      0x00\n        /* \"#utility.yul\":4652:4653   */\n      dup1\n        /* \"#utility.yul\":4645:4657   */\n      revert\n        /* \"#utility.yul\":4597:4659   */\n    tag_157:\n        /* \"#utility.yul\":4545:4665   */\n      pop\n      jump\t// out\n        /* \"#utility.yul\":4671:4808   */\n    tag_78:\n        /* \"#utility.yul\":4716:4721   */\n      0x00\n        /* \"#utility.yul\":4754:4760   */\n      dup2\n        /* \"#utility.yul\":4741:4761   */\n      calldataload\n        /* \"#utility.yul\":4732:4761   */\n      swap1\n      pop\n        /* \"#utility.yul\":4770:4802   */\n      tag_159\n        /* \"#utility.yul\":4796:4801   */\n      dup2\n        /* \"#utility.yul\":4770:4802   */\n      tag_77\n      jump\t// in\n    tag_159:\n        /* \"#utility.yul\":4671:4808   */\n      swap3\n      swap2\n      pop\n      pop\n      jump\t// out\n        /* \"#utility.yul\":4814:5611   */\n    tag_18:\n        /* \"#utility.yul\":4900:4906   */\n      0x00\n        /* \"#utility.yul\":4908:4914   */\n      dup1\n        /* \"#utility.yul\":4916:4922   */\n      0x00\n        /* \"#utility.yul\":4965:4967   */\n      0x60\n        /* \"#utility.yul\":4953:4962   */\n      dup5\n        /* \"#utility.yul\":4944:4951   */\n      dup7\n        /* \"#utility.yul\":4940:4963   */\n      sub\n        /* \"#utility.yul\":4936:4968   */\n      slt\n        /* \"#utility.yul\":4933:5052   */\n      iszero\n      tag_161\n      jumpi\n        /* \"#utility.yul\":4971:5050   */\n      tag_162\n      tag_56\n      jump\t// in\n    tag_162:\n        /* \"#utility.yul\":4933:5052   */\n    tag_161:\n        /* \"#utility.yul\":5119:5120   */\n      0x00\n        /* \"#utility.yul\":5108:5117   */\n      dup5\n        /* \"#utility.yul\":5104:5121   */\n      add\n        /* \"#utility.yul\":5091:5122   */\n      calldataload\n        /* \"#utility.yul\":5149:5167   */\n      0xffffffffffffffff\n        /* \"#utility.yul\":5141:5147   */\n      dup2\n        /* \"#utility.yul\":5138:5168   */\n      gt\n        /* \"#utility.yul\":5135:5252   */\n      iszero\n      tag_163\n      jumpi\n        /* \"#utility.yul\":5171:5250   */\n      tag_164\n      tag_57\n      jump\t// in\n    tag_164:\n        /* \"#utility.yul\":5135:5252   */\n    tag_163:\n        /* \"#utility.yul\":5276:5339   */\n      tag_165\n        /* \"#utility.yul\":5331:5338   */\n      dup7\n        /* \"#utility.yul\":5322:5328   */\n      dup3\n        /* \"#utility.yul\":5311:5320   */\n      dup8\n        /* \"#utility.yul\":5307:5329   */\n      add\n        /* \"#utility.yul\":5276:5339   */\n      tag_67\n      jump\t// in\n    tag_165:\n        /* \"#utility.yul\":5266:5339   */\n      swap4\n      pop\n        /* \"#utility.yul\":5062:5349   */\n      pop\n        /* \"#utility.yul\":5388:5390   */\n      0x20\n        /* \"#utility.yul\":5414:5467   */\n      tag_166\n        /* \"#utility.yul\":5459:5466   */\n      dup7\n        /* \"#utility.yul\":5450:5456   */\n      dup3\n        /* \"#utility.yul\":5439:5448   */\n      dup8\n        /* \"#utility.yul\":5435:5457   */\n      add\n        /* \"#utility.yul\":5414:5467   */\n      tag_76\n      jump\t// in\n    tag_166:\n        /* \"#utility.yul\":5404:5467   */\n      swap3\n      pop\n        /* \"#utility.yul\":5359:5477   */\n      pop\n        /* \"#utility.yul\":5516:5518   */\n      0x40\n        /* \"#utility.yul\":5542:5594   */\n      tag_167\n        /* \"#utility.yul\":5586:5593   */\n      dup7\n        /* \"#utility.yul\":5577:5583   */\n      dup3\n        /* \"#utility.yul\":5566:5575   */\n      dup8\n        /* \"#utility.yul\":5562:5584   */\n      add\n        /* \"#utility.yul\":5542:5594   */\n      tag_78\n      jump\t// in\n    tag_167:\n        /* \"#utility.yul\":5532:5594   */\n      swap2\n      pop\n        /* \"#utility.yul\":5487:5604   */\n      pop\n        /* \"#utility.yul\":4814:5611   */\n      swap3\n      pop\n      swap3\n      pop\n      swap3\n      jump\t// out\n        /* \"#utility.yul\":5617:5835   */\n    tag_24:\n        /* \"#utility.yul\":5708:5712   */\n      0x00\n        /* \"#utility.yul\":5746:5748   */\n      0x20\n        /* \"#utility.yul\":5735:5744   */\n      dup3\n        /* \"#utility.yul\":5731:5749   */\n      add\n        /* \"#utility.yul\":5723:5749   */\n      swap1\n      pop\n        /* \"#utility.yul\":5759:5828   */\n      tag_169\n        /* \"#utility.yul\":5825:5826   */\n      0x00\n        /* \"#utility.yul\":5814:5823   */\n      dup4\n        /* \"#utility.yul\":5810:5827   */\n      add\n        /* \"#utility.yul\":5801:5807   */\n      dup5\n        /* \"#utility.yul\":5759:5828   */\n      tag_72\n      jump\t// in\n    tag_169:\n        /* \"#utility.yul\":5617:5835   */\n      swap3\n      swap2\n      pop\n      pop\n      jump\t// out\n        /* \"#utility.yul\":5841:5940   */\n    tag_79:\n        /* \"#utility.yul\":5893:5899   */\n      0x00\n        /* \"#utility.yul\":5927:5932   */\n      dup2\n        /* \"#utility.yul\":5921:5933   */\n      mload\n        /* \"#utility.yul\":5911:5933   */\n      swap1\n      pop\n        /* \"#utility.yul\":5841:5940   */\n      swap2\n      swap1\n      pop\n      jump\t// out\n        /* \"#utility.yul\":5946:6094   */\n    tag_80:\n        /* \"#utility.yul\":6048:6059   */\n      0x00\n        /* \"#utility.yul\":6085:6088   */\n      dup2\n        /* \"#utility.yul\":6070:6088   */\n      swap1\n      pop\n        /* \"#utility.yul\":5946:6094   */\n      swap3\n      swap2\n      pop\n      pop\n      jump\t// out\n        /* \"#utility.yul\":6100:6346   */\n    tag_81:\n        /* \"#utility.yul\":6181:6182   */\n      0x00\n        /* \"#utility.yul\":6191:6304   */\n    tag_173:\n        /* \"#utility.yul\":6205:6211   */\n      dup4\n        /* \"#utility.yul\":6202:6203   */\n      dup2\n        /* \"#utility.yul\":6199:6212   */\n      lt\n        /* \"#utility.yul\":6191:6304   */\n      iszero\n      tag_175\n      jumpi\n        /* \"#utility.yul\":6290:6291   */\n      dup1\n        /* \"#utility.yul\":6285:6288   */\n      dup3\n        /* \"#utility.yul\":6281:6292   */\n      add\n        /* \"#utility.yul\":6275:6293   */\n      mload\n        /* \"#utility.yul\":6271:6272   */\n      dup2\n        /* \"#utility.yul\":6266:6269   */\n      dup5\n        /* \"#utility.yul\":6262:6273   */\n      add\n        /* \"#utility.yul\":6255:6294   */\n      mstore\n        /* \"#utility.yul\":6227:6229   */\n      0x20\n        /* \"#utility.yul\":6224:6225   */\n      dup2\n        /* \"#utility.yul\":6220:6230   */\n      add\n        /* \"#utility.yul\":6215:6230   */\n      swap1\n      pop\n        /* \"#utility.yul\":6191:6304   */\n      jump(tag_173)\n    tag_175:\n        /* \"#utility.yul\":6338:6339   */\n      0x00\n        /* \"#utility.yul\":6329:6335   */\n      dup5\n        /* \"#utility.yul\":6324:6327   */\n      dup5\n        /* \"#utility.yul\":6320:6336   */\n      add\n        /* \"#utility.yul\":6313:6340   */\n      mstore\n        /* \"#utility.yul\":6162:6346   */\n      pop\n        /* \"#utility.yul\":6100:6346   */\n      pop\n      pop\n      pop\n      jump\t// out\n        /* \"#utility.yul\":6352:6742   */\n    tag_82:\n        /* \"#utility.yul\":6458:6461   */\n      0x00\n        /* \"#utility.yul\":6486:6525   */\n      tag_177\n        /* \"#utility.yul\":6519:6524   */\n      dup3\n        /* \"#utility.yul\":6486:6525   */\n      tag_79\n      jump\t// in\n    tag_177:\n        /* \"#utility.yul\":6541:6630   */\n      tag_178\n        /* \"#utility.yul\":6623:6629   */\n      dup2\n        /* \"#utility.yul\":6618:6621   */\n      dup6\n        /* \"#utility.yul\":6541:6630   */\n      tag_80\n      jump\t// in\n    tag_178:\n        /* \"#utility.yul\":6534:6630   */\n      swap4\n      pop\n        /* \"#utility.yul\":6639:6704   */\n      tag_179\n        /* \"#utility.yul\":6697:6703   */\n      dup2\n        /* \"#utility.yul\":6692:6695   */\n      dup6\n        /* \"#utility.yul\":6685:6689   */\n      0x20\n        /* \"#utility.yul\":6678:6683   */\n      dup7\n        /* \"#utility.yul\":6674:6690   */\n      add\n        /* \"#utility.yul\":6639:6704   */\n      tag_81\n      jump\t// in\n    tag_179:\n        /* \"#utility.yul\":6729:6735   */\n      dup1\n        /* \"#utility.yul\":6724:6727   */\n      dup5\n        /* \"#utility.yul\":6720:6736   */\n      add\n        /* \"#utility.yul\":6713:6736   */\n      swap2\n      pop\n        /* \"#utility.yul\":6462:6742   */\n      pop\n        /* \"#utility.yul\":6352:6742   */\n      swap3\n      swap2\n      pop\n      pop\n      jump\t// out\n        /* \"#utility.yul\":6748:7023   */\n    tag_27:\n        /* \"#utility.yul\":6880:6883   */\n      0x00\n        /* \"#utility.yul\":6902:6997   */\n      tag_181\n        /* \"#utility.yul\":6993:6996   */\n      dup3\n        /* \"#utility.yul\":6984:6990   */\n      dup5\n        /* \"#utility.yul\":6902:6997   */\n      tag_82\n      jump\t// in\n    tag_181:\n        /* \"#utility.yul\":6895:6997   */\n      swap2\n      pop\n        /* \"#utility.yul\":7014:7017   */\n      dup2\n        /* \"#utility.yul\":7007:7017   */\n      swap1\n      pop\n        /* \"#utility.yul\":6748:7023   */\n      swap3\n      swap2\n      pop\n      pop\n      jump\t// out\n        /* \"#utility.yul\":7029:7198   */\n    tag_83:\n        /* \"#utility.yul\":7113:7124   */\n      0x00\n        /* \"#utility.yul\":7147:7153   */\n      dup3\n        /* \"#utility.yul\":7142:7145   */\n      dup3\n        /* \"#utility.yul\":7135:7154   */\n      mstore\n        /* \"#utility.yul\":7187:7191   */\n      0x20\n        /* \"#utility.yul\":7182:7185   */\n      dup3\n        /* \"#utility.yul\":7178:7192   */\n      add\n        /* \"#utility.yul\":7163:7192   */\n      swap1\n      pop\n        /* \"#utility.yul\":7029:7198   */\n      swap3\n      swap2\n      pop\n      pop\n      jump\t// out\n        /* \"#utility.yul\":7204:7369   */\n    tag_84:\n        /* \"#utility.yul\":7344:7361   */\n      0x4173736574206e6f7420666f756e640000000000000000000000000000000000\n        /* \"#utility.yul\":7340:7341   */\n      0x00\n        /* \"#utility.yul\":7332:7338   */\n      dup3\n        /* \"#utility.yul\":7328:7342   */\n      add\n        /* \"#utility.yul\":7321:7362   */\n      mstore\n        /* \"#utility.yul\":7204:7369   */\n      pop\n      jump\t// out\n        /* \"#utility.yul\":7375:7741   */\n    tag_85:\n        /* \"#utility.yul\":7517:7520   */\n      0x00\n        /* \"#utility.yul\":7538:7605   */\n      tag_185\n        /* \"#utility.yul\":7602:7604   */\n      0x0f\n        /* \"#utility.yul\":7597:7600   */\n      dup4\n        /* \"#utility.yul\":7538:7605   */\n      tag_83\n      jump\t// in\n    tag_185:\n        /* \"#utility.yul\":7531:7605   */\n      swap2\n      pop\n        /* \"#utility.yul\":7614:7707   */\n      tag_186\n        /* \"#utility.yul\":7703:7706   */\n      dup3\n        /* \"#utility.yul\":7614:7707   */\n      tag_84\n      jump\t// in\n    tag_186:\n        /* \"#utility.yul\":7732:7734   */\n      0x20\n        /* \"#utility.yul\":7727:7730   */\n      dup3\n        /* \"#utility.yul\":7723:7735   */\n      add\n        /* \"#utility.yul\":7716:7735   */\n      swap1\n      pop\n        /* \"#utility.yul\":7375:7741   */\n      swap2\n      swap1\n      pop\n      jump\t// out\n        /* \"#utility.yul\":7747:8166   */\n    tag_30:\n        /* \"#utility.yul\":7913:7917   */\n      0x00\n        /* \"#utility.yul\":7951:7953   */\n      0x20\n        /* \"#utility.yul\":7940:7949   */\n      dup3\n        /* \"#utility.yul\":7936:7954   */\n      add\n        /* \"#utility.yul\":7928:7954   */\n      swap1\n      pop\n        /* \"#utility.yul\":8000:8009   */\n      dup2\n        /* \"#utility.yul\":7994:7998   */\n      dup2\n        /* \"#utility.yul\":7990:8010   */\n      sub\n        /* \"#utility.yul\":7986:7987   */\n      0x00\n        /* \"#utility.yul\":7975:7984   */\n      dup4\n        /* \"#utility.yul\":7971:7988   */\n      add\n        /* \"#utility.yul\":7964:8011   */\n      mstore\n        /* \"#utility.yul\":8028:8159   */\n      tag_188\n        /* \"#utility.yul\":8154:8158   */\n      dup2\n        /* \"#utility.yul\":8028:8159   */\n      tag_85\n      jump\t// in\n    tag_188:\n        /* \"#utility.yul\":8020:8159   */\n      swap1\n      pop\n        /* \"#utility.yul\":7747:8166   */\n      swap2\n      swap1\n      pop\n      jump\t// out\n        /* \"#utility.yul\":8172:8277   */\n    tag_86:\n        /* \"#utility.yul\":8208:8215   */\n      0x00\n        /* \"#utility.yul\":8248:8270   */\n      0xffffffffffffffffffff\n        /* \"#utility.yul\":8241:8246   */\n      dup3\n        /* \"#utility.yul\":8237:8271   */\n      and\n        /* \"#utility.yul\":8226:8271   */\n      swap1\n      pop\n        /* \"#utility.yul\":8172:8277   */\n      swap2\n      swap1\n      pop\n      jump\t// out\n        /* \"#utility.yul\":8283:8403   */\n    tag_87:\n        /* \"#utility.yul\":8355:8378   */\n      tag_191\n        /* \"#utility.yul\":8372:8377   */\n      dup2\n        /* \"#utility.yul\":8355:8378   */\n      tag_86\n      jump\t// in\n    tag_191:\n        /* \"#utility.yul\":8348:8353   */\n      dup2\n        /* \"#utility.yul\":8345:8379   */\n      eq\n        /* \"#utility.yul\":8335:8397   */\n      tag_192\n      jumpi\n        /* \"#utility.yul\":8393:8394   */\n      0x00\n        /* \"#utility.yul\":8390:8391   */\n      dup1\n        /* \"#utility.yul\":8383:8395   */\n      revert\n        /* \"#utility.yul\":8335:8397   */\n    tag_192:\n        /* \"#utility.yul\":8283:8403   */\n      pop\n      jump\t// out\n        /* \"#utility.yul\":8409:8550   */\n    tag_88:\n        /* \"#utility.yul\":8465:8470   */\n      0x00\n        /* \"#utility.yul\":8496:8502   */\n      dup2\n        /* \"#utility.yul\":8490:8503   */\n      mload\n        /* \"#utility.yul\":8481:8503   */\n      swap1\n      pop\n        /* \"#utility.yul\":8512:8544   */\n      tag_194\n        /* \"#utility.yul\":8538:8543   */\n      dup2\n        /* \"#utility.yul\":8512:8544   */\n      tag_87\n      jump\t// in\n    tag_194:\n        /* \"#utility.yul\":8409:8550   */\n      swap3\n      swap2\n      pop\n      pop\n      jump\t// out\n        /* \"#utility.yul\":8556:8697   */\n    tag_89:\n        /* \"#utility.yul\":8612:8617   */\n      0x00\n        /* \"#utility.yul\":8643:8649   */\n      dup2\n        /* \"#utility.yul\":8637:8650   */\n      mload\n        /* \"#utility.yul\":8628:8650   */\n      swap1\n      pop\n        /* \"#utility.yul\":8659:8691   */\n      tag_196\n        /* \"#utility.yul\":8685:8690   */\n      dup2\n        /* \"#utility.yul\":8659:8691   */\n      tag_77\n      jump\t// in\n    tag_196:\n        /* \"#utility.yul\":8556:8697   */\n      swap3\n      swap2\n      pop\n      pop\n      jump\t// out\n        /* \"#utility.yul\":8703:8780   */\n    tag_90:\n        /* \"#utility.yul\":8740:8747   */\n      0x00\n        /* \"#utility.yul\":8769:8774   */\n      dup2\n        /* \"#utility.yul\":8758:8774   */\n      swap1\n      pop\n        /* \"#utility.yul\":8703:8780   */\n      swap2\n      swap1\n      pop\n      jump\t// out\n        /* \"#utility.yul\":8786:8908   */\n    tag_91:\n        /* \"#utility.yul\":8859:8883   */\n      tag_199\n        /* \"#utility.yul\":8877:8882   */\n      dup2\n        /* \"#utility.yul\":8859:8883   */\n      tag_90\n      jump\t// in\n    tag_199:\n        /* \"#utility.yul\":8852:8857   */\n      dup2\n        /* \"#utility.yul\":8849:8884   */\n      eq\n        /* \"#utility.yul\":8839:8902   */\n      tag_200\n      jumpi\n        /* \"#utility.yul\":8898:8899   */\n      0x00\n        /* \"#utility.yul\":8895:8896   */\n      dup1\n        /* \"#utility.yul\":8888:8900   */\n      revert\n        /* \"#utility.yul\":8839:8902   */\n    tag_200:\n        /* \"#utility.yul\":8786:8908   */\n      pop\n      jump\t// out\n        /* \"#utility.yul\":8914:9057   */\n    tag_92:\n        /* \"#utility.yul\":8971:8976   */\n      0x00\n        /* \"#utility.yul\":9002:9008   */\n      dup2\n        /* \"#utility.yul\":8996:9009   */\n      mload\n        /* \"#utility.yul\":8987:9009   */\n      swap1\n      pop\n        /* \"#utility.yul\":9018:9051   */\n      tag_202\n        /* \"#utility.yul\":9045:9050   */\n      dup2\n        /* \"#utility.yul\":9018:9051   */\n      tag_91\n      jump\t// in\n    tag_202:\n        /* \"#utility.yul\":8914:9057   */\n      swap3\n      swap2\n      pop\n      pop\n      jump\t// out\n        /* \"#utility.yul\":9063:10034   */\n    tag_34:\n        /* \"#utility.yul\":9166:9172   */\n      0x00\n        /* \"#utility.yul\":9174:9180   */\n      dup1\n        /* \"#utility.yul\":9182:9188   */\n      0x00\n        /* \"#utility.yul\":9190:9196   */\n      dup1\n        /* \"#utility.yul\":9198:9204   */\n      0x00\n        /* \"#utility.yul\":9247:9250   */\n      0xa0\n        /* \"#utility.yul\":9235:9244   */\n      dup7\n        /* \"#utility.yul\":9226:9233   */\n      dup9\n        /* \"#utility.yul\":9222:9245   */\n      sub\n        /* \"#utility.yul\":9218:9251   */\n      slt\n        /* \"#utility.yul\":9215:9335   */\n      iszero\n      tag_204\n      jumpi\n        /* \"#utility.yul\":9254:9333   */\n      tag_205\n      tag_56\n      jump\t// in\n    tag_205:\n        /* \"#utility.yul\":9215:9335   */\n    tag_204:\n        /* \"#utility.yul\":9374:9375   */\n      0x00\n        /* \"#utility.yul\":9399:9462   */\n      tag_206\n        /* \"#utility.yul\":9454:9461   */\n      dup9\n        /* \"#utility.yul\":9445:9451   */\n      dup3\n        /* \"#utility.yul\":9434:9443   */\n      dup10\n        /* \"#utility.yul\":9430:9452   */\n      add\n        /* \"#utility.yul\":9399:9462   */\n      tag_88\n      jump\t// in\n    tag_206:\n        /* \"#utility.yul\":9389:9462   */\n      swap6\n      pop\n        /* \"#utility.yul\":9345:9472   */\n      pop\n        /* \"#utility.yul\":9511:9513   */\n      0x20\n        /* \"#utility.yul\":9537:9600   */\n      tag_207\n        /* \"#utility.yul\":9592:9599   */\n      dup9\n        /* \"#utility.yul\":9583:9589   */\n      dup3\n        /* \"#utility.yul\":9572:9581   */\n      dup10\n        /* \"#utility.yul\":9568:9590   */\n      add\n        /* \"#utility.yul\":9537:9600   */\n      tag_89\n      jump\t// in\n    tag_207:\n        /* \"#utility.yul\":9527:9600   */\n      swap5\n      pop\n        /* \"#utility.yul\":9482:9610   */\n      pop\n        /* \"#utility.yul\":9649:9651   */\n      0x40\n        /* \"#utility.yul\":9675:9739   */\n      tag_208\n        /* \"#utility.yul\":9731:9738   */\n      dup9\n        /* \"#utility.yul\":9722:9728   */\n      dup3\n        /* \"#utility.yul\":9711:9720   */\n      dup10\n        /* \"#utility.yul\":9707:9729   */\n      add\n        /* \"#utility.yul\":9675:9739   */\n      tag_92\n      jump\t// in\n    tag_208:\n        /* \"#utility.yul\":9665:9739   */\n      swap4\n      pop\n        /* \"#utility.yul\":9620:9749   */\n      pop\n        /* \"#utility.yul\":9788:9790   */\n      0x60\n        /* \"#utility.yul\":9814:9878   */\n      tag_209\n        /* \"#utility.yul\":9870:9877   */\n      dup9\n        /* \"#utility.yul\":9861:9867   */\n      dup3\n        /* \"#utility.yul\":9850:9859   */\n      dup10\n        /* \"#utility.yul\":9846:9868   */\n      add\n        /* \"#utility.yul\":9814:9878   */\n      tag_92\n      jump\t// in\n    tag_209:\n        /* \"#utility.yul\":9804:9878   */\n      swap3\n      pop\n        /* \"#utility.yul\":9759:9888   */\n      pop\n        /* \"#utility.yul\":9927:9930   */\n      0x80\n        /* \"#utility.yul\":9954:10017   */\n      tag_210\n        /* \"#utility.yul\":10009:10016   */\n      dup9\n        /* \"#utility.yul\":10000:10006   */\n      dup3\n        /* \"#utility.yul\":9989:9998   */\n      dup10\n        /* \"#utility.yul\":9985:10007   */\n      add\n        /* \"#utility.yul\":9954:10017   */\n      tag_88\n      jump\t// in\n    tag_210:\n        /* \"#utility.yul\":9944:10017   */\n      swap2\n      pop\n        /* \"#utility.yul\":9898:10027   */\n      pop\n        /* \"#utility.yul\":9063:10034   */\n      swap3\n      swap6\n      pop\n      swap3\n      swap6\n      swap1\n      swap4\n      pop\n      jump\t// out\n        /* \"#utility.yul\":10040:10417   */\n    tag_93:\n        /* \"#utility.yul\":10128:10131   */\n      0x00\n        /* \"#utility.yul\":10156:10195   */\n      tag_212\n        /* \"#utility.yul\":10189:10194   */\n      dup3\n        /* \"#utility.yul\":10156:10195   */\n      tag_79\n      jump\t// in\n    tag_212:\n        /* \"#utility.yul\":10211:10282   */\n      tag_213\n        /* \"#utility.yul\":10275:10281   */\n      dup2\n        /* \"#utility.yul\":10270:10273   */\n      dup6\n        /* \"#utility.yul\":10211:10282   */\n      tag_83\n      jump\t// in\n    tag_213:\n        /* \"#utility.yul\":10204:10282   */\n      swap4\n      pop\n        /* \"#utility.yul\":10291:10356   */\n      tag_214\n        /* \"#utility.yul\":10349:10355   */\n      dup2\n        /* \"#utility.yul\":10344:10347   */\n      dup6\n        /* \"#utility.yul\":10337:10341   */\n      0x20\n        /* \"#utility.yul\":10330:10335   */\n      dup7\n        /* \"#utility.yul\":10326:10342   */\n      add\n        /* \"#utility.yul\":10291:10356   */\n      tag_81\n      jump\t// in\n    tag_214:\n        /* \"#utility.yul\":10381:10410   */\n      tag_215\n        /* \"#utility.yul\":10403:10409   */\n      dup2\n        /* \"#utility.yul\":10381:10410   */\n      tag_60\n      jump\t// in\n    tag_215:\n        /* \"#utility.yul\":10376:10379   */\n      dup5\n        /* \"#utility.yul\":10372:10411   */\n      add\n        /* \"#utility.yul\":10365:10411   */\n      swap2\n      pop\n        /* \"#utility.yul\":10132:10417   */\n      pop\n        /* \"#utility.yul\":10040:10417   */\n      swap3\n      swap2\n      pop\n      pop\n      jump\t// out\n        /* \"#utility.yul\":10423:10541   */\n    tag_94:\n        /* \"#utility.yul\":10510:10534   */\n      tag_217\n        /* \"#utility.yul\":10528:10533   */\n      dup2\n        /* \"#utility.yul\":10510:10534   */\n      tag_90\n      jump\t// in\n    tag_217:\n        /* \"#utility.yul\":10505:10508   */\n      dup3\n        /* \"#utility.yul\":10498:10535   */\n      mstore\n        /* \"#utility.yul\":10423:10541   */\n      pop\n      pop\n      jump\t// out\n        /* \"#utility.yul\":10547:11076   */\n    tag_38:\n        /* \"#utility.yul\":10714:10718   */\n      0x00\n        /* \"#utility.yul\":10752:10754   */\n      0x60\n        /* \"#utility.yul\":10741:10750   */\n      dup3\n        /* \"#utility.yul\":10737:10755   */\n      add\n        /* \"#utility.yul\":10729:10755   */\n      swap1\n      pop\n        /* \"#utility.yul\":10801:10810   */\n      dup2\n        /* \"#utility.yul\":10795:10799   */\n      dup2\n        /* \"#utility.yul\":10791:10811   */\n      sub\n        /* \"#utility.yul\":10787:10788   */\n      0x00\n        /* \"#utility.yul\":10776:10785   */\n      dup4\n        /* \"#utility.yul\":10772:10789   */\n      add\n        /* \"#utility.yul\":10765:10812   */\n      mstore\n        /* \"#utility.yul\":10829:10907   */\n      tag_219\n        /* \"#utility.yul\":10902:10906   */\n      dup2\n        /* \"#utility.yul\":10893:10899   */\n      dup7\n        /* \"#utility.yul\":10829:10907   */\n      tag_93\n      jump\t// in\n    tag_219:\n        /* \"#utility.yul\":10821:10907   */\n      swap1\n      pop\n        /* \"#utility.yul\":10917:10987   */\n      tag_220\n        /* \"#utility.yul\":10983:10985   */\n      0x20\n        /* \"#utility.yul\":10972:10981   */\n      dup4\n        /* \"#utility.yul\":10968:10986   */\n      add\n        /* \"#utility.yul\":10959:10965   */\n      dup6\n        /* \"#utility.yul\":10917:10987   */\n      tag_72\n      jump\t// in\n    tag_220:\n        /* \"#utility.yul\":10997:11069   */\n      tag_221\n        /* \"#utility.yul\":11065:11067   */\n      0x40\n        /* \"#utility.yul\":11054:11063   */\n      dup4\n        /* \"#utility.yul\":11050:11068   */\n      add\n        /* \"#utility.yul\":11041:11047   */\n      dup5\n        /* \"#utility.yul\":10997:11069   */\n      tag_94\n      jump\t// in\n    tag_221:\n        /* \"#utility.yul\":10547:11076   */\n      swap5\n      swap4\n      pop\n      pop\n      pop\n      pop\n      jump\t// out\n        /* \"#utility.yul\":11082:11258   */\n    tag_95:\n        /* \"#utility.yul\":11222:11250   */\n      0x496e76616c696420707269636520666565642061646472657373000000000000\n        /* \"#utility.yul\":11218:11219   */\n      0x00\n        /* \"#utility.yul\":11210:11216   */\n      dup3\n        /* \"#utility.yul\":11206:11220   */\n      add\n        /* \"#utility.yul\":11199:11251   */\n      mstore\n        /* \"#utility.yul\":11082:11258   */\n      pop\n      jump\t// out\n        /* \"#utility.yul\":11264:11630   */\n    tag_96:\n        /* \"#utility.yul\":11406:11409   */\n      0x00\n        /* \"#utility.yul\":11427:11494   */\n      tag_224\n        /* \"#utility.yul\":11491:11493   */\n      0x1a\n        /* \"#utility.yul\":11486:11489   */\n      dup4\n        /* \"#utility.yul\":11427:11494   */\n      tag_83\n      jump\t// in\n    tag_224:\n        /* \"#utility.yul\":11420:11494   */\n      swap2\n      pop\n        /* \"#utility.yul\":11503:11596   */\n      tag_225\n        /* \"#utility.yul\":11592:11595   */\n      dup3\n        /* \"#utility.yul\":11503:11596   */\n      tag_95\n      jump\t// in\n    tag_225:\n        /* \"#utility.yul\":11621:11623   */\n      0x20\n        /* \"#utility.yul\":11616:11619   */\n      dup3\n        /* \"#utility.yul\":11612:11624   */\n      add\n        /* \"#utility.yul\":11605:11624   */\n      swap1\n      pop\n        /* \"#utility.yul\":11264:11630   */\n      swap2\n      swap1\n      pop\n      jump\t// out\n        /* \"#utility.yul\":11636:12055   */\n    tag_42:\n        /* \"#utility.yul\":11802:11806   */\n      0x00\n        /* \"#utility.yul\":11840:11842   */\n      0x20\n        /* \"#utility.yul\":11829:11838   */\n      dup3\n        /* \"#utility.yul\":11825:11843   */\n      add\n        /* \"#utility.yul\":11817:11843   */\n      swap1\n      pop\n        /* \"#utility.yul\":11889:11898   */\n      dup2\n        /* \"#utility.yul\":11883:11887   */\n      dup2\n        /* \"#utility.yul\":11879:11899   */\n      sub\n        /* \"#utility.yul\":11875:11876   */\n      0x00\n        /* \"#utility.yul\":11864:11873   */\n      dup4\n        /* \"#utility.yul\":11860:11877   */\n      add\n        /* \"#utility.yul\":11853:11900   */\n      mstore\n        /* \"#utility.yul\":11917:12048   */\n      tag_227\n        /* \"#utility.yul\":12043:12047   */\n      dup2\n        /* \"#utility.yul\":11917:12048   */\n      tag_96\n      jump\t// in\n    tag_227:\n        /* \"#utility.yul\":11909:12048   */\n      swap1\n      pop\n        /* \"#utility.yul\":11636:12055   */\n      swap2\n      swap1\n      pop\n      jump\t// out\n        /* \"#utility.yul\":12061:12231   */\n    tag_97:\n        /* \"#utility.yul\":12201:12223   */\n      0x417373657420616c726561647920657869737473000000000000000000000000\n        /* \"#utility.yul\":12197:12198   */\n      0x00\n        /* \"#utility.yul\":12189:12195   */\n      dup3\n        /* \"#utility.yul\":12185:12199   */\n      add\n        /* \"#utility.yul\":12178:12224   */\n      mstore\n        /* \"#utility.yul\":12061:12231   */\n      pop\n      jump\t// out\n        /* \"#utility.yul\":12237:12603   */\n    tag_98:\n        /* \"#utility.yul\":12379:12382   */\n      0x00\n        /* \"#utility.yul\":12400:12467   */\n      tag_230\n        /* \"#utility.yul\":12464:12466   */\n      0x14\n        /* \"#utility.yul\":12459:12462   */\n      dup4\n        /* \"#utility.yul\":12400:12467   */\n      tag_83\n      jump\t// in\n    tag_230:\n        /* \"#utility.yul\":12393:12467   */\n      swap2\n      pop\n        /* \"#utility.yul\":12476:12569   */\n      tag_231\n        /* \"#utility.yul\":12565:12568   */\n      dup3\n        /* \"#utility.yul\":12476:12569   */\n      tag_97\n      jump\t// in\n    tag_231:\n        /* \"#utility.yul\":12594:12596   */\n      0x20\n        /* \"#utility.yul\":12589:12592   */\n      dup3\n        /* \"#utility.yul\":12585:12597   */\n      add\n        /* \"#utility.yul\":12578:12597   */\n      swap1\n      pop\n        /* \"#utility.yul\":12237:12603   */\n      swap2\n      swap1\n      pop\n      jump\t// out\n        /* \"#utility.yul\":12609:13028   */\n    tag_46:\n        /* \"#utility.yul\":12775:12779   */\n      0x00\n        /* \"#utility.yul\":12813:12815   */\n      0x20\n        /* \"#utility.yul\":12802:12811   */\n      dup3\n        /* \"#utility.yul\":12798:12816   */\n      add\n        /* \"#utility.yul\":12790:12816   */\n      swap1\n      pop\n        /* \"#utility.yul\":12862:12871   */\n      dup2\n        /* \"#utility.yul\":12856:12860   */\n      dup2\n        /* \"#utility.yul\":12852:12872   */\n      sub\n        /* \"#utility.yul\":12848:12849   */\n      0x00\n        /* \"#utility.yul\":12837:12846   */\n      dup4\n        /* \"#utility.yul\":12833:12850   */\n      add\n        /* \"#utility.yul\":12826:12873   */\n      mstore\n        /* \"#utility.yul\":12890:13021   */\n      tag_233\n        /* \"#utility.yul\":13016:13020   */\n      dup2\n        /* \"#utility.yul\":12890:13021   */\n      tag_98\n      jump\t// in\n    tag_233:\n        /* \"#utility.yul\":12882:13021   */\n      swap1\n      pop\n        /* \"#utility.yul\":12609:13028   */\n      swap2\n      swap1\n      pop\n      jump\t// out\n\n    auxdata: 0xa26469706673582212205bfcb15fdd8f9c6ab5a664a4e8339ced5426a29a1267745c6a63a7df3d017d4064736f6c63430008180033\n}\n",
				"bytecode": {
					"linkReferences": {},
					"object": "608060405234801561000f575f80fd5b50610cea8061001d5f395ff3fe608060405234801561000f575f80fd5b506004361061004a575f3560e01c8063859362281461004e578063abc4544e14610080578063cee8ba471461009c578063f66a1b71146100b8575b5f80fd5b610068600480360381019061006391906107a4565b6100e8565b6040516100779392919061085c565b60405180910390f35b61009a600480360381019061009591906107a4565b610150565b005b6100b660048036038101906100b191906108e5565b610322565b005b6100d260048036038101906100cd91906107a4565b610501565b6040516100df9190610951565b60405180910390f35b5f818051602081018201805184825260208301602085012081835280955050505050505f91509050805f015f9054906101000a900473ffffffffffffffffffffffffffffffffffffffff1690806001015490806002015f9054906101000a900460ff16905083565b5f808260405161016091906109d6565b908152602001604051809103902090505f73ffffffffffffffffffffffffffffffffffffffff16815f015f9054906101000a900473ffffffffffffffffffffffffffffffffffffffff1673ffffffffffffffffffffffffffffffffffffffff1603610200576040517f08c379a00000000000000000000000000000000000000000000000000000000081526004016101f790610a46565b60405180910390fd5b5f815f015f9054906101000a900473ffffffffffffffffffffffffffffffffffffffff1690505f808273ffffffffffffffffffffffffffffffffffffffff1663feaf968c6040518163ffffffff1660e01b815260040160a060405180830381865afa158015610271573d5f803e3d5ffd5b505050506040513d601f19601f820116820180604052508101906102959190610aea565b50935050925050836002015f9054906101000a900460ff161580156102be575083600101548212155b1561031b576001846002015f6101000a81548160ff0219169083151502179055507fc4d07dac08b92039a7fae337838fc362d5d62827c43a5ed8b66c8aa7f01b940b85838360405161031293929190610ba8565b60405180910390a15b5050505050565b5f73ffffffffffffffffffffffffffffffffffffffff168273ffffffffffffffffffffffffffffffffffffffff1603610390576040517f08c379a000000000000000000000000000000000000000000000000000000000815260040161038790610c2e565b60405180910390fd5b5f73ffffffffffffffffffffffffffffffffffffffff165f846040516103b691906109d6565b90815260200160405180910390205f015f9054906101000a900473ffffffffffffffffffffffffffffffffffffffff1673ffffffffffffffffffffffffffffffffffffffff161461043c576040517f08c379a000000000000000000000000000000000000000000000000000000000815260040161043390610c96565b60405180910390fd5b60405180606001604052808373ffffffffffffffffffffffffffffffffffffffff1681526020018281526020015f15158152505f8460405161047e91906109d6565b90815260200160405180910390205f820151815f015f6101000a81548173ffffffffffffffffffffffffffffffffffffffff021916908373ffffffffffffffffffffffffffffffffffffffff160217905550602082015181600101556040820151816002015f6101000a81548160ff021916908315150217905550905050505050565b5f805f8360405161051291906109d6565b908152602001604051809103902090505f73ffffffffffffffffffffffffffffffffffffffff16815f015f9054906101000a900473ffffffffffffffffffffffffffffffffffffffff1673ffffffffffffffffffffffffffffffffffffffff16036105b2576040517f08c379a00000000000000000000000000000000000000000000000000000000081526004016105a990610a46565b60405180910390fd5b5f815f015f9054906101000a900473ffffffffffffffffffffffffffffffffffffffff1690505f8173ffffffffffffffffffffffffffffffffffffffff1663feaf968c6040518163ffffffff1660e01b815260040160a060405180830381865afa158015610622573d5f803e3d5ffd5b505050506040513d601f19601f820116820180604052508101906106469190610aea565b505050915050809350505050919050565b5f604051905090565b5f80fd5b5f80fd5b5f80fd5b5f80fd5b5f601f19601f8301169050919050565b7f4e487b71000000000000000000000000000000000000000000000000000000005f52604160045260245ffd5b6106b682610670565b810181811067ffffffffffffffff821117156106d5576106d4610680565b5b80604052505050565b5f6106e7610657565b90506106f382826106ad565b919050565b5f67ffffffffffffffff82111561071257610711610680565b5b61071b82610670565b9050602081019050919050565b828183375f83830152505050565b5f610748610743846106f8565b6106de565b9050828152602081018484840111156107645761076361066c565b5b61076f848285610728565b509392505050565b5f82601f83011261078b5761078a610668565b5b813561079b848260208601610736565b91505092915050565b5f602082840312156107b9576107b8610660565b5b5f82013567ffffffffffffffff8111156107d6576107d5610664565b5b6107e284828501610777565b91505092915050565b5f73ffffffffffffffffffffffffffffffffffffffff82169050919050565b5f610814826107eb565b9050919050565b6108248161080a565b82525050565b5f819050919050565b61083c8161082a565b82525050565b5f8115159050919050565b61085681610842565b82525050565b5f60608201905061086f5f83018661081b565b61087c6020830185610833565b610889604083018461084d565b949350505050565b61089a8161080a565b81146108a4575f80fd5b50565b5f813590506108b581610891565b92915050565b6108c48161082a565b81146108ce575f80fd5b50565b5f813590506108df816108bb565b92915050565b5f805f606084860312156108fc576108fb610660565b5b5f84013567ffffffffffffffff81111561091957610918610664565b5b61092586828701610777565b9350506020610936868287016108a7565b9250506040610947868287016108d1565b9150509250925092565b5f6020820190506109645f830184610833565b92915050565b5f81519050919050565b5f81905092915050565b5f5b8381101561099b578082015181840152602081019050610980565b5f8484015250505050565b5f6109b08261096a565b6109ba8185610974565b93506109ca81856020860161097e565b80840191505092915050565b5f6109e182846109a6565b915081905092915050565b5f82825260208201905092915050565b7f4173736574206e6f7420666f756e6400000000000000000000000000000000005f82015250565b5f610a30600f836109ec565b9150610a3b826109fc565b602082019050919050565b5f6020820190508181035f830152610a5d81610a24565b9050919050565b5f69ffffffffffffffffffff82169050919050565b610a8281610a64565b8114610a8c575f80fd5b50565b5f81519050610a9d81610a79565b92915050565b5f81519050610ab1816108bb565b92915050565b5f819050919050565b610ac981610ab7565b8114610ad3575f80fd5b50565b5f81519050610ae481610ac0565b92915050565b5f805f805f60a08688031215610b0357610b02610660565b5b5f610b1088828901610a8f565b9550506020610b2188828901610aa3565b9450506040610b3288828901610ad6565b9350506060610b4388828901610ad6565b9250506080610b5488828901610a8f565b9150509295509295909350565b5f610b6b8261096a565b610b7581856109ec565b9350610b8581856020860161097e565b610b8e81610670565b840191505092915050565b610ba281610ab7565b82525050565b5f6060820190508181035f830152610bc08186610b61565b9050610bcf6020830185610833565b610bdc6040830184610b99565b949350505050565b7f496e76616c6964207072696365206665656420616464726573730000000000005f82015250565b5f610c18601a836109ec565b9150610c2382610be4565b602082019050919050565b5f6020820190508181035f830152610c4581610c0c565b9050919050565b7f417373657420616c7265616479206578697374730000000000000000000000005f82015250565b5f610c806014836109ec565b9150610c8b82610c4c565b602082019050919050565b5f6020820190508181035f830152610cad81610c74565b905091905056fea26469706673582212205bfcb15fdd8f9c6ab5a664a4e8339ced5426a29a1267745c6a63a7df3d017d4064736f6c63430008180033",
					"opcodes": "PUSH1 0x80 PUSH1 0x40 MSTORE CALLVALUE DUP1 ISZERO PUSH2 0xF JUMPI PUSH0 DUP1 REVERT JUMPDEST POP PUSH2 0xCEA DUP1 PUSH2 0x1D PUSH0 CODECOPY PUSH0 RETURN INVALID PUSH1 0x80 PUSH1 0x40 MSTORE CALLVALUE DUP1 ISZERO PUSH2 0xF JUMPI PUSH0 DUP1 REVERT JUMPDEST POP PUSH1 0x4 CALLDATASIZE LT PUSH2 0x4A JUMPI PUSH0 CALLDATALOAD PUSH1 0xE0 SHR DUP1 PUSH4 0x85936228 EQ PUSH2 0x4E JUMPI DUP1 PUSH4 0xABC4544E EQ PUSH2 0x80 JUMPI DUP1 PUSH4 0xCEE8BA47 EQ PUSH2 0x9C JUMPI DUP1 PUSH4 0xF66A1B71 EQ PUSH2 0xB8 JUMPI JUMPDEST PUSH0 DUP1 REVERT JUMPDEST PUSH2 0x68 PUSH1 0x4 DUP1 CALLDATASIZE SUB DUP2 ADD SWAP1 PUSH2 0x63 SWAP2 SWAP1 PUSH2 0x7A4 JUMP JUMPDEST PUSH2 0xE8 JUMP JUMPDEST PUSH1 0x40 MLOAD PUSH2 0x77 SWAP4 SWAP3 SWAP2 SWAP1 PUSH2 0x85C JUMP JUMPDEST PUSH1 0x40 MLOAD DUP1 SWAP2 SUB SWAP1 RETURN JUMPDEST PUSH2 0x9A PUSH1 0x4 DUP1 CALLDATASIZE SUB DUP2 ADD SWAP1 PUSH2 0x95 SWAP2 SWAP1 PUSH2 0x7A4 JUMP JUMPDEST PUSH2 0x150 JUMP JUMPDEST STOP JUMPDEST PUSH2 0xB6 PUSH1 0x4 DUP1 CALLDATASIZE SUB DUP2 ADD SWAP1 PUSH2 0xB1 SWAP2 SWAP1 PUSH2 0x8E5 JUMP JUMPDEST PUSH2 0x322 JUMP JUMPDEST STOP JUMPDEST PUSH2 0xD2 PUSH1 0x4 DUP1 CALLDATASIZE SUB DUP2 ADD SWAP1 PUSH2 0xCD SWAP2 SWAP1 PUSH2 0x7A4 JUMP JUMPDEST PUSH2 0x501 JUMP JUMPDEST PUSH1 0x40 MLOAD PUSH2 0xDF SWAP2 SWAP1 PUSH2 0x951 JUMP JUMPDEST PUSH1 0x40 MLOAD DUP1 SWAP2 SUB SWAP1 RETURN JUMPDEST PUSH0 DUP2 DUP1 MLOAD PUSH1 0x20 DUP2 ADD DUP3 ADD DUP1 MLOAD DUP5 DUP3 MSTORE PUSH1 0x20 DUP4 ADD PUSH1 0x20 DUP6 ADD KECCAK256 DUP2 DUP4 MSTORE DUP1 SWAP6 POP POP POP POP POP POP PUSH0 SWAP2 POP SWAP1 POP DUP1 PUSH0 ADD PUSH0 SWAP1 SLOAD SWAP1 PUSH2 0x100 EXP SWAP1 DIV PUSH20 0xFFFFFFFFFFFFFFFFFFFFFFFFFFFFFFFFFFFFFFFF AND SWAP1 DUP1 PUSH1 0x1 ADD SLOAD SWAP1 DUP1 PUSH1 0x2 ADD PUSH0 SWAP1 SLOAD SWAP1 PUSH2 0x100 EXP SWAP1 DIV PUSH1 0xFF AND SWAP1 POP DUP4 JUMP JUMPDEST PUSH0 DUP1 DUP3 PUSH1 0x40 MLOAD PUSH2 0x160 SWAP2 SWAP1 PUSH2 0x9D6 JUMP JUMPDEST SWAP1 DUP2 MSTORE PUSH1 0x20 ADD PUSH1 0x40 MLOAD DUP1 SWAP2 SUB SWAP1 KECCAK256 SWAP1 POP PUSH0 PUSH20 0xFFFFFFFFFFFFFFFFFFFFFFFFFFFFFFFFFFFFFFFF AND DUP2 PUSH0 ADD PUSH0 SWAP1 SLOAD SWAP1 PUSH2 0x100 EXP SWAP1 DIV PUSH20 0xFFFFFFFFFFFFFFFFFFFFFFFFFFFFFFFFFFFFFFFF AND PUSH20 0xFFFFFFFFFFFFFFFFFFFFFFFFFFFFFFFFFFFFFFFF AND SUB PUSH2 0x200 JUMPI PUSH1 0x40 MLOAD PUSH32 0x8C379A000000000000000000000000000000000000000000000000000000000 DUP2 MSTORE PUSH1 0x4 ADD PUSH2 0x1F7 SWAP1 PUSH2 0xA46 JUMP JUMPDEST PUSH1 0x40 MLOAD DUP1 SWAP2 SUB SWAP1 REVERT JUMPDEST PUSH0 DUP2 PUSH0 ADD PUSH0 SWAP1 SLOAD SWAP1 PUSH2 0x100 EXP SWAP1 DIV PUSH20 0xFFFFFFFFFFFFFFFFFFFFFFFFFFFFFFFFFFFFFFFF AND SWAP1 POP PUSH0 DUP1 DUP3 PUSH20 0xFFFFFFFFFFFFFFFFFFFFFFFFFFFFFFFFFFFFFFFF AND PUSH4 0xFEAF968C PUSH1 0x40 MLOAD DUP2 PUSH4 0xFFFFFFFF AND PUSH1 0xE0 SHL DUP2 MSTORE PUSH1 0x4 ADD PUSH1 0xA0 PUSH1 0x40 MLOAD DUP1 DUP4 SUB DUP2 DUP7 GAS STATICCALL ISZERO DUP1 ISZERO PUSH2 0x271 JUMPI RETURNDATASIZE PUSH0 DUP1 RETURNDATACOPY RETURNDATASIZE PUSH0 REVERT JUMPDEST POP POP POP POP PUSH1 0x40 MLOAD RETURNDATASIZE PUSH1 0x1F NOT PUSH1 0x1F DUP3 ADD AND DUP3 ADD DUP1 PUSH1 0x40 MSTORE POP DUP2 ADD SWAP1 PUSH2 0x295 SWAP2 SWAP1 PUSH2 0xAEA JUMP JUMPDEST POP SWAP4 POP POP SWAP3 POP POP DUP4 PUSH1 0x2 ADD PUSH0 SWAP1 SLOAD SWAP1 PUSH2 0x100 EXP SWAP1 DIV PUSH1 0xFF AND ISZERO DUP1 ISZERO PUSH2 0x2BE JUMPI POP DUP4 PUSH1 0x1 ADD SLOAD DUP3 SLT ISZERO JUMPDEST ISZERO PUSH2 0x31B JUMPI PUSH1 0x1 DUP5 PUSH1 0x2 ADD PUSH0 PUSH2 0x100 EXP DUP2 SLOAD DUP2 PUSH1 0xFF MUL NOT AND SWAP1 DUP4 ISZERO ISZERO MUL OR SWAP1 SSTORE POP PUSH32 0xC4D07DAC08B92039A7FAE337838FC362D5D62827C43A5ED8B66C8AA7F01B940B DUP6 DUP4 DUP4 PUSH1 0x40 MLOAD PUSH2 0x312 SWAP4 SWAP3 SWAP2 SWAP1 PUSH2 0xBA8 JUMP JUMPDEST PUSH1 0x40 MLOAD DUP1 SWAP2 SUB SWAP1 LOG1 JUMPDEST POP POP POP POP POP JUMP JUMPDEST PUSH0 PUSH20 0xFFFFFFFFFFFFFFFFFFFFFFFFFFFFFFFFFFFFFFFF AND DUP3 PUSH20 0xFFFFFFFFFFFFFFFFFFFFFFFFFFFFFFFFFFFFFFFF AND SUB PUSH2 0x390 JUMPI PUSH1 0x40 MLOAD PUSH32 0x8C379A000000000000000000000000000000000000000000000000000000000 DUP2 MSTORE PUSH1 0x4 ADD PUSH2 0x387 SWAP1 PUSH2 0xC2E JUMP JUMPDEST PUSH1 0x40 MLOAD DUP1 SWAP2 SUB SWAP1 REVERT JUMPDEST PUSH0 PUSH20 0xFFFFFFFFFFFFFFFFFFFFFFFFFFFFFFFFFFFFFFFF AND PUSH0 DUP5 PUSH1 0x40 MLOAD PUSH2 0x3B6 SWAP2 SWAP1 PUSH2 0x9D6 JUMP JUMPDEST SWAP1 DUP2 MSTORE PUSH1 0x20 ADD PUSH1 0x40 MLOAD DUP1 SWAP2 SUB SWAP1 KECCAK256 PUSH0 ADD PUSH0 SWAP1 SLOAD SWAP1 PUSH2 0x100 EXP SWAP1 DIV PUSH20 0xFFFFFFFFFFFFFFFFFFFFFFFFFFFFFFFFFFFFFFFF AND PUSH20 0xFFFFFFFFFFFFFFFFFFFFFFFFFFFFFFFFFFFFFFFF AND EQ PUSH2 0x43C JUMPI PUSH1 0x40 MLOAD PUSH32 0x8C379A000000000000000000000000000000000000000000000000000000000 DUP2 MSTORE PUSH1 0x4 ADD PUSH2 0x433 SWAP1 PUSH2 0xC96 JUMP JUMPDEST PUSH1 0x40 MLOAD DUP1 SWAP2 SUB SWAP1 REVERT JUMPDEST PUSH1 0x40 MLOAD DUP1 PUSH1 0x60 ADD PUSH1 0x40 MSTORE DUP1 DUP4 PUSH20 0xFFFFFFFFFFFFFFFFFFFFFFFFFFFFFFFFFFFFFFFF AND DUP2 MSTORE PUSH1 0x20 ADD DUP3 DUP2 MSTORE PUSH1 0x20 ADD PUSH0 ISZERO ISZERO DUP2 MSTORE POP PUSH0 DUP5 PUSH1 0x40 MLOAD PUSH2 0x47E SWAP2 SWAP1 PUSH2 0x9D6 JUMP JUMPDEST SWAP1 DUP2 MSTORE PUSH1 0x20 ADD PUSH1 0x40 MLOAD DUP1 SWAP2 SUB SWAP1 KECCAK256 PUSH0 DUP3 ADD MLOAD DUP2 PUSH0 ADD PUSH0 PUSH2 0x100 EXP DUP2 SLOAD DUP2 PUSH20 0xFFFFFFFFFFFFFFFFFFFFFFFFFFFFFFFFFFFFFFFF MUL NOT AND SWAP1 DUP4 PUSH20 0xFFFFFFFFFFFFFFFFFFFFFFFFFFFFFFFFFFFFFFFF AND MUL OR SWAP1 SSTORE POP PUSH1 0x20 DUP3 ADD MLOAD DUP2 PUSH1 0x1 ADD SSTORE PUSH1 0x40 DUP3 ADD MLOAD DUP2 PUSH1 0x2 ADD PUSH0 PUSH2 0x100 EXP DUP2 SLOAD DUP2 PUSH1 0xFF MUL NOT AND SWAP1 DUP4 ISZERO ISZERO MUL OR SWAP1 SSTORE POP SWAP1 POP POP POP POP POP JUMP JUMPDEST PUSH0 DUP1 PUSH0 DUP4 PUSH1 0x40 MLOAD PUSH2 0x512 SWAP2 SWAP1 PUSH2 0x9D6 JUMP JUMPDEST SWAP1 DUP2 MSTORE PUSH1 0x20 ADD PUSH1 0x40 MLOAD DUP1 SWAP2 SUB SWAP1 KECCAK256 SWAP1 POP PUSH0 PUSH20 0xFFFFFFFFFFFFFFFFFFFFFFFFFFFFFFFFFFFFFFFF AND DUP2 PUSH0 ADD PUSH0 SWAP1 SLOAD SWAP1 PUSH2 0x100 EXP SWAP1 DIV PUSH20 0xFFFFFFFFFFFFFFFFFFFFFFFFFFFFFFFFFFFFFFFF AND PUSH20 0xFFFFFFFFFFFFFFFFFFFFFFFFFFFFFFFFFFFFFFFF AND SUB PUSH2 0x5B2 JUMPI PUSH1 0x40 MLOAD PUSH32 0x8C379A000000000000000000000000000000000000000000000000000000000 DUP2 MSTORE PUSH1 0x4 ADD PUSH2 0x5A9 SWAP1 PUSH2 0xA46 JUMP JUMPDEST PUSH1 0x40 MLOAD DUP1 SWAP2 SUB SWAP1 REVERT JUMPDEST PUSH0 DUP2 PUSH0 ADD PUSH0 SWAP1 SLOAD SWAP1 PUSH2 0x100 EXP SWAP1 DIV PUSH20 0xFFFFFFFFFFFFFFFFFFFFFFFFFFFFFFFFFFFFFFFF AND SWAP1 POP PUSH0 DUP2 PUSH20 0xFFFFFFFFFFFFFFFFFFFFFFFFFFFFFFFFFFFFFFFF AND PUSH4 0xFEAF968C PUSH1 0x40 MLOAD DUP2 PUSH4 0xFFFFFFFF AND PUSH1 0xE0 SHL DUP2 MSTORE PUSH1 0x4 ADD PUSH1 0xA0 PUSH1 0x40 MLOAD DUP1 DUP4 SUB DUP2 DUP7 GAS STATICCALL ISZERO DUP1 ISZERO PUSH2 0x622 JUMPI RETURNDATASIZE PUSH0 DUP1 RETURNDATACOPY RETURNDATASIZE PUSH0 REVERT JUMPDEST POP POP POP POP PUSH1 0x40 MLOAD RETURNDATASIZE PUSH1 0x1F NOT PUSH1 0x1F DUP3 ADD AND DUP3 ADD DUP1 PUSH1 0x40 MSTORE POP DUP2 ADD SWAP1 PUSH2 0x646 SWAP2 SWAP1 PUSH2 0xAEA JUMP JUMPDEST POP POP POP SWAP2 POP POP DUP1 SWAP4 POP POP POP POP SWAP2 SWAP1 POP JUMP JUMPDEST PUSH0 PUSH1 0x40 MLOAD SWAP1 POP SWAP1 JUMP JUMPDEST PUSH0 DUP1 REVERT JUMPDEST PUSH0 DUP1 REVERT JUMPDEST PUSH0 DUP1 REVERT JUMPDEST PUSH0 DUP1 REVERT JUMPDEST PUSH0 PUSH1 0x1F NOT PUSH1 0x1F DUP4 ADD AND SWAP1 POP SWAP2 SWAP1 POP JUMP JUMPDEST PUSH32 0x4E487B7100000000000000000000000000000000000000000000000000000000 PUSH0 MSTORE PUSH1 0x41 PUSH1 0x4 MSTORE PUSH1 0x24 PUSH0 REVERT JUMPDEST PUSH2 0x6B6 DUP3 PUSH2 0x670 JUMP JUMPDEST DUP2 ADD DUP2 DUP2 LT PUSH8 0xFFFFFFFFFFFFFFFF DUP3 GT OR ISZERO PUSH2 0x6D5 JUMPI PUSH2 0x6D4 PUSH2 0x680 JUMP JUMPDEST JUMPDEST DUP1 PUSH1 0x40 MSTORE POP POP POP JUMP JUMPDEST PUSH0 PUSH2 0x6E7 PUSH2 0x657 JUMP JUMPDEST SWAP1 POP PUSH2 0x6F3 DUP3 DUP3 PUSH2 0x6AD JUMP JUMPDEST SWAP2 SWAP1 POP JUMP JUMPDEST PUSH0 PUSH8 0xFFFFFFFFFFFFFFFF DUP3 GT ISZERO PUSH2 0x712 JUMPI PUSH2 0x711 PUSH2 0x680 JUMP JUMPDEST JUMPDEST PUSH2 0x71B DUP3 PUSH2 0x670 JUMP JUMPDEST SWAP1 POP PUSH1 0x20 DUP2 ADD SWAP1 POP SWAP2 SWAP1 POP JUMP JUMPDEST DUP3 DUP2 DUP4 CALLDATACOPY PUSH0 DUP4 DUP4 ADD MSTORE POP POP POP JUMP JUMPDEST PUSH0 PUSH2 0x748 PUSH2 0x743 DUP5 PUSH2 0x6F8 JUMP JUMPDEST PUSH2 0x6DE JUMP JUMPDEST SWAP1 POP DUP3 DUP2 MSTORE PUSH1 0x20 DUP2 ADD DUP5 DUP5 DUP5 ADD GT ISZERO PUSH2 0x764 JUMPI PUSH2 0x763 PUSH2 0x66C JUMP JUMPDEST JUMPDEST PUSH2 0x76F DUP5 DUP3 DUP6 PUSH2 0x728 JUMP JUMPDEST POP SWAP4 SWAP3 POP POP POP JUMP JUMPDEST PUSH0 DUP3 PUSH1 0x1F DUP4 ADD SLT PUSH2 0x78B JUMPI PUSH2 0x78A PUSH2 0x668 JUMP JUMPDEST JUMPDEST DUP2 CALLDATALOAD PUSH2 0x79B DUP5 DUP3 PUSH1 0x20 DUP7 ADD PUSH2 0x736 JUMP JUMPDEST SWAP2 POP POP SWAP3 SWAP2 POP POP JUMP JUMPDEST PUSH0 PUSH1 0x20 DUP3 DUP5 SUB SLT ISZERO PUSH2 0x7B9 JUMPI PUSH2 0x7B8 PUSH2 0x660 JUMP JUMPDEST JUMPDEST PUSH0 DUP3 ADD CALLDATALOAD PUSH8 0xFFFFFFFFFFFFFFFF DUP2 GT ISZERO PUSH2 0x7D6 JUMPI PUSH2 0x7D5 PUSH2 0x664 JUMP JUMPDEST JUMPDEST PUSH2 0x7E2 DUP5 DUP3 DUP6 ADD PUSH2 0x777 JUMP JUMPDEST SWAP2 POP POP SWAP3 SWAP2 POP POP JUMP JUMPDEST PUSH0 PUSH20 0xFFFFFFFFFFFFFFFFFFFFFFFFFFFFFFFFFFFFFFFF DUP3 AND SWAP1 POP SWAP2 SWAP1 POP JUMP JUMPDEST PUSH0 PUSH2 0x814 DUP3 PUSH2 0x7EB JUMP JUMPDEST SWAP1 POP SWAP2 SWAP1 POP JUMP JUMPDEST PUSH2 0x824 DUP2 PUSH2 0x80A JUMP JUMPDEST DUP3 MSTORE POP POP JUMP JUMPDEST PUSH0 DUP2 SWAP1 POP SWAP2 SWAP1 POP JUMP JUMPDEST PUSH2 0x83C DUP2 PUSH2 0x82A JUMP JUMPDEST DUP3 MSTORE POP POP JUMP JUMPDEST PUSH0 DUP2 ISZERO ISZERO SWAP1 POP SWAP2 SWAP1 POP JUMP JUMPDEST PUSH2 0x856 DUP2 PUSH2 0x842 JUMP JUMPDEST DUP3 MSTORE POP POP JUMP JUMPDEST PUSH0 PUSH1 0x60 DUP3 ADD SWAP1 POP PUSH2 0x86F PUSH0 DUP4 ADD DUP7 PUSH2 0x81B JUMP JUMPDEST PUSH2 0x87C PUSH1 0x20 DUP4 ADD DUP6 PUSH2 0x833 JUMP JUMPDEST PUSH2 0x889 PUSH1 0x40 DUP4 ADD DUP5 PUSH2 0x84D JUMP JUMPDEST SWAP5 SWAP4 POP POP POP POP JUMP JUMPDEST PUSH2 0x89A DUP2 PUSH2 0x80A JUMP JUMPDEST DUP2 EQ PUSH2 0x8A4 JUMPI PUSH0 DUP1 REVERT JUMPDEST POP JUMP JUMPDEST PUSH0 DUP2 CALLDATALOAD SWAP1 POP PUSH2 0x8B5 DUP2 PUSH2 0x891 JUMP JUMPDEST SWAP3 SWAP2 POP POP JUMP JUMPDEST PUSH2 0x8C4 DUP2 PUSH2 0x82A JUMP JUMPDEST DUP2 EQ PUSH2 0x8CE JUMPI PUSH0 DUP1 REVERT JUMPDEST POP JUMP JUMPDEST PUSH0 DUP2 CALLDATALOAD SWAP1 POP PUSH2 0x8DF DUP2 PUSH2 0x8BB JUMP JUMPDEST SWAP3 SWAP2 POP POP JUMP JUMPDEST PUSH0 DUP1 PUSH0 PUSH1 0x60 DUP5 DUP7 SUB SLT ISZERO PUSH2 0x8FC JUMPI PUSH2 0x8FB PUSH2 0x660 JUMP JUMPDEST JUMPDEST PUSH0 DUP5 ADD CALLDATALOAD PUSH8 0xFFFFFFFFFFFFFFFF DUP2 GT ISZERO PUSH2 0x919 JUMPI PUSH2 0x918 PUSH2 0x664 JUMP JUMPDEST JUMPDEST PUSH2 0x925 DUP7 DUP3 DUP8 ADD PUSH2 0x777 JUMP JUMPDEST SWAP4 POP POP PUSH1 0x20 PUSH2 0x936 DUP7 DUP3 DUP8 ADD PUSH2 0x8A7 JUMP JUMPDEST SWAP3 POP POP PUSH1 0x40 PUSH2 0x947 DUP7 DUP3 DUP8 ADD PUSH2 0x8D1 JUMP JUMPDEST SWAP2 POP POP SWAP3 POP SWAP3 POP SWAP3 JUMP JUMPDEST PUSH0 PUSH1 0x20 DUP3 ADD SWAP1 POP PUSH2 0x964 PUSH0 DUP4 ADD DUP5 PUSH2 0x833 JUMP JUMPDEST SWAP3 SWAP2 POP POP JUMP JUMPDEST PUSH0 DUP2 MLOAD SWAP1 POP SWAP2 SWAP1 POP JUMP JUMPDEST PUSH0 DUP2 SWAP1 POP SWAP3 SWAP2 POP POP JUMP JUMPDEST PUSH0 JUMPDEST DUP4 DUP2 LT ISZERO PUSH2 0x99B JUMPI DUP1 DUP3 ADD MLOAD DUP2 DUP5 ADD MSTORE PUSH1 0x20 DUP2 ADD SWAP1 POP PUSH2 0x980 JUMP JUMPDEST PUSH0 DUP5 DUP5 ADD MSTORE POP POP POP POP JUMP JUMPDEST PUSH0 PUSH2 0x9B0 DUP3 PUSH2 0x96A JUMP JUMPDEST PUSH2 0x9BA DUP2 DUP6 PUSH2 0x974 JUMP JUMPDEST SWAP4 POP PUSH2 0x9CA DUP2 DUP6 PUSH1 0x20 DUP7 ADD PUSH2 0x97E JUMP JUMPDEST DUP1 DUP5 ADD SWAP2 POP POP SWAP3 SWAP2 POP POP JUMP JUMPDEST PUSH0 PUSH2 0x9E1 DUP3 DUP5 PUSH2 0x9A6 JUMP JUMPDEST SWAP2 POP DUP2 SWAP1 POP SWAP3 SWAP2 POP POP JUMP JUMPDEST PUSH0 DUP3 DUP3 MSTORE PUSH1 0x20 DUP3 ADD SWAP1 POP SWAP3 SWAP2 POP POP JUMP JUMPDEST PUSH32 0x4173736574206E6F7420666F756E640000000000000000000000000000000000 PUSH0 DUP3 ADD MSTORE POP JUMP JUMPDEST PUSH0 PUSH2 0xA30 PUSH1 0xF DUP4 PUSH2 0x9EC JUMP JUMPDEST SWAP2 POP PUSH2 0xA3B DUP3 PUSH2 0x9FC JUMP JUMPDEST PUSH1 0x20 DUP3 ADD SWAP1 POP SWAP2 SWAP1 POP JUMP JUMPDEST PUSH0 PUSH1 0x20 DUP3 ADD SWAP1 POP DUP2 DUP2 SUB PUSH0 DUP4 ADD MSTORE PUSH2 0xA5D DUP2 PUSH2 0xA24 JUMP JUMPDEST SWAP1 POP SWAP2 SWAP1 POP JUMP JUMPDEST PUSH0 PUSH10 0xFFFFFFFFFFFFFFFFFFFF DUP3 AND SWAP1 POP SWAP2 SWAP1 POP JUMP JUMPDEST PUSH2 0xA82 DUP2 PUSH2 0xA64 JUMP JUMPDEST DUP2 EQ PUSH2 0xA8C JUMPI PUSH0 DUP1 REVERT JUMPDEST POP JUMP JUMPDEST PUSH0 DUP2 MLOAD SWAP1 POP PUSH2 0xA9D DUP2 PUSH2 0xA79 JUMP JUMPDEST SWAP3 SWAP2 POP POP JUMP JUMPDEST PUSH0 DUP2 MLOAD SWAP1 POP PUSH2 0xAB1 DUP2 PUSH2 0x8BB JUMP JUMPDEST SWAP3 SWAP2 POP POP JUMP JUMPDEST PUSH0 DUP2 SWAP1 POP SWAP2 SWAP1 POP JUMP JUMPDEST PUSH2 0xAC9 DUP2 PUSH2 0xAB7 JUMP JUMPDEST DUP2 EQ PUSH2 0xAD3 JUMPI PUSH0 DUP1 REVERT JUMPDEST POP JUMP JUMPDEST PUSH0 DUP2 MLOAD SWAP1 POP PUSH2 0xAE4 DUP2 PUSH2 0xAC0 JUMP JUMPDEST SWAP3 SWAP2 POP POP JUMP JUMPDEST PUSH0 DUP1 PUSH0 DUP1 PUSH0 PUSH1 0xA0 DUP7 DUP9 SUB SLT ISZERO PUSH2 0xB03 JUMPI PUSH2 0xB02 PUSH2 0x660 JUMP JUMPDEST JUMPDEST PUSH0 PUSH2 0xB10 DUP9 DUP3 DUP10 ADD PUSH2 0xA8F JUMP JUMPDEST SWAP6 POP POP PUSH1 0x20 PUSH2 0xB21 DUP9 DUP3 DUP10 ADD PUSH2 0xAA3 JUMP JUMPDEST SWAP5 POP POP PUSH1 0x40 PUSH2 0xB32 DUP9 DUP3 DUP10 ADD PUSH2 0xAD6 JUMP JUMPDEST SWAP4 POP POP PUSH1 0x60 PUSH2 0xB43 DUP9 DUP3 DUP10 ADD PUSH2 0xAD6 JUMP JUMPDEST SWAP3 POP POP PUSH1 0x80 PUSH2 0xB54 DUP9 DUP3 DUP10 ADD PUSH2 0xA8F JUMP JUMPDEST SWAP2 POP POP SWAP3 SWAP6 POP SWAP3 SWAP6 SWAP1 SWAP4 POP JUMP JUMPDEST PUSH0 PUSH2 0xB6B DUP3 PUSH2 0x96A JUMP JUMPDEST PUSH2 0xB75 DUP2 DUP6 PUSH2 0x9EC JUMP JUMPDEST SWAP4 POP PUSH2 0xB85 DUP2 DUP6 PUSH1 0x20 DUP7 ADD PUSH2 0x97E JUMP JUMPDEST PUSH2 0xB8E DUP2 PUSH2 0x670 JUMP JUMPDEST DUP5 ADD SWAP2 POP POP SWAP3 SWAP2 POP POP JUMP JUMPDEST PUSH2 0xBA2 DUP2 PUSH2 0xAB7 JUMP JUMPDEST DUP3 MSTORE POP POP JUMP JUMPDEST PUSH0 PUSH1 0x60 DUP3 ADD SWAP1 POP DUP2 DUP2 SUB PUSH0 DUP4 ADD MSTORE PUSH2 0xBC0 DUP2 DUP7 PUSH2 0xB61 JUMP JUMPDEST SWAP1 POP PUSH2 0xBCF PUSH1 0x20 DUP4 ADD DUP6 PUSH2 0x833 JUMP JUMPDEST PUSH2 0xBDC PUSH1 0x40 DUP4 ADD DUP5 PUSH2 0xB99 JUMP JUMPDEST SWAP5 SWAP4 POP POP POP POP JUMP JUMPDEST PUSH32 0x496E76616C696420707269636520666565642061646472657373000000000000 PUSH0 DUP3 ADD MSTORE POP JUMP JUMPDEST PUSH0 PUSH2 0xC18 PUSH1 0x1A DUP4 PUSH2 0x9EC JUMP JUMPDEST SWAP2 POP PUSH2 0xC23 DUP3 PUSH2 0xBE4 JUMP JUMPDEST PUSH1 0x20 DUP3 ADD SWAP1 POP SWAP2 SWAP1 POP JUMP JUMPDEST PUSH0 PUSH1 0x20 DUP3 ADD SWAP1 POP DUP2 DUP2 SUB PUSH0 DUP4 ADD MSTORE PUSH2 0xC45 DUP2 PUSH2 0xC0C JUMP JUMPDEST SWAP1 POP SWAP2 SWAP1 POP JUMP JUMPDEST PUSH32 0x417373657420616C726561647920657869737473000000000000000000000000 PUSH0 DUP3 ADD MSTORE POP JUMP JUMPDEST PUSH0 PUSH2 0xC80 PUSH1 0x14 DUP4 PUSH2 0x9EC JUMP JUMPDEST SWAP2 POP PUSH2 0xC8B DUP3 PUSH2 0xC4C JUMP JUMPDEST PUSH1 0x20 DUP3 ADD SWAP1 POP SWAP2 SWAP1 POP JUMP JUMPDEST PUSH0 PUSH1 0x20 DUP3 ADD SWAP1 POP DUP2 DUP2 SUB PUSH0 DUP4 ADD MSTORE PUSH2 0xCAD DUP2 PUSH2 0xC74 JUMP JUMPDEST SWAP1 POP SWAP2 SWAP1 POP JUMP INVALID LOG2 PUSH5 0x6970667358 0x22 SLT KECCAK256 JUMPDEST 0xFC 0xB1 PUSH0 0xDD DUP16 SWAP13 PUSH11 0xB5A664A4E8339CED5426A2 SWAP11 SLT PUSH8 0x745C6A63A7DF3D01 PUSH30 0x4064736F6C63430008180033000000000000000000000000000000000000 "
				},
				"gasEstimates": {
					"creation": {
						"codeDepositCost": "661200",
						"executionCost": "694",
						"totalCost": "661894"
					},
					"external": {
						"addAsset(string,address,int256)": "infinite",
						"assets(string)": "infinite",
						"checkPrice(string)": "infinite",
						"getLatestPrice(string)": "infinite"
					}
				},
				"methodIdentifiers": {
					"addAsset(string,address,int256)": "cee8ba47",
					"assets(string)": "85936228",
					"checkPrice(string)": "abc4544e",
					"getLatestPrice(string)": "f66a1b71"
				}
			},
			"storageLayout": {
				"storage": [
					{
						"astId": 60,
						"contract": "contracts/PriceAlarmTracking/PriceAlarmTracker.sol:PriceAlertSystem",
						"label": "assets",
						"offset": 0,
						"slot": "0",
						"type": "t_mapping(t_string_memory_ptr,t_struct(Asset)55_storage)"
					}
				],
				"types": {
					"t_address": {
						"encoding": "inplace",
						"label": "address",
						"numberOfBytes": "20"
					},
					"t_bool": {
						"encoding": "inplace",
						"label": "bool",
						"numberOfBytes": "1"
					},
					"t_int256": {
						"encoding": "inplace",
						"label": "int256",
						"numberOfBytes": "32"
					},
					"t_mapping(t_string_memory_ptr,t_struct(Asset)55_storage)": {
						"encoding": "mapping",
						"key": "t_string_memory_ptr",
						"label": "mapping(string => struct PriceAlertSystem.Asset)",
						"numberOfBytes": "32",
						"value": "t_struct(Asset)55_storage"
					},
					"t_string_memory_ptr": {
						"encoding": "bytes",
						"label": "string",
						"numberOfBytes": "32"
					},
					"t_struct(Asset)55_storage": {
						"encoding": "inplace",
						"label": "struct PriceAlertSystem.Asset",
						"members": [
							{
								"astId": 50,
								"contract": "contracts/PriceAlarmTracking/PriceAlarmTracker.sol:PriceAlertSystem",
								"label": "priceFeed",
								"offset": 0,
								"slot": "0",
								"type": "t_address"
							},
							{
								"astId": 52,
								"contract": "contracts/PriceAlarmTracking/PriceAlarmTracker.sol:PriceAlertSystem",
								"label": "priceThreshold",
								"offset": 0,
								"slot": "1",
								"type": "t_int256"
							},
							{
								"astId": 54,
								"contract": "contracts/PriceAlarmTracking/PriceAlarmTracker.sol:PriceAlertSystem",
								"label": "thresholdReached",
								"offset": 0,
								"slot": "2",
								"type": "t_bool"
							}
						],
						"numberOfBytes": "96"
					}
				}
			},
			"userdoc": {
				"kind": "user",
				"methods": {},
				"version": 1
			}
		}
	}
}