{
	"contracts/PriceAlarmTracking/ArbitrageAlarmer/MultipleAssetArbitrageAlarm.sol": {
		"ArbitragePriceAlert": {
			"abi": [
				{
					"anonymous": false,
					"inputs": [
						{
							"indexed": false,
							"internalType": "string",
							"name": "asset",
							"type": "string"
						},
						{
							"indexed": false,
							"internalType": "int256",
							"name": "minPrice",
							"type": "int256"
						},
						{
							"indexed": false,
							"internalType": "int256",
							"name": "maxPrice",
							"type": "int256"
						},
						{
							"indexed": false,
							"internalType": "uint256",
							"name": "timestamp",
							"type": "uint256"
						}
					],
					"name": "ArbitrageOpportunityDetected",
					"type": "event"
				},
				{
					"anonymous": false,
					"inputs": [
						{
							"indexed": false,
							"internalType": "string",
							"name": "asset",
							"type": "string"
						}
					],
					"name": "AssetAdded",
					"type": "event"
				},
				{
					"anonymous": false,
					"inputs": [
						{
							"indexed": false,
							"internalType": "string",
							"name": "asset",
							"type": "string"
						}
					],
					"name": "PriceFeedsUpdated",
					"type": "event"
				},
				{
					"inputs": [
						{
							"internalType": "string",
							"name": "name",
							"type": "string"
						},
						{
							"internalType": "address[]",
							"name": "_priceFeeds",
							"type": "address[]"
						},
						{
							"internalType": "int256",
							"name": "_arbitrageThreshold",
							"type": "int256"
						}
					],
					"name": "addAsset",
					"outputs": [],
					"stateMutability": "nonpayable",
					"type": "function"
				},
				{
					"inputs": [
						{
							"internalType": "string",
							"name": "",
							"type": "string"
						}
					],
					"name": "assets",
					"outputs": [
						{
							"internalType": "int256",
							"name": "arbitrageThreshold",
							"type": "int256"
						},
						{
							"internalType": "bool",
							"name": "arbitrageOpportunityDetected",
							"type": "bool"
						}
					],
					"stateMutability": "view",
					"type": "function"
				},
				{
					"inputs": [
						{
							"internalType": "string",
							"name": "name",
							"type": "string"
						}
					],
					"name": "checkArbitrage",
					"outputs": [],
					"stateMutability": "nonpayable",
					"type": "function"
				},
				{
					"inputs": [
						{
							"internalType": "string",
							"name": "name",
							"type": "string"
						}
					],
					"name": "getLatestPrices",
					"outputs": [
						{
							"internalType": "int256[]",
							"name": "",
							"type": "int256[]"
						}
					],
					"stateMutability": "view",
					"type": "function"
				},
				{
					"inputs": [
						{
							"internalType": "string",
							"name": "name",
							"type": "string"
						},
						{
							"internalType": "int256",
							"name": "_newThreshold",
							"type": "int256"
						}
					],
					"name": "updateArbitrageThreshold",
					"outputs": [],
					"stateMutability": "nonpayable",
					"type": "function"
				},
				{
					"inputs": [
						{
							"internalType": "string",
							"name": "name",
							"type": "string"
						},
						{
							"internalType": "address[]",
							"name": "_priceFeeds",
							"type": "address[]"
						}
					],
					"name": "updatePriceFeeds",
					"outputs": [],
					"stateMutability": "nonpayable",
					"type": "function"
				}
			],
			"devdoc": {
				"kind": "dev",
				"methods": {
					"addAsset(string,address[],int256)": {
						"params": {
							"_arbitrageThreshold": "The minimum difference between the highest and lowest price to trigger an alert.",
							"_priceFeeds": "An array of Chainlink price feed addresses.",
							"name": "The name of the asset."
						}
					},
					"checkArbitrage(string)": {
						"params": {
							"name": "The name of the asset."
						}
					},
					"getLatestPrices(string)": {
						"params": {
							"name": "The name of the asset."
						},
						"returns": {
							"_0": "An array of latest prices from the respective price feeds."
						}
					},
					"updateArbitrageThreshold(string,int256)": {
						"params": {
							"_newThreshold": "The new arbitrage threshold.",
							"name": "The name of the asset."
						}
					},
					"updatePriceFeeds(string,address[])": {
						"params": {
							"_priceFeeds": "An updated array of Chainlink price feed addresses.",
							"name": "The name of the asset."
						}
					}
				},
				"version": 1
			},
			"evm": {
				"assembly": "    /* \"contracts/PriceAlarmTracking/ArbitrageAlarmer/MultipleAssetArbitrageAlarm.sol\":135:5427  contract ArbitragePriceAlert {... */\n  mstore(0x40, 0x80)\n  callvalue\n  dup1\n  iszero\n  tag_1\n  jumpi\n  0x00\n  dup1\n  revert\ntag_1:\n  pop\n  dataSize(sub_0)\n  dup1\n  dataOffset(sub_0)\n  0x00\n  codecopy\n  0x00\n  return\nstop\n\nsub_0: assembly {\n        /* \"contracts/PriceAlarmTracking/ArbitrageAlarmer/MultipleAssetArbitrageAlarm.sol\":135:5427  contract ArbitragePriceAlert {... */\n      mstore(0x40, 0x80)\n      callvalue\n      dup1\n      iszero\n      tag_1\n      jumpi\n      0x00\n      dup1\n      revert\n    tag_1:\n      pop\n      jumpi(tag_2, lt(calldatasize, 0x04))\n      shr(0xe0, calldataload(0x00))\n      dup1\n      0x48680d\n      eq\n      tag_3\n      jumpi\n      dup1\n      0x17a6cd9d\n      eq\n      tag_4\n      jumpi\n      dup1\n      0x49723843\n      eq\n      tag_5\n      jumpi\n      dup1\n      0x515a8af4\n      eq\n      tag_6\n      jumpi\n      dup1\n      0x85936228\n      eq\n      tag_7\n      jumpi\n      dup1\n      0xa4760383\n      eq\n      tag_8\n      jumpi\n    tag_2:\n      0x00\n      dup1\n      revert\n        /* \"contracts/PriceAlarmTracking/ArbitrageAlarmer/MultipleAssetArbitrageAlarm.sol\":1168:1932  function addAsset(string memory name, address[] memory _priceFeeds, int256 _arbitrageThreshold) public {... */\n    tag_3:\n      tag_9\n      0x04\n      dup1\n      calldatasize\n      sub\n      dup2\n      add\n      swap1\n      tag_10\n      swap2\n      swap1\n      tag_11\n      jump\t// in\n    tag_10:\n      tag_12\n      jump\t// in\n    tag_9:\n      stop\n        /* \"contracts/PriceAlarmTracking/ArbitrageAlarmer/MultipleAssetArbitrageAlarm.sol\":3420:4645  function checkArbitrage(string memory name) public {... */\n    tag_4:\n      tag_13\n      0x04\n      dup1\n      calldatasize\n      sub\n      dup2\n      add\n      swap1\n      tag_14\n      swap2\n      swap1\n      tag_15\n      jump\t// in\n    tag_14:\n      tag_16\n      jump\t// in\n    tag_13:\n      stop\n        /* \"contracts/PriceAlarmTracking/ArbitrageAlarmer/MultipleAssetArbitrageAlarm.sol\":4862:5425  function getLatestPrices(string memory name) public view returns (int256[] memory) {... */\n    tag_5:\n      tag_17\n      0x04\n      dup1\n      calldatasize\n      sub\n      dup2\n      add\n      swap1\n      tag_18\n      swap2\n      swap1\n      tag_15\n      jump\t// in\n    tag_18:\n      tag_19\n      jump\t// in\n    tag_17:\n      mload(0x40)\n      tag_20\n      swap2\n      swap1\n      tag_21\n      jump\t// in\n    tag_20:\n      mload(0x40)\n      dup1\n      swap2\n      sub\n      swap1\n      return\n        /* \"contracts/PriceAlarmTracking/ArbitrageAlarmer/MultipleAssetArbitrageAlarm.sol\":2862:3140  function updateArbitrageThreshold(string memory name, int256 _newThreshold) public {... */\n    tag_6:\n      tag_22\n      0x04\n      dup1\n      calldatasize\n      sub\n      dup2\n      add\n      swap1\n      tag_23\n      swap2\n      swap1\n      tag_24\n      jump\t// in\n    tag_23:\n      tag_25\n      jump\t// in\n    tag_22:\n      stop\n        /* \"contracts/PriceAlarmTracking/ArbitrageAlarmer/MultipleAssetArbitrageAlarm.sol\":555:593  mapping(string => Asset) public assets */\n    tag_7:\n      tag_26\n      0x04\n      dup1\n      calldatasize\n      sub\n      dup2\n      add\n      swap1\n      tag_27\n      swap2\n      swap1\n      tag_15\n      jump\t// in\n    tag_27:\n      tag_28\n      jump\t// in\n    tag_26:\n      mload(0x40)\n      tag_29\n      swap3\n      swap2\n      swap1\n      tag_30\n      jump\t// in\n    tag_29:\n      mload(0x40)\n      dup1\n      swap2\n      sub\n      swap1\n      return\n        /* \"contracts/PriceAlarmTracking/ArbitrageAlarmer/MultipleAssetArbitrageAlarm.sol\":2144:2676  function updatePriceFeeds(string memory name, address[] memory _priceFeeds) public {... */\n    tag_8:\n      tag_31\n      0x04\n      dup1\n      calldatasize\n      sub\n      dup2\n      add\n      swap1\n      tag_32\n      swap2\n      swap1\n      tag_33\n      jump\t// in\n    tag_32:\n      tag_34\n      jump\t// in\n    tag_31:\n      stop\n        /* \"contracts/PriceAlarmTracking/ArbitrageAlarmer/MultipleAssetArbitrageAlarm.sol\":1168:1932  function addAsset(string memory name, address[] memory _priceFeeds, int256 _arbitrageThreshold) public {... */\n    tag_12:\n        /* \"contracts/PriceAlarmTracking/ArbitrageAlarmer/MultipleAssetArbitrageAlarm.sol\":1310:1311  0 */\n      0x00\n        /* \"contracts/PriceAlarmTracking/ArbitrageAlarmer/MultipleAssetArbitrageAlarm.sol\":1289:1300  _priceFeeds */\n      dup3\n        /* \"contracts/PriceAlarmTracking/ArbitrageAlarmer/MultipleAssetArbitrageAlarm.sol\":1289:1307  _priceFeeds.length */\n      mload\n        /* \"contracts/PriceAlarmTracking/ArbitrageAlarmer/MultipleAssetArbitrageAlarm.sol\":1289:1311  _priceFeeds.length > 0 */\n      gt\n        /* \"contracts/PriceAlarmTracking/ArbitrageAlarmer/MultipleAssetArbitrageAlarm.sol\":1281:1348  require(_priceFeeds.length > 0, \"At least one price feed required\") */\n      tag_36\n      jumpi\n      mload(0x40)\n      0x08c379a000000000000000000000000000000000000000000000000000000000\n      dup2\n      mstore\n      0x04\n      add\n      tag_37\n      swap1\n      tag_38\n      jump\t// in\n    tag_37:\n      mload(0x40)\n      dup1\n      swap2\n      sub\n      swap1\n      revert\n    tag_36:\n        /* \"contracts/PriceAlarmTracking/ArbitrageAlarmer/MultipleAssetArbitrageAlarm.sol\":1456:1457  0 */\n      0x00\n        /* \"contracts/PriceAlarmTracking/ArbitrageAlarmer/MultipleAssetArbitrageAlarm.sol\":1422:1428  assets */\n      dup1\n        /* \"contracts/PriceAlarmTracking/ArbitrageAlarmer/MultipleAssetArbitrageAlarm.sol\":1429:1433  name */\n      dup5\n        /* \"contracts/PriceAlarmTracking/ArbitrageAlarmer/MultipleAssetArbitrageAlarm.sol\":1422:1434  assets[name] */\n      mload(0x40)\n      tag_39\n      swap2\n      swap1\n      tag_40\n      jump\t// in\n    tag_39:\n      swap1\n      dup2\n      mstore\n      0x20\n      add\n      mload(0x40)\n      dup1\n      swap2\n      sub\n      swap1\n      keccak256\n        /* \"contracts/PriceAlarmTracking/ArbitrageAlarmer/MultipleAssetArbitrageAlarm.sol\":1422:1445  assets[name].priceFeeds */\n      0x00\n      add\n        /* \"contracts/PriceAlarmTracking/ArbitrageAlarmer/MultipleAssetArbitrageAlarm.sol\":1422:1452  assets[name].priceFeeds.length */\n      dup1\n      sload\n      swap1\n      pop\n        /* \"contracts/PriceAlarmTracking/ArbitrageAlarmer/MultipleAssetArbitrageAlarm.sol\":1422:1457  assets[name].priceFeeds.length == 0 */\n      eq\n        /* \"contracts/PriceAlarmTracking/ArbitrageAlarmer/MultipleAssetArbitrageAlarm.sol\":1414:1482  require(assets[name].priceFeeds.length == 0, \"Asset already exists\") */\n      tag_41\n      jumpi\n      mload(0x40)\n      0x08c379a000000000000000000000000000000000000000000000000000000000\n      dup2\n      mstore\n      0x04\n      add\n      tag_42\n      swap1\n      tag_43\n      jump\t// in\n    tag_42:\n      mload(0x40)\n      dup1\n      swap2\n      sub\n      swap1\n      revert\n    tag_41:\n        /* \"contracts/PriceAlarmTracking/ArbitrageAlarmer/MultipleAssetArbitrageAlarm.sol\":1561:1570  uint256 i */\n      0x00\n        /* \"contracts/PriceAlarmTracking/ArbitrageAlarmer/MultipleAssetArbitrageAlarm.sol\":1556:1696  for (uint256 i = 0; i < _priceFeeds.length; i++){... */\n    tag_44:\n        /* \"contracts/PriceAlarmTracking/ArbitrageAlarmer/MultipleAssetArbitrageAlarm.sol\":1580:1591  _priceFeeds */\n      dup3\n        /* \"contracts/PriceAlarmTracking/ArbitrageAlarmer/MultipleAssetArbitrageAlarm.sol\":1580:1598  _priceFeeds.length */\n      mload\n        /* \"contracts/PriceAlarmTracking/ArbitrageAlarmer/MultipleAssetArbitrageAlarm.sol\":1576:1577  i */\n      dup2\n        /* \"contracts/PriceAlarmTracking/ArbitrageAlarmer/MultipleAssetArbitrageAlarm.sol\":1576:1598  i < _priceFeeds.length */\n      lt\n        /* \"contracts/PriceAlarmTracking/ArbitrageAlarmer/MultipleAssetArbitrageAlarm.sol\":1556:1696  for (uint256 i = 0; i < _priceFeeds.length; i++){... */\n      iszero\n      tag_45\n      jumpi\n        /* \"contracts/PriceAlarmTracking/ArbitrageAlarmer/MultipleAssetArbitrageAlarm.sol\":1652:1653  0 */\n      0x00\n        /* \"contracts/PriceAlarmTracking/ArbitrageAlarmer/MultipleAssetArbitrageAlarm.sol\":1626:1654  _priceFeeds[i] != address(0) */\n      0xffffffffffffffffffffffffffffffffffffffff\n      and\n        /* \"contracts/PriceAlarmTracking/ArbitrageAlarmer/MultipleAssetArbitrageAlarm.sol\":1626:1637  _priceFeeds */\n      dup4\n        /* \"contracts/PriceAlarmTracking/ArbitrageAlarmer/MultipleAssetArbitrageAlarm.sol\":1638:1639  i */\n      dup3\n        /* \"contracts/PriceAlarmTracking/ArbitrageAlarmer/MultipleAssetArbitrageAlarm.sol\":1626:1640  _priceFeeds[i] */\n      dup2\n      mload\n      dup2\n      lt\n      tag_47\n      jumpi\n      tag_48\n      tag_49\n      jump\t// in\n    tag_48:\n    tag_47:\n      0x20\n      mul\n      0x20\n      add\n      add\n      mload\n        /* \"contracts/PriceAlarmTracking/ArbitrageAlarmer/MultipleAssetArbitrageAlarm.sol\":1626:1654  _priceFeeds[i] != address(0) */\n      0xffffffffffffffffffffffffffffffffffffffff\n      and\n      sub\n        /* \"contracts/PriceAlarmTracking/ArbitrageAlarmer/MultipleAssetArbitrageAlarm.sol\":1618:1685  require(_priceFeeds[i] != address(0), \"Invalid price feed address\") */\n      tag_50\n      jumpi\n      mload(0x40)\n      0x08c379a000000000000000000000000000000000000000000000000000000000\n      dup2\n      mstore\n      0x04\n      add\n      tag_51\n      swap1\n      tag_52\n      jump\t// in\n    tag_51:\n      mload(0x40)\n      dup1\n      swap2\n      sub\n      swap1\n      revert\n    tag_50:\n        /* \"contracts/PriceAlarmTracking/ArbitrageAlarmer/MultipleAssetArbitrageAlarm.sol\":1600:1603  i++ */\n      dup1\n      dup1\n      0x01\n      add\n      swap2\n      pop\n      pop\n        /* \"contracts/PriceAlarmTracking/ArbitrageAlarmer/MultipleAssetArbitrageAlarm.sol\":1556:1696  for (uint256 i = 0; i < _priceFeeds.length; i++){... */\n      jump(tag_44)\n    tag_45:\n      pop\n        /* \"contracts/PriceAlarmTracking/ArbitrageAlarmer/MultipleAssetArbitrageAlarm.sol\":1729:1885  Asset({... */\n      mload(0x40)\n      dup1\n      0x60\n      add\n      0x40\n      mstore\n      dup1\n        /* \"contracts/PriceAlarmTracking/ArbitrageAlarmer/MultipleAssetArbitrageAlarm.sol\":1761:1772  _priceFeeds */\n      dup4\n        /* \"contracts/PriceAlarmTracking/ArbitrageAlarmer/MultipleAssetArbitrageAlarm.sol\":1729:1885  Asset({... */\n      dup2\n      mstore\n      0x20\n      add\n        /* \"contracts/PriceAlarmTracking/ArbitrageAlarmer/MultipleAssetArbitrageAlarm.sol\":1806:1825  _arbitrageThreshold */\n      dup3\n        /* \"contracts/PriceAlarmTracking/ArbitrageAlarmer/MultipleAssetArbitrageAlarm.sol\":1729:1885  Asset({... */\n      dup2\n      mstore\n      0x20\n      add\n        /* \"contracts/PriceAlarmTracking/ArbitrageAlarmer/MultipleAssetArbitrageAlarm.sol\":1869:1874  false */\n      0x00\n        /* \"contracts/PriceAlarmTracking/ArbitrageAlarmer/MultipleAssetArbitrageAlarm.sol\":1729:1885  Asset({... */\n      iszero\n      iszero\n      dup2\n      mstore\n      pop\n        /* \"contracts/PriceAlarmTracking/ArbitrageAlarmer/MultipleAssetArbitrageAlarm.sol\":1714:1720  assets */\n      0x00\n        /* \"contracts/PriceAlarmTracking/ArbitrageAlarmer/MultipleAssetArbitrageAlarm.sol\":1721:1725  name */\n      dup5\n        /* \"contracts/PriceAlarmTracking/ArbitrageAlarmer/MultipleAssetArbitrageAlarm.sol\":1714:1726  assets[name] */\n      mload(0x40)\n      tag_53\n      swap2\n      swap1\n      tag_40\n      jump\t// in\n    tag_53:\n      swap1\n      dup2\n      mstore\n      0x20\n      add\n      mload(0x40)\n      dup1\n      swap2\n      sub\n      swap1\n      keccak256\n        /* \"contracts/PriceAlarmTracking/ArbitrageAlarmer/MultipleAssetArbitrageAlarm.sol\":1714:1885  assets[name] = Asset({... */\n      0x00\n      dup3\n      add\n      mload\n      dup2\n      0x00\n      add\n      swap1\n      dup1\n      mload\n      swap1\n      0x20\n      add\n      swap1\n      tag_54\n      swap3\n      swap2\n      swap1\n      tag_55\n      jump\t// in\n    tag_54:\n      pop\n      0x20\n      dup3\n      add\n      mload\n      dup2\n      0x01\n      add\n      sstore\n      0x40\n      dup3\n      add\n      mload\n      dup2\n      0x02\n      add\n      exp(0x0100, 0x00)\n      dup2\n      sload\n      dup2\n      0xff\n      mul\n      not\n      and\n      swap1\n      dup4\n      iszero\n      iszero\n      mul\n      or\n      swap1\n      sstore\n      pop\n      swap1\n      pop\n      pop\n        /* \"contracts/PriceAlarmTracking/ArbitrageAlarmer/MultipleAssetArbitrageAlarm.sol\":1909:1925  AssetAdded(name) */\n      0x724df0596d75f7cca867e95fdadd6c1397e175dc9a54f0a3f46167ec8577ecae\n        /* \"contracts/PriceAlarmTracking/ArbitrageAlarmer/MultipleAssetArbitrageAlarm.sol\":1920:1924  name */\n      dup4\n        /* \"contracts/PriceAlarmTracking/ArbitrageAlarmer/MultipleAssetArbitrageAlarm.sol\":1909:1925  AssetAdded(name) */\n      mload(0x40)\n      tag_56\n      swap2\n      swap1\n      tag_57\n      jump\t// in\n    tag_56:\n      mload(0x40)\n      dup1\n      swap2\n      sub\n      swap1\n      log1\n        /* \"contracts/PriceAlarmTracking/ArbitrageAlarmer/MultipleAssetArbitrageAlarm.sol\":1168:1932  function addAsset(string memory name, address[] memory _priceFeeds, int256 _arbitrageThreshold) public {... */\n      pop\n      pop\n      pop\n      jump\t// out\n        /* \"contracts/PriceAlarmTracking/ArbitrageAlarmer/MultipleAssetArbitrageAlarm.sol\":3420:4645  function checkArbitrage(string memory name) public {... */\n    tag_16:\n        /* \"contracts/PriceAlarmTracking/ArbitrageAlarmer/MultipleAssetArbitrageAlarm.sol\":3481:3500  Asset storage asset */\n      0x00\n        /* \"contracts/PriceAlarmTracking/ArbitrageAlarmer/MultipleAssetArbitrageAlarm.sol\":3503:3509  assets */\n      dup1\n        /* \"contracts/PriceAlarmTracking/ArbitrageAlarmer/MultipleAssetArbitrageAlarm.sol\":3510:3514  name */\n      dup3\n        /* \"contracts/PriceAlarmTracking/ArbitrageAlarmer/MultipleAssetArbitrageAlarm.sol\":3503:3515  assets[name] */\n      mload(0x40)\n      tag_59\n      swap2\n      swap1\n      tag_40\n      jump\t// in\n    tag_59:\n      swap1\n      dup2\n      mstore\n      0x20\n      add\n      mload(0x40)\n      dup1\n      swap2\n      sub\n      swap1\n      keccak256\n        /* \"contracts/PriceAlarmTracking/ArbitrageAlarmer/MultipleAssetArbitrageAlarm.sol\":3481:3515  Asset storage asset = assets[name] */\n      swap1\n      pop\n        /* \"contracts/PriceAlarmTracking/ArbitrageAlarmer/MultipleAssetArbitrageAlarm.sol\":3559:3560  0 */\n      0x00\n        /* \"contracts/PriceAlarmTracking/ArbitrageAlarmer/MultipleAssetArbitrageAlarm.sol\":3533:3538  asset */\n      dup2\n        /* \"contracts/PriceAlarmTracking/ArbitrageAlarmer/MultipleAssetArbitrageAlarm.sol\":3533:3549  asset.priceFeeds */\n      0x00\n      add\n        /* \"contracts/PriceAlarmTracking/ArbitrageAlarmer/MultipleAssetArbitrageAlarm.sol\":3533:3556  asset.priceFeeds.length */\n      dup1\n      sload\n      swap1\n      pop\n        /* \"contracts/PriceAlarmTracking/ArbitrageAlarmer/MultipleAssetArbitrageAlarm.sol\":3533:3560  asset.priceFeeds.length > 0 */\n      gt\n        /* \"contracts/PriceAlarmTracking/ArbitrageAlarmer/MultipleAssetArbitrageAlarm.sol\":3525:3580  require(asset.priceFeeds.length > 0, \"Asset not found\") */\n      tag_60\n      jumpi\n      mload(0x40)\n      0x08c379a000000000000000000000000000000000000000000000000000000000\n      dup2\n      mstore\n      0x04\n      add\n      tag_61\n      swap1\n      tag_62\n      jump\t// in\n    tag_61:\n      mload(0x40)\n      dup1\n      swap2\n      sub\n      swap1\n      revert\n    tag_60:\n        /* \"contracts/PriceAlarmTracking/ArbitrageAlarmer/MultipleAssetArbitrageAlarm.sol\":3703:3718  int256 minPrice */\n      0x00\n        /* \"contracts/PriceAlarmTracking/ArbitrageAlarmer/MultipleAssetArbitrageAlarm.sol\":3721:3737  type(int256).max */\n      0x7fffffffffffffffffffffffffffffffffffffffffffffffffffffffffffffff\n        /* \"contracts/PriceAlarmTracking/ArbitrageAlarmer/MultipleAssetArbitrageAlarm.sol\":3703:3737  int256 minPrice = type(int256).max */\n      swap1\n      pop\n        /* \"contracts/PriceAlarmTracking/ArbitrageAlarmer/MultipleAssetArbitrageAlarm.sol\":3747:3762  int256 maxPrice */\n      0x00\n        /* \"contracts/PriceAlarmTracking/ArbitrageAlarmer/MultipleAssetArbitrageAlarm.sol\":3765:3781  type(int256).min */\n      0x8000000000000000000000000000000000000000000000000000000000000000\n        /* \"contracts/PriceAlarmTracking/ArbitrageAlarmer/MultipleAssetArbitrageAlarm.sol\":3747:3781  int256 maxPrice = type(int256).min */\n      swap1\n      pop\n        /* \"contracts/PriceAlarmTracking/ArbitrageAlarmer/MultipleAssetArbitrageAlarm.sol\":3876:3885  uint256 i */\n      0x00\n        /* \"contracts/PriceAlarmTracking/ArbitrageAlarmer/MultipleAssetArbitrageAlarm.sol\":3871:4272  for (uint256 i = 0; i < asset.priceFeeds.length; i++){... */\n    tag_63:\n        /* \"contracts/PriceAlarmTracking/ArbitrageAlarmer/MultipleAssetArbitrageAlarm.sol\":3895:3900  asset */\n      dup4\n        /* \"contracts/PriceAlarmTracking/ArbitrageAlarmer/MultipleAssetArbitrageAlarm.sol\":3895:3911  asset.priceFeeds */\n      0x00\n      add\n        /* \"contracts/PriceAlarmTracking/ArbitrageAlarmer/MultipleAssetArbitrageAlarm.sol\":3895:3918  asset.priceFeeds.length */\n      dup1\n      sload\n      swap1\n      pop\n        /* \"contracts/PriceAlarmTracking/ArbitrageAlarmer/MultipleAssetArbitrageAlarm.sol\":3891:3892  i */\n      dup2\n        /* \"contracts/PriceAlarmTracking/ArbitrageAlarmer/MultipleAssetArbitrageAlarm.sol\":3891:3918  i < asset.priceFeeds.length */\n      lt\n        /* \"contracts/PriceAlarmTracking/ArbitrageAlarmer/MultipleAssetArbitrageAlarm.sol\":3871:4272  for (uint256 i = 0; i < asset.priceFeeds.length; i++){... */\n      iszero\n      tag_64\n      jumpi\n        /* \"contracts/PriceAlarmTracking/ArbitrageAlarmer/MultipleAssetArbitrageAlarm.sol\":3938:3969  AggregatorV3Interface priceFeed */\n      0x00\n        /* \"contracts/PriceAlarmTracking/ArbitrageAlarmer/MultipleAssetArbitrageAlarm.sol\":3994:3999  asset */\n      dup5\n        /* \"contracts/PriceAlarmTracking/ArbitrageAlarmer/MultipleAssetArbitrageAlarm.sol\":3994:4010  asset.priceFeeds */\n      0x00\n      add\n        /* \"contracts/PriceAlarmTracking/ArbitrageAlarmer/MultipleAssetArbitrageAlarm.sol\":4011:4012  i */\n      dup3\n        /* \"contracts/PriceAlarmTracking/ArbitrageAlarmer/MultipleAssetArbitrageAlarm.sol\":3994:4013  asset.priceFeeds[i] */\n      dup2\n      sload\n      dup2\n      lt\n      tag_66\n      jumpi\n      tag_67\n      tag_49\n      jump\t// in\n    tag_67:\n    tag_66:\n      swap1\n      0x00\n      mstore\n      keccak256(0x00, 0x20)\n      add\n      0x00\n      swap1\n      sload\n      swap1\n      0x0100\n      exp\n      swap1\n      div\n      0xffffffffffffffffffffffffffffffffffffffff\n      and\n        /* \"contracts/PriceAlarmTracking/ArbitrageAlarmer/MultipleAssetArbitrageAlarm.sol\":3938:4014  AggregatorV3Interface priceFeed = AggregatorV3Interface(asset.priceFeeds[i]) */\n      swap1\n      pop\n        /* \"contracts/PriceAlarmTracking/ArbitrageAlarmer/MultipleAssetArbitrageAlarm.sol\":4031:4043  int256 price */\n      0x00\n        /* \"contracts/PriceAlarmTracking/ArbitrageAlarmer/MultipleAssetArbitrageAlarm.sol\":4053:4062  priceFeed */\n      dup2\n        /* \"contracts/PriceAlarmTracking/ArbitrageAlarmer/MultipleAssetArbitrageAlarm.sol\":4053:4078  priceFeed.latestRoundData */\n      0xffffffffffffffffffffffffffffffffffffffff\n      and\n      0xfeaf968c\n        /* \"contracts/PriceAlarmTracking/ArbitrageAlarmer/MultipleAssetArbitrageAlarm.sol\":4053:4080  priceFeed.latestRoundData() */\n      mload(0x40)\n      dup2\n      0xffffffff\n      and\n      0xe0\n      shl\n      dup2\n      mstore\n      0x04\n      add\n      0xa0\n      mload(0x40)\n      dup1\n      dup4\n      sub\n      dup2\n      dup7\n      gas\n      staticcall\n      iszero\n      dup1\n      iszero\n      tag_70\n      jumpi\n      returndatasize\n      0x00\n      dup1\n      returndatacopy\n      revert(0x00, returndatasize)\n    tag_70:\n      pop\n      pop\n      pop\n      pop\n      mload(0x40)\n      returndatasize\n      not(0x1f)\n      0x1f\n      dup3\n      add\n      and\n      dup3\n      add\n      dup1\n      0x40\n      mstore\n      pop\n      dup2\n      add\n      swap1\n      tag_71\n      swap2\n      swap1\n      tag_72\n      jump\t// in\n    tag_71:\n        /* \"contracts/PriceAlarmTracking/ArbitrageAlarmer/MultipleAssetArbitrageAlarm.sol\":4028:4080  (, int256 price, , , ) = priceFeed.latestRoundData() */\n      pop\n      pop\n      pop\n      swap2\n      pop\n      pop\n        /* \"contracts/PriceAlarmTracking/ArbitrageAlarmer/MultipleAssetArbitrageAlarm.sol\":4119:4127  minPrice */\n      dup5\n        /* \"contracts/PriceAlarmTracking/ArbitrageAlarmer/MultipleAssetArbitrageAlarm.sol\":4111:4116  price */\n      dup2\n        /* \"contracts/PriceAlarmTracking/ArbitrageAlarmer/MultipleAssetArbitrageAlarm.sol\":4111:4127  price < minPrice */\n      slt\n        /* \"contracts/PriceAlarmTracking/ArbitrageAlarmer/MultipleAssetArbitrageAlarm.sol\":4107:4178  if (price < minPrice) {... */\n      iszero\n      tag_73\n      jumpi\n        /* \"contracts/PriceAlarmTracking/ArbitrageAlarmer/MultipleAssetArbitrageAlarm.sol\":4158:4163  price */\n      dup1\n        /* \"contracts/PriceAlarmTracking/ArbitrageAlarmer/MultipleAssetArbitrageAlarm.sol\":4147:4163  minPrice = price */\n      swap5\n      pop\n        /* \"contracts/PriceAlarmTracking/ArbitrageAlarmer/MultipleAssetArbitrageAlarm.sol\":4107:4178  if (price < minPrice) {... */\n    tag_73:\n        /* \"contracts/PriceAlarmTracking/ArbitrageAlarmer/MultipleAssetArbitrageAlarm.sol\":4203:4211  maxPrice */\n      dup4\n        /* \"contracts/PriceAlarmTracking/ArbitrageAlarmer/MultipleAssetArbitrageAlarm.sol\":4195:4200  price */\n      dup2\n        /* \"contracts/PriceAlarmTracking/ArbitrageAlarmer/MultipleAssetArbitrageAlarm.sol\":4195:4211  price > maxPrice */\n      sgt\n        /* \"contracts/PriceAlarmTracking/ArbitrageAlarmer/MultipleAssetArbitrageAlarm.sol\":4191:4262  if (price > maxPrice) {... */\n      iszero\n      tag_74\n      jumpi\n        /* \"contracts/PriceAlarmTracking/ArbitrageAlarmer/MultipleAssetArbitrageAlarm.sol\":4242:4247  price */\n      dup1\n        /* \"contracts/PriceAlarmTracking/ArbitrageAlarmer/MultipleAssetArbitrageAlarm.sol\":4231:4247  maxPrice = price */\n      swap4\n      pop\n        /* \"contracts/PriceAlarmTracking/ArbitrageAlarmer/MultipleAssetArbitrageAlarm.sol\":4191:4262  if (price > maxPrice) {... */\n    tag_74:\n        /* \"contracts/PriceAlarmTracking/ArbitrageAlarmer/MultipleAssetArbitrageAlarm.sol\":3924:4272  {... */\n      pop\n      pop\n        /* \"contracts/PriceAlarmTracking/ArbitrageAlarmer/MultipleAssetArbitrageAlarm.sol\":3920:3923  i++ */\n      dup1\n      dup1\n      0x01\n      add\n      swap2\n      pop\n      pop\n        /* \"contracts/PriceAlarmTracking/ArbitrageAlarmer/MultipleAssetArbitrageAlarm.sol\":3871:4272  for (uint256 i = 0; i < asset.priceFeeds.length; i++){... */\n      jump(tag_63)\n    tag_64:\n      pop\n        /* \"contracts/PriceAlarmTracking/ArbitrageAlarmer/MultipleAssetArbitrageAlarm.sol\":4392:4408  int256 priceDiff */\n      0x00\n        /* \"contracts/PriceAlarmTracking/ArbitrageAlarmer/MultipleAssetArbitrageAlarm.sol\":4422:4430  minPrice */\n      dup3\n        /* \"contracts/PriceAlarmTracking/ArbitrageAlarmer/MultipleAssetArbitrageAlarm.sol\":4411:4419  maxPrice */\n      dup3\n        /* \"contracts/PriceAlarmTracking/ArbitrageAlarmer/MultipleAssetArbitrageAlarm.sol\":4411:4430  maxPrice - minPrice */\n      tag_75\n      swap2\n      swap1\n      tag_76\n      jump\t// in\n    tag_75:\n        /* \"contracts/PriceAlarmTracking/ArbitrageAlarmer/MultipleAssetArbitrageAlarm.sol\":4392:4430  int256 priceDiff = maxPrice - minPrice */\n      swap1\n      pop\n        /* \"contracts/PriceAlarmTracking/ArbitrageAlarmer/MultipleAssetArbitrageAlarm.sol\":4457:4462  asset */\n      dup4\n        /* \"contracts/PriceAlarmTracking/ArbitrageAlarmer/MultipleAssetArbitrageAlarm.sol\":4457:4481  asset.arbitrageThreshold */\n      0x01\n      add\n      sload\n        /* \"contracts/PriceAlarmTracking/ArbitrageAlarmer/MultipleAssetArbitrageAlarm.sol\":4444:4453  priceDiff */\n      dup2\n        /* \"contracts/PriceAlarmTracking/ArbitrageAlarmer/MultipleAssetArbitrageAlarm.sol\":4444:4481  priceDiff >= asset.arbitrageThreshold */\n      slt\n        /* \"contracts/PriceAlarmTracking/ArbitrageAlarmer/MultipleAssetArbitrageAlarm.sol\":4440:4639  if (priceDiff >= asset.arbitrageThreshold) {... */\n      tag_77\n      jumpi\n        /* \"contracts/PriceAlarmTracking/ArbitrageAlarmer/MultipleAssetArbitrageAlarm.sol\":4534:4538  true */\n      0x01\n        /* \"contracts/PriceAlarmTracking/ArbitrageAlarmer/MultipleAssetArbitrageAlarm.sol\":4497:4502  asset */\n      dup5\n        /* \"contracts/PriceAlarmTracking/ArbitrageAlarmer/MultipleAssetArbitrageAlarm.sol\":4497:4531  asset.arbitrageOpportunityDetected */\n      0x02\n      add\n      0x00\n        /* \"contracts/PriceAlarmTracking/ArbitrageAlarmer/MultipleAssetArbitrageAlarm.sol\":4497:4538  asset.arbitrageOpportunityDetected = true */\n      0x0100\n      exp\n      dup2\n      sload\n      dup2\n      0xff\n      mul\n      not\n      and\n      swap1\n      dup4\n      iszero\n      iszero\n      mul\n      or\n      swap1\n      sstore\n      pop\n        /* \"contracts/PriceAlarmTracking/ArbitrageAlarmer/MultipleAssetArbitrageAlarm.sol\":4557:4628  ArbitrageOpportunityDetected(name, minPrice, maxPrice, block.timestamp) */\n      0x9e30cf7894b5421e340ea49fb35628fb5046f61c406cac581bff7432e22548e1\n        /* \"contracts/PriceAlarmTracking/ArbitrageAlarmer/MultipleAssetArbitrageAlarm.sol\":4586:4590  name */\n      dup6\n        /* \"contracts/PriceAlarmTracking/ArbitrageAlarmer/MultipleAssetArbitrageAlarm.sol\":4592:4600  minPrice */\n      dup5\n        /* \"contracts/PriceAlarmTracking/ArbitrageAlarmer/MultipleAssetArbitrageAlarm.sol\":4602:4610  maxPrice */\n      dup5\n        /* \"contracts/PriceAlarmTracking/ArbitrageAlarmer/MultipleAssetArbitrageAlarm.sol\":4612:4627  block.timestamp */\n      timestamp\n        /* \"contracts/PriceAlarmTracking/ArbitrageAlarmer/MultipleAssetArbitrageAlarm.sol\":4557:4628  ArbitrageOpportunityDetected(name, minPrice, maxPrice, block.timestamp) */\n      mload(0x40)\n      tag_78\n      swap5\n      swap4\n      swap3\n      swap2\n      swap1\n      tag_79\n      jump\t// in\n    tag_78:\n      mload(0x40)\n      dup1\n      swap2\n      sub\n      swap1\n      log1\n        /* \"contracts/PriceAlarmTracking/ArbitrageAlarmer/MultipleAssetArbitrageAlarm.sol\":4440:4639  if (priceDiff >= asset.arbitrageThreshold) {... */\n    tag_77:\n        /* \"contracts/PriceAlarmTracking/ArbitrageAlarmer/MultipleAssetArbitrageAlarm.sol\":3471:4645  {... */\n      pop\n      pop\n      pop\n      pop\n        /* \"contracts/PriceAlarmTracking/ArbitrageAlarmer/MultipleAssetArbitrageAlarm.sol\":3420:4645  function checkArbitrage(string memory name) public {... */\n      pop\n      jump\t// out\n        /* \"contracts/PriceAlarmTracking/ArbitrageAlarmer/MultipleAssetArbitrageAlarm.sol\":4862:5425  function getLatestPrices(string memory name) public view returns (int256[] memory) {... */\n    tag_19:\n        /* \"contracts/PriceAlarmTracking/ArbitrageAlarmer/MultipleAssetArbitrageAlarm.sol\":4928:4943  int256[] memory */\n      0x60\n        /* \"contracts/PriceAlarmTracking/ArbitrageAlarmer/MultipleAssetArbitrageAlarm.sol\":4955:4974  Asset storage asset */\n      0x00\n        /* \"contracts/PriceAlarmTracking/ArbitrageAlarmer/MultipleAssetArbitrageAlarm.sol\":4977:4983  assets */\n      dup1\n        /* \"contracts/PriceAlarmTracking/ArbitrageAlarmer/MultipleAssetArbitrageAlarm.sol\":4984:4988  name */\n      dup4\n        /* \"contracts/PriceAlarmTracking/ArbitrageAlarmer/MultipleAssetArbitrageAlarm.sol\":4977:4989  assets[name] */\n      mload(0x40)\n      tag_81\n      swap2\n      swap1\n      tag_40\n      jump\t// in\n    tag_81:\n      swap1\n      dup2\n      mstore\n      0x20\n      add\n      mload(0x40)\n      dup1\n      swap2\n      sub\n      swap1\n      keccak256\n        /* \"contracts/PriceAlarmTracking/ArbitrageAlarmer/MultipleAssetArbitrageAlarm.sol\":4955:4989  Asset storage asset = assets[name] */\n      swap1\n      pop\n        /* \"contracts/PriceAlarmTracking/ArbitrageAlarmer/MultipleAssetArbitrageAlarm.sol\":5033:5034  0 */\n      0x00\n        /* \"contracts/PriceAlarmTracking/ArbitrageAlarmer/MultipleAssetArbitrageAlarm.sol\":5007:5012  asset */\n      dup2\n        /* \"contracts/PriceAlarmTracking/ArbitrageAlarmer/MultipleAssetArbitrageAlarm.sol\":5007:5023  asset.priceFeeds */\n      0x00\n      add\n        /* \"contracts/PriceAlarmTracking/ArbitrageAlarmer/MultipleAssetArbitrageAlarm.sol\":5007:5030  asset.priceFeeds.length */\n      dup1\n      sload\n      swap1\n      pop\n        /* \"contracts/PriceAlarmTracking/ArbitrageAlarmer/MultipleAssetArbitrageAlarm.sol\":5007:5034  asset.priceFeeds.length > 0 */\n      gt\n        /* \"contracts/PriceAlarmTracking/ArbitrageAlarmer/MultipleAssetArbitrageAlarm.sol\":4999:5054  require(asset.priceFeeds.length > 0, \"Asset not found\") */\n      tag_82\n      jumpi\n      mload(0x40)\n      0x08c379a000000000000000000000000000000000000000000000000000000000\n      dup2\n      mstore\n      0x04\n      add\n      tag_83\n      swap1\n      tag_62\n      jump\t// in\n    tag_83:\n      mload(0x40)\n      dup1\n      swap2\n      sub\n      swap1\n      revert\n    tag_82:\n        /* \"contracts/PriceAlarmTracking/ArbitrageAlarmer/MultipleAssetArbitrageAlarm.sol\":5073:5095  int256[] memory prices */\n      0x00\n        /* \"contracts/PriceAlarmTracking/ArbitrageAlarmer/MultipleAssetArbitrageAlarm.sol\":5111:5116  asset */\n      dup2\n        /* \"contracts/PriceAlarmTracking/ArbitrageAlarmer/MultipleAssetArbitrageAlarm.sol\":5111:5127  asset.priceFeeds */\n      0x00\n      add\n        /* \"contracts/PriceAlarmTracking/ArbitrageAlarmer/MultipleAssetArbitrageAlarm.sol\":5111:5134  asset.priceFeeds.length */\n      dup1\n      sload\n      swap1\n      pop\n        /* \"contracts/PriceAlarmTracking/ArbitrageAlarmer/MultipleAssetArbitrageAlarm.sol\":5098:5135  new int256[](asset.priceFeeds.length) */\n      0xffffffffffffffff\n      dup2\n      gt\n      iszero\n      tag_84\n      jumpi\n      tag_85\n      tag_86\n      jump\t// in\n    tag_85:\n    tag_84:\n      mload(0x40)\n      swap1\n      dup1\n      dup3\n      mstore\n      dup1\n      0x20\n      mul\n      0x20\n      add\n      dup3\n      add\n      0x40\n      mstore\n      dup1\n      iszero\n      tag_87\n      jumpi\n      dup2\n      0x20\n      add\n      0x20\n      dup3\n      mul\n      dup1\n      calldatasize\n      dup4\n      calldatacopy\n      dup1\n      dup3\n      add\n      swap2\n      pop\n      pop\n      swap1\n      pop\n    tag_87:\n      pop\n        /* \"contracts/PriceAlarmTracking/ArbitrageAlarmer/MultipleAssetArbitrageAlarm.sol\":5073:5135  int256[] memory prices = new int256[](asset.priceFeeds.length) */\n      swap1\n      pop\n        /* \"contracts/PriceAlarmTracking/ArbitrageAlarmer/MultipleAssetArbitrageAlarm.sol\":5150:5159  uint256 i */\n      0x00\n        /* \"contracts/PriceAlarmTracking/ArbitrageAlarmer/MultipleAssetArbitrageAlarm.sol\":5145:5396  for (uint256 i = 0; i < asset.priceFeeds.length; i++){... */\n    tag_88:\n        /* \"contracts/PriceAlarmTracking/ArbitrageAlarmer/MultipleAssetArbitrageAlarm.sol\":5169:5174  asset */\n      dup3\n        /* \"contracts/PriceAlarmTracking/ArbitrageAlarmer/MultipleAssetArbitrageAlarm.sol\":5169:5185  asset.priceFeeds */\n      0x00\n      add\n        /* \"contracts/PriceAlarmTracking/ArbitrageAlarmer/MultipleAssetArbitrageAlarm.sol\":5169:5192  asset.priceFeeds.length */\n      dup1\n      sload\n      swap1\n      pop\n        /* \"contracts/PriceAlarmTracking/ArbitrageAlarmer/MultipleAssetArbitrageAlarm.sol\":5165:5166  i */\n      dup2\n        /* \"contracts/PriceAlarmTracking/ArbitrageAlarmer/MultipleAssetArbitrageAlarm.sol\":5165:5192  i < asset.priceFeeds.length */\n      lt\n        /* \"contracts/PriceAlarmTracking/ArbitrageAlarmer/MultipleAssetArbitrageAlarm.sol\":5145:5396  for (uint256 i = 0; i < asset.priceFeeds.length; i++){... */\n      iszero\n      tag_89\n      jumpi\n        /* \"contracts/PriceAlarmTracking/ArbitrageAlarmer/MultipleAssetArbitrageAlarm.sol\":5212:5243  AggregatorV3Interface priceFeed */\n      0x00\n        /* \"contracts/PriceAlarmTracking/ArbitrageAlarmer/MultipleAssetArbitrageAlarm.sol\":5268:5273  asset */\n      dup4\n        /* \"contracts/PriceAlarmTracking/ArbitrageAlarmer/MultipleAssetArbitrageAlarm.sol\":5268:5284  asset.priceFeeds */\n      0x00\n      add\n        /* \"contracts/PriceAlarmTracking/ArbitrageAlarmer/MultipleAssetArbitrageAlarm.sol\":5285:5286  i */\n      dup3\n        /* \"contracts/PriceAlarmTracking/ArbitrageAlarmer/MultipleAssetArbitrageAlarm.sol\":5268:5287  asset.priceFeeds[i] */\n      dup2\n      sload\n      dup2\n      lt\n      tag_91\n      jumpi\n      tag_92\n      tag_49\n      jump\t// in\n    tag_92:\n    tag_91:\n      swap1\n      0x00\n      mstore\n      keccak256(0x00, 0x20)\n      add\n      0x00\n      swap1\n      sload\n      swap1\n      0x0100\n      exp\n      swap1\n      div\n      0xffffffffffffffffffffffffffffffffffffffff\n      and\n        /* \"contracts/PriceAlarmTracking/ArbitrageAlarmer/MultipleAssetArbitrageAlarm.sol\":5212:5288  AggregatorV3Interface priceFeed = AggregatorV3Interface(asset.priceFeeds[i]) */\n      swap1\n      pop\n        /* \"contracts/PriceAlarmTracking/ArbitrageAlarmer/MultipleAssetArbitrageAlarm.sol\":5305:5317  int256 price */\n      0x00\n        /* \"contracts/PriceAlarmTracking/ArbitrageAlarmer/MultipleAssetArbitrageAlarm.sol\":5327:5336  priceFeed */\n      dup2\n        /* \"contracts/PriceAlarmTracking/ArbitrageAlarmer/MultipleAssetArbitrageAlarm.sol\":5327:5352  priceFeed.latestRoundData */\n      0xffffffffffffffffffffffffffffffffffffffff\n      and\n      0xfeaf968c\n        /* \"contracts/PriceAlarmTracking/ArbitrageAlarmer/MultipleAssetArbitrageAlarm.sol\":5327:5354  priceFeed.latestRoundData() */\n      mload(0x40)\n      dup2\n      0xffffffff\n      and\n      0xe0\n      shl\n      dup2\n      mstore\n      0x04\n      add\n      0xa0\n      mload(0x40)\n      dup1\n      dup4\n      sub\n      dup2\n      dup7\n      gas\n      staticcall\n      iszero\n      dup1\n      iszero\n      tag_95\n      jumpi\n      returndatasize\n      0x00\n      dup1\n      returndatacopy\n      revert(0x00, returndatasize)\n    tag_95:\n      pop\n      pop\n      pop\n      pop\n      mload(0x40)\n      returndatasize\n      not(0x1f)\n      0x1f\n      dup3\n      add\n      and\n      dup3\n      add\n      dup1\n      0x40\n      mstore\n      pop\n      dup2\n      add\n      swap1\n      tag_96\n      swap2\n      swap1\n      tag_72\n      jump\t// in\n    tag_96:\n        /* \"contracts/PriceAlarmTracking/ArbitrageAlarmer/MultipleAssetArbitrageAlarm.sol\":5302:5354  (, int256 price, , , ) = priceFeed.latestRoundData() */\n      pop\n      pop\n      pop\n      swap2\n      pop\n      pop\n        /* \"contracts/PriceAlarmTracking/ArbitrageAlarmer/MultipleAssetArbitrageAlarm.sol\":5380:5385  price */\n      dup1\n        /* \"contracts/PriceAlarmTracking/ArbitrageAlarmer/MultipleAssetArbitrageAlarm.sol\":5368:5374  prices */\n      dup5\n        /* \"contracts/PriceAlarmTracking/ArbitrageAlarmer/MultipleAssetArbitrageAlarm.sol\":5375:5376  i */\n      dup5\n        /* \"contracts/PriceAlarmTracking/ArbitrageAlarmer/MultipleAssetArbitrageAlarm.sol\":5368:5377  prices[i] */\n      dup2\n      mload\n      dup2\n      lt\n      tag_97\n      jumpi\n      tag_98\n      tag_49\n      jump\t// in\n    tag_98:\n    tag_97:\n      0x20\n      mul\n      0x20\n      add\n      add\n        /* \"contracts/PriceAlarmTracking/ArbitrageAlarmer/MultipleAssetArbitrageAlarm.sol\":5368:5385  prices[i] = price */\n      dup2\n      dup2\n      mstore\n      pop\n      pop\n        /* \"contracts/PriceAlarmTracking/ArbitrageAlarmer/MultipleAssetArbitrageAlarm.sol\":5198:5396  {... */\n      pop\n      pop\n        /* \"contracts/PriceAlarmTracking/ArbitrageAlarmer/MultipleAssetArbitrageAlarm.sol\":5194:5197  i++ */\n      dup1\n      dup1\n      0x01\n      add\n      swap2\n      pop\n      pop\n        /* \"contracts/PriceAlarmTracking/ArbitrageAlarmer/MultipleAssetArbitrageAlarm.sol\":5145:5396  for (uint256 i = 0; i < asset.priceFeeds.length; i++){... */\n      jump(tag_88)\n    tag_89:\n      pop\n        /* \"contracts/PriceAlarmTracking/ArbitrageAlarmer/MultipleAssetArbitrageAlarm.sol\":5412:5418  prices */\n      dup1\n        /* \"contracts/PriceAlarmTracking/ArbitrageAlarmer/MultipleAssetArbitrageAlarm.sol\":5405:5418  return prices */\n      swap3\n      pop\n      pop\n      pop\n        /* \"contracts/PriceAlarmTracking/ArbitrageAlarmer/MultipleAssetArbitrageAlarm.sol\":4862:5425  function getLatestPrices(string memory name) public view returns (int256[] memory) {... */\n      swap2\n      swap1\n      pop\n      jump\t// out\n        /* \"contracts/PriceAlarmTracking/ArbitrageAlarmer/MultipleAssetArbitrageAlarm.sol\":2862:3140  function updateArbitrageThreshold(string memory name, int256 _newThreshold) public {... */\n    tag_25:\n        /* \"contracts/PriceAlarmTracking/ArbitrageAlarmer/MultipleAssetArbitrageAlarm.sol\":2996:2997  0 */\n      0x00\n        /* \"contracts/PriceAlarmTracking/ArbitrageAlarmer/MultipleAssetArbitrageAlarm.sol\":2963:2969  assets */\n      dup1\n        /* \"contracts/PriceAlarmTracking/ArbitrageAlarmer/MultipleAssetArbitrageAlarm.sol\":2970:2974  name */\n      dup4\n        /* \"contracts/PriceAlarmTracking/ArbitrageAlarmer/MultipleAssetArbitrageAlarm.sol\":2963:2975  assets[name] */\n      mload(0x40)\n      tag_100\n      swap2\n      swap1\n      tag_40\n      jump\t// in\n    tag_100:\n      swap1\n      dup2\n      mstore\n      0x20\n      add\n      mload(0x40)\n      dup1\n      swap2\n      sub\n      swap1\n      keccak256\n        /* \"contracts/PriceAlarmTracking/ArbitrageAlarmer/MultipleAssetArbitrageAlarm.sol\":2963:2986  assets[name].priceFeeds */\n      0x00\n      add\n        /* \"contracts/PriceAlarmTracking/ArbitrageAlarmer/MultipleAssetArbitrageAlarm.sol\":2963:2993  assets[name].priceFeeds.length */\n      dup1\n      sload\n      swap1\n      pop\n        /* \"contracts/PriceAlarmTracking/ArbitrageAlarmer/MultipleAssetArbitrageAlarm.sol\":2963:2997  assets[name].priceFeeds.length > 0 */\n      gt\n        /* \"contracts/PriceAlarmTracking/ArbitrageAlarmer/MultipleAssetArbitrageAlarm.sol\":2955:3017  require(assets[name].priceFeeds.length > 0, \"Asset not found\") */\n      tag_101\n      jumpi\n      mload(0x40)\n      0x08c379a000000000000000000000000000000000000000000000000000000000\n      dup2\n      mstore\n      0x04\n      add\n      tag_102\n      swap1\n      tag_62\n      jump\t// in\n    tag_102:\n      mload(0x40)\n      dup1\n      swap2\n      sub\n      swap1\n      revert\n    tag_101:\n        /* \"contracts/PriceAlarmTracking/ArbitrageAlarmer/MultipleAssetArbitrageAlarm.sol\":3061:3074  _newThreshold */\n      dup1\n        /* \"contracts/PriceAlarmTracking/ArbitrageAlarmer/MultipleAssetArbitrageAlarm.sol\":3027:3033  assets */\n      0x00\n        /* \"contracts/PriceAlarmTracking/ArbitrageAlarmer/MultipleAssetArbitrageAlarm.sol\":3034:3038  name */\n      dup4\n        /* \"contracts/PriceAlarmTracking/ArbitrageAlarmer/MultipleAssetArbitrageAlarm.sol\":3027:3039  assets[name] */\n      mload(0x40)\n      tag_103\n      swap2\n      swap1\n      tag_40\n      jump\t// in\n    tag_103:\n      swap1\n      dup2\n      mstore\n      0x20\n      add\n      mload(0x40)\n      dup1\n      swap2\n      sub\n      swap1\n      keccak256\n        /* \"contracts/PriceAlarmTracking/ArbitrageAlarmer/MultipleAssetArbitrageAlarm.sol\":3027:3058  assets[name].arbitrageThreshold */\n      0x01\n      add\n        /* \"contracts/PriceAlarmTracking/ArbitrageAlarmer/MultipleAssetArbitrageAlarm.sol\":3027:3074  assets[name].arbitrageThreshold = _newThreshold */\n      dup2\n      swap1\n      sstore\n      pop\n        /* \"contracts/PriceAlarmTracking/ArbitrageAlarmer/MultipleAssetArbitrageAlarm.sol\":3128:3133  false */\n      0x00\n        /* \"contracts/PriceAlarmTracking/ArbitrageAlarmer/MultipleAssetArbitrageAlarm.sol\":3084:3090  assets */\n      dup1\n        /* \"contracts/PriceAlarmTracking/ArbitrageAlarmer/MultipleAssetArbitrageAlarm.sol\":3091:3095  name */\n      dup4\n        /* \"contracts/PriceAlarmTracking/ArbitrageAlarmer/MultipleAssetArbitrageAlarm.sol\":3084:3096  assets[name] */\n      mload(0x40)\n      tag_104\n      swap2\n      swap1\n      tag_40\n      jump\t// in\n    tag_104:\n      swap1\n      dup2\n      mstore\n      0x20\n      add\n      mload(0x40)\n      dup1\n      swap2\n      sub\n      swap1\n      keccak256\n        /* \"contracts/PriceAlarmTracking/ArbitrageAlarmer/MultipleAssetArbitrageAlarm.sol\":3084:3125  assets[name].arbitrageOpportunityDetected */\n      0x02\n      add\n      0x00\n        /* \"contracts/PriceAlarmTracking/ArbitrageAlarmer/MultipleAssetArbitrageAlarm.sol\":3084:3133  assets[name].arbitrageOpportunityDetected = false */\n      0x0100\n      exp\n      dup2\n      sload\n      dup2\n      0xff\n      mul\n      not\n      and\n      swap1\n      dup4\n      iszero\n      iszero\n      mul\n      or\n      swap1\n      sstore\n      pop\n        /* \"contracts/PriceAlarmTracking/ArbitrageAlarmer/MultipleAssetArbitrageAlarm.sol\":2862:3140  function updateArbitrageThreshold(string memory name, int256 _newThreshold) public {... */\n      pop\n      pop\n      jump\t// out\n        /* \"contracts/PriceAlarmTracking/ArbitrageAlarmer/MultipleAssetArbitrageAlarm.sol\":555:593  mapping(string => Asset) public assets */\n    tag_28:\n      0x00\n      dup2\n      dup1\n      mload\n      0x20\n      dup2\n      add\n      dup3\n      add\n      dup1\n      mload\n      dup5\n      dup3\n      mstore\n      0x20\n      dup4\n      add\n      0x20\n      dup6\n      add\n      keccak256\n      dup2\n      dup4\n      mstore\n      dup1\n      swap6\n      pop\n      pop\n      pop\n      pop\n      pop\n      pop\n      0x00\n      swap2\n      pop\n      swap1\n      pop\n      dup1\n      0x01\n      add\n      sload\n      swap1\n      dup1\n      0x02\n      add\n      0x00\n      swap1\n      sload\n      swap1\n      0x0100\n      exp\n      swap1\n      div\n      0xff\n      and\n      swap1\n      pop\n      dup3\n      jump\t// out\n        /* \"contracts/PriceAlarmTracking/ArbitrageAlarmer/MultipleAssetArbitrageAlarm.sol\":2144:2676  function updatePriceFeeds(string memory name, address[] memory _priceFeeds) public {... */\n    tag_34:\n        /* \"contracts/PriceAlarmTracking/ArbitrageAlarmer/MultipleAssetArbitrageAlarm.sol\":2278:2279  0 */\n      0x00\n        /* \"contracts/PriceAlarmTracking/ArbitrageAlarmer/MultipleAssetArbitrageAlarm.sol\":2245:2251  assets */\n      dup1\n        /* \"contracts/PriceAlarmTracking/ArbitrageAlarmer/MultipleAssetArbitrageAlarm.sol\":2252:2256  name */\n      dup4\n        /* \"contracts/PriceAlarmTracking/ArbitrageAlarmer/MultipleAssetArbitrageAlarm.sol\":2245:2257  assets[name] */\n      mload(0x40)\n      tag_106\n      swap2\n      swap1\n      tag_40\n      jump\t// in\n    tag_106:\n      swap1\n      dup2\n      mstore\n      0x20\n      add\n      mload(0x40)\n      dup1\n      swap2\n      sub\n      swap1\n      keccak256\n        /* \"contracts/PriceAlarmTracking/ArbitrageAlarmer/MultipleAssetArbitrageAlarm.sol\":2245:2268  assets[name].priceFeeds */\n      0x00\n      add\n        /* \"contracts/PriceAlarmTracking/ArbitrageAlarmer/MultipleAssetArbitrageAlarm.sol\":2245:2275  assets[name].priceFeeds.length */\n      dup1\n      sload\n      swap1\n      pop\n        /* \"contracts/PriceAlarmTracking/ArbitrageAlarmer/MultipleAssetArbitrageAlarm.sol\":2245:2279  assets[name].priceFeeds.length > 0 */\n      gt\n        /* \"contracts/PriceAlarmTracking/ArbitrageAlarmer/MultipleAssetArbitrageAlarm.sol\":2237:2299  require(assets[name].priceFeeds.length > 0, \"Asset not found\") */\n      tag_107\n      jumpi\n      mload(0x40)\n      0x08c379a000000000000000000000000000000000000000000000000000000000\n      dup2\n      mstore\n      0x04\n      add\n      tag_108\n      swap1\n      tag_62\n      jump\t// in\n    tag_108:\n      mload(0x40)\n      dup1\n      swap2\n      sub\n      swap1\n      revert\n    tag_107:\n        /* \"contracts/PriceAlarmTracking/ArbitrageAlarmer/MultipleAssetArbitrageAlarm.sol\":2338:2339  0 */\n      0x00\n        /* \"contracts/PriceAlarmTracking/ArbitrageAlarmer/MultipleAssetArbitrageAlarm.sol\":2317:2328  _priceFeeds */\n      dup2\n        /* \"contracts/PriceAlarmTracking/ArbitrageAlarmer/MultipleAssetArbitrageAlarm.sol\":2317:2335  _priceFeeds.length */\n      mload\n        /* \"contracts/PriceAlarmTracking/ArbitrageAlarmer/MultipleAssetArbitrageAlarm.sol\":2317:2339  _priceFeeds.length > 0 */\n      gt\n        /* \"contracts/PriceAlarmTracking/ArbitrageAlarmer/MultipleAssetArbitrageAlarm.sol\":2309:2376  require(_priceFeeds.length > 0, \"At least one price feed required\") */\n      tag_109\n      jumpi\n      mload(0x40)\n      0x08c379a000000000000000000000000000000000000000000000000000000000\n      dup2\n      mstore\n      0x04\n      add\n      tag_110\n      swap1\n      tag_38\n      jump\t// in\n    tag_110:\n      mload(0x40)\n      dup1\n      swap2\n      sub\n      swap1\n      revert\n    tag_109:\n        /* \"contracts/PriceAlarmTracking/ArbitrageAlarmer/MultipleAssetArbitrageAlarm.sol\":2391:2400  uint256 i */\n      0x00\n        /* \"contracts/PriceAlarmTracking/ArbitrageAlarmer/MultipleAssetArbitrageAlarm.sol\":2386:2526  for (uint256 i = 0; i < _priceFeeds.length; i++){... */\n    tag_111:\n        /* \"contracts/PriceAlarmTracking/ArbitrageAlarmer/MultipleAssetArbitrageAlarm.sol\":2410:2421  _priceFeeds */\n      dup2\n        /* \"contracts/PriceAlarmTracking/ArbitrageAlarmer/MultipleAssetArbitrageAlarm.sol\":2410:2428  _priceFeeds.length */\n      mload\n        /* \"contracts/PriceAlarmTracking/ArbitrageAlarmer/MultipleAssetArbitrageAlarm.sol\":2406:2407  i */\n      dup2\n        /* \"contracts/PriceAlarmTracking/ArbitrageAlarmer/MultipleAssetArbitrageAlarm.sol\":2406:2428  i < _priceFeeds.length */\n      lt\n        /* \"contracts/PriceAlarmTracking/ArbitrageAlarmer/MultipleAssetArbitrageAlarm.sol\":2386:2526  for (uint256 i = 0; i < _priceFeeds.length; i++){... */\n      iszero\n      tag_112\n      jumpi\n        /* \"contracts/PriceAlarmTracking/ArbitrageAlarmer/MultipleAssetArbitrageAlarm.sol\":2482:2483  0 */\n      0x00\n        /* \"contracts/PriceAlarmTracking/ArbitrageAlarmer/MultipleAssetArbitrageAlarm.sol\":2456:2484  _priceFeeds[i] != address(0) */\n      0xffffffffffffffffffffffffffffffffffffffff\n      and\n        /* \"contracts/PriceAlarmTracking/ArbitrageAlarmer/MultipleAssetArbitrageAlarm.sol\":2456:2467  _priceFeeds */\n      dup3\n        /* \"contracts/PriceAlarmTracking/ArbitrageAlarmer/MultipleAssetArbitrageAlarm.sol\":2468:2469  i */\n      dup3\n        /* \"contracts/PriceAlarmTracking/ArbitrageAlarmer/MultipleAssetArbitrageAlarm.sol\":2456:2470  _priceFeeds[i] */\n      dup2\n      mload\n      dup2\n      lt\n      tag_114\n      jumpi\n      tag_115\n      tag_49\n      jump\t// in\n    tag_115:\n    tag_114:\n      0x20\n      mul\n      0x20\n      add\n      add\n      mload\n        /* \"contracts/PriceAlarmTracking/ArbitrageAlarmer/MultipleAssetArbitrageAlarm.sol\":2456:2484  _priceFeeds[i] != address(0) */\n      0xffffffffffffffffffffffffffffffffffffffff\n      and\n      sub\n        /* \"contracts/PriceAlarmTracking/ArbitrageAlarmer/MultipleAssetArbitrageAlarm.sol\":2448:2515  require(_priceFeeds[i] != address(0), \"Invalid price feed address\") */\n      tag_116\n      jumpi\n      mload(0x40)\n      0x08c379a000000000000000000000000000000000000000000000000000000000\n      dup2\n      mstore\n      0x04\n      add\n      tag_117\n      swap1\n      tag_52\n      jump\t// in\n    tag_117:\n      mload(0x40)\n      dup1\n      swap2\n      sub\n      swap1\n      revert\n    tag_116:\n        /* \"contracts/PriceAlarmTracking/ArbitrageAlarmer/MultipleAssetArbitrageAlarm.sol\":2430:2433  i++ */\n      dup1\n      dup1\n      0x01\n      add\n      swap2\n      pop\n      pop\n        /* \"contracts/PriceAlarmTracking/ArbitrageAlarmer/MultipleAssetArbitrageAlarm.sol\":2386:2526  for (uint256 i = 0; i < _priceFeeds.length; i++){... */\n      jump(tag_111)\n    tag_112:\n      pop\n        /* \"contracts/PriceAlarmTracking/ArbitrageAlarmer/MultipleAssetArbitrageAlarm.sol\":2561:2572  _priceFeeds */\n      dup1\n        /* \"contracts/PriceAlarmTracking/ArbitrageAlarmer/MultipleAssetArbitrageAlarm.sol\":2535:2541  assets */\n      0x00\n        /* \"contracts/PriceAlarmTracking/ArbitrageAlarmer/MultipleAssetArbitrageAlarm.sol\":2542:2546  name */\n      dup4\n        /* \"contracts/PriceAlarmTracking/ArbitrageAlarmer/MultipleAssetArbitrageAlarm.sol\":2535:2547  assets[name] */\n      mload(0x40)\n      tag_118\n      swap2\n      swap1\n      tag_40\n      jump\t// in\n    tag_118:\n      swap1\n      dup2\n      mstore\n      0x20\n      add\n      mload(0x40)\n      dup1\n      swap2\n      sub\n      swap1\n      keccak256\n        /* \"contracts/PriceAlarmTracking/ArbitrageAlarmer/MultipleAssetArbitrageAlarm.sol\":2535:2558  assets[name].priceFeeds */\n      0x00\n      add\n        /* \"contracts/PriceAlarmTracking/ArbitrageAlarmer/MultipleAssetArbitrageAlarm.sol\":2535:2572  assets[name].priceFeeds = _priceFeeds */\n      swap1\n      dup1\n      mload\n      swap1\n      0x20\n      add\n      swap1\n      tag_119\n      swap3\n      swap2\n      swap1\n      tag_55\n      jump\t// in\n    tag_119:\n      pop\n        /* \"contracts/PriceAlarmTracking/ArbitrageAlarmer/MultipleAssetArbitrageAlarm.sol\":2626:2631  false */\n      0x00\n        /* \"contracts/PriceAlarmTracking/ArbitrageAlarmer/MultipleAssetArbitrageAlarm.sol\":2582:2588  assets */\n      dup1\n        /* \"contracts/PriceAlarmTracking/ArbitrageAlarmer/MultipleAssetArbitrageAlarm.sol\":2589:2593  name */\n      dup4\n        /* \"contracts/PriceAlarmTracking/ArbitrageAlarmer/MultipleAssetArbitrageAlarm.sol\":2582:2594  assets[name] */\n      mload(0x40)\n      tag_120\n      swap2\n      swap1\n      tag_40\n      jump\t// in\n    tag_120:\n      swap1\n      dup2\n      mstore\n      0x20\n      add\n      mload(0x40)\n      dup1\n      swap2\n      sub\n      swap1\n      keccak256\n        /* \"contracts/PriceAlarmTracking/ArbitrageAlarmer/MultipleAssetArbitrageAlarm.sol\":2582:2623  assets[name].arbitrageOpportunityDetected */\n      0x02\n      add\n      0x00\n        /* \"contracts/PriceAlarmTracking/ArbitrageAlarmer/MultipleAssetArbitrageAlarm.sol\":2582:2631  assets[name].arbitrageOpportunityDetected = false */\n      0x0100\n      exp\n      dup2\n      sload\n      dup2\n      0xff\n      mul\n      not\n      and\n      swap1\n      dup4\n      iszero\n      iszero\n      mul\n      or\n      swap1\n      sstore\n      pop\n        /* \"contracts/PriceAlarmTracking/ArbitrageAlarmer/MultipleAssetArbitrageAlarm.sol\":2646:2669  PriceFeedsUpdated(name) */\n      0xf19fcb24ade3773cba294ca5674168d2693a782deaf237f49ea20c37c9186410\n        /* \"contracts/PriceAlarmTracking/ArbitrageAlarmer/MultipleAssetArbitrageAlarm.sol\":2664:2668  name */\n      dup3\n        /* \"contracts/PriceAlarmTracking/ArbitrageAlarmer/MultipleAssetArbitrageAlarm.sol\":2646:2669  PriceFeedsUpdated(name) */\n      mload(0x40)\n      tag_121\n      swap2\n      swap1\n      tag_57\n      jump\t// in\n    tag_121:\n      mload(0x40)\n      dup1\n      swap2\n      sub\n      swap1\n      log1\n        /* \"contracts/PriceAlarmTracking/ArbitrageAlarmer/MultipleAssetArbitrageAlarm.sol\":2144:2676  function updatePriceFeeds(string memory name, address[] memory _priceFeeds) public {... */\n      pop\n      pop\n      jump\t// out\n    tag_55:\n      dup3\n      dup1\n      sload\n      dup3\n      dup3\n      sstore\n      swap1\n      0x00\n      mstore\n      keccak256(0x00, 0x20)\n      swap1\n      dup2\n      add\n      swap3\n      dup3\n      iszero\n      tag_122\n      jumpi\n      swap2\n      0x20\n      mul\n      dup3\n      add\n    tag_123:\n      dup3\n      dup2\n      gt\n      iszero\n      tag_124\n      jumpi\n      dup3\n      mload\n      dup3\n      exp(0x0100, 0x00)\n      dup2\n      sload\n      dup2\n      0xffffffffffffffffffffffffffffffffffffffff\n      mul\n      not\n      and\n      swap1\n      dup4\n      0xffffffffffffffffffffffffffffffffffffffff\n      and\n      mul\n      or\n      swap1\n      sstore\n      pop\n      swap2\n      0x20\n      add\n      swap2\n      swap1\n      0x01\n      add\n      swap1\n      jump(tag_123)\n    tag_124:\n    tag_122:\n      pop\n      swap1\n      pop\n      tag_125\n      swap2\n      swap1\n      tag_126\n      jump\t// in\n    tag_125:\n      pop\n      swap1\n      jump\t// out\n    tag_126:\n    tag_127:\n      dup1\n      dup3\n      gt\n      iszero\n      tag_128\n      jumpi\n      0x00\n      dup2\n      0x00\n      swap1\n      sstore\n      pop\n      0x01\n      add\n      jump(tag_127)\n    tag_128:\n      pop\n      swap1\n      jump\t// out\n        /* \"#utility.yul\":7:82   */\n    tag_129:\n        /* \"#utility.yul\":40:46   */\n      0x00\n        /* \"#utility.yul\":73:75   */\n      0x40\n        /* \"#utility.yul\":67:76   */\n      mload\n        /* \"#utility.yul\":57:76   */\n      swap1\n      pop\n        /* \"#utility.yul\":7:82   */\n      swap1\n      jump\t// out\n        /* \"#utility.yul\":88:205   */\n    tag_130:\n        /* \"#utility.yul\":197:198   */\n      0x00\n        /* \"#utility.yul\":194:195   */\n      dup1\n        /* \"#utility.yul\":187:199   */\n      revert\n        /* \"#utility.yul\":211:328   */\n    tag_131:\n        /* \"#utility.yul\":320:321   */\n      0x00\n        /* \"#utility.yul\":317:318   */\n      dup1\n        /* \"#utility.yul\":310:322   */\n      revert\n        /* \"#utility.yul\":334:451   */\n    tag_132:\n        /* \"#utility.yul\":443:444   */\n      0x00\n        /* \"#utility.yul\":440:441   */\n      dup1\n        /* \"#utility.yul\":433:445   */\n      revert\n        /* \"#utility.yul\":457:574   */\n    tag_133:\n        /* \"#utility.yul\":566:567   */\n      0x00\n        /* \"#utility.yul\":563:564   */\n      dup1\n        /* \"#utility.yul\":556:568   */\n      revert\n        /* \"#utility.yul\":580:682   */\n    tag_134:\n        /* \"#utility.yul\":621:627   */\n      0x00\n        /* \"#utility.yul\":672:674   */\n      0x1f\n        /* \"#utility.yul\":668:675   */\n      not\n        /* \"#utility.yul\":663:665   */\n      0x1f\n        /* \"#utility.yul\":656:661   */\n      dup4\n        /* \"#utility.yul\":652:666   */\n      add\n        /* \"#utility.yul\":648:676   */\n      and\n        /* \"#utility.yul\":638:676   */\n      swap1\n      pop\n        /* \"#utility.yul\":580:682   */\n      swap2\n      swap1\n      pop\n      jump\t// out\n        /* \"#utility.yul\":688:868   */\n    tag_86:\n        /* \"#utility.yul\":736:813   */\n      0x4e487b7100000000000000000000000000000000000000000000000000000000\n        /* \"#utility.yul\":733:734   */\n      0x00\n        /* \"#utility.yul\":726:814   */\n      mstore\n        /* \"#utility.yul\":833:837   */\n      0x41\n        /* \"#utility.yul\":830:831   */\n      0x04\n        /* \"#utility.yul\":823:838   */\n      mstore\n        /* \"#utility.yul\":857:861   */\n      0x24\n        /* \"#utility.yul\":854:855   */\n      0x00\n        /* \"#utility.yul\":847:862   */\n      revert\n        /* \"#utility.yul\":874:1155   */\n    tag_135:\n        /* \"#utility.yul\":957:984   */\n      tag_194\n        /* \"#utility.yul\":979:983   */\n      dup3\n        /* \"#utility.yul\":957:984   */\n      tag_134\n      jump\t// in\n    tag_194:\n        /* \"#utility.yul\":949:955   */\n      dup2\n        /* \"#utility.yul\":945:985   */\n      add\n        /* \"#utility.yul\":1087:1093   */\n      dup2\n        /* \"#utility.yul\":1075:1085   */\n      dup2\n        /* \"#utility.yul\":1072:1094   */\n      lt\n        /* \"#utility.yul\":1051:1069   */\n      0xffffffffffffffff\n        /* \"#utility.yul\":1039:1049   */\n      dup3\n        /* \"#utility.yul\":1036:1070   */\n      gt\n        /* \"#utility.yul\":1033:1095   */\n      or\n        /* \"#utility.yul\":1030:1118   */\n      iszero\n      tag_195\n      jumpi\n        /* \"#utility.yul\":1098:1116   */\n      tag_196\n      tag_86\n      jump\t// in\n    tag_196:\n        /* \"#utility.yul\":1030:1118   */\n    tag_195:\n        /* \"#utility.yul\":1138:1148   */\n      dup1\n        /* \"#utility.yul\":1134:1136   */\n      0x40\n        /* \"#utility.yul\":1127:1149   */\n      mstore\n        /* \"#utility.yul\":917:1155   */\n      pop\n        /* \"#utility.yul\":874:1155   */\n      pop\n      pop\n      jump\t// out\n        /* \"#utility.yul\":1161:1290   */\n    tag_136:\n        /* \"#utility.yul\":1195:1201   */\n      0x00\n        /* \"#utility.yul\":1222:1242   */\n      tag_198\n      tag_129\n      jump\t// in\n    tag_198:\n        /* \"#utility.yul\":1212:1242   */\n      swap1\n      pop\n        /* \"#utility.yul\":1251:1284   */\n      tag_199\n        /* \"#utility.yul\":1279:1283   */\n      dup3\n        /* \"#utility.yul\":1271:1277   */\n      dup3\n        /* \"#utility.yul\":1251:1284   */\n      tag_135\n      jump\t// in\n    tag_199:\n        /* \"#utility.yul\":1161:1290   */\n      swap2\n      swap1\n      pop\n      jump\t// out\n        /* \"#utility.yul\":1296:1604   */\n    tag_137:\n        /* \"#utility.yul\":1358:1362   */\n      0x00\n        /* \"#utility.yul\":1448:1466   */\n      0xffffffffffffffff\n        /* \"#utility.yul\":1440:1446   */\n      dup3\n        /* \"#utility.yul\":1437:1467   */\n      gt\n        /* \"#utility.yul\":1434:1490   */\n      iszero\n      tag_201\n      jumpi\n        /* \"#utility.yul\":1470:1488   */\n      tag_202\n      tag_86\n      jump\t// in\n    tag_202:\n        /* \"#utility.yul\":1434:1490   */\n    tag_201:\n        /* \"#utility.yul\":1508:1537   */\n      tag_203\n        /* \"#utility.yul\":1530:1536   */\n      dup3\n        /* \"#utility.yul\":1508:1537   */\n      tag_134\n      jump\t// in\n    tag_203:\n        /* \"#utility.yul\":1500:1537   */\n      swap1\n      pop\n        /* \"#utility.yul\":1592:1596   */\n      0x20\n        /* \"#utility.yul\":1586:1590   */\n      dup2\n        /* \"#utility.yul\":1582:1597   */\n      add\n        /* \"#utility.yul\":1574:1597   */\n      swap1\n      pop\n        /* \"#utility.yul\":1296:1604   */\n      swap2\n      swap1\n      pop\n      jump\t// out\n        /* \"#utility.yul\":1610:1758   */\n    tag_138:\n        /* \"#utility.yul\":1708:1714   */\n      dup3\n        /* \"#utility.yul\":1703:1706   */\n      dup2\n        /* \"#utility.yul\":1698:1701   */\n      dup4\n        /* \"#utility.yul\":1685:1715   */\n      calldatacopy\n        /* \"#utility.yul\":1749:1750   */\n      0x00\n        /* \"#utility.yul\":1740:1746   */\n      dup4\n        /* \"#utility.yul\":1735:1738   */\n      dup4\n        /* \"#utility.yul\":1731:1747   */\n      add\n        /* \"#utility.yul\":1724:1751   */\n      mstore\n        /* \"#utility.yul\":1610:1758   */\n      pop\n      pop\n      pop\n      jump\t// out\n        /* \"#utility.yul\":1764:2189   */\n    tag_139:\n        /* \"#utility.yul\":1842:1847   */\n      0x00\n        /* \"#utility.yul\":1867:1933   */\n      tag_206\n        /* \"#utility.yul\":1883:1932   */\n      tag_207\n        /* \"#utility.yul\":1925:1931   */\n      dup5\n        /* \"#utility.yul\":1883:1932   */\n      tag_137\n      jump\t// in\n    tag_207:\n        /* \"#utility.yul\":1867:1933   */\n      tag_136\n      jump\t// in\n    tag_206:\n        /* \"#utility.yul\":1858:1933   */\n      swap1\n      pop\n        /* \"#utility.yul\":1956:1962   */\n      dup3\n        /* \"#utility.yul\":1949:1954   */\n      dup2\n        /* \"#utility.yul\":1942:1963   */\n      mstore\n        /* \"#utility.yul\":1994:1998   */\n      0x20\n        /* \"#utility.yul\":1987:1992   */\n      dup2\n        /* \"#utility.yul\":1983:1999   */\n      add\n        /* \"#utility.yul\":2032:2035   */\n      dup5\n        /* \"#utility.yul\":2023:2029   */\n      dup5\n        /* \"#utility.yul\":2018:2021   */\n      dup5\n        /* \"#utility.yul\":2014:2030   */\n      add\n        /* \"#utility.yul\":2011:2036   */\n      gt\n        /* \"#utility.yul\":2008:2120   */\n      iszero\n      tag_208\n      jumpi\n        /* \"#utility.yul\":2039:2118   */\n      tag_209\n      tag_133\n      jump\t// in\n    tag_209:\n        /* \"#utility.yul\":2008:2120   */\n    tag_208:\n        /* \"#utility.yul\":2129:2183   */\n      tag_210\n        /* \"#utility.yul\":2176:2182   */\n      dup5\n        /* \"#utility.yul\":2171:2174   */\n      dup3\n        /* \"#utility.yul\":2166:2169   */\n      dup6\n        /* \"#utility.yul\":2129:2183   */\n      tag_138\n      jump\t// in\n    tag_210:\n        /* \"#utility.yul\":1848:2189   */\n      pop\n        /* \"#utility.yul\":1764:2189   */\n      swap4\n      swap3\n      pop\n      pop\n      pop\n      jump\t// out\n        /* \"#utility.yul\":2209:2549   */\n    tag_140:\n        /* \"#utility.yul\":2265:2270   */\n      0x00\n        /* \"#utility.yul\":2314:2317   */\n      dup3\n        /* \"#utility.yul\":2307:2311   */\n      0x1f\n        /* \"#utility.yul\":2299:2305   */\n      dup4\n        /* \"#utility.yul\":2295:2312   */\n      add\n        /* \"#utility.yul\":2291:2318   */\n      slt\n        /* \"#utility.yul\":2281:2403   */\n      tag_212\n      jumpi\n        /* \"#utility.yul\":2322:2401   */\n      tag_213\n      tag_132\n      jump\t// in\n    tag_213:\n        /* \"#utility.yul\":2281:2403   */\n    tag_212:\n        /* \"#utility.yul\":2439:2445   */\n      dup2\n        /* \"#utility.yul\":2426:2446   */\n      calldataload\n        /* \"#utility.yul\":2464:2543   */\n      tag_214\n        /* \"#utility.yul\":2539:2542   */\n      dup5\n        /* \"#utility.yul\":2531:2537   */\n      dup3\n        /* \"#utility.yul\":2524:2528   */\n      0x20\n        /* \"#utility.yul\":2516:2522   */\n      dup7\n        /* \"#utility.yul\":2512:2529   */\n      add\n        /* \"#utility.yul\":2464:2543   */\n      tag_139\n      jump\t// in\n    tag_214:\n        /* \"#utility.yul\":2455:2543   */\n      swap2\n      pop\n        /* \"#utility.yul\":2271:2549   */\n      pop\n        /* \"#utility.yul\":2209:2549   */\n      swap3\n      swap2\n      pop\n      pop\n      jump\t// out\n        /* \"#utility.yul\":2555:2866   */\n    tag_141:\n        /* \"#utility.yul\":2632:2636   */\n      0x00\n        /* \"#utility.yul\":2722:2740   */\n      0xffffffffffffffff\n        /* \"#utility.yul\":2714:2720   */\n      dup3\n        /* \"#utility.yul\":2711:2741   */\n      gt\n        /* \"#utility.yul\":2708:2764   */\n      iszero\n      tag_216\n      jumpi\n        /* \"#utility.yul\":2744:2762   */\n      tag_217\n      tag_86\n      jump\t// in\n    tag_217:\n        /* \"#utility.yul\":2708:2764   */\n    tag_216:\n        /* \"#utility.yul\":2794:2798   */\n      0x20\n        /* \"#utility.yul\":2786:2792   */\n      dup3\n        /* \"#utility.yul\":2782:2799   */\n      mul\n        /* \"#utility.yul\":2774:2799   */\n      swap1\n      pop\n        /* \"#utility.yul\":2854:2858   */\n      0x20\n        /* \"#utility.yul\":2848:2852   */\n      dup2\n        /* \"#utility.yul\":2844:2859   */\n      add\n        /* \"#utility.yul\":2836:2859   */\n      swap1\n      pop\n        /* \"#utility.yul\":2555:2866   */\n      swap2\n      swap1\n      pop\n      jump\t// out\n        /* \"#utility.yul\":2872:2989   */\n    tag_142:\n        /* \"#utility.yul\":2981:2982   */\n      0x00\n        /* \"#utility.yul\":2978:2979   */\n      dup1\n        /* \"#utility.yul\":2971:2983   */\n      revert\n        /* \"#utility.yul\":2995:3121   */\n    tag_143:\n        /* \"#utility.yul\":3032:3039   */\n      0x00\n        /* \"#utility.yul\":3072:3114   */\n      0xffffffffffffffffffffffffffffffffffffffff\n        /* \"#utility.yul\":3065:3070   */\n      dup3\n        /* \"#utility.yul\":3061:3115   */\n      and\n        /* \"#utility.yul\":3050:3115   */\n      swap1\n      pop\n        /* \"#utility.yul\":2995:3121   */\n      swap2\n      swap1\n      pop\n      jump\t// out\n        /* \"#utility.yul\":3127:3223   */\n    tag_144:\n        /* \"#utility.yul\":3164:3171   */\n      0x00\n        /* \"#utility.yul\":3193:3217   */\n      tag_221\n        /* \"#utility.yul\":3211:3216   */\n      dup3\n        /* \"#utility.yul\":3193:3217   */\n      tag_143\n      jump\t// in\n    tag_221:\n        /* \"#utility.yul\":3182:3217   */\n      swap1\n      pop\n        /* \"#utility.yul\":3127:3223   */\n      swap2\n      swap1\n      pop\n      jump\t// out\n        /* \"#utility.yul\":3229:3351   */\n    tag_145:\n        /* \"#utility.yul\":3302:3326   */\n      tag_223\n        /* \"#utility.yul\":3320:3325   */\n      dup2\n        /* \"#utility.yul\":3302:3326   */\n      tag_144\n      jump\t// in\n    tag_223:\n        /* \"#utility.yul\":3295:3300   */\n      dup2\n        /* \"#utility.yul\":3292:3327   */\n      eq\n        /* \"#utility.yul\":3282:3345   */\n      tag_224\n      jumpi\n        /* \"#utility.yul\":3341:3342   */\n      0x00\n        /* \"#utility.yul\":3338:3339   */\n      dup1\n        /* \"#utility.yul\":3331:3343   */\n      revert\n        /* \"#utility.yul\":3282:3345   */\n    tag_224:\n        /* \"#utility.yul\":3229:3351   */\n      pop\n      jump\t// out\n        /* \"#utility.yul\":3357:3496   */\n    tag_146:\n        /* \"#utility.yul\":3403:3408   */\n      0x00\n        /* \"#utility.yul\":3441:3447   */\n      dup2\n        /* \"#utility.yul\":3428:3448   */\n      calldataload\n        /* \"#utility.yul\":3419:3448   */\n      swap1\n      pop\n        /* \"#utility.yul\":3457:3490   */\n      tag_226\n        /* \"#utility.yul\":3484:3489   */\n      dup2\n        /* \"#utility.yul\":3457:3490   */\n      tag_145\n      jump\t// in\n    tag_226:\n        /* \"#utility.yul\":3357:3496   */\n      swap3\n      swap2\n      pop\n      pop\n      jump\t// out\n        /* \"#utility.yul\":3519:4229   */\n    tag_147:\n        /* \"#utility.yul\":3615:3620   */\n      0x00\n        /* \"#utility.yul\":3640:3721   */\n      tag_228\n        /* \"#utility.yul\":3656:3720   */\n      tag_229\n        /* \"#utility.yul\":3713:3719   */\n      dup5\n        /* \"#utility.yul\":3656:3720   */\n      tag_141\n      jump\t// in\n    tag_229:\n        /* \"#utility.yul\":3640:3721   */\n      tag_136\n      jump\t// in\n    tag_228:\n        /* \"#utility.yul\":3631:3721   */\n      swap1\n      pop\n        /* \"#utility.yul\":3741:3746   */\n      dup1\n        /* \"#utility.yul\":3770:3776   */\n      dup4\n        /* \"#utility.yul\":3763:3768   */\n      dup3\n        /* \"#utility.yul\":3756:3777   */\n      mstore\n        /* \"#utility.yul\":3804:3808   */\n      0x20\n        /* \"#utility.yul\":3797:3802   */\n      dup3\n        /* \"#utility.yul\":3793:3809   */\n      add\n        /* \"#utility.yul\":3786:3809   */\n      swap1\n      pop\n        /* \"#utility.yul\":3857:3861   */\n      0x20\n        /* \"#utility.yul\":3849:3855   */\n      dup5\n        /* \"#utility.yul\":3845:3862   */\n      mul\n        /* \"#utility.yul\":3837:3843   */\n      dup4\n        /* \"#utility.yul\":3833:3863   */\n      add\n        /* \"#utility.yul\":3886:3889   */\n      dup6\n        /* \"#utility.yul\":3878:3884   */\n      dup2\n        /* \"#utility.yul\":3875:3890   */\n      gt\n        /* \"#utility.yul\":3872:3994   */\n      iszero\n      tag_230\n      jumpi\n        /* \"#utility.yul\":3905:3984   */\n      tag_231\n      tag_142\n      jump\t// in\n    tag_231:\n        /* \"#utility.yul\":3872:3994   */\n    tag_230:\n        /* \"#utility.yul\":4020:4026   */\n      dup4\n        /* \"#utility.yul\":4003:4223   */\n    tag_232:\n        /* \"#utility.yul\":4037:4043   */\n      dup2\n        /* \"#utility.yul\":4032:4035   */\n      dup2\n        /* \"#utility.yul\":4029:4044   */\n      lt\n        /* \"#utility.yul\":4003:4223   */\n      iszero\n      tag_234\n      jumpi\n        /* \"#utility.yul\":4112:4115   */\n      dup1\n        /* \"#utility.yul\":4141:4178   */\n      tag_235\n        /* \"#utility.yul\":4174:4177   */\n      dup9\n        /* \"#utility.yul\":4162:4172   */\n      dup3\n        /* \"#utility.yul\":4141:4178   */\n      tag_146\n      jump\t// in\n    tag_235:\n        /* \"#utility.yul\":4136:4139   */\n      dup5\n        /* \"#utility.yul\":4129:4179   */\n      mstore\n        /* \"#utility.yul\":4208:4212   */\n      0x20\n        /* \"#utility.yul\":4203:4206   */\n      dup5\n        /* \"#utility.yul\":4199:4213   */\n      add\n        /* \"#utility.yul\":4192:4213   */\n      swap4\n      pop\n        /* \"#utility.yul\":4079:4223   */\n      pop\n        /* \"#utility.yul\":4063:4067   */\n      0x20\n        /* \"#utility.yul\":4058:4061   */\n      dup2\n        /* \"#utility.yul\":4054:4068   */\n      add\n        /* \"#utility.yul\":4047:4068   */\n      swap1\n      pop\n        /* \"#utility.yul\":4003:4223   */\n      jump(tag_232)\n    tag_234:\n        /* \"#utility.yul\":4007:4028   */\n      pop\n        /* \"#utility.yul\":3621:4229   */\n      pop\n      pop\n        /* \"#utility.yul\":3519:4229   */\n      swap4\n      swap3\n      pop\n      pop\n      pop\n      jump\t// out\n        /* \"#utility.yul\":4252:4622   */\n    tag_148:\n        /* \"#utility.yul\":4323:4328   */\n      0x00\n        /* \"#utility.yul\":4372:4375   */\n      dup3\n        /* \"#utility.yul\":4365:4369   */\n      0x1f\n        /* \"#utility.yul\":4357:4363   */\n      dup4\n        /* \"#utility.yul\":4353:4370   */\n      add\n        /* \"#utility.yul\":4349:4376   */\n      slt\n        /* \"#utility.yul\":4339:4461   */\n      tag_237\n      jumpi\n        /* \"#utility.yul\":4380:4459   */\n      tag_238\n      tag_132\n      jump\t// in\n    tag_238:\n        /* \"#utility.yul\":4339:4461   */\n    tag_237:\n        /* \"#utility.yul\":4497:4503   */\n      dup2\n        /* \"#utility.yul\":4484:4504   */\n      calldataload\n        /* \"#utility.yul\":4522:4616   */\n      tag_239\n        /* \"#utility.yul\":4612:4615   */\n      dup5\n        /* \"#utility.yul\":4604:4610   */\n      dup3\n        /* \"#utility.yul\":4597:4601   */\n      0x20\n        /* \"#utility.yul\":4589:4595   */\n      dup7\n        /* \"#utility.yul\":4585:4602   */\n      add\n        /* \"#utility.yul\":4522:4616   */\n      tag_147\n      jump\t// in\n    tag_239:\n        /* \"#utility.yul\":4513:4616   */\n      swap2\n      pop\n        /* \"#utility.yul\":4329:4622   */\n      pop\n        /* \"#utility.yul\":4252:4622   */\n      swap3\n      swap2\n      pop\n      pop\n      jump\t// out\n        /* \"#utility.yul\":4628:4704   */\n    tag_149:\n        /* \"#utility.yul\":4664:4671   */\n      0x00\n        /* \"#utility.yul\":4693:4698   */\n      dup2\n        /* \"#utility.yul\":4682:4698   */\n      swap1\n      pop\n        /* \"#utility.yul\":4628:4704   */\n      swap2\n      swap1\n      pop\n      jump\t// out\n        /* \"#utility.yul\":4710:4830   */\n    tag_150:\n        /* \"#utility.yul\":4782:4805   */\n      tag_242\n        /* \"#utility.yul\":4799:4804   */\n      dup2\n        /* \"#utility.yul\":4782:4805   */\n      tag_149\n      jump\t// in\n    tag_242:\n        /* \"#utility.yul\":4775:4780   */\n      dup2\n        /* \"#utility.yul\":4772:4806   */\n      eq\n        /* \"#utility.yul\":4762:4824   */\n      tag_243\n      jumpi\n        /* \"#utility.yul\":4820:4821   */\n      0x00\n        /* \"#utility.yul\":4817:4818   */\n      dup1\n        /* \"#utility.yul\":4810:4822   */\n      revert\n        /* \"#utility.yul\":4762:4824   */\n    tag_243:\n        /* \"#utility.yul\":4710:4830   */\n      pop\n      jump\t// out\n        /* \"#utility.yul\":4836:4973   */\n    tag_151:\n        /* \"#utility.yul\":4881:4886   */\n      0x00\n        /* \"#utility.yul\":4919:4925   */\n      dup2\n        /* \"#utility.yul\":4906:4926   */\n      calldataload\n        /* \"#utility.yul\":4897:4926   */\n      swap1\n      pop\n        /* \"#utility.yul\":4935:4967   */\n      tag_245\n        /* \"#utility.yul\":4961:4966   */\n      dup2\n        /* \"#utility.yul\":4935:4967   */\n      tag_150\n      jump\t// in\n    tag_245:\n        /* \"#utility.yul\":4836:4973   */\n      swap3\n      swap2\n      pop\n      pop\n      jump\t// out\n        /* \"#utility.yul\":4979:5986   */\n    tag_11:\n        /* \"#utility.yul\":5090:5096   */\n      0x00\n        /* \"#utility.yul\":5098:5104   */\n      dup1\n        /* \"#utility.yul\":5106:5112   */\n      0x00\n        /* \"#utility.yul\":5155:5157   */\n      0x60\n        /* \"#utility.yul\":5143:5152   */\n      dup5\n        /* \"#utility.yul\":5134:5141   */\n      dup7\n        /* \"#utility.yul\":5130:5153   */\n      sub\n        /* \"#utility.yul\":5126:5158   */\n      slt\n        /* \"#utility.yul\":5123:5242   */\n      iszero\n      tag_247\n      jumpi\n        /* \"#utility.yul\":5161:5240   */\n      tag_248\n      tag_130\n      jump\t// in\n    tag_248:\n        /* \"#utility.yul\":5123:5242   */\n    tag_247:\n        /* \"#utility.yul\":5309:5310   */\n      0x00\n        /* \"#utility.yul\":5298:5307   */\n      dup5\n        /* \"#utility.yul\":5294:5311   */\n      add\n        /* \"#utility.yul\":5281:5312   */\n      calldataload\n        /* \"#utility.yul\":5339:5357   */\n      0xffffffffffffffff\n        /* \"#utility.yul\":5331:5337   */\n      dup2\n        /* \"#utility.yul\":5328:5358   */\n      gt\n        /* \"#utility.yul\":5325:5442   */\n      iszero\n      tag_249\n      jumpi\n        /* \"#utility.yul\":5361:5440   */\n      tag_250\n      tag_131\n      jump\t// in\n    tag_250:\n        /* \"#utility.yul\":5325:5442   */\n    tag_249:\n        /* \"#utility.yul\":5466:5529   */\n      tag_251\n        /* \"#utility.yul\":5521:5528   */\n      dup7\n        /* \"#utility.yul\":5512:5518   */\n      dup3\n        /* \"#utility.yul\":5501:5510   */\n      dup8\n        /* \"#utility.yul\":5497:5519   */\n      add\n        /* \"#utility.yul\":5466:5529   */\n      tag_140\n      jump\t// in\n    tag_251:\n        /* \"#utility.yul\":5456:5529   */\n      swap4\n      pop\n        /* \"#utility.yul\":5252:5539   */\n      pop\n        /* \"#utility.yul\":5606:5608   */\n      0x20\n        /* \"#utility.yul\":5595:5604   */\n      dup5\n        /* \"#utility.yul\":5591:5609   */\n      add\n        /* \"#utility.yul\":5578:5610   */\n      calldataload\n        /* \"#utility.yul\":5637:5655   */\n      0xffffffffffffffff\n        /* \"#utility.yul\":5629:5635   */\n      dup2\n        /* \"#utility.yul\":5626:5656   */\n      gt\n        /* \"#utility.yul\":5623:5740   */\n      iszero\n      tag_252\n      jumpi\n        /* \"#utility.yul\":5659:5738   */\n      tag_253\n      tag_131\n      jump\t// in\n    tag_253:\n        /* \"#utility.yul\":5623:5740   */\n    tag_252:\n        /* \"#utility.yul\":5764:5842   */\n      tag_254\n        /* \"#utility.yul\":5834:5841   */\n      dup7\n        /* \"#utility.yul\":5825:5831   */\n      dup3\n        /* \"#utility.yul\":5814:5823   */\n      dup8\n        /* \"#utility.yul\":5810:5832   */\n      add\n        /* \"#utility.yul\":5764:5842   */\n      tag_148\n      jump\t// in\n    tag_254:\n        /* \"#utility.yul\":5754:5842   */\n      swap3\n      pop\n        /* \"#utility.yul\":5549:5852   */\n      pop\n        /* \"#utility.yul\":5891:5893   */\n      0x40\n        /* \"#utility.yul\":5917:5969   */\n      tag_255\n        /* \"#utility.yul\":5961:5968   */\n      dup7\n        /* \"#utility.yul\":5952:5958   */\n      dup3\n        /* \"#utility.yul\":5941:5950   */\n      dup8\n        /* \"#utility.yul\":5937:5959   */\n      add\n        /* \"#utility.yul\":5917:5969   */\n      tag_151\n      jump\t// in\n    tag_255:\n        /* \"#utility.yul\":5907:5969   */\n      swap2\n      pop\n        /* \"#utility.yul\":5862:5979   */\n      pop\n        /* \"#utility.yul\":4979:5986   */\n      swap3\n      pop\n      swap3\n      pop\n      swap3\n      jump\t// out\n        /* \"#utility.yul\":5992:6501   */\n    tag_15:\n        /* \"#utility.yul\":6061:6067   */\n      0x00\n        /* \"#utility.yul\":6110:6112   */\n      0x20\n        /* \"#utility.yul\":6098:6107   */\n      dup3\n        /* \"#utility.yul\":6089:6096   */\n      dup5\n        /* \"#utility.yul\":6085:6108   */\n      sub\n        /* \"#utility.yul\":6081:6113   */\n      slt\n        /* \"#utility.yul\":6078:6197   */\n      iszero\n      tag_257\n      jumpi\n        /* \"#utility.yul\":6116:6195   */\n      tag_258\n      tag_130\n      jump\t// in\n    tag_258:\n        /* \"#utility.yul\":6078:6197   */\n    tag_257:\n        /* \"#utility.yul\":6264:6265   */\n      0x00\n        /* \"#utility.yul\":6253:6262   */\n      dup3\n        /* \"#utility.yul\":6249:6266   */\n      add\n        /* \"#utility.yul\":6236:6267   */\n      calldataload\n        /* \"#utility.yul\":6294:6312   */\n      0xffffffffffffffff\n        /* \"#utility.yul\":6286:6292   */\n      dup2\n        /* \"#utility.yul\":6283:6313   */\n      gt\n        /* \"#utility.yul\":6280:6397   */\n      iszero\n      tag_259\n      jumpi\n        /* \"#utility.yul\":6316:6395   */\n      tag_260\n      tag_131\n      jump\t// in\n    tag_260:\n        /* \"#utility.yul\":6280:6397   */\n    tag_259:\n        /* \"#utility.yul\":6421:6484   */\n      tag_261\n        /* \"#utility.yul\":6476:6483   */\n      dup5\n        /* \"#utility.yul\":6467:6473   */\n      dup3\n        /* \"#utility.yul\":6456:6465   */\n      dup6\n        /* \"#utility.yul\":6452:6474   */\n      add\n        /* \"#utility.yul\":6421:6484   */\n      tag_140\n      jump\t// in\n    tag_261:\n        /* \"#utility.yul\":6411:6484   */\n      swap2\n      pop\n        /* \"#utility.yul\":6207:6494   */\n      pop\n        /* \"#utility.yul\":5992:6501   */\n      swap3\n      swap2\n      pop\n      pop\n      jump\t// out\n        /* \"#utility.yul\":6507:6620   */\n    tag_152:\n        /* \"#utility.yul\":6573:6579   */\n      0x00\n        /* \"#utility.yul\":6607:6612   */\n      dup2\n        /* \"#utility.yul\":6601:6613   */\n      mload\n        /* \"#utility.yul\":6591:6613   */\n      swap1\n      pop\n        /* \"#utility.yul\":6507:6620   */\n      swap2\n      swap1\n      pop\n      jump\t// out\n        /* \"#utility.yul\":6626:6809   */\n    tag_153:\n        /* \"#utility.yul\":6724:6735   */\n      0x00\n        /* \"#utility.yul\":6758:6764   */\n      dup3\n        /* \"#utility.yul\":6753:6756   */\n      dup3\n        /* \"#utility.yul\":6746:6765   */\n      mstore\n        /* \"#utility.yul\":6798:6802   */\n      0x20\n        /* \"#utility.yul\":6793:6796   */\n      dup3\n        /* \"#utility.yul\":6789:6803   */\n      add\n        /* \"#utility.yul\":6774:6803   */\n      swap1\n      pop\n        /* \"#utility.yul\":6626:6809   */\n      swap3\n      swap2\n      pop\n      pop\n      jump\t// out\n        /* \"#utility.yul\":6815:6946   */\n    tag_154:\n        /* \"#utility.yul\":6881:6885   */\n      0x00\n        /* \"#utility.yul\":6904:6907   */\n      dup2\n        /* \"#utility.yul\":6896:6907   */\n      swap1\n      pop\n        /* \"#utility.yul\":6934:6938   */\n      0x20\n        /* \"#utility.yul\":6929:6932   */\n      dup3\n        /* \"#utility.yul\":6925:6939   */\n      add\n        /* \"#utility.yul\":6917:6939   */\n      swap1\n      pop\n        /* \"#utility.yul\":6815:6946   */\n      swap2\n      swap1\n      pop\n      jump\t// out\n        /* \"#utility.yul\":6952:7057   */\n    tag_155:\n        /* \"#utility.yul\":7027:7050   */\n      tag_266\n        /* \"#utility.yul\":7044:7049   */\n      dup2\n        /* \"#utility.yul\":7027:7050   */\n      tag_149\n      jump\t// in\n    tag_266:\n        /* \"#utility.yul\":7022:7025   */\n      dup3\n        /* \"#utility.yul\":7015:7051   */\n      mstore\n        /* \"#utility.yul\":6952:7057   */\n      pop\n      pop\n      jump\t// out\n        /* \"#utility.yul\":7063:7238   */\n    tag_156:\n        /* \"#utility.yul\":7130:7140   */\n      0x00\n        /* \"#utility.yul\":7151:7195   */\n      tag_268\n        /* \"#utility.yul\":7191:7194   */\n      dup4\n        /* \"#utility.yul\":7183:7189   */\n      dup4\n        /* \"#utility.yul\":7151:7195   */\n      tag_155\n      jump\t// in\n    tag_268:\n        /* \"#utility.yul\":7227:7231   */\n      0x20\n        /* \"#utility.yul\":7222:7225   */\n      dup4\n        /* \"#utility.yul\":7218:7232   */\n      add\n        /* \"#utility.yul\":7204:7232   */\n      swap1\n      pop\n        /* \"#utility.yul\":7063:7238   */\n      swap3\n      swap2\n      pop\n      pop\n      jump\t// out\n        /* \"#utility.yul\":7244:7356   */\n    tag_157:\n        /* \"#utility.yul\":7313:7317   */\n      0x00\n        /* \"#utility.yul\":7345:7349   */\n      0x20\n        /* \"#utility.yul\":7340:7343   */\n      dup3\n        /* \"#utility.yul\":7336:7350   */\n      add\n        /* \"#utility.yul\":7328:7350   */\n      swap1\n      pop\n        /* \"#utility.yul\":7244:7356   */\n      swap2\n      swap1\n      pop\n      jump\t// out\n        /* \"#utility.yul\":7390:8114   */\n    tag_158:\n        /* \"#utility.yul\":7507:7510   */\n      0x00\n        /* \"#utility.yul\":7536:7589   */\n      tag_271\n        /* \"#utility.yul\":7583:7588   */\n      dup3\n        /* \"#utility.yul\":7536:7589   */\n      tag_152\n      jump\t// in\n    tag_271:\n        /* \"#utility.yul\":7605:7690   */\n      tag_272\n        /* \"#utility.yul\":7683:7689   */\n      dup2\n        /* \"#utility.yul\":7678:7681   */\n      dup6\n        /* \"#utility.yul\":7605:7690   */\n      tag_153\n      jump\t// in\n    tag_272:\n        /* \"#utility.yul\":7598:7690   */\n      swap4\n      pop\n        /* \"#utility.yul\":7714:7769   */\n      tag_273\n        /* \"#utility.yul\":7763:7768   */\n      dup4\n        /* \"#utility.yul\":7714:7769   */\n      tag_154\n      jump\t// in\n    tag_273:\n        /* \"#utility.yul\":7792:7799   */\n      dup1\n        /* \"#utility.yul\":7823:7824   */\n      0x00\n        /* \"#utility.yul\":7808:8089   */\n    tag_274:\n        /* \"#utility.yul\":7833:7839   */\n      dup4\n        /* \"#utility.yul\":7830:7831   */\n      dup2\n        /* \"#utility.yul\":7827:7840   */\n      lt\n        /* \"#utility.yul\":7808:8089   */\n      iszero\n      tag_276\n      jumpi\n        /* \"#utility.yul\":7909:7915   */\n      dup2\n        /* \"#utility.yul\":7903:7916   */\n      mload\n        /* \"#utility.yul\":7936:7997   */\n      tag_277\n        /* \"#utility.yul\":7993:7996   */\n      dup9\n        /* \"#utility.yul\":7978:7991   */\n      dup3\n        /* \"#utility.yul\":7936:7997   */\n      tag_156\n      jump\t// in\n    tag_277:\n        /* \"#utility.yul\":7929:7997   */\n      swap8\n      pop\n        /* \"#utility.yul\":8020:8079   */\n      tag_278\n        /* \"#utility.yul\":8072:8078   */\n      dup4\n        /* \"#utility.yul\":8020:8079   */\n      tag_157\n      jump\t// in\n    tag_278:\n        /* \"#utility.yul\":8010:8079   */\n      swap3\n      pop\n        /* \"#utility.yul\":7868:8089   */\n      pop\n        /* \"#utility.yul\":7855:7856   */\n      0x01\n        /* \"#utility.yul\":7852:7853   */\n      dup2\n        /* \"#utility.yul\":7848:7857   */\n      add\n        /* \"#utility.yul\":7843:7857   */\n      swap1\n      pop\n        /* \"#utility.yul\":7808:8089   */\n      jump(tag_274)\n    tag_276:\n        /* \"#utility.yul\":7812:7826   */\n      pop\n        /* \"#utility.yul\":8105:8108   */\n      dup6\n        /* \"#utility.yul\":8098:8108   */\n      swap4\n      pop\n        /* \"#utility.yul\":7512:8114   */\n      pop\n      pop\n      pop\n        /* \"#utility.yul\":7390:8114   */\n      swap3\n      swap2\n      pop\n      pop\n      jump\t// out\n        /* \"#utility.yul\":8120:8489   */\n    tag_21:\n        /* \"#utility.yul\":8261:8265   */\n      0x00\n        /* \"#utility.yul\":8299:8301   */\n      0x20\n        /* \"#utility.yul\":8288:8297   */\n      dup3\n        /* \"#utility.yul\":8284:8302   */\n      add\n        /* \"#utility.yul\":8276:8302   */\n      swap1\n      pop\n        /* \"#utility.yul\":8348:8357   */\n      dup2\n        /* \"#utility.yul\":8342:8346   */\n      dup2\n        /* \"#utility.yul\":8338:8358   */\n      sub\n        /* \"#utility.yul\":8334:8335   */\n      0x00\n        /* \"#utility.yul\":8323:8332   */\n      dup4\n        /* \"#utility.yul\":8319:8336   */\n      add\n        /* \"#utility.yul\":8312:8359   */\n      mstore\n        /* \"#utility.yul\":8376:8482   */\n      tag_280\n        /* \"#utility.yul\":8477:8481   */\n      dup2\n        /* \"#utility.yul\":8468:8474   */\n      dup5\n        /* \"#utility.yul\":8376:8482   */\n      tag_158\n      jump\t// in\n    tag_280:\n        /* \"#utility.yul\":8368:8482   */\n      swap1\n      pop\n        /* \"#utility.yul\":8120:8489   */\n      swap3\n      swap2\n      pop\n      pop\n      jump\t// out\n        /* \"#utility.yul\":8495:9147   */\n    tag_24:\n        /* \"#utility.yul\":8572:8578   */\n      0x00\n        /* \"#utility.yul\":8580:8586   */\n      dup1\n        /* \"#utility.yul\":8629:8631   */\n      0x40\n        /* \"#utility.yul\":8617:8626   */\n      dup4\n        /* \"#utility.yul\":8608:8615   */\n      dup6\n        /* \"#utility.yul\":8604:8627   */\n      sub\n        /* \"#utility.yul\":8600:8632   */\n      slt\n        /* \"#utility.yul\":8597:8716   */\n      iszero\n      tag_282\n      jumpi\n        /* \"#utility.yul\":8635:8714   */\n      tag_283\n      tag_130\n      jump\t// in\n    tag_283:\n        /* \"#utility.yul\":8597:8716   */\n    tag_282:\n        /* \"#utility.yul\":8783:8784   */\n      0x00\n        /* \"#utility.yul\":8772:8781   */\n      dup4\n        /* \"#utility.yul\":8768:8785   */\n      add\n        /* \"#utility.yul\":8755:8786   */\n      calldataload\n        /* \"#utility.yul\":8813:8831   */\n      0xffffffffffffffff\n        /* \"#utility.yul\":8805:8811   */\n      dup2\n        /* \"#utility.yul\":8802:8832   */\n      gt\n        /* \"#utility.yul\":8799:8916   */\n      iszero\n      tag_284\n      jumpi\n        /* \"#utility.yul\":8835:8914   */\n      tag_285\n      tag_131\n      jump\t// in\n    tag_285:\n        /* \"#utility.yul\":8799:8916   */\n    tag_284:\n        /* \"#utility.yul\":8940:9003   */\n      tag_286\n        /* \"#utility.yul\":8995:9002   */\n      dup6\n        /* \"#utility.yul\":8986:8992   */\n      dup3\n        /* \"#utility.yul\":8975:8984   */\n      dup7\n        /* \"#utility.yul\":8971:8993   */\n      add\n        /* \"#utility.yul\":8940:9003   */\n      tag_140\n      jump\t// in\n    tag_286:\n        /* \"#utility.yul\":8930:9003   */\n      swap3\n      pop\n        /* \"#utility.yul\":8726:9013   */\n      pop\n        /* \"#utility.yul\":9052:9054   */\n      0x20\n        /* \"#utility.yul\":9078:9130   */\n      tag_287\n        /* \"#utility.yul\":9122:9129   */\n      dup6\n        /* \"#utility.yul\":9113:9119   */\n      dup3\n        /* \"#utility.yul\":9102:9111   */\n      dup7\n        /* \"#utility.yul\":9098:9120   */\n      add\n        /* \"#utility.yul\":9078:9130   */\n      tag_151\n      jump\t// in\n    tag_287:\n        /* \"#utility.yul\":9068:9130   */\n      swap2\n      pop\n        /* \"#utility.yul\":9023:9140   */\n      pop\n        /* \"#utility.yul\":8495:9147   */\n      swap3\n      pop\n      swap3\n      swap1\n      pop\n      jump\t// out\n        /* \"#utility.yul\":9153:9268   */\n    tag_159:\n        /* \"#utility.yul\":9238:9261   */\n      tag_289\n        /* \"#utility.yul\":9255:9260   */\n      dup2\n        /* \"#utility.yul\":9238:9261   */\n      tag_149\n      jump\t// in\n    tag_289:\n        /* \"#utility.yul\":9233:9236   */\n      dup3\n        /* \"#utility.yul\":9226:9262   */\n      mstore\n        /* \"#utility.yul\":9153:9268   */\n      pop\n      pop\n      jump\t// out\n        /* \"#utility.yul\":9274:9364   */\n    tag_160:\n        /* \"#utility.yul\":9308:9315   */\n      0x00\n        /* \"#utility.yul\":9351:9356   */\n      dup2\n        /* \"#utility.yul\":9344:9357   */\n      iszero\n        /* \"#utility.yul\":9337:9358   */\n      iszero\n        /* \"#utility.yul\":9326:9358   */\n      swap1\n      pop\n        /* \"#utility.yul\":9274:9364   */\n      swap2\n      swap1\n      pop\n      jump\t// out\n        /* \"#utility.yul\":9370:9479   */\n    tag_161:\n        /* \"#utility.yul\":9451:9472   */\n      tag_292\n        /* \"#utility.yul\":9466:9471   */\n      dup2\n        /* \"#utility.yul\":9451:9472   */\n      tag_160\n      jump\t// in\n    tag_292:\n        /* \"#utility.yul\":9446:9449   */\n      dup3\n        /* \"#utility.yul\":9439:9473   */\n      mstore\n        /* \"#utility.yul\":9370:9479   */\n      pop\n      pop\n      jump\t// out\n        /* \"#utility.yul\":9485:9801   */\n    tag_30:\n        /* \"#utility.yul\":9598:9602   */\n      0x00\n        /* \"#utility.yul\":9636:9638   */\n      0x40\n        /* \"#utility.yul\":9625:9634   */\n      dup3\n        /* \"#utility.yul\":9621:9639   */\n      add\n        /* \"#utility.yul\":9613:9639   */\n      swap1\n      pop\n        /* \"#utility.yul\":9649:9718   */\n      tag_294\n        /* \"#utility.yul\":9715:9716   */\n      0x00\n        /* \"#utility.yul\":9704:9713   */\n      dup4\n        /* \"#utility.yul\":9700:9717   */\n      add\n        /* \"#utility.yul\":9691:9697   */\n      dup6\n        /* \"#utility.yul\":9649:9718   */\n      tag_159\n      jump\t// in\n    tag_294:\n        /* \"#utility.yul\":9728:9794   */\n      tag_295\n        /* \"#utility.yul\":9790:9792   */\n      0x20\n        /* \"#utility.yul\":9779:9788   */\n      dup4\n        /* \"#utility.yul\":9775:9793   */\n      add\n        /* \"#utility.yul\":9766:9772   */\n      dup5\n        /* \"#utility.yul\":9728:9794   */\n      tag_161\n      jump\t// in\n    tag_295:\n        /* \"#utility.yul\":9485:9801   */\n      swap4\n      swap3\n      pop\n      pop\n      pop\n      jump\t// out\n        /* \"#utility.yul\":9807:10671   */\n    tag_33:\n        /* \"#utility.yul\":9910:9916   */\n      0x00\n        /* \"#utility.yul\":9918:9924   */\n      dup1\n        /* \"#utility.yul\":9967:9969   */\n      0x40\n        /* \"#utility.yul\":9955:9964   */\n      dup4\n        /* \"#utility.yul\":9946:9953   */\n      dup6\n        /* \"#utility.yul\":9942:9965   */\n      sub\n        /* \"#utility.yul\":9938:9970   */\n      slt\n        /* \"#utility.yul\":9935:10054   */\n      iszero\n      tag_297\n      jumpi\n        /* \"#utility.yul\":9973:10052   */\n      tag_298\n      tag_130\n      jump\t// in\n    tag_298:\n        /* \"#utility.yul\":9935:10054   */\n    tag_297:\n        /* \"#utility.yul\":10121:10122   */\n      0x00\n        /* \"#utility.yul\":10110:10119   */\n      dup4\n        /* \"#utility.yul\":10106:10123   */\n      add\n        /* \"#utility.yul\":10093:10124   */\n      calldataload\n        /* \"#utility.yul\":10151:10169   */\n      0xffffffffffffffff\n        /* \"#utility.yul\":10143:10149   */\n      dup2\n        /* \"#utility.yul\":10140:10170   */\n      gt\n        /* \"#utility.yul\":10137:10254   */\n      iszero\n      tag_299\n      jumpi\n        /* \"#utility.yul\":10173:10252   */\n      tag_300\n      tag_131\n      jump\t// in\n    tag_300:\n        /* \"#utility.yul\":10137:10254   */\n    tag_299:\n        /* \"#utility.yul\":10278:10341   */\n      tag_301\n        /* \"#utility.yul\":10333:10340   */\n      dup6\n        /* \"#utility.yul\":10324:10330   */\n      dup3\n        /* \"#utility.yul\":10313:10322   */\n      dup7\n        /* \"#utility.yul\":10309:10331   */\n      add\n        /* \"#utility.yul\":10278:10341   */\n      tag_140\n      jump\t// in\n    tag_301:\n        /* \"#utility.yul\":10268:10341   */\n      swap3\n      pop\n        /* \"#utility.yul\":10064:10351   */\n      pop\n        /* \"#utility.yul\":10418:10420   */\n      0x20\n        /* \"#utility.yul\":10407:10416   */\n      dup4\n        /* \"#utility.yul\":10403:10421   */\n      add\n        /* \"#utility.yul\":10390:10422   */\n      calldataload\n        /* \"#utility.yul\":10449:10467   */\n      0xffffffffffffffff\n        /* \"#utility.yul\":10441:10447   */\n      dup2\n        /* \"#utility.yul\":10438:10468   */\n      gt\n        /* \"#utility.yul\":10435:10552   */\n      iszero\n      tag_302\n      jumpi\n        /* \"#utility.yul\":10471:10550   */\n      tag_303\n      tag_131\n      jump\t// in\n    tag_303:\n        /* \"#utility.yul\":10435:10552   */\n    tag_302:\n        /* \"#utility.yul\":10576:10654   */\n      tag_304\n        /* \"#utility.yul\":10646:10653   */\n      dup6\n        /* \"#utility.yul\":10637:10643   */\n      dup3\n        /* \"#utility.yul\":10626:10635   */\n      dup7\n        /* \"#utility.yul\":10622:10644   */\n      add\n        /* \"#utility.yul\":10576:10654   */\n      tag_148\n      jump\t// in\n    tag_304:\n        /* \"#utility.yul\":10566:10654   */\n      swap2\n      pop\n        /* \"#utility.yul\":10361:10664   */\n      pop\n        /* \"#utility.yul\":9807:10671   */\n      swap3\n      pop\n      swap3\n      swap1\n      pop\n      jump\t// out\n        /* \"#utility.yul\":10677:10846   */\n    tag_162:\n        /* \"#utility.yul\":10761:10772   */\n      0x00\n        /* \"#utility.yul\":10795:10801   */\n      dup3\n        /* \"#utility.yul\":10790:10793   */\n      dup3\n        /* \"#utility.yul\":10783:10802   */\n      mstore\n        /* \"#utility.yul\":10835:10839   */\n      0x20\n        /* \"#utility.yul\":10830:10833   */\n      dup3\n        /* \"#utility.yul\":10826:10840   */\n      add\n        /* \"#utility.yul\":10811:10840   */\n      swap1\n      pop\n        /* \"#utility.yul\":10677:10846   */\n      swap3\n      swap2\n      pop\n      pop\n      jump\t// out\n        /* \"#utility.yul\":10852:11034   */\n    tag_163:\n        /* \"#utility.yul\":10992:11026   */\n      0x4174206c65617374206f6e652070726963652066656564207265717569726564\n        /* \"#utility.yul\":10988:10989   */\n      0x00\n        /* \"#utility.yul\":10980:10986   */\n      dup3\n        /* \"#utility.yul\":10976:10990   */\n      add\n        /* \"#utility.yul\":10969:11027   */\n      mstore\n        /* \"#utility.yul\":10852:11034   */\n      pop\n      jump\t// out\n        /* \"#utility.yul\":11040:11406   */\n    tag_164:\n        /* \"#utility.yul\":11182:11185   */\n      0x00\n        /* \"#utility.yul\":11203:11270   */\n      tag_308\n        /* \"#utility.yul\":11267:11269   */\n      0x20\n        /* \"#utility.yul\":11262:11265   */\n      dup4\n        /* \"#utility.yul\":11203:11270   */\n      tag_162\n      jump\t// in\n    tag_308:\n        /* \"#utility.yul\":11196:11270   */\n      swap2\n      pop\n        /* \"#utility.yul\":11279:11372   */\n      tag_309\n        /* \"#utility.yul\":11368:11371   */\n      dup3\n        /* \"#utility.yul\":11279:11372   */\n      tag_163\n      jump\t// in\n    tag_309:\n        /* \"#utility.yul\":11397:11399   */\n      0x20\n        /* \"#utility.yul\":11392:11395   */\n      dup3\n        /* \"#utility.yul\":11388:11400   */\n      add\n        /* \"#utility.yul\":11381:11400   */\n      swap1\n      pop\n        /* \"#utility.yul\":11040:11406   */\n      swap2\n      swap1\n      pop\n      jump\t// out\n        /* \"#utility.yul\":11412:11831   */\n    tag_38:\n        /* \"#utility.yul\":11578:11582   */\n      0x00\n        /* \"#utility.yul\":11616:11618   */\n      0x20\n        /* \"#utility.yul\":11605:11614   */\n      dup3\n        /* \"#utility.yul\":11601:11619   */\n      add\n        /* \"#utility.yul\":11593:11619   */\n      swap1\n      pop\n        /* \"#utility.yul\":11665:11674   */\n      dup2\n        /* \"#utility.yul\":11659:11663   */\n      dup2\n        /* \"#utility.yul\":11655:11675   */\n      sub\n        /* \"#utility.yul\":11651:11652   */\n      0x00\n        /* \"#utility.yul\":11640:11649   */\n      dup4\n        /* \"#utility.yul\":11636:11653   */\n      add\n        /* \"#utility.yul\":11629:11676   */\n      mstore\n        /* \"#utility.yul\":11693:11824   */\n      tag_311\n        /* \"#utility.yul\":11819:11823   */\n      dup2\n        /* \"#utility.yul\":11693:11824   */\n      tag_164\n      jump\t// in\n    tag_311:\n        /* \"#utility.yul\":11685:11824   */\n      swap1\n      pop\n        /* \"#utility.yul\":11412:11831   */\n      swap2\n      swap1\n      pop\n      jump\t// out\n        /* \"#utility.yul\":11837:11936   */\n    tag_165:\n        /* \"#utility.yul\":11889:11895   */\n      0x00\n        /* \"#utility.yul\":11923:11928   */\n      dup2\n        /* \"#utility.yul\":11917:11929   */\n      mload\n        /* \"#utility.yul\":11907:11929   */\n      swap1\n      pop\n        /* \"#utility.yul\":11837:11936   */\n      swap2\n      swap1\n      pop\n      jump\t// out\n        /* \"#utility.yul\":11942:12090   */\n    tag_166:\n        /* \"#utility.yul\":12044:12055   */\n      0x00\n        /* \"#utility.yul\":12081:12084   */\n      dup2\n        /* \"#utility.yul\":12066:12084   */\n      swap1\n      pop\n        /* \"#utility.yul\":11942:12090   */\n      swap3\n      swap2\n      pop\n      pop\n      jump\t// out\n        /* \"#utility.yul\":12096:12235   */\n    tag_167:\n        /* \"#utility.yul\":12185:12191   */\n      dup3\n        /* \"#utility.yul\":12180:12183   */\n      dup2\n        /* \"#utility.yul\":12175:12178   */\n      dup4\n        /* \"#utility.yul\":12169:12192   */\n      mcopy\n        /* \"#utility.yul\":12226:12227   */\n      0x00\n        /* \"#utility.yul\":12217:12223   */\n      dup4\n        /* \"#utility.yul\":12212:12215   */\n      dup4\n        /* \"#utility.yul\":12208:12224   */\n      add\n        /* \"#utility.yul\":12201:12228   */\n      mstore\n        /* \"#utility.yul\":12096:12235   */\n      pop\n      pop\n      pop\n      jump\t// out\n        /* \"#utility.yul\":12241:12631   */\n    tag_168:\n        /* \"#utility.yul\":12347:12350   */\n      0x00\n        /* \"#utility.yul\":12375:12414   */\n      tag_316\n        /* \"#utility.yul\":12408:12413   */\n      dup3\n        /* \"#utility.yul\":12375:12414   */\n      tag_165\n      jump\t// in\n    tag_316:\n        /* \"#utility.yul\":12430:12519   */\n      tag_317\n        /* \"#utility.yul\":12512:12518   */\n      dup2\n        /* \"#utility.yul\":12507:12510   */\n      dup6\n        /* \"#utility.yul\":12430:12519   */\n      tag_166\n      jump\t// in\n    tag_317:\n        /* \"#utility.yul\":12423:12519   */\n      swap4\n      pop\n        /* \"#utility.yul\":12528:12593   */\n      tag_318\n        /* \"#utility.yul\":12586:12592   */\n      dup2\n        /* \"#utility.yul\":12581:12584   */\n      dup6\n        /* \"#utility.yul\":12574:12578   */\n      0x20\n        /* \"#utility.yul\":12567:12572   */\n      dup7\n        /* \"#utility.yul\":12563:12579   */\n      add\n        /* \"#utility.yul\":12528:12593   */\n      tag_167\n      jump\t// in\n    tag_318:\n        /* \"#utility.yul\":12618:12624   */\n      dup1\n        /* \"#utility.yul\":12613:12616   */\n      dup5\n        /* \"#utility.yul\":12609:12625   */\n      add\n        /* \"#utility.yul\":12602:12625   */\n      swap2\n      pop\n        /* \"#utility.yul\":12351:12631   */\n      pop\n        /* \"#utility.yul\":12241:12631   */\n      swap3\n      swap2\n      pop\n      pop\n      jump\t// out\n        /* \"#utility.yul\":12637:12912   */\n    tag_40:\n        /* \"#utility.yul\":12769:12772   */\n      0x00\n        /* \"#utility.yul\":12791:12886   */\n      tag_320\n        /* \"#utility.yul\":12882:12885   */\n      dup3\n        /* \"#utility.yul\":12873:12879   */\n      dup5\n        /* \"#utility.yul\":12791:12886   */\n      tag_168\n      jump\t// in\n    tag_320:\n        /* \"#utility.yul\":12784:12886   */\n      swap2\n      pop\n        /* \"#utility.yul\":12903:12906   */\n      dup2\n        /* \"#utility.yul\":12896:12906   */\n      swap1\n      pop\n        /* \"#utility.yul\":12637:12912   */\n      swap3\n      swap2\n      pop\n      pop\n      jump\t// out\n        /* \"#utility.yul\":12918:13088   */\n    tag_169:\n        /* \"#utility.yul\":13058:13080   */\n      0x417373657420616c726561647920657869737473000000000000000000000000\n        /* \"#utility.yul\":13054:13055   */\n      0x00\n        /* \"#utility.yul\":13046:13052   */\n      dup3\n        /* \"#utility.yul\":13042:13056   */\n      add\n        /* \"#utility.yul\":13035:13081   */\n      mstore\n        /* \"#utility.yul\":12918:13088   */\n      pop\n      jump\t// out\n        /* \"#utility.yul\":13094:13460   */\n    tag_170:\n        /* \"#utility.yul\":13236:13239   */\n      0x00\n        /* \"#utility.yul\":13257:13324   */\n      tag_323\n        /* \"#utility.yul\":13321:13323   */\n      0x14\n        /* \"#utility.yul\":13316:13319   */\n      dup4\n        /* \"#utility.yul\":13257:13324   */\n      tag_162\n      jump\t// in\n    tag_323:\n        /* \"#utility.yul\":13250:13324   */\n      swap2\n      pop\n        /* \"#utility.yul\":13333:13426   */\n      tag_324\n        /* \"#utility.yul\":13422:13425   */\n      dup3\n        /* \"#utility.yul\":13333:13426   */\n      tag_169\n      jump\t// in\n    tag_324:\n        /* \"#utility.yul\":13451:13453   */\n      0x20\n        /* \"#utility.yul\":13446:13449   */\n      dup3\n        /* \"#utility.yul\":13442:13454   */\n      add\n        /* \"#utility.yul\":13435:13454   */\n      swap1\n      pop\n        /* \"#utility.yul\":13094:13460   */\n      swap2\n      swap1\n      pop\n      jump\t// out\n        /* \"#utility.yul\":13466:13885   */\n    tag_43:\n        /* \"#utility.yul\":13632:13636   */\n      0x00\n        /* \"#utility.yul\":13670:13672   */\n      0x20\n        /* \"#utility.yul\":13659:13668   */\n      dup3\n        /* \"#utility.yul\":13655:13673   */\n      add\n        /* \"#utility.yul\":13647:13673   */\n      swap1\n      pop\n        /* \"#utility.yul\":13719:13728   */\n      dup2\n        /* \"#utility.yul\":13713:13717   */\n      dup2\n        /* \"#utility.yul\":13709:13729   */\n      sub\n        /* \"#utility.yul\":13705:13706   */\n      0x00\n        /* \"#utility.yul\":13694:13703   */\n      dup4\n        /* \"#utility.yul\":13690:13707   */\n      add\n        /* \"#utility.yul\":13683:13730   */\n      mstore\n        /* \"#utility.yul\":13747:13878   */\n      tag_326\n        /* \"#utility.yul\":13873:13877   */\n      dup2\n        /* \"#utility.yul\":13747:13878   */\n      tag_170\n      jump\t// in\n    tag_326:\n        /* \"#utility.yul\":13739:13878   */\n      swap1\n      pop\n        /* \"#utility.yul\":13466:13885   */\n      swap2\n      swap1\n      pop\n      jump\t// out\n        /* \"#utility.yul\":13891:14071   */\n    tag_49:\n        /* \"#utility.yul\":13939:14016   */\n      0x4e487b7100000000000000000000000000000000000000000000000000000000\n        /* \"#utility.yul\":13936:13937   */\n      0x00\n        /* \"#utility.yul\":13929:14017   */\n      mstore\n        /* \"#utility.yul\":14036:14040   */\n      0x32\n        /* \"#utility.yul\":14033:14034   */\n      0x04\n        /* \"#utility.yul\":14026:14041   */\n      mstore\n        /* \"#utility.yul\":14060:14064   */\n      0x24\n        /* \"#utility.yul\":14057:14058   */\n      0x00\n        /* \"#utility.yul\":14050:14065   */\n      revert\n        /* \"#utility.yul\":14077:14253   */\n    tag_171:\n        /* \"#utility.yul\":14217:14245   */\n      0x496e76616c696420707269636520666565642061646472657373000000000000\n        /* \"#utility.yul\":14213:14214   */\n      0x00\n        /* \"#utility.yul\":14205:14211   */\n      dup3\n        /* \"#utility.yul\":14201:14215   */\n      add\n        /* \"#utility.yul\":14194:14246   */\n      mstore\n        /* \"#utility.yul\":14077:14253   */\n      pop\n      jump\t// out\n        /* \"#utility.yul\":14259:14625   */\n    tag_172:\n        /* \"#utility.yul\":14401:14404   */\n      0x00\n        /* \"#utility.yul\":14422:14489   */\n      tag_330\n        /* \"#utility.yul\":14486:14488   */\n      0x1a\n        /* \"#utility.yul\":14481:14484   */\n      dup4\n        /* \"#utility.yul\":14422:14489   */\n      tag_162\n      jump\t// in\n    tag_330:\n        /* \"#utility.yul\":14415:14489   */\n      swap2\n      pop\n        /* \"#utility.yul\":14498:14591   */\n      tag_331\n        /* \"#utility.yul\":14587:14590   */\n      dup3\n        /* \"#utility.yul\":14498:14591   */\n      tag_171\n      jump\t// in\n    tag_331:\n        /* \"#utility.yul\":14616:14618   */\n      0x20\n        /* \"#utility.yul\":14611:14614   */\n      dup3\n        /* \"#utility.yul\":14607:14619   */\n      add\n        /* \"#utility.yul\":14600:14619   */\n      swap1\n      pop\n        /* \"#utility.yul\":14259:14625   */\n      swap2\n      swap1\n      pop\n      jump\t// out\n        /* \"#utility.yul\":14631:15050   */\n    tag_52:\n        /* \"#utility.yul\":14797:14801   */\n      0x00\n        /* \"#utility.yul\":14835:14837   */\n      0x20\n        /* \"#utility.yul\":14824:14833   */\n      dup3\n        /* \"#utility.yul\":14820:14838   */\n      add\n        /* \"#utility.yul\":14812:14838   */\n      swap1\n      pop\n        /* \"#utility.yul\":14884:14893   */\n      dup2\n        /* \"#utility.yul\":14878:14882   */\n      dup2\n        /* \"#utility.yul\":14874:14894   */\n      sub\n        /* \"#utility.yul\":14870:14871   */\n      0x00\n        /* \"#utility.yul\":14859:14868   */\n      dup4\n        /* \"#utility.yul\":14855:14872   */\n      add\n        /* \"#utility.yul\":14848:14895   */\n      mstore\n        /* \"#utility.yul\":14912:15043   */\n      tag_333\n        /* \"#utility.yul\":15038:15042   */\n      dup2\n        /* \"#utility.yul\":14912:15043   */\n      tag_172\n      jump\t// in\n    tag_333:\n        /* \"#utility.yul\":14904:15043   */\n      swap1\n      pop\n        /* \"#utility.yul\":14631:15050   */\n      swap2\n      swap1\n      pop\n      jump\t// out\n        /* \"#utility.yul\":15056:15433   */\n    tag_173:\n        /* \"#utility.yul\":15144:15147   */\n      0x00\n        /* \"#utility.yul\":15172:15211   */\n      tag_335\n        /* \"#utility.yul\":15205:15210   */\n      dup3\n        /* \"#utility.yul\":15172:15211   */\n      tag_165\n      jump\t// in\n    tag_335:\n        /* \"#utility.yul\":15227:15298   */\n      tag_336\n        /* \"#utility.yul\":15291:15297   */\n      dup2\n        /* \"#utility.yul\":15286:15289   */\n      dup6\n        /* \"#utility.yul\":15227:15298   */\n      tag_162\n      jump\t// in\n    tag_336:\n        /* \"#utility.yul\":15220:15298   */\n      swap4\n      pop\n        /* \"#utility.yul\":15307:15372   */\n      tag_337\n        /* \"#utility.yul\":15365:15371   */\n      dup2\n        /* \"#utility.yul\":15360:15363   */\n      dup6\n        /* \"#utility.yul\":15353:15357   */\n      0x20\n        /* \"#utility.yul\":15346:15351   */\n      dup7\n        /* \"#utility.yul\":15342:15358   */\n      add\n        /* \"#utility.yul\":15307:15372   */\n      tag_167\n      jump\t// in\n    tag_337:\n        /* \"#utility.yul\":15397:15426   */\n      tag_338\n        /* \"#utility.yul\":15419:15425   */\n      dup2\n        /* \"#utility.yul\":15397:15426   */\n      tag_134\n      jump\t// in\n    tag_338:\n        /* \"#utility.yul\":15392:15395   */\n      dup5\n        /* \"#utility.yul\":15388:15427   */\n      add\n        /* \"#utility.yul\":15381:15427   */\n      swap2\n      pop\n        /* \"#utility.yul\":15148:15433   */\n      pop\n        /* \"#utility.yul\":15056:15433   */\n      swap3\n      swap2\n      pop\n      pop\n      jump\t// out\n        /* \"#utility.yul\":15439:15752   */\n    tag_57:\n        /* \"#utility.yul\":15552:15556   */\n      0x00\n        /* \"#utility.yul\":15590:15592   */\n      0x20\n        /* \"#utility.yul\":15579:15588   */\n      dup3\n        /* \"#utility.yul\":15575:15593   */\n      add\n        /* \"#utility.yul\":15567:15593   */\n      swap1\n      pop\n        /* \"#utility.yul\":15639:15648   */\n      dup2\n        /* \"#utility.yul\":15633:15637   */\n      dup2\n        /* \"#utility.yul\":15629:15649   */\n      sub\n        /* \"#utility.yul\":15625:15626   */\n      0x00\n        /* \"#utility.yul\":15614:15623   */\n      dup4\n        /* \"#utility.yul\":15610:15627   */\n      add\n        /* \"#utility.yul\":15603:15650   */\n      mstore\n        /* \"#utility.yul\":15667:15745   */\n      tag_340\n        /* \"#utility.yul\":15740:15744   */\n      dup2\n        /* \"#utility.yul\":15731:15737   */\n      dup5\n        /* \"#utility.yul\":15667:15745   */\n      tag_173\n      jump\t// in\n    tag_340:\n        /* \"#utility.yul\":15659:15745   */\n      swap1\n      pop\n        /* \"#utility.yul\":15439:15752   */\n      swap3\n      swap2\n      pop\n      pop\n      jump\t// out\n        /* \"#utility.yul\":15758:15923   */\n    tag_174:\n        /* \"#utility.yul\":15898:15915   */\n      0x4173736574206e6f7420666f756e640000000000000000000000000000000000\n        /* \"#utility.yul\":15894:15895   */\n      0x00\n        /* \"#utility.yul\":15886:15892   */\n      dup3\n        /* \"#utility.yul\":15882:15896   */\n      add\n        /* \"#utility.yul\":15875:15916   */\n      mstore\n        /* \"#utility.yul\":15758:15923   */\n      pop\n      jump\t// out\n        /* \"#utility.yul\":15929:16295   */\n    tag_175:\n        /* \"#utility.yul\":16071:16074   */\n      0x00\n        /* \"#utility.yul\":16092:16159   */\n      tag_343\n        /* \"#utility.yul\":16156:16158   */\n      0x0f\n        /* \"#utility.yul\":16151:16154   */\n      dup4\n        /* \"#utility.yul\":16092:16159   */\n      tag_162\n      jump\t// in\n    tag_343:\n        /* \"#utility.yul\":16085:16159   */\n      swap2\n      pop\n        /* \"#utility.yul\":16168:16261   */\n      tag_344\n        /* \"#utility.yul\":16257:16260   */\n      dup3\n        /* \"#utility.yul\":16168:16261   */\n      tag_174\n      jump\t// in\n    tag_344:\n        /* \"#utility.yul\":16286:16288   */\n      0x20\n        /* \"#utility.yul\":16281:16284   */\n      dup3\n        /* \"#utility.yul\":16277:16289   */\n      add\n        /* \"#utility.yul\":16270:16289   */\n      swap1\n      pop\n        /* \"#utility.yul\":15929:16295   */\n      swap2\n      swap1\n      pop\n      jump\t// out\n        /* \"#utility.yul\":16301:16720   */\n    tag_62:\n        /* \"#utility.yul\":16467:16471   */\n      0x00\n        /* \"#utility.yul\":16505:16507   */\n      0x20\n        /* \"#utility.yul\":16494:16503   */\n      dup3\n        /* \"#utility.yul\":16490:16508   */\n      add\n        /* \"#utility.yul\":16482:16508   */\n      swap1\n      pop\n        /* \"#utility.yul\":16554:16563   */\n      dup2\n        /* \"#utility.yul\":16548:16552   */\n      dup2\n        /* \"#utility.yul\":16544:16564   */\n      sub\n        /* \"#utility.yul\":16540:16541   */\n      0x00\n        /* \"#utility.yul\":16529:16538   */\n      dup4\n        /* \"#utility.yul\":16525:16542   */\n      add\n        /* \"#utility.yul\":16518:16565   */\n      mstore\n        /* \"#utility.yul\":16582:16713   */\n      tag_346\n        /* \"#utility.yul\":16708:16712   */\n      dup2\n        /* \"#utility.yul\":16582:16713   */\n      tag_175\n      jump\t// in\n    tag_346:\n        /* \"#utility.yul\":16574:16713   */\n      swap1\n      pop\n        /* \"#utility.yul\":16301:16720   */\n      swap2\n      swap1\n      pop\n      jump\t// out\n        /* \"#utility.yul\":16726:16831   */\n    tag_176:\n        /* \"#utility.yul\":16762:16769   */\n      0x00\n        /* \"#utility.yul\":16802:16824   */\n      0xffffffffffffffffffff\n        /* \"#utility.yul\":16795:16800   */\n      dup3\n        /* \"#utility.yul\":16791:16825   */\n      and\n        /* \"#utility.yul\":16780:16825   */\n      swap1\n      pop\n        /* \"#utility.yul\":16726:16831   */\n      swap2\n      swap1\n      pop\n      jump\t// out\n        /* \"#utility.yul\":16837:16957   */\n    tag_177:\n        /* \"#utility.yul\":16909:16932   */\n      tag_349\n        /* \"#utility.yul\":16926:16931   */\n      dup2\n        /* \"#utility.yul\":16909:16932   */\n      tag_176\n      jump\t// in\n    tag_349:\n        /* \"#utility.yul\":16902:16907   */\n      dup2\n        /* \"#utility.yul\":16899:16933   */\n      eq\n        /* \"#utility.yul\":16889:16951   */\n      tag_350\n      jumpi\n        /* \"#utility.yul\":16947:16948   */\n      0x00\n        /* \"#utility.yul\":16944:16945   */\n      dup1\n        /* \"#utility.yul\":16937:16949   */\n      revert\n        /* \"#utility.yul\":16889:16951   */\n    tag_350:\n        /* \"#utility.yul\":16837:16957   */\n      pop\n      jump\t// out\n        /* \"#utility.yul\":16963:17104   */\n    tag_178:\n        /* \"#utility.yul\":17019:17024   */\n      0x00\n        /* \"#utility.yul\":17050:17056   */\n      dup2\n        /* \"#utility.yul\":17044:17057   */\n      mload\n        /* \"#utility.yul\":17035:17057   */\n      swap1\n      pop\n        /* \"#utility.yul\":17066:17098   */\n      tag_352\n        /* \"#utility.yul\":17092:17097   */\n      dup2\n        /* \"#utility.yul\":17066:17098   */\n      tag_177\n      jump\t// in\n    tag_352:\n        /* \"#utility.yul\":16963:17104   */\n      swap3\n      swap2\n      pop\n      pop\n      jump\t// out\n        /* \"#utility.yul\":17110:17251   */\n    tag_179:\n        /* \"#utility.yul\":17166:17171   */\n      0x00\n        /* \"#utility.yul\":17197:17203   */\n      dup2\n        /* \"#utility.yul\":17191:17204   */\n      mload\n        /* \"#utility.yul\":17182:17204   */\n      swap1\n      pop\n        /* \"#utility.yul\":17213:17245   */\n      tag_354\n        /* \"#utility.yul\":17239:17244   */\n      dup2\n        /* \"#utility.yul\":17213:17245   */\n      tag_150\n      jump\t// in\n    tag_354:\n        /* \"#utility.yul\":17110:17251   */\n      swap3\n      swap2\n      pop\n      pop\n      jump\t// out\n        /* \"#utility.yul\":17257:17334   */\n    tag_180:\n        /* \"#utility.yul\":17294:17301   */\n      0x00\n        /* \"#utility.yul\":17323:17328   */\n      dup2\n        /* \"#utility.yul\":17312:17328   */\n      swap1\n      pop\n        /* \"#utility.yul\":17257:17334   */\n      swap2\n      swap1\n      pop\n      jump\t// out\n        /* \"#utility.yul\":17340:17462   */\n    tag_181:\n        /* \"#utility.yul\":17413:17437   */\n      tag_357\n        /* \"#utility.yul\":17431:17436   */\n      dup2\n        /* \"#utility.yul\":17413:17437   */\n      tag_180\n      jump\t// in\n    tag_357:\n        /* \"#utility.yul\":17406:17411   */\n      dup2\n        /* \"#utility.yul\":17403:17438   */\n      eq\n        /* \"#utility.yul\":17393:17456   */\n      tag_358\n      jumpi\n        /* \"#utility.yul\":17452:17453   */\n      0x00\n        /* \"#utility.yul\":17449:17450   */\n      dup1\n        /* \"#utility.yul\":17442:17454   */\n      revert\n        /* \"#utility.yul\":17393:17456   */\n    tag_358:\n        /* \"#utility.yul\":17340:17462   */\n      pop\n      jump\t// out\n        /* \"#utility.yul\":17468:17611   */\n    tag_182:\n        /* \"#utility.yul\":17525:17530   */\n      0x00\n        /* \"#utility.yul\":17556:17562   */\n      dup2\n        /* \"#utility.yul\":17550:17563   */\n      mload\n        /* \"#utility.yul\":17541:17563   */\n      swap1\n      pop\n        /* \"#utility.yul\":17572:17605   */\n      tag_360\n        /* \"#utility.yul\":17599:17604   */\n      dup2\n        /* \"#utility.yul\":17572:17605   */\n      tag_181\n      jump\t// in\n    tag_360:\n        /* \"#utility.yul\":17468:17611   */\n      swap3\n      swap2\n      pop\n      pop\n      jump\t// out\n        /* \"#utility.yul\":17617:18588   */\n    tag_72:\n        /* \"#utility.yul\":17720:17726   */\n      0x00\n        /* \"#utility.yul\":17728:17734   */\n      dup1\n        /* \"#utility.yul\":17736:17742   */\n      0x00\n        /* \"#utility.yul\":17744:17750   */\n      dup1\n        /* \"#utility.yul\":17752:17758   */\n      0x00\n        /* \"#utility.yul\":17801:17804   */\n      0xa0\n        /* \"#utility.yul\":17789:17798   */\n      dup7\n        /* \"#utility.yul\":17780:17787   */\n      dup9\n        /* \"#utility.yul\":17776:17799   */\n      sub\n        /* \"#utility.yul\":17772:17805   */\n      slt\n        /* \"#utility.yul\":17769:17889   */\n      iszero\n      tag_362\n      jumpi\n        /* \"#utility.yul\":17808:17887   */\n      tag_363\n      tag_130\n      jump\t// in\n    tag_363:\n        /* \"#utility.yul\":17769:17889   */\n    tag_362:\n        /* \"#utility.yul\":17928:17929   */\n      0x00\n        /* \"#utility.yul\":17953:18016   */\n      tag_364\n        /* \"#utility.yul\":18008:18015   */\n      dup9\n        /* \"#utility.yul\":17999:18005   */\n      dup3\n        /* \"#utility.yul\":17988:17997   */\n      dup10\n        /* \"#utility.yul\":17984:18006   */\n      add\n        /* \"#utility.yul\":17953:18016   */\n      tag_178\n      jump\t// in\n    tag_364:\n        /* \"#utility.yul\":17943:18016   */\n      swap6\n      pop\n        /* \"#utility.yul\":17899:18026   */\n      pop\n        /* \"#utility.yul\":18065:18067   */\n      0x20\n        /* \"#utility.yul\":18091:18154   */\n      tag_365\n        /* \"#utility.yul\":18146:18153   */\n      dup9\n        /* \"#utility.yul\":18137:18143   */\n      dup3\n        /* \"#utility.yul\":18126:18135   */\n      dup10\n        /* \"#utility.yul\":18122:18144   */\n      add\n        /* \"#utility.yul\":18091:18154   */\n      tag_179\n      jump\t// in\n    tag_365:\n        /* \"#utility.yul\":18081:18154   */\n      swap5\n      pop\n        /* \"#utility.yul\":18036:18164   */\n      pop\n        /* \"#utility.yul\":18203:18205   */\n      0x40\n        /* \"#utility.yul\":18229:18293   */\n      tag_366\n        /* \"#utility.yul\":18285:18292   */\n      dup9\n        /* \"#utility.yul\":18276:18282   */\n      dup3\n        /* \"#utility.yul\":18265:18274   */\n      dup10\n        /* \"#utility.yul\":18261:18283   */\n      add\n        /* \"#utility.yul\":18229:18293   */\n      tag_182\n      jump\t// in\n    tag_366:\n        /* \"#utility.yul\":18219:18293   */\n      swap4\n      pop\n        /* \"#utility.yul\":18174:18303   */\n      pop\n        /* \"#utility.yul\":18342:18344   */\n      0x60\n        /* \"#utility.yul\":18368:18432   */\n      tag_367\n        /* \"#utility.yul\":18424:18431   */\n      dup9\n        /* \"#utility.yul\":18415:18421   */\n      dup3\n        /* \"#utility.yul\":18404:18413   */\n      dup10\n        /* \"#utility.yul\":18400:18422   */\n      add\n        /* \"#utility.yul\":18368:18432   */\n      tag_182\n      jump\t// in\n    tag_367:\n        /* \"#utility.yul\":18358:18432   */\n      swap3\n      pop\n        /* \"#utility.yul\":18313:18442   */\n      pop\n        /* \"#utility.yul\":18481:18484   */\n      0x80\n        /* \"#utility.yul\":18508:18571   */\n      tag_368\n        /* \"#utility.yul\":18563:18570   */\n      dup9\n        /* \"#utility.yul\":18554:18560   */\n      dup3\n        /* \"#utility.yul\":18543:18552   */\n      dup10\n        /* \"#utility.yul\":18539:18561   */\n      add\n        /* \"#utility.yul\":18508:18571   */\n      tag_178\n      jump\t// in\n    tag_368:\n        /* \"#utility.yul\":18498:18571   */\n      swap2\n      pop\n        /* \"#utility.yul\":18452:18581   */\n      pop\n        /* \"#utility.yul\":17617:18588   */\n      swap3\n      swap6\n      pop\n      swap3\n      swap6\n      swap1\n      swap4\n      pop\n      jump\t// out\n        /* \"#utility.yul\":18594:18774   */\n    tag_183:\n        /* \"#utility.yul\":18642:18719   */\n      0x4e487b7100000000000000000000000000000000000000000000000000000000\n        /* \"#utility.yul\":18639:18640   */\n      0x00\n        /* \"#utility.yul\":18632:18720   */\n      mstore\n        /* \"#utility.yul\":18739:18743   */\n      0x11\n        /* \"#utility.yul\":18736:18737   */\n      0x04\n        /* \"#utility.yul\":18729:18744   */\n      mstore\n        /* \"#utility.yul\":18763:18767   */\n      0x24\n        /* \"#utility.yul\":18760:18761   */\n      0x00\n        /* \"#utility.yul\":18753:18768   */\n      revert\n        /* \"#utility.yul\":18780:19152   */\n    tag_76:\n        /* \"#utility.yul\":18819:18823   */\n      0x00\n        /* \"#utility.yul\":18839:18858   */\n      tag_371\n        /* \"#utility.yul\":18856:18857   */\n      dup3\n        /* \"#utility.yul\":18839:18858   */\n      tag_149\n      jump\t// in\n    tag_371:\n        /* \"#utility.yul\":18834:18858   */\n      swap2\n      pop\n        /* \"#utility.yul\":18872:18891   */\n      tag_372\n        /* \"#utility.yul\":18889:18890   */\n      dup4\n        /* \"#utility.yul\":18872:18891   */\n      tag_149\n      jump\t// in\n    tag_372:\n        /* \"#utility.yul\":18867:18891   */\n      swap3\n      pop\n        /* \"#utility.yul\":18915:18916   */\n      dup3\n        /* \"#utility.yul\":18912:18913   */\n      dup3\n        /* \"#utility.yul\":18908:18917   */\n      sub\n        /* \"#utility.yul\":18900:18917   */\n      swap1\n      pop\n        /* \"#utility.yul\":19109:19110   */\n      dup2\n        /* \"#utility.yul\":19103:19107   */\n      dup2\n        /* \"#utility.yul\":19099:19111   */\n      slt\n        /* \"#utility.yul\":19095:19096   */\n      0x00\n        /* \"#utility.yul\":19092:19093   */\n      dup5\n        /* \"#utility.yul\":19088:19097   */\n      slt\n        /* \"#utility.yul\":19084:19112   */\n      and\n        /* \"#utility.yul\":19067:19068   */\n      dup3\n        /* \"#utility.yul\":19061:19065   */\n      dup3\n        /* \"#utility.yul\":19057:19069   */\n      sgt\n        /* \"#utility.yul\":19052:19053   */\n      0x00\n        /* \"#utility.yul\":19049:19050   */\n      dup6\n        /* \"#utility.yul\":19045:19054   */\n      slt\n        /* \"#utility.yul\":19038:19055   */\n      iszero\n        /* \"#utility.yul\":19034:19070   */\n      and\n        /* \"#utility.yul\":19018:19122   */\n      or\n        /* \"#utility.yul\":19015:19145   */\n      iszero\n      tag_373\n      jumpi\n        /* \"#utility.yul\":19125:19143   */\n      tag_374\n      tag_183\n      jump\t// in\n    tag_374:\n        /* \"#utility.yul\":19015:19145   */\n    tag_373:\n        /* \"#utility.yul\":18780:19152   */\n      swap3\n      swap2\n      pop\n      pop\n      jump\t// out\n        /* \"#utility.yul\":19158:19276   */\n    tag_184:\n        /* \"#utility.yul\":19245:19269   */\n      tag_376\n        /* \"#utility.yul\":19263:19268   */\n      dup2\n        /* \"#utility.yul\":19245:19269   */\n      tag_180\n      jump\t// in\n    tag_376:\n        /* \"#utility.yul\":19240:19243   */\n      dup3\n        /* \"#utility.yul\":19233:19270   */\n      mstore\n        /* \"#utility.yul\":19158:19276   */\n      pop\n      pop\n      jump\t// out\n        /* \"#utility.yul\":19282:19918   */\n    tag_79:\n        /* \"#utility.yul\":19475:19479   */\n      0x00\n        /* \"#utility.yul\":19513:19516   */\n      0x80\n        /* \"#utility.yul\":19502:19511   */\n      dup3\n        /* \"#utility.yul\":19498:19517   */\n      add\n        /* \"#utility.yul\":19490:19517   */\n      swap1\n      pop\n        /* \"#utility.yul\":19563:19572   */\n      dup2\n        /* \"#utility.yul\":19557:19561   */\n      dup2\n        /* \"#utility.yul\":19553:19573   */\n      sub\n        /* \"#utility.yul\":19549:19550   */\n      0x00\n        /* \"#utility.yul\":19538:19547   */\n      dup4\n        /* \"#utility.yul\":19534:19551   */\n      add\n        /* \"#utility.yul\":19527:19574   */\n      mstore\n        /* \"#utility.yul\":19591:19669   */\n      tag_378\n        /* \"#utility.yul\":19664:19668   */\n      dup2\n        /* \"#utility.yul\":19655:19661   */\n      dup8\n        /* \"#utility.yul\":19591:19669   */\n      tag_173\n      jump\t// in\n    tag_378:\n        /* \"#utility.yul\":19583:19669   */\n      swap1\n      pop\n        /* \"#utility.yul\":19679:19749   */\n      tag_379\n        /* \"#utility.yul\":19745:19747   */\n      0x20\n        /* \"#utility.yul\":19734:19743   */\n      dup4\n        /* \"#utility.yul\":19730:19748   */\n      add\n        /* \"#utility.yul\":19721:19727   */\n      dup7\n        /* \"#utility.yul\":19679:19749   */\n      tag_159\n      jump\t// in\n    tag_379:\n        /* \"#utility.yul\":19759:19829   */\n      tag_380\n        /* \"#utility.yul\":19825:19827   */\n      0x40\n        /* \"#utility.yul\":19814:19823   */\n      dup4\n        /* \"#utility.yul\":19810:19828   */\n      add\n        /* \"#utility.yul\":19801:19807   */\n      dup6\n        /* \"#utility.yul\":19759:19829   */\n      tag_159\n      jump\t// in\n    tag_380:\n        /* \"#utility.yul\":19839:19911   */\n      tag_381\n        /* \"#utility.yul\":19907:19909   */\n      0x60\n        /* \"#utility.yul\":19896:19905   */\n      dup4\n        /* \"#utility.yul\":19892:19910   */\n      add\n        /* \"#utility.yul\":19883:19889   */\n      dup5\n        /* \"#utility.yul\":19839:19911   */\n      tag_184\n      jump\t// in\n    tag_381:\n        /* \"#utility.yul\":19282:19918   */\n      swap6\n      swap5\n      pop\n      pop\n      pop\n      pop\n      pop\n      jump\t// out\n\n    auxdata: 0xa2646970667358221220e8020db7f967b119ad9c8451e94a6ca99d15d5c9066a45d3dc2134b995b40e3f64736f6c634300081a0033\n}\n",
				"bytecode": {
					"linkReferences": {},
					"object": "6080604052348015600e575f80fd5b5061149c8061001c5f395ff3fe608060405234801561000f575f80fd5b506004361061005f575f3560e01c806248680d1461006357806317a6cd9d1461007f578063497238431461009b578063515a8af4146100cb57806385936228146100e7578063a476038314610118575b5f80fd5b61007d60048036038101906100789190610d40565b610134565b005b61009960048036038101906100949190610dc8565b610339565b005b6100b560048036038101906100b09190610dc8565b610550565b6040516100c29190610ec6565b60405180910390f35b6100e560048036038101906100e09190610ee6565b61070a565b005b61010160048036038101906100fc9190610dc8565b6107ce565b60405161010f929190610f69565b60405180910390f35b610132600480360381019061012d9190610f90565b610812565b005b5f825111610177576040517f08c379a000000000000000000000000000000000000000000000000000000000815260040161016e90611060565b60405180910390fd5b5f808460405161018791906110d0565b90815260200160405180910390205f0180549050146101db576040517f08c379a00000000000000000000000000000000000000000000000000000000081526004016101d290611130565b60405180910390fd5b5f5b825181101561027b575f73ffffffffffffffffffffffffffffffffffffffff168382815181106102105761020f61114e565b5b602002602001015173ffffffffffffffffffffffffffffffffffffffff160361026e576040517f08c379a0000000000000000000000000000000000000000000000000000000008152600401610265906111c5565b60405180910390fd5b80806001019150506101dd565b5060405180606001604052808381526020018281526020015f15158152505f846040516102a891906110d0565b90815260200160405180910390205f820151815f0190805190602001906102d0929190610a00565b50602082015181600101556040820151816002015f6101000a81548160ff0219169083151502179055509050507f724df0596d75f7cca867e95fdadd6c1397e175dc9a54f0a3f46167ec8577ecae8360405161032c919061121b565b60405180910390a1505050565b5f808260405161034991906110d0565b908152602001604051809103902090505f815f0180549050116103a1576040517f08c379a000000000000000000000000000000000000000000000000000000000815260040161039890611285565b60405180910390fd5b5f7f7fffffffffffffffffffffffffffffffffffffffffffffffffffffffffffffff90505f7f800000000000000000000000000000000000000000000000000000000000000090505f5b835f01805490508110156104d4575f845f01828154811061040f5761040e61114e565b5b905f5260205f20015f9054906101000a900473ffffffffffffffffffffffffffffffffffffffff1690505f8173ffffffffffffffffffffffffffffffffffffffff1663feaf968c6040518163ffffffff1660e01b815260040160a060405180830381865afa158015610483573d5f803e3d5ffd5b505050506040513d601f19601f820116820180604052508101906104a79190611329565b505050915050848112156104b9578094505b838113156104c5578093505b505080806001019150506103eb565b505f82826104e291906113cd565b905083600101548112610549576001846002015f6101000a81548160ff0219169083151502179055507f9e30cf7894b5421e340ea49fb35628fb5046f61c406cac581bff7432e22548e185848442604051610540949392919061141c565b60405180910390a15b5050505050565b60605f808360405161056291906110d0565b908152602001604051809103902090505f815f0180549050116105ba576040517f08c379a00000000000000000000000000000000000000000000000000000000081526004016105b190611285565b60405180910390fd5b5f815f018054905067ffffffffffffffff8111156105db576105da610acb565b5b6040519080825280602002602001820160405280156106095781602001602082028036833780820191505090505b5090505f5b825f01805490508110156106ff575f835f0182815481106106325761063161114e565b5b905f5260205f20015f9054906101000a900473ffffffffffffffffffffffffffffffffffffffff1690505f8173ffffffffffffffffffffffffffffffffffffffff1663feaf968c6040518163ffffffff1660e01b815260040160a060405180830381865afa1580156106a6573d5f803e3d5ffd5b505050506040513d601f19601f820116820180604052508101906106ca9190611329565b505050915050808484815181106106e4576106e361114e565b5b6020026020010181815250505050808060010191505061060e565b508092505050919050565b5f808360405161071a91906110d0565b90815260200160405180910390205f01805490501161076e576040517f08c379a000000000000000000000000000000000000000000000000000000000815260040161076590611285565b60405180910390fd5b805f8360405161077e91906110d0565b9081526020016040518091039020600101819055505f80836040516107a391906110d0565b90815260200160405180910390206002015f6101000a81548160ff0219169083151502179055505050565b5f818051602081018201805184825260208301602085012081835280955050505050505f91509050806001015490806002015f9054906101000a900460ff16905082565b5f808360405161082291906110d0565b90815260200160405180910390205f018054905011610876576040517f08c379a000000000000000000000000000000000000000000000000000000000815260040161086d90611285565b60405180910390fd5b5f8151116108b9576040517f08c379a00000000000000000000000000000000000000000000000000000000081526004016108b090611060565b60405180910390fd5b5f5b8151811015610959575f73ffffffffffffffffffffffffffffffffffffffff168282815181106108ee576108ed61114e565b5b602002602001015173ffffffffffffffffffffffffffffffffffffffff160361094c576040517f08c379a0000000000000000000000000000000000000000000000000000000008152600401610943906111c5565b60405180910390fd5b80806001019150506108bb565b50805f8360405161096a91906110d0565b90815260200160405180910390205f01908051906020019061098d929190610a00565b505f808360405161099e91906110d0565b90815260200160405180910390206002015f6101000a81548160ff0219169083151502179055507ff19fcb24ade3773cba294ca5674168d2693a782deaf237f49ea20c37c9186410826040516109f4919061121b565b60405180910390a15050565b828054828255905f5260205f20908101928215610a76579160200282015b82811115610a75578251825f6101000a81548173ffffffffffffffffffffffffffffffffffffffff021916908373ffffffffffffffffffffffffffffffffffffffff16021790555091602001919060010190610a1e565b5b509050610a839190610a87565b5090565b5b80821115610a9e575f815f905550600101610a88565b5090565b5f604051905090565b5f80fd5b5f80fd5b5f80fd5b5f80fd5b5f601f19601f8301169050919050565b7f4e487b71000000000000000000000000000000000000000000000000000000005f52604160045260245ffd5b610b0182610abb565b810181811067ffffffffffffffff82111715610b2057610b1f610acb565b5b80604052505050565b5f610b32610aa2565b9050610b3e8282610af8565b919050565b5f67ffffffffffffffff821115610b5d57610b5c610acb565b5b610b6682610abb565b9050602081019050919050565b828183375f83830152505050565b5f610b93610b8e84610b43565b610b29565b905082815260208101848484011115610baf57610bae610ab7565b5b610bba848285610b73565b509392505050565b5f82601f830112610bd657610bd5610ab3565b5b8135610be6848260208601610b81565b91505092915050565b5f67ffffffffffffffff821115610c0957610c08610acb565b5b602082029050602081019050919050565b5f80fd5b5f73ffffffffffffffffffffffffffffffffffffffff82169050919050565b5f610c4782610c1e565b9050919050565b610c5781610c3d565b8114610c61575f80fd5b50565b5f81359050610c7281610c4e565b92915050565b5f610c8a610c8584610bef565b610b29565b90508083825260208201905060208402830185811115610cad57610cac610c1a565b5b835b81811015610cd65780610cc28882610c64565b845260208401935050602081019050610caf565b5050509392505050565b5f82601f830112610cf457610cf3610ab3565b5b8135610d04848260208601610c78565b91505092915050565b5f819050919050565b610d1f81610d0d565b8114610d29575f80fd5b50565b5f81359050610d3a81610d16565b92915050565b5f805f60608486031215610d5757610d56610aab565b5b5f84013567ffffffffffffffff811115610d7457610d73610aaf565b5b610d8086828701610bc2565b935050602084013567ffffffffffffffff811115610da157610da0610aaf565b5b610dad86828701610ce0565b9250506040610dbe86828701610d2c565b9150509250925092565b5f60208284031215610ddd57610ddc610aab565b5b5f82013567ffffffffffffffff811115610dfa57610df9610aaf565b5b610e0684828501610bc2565b91505092915050565b5f81519050919050565b5f82825260208201905092915050565b5f819050602082019050919050565b610e4181610d0d565b82525050565b5f610e528383610e38565b60208301905092915050565b5f602082019050919050565b5f610e7482610e0f565b610e7e8185610e19565b9350610e8983610e29565b805f5b83811015610eb9578151610ea08882610e47565b9750610eab83610e5e565b925050600181019050610e8c565b5085935050505092915050565b5f6020820190508181035f830152610ede8184610e6a565b905092915050565b5f8060408385031215610efc57610efb610aab565b5b5f83013567ffffffffffffffff811115610f1957610f18610aaf565b5b610f2585828601610bc2565b9250506020610f3685828601610d2c565b9150509250929050565b610f4981610d0d565b82525050565b5f8115159050919050565b610f6381610f4f565b82525050565b5f604082019050610f7c5f830185610f40565b610f896020830184610f5a565b9392505050565b5f8060408385031215610fa657610fa5610aab565b5b5f83013567ffffffffffffffff811115610fc357610fc2610aaf565b5b610fcf85828601610bc2565b925050602083013567ffffffffffffffff811115610ff057610fef610aaf565b5b610ffc85828601610ce0565b9150509250929050565b5f82825260208201905092915050565b7f4174206c65617374206f6e6520707269636520666565642072657175697265645f82015250565b5f61104a602083611006565b915061105582611016565b602082019050919050565b5f6020820190508181035f8301526110778161103e565b9050919050565b5f81519050919050565b5f81905092915050565b8281835e5f83830152505050565b5f6110aa8261107e565b6110b48185611088565b93506110c4818560208601611092565b80840191505092915050565b5f6110db82846110a0565b915081905092915050565b7f417373657420616c7265616479206578697374730000000000000000000000005f82015250565b5f61111a601483611006565b9150611125826110e6565b602082019050919050565b5f6020820190508181035f8301526111478161110e565b9050919050565b7f4e487b71000000000000000000000000000000000000000000000000000000005f52603260045260245ffd5b7f496e76616c6964207072696365206665656420616464726573730000000000005f82015250565b5f6111af601a83611006565b91506111ba8261117b565b602082019050919050565b5f6020820190508181035f8301526111dc816111a3565b9050919050565b5f6111ed8261107e565b6111f78185611006565b9350611207818560208601611092565b61121081610abb565b840191505092915050565b5f6020820190508181035f83015261123381846111e3565b905092915050565b7f4173736574206e6f7420666f756e6400000000000000000000000000000000005f82015250565b5f61126f600f83611006565b915061127a8261123b565b602082019050919050565b5f6020820190508181035f83015261129c81611263565b9050919050565b5f69ffffffffffffffffffff82169050919050565b6112c1816112a3565b81146112cb575f80fd5b50565b5f815190506112dc816112b8565b92915050565b5f815190506112f081610d16565b92915050565b5f819050919050565b611308816112f6565b8114611312575f80fd5b50565b5f81519050611323816112ff565b92915050565b5f805f805f60a0868803121561134257611341610aab565b5b5f61134f888289016112ce565b9550506020611360888289016112e2565b945050604061137188828901611315565b935050606061138288828901611315565b9250506080611393888289016112ce565b9150509295509295909350565b7f4e487b71000000000000000000000000000000000000000000000000000000005f52601160045260245ffd5b5f6113d782610d0d565b91506113e283610d0d565b925082820390508181125f8412168282135f851215161715611407576114066113a0565b5b92915050565b611416816112f6565b82525050565b5f6080820190508181035f83015261143481876111e3565b90506114436020830186610f40565b6114506040830185610f40565b61145d606083018461140d565b9594505050505056fea2646970667358221220e8020db7f967b119ad9c8451e94a6ca99d15d5c9066a45d3dc2134b995b40e3f64736f6c634300081a0033",
					"opcodes": "PUSH1 0x80 PUSH1 0x40 MSTORE CALLVALUE DUP1 ISZERO PUSH1 0xE JUMPI PUSH0 DUP1 REVERT JUMPDEST POP PUSH2 0x149C DUP1 PUSH2 0x1C PUSH0 CODECOPY PUSH0 RETURN INVALID PUSH1 0x80 PUSH1 0x40 MSTORE CALLVALUE DUP1 ISZERO PUSH2 0xF JUMPI PUSH0 DUP1 REVERT JUMPDEST POP PUSH1 0x4 CALLDATASIZE LT PUSH2 0x5F JUMPI PUSH0 CALLDATALOAD PUSH1 0xE0 SHR DUP1 PUSH3 0x48680D EQ PUSH2 0x63 JUMPI DUP1 PUSH4 0x17A6CD9D EQ PUSH2 0x7F JUMPI DUP1 PUSH4 0x49723843 EQ PUSH2 0x9B JUMPI DUP1 PUSH4 0x515A8AF4 EQ PUSH2 0xCB JUMPI DUP1 PUSH4 0x85936228 EQ PUSH2 0xE7 JUMPI DUP1 PUSH4 0xA4760383 EQ PUSH2 0x118 JUMPI JUMPDEST PUSH0 DUP1 REVERT JUMPDEST PUSH2 0x7D PUSH1 0x4 DUP1 CALLDATASIZE SUB DUP2 ADD SWAP1 PUSH2 0x78 SWAP2 SWAP1 PUSH2 0xD40 JUMP JUMPDEST PUSH2 0x134 JUMP JUMPDEST STOP JUMPDEST PUSH2 0x99 PUSH1 0x4 DUP1 CALLDATASIZE SUB DUP2 ADD SWAP1 PUSH2 0x94 SWAP2 SWAP1 PUSH2 0xDC8 JUMP JUMPDEST PUSH2 0x339 JUMP JUMPDEST STOP JUMPDEST PUSH2 0xB5 PUSH1 0x4 DUP1 CALLDATASIZE SUB DUP2 ADD SWAP1 PUSH2 0xB0 SWAP2 SWAP1 PUSH2 0xDC8 JUMP JUMPDEST PUSH2 0x550 JUMP JUMPDEST PUSH1 0x40 MLOAD PUSH2 0xC2 SWAP2 SWAP1 PUSH2 0xEC6 JUMP JUMPDEST PUSH1 0x40 MLOAD DUP1 SWAP2 SUB SWAP1 RETURN JUMPDEST PUSH2 0xE5 PUSH1 0x4 DUP1 CALLDATASIZE SUB DUP2 ADD SWAP1 PUSH2 0xE0 SWAP2 SWAP1 PUSH2 0xEE6 JUMP JUMPDEST PUSH2 0x70A JUMP JUMPDEST STOP JUMPDEST PUSH2 0x101 PUSH1 0x4 DUP1 CALLDATASIZE SUB DUP2 ADD SWAP1 PUSH2 0xFC SWAP2 SWAP1 PUSH2 0xDC8 JUMP JUMPDEST PUSH2 0x7CE JUMP JUMPDEST PUSH1 0x40 MLOAD PUSH2 0x10F SWAP3 SWAP2 SWAP1 PUSH2 0xF69 JUMP JUMPDEST PUSH1 0x40 MLOAD DUP1 SWAP2 SUB SWAP1 RETURN JUMPDEST PUSH2 0x132 PUSH1 0x4 DUP1 CALLDATASIZE SUB DUP2 ADD SWAP1 PUSH2 0x12D SWAP2 SWAP1 PUSH2 0xF90 JUMP JUMPDEST PUSH2 0x812 JUMP JUMPDEST STOP JUMPDEST PUSH0 DUP3 MLOAD GT PUSH2 0x177 JUMPI PUSH1 0x40 MLOAD PUSH32 0x8C379A000000000000000000000000000000000000000000000000000000000 DUP2 MSTORE PUSH1 0x4 ADD PUSH2 0x16E SWAP1 PUSH2 0x1060 JUMP JUMPDEST PUSH1 0x40 MLOAD DUP1 SWAP2 SUB SWAP1 REVERT JUMPDEST PUSH0 DUP1 DUP5 PUSH1 0x40 MLOAD PUSH2 0x187 SWAP2 SWAP1 PUSH2 0x10D0 JUMP JUMPDEST SWAP1 DUP2 MSTORE PUSH1 0x20 ADD PUSH1 0x40 MLOAD DUP1 SWAP2 SUB SWAP1 KECCAK256 PUSH0 ADD DUP1 SLOAD SWAP1 POP EQ PUSH2 0x1DB JUMPI PUSH1 0x40 MLOAD PUSH32 0x8C379A000000000000000000000000000000000000000000000000000000000 DUP2 MSTORE PUSH1 0x4 ADD PUSH2 0x1D2 SWAP1 PUSH2 0x1130 JUMP JUMPDEST PUSH1 0x40 MLOAD DUP1 SWAP2 SUB SWAP1 REVERT JUMPDEST PUSH0 JUMPDEST DUP3 MLOAD DUP2 LT ISZERO PUSH2 0x27B JUMPI PUSH0 PUSH20 0xFFFFFFFFFFFFFFFFFFFFFFFFFFFFFFFFFFFFFFFF AND DUP4 DUP3 DUP2 MLOAD DUP2 LT PUSH2 0x210 JUMPI PUSH2 0x20F PUSH2 0x114E JUMP JUMPDEST JUMPDEST PUSH1 0x20 MUL PUSH1 0x20 ADD ADD MLOAD PUSH20 0xFFFFFFFFFFFFFFFFFFFFFFFFFFFFFFFFFFFFFFFF AND SUB PUSH2 0x26E JUMPI PUSH1 0x40 MLOAD PUSH32 0x8C379A000000000000000000000000000000000000000000000000000000000 DUP2 MSTORE PUSH1 0x4 ADD PUSH2 0x265 SWAP1 PUSH2 0x11C5 JUMP JUMPDEST PUSH1 0x40 MLOAD DUP1 SWAP2 SUB SWAP1 REVERT JUMPDEST DUP1 DUP1 PUSH1 0x1 ADD SWAP2 POP POP PUSH2 0x1DD JUMP JUMPDEST POP PUSH1 0x40 MLOAD DUP1 PUSH1 0x60 ADD PUSH1 0x40 MSTORE DUP1 DUP4 DUP2 MSTORE PUSH1 0x20 ADD DUP3 DUP2 MSTORE PUSH1 0x20 ADD PUSH0 ISZERO ISZERO DUP2 MSTORE POP PUSH0 DUP5 PUSH1 0x40 MLOAD PUSH2 0x2A8 SWAP2 SWAP1 PUSH2 0x10D0 JUMP JUMPDEST SWAP1 DUP2 MSTORE PUSH1 0x20 ADD PUSH1 0x40 MLOAD DUP1 SWAP2 SUB SWAP1 KECCAK256 PUSH0 DUP3 ADD MLOAD DUP2 PUSH0 ADD SWAP1 DUP1 MLOAD SWAP1 PUSH1 0x20 ADD SWAP1 PUSH2 0x2D0 SWAP3 SWAP2 SWAP1 PUSH2 0xA00 JUMP JUMPDEST POP PUSH1 0x20 DUP3 ADD MLOAD DUP2 PUSH1 0x1 ADD SSTORE PUSH1 0x40 DUP3 ADD MLOAD DUP2 PUSH1 0x2 ADD PUSH0 PUSH2 0x100 EXP DUP2 SLOAD DUP2 PUSH1 0xFF MUL NOT AND SWAP1 DUP4 ISZERO ISZERO MUL OR SWAP1 SSTORE POP SWAP1 POP POP PUSH32 0x724DF0596D75F7CCA867E95FDADD6C1397E175DC9A54F0A3F46167EC8577ECAE DUP4 PUSH1 0x40 MLOAD PUSH2 0x32C SWAP2 SWAP1 PUSH2 0x121B JUMP JUMPDEST PUSH1 0x40 MLOAD DUP1 SWAP2 SUB SWAP1 LOG1 POP POP POP JUMP JUMPDEST PUSH0 DUP1 DUP3 PUSH1 0x40 MLOAD PUSH2 0x349 SWAP2 SWAP1 PUSH2 0x10D0 JUMP JUMPDEST SWAP1 DUP2 MSTORE PUSH1 0x20 ADD PUSH1 0x40 MLOAD DUP1 SWAP2 SUB SWAP1 KECCAK256 SWAP1 POP PUSH0 DUP2 PUSH0 ADD DUP1 SLOAD SWAP1 POP GT PUSH2 0x3A1 JUMPI PUSH1 0x40 MLOAD PUSH32 0x8C379A000000000000000000000000000000000000000000000000000000000 DUP2 MSTORE PUSH1 0x4 ADD PUSH2 0x398 SWAP1 PUSH2 0x1285 JUMP JUMPDEST PUSH1 0x40 MLOAD DUP1 SWAP2 SUB SWAP1 REVERT JUMPDEST PUSH0 PUSH32 0x7FFFFFFFFFFFFFFFFFFFFFFFFFFFFFFFFFFFFFFFFFFFFFFFFFFFFFFFFFFFFFFF SWAP1 POP PUSH0 PUSH32 0x8000000000000000000000000000000000000000000000000000000000000000 SWAP1 POP PUSH0 JUMPDEST DUP4 PUSH0 ADD DUP1 SLOAD SWAP1 POP DUP2 LT ISZERO PUSH2 0x4D4 JUMPI PUSH0 DUP5 PUSH0 ADD DUP3 DUP2 SLOAD DUP2 LT PUSH2 0x40F JUMPI PUSH2 0x40E PUSH2 0x114E JUMP JUMPDEST JUMPDEST SWAP1 PUSH0 MSTORE PUSH1 0x20 PUSH0 KECCAK256 ADD PUSH0 SWAP1 SLOAD SWAP1 PUSH2 0x100 EXP SWAP1 DIV PUSH20 0xFFFFFFFFFFFFFFFFFFFFFFFFFFFFFFFFFFFFFFFF AND SWAP1 POP PUSH0 DUP2 PUSH20 0xFFFFFFFFFFFFFFFFFFFFFFFFFFFFFFFFFFFFFFFF AND PUSH4 0xFEAF968C PUSH1 0x40 MLOAD DUP2 PUSH4 0xFFFFFFFF AND PUSH1 0xE0 SHL DUP2 MSTORE PUSH1 0x4 ADD PUSH1 0xA0 PUSH1 0x40 MLOAD DUP1 DUP4 SUB DUP2 DUP7 GAS STATICCALL ISZERO DUP1 ISZERO PUSH2 0x483 JUMPI RETURNDATASIZE PUSH0 DUP1 RETURNDATACOPY RETURNDATASIZE PUSH0 REVERT JUMPDEST POP POP POP POP PUSH1 0x40 MLOAD RETURNDATASIZE PUSH1 0x1F NOT PUSH1 0x1F DUP3 ADD AND DUP3 ADD DUP1 PUSH1 0x40 MSTORE POP DUP2 ADD SWAP1 PUSH2 0x4A7 SWAP2 SWAP1 PUSH2 0x1329 JUMP JUMPDEST POP POP POP SWAP2 POP POP DUP5 DUP2 SLT ISZERO PUSH2 0x4B9 JUMPI DUP1 SWAP5 POP JUMPDEST DUP4 DUP2 SGT ISZERO PUSH2 0x4C5 JUMPI DUP1 SWAP4 POP JUMPDEST POP POP DUP1 DUP1 PUSH1 0x1 ADD SWAP2 POP POP PUSH2 0x3EB JUMP JUMPDEST POP PUSH0 DUP3 DUP3 PUSH2 0x4E2 SWAP2 SWAP1 PUSH2 0x13CD JUMP JUMPDEST SWAP1 POP DUP4 PUSH1 0x1 ADD SLOAD DUP2 SLT PUSH2 0x549 JUMPI PUSH1 0x1 DUP5 PUSH1 0x2 ADD PUSH0 PUSH2 0x100 EXP DUP2 SLOAD DUP2 PUSH1 0xFF MUL NOT AND SWAP1 DUP4 ISZERO ISZERO MUL OR SWAP1 SSTORE POP PUSH32 0x9E30CF7894B5421E340EA49FB35628FB5046F61C406CAC581BFF7432E22548E1 DUP6 DUP5 DUP5 TIMESTAMP PUSH1 0x40 MLOAD PUSH2 0x540 SWAP5 SWAP4 SWAP3 SWAP2 SWAP1 PUSH2 0x141C JUMP JUMPDEST PUSH1 0x40 MLOAD DUP1 SWAP2 SUB SWAP1 LOG1 JUMPDEST POP POP POP POP POP JUMP JUMPDEST PUSH1 0x60 PUSH0 DUP1 DUP4 PUSH1 0x40 MLOAD PUSH2 0x562 SWAP2 SWAP1 PUSH2 0x10D0 JUMP JUMPDEST SWAP1 DUP2 MSTORE PUSH1 0x20 ADD PUSH1 0x40 MLOAD DUP1 SWAP2 SUB SWAP1 KECCAK256 SWAP1 POP PUSH0 DUP2 PUSH0 ADD DUP1 SLOAD SWAP1 POP GT PUSH2 0x5BA JUMPI PUSH1 0x40 MLOAD PUSH32 0x8C379A000000000000000000000000000000000000000000000000000000000 DUP2 MSTORE PUSH1 0x4 ADD PUSH2 0x5B1 SWAP1 PUSH2 0x1285 JUMP JUMPDEST PUSH1 0x40 MLOAD DUP1 SWAP2 SUB SWAP1 REVERT JUMPDEST PUSH0 DUP2 PUSH0 ADD DUP1 SLOAD SWAP1 POP PUSH8 0xFFFFFFFFFFFFFFFF DUP2 GT ISZERO PUSH2 0x5DB JUMPI PUSH2 0x5DA PUSH2 0xACB JUMP JUMPDEST JUMPDEST PUSH1 0x40 MLOAD SWAP1 DUP1 DUP3 MSTORE DUP1 PUSH1 0x20 MUL PUSH1 0x20 ADD DUP3 ADD PUSH1 0x40 MSTORE DUP1 ISZERO PUSH2 0x609 JUMPI DUP2 PUSH1 0x20 ADD PUSH1 0x20 DUP3 MUL DUP1 CALLDATASIZE DUP4 CALLDATACOPY DUP1 DUP3 ADD SWAP2 POP POP SWAP1 POP JUMPDEST POP SWAP1 POP PUSH0 JUMPDEST DUP3 PUSH0 ADD DUP1 SLOAD SWAP1 POP DUP2 LT ISZERO PUSH2 0x6FF JUMPI PUSH0 DUP4 PUSH0 ADD DUP3 DUP2 SLOAD DUP2 LT PUSH2 0x632 JUMPI PUSH2 0x631 PUSH2 0x114E JUMP JUMPDEST JUMPDEST SWAP1 PUSH0 MSTORE PUSH1 0x20 PUSH0 KECCAK256 ADD PUSH0 SWAP1 SLOAD SWAP1 PUSH2 0x100 EXP SWAP1 DIV PUSH20 0xFFFFFFFFFFFFFFFFFFFFFFFFFFFFFFFFFFFFFFFF AND SWAP1 POP PUSH0 DUP2 PUSH20 0xFFFFFFFFFFFFFFFFFFFFFFFFFFFFFFFFFFFFFFFF AND PUSH4 0xFEAF968C PUSH1 0x40 MLOAD DUP2 PUSH4 0xFFFFFFFF AND PUSH1 0xE0 SHL DUP2 MSTORE PUSH1 0x4 ADD PUSH1 0xA0 PUSH1 0x40 MLOAD DUP1 DUP4 SUB DUP2 DUP7 GAS STATICCALL ISZERO DUP1 ISZERO PUSH2 0x6A6 JUMPI RETURNDATASIZE PUSH0 DUP1 RETURNDATACOPY RETURNDATASIZE PUSH0 REVERT JUMPDEST POP POP POP POP PUSH1 0x40 MLOAD RETURNDATASIZE PUSH1 0x1F NOT PUSH1 0x1F DUP3 ADD AND DUP3 ADD DUP1 PUSH1 0x40 MSTORE POP DUP2 ADD SWAP1 PUSH2 0x6CA SWAP2 SWAP1 PUSH2 0x1329 JUMP JUMPDEST POP POP POP SWAP2 POP POP DUP1 DUP5 DUP5 DUP2 MLOAD DUP2 LT PUSH2 0x6E4 JUMPI PUSH2 0x6E3 PUSH2 0x114E JUMP JUMPDEST JUMPDEST PUSH1 0x20 MUL PUSH1 0x20 ADD ADD DUP2 DUP2 MSTORE POP POP POP POP DUP1 DUP1 PUSH1 0x1 ADD SWAP2 POP POP PUSH2 0x60E JUMP JUMPDEST POP DUP1 SWAP3 POP POP POP SWAP2 SWAP1 POP JUMP JUMPDEST PUSH0 DUP1 DUP4 PUSH1 0x40 MLOAD PUSH2 0x71A SWAP2 SWAP1 PUSH2 0x10D0 JUMP JUMPDEST SWAP1 DUP2 MSTORE PUSH1 0x20 ADD PUSH1 0x40 MLOAD DUP1 SWAP2 SUB SWAP1 KECCAK256 PUSH0 ADD DUP1 SLOAD SWAP1 POP GT PUSH2 0x76E JUMPI PUSH1 0x40 MLOAD PUSH32 0x8C379A000000000000000000000000000000000000000000000000000000000 DUP2 MSTORE PUSH1 0x4 ADD PUSH2 0x765 SWAP1 PUSH2 0x1285 JUMP JUMPDEST PUSH1 0x40 MLOAD DUP1 SWAP2 SUB SWAP1 REVERT JUMPDEST DUP1 PUSH0 DUP4 PUSH1 0x40 MLOAD PUSH2 0x77E SWAP2 SWAP1 PUSH2 0x10D0 JUMP JUMPDEST SWAP1 DUP2 MSTORE PUSH1 0x20 ADD PUSH1 0x40 MLOAD DUP1 SWAP2 SUB SWAP1 KECCAK256 PUSH1 0x1 ADD DUP2 SWAP1 SSTORE POP PUSH0 DUP1 DUP4 PUSH1 0x40 MLOAD PUSH2 0x7A3 SWAP2 SWAP1 PUSH2 0x10D0 JUMP JUMPDEST SWAP1 DUP2 MSTORE PUSH1 0x20 ADD PUSH1 0x40 MLOAD DUP1 SWAP2 SUB SWAP1 KECCAK256 PUSH1 0x2 ADD PUSH0 PUSH2 0x100 EXP DUP2 SLOAD DUP2 PUSH1 0xFF MUL NOT AND SWAP1 DUP4 ISZERO ISZERO MUL OR SWAP1 SSTORE POP POP POP JUMP JUMPDEST PUSH0 DUP2 DUP1 MLOAD PUSH1 0x20 DUP2 ADD DUP3 ADD DUP1 MLOAD DUP5 DUP3 MSTORE PUSH1 0x20 DUP4 ADD PUSH1 0x20 DUP6 ADD KECCAK256 DUP2 DUP4 MSTORE DUP1 SWAP6 POP POP POP POP POP POP PUSH0 SWAP2 POP SWAP1 POP DUP1 PUSH1 0x1 ADD SLOAD SWAP1 DUP1 PUSH1 0x2 ADD PUSH0 SWAP1 SLOAD SWAP1 PUSH2 0x100 EXP SWAP1 DIV PUSH1 0xFF AND SWAP1 POP DUP3 JUMP JUMPDEST PUSH0 DUP1 DUP4 PUSH1 0x40 MLOAD PUSH2 0x822 SWAP2 SWAP1 PUSH2 0x10D0 JUMP JUMPDEST SWAP1 DUP2 MSTORE PUSH1 0x20 ADD PUSH1 0x40 MLOAD DUP1 SWAP2 SUB SWAP1 KECCAK256 PUSH0 ADD DUP1 SLOAD SWAP1 POP GT PUSH2 0x876 JUMPI PUSH1 0x40 MLOAD PUSH32 0x8C379A000000000000000000000000000000000000000000000000000000000 DUP2 MSTORE PUSH1 0x4 ADD PUSH2 0x86D SWAP1 PUSH2 0x1285 JUMP JUMPDEST PUSH1 0x40 MLOAD DUP1 SWAP2 SUB SWAP1 REVERT JUMPDEST PUSH0 DUP2 MLOAD GT PUSH2 0x8B9 JUMPI PUSH1 0x40 MLOAD PUSH32 0x8C379A000000000000000000000000000000000000000000000000000000000 DUP2 MSTORE PUSH1 0x4 ADD PUSH2 0x8B0 SWAP1 PUSH2 0x1060 JUMP JUMPDEST PUSH1 0x40 MLOAD DUP1 SWAP2 SUB SWAP1 REVERT JUMPDEST PUSH0 JUMPDEST DUP2 MLOAD DUP2 LT ISZERO PUSH2 0x959 JUMPI PUSH0 PUSH20 0xFFFFFFFFFFFFFFFFFFFFFFFFFFFFFFFFFFFFFFFF AND DUP3 DUP3 DUP2 MLOAD DUP2 LT PUSH2 0x8EE JUMPI PUSH2 0x8ED PUSH2 0x114E JUMP JUMPDEST JUMPDEST PUSH1 0x20 MUL PUSH1 0x20 ADD ADD MLOAD PUSH20 0xFFFFFFFFFFFFFFFFFFFFFFFFFFFFFFFFFFFFFFFF AND SUB PUSH2 0x94C JUMPI PUSH1 0x40 MLOAD PUSH32 0x8C379A000000000000000000000000000000000000000000000000000000000 DUP2 MSTORE PUSH1 0x4 ADD PUSH2 0x943 SWAP1 PUSH2 0x11C5 JUMP JUMPDEST PUSH1 0x40 MLOAD DUP1 SWAP2 SUB SWAP1 REVERT JUMPDEST DUP1 DUP1 PUSH1 0x1 ADD SWAP2 POP POP PUSH2 0x8BB JUMP JUMPDEST POP DUP1 PUSH0 DUP4 PUSH1 0x40 MLOAD PUSH2 0x96A SWAP2 SWAP1 PUSH2 0x10D0 JUMP JUMPDEST SWAP1 DUP2 MSTORE PUSH1 0x20 ADD PUSH1 0x40 MLOAD DUP1 SWAP2 SUB SWAP1 KECCAK256 PUSH0 ADD SWAP1 DUP1 MLOAD SWAP1 PUSH1 0x20 ADD SWAP1 PUSH2 0x98D SWAP3 SWAP2 SWAP1 PUSH2 0xA00 JUMP JUMPDEST POP PUSH0 DUP1 DUP4 PUSH1 0x40 MLOAD PUSH2 0x99E SWAP2 SWAP1 PUSH2 0x10D0 JUMP JUMPDEST SWAP1 DUP2 MSTORE PUSH1 0x20 ADD PUSH1 0x40 MLOAD DUP1 SWAP2 SUB SWAP1 KECCAK256 PUSH1 0x2 ADD PUSH0 PUSH2 0x100 EXP DUP2 SLOAD DUP2 PUSH1 0xFF MUL NOT AND SWAP1 DUP4 ISZERO ISZERO MUL OR SWAP1 SSTORE POP PUSH32 0xF19FCB24ADE3773CBA294CA5674168D2693A782DEAF237F49EA20C37C9186410 DUP3 PUSH1 0x40 MLOAD PUSH2 0x9F4 SWAP2 SWAP1 PUSH2 0x121B JUMP JUMPDEST PUSH1 0x40 MLOAD DUP1 SWAP2 SUB SWAP1 LOG1 POP POP JUMP JUMPDEST DUP3 DUP1 SLOAD DUP3 DUP3 SSTORE SWAP1 PUSH0 MSTORE PUSH1 0x20 PUSH0 KECCAK256 SWAP1 DUP2 ADD SWAP3 DUP3 ISZERO PUSH2 0xA76 JUMPI SWAP2 PUSH1 0x20 MUL DUP3 ADD JUMPDEST DUP3 DUP2 GT ISZERO PUSH2 0xA75 JUMPI DUP3 MLOAD DUP3 PUSH0 PUSH2 0x100 EXP DUP2 SLOAD DUP2 PUSH20 0xFFFFFFFFFFFFFFFFFFFFFFFFFFFFFFFFFFFFFFFF MUL NOT AND SWAP1 DUP4 PUSH20 0xFFFFFFFFFFFFFFFFFFFFFFFFFFFFFFFFFFFFFFFF AND MUL OR SWAP1 SSTORE POP SWAP2 PUSH1 0x20 ADD SWAP2 SWAP1 PUSH1 0x1 ADD SWAP1 PUSH2 0xA1E JUMP JUMPDEST JUMPDEST POP SWAP1 POP PUSH2 0xA83 SWAP2 SWAP1 PUSH2 0xA87 JUMP JUMPDEST POP SWAP1 JUMP JUMPDEST JUMPDEST DUP1 DUP3 GT ISZERO PUSH2 0xA9E JUMPI PUSH0 DUP2 PUSH0 SWAP1 SSTORE POP PUSH1 0x1 ADD PUSH2 0xA88 JUMP JUMPDEST POP SWAP1 JUMP JUMPDEST PUSH0 PUSH1 0x40 MLOAD SWAP1 POP SWAP1 JUMP JUMPDEST PUSH0 DUP1 REVERT JUMPDEST PUSH0 DUP1 REVERT JUMPDEST PUSH0 DUP1 REVERT JUMPDEST PUSH0 DUP1 REVERT JUMPDEST PUSH0 PUSH1 0x1F NOT PUSH1 0x1F DUP4 ADD AND SWAP1 POP SWAP2 SWAP1 POP JUMP JUMPDEST PUSH32 0x4E487B7100000000000000000000000000000000000000000000000000000000 PUSH0 MSTORE PUSH1 0x41 PUSH1 0x4 MSTORE PUSH1 0x24 PUSH0 REVERT JUMPDEST PUSH2 0xB01 DUP3 PUSH2 0xABB JUMP JUMPDEST DUP2 ADD DUP2 DUP2 LT PUSH8 0xFFFFFFFFFFFFFFFF DUP3 GT OR ISZERO PUSH2 0xB20 JUMPI PUSH2 0xB1F PUSH2 0xACB JUMP JUMPDEST JUMPDEST DUP1 PUSH1 0x40 MSTORE POP POP POP JUMP JUMPDEST PUSH0 PUSH2 0xB32 PUSH2 0xAA2 JUMP JUMPDEST SWAP1 POP PUSH2 0xB3E DUP3 DUP3 PUSH2 0xAF8 JUMP JUMPDEST SWAP2 SWAP1 POP JUMP JUMPDEST PUSH0 PUSH8 0xFFFFFFFFFFFFFFFF DUP3 GT ISZERO PUSH2 0xB5D JUMPI PUSH2 0xB5C PUSH2 0xACB JUMP JUMPDEST JUMPDEST PUSH2 0xB66 DUP3 PUSH2 0xABB JUMP JUMPDEST SWAP1 POP PUSH1 0x20 DUP2 ADD SWAP1 POP SWAP2 SWAP1 POP JUMP JUMPDEST DUP3 DUP2 DUP4 CALLDATACOPY PUSH0 DUP4 DUP4 ADD MSTORE POP POP POP JUMP JUMPDEST PUSH0 PUSH2 0xB93 PUSH2 0xB8E DUP5 PUSH2 0xB43 JUMP JUMPDEST PUSH2 0xB29 JUMP JUMPDEST SWAP1 POP DUP3 DUP2 MSTORE PUSH1 0x20 DUP2 ADD DUP5 DUP5 DUP5 ADD GT ISZERO PUSH2 0xBAF JUMPI PUSH2 0xBAE PUSH2 0xAB7 JUMP JUMPDEST JUMPDEST PUSH2 0xBBA DUP5 DUP3 DUP6 PUSH2 0xB73 JUMP JUMPDEST POP SWAP4 SWAP3 POP POP POP JUMP JUMPDEST PUSH0 DUP3 PUSH1 0x1F DUP4 ADD SLT PUSH2 0xBD6 JUMPI PUSH2 0xBD5 PUSH2 0xAB3 JUMP JUMPDEST JUMPDEST DUP2 CALLDATALOAD PUSH2 0xBE6 DUP5 DUP3 PUSH1 0x20 DUP7 ADD PUSH2 0xB81 JUMP JUMPDEST SWAP2 POP POP SWAP3 SWAP2 POP POP JUMP JUMPDEST PUSH0 PUSH8 0xFFFFFFFFFFFFFFFF DUP3 GT ISZERO PUSH2 0xC09 JUMPI PUSH2 0xC08 PUSH2 0xACB JUMP JUMPDEST JUMPDEST PUSH1 0x20 DUP3 MUL SWAP1 POP PUSH1 0x20 DUP2 ADD SWAP1 POP SWAP2 SWAP1 POP JUMP JUMPDEST PUSH0 DUP1 REVERT JUMPDEST PUSH0 PUSH20 0xFFFFFFFFFFFFFFFFFFFFFFFFFFFFFFFFFFFFFFFF DUP3 AND SWAP1 POP SWAP2 SWAP1 POP JUMP JUMPDEST PUSH0 PUSH2 0xC47 DUP3 PUSH2 0xC1E JUMP JUMPDEST SWAP1 POP SWAP2 SWAP1 POP JUMP JUMPDEST PUSH2 0xC57 DUP2 PUSH2 0xC3D JUMP JUMPDEST DUP2 EQ PUSH2 0xC61 JUMPI PUSH0 DUP1 REVERT JUMPDEST POP JUMP JUMPDEST PUSH0 DUP2 CALLDATALOAD SWAP1 POP PUSH2 0xC72 DUP2 PUSH2 0xC4E JUMP JUMPDEST SWAP3 SWAP2 POP POP JUMP JUMPDEST PUSH0 PUSH2 0xC8A PUSH2 0xC85 DUP5 PUSH2 0xBEF JUMP JUMPDEST PUSH2 0xB29 JUMP JUMPDEST SWAP1 POP DUP1 DUP4 DUP3 MSTORE PUSH1 0x20 DUP3 ADD SWAP1 POP PUSH1 0x20 DUP5 MUL DUP4 ADD DUP6 DUP2 GT ISZERO PUSH2 0xCAD JUMPI PUSH2 0xCAC PUSH2 0xC1A JUMP JUMPDEST JUMPDEST DUP4 JUMPDEST DUP2 DUP2 LT ISZERO PUSH2 0xCD6 JUMPI DUP1 PUSH2 0xCC2 DUP9 DUP3 PUSH2 0xC64 JUMP JUMPDEST DUP5 MSTORE PUSH1 0x20 DUP5 ADD SWAP4 POP POP PUSH1 0x20 DUP2 ADD SWAP1 POP PUSH2 0xCAF JUMP JUMPDEST POP POP POP SWAP4 SWAP3 POP POP POP JUMP JUMPDEST PUSH0 DUP3 PUSH1 0x1F DUP4 ADD SLT PUSH2 0xCF4 JUMPI PUSH2 0xCF3 PUSH2 0xAB3 JUMP JUMPDEST JUMPDEST DUP2 CALLDATALOAD PUSH2 0xD04 DUP5 DUP3 PUSH1 0x20 DUP7 ADD PUSH2 0xC78 JUMP JUMPDEST SWAP2 POP POP SWAP3 SWAP2 POP POP JUMP JUMPDEST PUSH0 DUP2 SWAP1 POP SWAP2 SWAP1 POP JUMP JUMPDEST PUSH2 0xD1F DUP2 PUSH2 0xD0D JUMP JUMPDEST DUP2 EQ PUSH2 0xD29 JUMPI PUSH0 DUP1 REVERT JUMPDEST POP JUMP JUMPDEST PUSH0 DUP2 CALLDATALOAD SWAP1 POP PUSH2 0xD3A DUP2 PUSH2 0xD16 JUMP JUMPDEST SWAP3 SWAP2 POP POP JUMP JUMPDEST PUSH0 DUP1 PUSH0 PUSH1 0x60 DUP5 DUP7 SUB SLT ISZERO PUSH2 0xD57 JUMPI PUSH2 0xD56 PUSH2 0xAAB JUMP JUMPDEST JUMPDEST PUSH0 DUP5 ADD CALLDATALOAD PUSH8 0xFFFFFFFFFFFFFFFF DUP2 GT ISZERO PUSH2 0xD74 JUMPI PUSH2 0xD73 PUSH2 0xAAF JUMP JUMPDEST JUMPDEST PUSH2 0xD80 DUP7 DUP3 DUP8 ADD PUSH2 0xBC2 JUMP JUMPDEST SWAP4 POP POP PUSH1 0x20 DUP5 ADD CALLDATALOAD PUSH8 0xFFFFFFFFFFFFFFFF DUP2 GT ISZERO PUSH2 0xDA1 JUMPI PUSH2 0xDA0 PUSH2 0xAAF JUMP JUMPDEST JUMPDEST PUSH2 0xDAD DUP7 DUP3 DUP8 ADD PUSH2 0xCE0 JUMP JUMPDEST SWAP3 POP POP PUSH1 0x40 PUSH2 0xDBE DUP7 DUP3 DUP8 ADD PUSH2 0xD2C JUMP JUMPDEST SWAP2 POP POP SWAP3 POP SWAP3 POP SWAP3 JUMP JUMPDEST PUSH0 PUSH1 0x20 DUP3 DUP5 SUB SLT ISZERO PUSH2 0xDDD JUMPI PUSH2 0xDDC PUSH2 0xAAB JUMP JUMPDEST JUMPDEST PUSH0 DUP3 ADD CALLDATALOAD PUSH8 0xFFFFFFFFFFFFFFFF DUP2 GT ISZERO PUSH2 0xDFA JUMPI PUSH2 0xDF9 PUSH2 0xAAF JUMP JUMPDEST JUMPDEST PUSH2 0xE06 DUP5 DUP3 DUP6 ADD PUSH2 0xBC2 JUMP JUMPDEST SWAP2 POP POP SWAP3 SWAP2 POP POP JUMP JUMPDEST PUSH0 DUP2 MLOAD SWAP1 POP SWAP2 SWAP1 POP JUMP JUMPDEST PUSH0 DUP3 DUP3 MSTORE PUSH1 0x20 DUP3 ADD SWAP1 POP SWAP3 SWAP2 POP POP JUMP JUMPDEST PUSH0 DUP2 SWAP1 POP PUSH1 0x20 DUP3 ADD SWAP1 POP SWAP2 SWAP1 POP JUMP JUMPDEST PUSH2 0xE41 DUP2 PUSH2 0xD0D JUMP JUMPDEST DUP3 MSTORE POP POP JUMP JUMPDEST PUSH0 PUSH2 0xE52 DUP4 DUP4 PUSH2 0xE38 JUMP JUMPDEST PUSH1 0x20 DUP4 ADD SWAP1 POP SWAP3 SWAP2 POP POP JUMP JUMPDEST PUSH0 PUSH1 0x20 DUP3 ADD SWAP1 POP SWAP2 SWAP1 POP JUMP JUMPDEST PUSH0 PUSH2 0xE74 DUP3 PUSH2 0xE0F JUMP JUMPDEST PUSH2 0xE7E DUP2 DUP6 PUSH2 0xE19 JUMP JUMPDEST SWAP4 POP PUSH2 0xE89 DUP4 PUSH2 0xE29 JUMP JUMPDEST DUP1 PUSH0 JUMPDEST DUP4 DUP2 LT ISZERO PUSH2 0xEB9 JUMPI DUP2 MLOAD PUSH2 0xEA0 DUP9 DUP3 PUSH2 0xE47 JUMP JUMPDEST SWAP8 POP PUSH2 0xEAB DUP4 PUSH2 0xE5E JUMP JUMPDEST SWAP3 POP POP PUSH1 0x1 DUP2 ADD SWAP1 POP PUSH2 0xE8C JUMP JUMPDEST POP DUP6 SWAP4 POP POP POP POP SWAP3 SWAP2 POP POP JUMP JUMPDEST PUSH0 PUSH1 0x20 DUP3 ADD SWAP1 POP DUP2 DUP2 SUB PUSH0 DUP4 ADD MSTORE PUSH2 0xEDE DUP2 DUP5 PUSH2 0xE6A JUMP JUMPDEST SWAP1 POP SWAP3 SWAP2 POP POP JUMP JUMPDEST PUSH0 DUP1 PUSH1 0x40 DUP4 DUP6 SUB SLT ISZERO PUSH2 0xEFC JUMPI PUSH2 0xEFB PUSH2 0xAAB JUMP JUMPDEST JUMPDEST PUSH0 DUP4 ADD CALLDATALOAD PUSH8 0xFFFFFFFFFFFFFFFF DUP2 GT ISZERO PUSH2 0xF19 JUMPI PUSH2 0xF18 PUSH2 0xAAF JUMP JUMPDEST JUMPDEST PUSH2 0xF25 DUP6 DUP3 DUP7 ADD PUSH2 0xBC2 JUMP JUMPDEST SWAP3 POP POP PUSH1 0x20 PUSH2 0xF36 DUP6 DUP3 DUP7 ADD PUSH2 0xD2C JUMP JUMPDEST SWAP2 POP POP SWAP3 POP SWAP3 SWAP1 POP JUMP JUMPDEST PUSH2 0xF49 DUP2 PUSH2 0xD0D JUMP JUMPDEST DUP3 MSTORE POP POP JUMP JUMPDEST PUSH0 DUP2 ISZERO ISZERO SWAP1 POP SWAP2 SWAP1 POP JUMP JUMPDEST PUSH2 0xF63 DUP2 PUSH2 0xF4F JUMP JUMPDEST DUP3 MSTORE POP POP JUMP JUMPDEST PUSH0 PUSH1 0x40 DUP3 ADD SWAP1 POP PUSH2 0xF7C PUSH0 DUP4 ADD DUP6 PUSH2 0xF40 JUMP JUMPDEST PUSH2 0xF89 PUSH1 0x20 DUP4 ADD DUP5 PUSH2 0xF5A JUMP JUMPDEST SWAP4 SWAP3 POP POP POP JUMP JUMPDEST PUSH0 DUP1 PUSH1 0x40 DUP4 DUP6 SUB SLT ISZERO PUSH2 0xFA6 JUMPI PUSH2 0xFA5 PUSH2 0xAAB JUMP JUMPDEST JUMPDEST PUSH0 DUP4 ADD CALLDATALOAD PUSH8 0xFFFFFFFFFFFFFFFF DUP2 GT ISZERO PUSH2 0xFC3 JUMPI PUSH2 0xFC2 PUSH2 0xAAF JUMP JUMPDEST JUMPDEST PUSH2 0xFCF DUP6 DUP3 DUP7 ADD PUSH2 0xBC2 JUMP JUMPDEST SWAP3 POP POP PUSH1 0x20 DUP4 ADD CALLDATALOAD PUSH8 0xFFFFFFFFFFFFFFFF DUP2 GT ISZERO PUSH2 0xFF0 JUMPI PUSH2 0xFEF PUSH2 0xAAF JUMP JUMPDEST JUMPDEST PUSH2 0xFFC DUP6 DUP3 DUP7 ADD PUSH2 0xCE0 JUMP JUMPDEST SWAP2 POP POP SWAP3 POP SWAP3 SWAP1 POP JUMP JUMPDEST PUSH0 DUP3 DUP3 MSTORE PUSH1 0x20 DUP3 ADD SWAP1 POP SWAP3 SWAP2 POP POP JUMP JUMPDEST PUSH32 0x4174206C65617374206F6E652070726963652066656564207265717569726564 PUSH0 DUP3 ADD MSTORE POP JUMP JUMPDEST PUSH0 PUSH2 0x104A PUSH1 0x20 DUP4 PUSH2 0x1006 JUMP JUMPDEST SWAP2 POP PUSH2 0x1055 DUP3 PUSH2 0x1016 JUMP JUMPDEST PUSH1 0x20 DUP3 ADD SWAP1 POP SWAP2 SWAP1 POP JUMP JUMPDEST PUSH0 PUSH1 0x20 DUP3 ADD SWAP1 POP DUP2 DUP2 SUB PUSH0 DUP4 ADD MSTORE PUSH2 0x1077 DUP2 PUSH2 0x103E JUMP JUMPDEST SWAP1 POP SWAP2 SWAP1 POP JUMP JUMPDEST PUSH0 DUP2 MLOAD SWAP1 POP SWAP2 SWAP1 POP JUMP JUMPDEST PUSH0 DUP2 SWAP1 POP SWAP3 SWAP2 POP POP JUMP JUMPDEST DUP3 DUP2 DUP4 MCOPY PUSH0 DUP4 DUP4 ADD MSTORE POP POP POP JUMP JUMPDEST PUSH0 PUSH2 0x10AA DUP3 PUSH2 0x107E JUMP JUMPDEST PUSH2 0x10B4 DUP2 DUP6 PUSH2 0x1088 JUMP JUMPDEST SWAP4 POP PUSH2 0x10C4 DUP2 DUP6 PUSH1 0x20 DUP7 ADD PUSH2 0x1092 JUMP JUMPDEST DUP1 DUP5 ADD SWAP2 POP POP SWAP3 SWAP2 POP POP JUMP JUMPDEST PUSH0 PUSH2 0x10DB DUP3 DUP5 PUSH2 0x10A0 JUMP JUMPDEST SWAP2 POP DUP2 SWAP1 POP SWAP3 SWAP2 POP POP JUMP JUMPDEST PUSH32 0x417373657420616C726561647920657869737473000000000000000000000000 PUSH0 DUP3 ADD MSTORE POP JUMP JUMPDEST PUSH0 PUSH2 0x111A PUSH1 0x14 DUP4 PUSH2 0x1006 JUMP JUMPDEST SWAP2 POP PUSH2 0x1125 DUP3 PUSH2 0x10E6 JUMP JUMPDEST PUSH1 0x20 DUP3 ADD SWAP1 POP SWAP2 SWAP1 POP JUMP JUMPDEST PUSH0 PUSH1 0x20 DUP3 ADD SWAP1 POP DUP2 DUP2 SUB PUSH0 DUP4 ADD MSTORE PUSH2 0x1147 DUP2 PUSH2 0x110E JUMP JUMPDEST SWAP1 POP SWAP2 SWAP1 POP JUMP JUMPDEST PUSH32 0x4E487B7100000000000000000000000000000000000000000000000000000000 PUSH0 MSTORE PUSH1 0x32 PUSH1 0x4 MSTORE PUSH1 0x24 PUSH0 REVERT JUMPDEST PUSH32 0x496E76616C696420707269636520666565642061646472657373000000000000 PUSH0 DUP3 ADD MSTORE POP JUMP JUMPDEST PUSH0 PUSH2 0x11AF PUSH1 0x1A DUP4 PUSH2 0x1006 JUMP JUMPDEST SWAP2 POP PUSH2 0x11BA DUP3 PUSH2 0x117B JUMP JUMPDEST PUSH1 0x20 DUP3 ADD SWAP1 POP SWAP2 SWAP1 POP JUMP JUMPDEST PUSH0 PUSH1 0x20 DUP3 ADD SWAP1 POP DUP2 DUP2 SUB PUSH0 DUP4 ADD MSTORE PUSH2 0x11DC DUP2 PUSH2 0x11A3 JUMP JUMPDEST SWAP1 POP SWAP2 SWAP1 POP JUMP JUMPDEST PUSH0 PUSH2 0x11ED DUP3 PUSH2 0x107E JUMP JUMPDEST PUSH2 0x11F7 DUP2 DUP6 PUSH2 0x1006 JUMP JUMPDEST SWAP4 POP PUSH2 0x1207 DUP2 DUP6 PUSH1 0x20 DUP7 ADD PUSH2 0x1092 JUMP JUMPDEST PUSH2 0x1210 DUP2 PUSH2 0xABB JUMP JUMPDEST DUP5 ADD SWAP2 POP POP SWAP3 SWAP2 POP POP JUMP JUMPDEST PUSH0 PUSH1 0x20 DUP3 ADD SWAP1 POP DUP2 DUP2 SUB PUSH0 DUP4 ADD MSTORE PUSH2 0x1233 DUP2 DUP5 PUSH2 0x11E3 JUMP JUMPDEST SWAP1 POP SWAP3 SWAP2 POP POP JUMP JUMPDEST PUSH32 0x4173736574206E6F7420666F756E640000000000000000000000000000000000 PUSH0 DUP3 ADD MSTORE POP JUMP JUMPDEST PUSH0 PUSH2 0x126F PUSH1 0xF DUP4 PUSH2 0x1006 JUMP JUMPDEST SWAP2 POP PUSH2 0x127A DUP3 PUSH2 0x123B JUMP JUMPDEST PUSH1 0x20 DUP3 ADD SWAP1 POP SWAP2 SWAP1 POP JUMP JUMPDEST PUSH0 PUSH1 0x20 DUP3 ADD SWAP1 POP DUP2 DUP2 SUB PUSH0 DUP4 ADD MSTORE PUSH2 0x129C DUP2 PUSH2 0x1263 JUMP JUMPDEST SWAP1 POP SWAP2 SWAP1 POP JUMP JUMPDEST PUSH0 PUSH10 0xFFFFFFFFFFFFFFFFFFFF DUP3 AND SWAP1 POP SWAP2 SWAP1 POP JUMP JUMPDEST PUSH2 0x12C1 DUP2 PUSH2 0x12A3 JUMP JUMPDEST DUP2 EQ PUSH2 0x12CB JUMPI PUSH0 DUP1 REVERT JUMPDEST POP JUMP JUMPDEST PUSH0 DUP2 MLOAD SWAP1 POP PUSH2 0x12DC DUP2 PUSH2 0x12B8 JUMP JUMPDEST SWAP3 SWAP2 POP POP JUMP JUMPDEST PUSH0 DUP2 MLOAD SWAP1 POP PUSH2 0x12F0 DUP2 PUSH2 0xD16 JUMP JUMPDEST SWAP3 SWAP2 POP POP JUMP JUMPDEST PUSH0 DUP2 SWAP1 POP SWAP2 SWAP1 POP JUMP JUMPDEST PUSH2 0x1308 DUP2 PUSH2 0x12F6 JUMP JUMPDEST DUP2 EQ PUSH2 0x1312 JUMPI PUSH0 DUP1 REVERT JUMPDEST POP JUMP JUMPDEST PUSH0 DUP2 MLOAD SWAP1 POP PUSH2 0x1323 DUP2 PUSH2 0x12FF JUMP JUMPDEST SWAP3 SWAP2 POP POP JUMP JUMPDEST PUSH0 DUP1 PUSH0 DUP1 PUSH0 PUSH1 0xA0 DUP7 DUP9 SUB SLT ISZERO PUSH2 0x1342 JUMPI PUSH2 0x1341 PUSH2 0xAAB JUMP JUMPDEST JUMPDEST PUSH0 PUSH2 0x134F DUP9 DUP3 DUP10 ADD PUSH2 0x12CE JUMP JUMPDEST SWAP6 POP POP PUSH1 0x20 PUSH2 0x1360 DUP9 DUP3 DUP10 ADD PUSH2 0x12E2 JUMP JUMPDEST SWAP5 POP POP PUSH1 0x40 PUSH2 0x1371 DUP9 DUP3 DUP10 ADD PUSH2 0x1315 JUMP JUMPDEST SWAP4 POP POP PUSH1 0x60 PUSH2 0x1382 DUP9 DUP3 DUP10 ADD PUSH2 0x1315 JUMP JUMPDEST SWAP3 POP POP PUSH1 0x80 PUSH2 0x1393 DUP9 DUP3 DUP10 ADD PUSH2 0x12CE JUMP JUMPDEST SWAP2 POP POP SWAP3 SWAP6 POP SWAP3 SWAP6 SWAP1 SWAP4 POP JUMP JUMPDEST PUSH32 0x4E487B7100000000000000000000000000000000000000000000000000000000 PUSH0 MSTORE PUSH1 0x11 PUSH1 0x4 MSTORE PUSH1 0x24 PUSH0 REVERT JUMPDEST PUSH0 PUSH2 0x13D7 DUP3 PUSH2 0xD0D JUMP JUMPDEST SWAP2 POP PUSH2 0x13E2 DUP4 PUSH2 0xD0D JUMP JUMPDEST SWAP3 POP DUP3 DUP3 SUB SWAP1 POP DUP2 DUP2 SLT PUSH0 DUP5 SLT AND DUP3 DUP3 SGT PUSH0 DUP6 SLT ISZERO AND OR ISZERO PUSH2 0x1407 JUMPI PUSH2 0x1406 PUSH2 0x13A0 JUMP JUMPDEST JUMPDEST SWAP3 SWAP2 POP POP JUMP JUMPDEST PUSH2 0x1416 DUP2 PUSH2 0x12F6 JUMP JUMPDEST DUP3 MSTORE POP POP JUMP JUMPDEST PUSH0 PUSH1 0x80 DUP3 ADD SWAP1 POP DUP2 DUP2 SUB PUSH0 DUP4 ADD MSTORE PUSH2 0x1434 DUP2 DUP8 PUSH2 0x11E3 JUMP JUMPDEST SWAP1 POP PUSH2 0x1443 PUSH1 0x20 DUP4 ADD DUP7 PUSH2 0xF40 JUMP JUMPDEST PUSH2 0x1450 PUSH1 0x40 DUP4 ADD DUP6 PUSH2 0xF40 JUMP JUMPDEST PUSH2 0x145D PUSH1 0x60 DUP4 ADD DUP5 PUSH2 0x140D JUMP JUMPDEST SWAP6 SWAP5 POP POP POP POP POP JUMP INVALID LOG2 PUSH5 0x6970667358 0x22 SLT KECCAK256 0xE8 MUL 0xD 0xB7 0xF9 PUSH8 0xB119AD9C8451E94A PUSH13 0xA99D15D5C9066A45D3DC2134B9 SWAP6 0xB4 0xE EXTCODEHASH PUSH5 0x736F6C6343 STOP ADDMOD BYTE STOP CALLER "
				},
				"gasEstimates": {
					"creation": {
						"codeDepositCost": "1055200",
						"executionCost": "1092",
						"totalCost": "1056292"
					},
					"external": {
						"addAsset(string,address[],int256)": "infinite",
						"assets(string)": "infinite",
						"checkArbitrage(string)": "infinite",
						"getLatestPrices(string)": "infinite",
						"updateArbitrageThreshold(string,int256)": "infinite",
						"updatePriceFeeds(string,address[])": "infinite"
					}
				},
				"methodIdentifiers": {
					"addAsset(string,address[],int256)": "0048680d",
					"assets(string)": "85936228",
					"checkArbitrage(string)": "17a6cd9d",
					"getLatestPrices(string)": "49723843",
					"updateArbitrageThreshold(string,int256)": "515a8af4",
					"updatePriceFeeds(string,address[])": "a4760383"
				}
			},
			"storageLayout": {
				"storage": [
					{
						"astId": 61,
						"contract": "contracts/PriceAlarmTracking/ArbitrageAlarmer/MultipleAssetArbitrageAlarm.sol:ArbitragePriceAlert",
						"label": "assets",
						"offset": 0,
						"slot": "0",
						"type": "t_mapping(t_string_memory_ptr,t_struct(Asset)56_storage)"
					}
				],
				"types": {
					"t_address": {
						"encoding": "inplace",
						"label": "address",
						"numberOfBytes": "20"
					},
					"t_array(t_address)dyn_storage": {
						"base": "t_address",
						"encoding": "dynamic_array",
						"label": "address[]",
						"numberOfBytes": "32"
					},
					"t_bool": {
						"encoding": "inplace",
						"label": "bool",
						"numberOfBytes": "1"
					},
					"t_int256": {
						"encoding": "inplace",
						"label": "int256",
						"numberOfBytes": "32"
					},
					"t_mapping(t_string_memory_ptr,t_struct(Asset)56_storage)": {
						"encoding": "mapping",
						"key": "t_string_memory_ptr",
						"label": "mapping(string => struct ArbitragePriceAlert.Asset)",
						"numberOfBytes": "32",
						"value": "t_struct(Asset)56_storage"
					},
					"t_string_memory_ptr": {
						"encoding": "bytes",
						"label": "string",
						"numberOfBytes": "32"
					},
					"t_struct(Asset)56_storage": {
						"encoding": "inplace",
						"label": "struct ArbitragePriceAlert.Asset",
						"members": [
							{
								"astId": 51,
								"contract": "contracts/PriceAlarmTracking/ArbitrageAlarmer/MultipleAssetArbitrageAlarm.sol:ArbitragePriceAlert",
								"label": "priceFeeds",
								"offset": 0,
								"slot": "0",
								"type": "t_array(t_address)dyn_storage"
							},
							{
								"astId": 53,
								"contract": "contracts/PriceAlarmTracking/ArbitrageAlarmer/MultipleAssetArbitrageAlarm.sol:ArbitragePriceAlert",
								"label": "arbitrageThreshold",
								"offset": 0,
								"slot": "1",
								"type": "t_int256"
							},
							{
								"astId": 55,
								"contract": "contracts/PriceAlarmTracking/ArbitrageAlarmer/MultipleAssetArbitrageAlarm.sol:ArbitragePriceAlert",
								"label": "arbitrageOpportunityDetected",
								"offset": 0,
								"slot": "2",
								"type": "t_bool"
							}
						],
						"numberOfBytes": "96"
					}
				}
			},
			"userdoc": {
				"kind": "user",
				"methods": {
					"addAsset(string,address[],int256)": {
						"notice": "Registers a new asset with multiple price feeds and an arbitrage threshold."
					},
					"checkArbitrage(string)": {
						"notice": "Checks for arbitrage opportunities by comparing the latest prices from all feeds. If the difference between the maximum and minimum price is above the threshold, an event is emitted."
					},
					"getLatestPrices(string)": {
						"notice": "Returns the latest prices from all feeds for a given asset."
					},
					"updateArbitrageThreshold(string,int256)": {
						"notice": "Updates the arbitrage threshold for an asset."
					},
					"updatePriceFeeds(string,address[])": {
						"notice": "Updates the list of price feeds for a given asset."
					}
				},
				"version": 1
			}
		}
	}
}