{
	"contracts/Arbitrage/ArbitragePriceMarer.sol": {
		"ArbitrageBenchmark": {
			"abi": [
				{
					"inputs": [
						{
							"internalType": "address",
							"name": "_priceFeed",
							"type": "address"
						}
					],
					"stateMutability": "nonpayable",
					"type": "constructor"
				},
				{
					"anonymous": false,
					"inputs": [
						{
							"indexed": false,
							"internalType": "int256",
							"name": "price",
							"type": "int256"
						},
						{
							"indexed": false,
							"internalType": "uint256",
							"name": "timestamp",
							"type": "uint256"
						},
						{
							"indexed": false,
							"internalType": "uint256",
							"name": "gasUsed",
							"type": "uint256"
						}
					],
					"name": "PriceUpdated",
					"type": "event"
				},
				{
					"inputs": [],
					"name": "getBenchmarkData",
					"outputs": [
						{
							"internalType": "int256",
							"name": "",
							"type": "int256"
						},
						{
							"internalType": "uint256",
							"name": "",
							"type": "uint256"
						},
						{
							"internalType": "uint256",
							"name": "",
							"type": "uint256"
						}
					],
					"stateMutability": "view",
					"type": "function"
				},
				{
					"inputs": [],
					"name": "lastGasUsed",
					"outputs": [
						{
							"internalType": "uint256",
							"name": "",
							"type": "uint256"
						}
					],
					"stateMutability": "view",
					"type": "function"
				},
				{
					"inputs": [],
					"name": "lastUpdated",
					"outputs": [
						{
							"internalType": "uint256",
							"name": "",
							"type": "uint256"
						}
					],
					"stateMutability": "view",
					"type": "function"
				},
				{
					"inputs": [],
					"name": "latestPrice",
					"outputs": [
						{
							"internalType": "int256",
							"name": "",
							"type": "int256"
						}
					],
					"stateMutability": "view",
					"type": "function"
				},
				{
					"inputs": [],
					"name": "updatePrice",
					"outputs": [],
					"stateMutability": "nonpayable",
					"type": "function"
				}
			],
			"devdoc": {
				"kind": "dev",
				"methods": {},
				"title": "Arbitrage Benchmarking Contract",
				"version": 1
			},
			"evm": {
				"assembly": "    /* \"contracts/Arbitrage/ArbitragePriceMarer.sol\":284:1376  contract ArbitrageBenchmark {... */\n  mstore(0x40, 0x80)\n    /* \"contracts/Arbitrage/ArbitragePriceMarer.sol\":539:633  constructor(address _priceFeed) {... */\n  callvalue\n  dup1\n  iszero\n  tag_1\n  jumpi\n  0x00\n  dup1\n  revert\ntag_1:\n  pop\n  mload(0x40)\n  sub(codesize, bytecodeSize)\n  dup1\n  bytecodeSize\n  dup4\n  codecopy\n  dup2\n  dup2\n  add\n  0x40\n  mstore\n  dup2\n  add\n  swap1\n  tag_2\n  swap2\n  swap1\n  tag_3\n  jump\t// in\ntag_2:\n    /* \"contracts/Arbitrage/ArbitragePriceMarer.sol\":615:625  _priceFeed */\n  dup1\n    /* \"contracts/Arbitrage/ArbitragePriceMarer.sol\":581:590  priceFeed */\n  0x00\n  dup1\n    /* \"contracts/Arbitrage/ArbitragePriceMarer.sol\":581:626  priceFeed = AggregatorV3Interface(_priceFeed) */\n  0x0100\n  exp\n  dup2\n  sload\n  dup2\n  0xffffffffffffffffffffffffffffffffffffffff\n  mul\n  not\n  and\n  swap1\n  dup4\n  0xffffffffffffffffffffffffffffffffffffffff\n  and\n  mul\n  or\n  swap1\n  sstore\n  pop\n    /* \"contracts/Arbitrage/ArbitragePriceMarer.sol\":539:633  constructor(address _priceFeed) {... */\n  pop\n    /* \"contracts/Arbitrage/ArbitragePriceMarer.sol\":284:1376  contract ArbitrageBenchmark {... */\n  jump(tag_6)\n    /* \"#utility.yul\":88:205   */\ntag_8:\n    /* \"#utility.yul\":197:198   */\n  0x00\n    /* \"#utility.yul\":194:195   */\n  dup1\n    /* \"#utility.yul\":187:199   */\n  revert\n    /* \"#utility.yul\":334:460   */\ntag_10:\n    /* \"#utility.yul\":371:378   */\n  0x00\n    /* \"#utility.yul\":411:453   */\n  0xffffffffffffffffffffffffffffffffffffffff\n    /* \"#utility.yul\":404:409   */\n  dup3\n    /* \"#utility.yul\":400:454   */\n  and\n    /* \"#utility.yul\":389:454   */\n  swap1\n  pop\n    /* \"#utility.yul\":334:460   */\n  swap2\n  swap1\n  pop\n  jump\t// out\n    /* \"#utility.yul\":466:562   */\ntag_11:\n    /* \"#utility.yul\":503:510   */\n  0x00\n    /* \"#utility.yul\":532:556   */\n  tag_20\n    /* \"#utility.yul\":550:555   */\n  dup3\n    /* \"#utility.yul\":532:556   */\n  tag_10\n  jump\t// in\ntag_20:\n    /* \"#utility.yul\":521:556   */\n  swap1\n  pop\n    /* \"#utility.yul\":466:562   */\n  swap2\n  swap1\n  pop\n  jump\t// out\n    /* \"#utility.yul\":568:690   */\ntag_12:\n    /* \"#utility.yul\":641:665   */\n  tag_22\n    /* \"#utility.yul\":659:664   */\n  dup2\n    /* \"#utility.yul\":641:665   */\n  tag_11\n  jump\t// in\ntag_22:\n    /* \"#utility.yul\":634:639   */\n  dup2\n    /* \"#utility.yul\":631:666   */\n  eq\n    /* \"#utility.yul\":621:684   */\n  tag_23\n  jumpi\n    /* \"#utility.yul\":680:681   */\n  0x00\n    /* \"#utility.yul\":677:678   */\n  dup1\n    /* \"#utility.yul\":670:682   */\n  revert\n    /* \"#utility.yul\":621:684   */\ntag_23:\n    /* \"#utility.yul\":568:690   */\n  pop\n  jump\t// out\n    /* \"#utility.yul\":696:839   */\ntag_13:\n    /* \"#utility.yul\":753:758   */\n  0x00\n    /* \"#utility.yul\":784:790   */\n  dup2\n    /* \"#utility.yul\":778:791   */\n  mload\n    /* \"#utility.yul\":769:791   */\n  swap1\n  pop\n    /* \"#utility.yul\":800:833   */\n  tag_25\n    /* \"#utility.yul\":827:832   */\n  dup2\n    /* \"#utility.yul\":800:833   */\n  tag_12\n  jump\t// in\ntag_25:\n    /* \"#utility.yul\":696:839   */\n  swap3\n  swap2\n  pop\n  pop\n  jump\t// out\n    /* \"#utility.yul\":845:1196   */\ntag_3:\n    /* \"#utility.yul\":915:921   */\n  0x00\n    /* \"#utility.yul\":964:966   */\n  0x20\n    /* \"#utility.yul\":952:961   */\n  dup3\n    /* \"#utility.yul\":943:950   */\n  dup5\n    /* \"#utility.yul\":939:962   */\n  sub\n    /* \"#utility.yul\":935:967   */\n  slt\n    /* \"#utility.yul\":932:1051   */\n  iszero\n  tag_27\n  jumpi\n    /* \"#utility.yul\":970:1049   */\n  tag_28\n  tag_8\n  jump\t// in\ntag_28:\n    /* \"#utility.yul\":932:1051   */\ntag_27:\n    /* \"#utility.yul\":1090:1091   */\n  0x00\n    /* \"#utility.yul\":1115:1179   */\n  tag_29\n    /* \"#utility.yul\":1171:1178   */\n  dup5\n    /* \"#utility.yul\":1162:1168   */\n  dup3\n    /* \"#utility.yul\":1151:1160   */\n  dup6\n    /* \"#utility.yul\":1147:1169   */\n  add\n    /* \"#utility.yul\":1115:1179   */\n  tag_13\n  jump\t// in\ntag_29:\n    /* \"#utility.yul\":1105:1179   */\n  swap2\n  pop\n    /* \"#utility.yul\":1061:1189   */\n  pop\n    /* \"#utility.yul\":845:1196   */\n  swap3\n  swap2\n  pop\n  pop\n  jump\t// out\n    /* \"contracts/Arbitrage/ArbitragePriceMarer.sol\":284:1376  contract ArbitrageBenchmark {... */\ntag_6:\n  dataSize(sub_0)\n  dup1\n  dataOffset(sub_0)\n  0x00\n  codecopy\n  0x00\n  return\nstop\n\nsub_0: assembly {\n        /* \"contracts/Arbitrage/ArbitragePriceMarer.sol\":284:1376  contract ArbitrageBenchmark {... */\n      mstore(0x40, 0x80)\n      callvalue\n      dup1\n      iszero\n      tag_1\n      jumpi\n      0x00\n      dup1\n      revert\n    tag_1:\n      pop\n      jumpi(tag_2, lt(calldatasize, 0x04))\n      shr(0xe0, calldataload(0x00))\n      dup1\n      0x13f0e5ba\n      eq\n      tag_3\n      jumpi\n      dup1\n      0x673a7e28\n      eq\n      tag_4\n      jumpi\n      dup1\n      0x95c570bd\n      eq\n      tag_5\n      jumpi\n      dup1\n      0xa3e6ba94\n      eq\n      tag_6\n      jumpi\n      dup1\n      0xd0b06f5d\n      eq\n      tag_7\n      jumpi\n    tag_2:\n      0x00\n      dup1\n      revert\n        /* \"contracts/Arbitrage/ArbitragePriceMarer.sol\":1236:1374  function getBenchmarkData() public view returns (int256, uint256, uint256) {... */\n    tag_3:\n      tag_8\n      tag_9\n      jump\t// in\n    tag_8:\n      mload(0x40)\n      tag_10\n      swap4\n      swap3\n      swap2\n      swap1\n      tag_11\n      jump\t// in\n    tag_10:\n      mload(0x40)\n      dup1\n      swap2\n      sub\n      swap1\n      return\n        /* \"contracts/Arbitrage/ArbitragePriceMarer.sol\":749:1126  function updatePrice() public {... */\n    tag_4:\n      tag_12\n      tag_13\n      jump\t// in\n    tag_12:\n      stop\n        /* \"contracts/Arbitrage/ArbitragePriceMarer.sol\":431:457  uint256 public lastGasUsed */\n    tag_5:\n      tag_14\n      tag_15\n      jump\t// in\n    tag_14:\n      mload(0x40)\n      tag_16\n      swap2\n      swap1\n      tag_17\n      jump\t// in\n    tag_16:\n      mload(0x40)\n      dup1\n      swap2\n      sub\n      swap1\n      return\n        /* \"contracts/Arbitrage/ArbitragePriceMarer.sol\":368:393  int256 public latestPrice */\n    tag_6:\n      tag_18\n      tag_19\n      jump\t// in\n    tag_18:\n      mload(0x40)\n      tag_20\n      swap2\n      swap1\n      tag_21\n      jump\t// in\n    tag_20:\n      mload(0x40)\n      dup1\n      swap2\n      sub\n      swap1\n      return\n        /* \"contracts/Arbitrage/ArbitragePriceMarer.sol\":399:425  uint256 public lastUpdated */\n    tag_7:\n      tag_22\n      tag_23\n      jump\t// in\n    tag_22:\n      mload(0x40)\n      tag_24\n      swap2\n      swap1\n      tag_17\n      jump\t// in\n    tag_24:\n      mload(0x40)\n      dup1\n      swap2\n      sub\n      swap1\n      return\n        /* \"contracts/Arbitrage/ArbitragePriceMarer.sol\":1236:1374  function getBenchmarkData() public view returns (int256, uint256, uint256) {... */\n    tag_9:\n        /* \"contracts/Arbitrage/ArbitragePriceMarer.sol\":1285:1291  int256 */\n      0x00\n        /* \"contracts/Arbitrage/ArbitragePriceMarer.sol\":1293:1300  uint256 */\n      dup1\n        /* \"contracts/Arbitrage/ArbitragePriceMarer.sol\":1302:1309  uint256 */\n      0x00\n        /* \"contracts/Arbitrage/ArbitragePriceMarer.sol\":1329:1340  latestPrice */\n      sload(0x01)\n        /* \"contracts/Arbitrage/ArbitragePriceMarer.sol\":1342:1353  lastUpdated */\n      sload(0x02)\n        /* \"contracts/Arbitrage/ArbitragePriceMarer.sol\":1355:1366  lastGasUsed */\n      sload(0x03)\n        /* \"contracts/Arbitrage/ArbitragePriceMarer.sol\":1321:1367  return (latestPrice, lastUpdated, lastGasUsed) */\n      swap3\n      pop\n      swap3\n      pop\n      swap3\n      pop\n        /* \"contracts/Arbitrage/ArbitragePriceMarer.sol\":1236:1374  function getBenchmarkData() public view returns (int256, uint256, uint256) {... */\n      swap1\n      swap2\n      swap3\n      jump\t// out\n        /* \"contracts/Arbitrage/ArbitragePriceMarer.sol\":749:1126  function updatePrice() public {... */\n    tag_13:\n        /* \"contracts/Arbitrage/ArbitragePriceMarer.sol\":789:805  uint256 startGas */\n      0x00\n        /* \"contracts/Arbitrage/ArbitragePriceMarer.sol\":808:817  gasleft() */\n      gas\n        /* \"contracts/Arbitrage/ArbitragePriceMarer.sol\":789:817  uint256 startGas = gasleft() */\n      swap1\n      pop\n        /* \"contracts/Arbitrage/ArbitragePriceMarer.sol\":839:851  int256 price */\n      0x00\n        /* \"contracts/Arbitrage/ArbitragePriceMarer.sol\":854:871  uint256 updatedAt */\n      dup1\n        /* \"contracts/Arbitrage/ArbitragePriceMarer.sol\":876:885  priceFeed */\n      0x00\n      dup1\n      sload\n      swap1\n      0x0100\n      exp\n      swap1\n      div\n      0xffffffffffffffffffffffffffffffffffffffff\n      and\n        /* \"contracts/Arbitrage/ArbitragePriceMarer.sol\":876:901  priceFeed.latestRoundData */\n      0xffffffffffffffffffffffffffffffffffffffff\n      and\n      0xfeaf968c\n        /* \"contracts/Arbitrage/ArbitragePriceMarer.sol\":876:903  priceFeed.latestRoundData() */\n      mload(0x40)\n      dup2\n      0xffffffff\n      and\n      0xe0\n      shl\n      dup2\n      mstore\n      0x04\n      add\n      0xa0\n      mload(0x40)\n      dup1\n      dup4\n      sub\n      dup2\n      dup7\n      gas\n      staticcall\n      iszero\n      dup1\n      iszero\n      tag_28\n      jumpi\n      returndatasize\n      0x00\n      dup1\n      returndatacopy\n      revert(0x00, returndatasize)\n    tag_28:\n      pop\n      pop\n      pop\n      pop\n      mload(0x40)\n      returndatasize\n      not(0x1f)\n      0x1f\n      dup3\n      add\n      and\n      dup3\n      add\n      dup1\n      0x40\n      mstore\n      pop\n      dup2\n      add\n      swap1\n      tag_29\n      swap2\n      swap1\n      tag_30\n      jump\t// in\n    tag_29:\n        /* \"contracts/Arbitrage/ArbitragePriceMarer.sol\":836:903  (, int256 price,, uint256 updatedAt,) = priceFeed.latestRoundData() */\n      pop\n      swap4\n      pop\n      pop\n      swap3\n      pop\n      pop\n        /* \"contracts/Arbitrage/ArbitragePriceMarer.sol\":929:930  0 */\n      0x00\n        /* \"contracts/Arbitrage/ArbitragePriceMarer.sol\":921:926  price */\n      dup3\n        /* \"contracts/Arbitrage/ArbitragePriceMarer.sol\":921:930  price > 0 */\n      sgt\n        /* \"contracts/Arbitrage/ArbitragePriceMarer.sol\":913:953  require(price > 0, \"Invalid price data\") */\n      tag_31\n      jumpi\n      mload(0x40)\n      0x08c379a000000000000000000000000000000000000000000000000000000000\n      dup2\n      mstore\n      0x04\n      add\n      tag_32\n      swap1\n      tag_33\n      jump\t// in\n    tag_32:\n      mload(0x40)\n      dup1\n      swap2\n      sub\n      swap1\n      revert\n    tag_31:\n        /* \"contracts/Arbitrage/ArbitragePriceMarer.sol\":978:983  price */\n      dup2\n        /* \"contracts/Arbitrage/ArbitragePriceMarer.sol\":964:975  latestPrice */\n      0x01\n        /* \"contracts/Arbitrage/ArbitragePriceMarer.sol\":964:983  latestPrice = price */\n      dup2\n      swap1\n      sstore\n      pop\n        /* \"contracts/Arbitrage/ArbitragePriceMarer.sol\":1007:1016  updatedAt */\n      dup1\n        /* \"contracts/Arbitrage/ArbitragePriceMarer.sol\":993:1004  lastUpdated */\n      0x02\n        /* \"contracts/Arbitrage/ArbitragePriceMarer.sol\":993:1016  lastUpdated = updatedAt */\n      dup2\n      swap1\n      sstore\n      pop\n        /* \"contracts/Arbitrage/ArbitragePriceMarer.sol\":1051:1060  gasleft() */\n      gas\n        /* \"contracts/Arbitrage/ArbitragePriceMarer.sol\":1040:1048  startGas */\n      dup4\n        /* \"contracts/Arbitrage/ArbitragePriceMarer.sol\":1040:1060  startGas - gasleft() */\n      tag_34\n      swap2\n      swap1\n      tag_35\n      jump\t// in\n    tag_34:\n        /* \"contracts/Arbitrage/ArbitragePriceMarer.sol\":1026:1037  lastGasUsed */\n      0x03\n        /* \"contracts/Arbitrage/ArbitragePriceMarer.sol\":1026:1060  lastGasUsed = startGas - gasleft() */\n      dup2\n      swap1\n      sstore\n      pop\n        /* \"contracts/Arbitrage/ArbitragePriceMarer.sol\":1076:1119  PriceUpdated(price, updatedAt, lastGasUsed) */\n      0x81f77ceccb4c16b8414154d0f897a55e0ac6c28671d8491cfb381f1942893453\n        /* \"contracts/Arbitrage/ArbitragePriceMarer.sol\":1089:1094  price */\n      dup3\n        /* \"contracts/Arbitrage/ArbitragePriceMarer.sol\":1096:1105  updatedAt */\n      dup3\n        /* \"contracts/Arbitrage/ArbitragePriceMarer.sol\":1107:1118  lastGasUsed */\n      sload(0x03)\n        /* \"contracts/Arbitrage/ArbitragePriceMarer.sol\":1076:1119  PriceUpdated(price, updatedAt, lastGasUsed) */\n      mload(0x40)\n      tag_36\n      swap4\n      swap3\n      swap2\n      swap1\n      tag_11\n      jump\t// in\n    tag_36:\n      mload(0x40)\n      dup1\n      swap2\n      sub\n      swap1\n      log1\n        /* \"contracts/Arbitrage/ArbitragePriceMarer.sol\":779:1126  {... */\n      pop\n      pop\n      pop\n        /* \"contracts/Arbitrage/ArbitragePriceMarer.sol\":749:1126  function updatePrice() public {... */\n      jump\t// out\n        /* \"contracts/Arbitrage/ArbitragePriceMarer.sol\":431:457  uint256 public lastGasUsed */\n    tag_15:\n      sload(0x03)\n      dup2\n      jump\t// out\n        /* \"contracts/Arbitrage/ArbitragePriceMarer.sol\":368:393  int256 public latestPrice */\n    tag_19:\n      sload(0x01)\n      dup2\n      jump\t// out\n        /* \"contracts/Arbitrage/ArbitragePriceMarer.sol\":399:425  uint256 public lastUpdated */\n    tag_23:\n      sload(0x02)\n      dup2\n      jump\t// out\n        /* \"#utility.yul\":7:83   */\n    tag_37:\n        /* \"#utility.yul\":43:50   */\n      0x00\n        /* \"#utility.yul\":72:77   */\n      dup2\n        /* \"#utility.yul\":61:77   */\n      swap1\n      pop\n        /* \"#utility.yul\":7:83   */\n      swap2\n      swap1\n      pop\n      jump\t// out\n        /* \"#utility.yul\":89:204   */\n    tag_38:\n        /* \"#utility.yul\":174:197   */\n      tag_58\n        /* \"#utility.yul\":191:196   */\n      dup2\n        /* \"#utility.yul\":174:197   */\n      tag_37\n      jump\t// in\n    tag_58:\n        /* \"#utility.yul\":169:172   */\n      dup3\n        /* \"#utility.yul\":162:198   */\n      mstore\n        /* \"#utility.yul\":89:204   */\n      pop\n      pop\n      jump\t// out\n        /* \"#utility.yul\":210:287   */\n    tag_39:\n        /* \"#utility.yul\":247:254   */\n      0x00\n        /* \"#utility.yul\":276:281   */\n      dup2\n        /* \"#utility.yul\":265:281   */\n      swap1\n      pop\n        /* \"#utility.yul\":210:287   */\n      swap2\n      swap1\n      pop\n      jump\t// out\n        /* \"#utility.yul\":293:411   */\n    tag_40:\n        /* \"#utility.yul\":380:404   */\n      tag_61\n        /* \"#utility.yul\":398:403   */\n      dup2\n        /* \"#utility.yul\":380:404   */\n      tag_39\n      jump\t// in\n    tag_61:\n        /* \"#utility.yul\":375:378   */\n      dup3\n        /* \"#utility.yul\":368:405   */\n      mstore\n        /* \"#utility.yul\":293:411   */\n      pop\n      pop\n      jump\t// out\n        /* \"#utility.yul\":417:855   */\n    tag_11:\n        /* \"#utility.yul\":564:568   */\n      0x00\n        /* \"#utility.yul\":602:604   */\n      0x60\n        /* \"#utility.yul\":591:600   */\n      dup3\n        /* \"#utility.yul\":587:605   */\n      add\n        /* \"#utility.yul\":579:605   */\n      swap1\n      pop\n        /* \"#utility.yul\":615:684   */\n      tag_63\n        /* \"#utility.yul\":681:682   */\n      0x00\n        /* \"#utility.yul\":670:679   */\n      dup4\n        /* \"#utility.yul\":666:683   */\n      add\n        /* \"#utility.yul\":657:663   */\n      dup7\n        /* \"#utility.yul\":615:684   */\n      tag_38\n      jump\t// in\n    tag_63:\n        /* \"#utility.yul\":694:766   */\n      tag_64\n        /* \"#utility.yul\":762:764   */\n      0x20\n        /* \"#utility.yul\":751:760   */\n      dup4\n        /* \"#utility.yul\":747:765   */\n      add\n        /* \"#utility.yul\":738:744   */\n      dup6\n        /* \"#utility.yul\":694:766   */\n      tag_40\n      jump\t// in\n    tag_64:\n        /* \"#utility.yul\":776:848   */\n      tag_65\n        /* \"#utility.yul\":844:846   */\n      0x40\n        /* \"#utility.yul\":833:842   */\n      dup4\n        /* \"#utility.yul\":829:847   */\n      add\n        /* \"#utility.yul\":820:826   */\n      dup5\n        /* \"#utility.yul\":776:848   */\n      tag_40\n      jump\t// in\n    tag_65:\n        /* \"#utility.yul\":417:855   */\n      swap5\n      swap4\n      pop\n      pop\n      pop\n      pop\n      jump\t// out\n        /* \"#utility.yul\":861:1083   */\n    tag_17:\n        /* \"#utility.yul\":954:958   */\n      0x00\n        /* \"#utility.yul\":992:994   */\n      0x20\n        /* \"#utility.yul\":981:990   */\n      dup3\n        /* \"#utility.yul\":977:995   */\n      add\n        /* \"#utility.yul\":969:995   */\n      swap1\n      pop\n        /* \"#utility.yul\":1005:1076   */\n      tag_67\n        /* \"#utility.yul\":1073:1074   */\n      0x00\n        /* \"#utility.yul\":1062:1071   */\n      dup4\n        /* \"#utility.yul\":1058:1075   */\n      add\n        /* \"#utility.yul\":1049:1055   */\n      dup5\n        /* \"#utility.yul\":1005:1076   */\n      tag_40\n      jump\t// in\n    tag_67:\n        /* \"#utility.yul\":861:1083   */\n      swap3\n      swap2\n      pop\n      pop\n      jump\t// out\n        /* \"#utility.yul\":1089:1307   */\n    tag_21:\n        /* \"#utility.yul\":1180:1184   */\n      0x00\n        /* \"#utility.yul\":1218:1220   */\n      0x20\n        /* \"#utility.yul\":1207:1216   */\n      dup3\n        /* \"#utility.yul\":1203:1221   */\n      add\n        /* \"#utility.yul\":1195:1221   */\n      swap1\n      pop\n        /* \"#utility.yul\":1231:1300   */\n      tag_69\n        /* \"#utility.yul\":1297:1298   */\n      0x00\n        /* \"#utility.yul\":1286:1295   */\n      dup4\n        /* \"#utility.yul\":1282:1299   */\n      add\n        /* \"#utility.yul\":1273:1279   */\n      dup5\n        /* \"#utility.yul\":1231:1300   */\n      tag_38\n      jump\t// in\n    tag_69:\n        /* \"#utility.yul\":1089:1307   */\n      swap3\n      swap2\n      pop\n      pop\n      jump\t// out\n        /* \"#utility.yul\":1394:1511   */\n    tag_42:\n        /* \"#utility.yul\":1503:1504   */\n      0x00\n        /* \"#utility.yul\":1500:1501   */\n      dup1\n        /* \"#utility.yul\":1493:1505   */\n      revert\n        /* \"#utility.yul\":1640:1745   */\n    tag_44:\n        /* \"#utility.yul\":1676:1683   */\n      0x00\n        /* \"#utility.yul\":1716:1738   */\n      0xffffffffffffffffffff\n        /* \"#utility.yul\":1709:1714   */\n      dup3\n        /* \"#utility.yul\":1705:1739   */\n      and\n        /* \"#utility.yul\":1694:1739   */\n      swap1\n      pop\n        /* \"#utility.yul\":1640:1745   */\n      swap2\n      swap1\n      pop\n      jump\t// out\n        /* \"#utility.yul\":1751:1871   */\n    tag_45:\n        /* \"#utility.yul\":1823:1846   */\n      tag_75\n        /* \"#utility.yul\":1840:1845   */\n      dup2\n        /* \"#utility.yul\":1823:1846   */\n      tag_44\n      jump\t// in\n    tag_75:\n        /* \"#utility.yul\":1816:1821   */\n      dup2\n        /* \"#utility.yul\":1813:1847   */\n      eq\n        /* \"#utility.yul\":1803:1865   */\n      tag_76\n      jumpi\n        /* \"#utility.yul\":1861:1862   */\n      0x00\n        /* \"#utility.yul\":1858:1859   */\n      dup1\n        /* \"#utility.yul\":1851:1863   */\n      revert\n        /* \"#utility.yul\":1803:1865   */\n    tag_76:\n        /* \"#utility.yul\":1751:1871   */\n      pop\n      jump\t// out\n        /* \"#utility.yul\":1877:2018   */\n    tag_46:\n        /* \"#utility.yul\":1933:1938   */\n      0x00\n        /* \"#utility.yul\":1964:1970   */\n      dup2\n        /* \"#utility.yul\":1958:1971   */\n      mload\n        /* \"#utility.yul\":1949:1971   */\n      swap1\n      pop\n        /* \"#utility.yul\":1980:2012   */\n      tag_78\n        /* \"#utility.yul\":2006:2011   */\n      dup2\n        /* \"#utility.yul\":1980:2012   */\n      tag_45\n      jump\t// in\n    tag_78:\n        /* \"#utility.yul\":1877:2018   */\n      swap3\n      swap2\n      pop\n      pop\n      jump\t// out\n        /* \"#utility.yul\":2024:2144   */\n    tag_47:\n        /* \"#utility.yul\":2096:2119   */\n      tag_80\n        /* \"#utility.yul\":2113:2118   */\n      dup2\n        /* \"#utility.yul\":2096:2119   */\n      tag_37\n      jump\t// in\n    tag_80:\n        /* \"#utility.yul\":2089:2094   */\n      dup2\n        /* \"#utility.yul\":2086:2120   */\n      eq\n        /* \"#utility.yul\":2076:2138   */\n      tag_81\n      jumpi\n        /* \"#utility.yul\":2134:2135   */\n      0x00\n        /* \"#utility.yul\":2131:2132   */\n      dup1\n        /* \"#utility.yul\":2124:2136   */\n      revert\n        /* \"#utility.yul\":2076:2138   */\n    tag_81:\n        /* \"#utility.yul\":2024:2144   */\n      pop\n      jump\t// out\n        /* \"#utility.yul\":2150:2291   */\n    tag_48:\n        /* \"#utility.yul\":2206:2211   */\n      0x00\n        /* \"#utility.yul\":2237:2243   */\n      dup2\n        /* \"#utility.yul\":2231:2244   */\n      mload\n        /* \"#utility.yul\":2222:2244   */\n      swap1\n      pop\n        /* \"#utility.yul\":2253:2285   */\n      tag_83\n        /* \"#utility.yul\":2279:2284   */\n      dup2\n        /* \"#utility.yul\":2253:2285   */\n      tag_47\n      jump\t// in\n    tag_83:\n        /* \"#utility.yul\":2150:2291   */\n      swap3\n      swap2\n      pop\n      pop\n      jump\t// out\n        /* \"#utility.yul\":2297:2419   */\n    tag_49:\n        /* \"#utility.yul\":2370:2394   */\n      tag_85\n        /* \"#utility.yul\":2388:2393   */\n      dup2\n        /* \"#utility.yul\":2370:2394   */\n      tag_39\n      jump\t// in\n    tag_85:\n        /* \"#utility.yul\":2363:2368   */\n      dup2\n        /* \"#utility.yul\":2360:2395   */\n      eq\n        /* \"#utility.yul\":2350:2413   */\n      tag_86\n      jumpi\n        /* \"#utility.yul\":2409:2410   */\n      0x00\n        /* \"#utility.yul\":2406:2407   */\n      dup1\n        /* \"#utility.yul\":2399:2411   */\n      revert\n        /* \"#utility.yul\":2350:2413   */\n    tag_86:\n        /* \"#utility.yul\":2297:2419   */\n      pop\n      jump\t// out\n        /* \"#utility.yul\":2425:2568   */\n    tag_50:\n        /* \"#utility.yul\":2482:2487   */\n      0x00\n        /* \"#utility.yul\":2513:2519   */\n      dup2\n        /* \"#utility.yul\":2507:2520   */\n      mload\n        /* \"#utility.yul\":2498:2520   */\n      swap1\n      pop\n        /* \"#utility.yul\":2529:2562   */\n      tag_88\n        /* \"#utility.yul\":2556:2561   */\n      dup2\n        /* \"#utility.yul\":2529:2562   */\n      tag_49\n      jump\t// in\n    tag_88:\n        /* \"#utility.yul\":2425:2568   */\n      swap3\n      swap2\n      pop\n      pop\n      jump\t// out\n        /* \"#utility.yul\":2574:3545   */\n    tag_30:\n        /* \"#utility.yul\":2677:2683   */\n      0x00\n        /* \"#utility.yul\":2685:2691   */\n      dup1\n        /* \"#utility.yul\":2693:2699   */\n      0x00\n        /* \"#utility.yul\":2701:2707   */\n      dup1\n        /* \"#utility.yul\":2709:2715   */\n      0x00\n        /* \"#utility.yul\":2758:2761   */\n      0xa0\n        /* \"#utility.yul\":2746:2755   */\n      dup7\n        /* \"#utility.yul\":2737:2744   */\n      dup9\n        /* \"#utility.yul\":2733:2756   */\n      sub\n        /* \"#utility.yul\":2729:2762   */\n      slt\n        /* \"#utility.yul\":2726:2846   */\n      iszero\n      tag_90\n      jumpi\n        /* \"#utility.yul\":2765:2844   */\n      tag_91\n      tag_42\n      jump\t// in\n    tag_91:\n        /* \"#utility.yul\":2726:2846   */\n    tag_90:\n        /* \"#utility.yul\":2885:2886   */\n      0x00\n        /* \"#utility.yul\":2910:2973   */\n      tag_92\n        /* \"#utility.yul\":2965:2972   */\n      dup9\n        /* \"#utility.yul\":2956:2962   */\n      dup3\n        /* \"#utility.yul\":2945:2954   */\n      dup10\n        /* \"#utility.yul\":2941:2963   */\n      add\n        /* \"#utility.yul\":2910:2973   */\n      tag_46\n      jump\t// in\n    tag_92:\n        /* \"#utility.yul\":2900:2973   */\n      swap6\n      pop\n        /* \"#utility.yul\":2856:2983   */\n      pop\n        /* \"#utility.yul\":3022:3024   */\n      0x20\n        /* \"#utility.yul\":3048:3111   */\n      tag_93\n        /* \"#utility.yul\":3103:3110   */\n      dup9\n        /* \"#utility.yul\":3094:3100   */\n      dup3\n        /* \"#utility.yul\":3083:3092   */\n      dup10\n        /* \"#utility.yul\":3079:3101   */\n      add\n        /* \"#utility.yul\":3048:3111   */\n      tag_48\n      jump\t// in\n    tag_93:\n        /* \"#utility.yul\":3038:3111   */\n      swap5\n      pop\n        /* \"#utility.yul\":2993:3121   */\n      pop\n        /* \"#utility.yul\":3160:3162   */\n      0x40\n        /* \"#utility.yul\":3186:3250   */\n      tag_94\n        /* \"#utility.yul\":3242:3249   */\n      dup9\n        /* \"#utility.yul\":3233:3239   */\n      dup3\n        /* \"#utility.yul\":3222:3231   */\n      dup10\n        /* \"#utility.yul\":3218:3240   */\n      add\n        /* \"#utility.yul\":3186:3250   */\n      tag_50\n      jump\t// in\n    tag_94:\n        /* \"#utility.yul\":3176:3250   */\n      swap4\n      pop\n        /* \"#utility.yul\":3131:3260   */\n      pop\n        /* \"#utility.yul\":3299:3301   */\n      0x60\n        /* \"#utility.yul\":3325:3389   */\n      tag_95\n        /* \"#utility.yul\":3381:3388   */\n      dup9\n        /* \"#utility.yul\":3372:3378   */\n      dup3\n        /* \"#utility.yul\":3361:3370   */\n      dup10\n        /* \"#utility.yul\":3357:3379   */\n      add\n        /* \"#utility.yul\":3325:3389   */\n      tag_50\n      jump\t// in\n    tag_95:\n        /* \"#utility.yul\":3315:3389   */\n      swap3\n      pop\n        /* \"#utility.yul\":3270:3399   */\n      pop\n        /* \"#utility.yul\":3438:3441   */\n      0x80\n        /* \"#utility.yul\":3465:3528   */\n      tag_96\n        /* \"#utility.yul\":3520:3527   */\n      dup9\n        /* \"#utility.yul\":3511:3517   */\n      dup3\n        /* \"#utility.yul\":3500:3509   */\n      dup10\n        /* \"#utility.yul\":3496:3518   */\n      add\n        /* \"#utility.yul\":3465:3528   */\n      tag_46\n      jump\t// in\n    tag_96:\n        /* \"#utility.yul\":3455:3528   */\n      swap2\n      pop\n        /* \"#utility.yul\":3409:3538   */\n      pop\n        /* \"#utility.yul\":2574:3545   */\n      swap3\n      swap6\n      pop\n      swap3\n      swap6\n      swap1\n      swap4\n      pop\n      jump\t// out\n        /* \"#utility.yul\":3551:3720   */\n    tag_51:\n        /* \"#utility.yul\":3635:3646   */\n      0x00\n        /* \"#utility.yul\":3669:3675   */\n      dup3\n        /* \"#utility.yul\":3664:3667   */\n      dup3\n        /* \"#utility.yul\":3657:3676   */\n      mstore\n        /* \"#utility.yul\":3709:3713   */\n      0x20\n        /* \"#utility.yul\":3704:3707   */\n      dup3\n        /* \"#utility.yul\":3700:3714   */\n      add\n        /* \"#utility.yul\":3685:3714   */\n      swap1\n      pop\n        /* \"#utility.yul\":3551:3720   */\n      swap3\n      swap2\n      pop\n      pop\n      jump\t// out\n        /* \"#utility.yul\":3726:3894   */\n    tag_52:\n        /* \"#utility.yul\":3866:3886   */\n      0x496e76616c696420707269636520646174610000000000000000000000000000\n        /* \"#utility.yul\":3862:3863   */\n      0x00\n        /* \"#utility.yul\":3854:3860   */\n      dup3\n        /* \"#utility.yul\":3850:3864   */\n      add\n        /* \"#utility.yul\":3843:3887   */\n      mstore\n        /* \"#utility.yul\":3726:3894   */\n      pop\n      jump\t// out\n        /* \"#utility.yul\":3900:4266   */\n    tag_53:\n        /* \"#utility.yul\":4042:4045   */\n      0x00\n        /* \"#utility.yul\":4063:4130   */\n      tag_100\n        /* \"#utility.yul\":4127:4129   */\n      0x12\n        /* \"#utility.yul\":4122:4125   */\n      dup4\n        /* \"#utility.yul\":4063:4130   */\n      tag_51\n      jump\t// in\n    tag_100:\n        /* \"#utility.yul\":4056:4130   */\n      swap2\n      pop\n        /* \"#utility.yul\":4139:4232   */\n      tag_101\n        /* \"#utility.yul\":4228:4231   */\n      dup3\n        /* \"#utility.yul\":4139:4232   */\n      tag_52\n      jump\t// in\n    tag_101:\n        /* \"#utility.yul\":4257:4259   */\n      0x20\n        /* \"#utility.yul\":4252:4255   */\n      dup3\n        /* \"#utility.yul\":4248:4260   */\n      add\n        /* \"#utility.yul\":4241:4260   */\n      swap1\n      pop\n        /* \"#utility.yul\":3900:4266   */\n      swap2\n      swap1\n      pop\n      jump\t// out\n        /* \"#utility.yul\":4272:4691   */\n    tag_33:\n        /* \"#utility.yul\":4438:4442   */\n      0x00\n        /* \"#utility.yul\":4476:4478   */\n      0x20\n        /* \"#utility.yul\":4465:4474   */\n      dup3\n        /* \"#utility.yul\":4461:4479   */\n      add\n        /* \"#utility.yul\":4453:4479   */\n      swap1\n      pop\n        /* \"#utility.yul\":4525:4534   */\n      dup2\n        /* \"#utility.yul\":4519:4523   */\n      dup2\n        /* \"#utility.yul\":4515:4535   */\n      sub\n        /* \"#utility.yul\":4511:4512   */\n      0x00\n        /* \"#utility.yul\":4500:4509   */\n      dup4\n        /* \"#utility.yul\":4496:4513   */\n      add\n        /* \"#utility.yul\":4489:4536   */\n      mstore\n        /* \"#utility.yul\":4553:4684   */\n      tag_103\n        /* \"#utility.yul\":4679:4683   */\n      dup2\n        /* \"#utility.yul\":4553:4684   */\n      tag_53\n      jump\t// in\n    tag_103:\n        /* \"#utility.yul\":4545:4684   */\n      swap1\n      pop\n        /* \"#utility.yul\":4272:4691   */\n      swap2\n      swap1\n      pop\n      jump\t// out\n        /* \"#utility.yul\":4697:4877   */\n    tag_54:\n        /* \"#utility.yul\":4745:4822   */\n      0x4e487b7100000000000000000000000000000000000000000000000000000000\n        /* \"#utility.yul\":4742:4743   */\n      0x00\n        /* \"#utility.yul\":4735:4823   */\n      mstore\n        /* \"#utility.yul\":4842:4846   */\n      0x11\n        /* \"#utility.yul\":4839:4840   */\n      0x04\n        /* \"#utility.yul\":4832:4847   */\n      mstore\n        /* \"#utility.yul\":4866:4870   */\n      0x24\n        /* \"#utility.yul\":4863:4864   */\n      0x00\n        /* \"#utility.yul\":4856:4871   */\n      revert\n        /* \"#utility.yul\":4883:5077   */\n    tag_35:\n        /* \"#utility.yul\":4923:4927   */\n      0x00\n        /* \"#utility.yul\":4943:4963   */\n      tag_106\n        /* \"#utility.yul\":4961:4962   */\n      dup3\n        /* \"#utility.yul\":4943:4963   */\n      tag_39\n      jump\t// in\n    tag_106:\n        /* \"#utility.yul\":4938:4963   */\n      swap2\n      pop\n        /* \"#utility.yul\":4977:4997   */\n      tag_107\n        /* \"#utility.yul\":4995:4996   */\n      dup4\n        /* \"#utility.yul\":4977:4997   */\n      tag_39\n      jump\t// in\n    tag_107:\n        /* \"#utility.yul\":4972:4997   */\n      swap3\n      pop\n        /* \"#utility.yul\":5021:5022   */\n      dup3\n        /* \"#utility.yul\":5018:5019   */\n      dup3\n        /* \"#utility.yul\":5014:5023   */\n      sub\n        /* \"#utility.yul\":5006:5023   */\n      swap1\n      pop\n        /* \"#utility.yul\":5045:5046   */\n      dup2\n        /* \"#utility.yul\":5039:5043   */\n      dup2\n        /* \"#utility.yul\":5036:5047   */\n      gt\n        /* \"#utility.yul\":5033:5070   */\n      iszero\n      tag_108\n      jumpi\n        /* \"#utility.yul\":5050:5068   */\n      tag_109\n      tag_54\n      jump\t// in\n    tag_109:\n        /* \"#utility.yul\":5033:5070   */\n    tag_108:\n        /* \"#utility.yul\":4883:5077   */\n      swap3\n      swap2\n      pop\n      pop\n      jump\t// out\n\n    auxdata: 0xa2646970667358221220e737d247ad5f6e37e00ad729c490a2fe6c83ad00d020ff68e2064fc4118a697b64736f6c63430008180033\n}\n",
				"bytecode": {
					"linkReferences": {},
					"object": "608060405234801561000f575f80fd5b50604051610602380380610602833981810160405281019061003191906100d4565b805f806101000a81548173ffffffffffffffffffffffffffffffffffffffff021916908373ffffffffffffffffffffffffffffffffffffffff160217905550506100ff565b5f80fd5b5f73ffffffffffffffffffffffffffffffffffffffff82169050919050565b5f6100a38261007a565b9050919050565b6100b381610099565b81146100bd575f80fd5b50565b5f815190506100ce816100aa565b92915050565b5f602082840312156100e9576100e8610076565b5b5f6100f6848285016100c0565b91505092915050565b6104f68061010c5f395ff3fe608060405234801561000f575f80fd5b5060043610610055575f3560e01c806313f0e5ba14610059578063673a7e281461007957806395c570bd14610083578063a3e6ba94146100a1578063d0b06f5d146100bf575b5f80fd5b6100616100dd565b60405161007093929190610273565b60405180910390f35b6100816100f4565b005b61008b610231565b60405161009891906102a8565b60405180910390f35b6100a9610237565b6040516100b691906102c1565b60405180910390f35b6100c761023d565b6040516100d491906102a8565b60405180910390f35b5f805f600154600254600354925092509250909192565b5f5a90505f805f8054906101000a900473ffffffffffffffffffffffffffffffffffffffff1673ffffffffffffffffffffffffffffffffffffffff1663feaf968c6040518163ffffffff1660e01b815260040160a060405180830381865afa158015610162573d5f803e3d5ffd5b505050506040513d601f19601f820116820180604052508101906101869190610371565b509350509250505f82136101cf576040517f08c379a00000000000000000000000000000000000000000000000000000000081526004016101c690610442565b60405180910390fd5b81600181905550806002819055505a836101e9919061048d565b6003819055507f81f77ceccb4c16b8414154d0f897a55e0ac6c28671d8491cfb381f1942893453828260035460405161022493929190610273565b60405180910390a1505050565b60035481565b60015481565b60025481565b5f819050919050565b61025581610243565b82525050565b5f819050919050565b61026d8161025b565b82525050565b5f6060820190506102865f83018661024c565b6102936020830185610264565b6102a06040830184610264565b949350505050565b5f6020820190506102bb5f830184610264565b92915050565b5f6020820190506102d45f83018461024c565b92915050565b5f80fd5b5f69ffffffffffffffffffff82169050919050565b6102fc816102de565b8114610306575f80fd5b50565b5f81519050610317816102f3565b92915050565b61032681610243565b8114610330575f80fd5b50565b5f815190506103418161031d565b92915050565b6103508161025b565b811461035a575f80fd5b50565b5f8151905061036b81610347565b92915050565b5f805f805f60a0868803121561038a576103896102da565b5b5f61039788828901610309565b95505060206103a888828901610333565b94505060406103b98882890161035d565b93505060606103ca8882890161035d565b92505060806103db88828901610309565b9150509295509295909350565b5f82825260208201905092915050565b7f496e76616c6964207072696365206461746100000000000000000000000000005f82015250565b5f61042c6012836103e8565b9150610437826103f8565b602082019050919050565b5f6020820190508181035f83015261045981610420565b9050919050565b7f4e487b71000000000000000000000000000000000000000000000000000000005f52601160045260245ffd5b5f6104978261025b565b91506104a28361025b565b92508282039050818111156104ba576104b9610460565b5b9291505056fea2646970667358221220e737d247ad5f6e37e00ad729c490a2fe6c83ad00d020ff68e2064fc4118a697b64736f6c63430008180033",
					"opcodes": "PUSH1 0x80 PUSH1 0x40 MSTORE CALLVALUE DUP1 ISZERO PUSH2 0xF JUMPI PUSH0 DUP1 REVERT JUMPDEST POP PUSH1 0x40 MLOAD PUSH2 0x602 CODESIZE SUB DUP1 PUSH2 0x602 DUP4 CODECOPY DUP2 DUP2 ADD PUSH1 0x40 MSTORE DUP2 ADD SWAP1 PUSH2 0x31 SWAP2 SWAP1 PUSH2 0xD4 JUMP JUMPDEST DUP1 PUSH0 DUP1 PUSH2 0x100 EXP DUP2 SLOAD DUP2 PUSH20 0xFFFFFFFFFFFFFFFFFFFFFFFFFFFFFFFFFFFFFFFF MUL NOT AND SWAP1 DUP4 PUSH20 0xFFFFFFFFFFFFFFFFFFFFFFFFFFFFFFFFFFFFFFFF AND MUL OR SWAP1 SSTORE POP POP PUSH2 0xFF JUMP JUMPDEST PUSH0 DUP1 REVERT JUMPDEST PUSH0 PUSH20 0xFFFFFFFFFFFFFFFFFFFFFFFFFFFFFFFFFFFFFFFF DUP3 AND SWAP1 POP SWAP2 SWAP1 POP JUMP JUMPDEST PUSH0 PUSH2 0xA3 DUP3 PUSH2 0x7A JUMP JUMPDEST SWAP1 POP SWAP2 SWAP1 POP JUMP JUMPDEST PUSH2 0xB3 DUP2 PUSH2 0x99 JUMP JUMPDEST DUP2 EQ PUSH2 0xBD JUMPI PUSH0 DUP1 REVERT JUMPDEST POP JUMP JUMPDEST PUSH0 DUP2 MLOAD SWAP1 POP PUSH2 0xCE DUP2 PUSH2 0xAA JUMP JUMPDEST SWAP3 SWAP2 POP POP JUMP JUMPDEST PUSH0 PUSH1 0x20 DUP3 DUP5 SUB SLT ISZERO PUSH2 0xE9 JUMPI PUSH2 0xE8 PUSH2 0x76 JUMP JUMPDEST JUMPDEST PUSH0 PUSH2 0xF6 DUP5 DUP3 DUP6 ADD PUSH2 0xC0 JUMP JUMPDEST SWAP2 POP POP SWAP3 SWAP2 POP POP JUMP JUMPDEST PUSH2 0x4F6 DUP1 PUSH2 0x10C PUSH0 CODECOPY PUSH0 RETURN INVALID PUSH1 0x80 PUSH1 0x40 MSTORE CALLVALUE DUP1 ISZERO PUSH2 0xF JUMPI PUSH0 DUP1 REVERT JUMPDEST POP PUSH1 0x4 CALLDATASIZE LT PUSH2 0x55 JUMPI PUSH0 CALLDATALOAD PUSH1 0xE0 SHR DUP1 PUSH4 0x13F0E5BA EQ PUSH2 0x59 JUMPI DUP1 PUSH4 0x673A7E28 EQ PUSH2 0x79 JUMPI DUP1 PUSH4 0x95C570BD EQ PUSH2 0x83 JUMPI DUP1 PUSH4 0xA3E6BA94 EQ PUSH2 0xA1 JUMPI DUP1 PUSH4 0xD0B06F5D EQ PUSH2 0xBF JUMPI JUMPDEST PUSH0 DUP1 REVERT JUMPDEST PUSH2 0x61 PUSH2 0xDD JUMP JUMPDEST PUSH1 0x40 MLOAD PUSH2 0x70 SWAP4 SWAP3 SWAP2 SWAP1 PUSH2 0x273 JUMP JUMPDEST PUSH1 0x40 MLOAD DUP1 SWAP2 SUB SWAP1 RETURN JUMPDEST PUSH2 0x81 PUSH2 0xF4 JUMP JUMPDEST STOP JUMPDEST PUSH2 0x8B PUSH2 0x231 JUMP JUMPDEST PUSH1 0x40 MLOAD PUSH2 0x98 SWAP2 SWAP1 PUSH2 0x2A8 JUMP JUMPDEST PUSH1 0x40 MLOAD DUP1 SWAP2 SUB SWAP1 RETURN JUMPDEST PUSH2 0xA9 PUSH2 0x237 JUMP JUMPDEST PUSH1 0x40 MLOAD PUSH2 0xB6 SWAP2 SWAP1 PUSH2 0x2C1 JUMP JUMPDEST PUSH1 0x40 MLOAD DUP1 SWAP2 SUB SWAP1 RETURN JUMPDEST PUSH2 0xC7 PUSH2 0x23D JUMP JUMPDEST PUSH1 0x40 MLOAD PUSH2 0xD4 SWAP2 SWAP1 PUSH2 0x2A8 JUMP JUMPDEST PUSH1 0x40 MLOAD DUP1 SWAP2 SUB SWAP1 RETURN JUMPDEST PUSH0 DUP1 PUSH0 PUSH1 0x1 SLOAD PUSH1 0x2 SLOAD PUSH1 0x3 SLOAD SWAP3 POP SWAP3 POP SWAP3 POP SWAP1 SWAP2 SWAP3 JUMP JUMPDEST PUSH0 GAS SWAP1 POP PUSH0 DUP1 PUSH0 DUP1 SLOAD SWAP1 PUSH2 0x100 EXP SWAP1 DIV PUSH20 0xFFFFFFFFFFFFFFFFFFFFFFFFFFFFFFFFFFFFFFFF AND PUSH20 0xFFFFFFFFFFFFFFFFFFFFFFFFFFFFFFFFFFFFFFFF AND PUSH4 0xFEAF968C PUSH1 0x40 MLOAD DUP2 PUSH4 0xFFFFFFFF AND PUSH1 0xE0 SHL DUP2 MSTORE PUSH1 0x4 ADD PUSH1 0xA0 PUSH1 0x40 MLOAD DUP1 DUP4 SUB DUP2 DUP7 GAS STATICCALL ISZERO DUP1 ISZERO PUSH2 0x162 JUMPI RETURNDATASIZE PUSH0 DUP1 RETURNDATACOPY RETURNDATASIZE PUSH0 REVERT JUMPDEST POP POP POP POP PUSH1 0x40 MLOAD RETURNDATASIZE PUSH1 0x1F NOT PUSH1 0x1F DUP3 ADD AND DUP3 ADD DUP1 PUSH1 0x40 MSTORE POP DUP2 ADD SWAP1 PUSH2 0x186 SWAP2 SWAP1 PUSH2 0x371 JUMP JUMPDEST POP SWAP4 POP POP SWAP3 POP POP PUSH0 DUP3 SGT PUSH2 0x1CF JUMPI PUSH1 0x40 MLOAD PUSH32 0x8C379A000000000000000000000000000000000000000000000000000000000 DUP2 MSTORE PUSH1 0x4 ADD PUSH2 0x1C6 SWAP1 PUSH2 0x442 JUMP JUMPDEST PUSH1 0x40 MLOAD DUP1 SWAP2 SUB SWAP1 REVERT JUMPDEST DUP2 PUSH1 0x1 DUP2 SWAP1 SSTORE POP DUP1 PUSH1 0x2 DUP2 SWAP1 SSTORE POP GAS DUP4 PUSH2 0x1E9 SWAP2 SWAP1 PUSH2 0x48D JUMP JUMPDEST PUSH1 0x3 DUP2 SWAP1 SSTORE POP PUSH32 0x81F77CECCB4C16B8414154D0F897A55E0AC6C28671D8491CFB381F1942893453 DUP3 DUP3 PUSH1 0x3 SLOAD PUSH1 0x40 MLOAD PUSH2 0x224 SWAP4 SWAP3 SWAP2 SWAP1 PUSH2 0x273 JUMP JUMPDEST PUSH1 0x40 MLOAD DUP1 SWAP2 SUB SWAP1 LOG1 POP POP POP JUMP JUMPDEST PUSH1 0x3 SLOAD DUP2 JUMP JUMPDEST PUSH1 0x1 SLOAD DUP2 JUMP JUMPDEST PUSH1 0x2 SLOAD DUP2 JUMP JUMPDEST PUSH0 DUP2 SWAP1 POP SWAP2 SWAP1 POP JUMP JUMPDEST PUSH2 0x255 DUP2 PUSH2 0x243 JUMP JUMPDEST DUP3 MSTORE POP POP JUMP JUMPDEST PUSH0 DUP2 SWAP1 POP SWAP2 SWAP1 POP JUMP JUMPDEST PUSH2 0x26D DUP2 PUSH2 0x25B JUMP JUMPDEST DUP3 MSTORE POP POP JUMP JUMPDEST PUSH0 PUSH1 0x60 DUP3 ADD SWAP1 POP PUSH2 0x286 PUSH0 DUP4 ADD DUP7 PUSH2 0x24C JUMP JUMPDEST PUSH2 0x293 PUSH1 0x20 DUP4 ADD DUP6 PUSH2 0x264 JUMP JUMPDEST PUSH2 0x2A0 PUSH1 0x40 DUP4 ADD DUP5 PUSH2 0x264 JUMP JUMPDEST SWAP5 SWAP4 POP POP POP POP JUMP JUMPDEST PUSH0 PUSH1 0x20 DUP3 ADD SWAP1 POP PUSH2 0x2BB PUSH0 DUP4 ADD DUP5 PUSH2 0x264 JUMP JUMPDEST SWAP3 SWAP2 POP POP JUMP JUMPDEST PUSH0 PUSH1 0x20 DUP3 ADD SWAP1 POP PUSH2 0x2D4 PUSH0 DUP4 ADD DUP5 PUSH2 0x24C JUMP JUMPDEST SWAP3 SWAP2 POP POP JUMP JUMPDEST PUSH0 DUP1 REVERT JUMPDEST PUSH0 PUSH10 0xFFFFFFFFFFFFFFFFFFFF DUP3 AND SWAP1 POP SWAP2 SWAP1 POP JUMP JUMPDEST PUSH2 0x2FC DUP2 PUSH2 0x2DE JUMP JUMPDEST DUP2 EQ PUSH2 0x306 JUMPI PUSH0 DUP1 REVERT JUMPDEST POP JUMP JUMPDEST PUSH0 DUP2 MLOAD SWAP1 POP PUSH2 0x317 DUP2 PUSH2 0x2F3 JUMP JUMPDEST SWAP3 SWAP2 POP POP JUMP JUMPDEST PUSH2 0x326 DUP2 PUSH2 0x243 JUMP JUMPDEST DUP2 EQ PUSH2 0x330 JUMPI PUSH0 DUP1 REVERT JUMPDEST POP JUMP JUMPDEST PUSH0 DUP2 MLOAD SWAP1 POP PUSH2 0x341 DUP2 PUSH2 0x31D JUMP JUMPDEST SWAP3 SWAP2 POP POP JUMP JUMPDEST PUSH2 0x350 DUP2 PUSH2 0x25B JUMP JUMPDEST DUP2 EQ PUSH2 0x35A JUMPI PUSH0 DUP1 REVERT JUMPDEST POP JUMP JUMPDEST PUSH0 DUP2 MLOAD SWAP1 POP PUSH2 0x36B DUP2 PUSH2 0x347 JUMP JUMPDEST SWAP3 SWAP2 POP POP JUMP JUMPDEST PUSH0 DUP1 PUSH0 DUP1 PUSH0 PUSH1 0xA0 DUP7 DUP9 SUB SLT ISZERO PUSH2 0x38A JUMPI PUSH2 0x389 PUSH2 0x2DA JUMP JUMPDEST JUMPDEST PUSH0 PUSH2 0x397 DUP9 DUP3 DUP10 ADD PUSH2 0x309 JUMP JUMPDEST SWAP6 POP POP PUSH1 0x20 PUSH2 0x3A8 DUP9 DUP3 DUP10 ADD PUSH2 0x333 JUMP JUMPDEST SWAP5 POP POP PUSH1 0x40 PUSH2 0x3B9 DUP9 DUP3 DUP10 ADD PUSH2 0x35D JUMP JUMPDEST SWAP4 POP POP PUSH1 0x60 PUSH2 0x3CA DUP9 DUP3 DUP10 ADD PUSH2 0x35D JUMP JUMPDEST SWAP3 POP POP PUSH1 0x80 PUSH2 0x3DB DUP9 DUP3 DUP10 ADD PUSH2 0x309 JUMP JUMPDEST SWAP2 POP POP SWAP3 SWAP6 POP SWAP3 SWAP6 SWAP1 SWAP4 POP JUMP JUMPDEST PUSH0 DUP3 DUP3 MSTORE PUSH1 0x20 DUP3 ADD SWAP1 POP SWAP3 SWAP2 POP POP JUMP JUMPDEST PUSH32 0x496E76616C696420707269636520646174610000000000000000000000000000 PUSH0 DUP3 ADD MSTORE POP JUMP JUMPDEST PUSH0 PUSH2 0x42C PUSH1 0x12 DUP4 PUSH2 0x3E8 JUMP JUMPDEST SWAP2 POP PUSH2 0x437 DUP3 PUSH2 0x3F8 JUMP JUMPDEST PUSH1 0x20 DUP3 ADD SWAP1 POP SWAP2 SWAP1 POP JUMP JUMPDEST PUSH0 PUSH1 0x20 DUP3 ADD SWAP1 POP DUP2 DUP2 SUB PUSH0 DUP4 ADD MSTORE PUSH2 0x459 DUP2 PUSH2 0x420 JUMP JUMPDEST SWAP1 POP SWAP2 SWAP1 POP JUMP JUMPDEST PUSH32 0x4E487B7100000000000000000000000000000000000000000000000000000000 PUSH0 MSTORE PUSH1 0x11 PUSH1 0x4 MSTORE PUSH1 0x24 PUSH0 REVERT JUMPDEST PUSH0 PUSH2 0x497 DUP3 PUSH2 0x25B JUMP JUMPDEST SWAP2 POP PUSH2 0x4A2 DUP4 PUSH2 0x25B JUMP JUMPDEST SWAP3 POP DUP3 DUP3 SUB SWAP1 POP DUP2 DUP2 GT ISZERO PUSH2 0x4BA JUMPI PUSH2 0x4B9 PUSH2 0x460 JUMP JUMPDEST JUMPDEST SWAP3 SWAP2 POP POP JUMP INVALID LOG2 PUSH5 0x6970667358 0x22 SLT KECCAK256 0xE7 CALLDATACOPY 0xD2 SELFBALANCE 0xAD PUSH0 PUSH15 0x37E00AD729C490A2FE6C83AD00D020 SELFDESTRUCT PUSH9 0xE2064FC4118A697B64 PUSH20 0x6F6C634300081800330000000000000000000000 "
				},
				"gasEstimates": {
					"creation": {
						"codeDepositCost": "254000",
						"executionCost": "infinite",
						"totalCost": "infinite"
					},
					"external": {
						"getBenchmarkData()": "infinite",
						"lastGasUsed()": "2447",
						"lastUpdated()": "2491",
						"latestPrice()": "2469",
						"updatePrice()": "infinite"
					}
				},
				"methodIdentifiers": {
					"getBenchmarkData()": "13f0e5ba",
					"lastGasUsed()": "95c570bd",
					"lastUpdated()": "d0b06f5d",
					"latestPrice()": "a3e6ba94",
					"updatePrice()": "673a7e28"
				}
			},
			"storageLayout": {
				"storage": [
					{
						"astId": 52,
						"contract": "contracts/Arbitrage/ArbitragePriceMarer.sol:ArbitrageBenchmark",
						"label": "priceFeed",
						"offset": 0,
						"slot": "0",
						"type": "t_contract(AggregatorV3Interface)45"
					},
					{
						"astId": 54,
						"contract": "contracts/Arbitrage/ArbitragePriceMarer.sol:ArbitrageBenchmark",
						"label": "latestPrice",
						"offset": 0,
						"slot": "1",
						"type": "t_int256"
					},
					{
						"astId": 56,
						"contract": "contracts/Arbitrage/ArbitragePriceMarer.sol:ArbitrageBenchmark",
						"label": "lastUpdated",
						"offset": 0,
						"slot": "2",
						"type": "t_uint256"
					},
					{
						"astId": 58,
						"contract": "contracts/Arbitrage/ArbitragePriceMarer.sol:ArbitrageBenchmark",
						"label": "lastGasUsed",
						"offset": 0,
						"slot": "3",
						"type": "t_uint256"
					}
				],
				"types": {
					"t_contract(AggregatorV3Interface)45": {
						"encoding": "inplace",
						"label": "contract AggregatorV3Interface",
						"numberOfBytes": "20"
					},
					"t_int256": {
						"encoding": "inplace",
						"label": "int256",
						"numberOfBytes": "32"
					},
					"t_uint256": {
						"encoding": "inplace",
						"label": "uint256",
						"numberOfBytes": "32"
					}
				}
			},
			"userdoc": {
				"kind": "user",
				"methods": {
					"getBenchmarkData()": {
						"notice": "Returns the latest stored price, timestamp, and gas cost of last update."
					},
					"updatePrice()": {
						"notice": "Fetches the latest ETH/USD price from Chainlink and records benchmarking data."
					}
				},
				"notice": "Fetches Chainlink ETH/USD price, records gas costs, and allows off-chain benchmarking.",
				"version": 1
			}
		}
	}
}